{
  "contracts/bond/ClaimSwapKlayKbtLpDepository.sol": {
    "ClaimSwapKlayKbtLpDepository": {
      "abi": [
        {
          "anonymous": false,
          "inputs": [
            {
              "indexed": false,
              "internalType": "address",
              "name": "depositor",
              "type": "address"
            },
            {
              "indexed": false,
              "internalType": "uint256",
              "name": "deposit",
              "type": "uint256"
            },
            {
              "indexed": true,
              "internalType": "uint256",
              "name": "payout",
              "type": "uint256"
            },
            {
              "indexed": true,
              "internalType": "uint256",
              "name": "expires",
              "type": "uint256"
            },
            {
              "indexed": true,
              "internalType": "uint256",
              "name": "priceInUSD",
              "type": "uint256"
            }
          ],
          "name": "BondCreated",
          "type": "event"
        },
        {
          "anonymous": false,
          "inputs": [
            {
              "indexed": true,
              "internalType": "uint256",
              "name": "priceInUSD",
              "type": "uint256"
            },
            {
              "indexed": true,
              "internalType": "uint256",
              "name": "debtRatio",
              "type": "uint256"
            }
          ],
          "name": "BondPriceChanged",
          "type": "event"
        },
        {
          "anonymous": false,
          "inputs": [
            {
              "indexed": true,
              "internalType": "address",
              "name": "recipient",
              "type": "address"
            },
            {
              "indexed": false,
              "internalType": "uint256",
              "name": "payout",
              "type": "uint256"
            },
            {
              "indexed": false,
              "internalType": "uint256",
              "name": "remaining",
              "type": "uint256"
            }
          ],
          "name": "BondRedeemed",
          "type": "event"
        },
        {
          "anonymous": false,
          "inputs": [
            {
              "indexed": false,
              "internalType": "uint256",
              "name": "initialBCV",
              "type": "uint256"
            },
            {
              "indexed": false,
              "internalType": "uint256",
              "name": "newBCV",
              "type": "uint256"
            },
            {
              "indexed": false,
              "internalType": "uint256",
              "name": "adjustment",
              "type": "uint256"
            },
            {
              "indexed": false,
              "internalType": "bool",
              "name": "addition",
              "type": "bool"
            }
          ],
          "name": "ControlVariableAdjustment",
          "type": "event"
        },
        {
          "anonymous": false,
          "inputs": [
            {
              "indexed": true,
              "internalType": "address",
              "name": "previousOwner",
              "type": "address"
            },
            {
              "indexed": true,
              "internalType": "address",
              "name": "newOwner",
              "type": "address"
            }
          ],
          "name": "OwnershipPulled",
          "type": "event"
        },
        {
          "anonymous": false,
          "inputs": [
            {
              "indexed": true,
              "internalType": "address",
              "name": "previousOwner",
              "type": "address"
            },
            {
              "indexed": true,
              "internalType": "address",
              "name": "newOwner",
              "type": "address"
            }
          ],
          "name": "OwnershipPushed",
          "type": "event"
        },
        {
          "inputs": [],
          "name": "DAO",
          "outputs": [
            {
              "internalType": "address",
              "name": "",
              "type": "address"
            }
          ],
          "stateMutability": "view",
          "type": "function"
        },
        {
          "inputs": [],
          "name": "KBT",
          "outputs": [
            {
              "internalType": "address",
              "name": "",
              "type": "address"
            }
          ],
          "stateMutability": "view",
          "type": "function"
        },
        {
          "inputs": [],
          "name": "NAME",
          "outputs": [
            {
              "internalType": "string",
              "name": "",
              "type": "string"
            }
          ],
          "stateMutability": "pure",
          "type": "function"
        },
        {
          "inputs": [],
          "name": "REVISION",
          "outputs": [
            {
              "internalType": "uint256",
              "name": "",
              "type": "uint256"
            }
          ],
          "stateMutability": "view",
          "type": "function"
        },
        {
          "inputs": [
            {
              "internalType": "address",
              "name": "_KBT",
              "type": "address"
            },
            {
              "internalType": "address",
              "name": "_DAO",
              "type": "address"
            },
            {
              "internalType": "address",
              "name": "_principle",
              "type": "address"
            },
            {
              "internalType": "address",
              "name": "_staking",
              "type": "address"
            },
            {
              "internalType": "address",
              "name": "_treasury",
              "type": "address"
            },
            {
              "internalType": "address",
              "name": "_oracle",
              "type": "address"
            }
          ],
          "name": "__initialize",
          "outputs": [],
          "stateMutability": "nonpayable",
          "type": "function"
        },
        {
          "inputs": [],
          "name": "adjustment",
          "outputs": [
            {
              "internalType": "bool",
              "name": "add",
              "type": "bool"
            },
            {
              "internalType": "uint256",
              "name": "rate",
              "type": "uint256"
            },
            {
              "internalType": "uint256",
              "name": "target",
              "type": "uint256"
            },
            {
              "internalType": "uint256",
              "name": "buffer",
              "type": "uint256"
            },
            {
              "internalType": "uint256",
              "name": "lastBlock",
              "type": "uint256"
            }
          ],
          "stateMutability": "view",
          "type": "function"
        },
        {
          "inputs": [],
          "name": "assetPrice",
          "outputs": [
            {
              "internalType": "uint256",
              "name": "",
              "type": "uint256"
            }
          ],
          "stateMutability": "view",
          "type": "function"
        },
        {
          "inputs": [
            {
              "internalType": "address",
              "name": "",
              "type": "address"
            }
          ],
          "name": "bondInfo",
          "outputs": [
            {
              "internalType": "uint256",
              "name": "payout",
              "type": "uint256"
            },
            {
              "internalType": "uint256",
              "name": "vesting",
              "type": "uint256"
            },
            {
              "internalType": "uint256",
              "name": "lastBlock",
              "type": "uint256"
            },
            {
              "internalType": "uint256",
              "name": "pricePaid",
              "type": "uint256"
            }
          ],
          "stateMutability": "view",
          "type": "function"
        },
        {
          "inputs": [],
          "name": "bondPrice",
          "outputs": [
            {
              "internalType": "uint256",
              "name": "price_",
              "type": "uint256"
            }
          ],
          "stateMutability": "view",
          "type": "function"
        },
        {
          "inputs": [],
          "name": "currentDebt",
          "outputs": [
            {
              "internalType": "uint256",
              "name": "",
              "type": "uint256"
            }
          ],
          "stateMutability": "view",
          "type": "function"
        },
        {
          "inputs": [],
          "name": "debtDecay",
          "outputs": [
            {
              "internalType": "uint256",
              "name": "decay_",
              "type": "uint256"
            }
          ],
          "stateMutability": "view",
          "type": "function"
        },
        {
          "inputs": [],
          "name": "debtRatio",
          "outputs": [
            {
              "internalType": "uint256",
              "name": "debtRatio_",
              "type": "uint256"
            }
          ],
          "stateMutability": "view",
          "type": "function"
        },
        {
          "inputs": [
            {
              "internalType": "uint256",
              "name": "_amount",
              "type": "uint256"
            },
            {
              "internalType": "uint256",
              "name": "_maxPrice",
              "type": "uint256"
            },
            {
              "internalType": "address",
              "name": "_depositor",
              "type": "address"
            }
          ],
          "name": "deposit",
          "outputs": [
            {
              "internalType": "uint256",
              "name": "",
              "type": "uint256"
            }
          ],
          "stateMutability": "nonpayable",
          "type": "function"
        },
        {
          "inputs": [
            {
              "internalType": "uint256",
              "name": "_controlVariable",
              "type": "uint256"
            },
            {
              "internalType": "uint256",
              "name": "_vestingTerm",
              "type": "uint256"
            },
            {
              "internalType": "uint256",
              "name": "_minimumPriceRate",
              "type": "uint256"
            },
            {
              "internalType": "uint256",
              "name": "_maxPayout",
              "type": "uint256"
            },
            {
              "internalType": "uint256",
              "name": "_fee",
              "type": "uint256"
            },
            {
              "internalType": "uint256",
              "name": "_maxDebt",
              "type": "uint256"
            },
            {
              "internalType": "uint256",
              "name": "_initialDebt",
              "type": "uint256"
            }
          ],
          "name": "initializeBondTerms",
          "outputs": [],
          "stateMutability": "nonpayable",
          "type": "function"
        },
        {
          "inputs": [],
          "name": "kbtPrice",
          "outputs": [
            {
              "internalType": "uint256",
              "name": "",
              "type": "uint256"
            }
          ],
          "stateMutability": "view",
          "type": "function"
        },
        {
          "inputs": [],
          "name": "lastDecay",
          "outputs": [
            {
              "internalType": "uint256",
              "name": "",
              "type": "uint256"
            }
          ],
          "stateMutability": "view",
          "type": "function"
        },
        {
          "inputs": [],
          "name": "maxPayout",
          "outputs": [
            {
              "internalType": "uint256",
              "name": "",
              "type": "uint256"
            }
          ],
          "stateMutability": "view",
          "type": "function"
        },
        {
          "inputs": [],
          "name": "oracle",
          "outputs": [
            {
              "internalType": "address",
              "name": "",
              "type": "address"
            }
          ],
          "stateMutability": "view",
          "type": "function"
        },
        {
          "inputs": [],
          "name": "owner",
          "outputs": [
            {
              "internalType": "address",
              "name": "",
              "type": "address"
            }
          ],
          "stateMutability": "view",
          "type": "function"
        },
        {
          "inputs": [
            {
              "internalType": "uint256",
              "name": "_value",
              "type": "uint256"
            }
          ],
          "name": "payoutFor",
          "outputs": [
            {
              "internalType": "uint256",
              "name": "",
              "type": "uint256"
            }
          ],
          "stateMutability": "view",
          "type": "function"
        },
        {
          "inputs": [
            {
              "internalType": "address",
              "name": "_depositor",
              "type": "address"
            }
          ],
          "name": "pendingPayoutFor",
          "outputs": [
            {
              "internalType": "uint256",
              "name": "pendingPayout_",
              "type": "uint256"
            }
          ],
          "stateMutability": "view",
          "type": "function"
        },
        {
          "inputs": [
            {
              "internalType": "address",
              "name": "_depositor",
              "type": "address"
            }
          ],
          "name": "percentVestedFor",
          "outputs": [
            {
              "internalType": "uint256",
              "name": "percentVested_",
              "type": "uint256"
            }
          ],
          "stateMutability": "view",
          "type": "function"
        },
        {
          "inputs": [],
          "name": "priceRate",
          "outputs": [
            {
              "internalType": "uint256",
              "name": "rate_",
              "type": "uint256"
            }
          ],
          "stateMutability": "view",
          "type": "function"
        },
        {
          "inputs": [],
          "name": "principle",
          "outputs": [
            {
              "internalType": "address",
              "name": "",
              "type": "address"
            }
          ],
          "stateMutability": "view",
          "type": "function"
        },
        {
          "inputs": [],
          "name": "pullManagement",
          "outputs": [],
          "stateMutability": "nonpayable",
          "type": "function"
        },
        {
          "inputs": [
            {
              "internalType": "address",
              "name": "newOwner_",
              "type": "address"
            }
          ],
          "name": "pushManagement",
          "outputs": [],
          "stateMutability": "nonpayable",
          "type": "function"
        },
        {
          "inputs": [
            {
              "internalType": "address",
              "name": "_token",
              "type": "address"
            }
          ],
          "name": "recoverLostToken",
          "outputs": [
            {
              "internalType": "bool",
              "name": "",
              "type": "bool"
            }
          ],
          "stateMutability": "nonpayable",
          "type": "function"
        },
        {
          "inputs": [
            {
              "internalType": "address",
              "name": "_recipient",
              "type": "address"
            },
            {
              "internalType": "bool",
              "name": "_stake",
              "type": "bool"
            }
          ],
          "name": "redeem",
          "outputs": [
            {
              "internalType": "uint256",
              "name": "",
              "type": "uint256"
            }
          ],
          "stateMutability": "nonpayable",
          "type": "function"
        },
        {
          "inputs": [],
          "name": "renounceManagement",
          "outputs": [],
          "stateMutability": "nonpayable",
          "type": "function"
        },
        {
          "inputs": [
            {
              "internalType": "bool",
              "name": "_addition",
              "type": "bool"
            },
            {
              "internalType": "uint256",
              "name": "_increment",
              "type": "uint256"
            },
            {
              "internalType": "uint256",
              "name": "_target",
              "type": "uint256"
            },
            {
              "internalType": "uint256",
              "name": "_buffer",
              "type": "uint256"
            }
          ],
          "name": "setAdjustment",
          "outputs": [],
          "stateMutability": "nonpayable",
          "type": "function"
        },
        {
          "inputs": [
            {
              "internalType": "enum BondDepository.PARAMETER",
              "name": "_parameter",
              "type": "uint8"
            },
            {
              "internalType": "uint256",
              "name": "_input",
              "type": "uint256"
            }
          ],
          "name": "setBondTerms",
          "outputs": [],
          "stateMutability": "nonpayable",
          "type": "function"
        },
        {
          "inputs": [
            {
              "internalType": "address",
              "name": "_staking",
              "type": "address"
            }
          ],
          "name": "setStaking",
          "outputs": [],
          "stateMutability": "nonpayable",
          "type": "function"
        },
        {
          "inputs": [],
          "name": "staking",
          "outputs": [
            {
              "internalType": "address",
              "name": "",
              "type": "address"
            }
          ],
          "stateMutability": "view",
          "type": "function"
        },
        {
          "inputs": [],
          "name": "terms",
          "outputs": [
            {
              "internalType": "uint256",
              "name": "controlVariable",
              "type": "uint256"
            },
            {
              "internalType": "uint256",
              "name": "vestingTerm",
              "type": "uint256"
            },
            {
              "internalType": "uint256",
              "name": "minimumPriceRate",
              "type": "uint256"
            },
            {
              "internalType": "uint256",
              "name": "maxPayout",
              "type": "uint256"
            },
            {
              "internalType": "uint256",
              "name": "fee",
              "type": "uint256"
            },
            {
              "internalType": "uint256",
              "name": "maxDebt",
              "type": "uint256"
            }
          ],
          "stateMutability": "view",
          "type": "function"
        },
        {
          "inputs": [],
          "name": "totalDebt",
          "outputs": [
            {
              "internalType": "uint256",
              "name": "",
              "type": "uint256"
            }
          ],
          "stateMutability": "view",
          "type": "function"
        },
        {
          "inputs": [],
          "name": "treasury",
          "outputs": [
            {
              "internalType": "address",
              "name": "",
              "type": "address"
            }
          ],
          "stateMutability": "view",
          "type": "function"
        }
      ],
      "devdoc": {
        "kind": "dev",
        "methods": {
          "assetPrice()": {
            "returns": {
              "_0": "uint256 in 10 ** 6 precision"
            }
          },
          "bondPrice()": {
            "returns": {
              "price_": "uint256 in 10**6 precision in usd"
            }
          },
          "currentDebt()": {
            "returns": {
              "_0": "uint256 in 10 ** 18 precision"
            }
          },
          "debtDecay()": {
            "returns": {
              "decay_": "uint256"
            }
          },
          "debtRatio()": {
            "returns": {
              "debtRatio_": "uint256 in 10 ** 9 precision"
            }
          },
          "deposit(uint256,uint256,address)": {
            "params": {
              "_amount": "uint256 in 10 ** 18 precision",
              "_depositor": "address",
              "_maxPrice": "uint256"
            },
            "returns": {
              "_0": "uint256"
            }
          },
          "initializeBondTerms(uint256,uint256,uint256,uint256,uint256,uint256,uint256)": {
            "params": {
              "_controlVariable": "uint256",
              "_fee": "uint256",
              "_initialDebt": "uint256",
              "_maxDebt": "uint256",
              "_maxPayout": "uint256",
              "_minimumPriceRate": "uint256",
              "_vestingTerm": "uint256"
            }
          },
          "kbtPrice()": {
            "returns": {
              "_0": "uint256 in 10**6 precision"
            }
          },
          "maxPayout()": {
            "returns": {
              "_0": "uint256"
            }
          },
          "payoutFor(uint256)": {
            "params": {
              "_value": "uint256 10**18 precision"
            },
            "returns": {
              "_0": "uint256 10**18 precision"
            }
          },
          "pendingPayoutFor(address)": {
            "params": {
              "_depositor": "address"
            },
            "returns": {
              "pendingPayout_": "uint256"
            }
          },
          "percentVestedFor(address)": {
            "params": {
              "_depositor": "address"
            },
            "returns": {
              "percentVested_": "uint256"
            }
          },
          "priceRate()": {
            "returns": {
              "rate_": "uint256 in 10**9 precision"
            }
          },
          "recoverLostToken(address)": {
            "returns": {
              "_0": "bool"
            }
          },
          "redeem(address,bool)": {
            "params": {
              "_recipient": "address",
              "_stake": "bool"
            },
            "returns": {
              "_0": "uint256"
            }
          },
          "setAdjustment(bool,uint256,uint256,uint256)": {
            "params": {
              "_addition": "bool",
              "_buffer": "uint256",
              "_increment": "uint256",
              "_target": "uint256"
            }
          },
          "setBondTerms(uint8,uint256)": {
            "params": {
              "_input": "uint256",
              "_parameter": "PARAMETER"
            }
          },
          "setStaking(address)": {
            "params": {
              "_staking": "address"
            }
          }
        },
        "version": 1
      },
      "evm": {
        "bytecode": {
          "linkReferences": {},
          "object": "6080604052600060025534801561001557600080fd5b5061001e610023565b6100e6565b6000546001600160a01b03161561009b57604080517f08c379a000000000000000000000000000000000000000000000000000000000815260206004820152601c60248201527f4f776e61626c653a20616c726561647920696e697469616c697a656400000000604482015290519081900360640190fd5b600080546001600160a01b03191633178082556040516001600160a01b039190911691907fea8258f2d9ddb679928cf34b78cf645b7feda9acc828e4dd82d014eaae270eba908290a3565b6127bc80620000f66000396000f3fe608060405234801561001057600080fd5b506004361061025c5760003560e01c80638da5cb5b11610145578063d24378eb116100bd578063e0176de81161008c578063e88f989011610071578063e88f989014610641578063f5c2ab5b1461068f578063fc7b9c18146106975761025c565b8063e0176de814610631578063e392a262146106395761025c565b8063d24378eb146105de578063d5025625146105e6578063d7ccfb0b14610621578063dde43cba146106295761025c565b8063a3f4df7e11610114578063cd1234b3116100f9578063cd1234b314610582578063cea55f57146105ce578063ceb791d9146105d65761025c565b8063a3f4df7e146104cb578063b4abccba146105485761025c565b80638da5cb5b146104635780638dbdbe6d1461046b5780638ff390991461049d57806398fabd3a146104c35761025c565b8063507930ec116101d857806371535008116101a75780637927ebf81161018c5780637927ebf8146104365780637a97492f146104535780637dc0d1d01461045b5761025c565b806371535008146103ed578063759076e51461042e5761025c565b8063507930ec146103af5780635a96ac0a146103d557806361d027b3146103dd5780636c9d3232146103e55761025c565b80631e321a0f1161022f578063451ee4a111610214578063451ee4a11461034c57806346f68ee9146103815780634cf088d9146103a75761025c565b80631e321a0f146102f85780631feed31f1461031e5761025c565b8063016a42841461026157806301b88ee814610285578063089208d8146102bd5780631a3d0068146102c7575b600080fd5b61026961069f565b604080516001600160a01b039092168252519081900360200190f35b6102ab6004803603602081101561029b57600080fd5b50356001600160a01b03166106ae565b60408051918252519081900360200190f35b6102c5610707565b005b6102c5600480360360808110156102dd57600080fd5b508035151590602081013590604081013590606001356107b0565b6102c56004803603604081101561030e57600080fd5b5060ff81351690602001356108fe565b6102ab6004803603604081101561033457600080fd5b506001600160a01b0381351690602001351515610ab8565b610354610cad565b60408051951515865260208601949094528484019290925260608401526080830152519081900360a00190f35b6102c56004803603602081101561039757600080fd5b50356001600160a01b0316610cc5565b610269610dc4565b6102ab600480360360208110156103c557600080fd5b50356001600160a01b0316610dd3565b6102c5610e65565b610269610f0f565b610269610f1e565b6102c5600480360360e081101561040357600080fd5b5080359060208101359060408101359060608101359060808101359060a08101359060c00135610f2d565b6102ab6110e5565b6102ab6004803603602081101561044c57600080fd5b5035611101565b6102ab611129565b6102696111ae565b6102696111bd565b6102ab6004803603606081101561048157600080fd5b50803590602081013590604001356001600160a01b03166111cc565b6102c5600480360360208110156104b357600080fd5b50356001600160a01b0316611643565b6102696116d7565b6104d36116e6565b6040805160208082528351818301528351919283929083019185019080838360005b8381101561050d5781810151838201526020016104f5565b50505050905090810190601f16801561053a5780820380516001836020036101000a031916815260200191505b509250505060405180910390f35b61056e6004803603602081101561055e57600080fd5b50356001600160a01b031661171d565b604080519115158252519081900360200190f35b6105a86004803603602081101561059857600080fd5b50356001600160a01b031661186b565b604080519485526020850193909352838301919091526060830152519081900360800190f35b6102ab611892565b6102ab611937565b6102ab611966565b6105ee6119ba565b604080519687526020870195909552858501939093526060850191909152608084015260a0830152519081900360c00190f35b6102ab6119cf565b6102ab611a01565b6102ab611a06565b6102ab611a98565b6102c5600480360360c081101561065757600080fd5b506001600160a01b038135811691602081013582169160408201358116916060810135821691608082013581169160a0013516611add565b6102ab611c48565b6102ab611c4e565b6037546001600160a01b031681565b6000806106ba83610dd3565b6001600160a01b03841660009081526046602052604090205490915061271082106106e757809250610700565b6106fd6127106106f78385611c54565b90611cb4565b92505b5050919050565b6000546001600160a01b03163314610766576040805162461bcd60e51b815260206004820181905260248201527f4f776e61626c653a2063616c6c6572206973206e6f7420746865206f776e6572604482015290519081900360640190fd5b600080546040516001600160a01b03909116907fea8258f2d9ddb679928cf34b78cf645b7feda9acc828e4dd82d014eaae270eba908390a3600080546001600160a01b0319169055565b6000546001600160a01b0316331461080f576040805162461bcd60e51b815260206004820181905260248201527f4f776e61626c653a2063616c6c6572206973206e6f7420746865206f776e6572604482015290519081900360640190fd5b603b54610825906103e8906106f7906019611c54565b8311156108635760405162461bcd60e51b81526004018080602001828103825260238152602001806126326023913960400191505060405180910390fd5b8361087257603b548210610878565b603b5482115b6108b35760405162461bcd60e51b81526004018080602001828103825260228152602001806125776022913960400191505060405180910390fd5b6040805160a08101825294151580865260208601859052908501839052606085018290524360809095018590526041805460ff19169091179055604292909255604355604455604555565b6000546001600160a01b0316331461095d576040805162461bcd60e51b815260206004820181905260248201527f4f776e61626c653a2063616c6c6572206973206e6f7420746865206f776e6572604482015290519081900360640190fd5b600082600481111561096b57fe5b141561097b57603c819055610ab4565b600182600481111561098957fe5b14156109da576127108111156109d05760405162461bcd60e51b81526004018080602001828103825260308152602001806127276030913960400191505060405180910390fd5b603e819055610ab4565b60028260048111156109e857fe5b1415610a3957612710811115610a2f5760405162461bcd60e51b815260040180806020018281038252602c815260200180612606602c913960400191505060405180910390fd5b603f819055610ab4565b6003826004811115610a4757fe5b1415610a57576040819055610ab4565b6004826004811115610a6557fe5b1415610ab457633b9aca00811115610aae5760405162461bcd60e51b815260040180806020018281038252602881526020018061267d6028913960400191505060405180910390fd5b603d8190555b5050565b6000610ac2612507565b506001600160a01b038316600090815260466020908152604080832081516080810183528154815260018201549381019390935260028101549183019190915260030154606082015290610b1585610dd3565b90506127108110610ba5576001600160a01b03851660008181526046602090815260408083208381556001810184905560028101849055600301839055855181519081529182019290925281517f51c99f515c87b0d95ba97f616edd182e8f161c4932eac17c6fefe9dab58b77b1929181900390910190a2610b9c85858460000151611cf6565b92505050610ca7565b8151600090610bbc90612710906106f79085611c54565b90506040518060800160405280610be0838660000151611e9890919063ffffffff16565b8152602001610c0a610bff866040015143611e9890919063ffffffff16565b602087015190611e98565b8152436020808301919091526060808701516040938401526001600160a01b038a166000818152604684528490208551808255868501516001830155868601516002830155959092015160039092019190915582518581529182019390935281517f51c99f515c87b0d95ba97f616edd182e8f161c4932eac17c6fefe9dab58b77b1929181900390910190a2610ca1868683611cf6565b93505050505b92915050565b60415460425460435460445460455460ff9094169385565b6000546001600160a01b03163314610d24576040805162461bcd60e51b815260206004820181905260248201527f4f776e61626c653a2063616c6c6572206973206e6f7420746865206f776e6572604482015290519081900360640190fd5b6001600160a01b038116610d695760405162461bcd60e51b81526004018080602001828103825260268152602001806125516026913960400191505060405180910390fd5b600080546040516001600160a01b03808516939216917fea8258f2d9ddb679928cf34b78cf645b7feda9acc828e4dd82d014eaae270eba91a3600180546001600160a01b0319166001600160a01b0392909216919091179055565b603a546001600160a01b031681565b6000610ddd612507565b506001600160a01b03821660009081526046602090815260408083208151608081018352815481526001820154938101939093526002810154918301829052600301546060830152909190610e33904390611e98565b60208301519091508015610e5857610e51816106f784612710611c54565b9350610e5d565b600093505b505050919050565b6001546001600160a01b03163314610eae5760405162461bcd60e51b81526004018080602001828103825260228152602001806125bd6022913960400191505060405180910390fd5b600154600080546040516001600160a01b0393841693909116917faa151555690c956fc3ea32f106bb9f119b5237a061eaa8557cff3e51e3792c8d91a3600154600080546001600160a01b0319166001600160a01b03909216919091179055565b6038546001600160a01b031681565b6036546001600160a01b031681565b6000546001600160a01b03163314610f8c576040805162461bcd60e51b815260206004820181905260248201527f4f776e61626c653a2063616c6c6572206973206e6f7420746865206f776e6572604482015290519081900360640190fd5b603b5415610fcb5760405162461bcd60e51b81526004018080602001828103825260308152602001806127576030913960400191505060405180910390fd5b61271084111561100c5760405162461bcd60e51b81526004018080602001828103825260308152602001806127276030913960400191505060405180910390fd5b61271083111561104d5760405162461bcd60e51b815260040180806020018281038252602c815260200180612606602c913960400191505060405180910390fd5b633b9aca008511156110905760405162461bcd60e51b815260040180806020018281038252602881526020018061267d6028913960400191505060405180910390fd5b6040805160c08101825288815260208101889052808201879052606081018690526080810185905260a001839052603b97909755603c95909555603d93909355603e91909155603f5590915560475543604855565b60006110fb6110f2611a98565b60475490611e98565b90505b90565b6000610ca764e8d4a510006106f76111176119cf565b6106f786670de0b6b3a7640000611c54565b60395460365460408051636ff5c51960e01b81526001600160a01b03928316600482015290516000939290921691636ff5c51991602480820192602092909190829003018186803b15801561117d57600080fd5b505afa158015611191573d6000803e3d6000fd5b505050506040513d60208110156111a757600080fd5b5051905090565b6039546001600160a01b031681565b6000546001600160a01b031690565b60006001600160a01b038216611229576040805162461bcd60e51b815260206004820152601f60248201527f426f6e644465706f7369746f72793a20496e76616c6964206164647265737300604482015290519081900360640190fd5b611231611eda565b60405460475411156112745760405162461bcd60e51b81526004018080602001828103825260248152602001806125996024913960400191505060405180910390fd5b600061127e6119cf565b9050808410156112bf5760405162461bcd60e51b81526004018080602001828103825260338152602001806126f46033913960400191505060405180910390fd5b60006112da620f42406106f7886112d4611966565b90611c54565b905060006112e782611101565b9050662386f26fc10000811015611345576040805162461bcd60e51b815260206004820152601e60248201527f426f6e644465706f7369746f72793a20426f6e6420746f6f20736d616c6c0000604482015290519081900360640190fd5b61134d611a06565b8111156113a1576040805162461bcd60e51b815260206004820152601e60248201527f426f6e644465706f7369746f72793a20426f6e6420746f6f206c617267650000604482015290519081900360640190fd5b60006113c16127106106f7603b6004015485611c5490919063ffffffff16565b6037549091506113dc906001600160a01b031633308b611eee565b6037546038546040805163095ea7b360e01b81526001600160a01b039283166004820152602481018c90529051919092169163095ea7b39160448083019260209291908290030181600087803b15801561143557600080fd5b505af1158015611449573d6000803e3d6000fd5b505050506040513d602081101561145f57600080fd5b50506038546037546001600160a01b039182169163bc157ac1918b91166114868686611f7c565b6040518463ffffffff1660e01b815260040180848152602001836001600160a01b031681526020018281526020019350505050600060405180830381600087803b1580156114d357600080fd5b505af11580156114e7573d6000803e3d6000fd5b505050508060001461151057603554603654611510916001600160a01b03918216911683611fd6565b60475461151d9083611f7c565b604755604080516080810182526001600160a01b038816600090815260466020529190912054819061154f9085611f7c565b8152603c805460208084019190915243604080850182905260609485018a90526001600160a01b038c1660009081526046845281902086518155928601516001840155850151600283015593909201516003909201919091555485916115b491611f7c565b604080516001600160a01b038a168152602081018c9052815186927fd52c75b244055af9364c0a5dc0da7868f6ae104012f245ad2702031af04d9b8e928290030190a46115ff611892565b6116076119cf565b6040517f2cb17bd1fd2a1fecfefae2de1e6a59194abaa62179652924ccdca01617f0bf1690600090a3611638612042565b509695505050505050565b6000546001600160a01b031633146116a2576040805162461bcd60e51b815260206004820181905260248201527f4f776e61626c653a2063616c6c6572206973206e6f7420746865206f776e6572604482015290519081900360640190fd5b6001600160a01b0381166116b557600080fd5b603a80546001600160a01b0319166001600160a01b0392909216919091179055565b6035546001600160a01b031681565b6040805180820190915260208082527f436c61696d53776170204b4c41592d4b4254204c50204465706f7369746f72799082015290565b6036546000906001600160a01b038381169116141561176d5760405162461bcd60e51b81526004018080602001828103825260218152602001806125306021913960400191505060405180910390fd5b6037546001600160a01b03838116911614156117ba5760405162461bcd60e51b81526004018080602001828103825260278152602001806125df6027913960400191505060405180910390fd5b603554604080517f70a082310000000000000000000000000000000000000000000000000000000081523060048201529051611863926001600160a01b0390811692908616916370a0823191602480820192602092909190829003018186803b15801561182657600080fd5b505afa15801561183a573d6000803e3d6000fd5b505050506040513d602081101561185057600080fd5b50516001600160a01b0385169190611fd6565b506001919050565b60466020526000908152604090208054600182015460028301546003909301549192909184565b60006110fb670de0b6b3a76400006106f7603660009054906101000a90046001600160a01b03166001600160a01b03166318160ddd6040518163ffffffff1660e01b815260040160206040518083038186803b1580156118f157600080fd5b505afa158015611905573d6000803e3d6000fd5b505050506040513d602081101561191b57600080fd5b50516106f7670de0b6b3a76400006112d4633b9aca00816110e5565b600061195260646106f7611949611892565b603b5490611c54565b603d549091508110156110fe5750603d5490565b60395460375460408051636ff5c51960e01b81526001600160a01b03928316600482015290516000939290921691636ff5c51991602480820192602092909190829003018186803b15801561117d57600080fd5b603b54603c54603d54603e54603f5460405486565b6000806119da611129565b905060006119e6611937565b90506119fa633b9aca006106f78484611c54565b9250505090565b600181565b60006110fb620f42406106f7603b60030154603660009054906101000a90046001600160a01b03166001600160a01b03166318160ddd6040518163ffffffff1660e01b815260040160206040518083038186803b158015611a6657600080fd5b505afa158015611a7a573d6000803e3d6000fd5b505050506040513d6020811015611a9057600080fd5b505190611c54565b600080611ab060485443611e9890919063ffffffff16565b603c54604754919250611ac7916106f79084611c54565b9150604754821115611ad95760475491505b5090565b6000611ae7612122565b90506002548111611b295760405162461bcd60e51b815260040180806020018281038252602e8152602001806126c6602e913960400191505060405180910390fd5b6002819055611b36612127565b6001600160a01b038716611b4957600080fd5b603680546001600160a01b0319166001600160a01b03898116919091179091558616611b7457600080fd5b603580546001600160a01b0319166001600160a01b03888116919091179091558516611b9f57600080fd5b603780546001600160a01b0319166001600160a01b03878116919091179091558416611bca57600080fd5b603a80546001600160a01b0319166001600160a01b03868116919091179091558316611bf557600080fd5b603880546001600160a01b0319166001600160a01b03858116919091179091558216611c2057600080fd5b50603980546001600160a01b0319166001600160a01b03929092169190911790555050505050565b60485481565b60475481565b600082611c6357506000610ca7565b82820282848281611c7057fe5b0414611cad5760405162461bcd60e51b81526004018080602001828103825260218152602001806126a56021913960400191505060405180910390fd5b9392505050565b6000611cad83836040518060400160405280601a81526020017f536166654d6174683a206469766973696f6e206279207a65726f0000000000008152506121d0565b600082611d85576036546040805163a9059cbb60e01b81526001600160a01b038781166004830152602482018690529151919092169163a9059cbb9160448083019260209291908290030181600087803b158015611d5357600080fd5b505af1158015611d67573d6000803e3d6000fd5b505050506040513d6020811015611d7d57600080fd5b50611e919050565b603654603a546040805163095ea7b360e01b81526001600160a01b039283166004820152602481018690529051919092169163095ea7b39160448083019260209291908290030181600087803b158015611dde57600080fd5b505af1158015611df2573d6000803e3d6000fd5b505050506040513d6020811015611e0857600080fd5b5050603a54604080517fadc9772e0000000000000000000000000000000000000000000000000000000081526001600160a01b038781166004830152602482018690529151919092169163adc9772e91604480830192600092919082900301818387803b158015611e7857600080fd5b505af1158015611e8c573d6000803e3d6000fd5b505050505b5092915050565b6000611cad83836040518060400160405280601e81526020017f536166654d6174683a207375627472616374696f6e206f766572666c6f770000815250612272565b611ee56110f2611a98565b60475543604855565b604080516001600160a01b0380861660248301528416604482015260648082018490528251808303909101815260849091019091526020810180517bffffffffffffffffffffffffffffffffffffffffffffffffffffffff167f23b872dd00000000000000000000000000000000000000000000000000000000179052611f769085906122cc565b50505050565b600082820183811015611cad576040805162461bcd60e51b815260206004820152601b60248201527f536166654d6174683a206164646974696f6e206f766572666c6f770000000000604482015290519081900360640190fd5b604080516001600160a01b038416602482015260448082018490528251808303909101815260649091019091526020810180517bffffffffffffffffffffffffffffffffffffffffffffffffffffffff1663a9059cbb60e01b17905261203d9084906122cc565b505050565b6044546045546000916120559190611f7c565b604254909150158015906120695750804310155b1561211f57603b5460415460ff16156120a357604254603b5461208b91611f7c565b603b8190556043541161209e5760006042555b6120c5565b604254603b546120b291611e98565b603b819055604354106120c55760006042555b43604555603b546042546041546040805185815260208101949094528381019290925260ff1615156060830152517fb923e581a0f83128e9e1d8297aa52b18d6744310476e0b54509c054cd7a93b2a9181900360800190a1505b50565b600190565b6000546001600160a01b031615612185576040805162461bcd60e51b815260206004820152601c60248201527f4f776e61626c653a20616c726561647920696e697469616c697a656400000000604482015290519081900360640190fd5b600080546001600160a01b03191633178082556040516001600160a01b039190911691907fea8258f2d9ddb679928cf34b78cf645b7feda9acc828e4dd82d014eaae270eba908290a3565b6000818361225c5760405162461bcd60e51b81526004018080602001828103825283818151815260200191508051906020019080838360005b83811015612221578181015183820152602001612209565b50505050905090810190601f16801561224e5780820380516001836020036101000a031916815260200191505b509250505060405180910390fd5b50600083858161226857fe5b0495945050505050565b600081848411156122c45760405162461bcd60e51b8152602060048201818152835160248401528351909283926044909101919085019080838360008315612221578181015183820152602001612209565b505050900390565b6060612321826040518060400160405280601f81526020017f536166654b4950373a206c6f772d6c6576656c2063616c6c206661696c656400815250856001600160a01b031661237d9092919063ffffffff16565b80519091501561203d5780806020019051602081101561234057600080fd5b505161203d5760405162461bcd60e51b81526004018080602001828103825260288152602001806126556028913960400191505060405180910390fd5b606061238c8484600085612394565b949350505050565b606061239f85612501565b6123f0576040805162461bcd60e51b815260206004820152601d60248201527f416464726573733a2063616c6c20746f206e6f6e2d636f6e7472616374000000604482015290519081900360640190fd5b60006060866001600160a01b031685876040518082805190602001908083835b6020831061242f5780518252601f199092019160209182019101612410565b6001836020036101000a03801982511681845116808217855250505050505090500191505060006040518083038185875af1925050503d8060008114612491576040519150601f19603f3d011682016040523d82523d6000602084013e612496565b606091505b509150915081156124aa57915061238c9050565b8051156124ba5780518082602001fd5b60405162461bcd60e51b8152602060048201818152865160248401528651879391928392604401919085019080838360008315612221578181015183820152602001612209565b3b151590565b604051806080016040528060008152602001600081526020016000815260200160008152509056fe426f6e6454726561737572793a2063616e6e6f74207769746864726177204b42544f776e61626c653a206e6577206f776e657220697320746865207a65726f2061646472657373426f6e644465706f7369746f72793a2077726f6e67207461726765742076616c7565426f6e644465706f7369746f72793a204d617820636170616369747920726561636865644f776e61626c653a206d757374206265206e6577206f776e657220746f2070756c6c426f6e6454726561737572793a2063616e6e6f74207769746864726177207072696e6369706c65426f6e644465706f7369746f72793a2044414f206665652063616e6e6f7420657863656564207061796f7574426f6e644465706f7369746f72793a20696e6372656d656e7420746f6f206c61726765536166654b4950373a204b495037206f7065726174696f6e20646964206e6f742073756363656564426f6e644465706f7369746f72793a206d696e20646973636f756e74207261746520657863656564536166654d6174683a206d756c7469706c69636174696f6e206f766572666c6f77436f6e747261637420696e7374616e63652068617320616c7265616479206265656e20696e697469616c697a6564426f6e644465706f7369746f72793a20536c697070616765206c696d69743a206d6f7265207468616e206d6178207072696365426f6e644465706f7369746f72793a207061796f75742063616e6e6f742062652061626f766520312070657263656e74426f6e644465706f7369746f72793a20626f6e6473206d75737420626520696e697469616c697a65642066726f6d2030a26469706673582212201469df6640320408f51f44f2ff6588005961506b53d6e08cb13ea06d55de16aa64736f6c63430007050033",
          "opcodes": "PUSH1 0x80 PUSH1 0x40 MSTORE PUSH1 0x0 PUSH1 0x2 SSTORE CALLVALUE DUP1 ISZERO PUSH2 0x15 JUMPI PUSH1 0x0 DUP1 REVERT JUMPDEST POP PUSH2 0x1E PUSH2 0x23 JUMP JUMPDEST PUSH2 0xE6 JUMP JUMPDEST PUSH1 0x0 SLOAD PUSH1 0x1 PUSH1 0x1 PUSH1 0xA0 SHL SUB AND ISZERO PUSH2 0x9B JUMPI PUSH1 0x40 DUP1 MLOAD PUSH32 0x8C379A000000000000000000000000000000000000000000000000000000000 DUP2 MSTORE PUSH1 0x20 PUSH1 0x4 DUP3 ADD MSTORE PUSH1 0x1C PUSH1 0x24 DUP3 ADD MSTORE PUSH32 0x4F776E61626C653A20616C726561647920696E697469616C697A656400000000 PUSH1 0x44 DUP3 ADD MSTORE SWAP1 MLOAD SWAP1 DUP2 SWAP1 SUB PUSH1 0x64 ADD SWAP1 REVERT JUMPDEST PUSH1 0x0 DUP1 SLOAD PUSH1 0x1 PUSH1 0x1 PUSH1 0xA0 SHL SUB NOT AND CALLER OR DUP1 DUP3 SSTORE PUSH1 0x40 MLOAD PUSH1 0x1 PUSH1 0x1 PUSH1 0xA0 SHL SUB SWAP2 SWAP1 SWAP2 AND SWAP2 SWAP1 PUSH32 0xEA8258F2D9DDB679928CF34B78CF645B7FEDA9ACC828E4DD82D014EAAE270EBA SWAP1 DUP3 SWAP1 LOG3 JUMP JUMPDEST PUSH2 0x27BC DUP1 PUSH3 0xF6 PUSH1 0x0 CODECOPY PUSH1 0x0 RETURN INVALID PUSH1 0x80 PUSH1 0x40 MSTORE CALLVALUE DUP1 ISZERO PUSH2 0x10 JUMPI PUSH1 0x0 DUP1 REVERT JUMPDEST POP PUSH1 0x4 CALLDATASIZE LT PUSH2 0x25C JUMPI PUSH1 0x0 CALLDATALOAD PUSH1 0xE0 SHR DUP1 PUSH4 0x8DA5CB5B GT PUSH2 0x145 JUMPI DUP1 PUSH4 0xD24378EB GT PUSH2 0xBD JUMPI DUP1 PUSH4 0xE0176DE8 GT PUSH2 0x8C JUMPI DUP1 PUSH4 0xE88F9890 GT PUSH2 0x71 JUMPI DUP1 PUSH4 0xE88F9890 EQ PUSH2 0x641 JUMPI DUP1 PUSH4 0xF5C2AB5B EQ PUSH2 0x68F JUMPI DUP1 PUSH4 0xFC7B9C18 EQ PUSH2 0x697 JUMPI PUSH2 0x25C JUMP JUMPDEST DUP1 PUSH4 0xE0176DE8 EQ PUSH2 0x631 JUMPI DUP1 PUSH4 0xE392A262 EQ PUSH2 0x639 JUMPI PUSH2 0x25C JUMP JUMPDEST DUP1 PUSH4 0xD24378EB EQ PUSH2 0x5DE JUMPI DUP1 PUSH4 0xD5025625 EQ PUSH2 0x5E6 JUMPI DUP1 PUSH4 0xD7CCFB0B EQ PUSH2 0x621 JUMPI DUP1 PUSH4 0xDDE43CBA EQ PUSH2 0x629 JUMPI PUSH2 0x25C JUMP JUMPDEST DUP1 PUSH4 0xA3F4DF7E GT PUSH2 0x114 JUMPI DUP1 PUSH4 0xCD1234B3 GT PUSH2 0xF9 JUMPI DUP1 PUSH4 0xCD1234B3 EQ PUSH2 0x582 JUMPI DUP1 PUSH4 0xCEA55F57 EQ PUSH2 0x5CE JUMPI DUP1 PUSH4 0xCEB791D9 EQ PUSH2 0x5D6 JUMPI PUSH2 0x25C JUMP JUMPDEST DUP1 PUSH4 0xA3F4DF7E EQ PUSH2 0x4CB JUMPI DUP1 PUSH4 0xB4ABCCBA EQ PUSH2 0x548 JUMPI PUSH2 0x25C JUMP JUMPDEST DUP1 PUSH4 0x8DA5CB5B EQ PUSH2 0x463 JUMPI DUP1 PUSH4 0x8DBDBE6D EQ PUSH2 0x46B JUMPI DUP1 PUSH4 0x8FF39099 EQ PUSH2 0x49D JUMPI DUP1 PUSH4 0x98FABD3A EQ PUSH2 0x4C3 JUMPI PUSH2 0x25C JUMP JUMPDEST DUP1 PUSH4 0x507930EC GT PUSH2 0x1D8 JUMPI DUP1 PUSH4 0x71535008 GT PUSH2 0x1A7 JUMPI DUP1 PUSH4 0x7927EBF8 GT PUSH2 0x18C JUMPI DUP1 PUSH4 0x7927EBF8 EQ PUSH2 0x436 JUMPI DUP1 PUSH4 0x7A97492F EQ PUSH2 0x453 JUMPI DUP1 PUSH4 0x7DC0D1D0 EQ PUSH2 0x45B JUMPI PUSH2 0x25C JUMP JUMPDEST DUP1 PUSH4 0x71535008 EQ PUSH2 0x3ED JUMPI DUP1 PUSH4 0x759076E5 EQ PUSH2 0x42E JUMPI PUSH2 0x25C JUMP JUMPDEST DUP1 PUSH4 0x507930EC EQ PUSH2 0x3AF JUMPI DUP1 PUSH4 0x5A96AC0A EQ PUSH2 0x3D5 JUMPI DUP1 PUSH4 0x61D027B3 EQ PUSH2 0x3DD JUMPI DUP1 PUSH4 0x6C9D3232 EQ PUSH2 0x3E5 JUMPI PUSH2 0x25C JUMP JUMPDEST DUP1 PUSH4 0x1E321A0F GT PUSH2 0x22F JUMPI DUP1 PUSH4 0x451EE4A1 GT PUSH2 0x214 JUMPI DUP1 PUSH4 0x451EE4A1 EQ PUSH2 0x34C JUMPI DUP1 PUSH4 0x46F68EE9 EQ PUSH2 0x381 JUMPI DUP1 PUSH4 0x4CF088D9 EQ PUSH2 0x3A7 JUMPI PUSH2 0x25C JUMP JUMPDEST DUP1 PUSH4 0x1E321A0F EQ PUSH2 0x2F8 JUMPI DUP1 PUSH4 0x1FEED31F EQ PUSH2 0x31E JUMPI PUSH2 0x25C JUMP JUMPDEST DUP1 PUSH4 0x16A4284 EQ PUSH2 0x261 JUMPI DUP1 PUSH4 0x1B88EE8 EQ PUSH2 0x285 JUMPI DUP1 PUSH4 0x89208D8 EQ PUSH2 0x2BD JUMPI DUP1 PUSH4 0x1A3D0068 EQ PUSH2 0x2C7 JUMPI JUMPDEST PUSH1 0x0 DUP1 REVERT JUMPDEST PUSH2 0x269 PUSH2 0x69F JUMP JUMPDEST PUSH1 0x40 DUP1 MLOAD PUSH1 0x1 PUSH1 0x1 PUSH1 0xA0 SHL SUB SWAP1 SWAP3 AND DUP3 MSTORE MLOAD SWAP1 DUP2 SWAP1 SUB PUSH1 0x20 ADD SWAP1 RETURN JUMPDEST PUSH2 0x2AB PUSH1 0x4 DUP1 CALLDATASIZE SUB PUSH1 0x20 DUP2 LT ISZERO PUSH2 0x29B JUMPI PUSH1 0x0 DUP1 REVERT JUMPDEST POP CALLDATALOAD PUSH1 0x1 PUSH1 0x1 PUSH1 0xA0 SHL SUB AND PUSH2 0x6AE JUMP JUMPDEST PUSH1 0x40 DUP1 MLOAD SWAP2 DUP3 MSTORE MLOAD SWAP1 DUP2 SWAP1 SUB PUSH1 0x20 ADD SWAP1 RETURN JUMPDEST PUSH2 0x2C5 PUSH2 0x707 JUMP JUMPDEST STOP JUMPDEST PUSH2 0x2C5 PUSH1 0x4 DUP1 CALLDATASIZE SUB PUSH1 0x80 DUP2 LT ISZERO PUSH2 0x2DD JUMPI PUSH1 0x0 DUP1 REVERT JUMPDEST POP DUP1 CALLDATALOAD ISZERO ISZERO SWAP1 PUSH1 0x20 DUP2 ADD CALLDATALOAD SWAP1 PUSH1 0x40 DUP2 ADD CALLDATALOAD SWAP1 PUSH1 0x60 ADD CALLDATALOAD PUSH2 0x7B0 JUMP JUMPDEST PUSH2 0x2C5 PUSH1 0x4 DUP1 CALLDATASIZE SUB PUSH1 0x40 DUP2 LT ISZERO PUSH2 0x30E JUMPI PUSH1 0x0 DUP1 REVERT JUMPDEST POP PUSH1 0xFF DUP2 CALLDATALOAD AND SWAP1 PUSH1 0x20 ADD CALLDATALOAD PUSH2 0x8FE JUMP JUMPDEST PUSH2 0x2AB PUSH1 0x4 DUP1 CALLDATASIZE SUB PUSH1 0x40 DUP2 LT ISZERO PUSH2 0x334 JUMPI PUSH1 0x0 DUP1 REVERT JUMPDEST POP PUSH1 0x1 PUSH1 0x1 PUSH1 0xA0 SHL SUB DUP2 CALLDATALOAD AND SWAP1 PUSH1 0x20 ADD CALLDATALOAD ISZERO ISZERO PUSH2 0xAB8 JUMP JUMPDEST PUSH2 0x354 PUSH2 0xCAD JUMP JUMPDEST PUSH1 0x40 DUP1 MLOAD SWAP6 ISZERO ISZERO DUP7 MSTORE PUSH1 0x20 DUP7 ADD SWAP5 SWAP1 SWAP5 MSTORE DUP5 DUP5 ADD SWAP3 SWAP1 SWAP3 MSTORE PUSH1 0x60 DUP5 ADD MSTORE PUSH1 0x80 DUP4 ADD MSTORE MLOAD SWAP1 DUP2 SWAP1 SUB PUSH1 0xA0 ADD SWAP1 RETURN JUMPDEST PUSH2 0x2C5 PUSH1 0x4 DUP1 CALLDATASIZE SUB PUSH1 0x20 DUP2 LT ISZERO PUSH2 0x397 JUMPI PUSH1 0x0 DUP1 REVERT JUMPDEST POP CALLDATALOAD PUSH1 0x1 PUSH1 0x1 PUSH1 0xA0 SHL SUB AND PUSH2 0xCC5 JUMP JUMPDEST PUSH2 0x269 PUSH2 0xDC4 JUMP JUMPDEST PUSH2 0x2AB PUSH1 0x4 DUP1 CALLDATASIZE SUB PUSH1 0x20 DUP2 LT ISZERO PUSH2 0x3C5 JUMPI PUSH1 0x0 DUP1 REVERT JUMPDEST POP CALLDATALOAD PUSH1 0x1 PUSH1 0x1 PUSH1 0xA0 SHL SUB AND PUSH2 0xDD3 JUMP JUMPDEST PUSH2 0x2C5 PUSH2 0xE65 JUMP JUMPDEST PUSH2 0x269 PUSH2 0xF0F JUMP JUMPDEST PUSH2 0x269 PUSH2 0xF1E JUMP JUMPDEST PUSH2 0x2C5 PUSH1 0x4 DUP1 CALLDATASIZE SUB PUSH1 0xE0 DUP2 LT ISZERO PUSH2 0x403 JUMPI PUSH1 0x0 DUP1 REVERT JUMPDEST POP DUP1 CALLDATALOAD SWAP1 PUSH1 0x20 DUP2 ADD CALLDATALOAD SWAP1 PUSH1 0x40 DUP2 ADD CALLDATALOAD SWAP1 PUSH1 0x60 DUP2 ADD CALLDATALOAD SWAP1 PUSH1 0x80 DUP2 ADD CALLDATALOAD SWAP1 PUSH1 0xA0 DUP2 ADD CALLDATALOAD SWAP1 PUSH1 0xC0 ADD CALLDATALOAD PUSH2 0xF2D JUMP JUMPDEST PUSH2 0x2AB PUSH2 0x10E5 JUMP JUMPDEST PUSH2 0x2AB PUSH1 0x4 DUP1 CALLDATASIZE SUB PUSH1 0x20 DUP2 LT ISZERO PUSH2 0x44C JUMPI PUSH1 0x0 DUP1 REVERT JUMPDEST POP CALLDATALOAD PUSH2 0x1101 JUMP JUMPDEST PUSH2 0x2AB PUSH2 0x1129 JUMP JUMPDEST PUSH2 0x269 PUSH2 0x11AE JUMP JUMPDEST PUSH2 0x269 PUSH2 0x11BD JUMP JUMPDEST PUSH2 0x2AB PUSH1 0x4 DUP1 CALLDATASIZE SUB PUSH1 0x60 DUP2 LT ISZERO PUSH2 0x481 JUMPI PUSH1 0x0 DUP1 REVERT JUMPDEST POP DUP1 CALLDATALOAD SWAP1 PUSH1 0x20 DUP2 ADD CALLDATALOAD SWAP1 PUSH1 0x40 ADD CALLDATALOAD PUSH1 0x1 PUSH1 0x1 PUSH1 0xA0 SHL SUB AND PUSH2 0x11CC JUMP JUMPDEST PUSH2 0x2C5 PUSH1 0x4 DUP1 CALLDATASIZE SUB PUSH1 0x20 DUP2 LT ISZERO PUSH2 0x4B3 JUMPI PUSH1 0x0 DUP1 REVERT JUMPDEST POP CALLDATALOAD PUSH1 0x1 PUSH1 0x1 PUSH1 0xA0 SHL SUB AND PUSH2 0x1643 JUMP JUMPDEST PUSH2 0x269 PUSH2 0x16D7 JUMP JUMPDEST PUSH2 0x4D3 PUSH2 0x16E6 JUMP JUMPDEST PUSH1 0x40 DUP1 MLOAD PUSH1 0x20 DUP1 DUP3 MSTORE DUP4 MLOAD DUP2 DUP4 ADD MSTORE DUP4 MLOAD SWAP2 SWAP3 DUP4 SWAP3 SWAP1 DUP4 ADD SWAP2 DUP6 ADD SWAP1 DUP1 DUP4 DUP4 PUSH1 0x0 JUMPDEST DUP4 DUP2 LT ISZERO PUSH2 0x50D JUMPI DUP2 DUP2 ADD MLOAD DUP4 DUP3 ADD MSTORE PUSH1 0x20 ADD PUSH2 0x4F5 JUMP JUMPDEST POP POP POP POP SWAP1 POP SWAP1 DUP2 ADD SWAP1 PUSH1 0x1F AND DUP1 ISZERO PUSH2 0x53A JUMPI DUP1 DUP3 SUB DUP1 MLOAD PUSH1 0x1 DUP4 PUSH1 0x20 SUB PUSH2 0x100 EXP SUB NOT AND DUP2 MSTORE PUSH1 0x20 ADD SWAP2 POP JUMPDEST POP SWAP3 POP POP POP PUSH1 0x40 MLOAD DUP1 SWAP2 SUB SWAP1 RETURN JUMPDEST PUSH2 0x56E PUSH1 0x4 DUP1 CALLDATASIZE SUB PUSH1 0x20 DUP2 LT ISZERO PUSH2 0x55E JUMPI PUSH1 0x0 DUP1 REVERT JUMPDEST POP CALLDATALOAD PUSH1 0x1 PUSH1 0x1 PUSH1 0xA0 SHL SUB AND PUSH2 0x171D JUMP JUMPDEST PUSH1 0x40 DUP1 MLOAD SWAP2 ISZERO ISZERO DUP3 MSTORE MLOAD SWAP1 DUP2 SWAP1 SUB PUSH1 0x20 ADD SWAP1 RETURN JUMPDEST PUSH2 0x5A8 PUSH1 0x4 DUP1 CALLDATASIZE SUB PUSH1 0x20 DUP2 LT ISZERO PUSH2 0x598 JUMPI PUSH1 0x0 DUP1 REVERT JUMPDEST POP CALLDATALOAD PUSH1 0x1 PUSH1 0x1 PUSH1 0xA0 SHL SUB AND PUSH2 0x186B JUMP JUMPDEST PUSH1 0x40 DUP1 MLOAD SWAP5 DUP6 MSTORE PUSH1 0x20 DUP6 ADD SWAP4 SWAP1 SWAP4 MSTORE DUP4 DUP4 ADD SWAP2 SWAP1 SWAP2 MSTORE PUSH1 0x60 DUP4 ADD MSTORE MLOAD SWAP1 DUP2 SWAP1 SUB PUSH1 0x80 ADD SWAP1 RETURN JUMPDEST PUSH2 0x2AB PUSH2 0x1892 JUMP JUMPDEST PUSH2 0x2AB PUSH2 0x1937 JUMP JUMPDEST PUSH2 0x2AB PUSH2 0x1966 JUMP JUMPDEST PUSH2 0x5EE PUSH2 0x19BA JUMP JUMPDEST PUSH1 0x40 DUP1 MLOAD SWAP7 DUP8 MSTORE PUSH1 0x20 DUP8 ADD SWAP6 SWAP1 SWAP6 MSTORE DUP6 DUP6 ADD SWAP4 SWAP1 SWAP4 MSTORE PUSH1 0x60 DUP6 ADD SWAP2 SWAP1 SWAP2 MSTORE PUSH1 0x80 DUP5 ADD MSTORE PUSH1 0xA0 DUP4 ADD MSTORE MLOAD SWAP1 DUP2 SWAP1 SUB PUSH1 0xC0 ADD SWAP1 RETURN JUMPDEST PUSH2 0x2AB PUSH2 0x19CF JUMP JUMPDEST PUSH2 0x2AB PUSH2 0x1A01 JUMP JUMPDEST PUSH2 0x2AB PUSH2 0x1A06 JUMP JUMPDEST PUSH2 0x2AB PUSH2 0x1A98 JUMP JUMPDEST PUSH2 0x2C5 PUSH1 0x4 DUP1 CALLDATASIZE SUB PUSH1 0xC0 DUP2 LT ISZERO PUSH2 0x657 JUMPI PUSH1 0x0 DUP1 REVERT JUMPDEST POP PUSH1 0x1 PUSH1 0x1 PUSH1 0xA0 SHL SUB DUP2 CALLDATALOAD DUP2 AND SWAP2 PUSH1 0x20 DUP2 ADD CALLDATALOAD DUP3 AND SWAP2 PUSH1 0x40 DUP3 ADD CALLDATALOAD DUP2 AND SWAP2 PUSH1 0x60 DUP2 ADD CALLDATALOAD DUP3 AND SWAP2 PUSH1 0x80 DUP3 ADD CALLDATALOAD DUP2 AND SWAP2 PUSH1 0xA0 ADD CALLDATALOAD AND PUSH2 0x1ADD JUMP JUMPDEST PUSH2 0x2AB PUSH2 0x1C48 JUMP JUMPDEST PUSH2 0x2AB PUSH2 0x1C4E JUMP JUMPDEST PUSH1 0x37 SLOAD PUSH1 0x1 PUSH1 0x1 PUSH1 0xA0 SHL SUB AND DUP2 JUMP JUMPDEST PUSH1 0x0 DUP1 PUSH2 0x6BA DUP4 PUSH2 0xDD3 JUMP JUMPDEST PUSH1 0x1 PUSH1 0x1 PUSH1 0xA0 SHL SUB DUP5 AND PUSH1 0x0 SWAP1 DUP2 MSTORE PUSH1 0x46 PUSH1 0x20 MSTORE PUSH1 0x40 SWAP1 KECCAK256 SLOAD SWAP1 SWAP2 POP PUSH2 0x2710 DUP3 LT PUSH2 0x6E7 JUMPI DUP1 SWAP3 POP PUSH2 0x700 JUMP JUMPDEST PUSH2 0x6FD PUSH2 0x2710 PUSH2 0x6F7 DUP4 DUP6 PUSH2 0x1C54 JUMP JUMPDEST SWAP1 PUSH2 0x1CB4 JUMP JUMPDEST SWAP3 POP JUMPDEST POP POP SWAP2 SWAP1 POP JUMP JUMPDEST PUSH1 0x0 SLOAD PUSH1 0x1 PUSH1 0x1 PUSH1 0xA0 SHL SUB AND CALLER EQ PUSH2 0x766 JUMPI PUSH1 0x40 DUP1 MLOAD PUSH3 0x461BCD PUSH1 0xE5 SHL DUP2 MSTORE PUSH1 0x20 PUSH1 0x4 DUP3 ADD DUP2 SWAP1 MSTORE PUSH1 0x24 DUP3 ADD MSTORE PUSH32 0x4F776E61626C653A2063616C6C6572206973206E6F7420746865206F776E6572 PUSH1 0x44 DUP3 ADD MSTORE SWAP1 MLOAD SWAP1 DUP2 SWAP1 SUB PUSH1 0x64 ADD SWAP1 REVERT JUMPDEST PUSH1 0x0 DUP1 SLOAD PUSH1 0x40 MLOAD PUSH1 0x1 PUSH1 0x1 PUSH1 0xA0 SHL SUB SWAP1 SWAP2 AND SWAP1 PUSH32 0xEA8258F2D9DDB679928CF34B78CF645B7FEDA9ACC828E4DD82D014EAAE270EBA SWAP1 DUP4 SWAP1 LOG3 PUSH1 0x0 DUP1 SLOAD PUSH1 0x1 PUSH1 0x1 PUSH1 0xA0 SHL SUB NOT AND SWAP1 SSTORE JUMP JUMPDEST PUSH1 0x0 SLOAD PUSH1 0x1 PUSH1 0x1 PUSH1 0xA0 SHL SUB AND CALLER EQ PUSH2 0x80F JUMPI PUSH1 0x40 DUP1 MLOAD PUSH3 0x461BCD PUSH1 0xE5 SHL DUP2 MSTORE PUSH1 0x20 PUSH1 0x4 DUP3 ADD DUP2 SWAP1 MSTORE PUSH1 0x24 DUP3 ADD MSTORE PUSH32 0x4F776E61626C653A2063616C6C6572206973206E6F7420746865206F776E6572 PUSH1 0x44 DUP3 ADD MSTORE SWAP1 MLOAD SWAP1 DUP2 SWAP1 SUB PUSH1 0x64 ADD SWAP1 REVERT JUMPDEST PUSH1 0x3B SLOAD PUSH2 0x825 SWAP1 PUSH2 0x3E8 SWAP1 PUSH2 0x6F7 SWAP1 PUSH1 0x19 PUSH2 0x1C54 JUMP JUMPDEST DUP4 GT ISZERO PUSH2 0x863 JUMPI PUSH1 0x40 MLOAD PUSH3 0x461BCD PUSH1 0xE5 SHL DUP2 MSTORE PUSH1 0x4 ADD DUP1 DUP1 PUSH1 0x20 ADD DUP3 DUP2 SUB DUP3 MSTORE PUSH1 0x23 DUP2 MSTORE PUSH1 0x20 ADD DUP1 PUSH2 0x2632 PUSH1 0x23 SWAP2 CODECOPY PUSH1 0x40 ADD SWAP2 POP POP PUSH1 0x40 MLOAD DUP1 SWAP2 SUB SWAP1 REVERT JUMPDEST DUP4 PUSH2 0x872 JUMPI PUSH1 0x3B SLOAD DUP3 LT PUSH2 0x878 JUMP JUMPDEST PUSH1 0x3B SLOAD DUP3 GT JUMPDEST PUSH2 0x8B3 JUMPI PUSH1 0x40 MLOAD PUSH3 0x461BCD PUSH1 0xE5 SHL DUP2 MSTORE PUSH1 0x4 ADD DUP1 DUP1 PUSH1 0x20 ADD DUP3 DUP2 SUB DUP3 MSTORE PUSH1 0x22 DUP2 MSTORE PUSH1 0x20 ADD DUP1 PUSH2 0x2577 PUSH1 0x22 SWAP2 CODECOPY PUSH1 0x40 ADD SWAP2 POP POP PUSH1 0x40 MLOAD DUP1 SWAP2 SUB SWAP1 REVERT JUMPDEST PUSH1 0x40 DUP1 MLOAD PUSH1 0xA0 DUP2 ADD DUP3 MSTORE SWAP5 ISZERO ISZERO DUP1 DUP7 MSTORE PUSH1 0x20 DUP7 ADD DUP6 SWAP1 MSTORE SWAP1 DUP6 ADD DUP4 SWAP1 MSTORE PUSH1 0x60 DUP6 ADD DUP3 SWAP1 MSTORE NUMBER PUSH1 0x80 SWAP1 SWAP6 ADD DUP6 SWAP1 MSTORE PUSH1 0x41 DUP1 SLOAD PUSH1 0xFF NOT AND SWAP1 SWAP2 OR SWAP1 SSTORE PUSH1 0x42 SWAP3 SWAP1 SWAP3 SSTORE PUSH1 0x43 SSTORE PUSH1 0x44 SSTORE PUSH1 0x45 SSTORE JUMP JUMPDEST PUSH1 0x0 SLOAD PUSH1 0x1 PUSH1 0x1 PUSH1 0xA0 SHL SUB AND CALLER EQ PUSH2 0x95D JUMPI PUSH1 0x40 DUP1 MLOAD PUSH3 0x461BCD PUSH1 0xE5 SHL DUP2 MSTORE PUSH1 0x20 PUSH1 0x4 DUP3 ADD DUP2 SWAP1 MSTORE PUSH1 0x24 DUP3 ADD MSTORE PUSH32 0x4F776E61626C653A2063616C6C6572206973206E6F7420746865206F776E6572 PUSH1 0x44 DUP3 ADD MSTORE SWAP1 MLOAD SWAP1 DUP2 SWAP1 SUB PUSH1 0x64 ADD SWAP1 REVERT JUMPDEST PUSH1 0x0 DUP3 PUSH1 0x4 DUP2 GT ISZERO PUSH2 0x96B JUMPI INVALID JUMPDEST EQ ISZERO PUSH2 0x97B JUMPI PUSH1 0x3C DUP2 SWAP1 SSTORE PUSH2 0xAB4 JUMP JUMPDEST PUSH1 0x1 DUP3 PUSH1 0x4 DUP2 GT ISZERO PUSH2 0x989 JUMPI INVALID JUMPDEST EQ ISZERO PUSH2 0x9DA JUMPI PUSH2 0x2710 DUP2 GT ISZERO PUSH2 0x9D0 JUMPI PUSH1 0x40 MLOAD PUSH3 0x461BCD PUSH1 0xE5 SHL DUP2 MSTORE PUSH1 0x4 ADD DUP1 DUP1 PUSH1 0x20 ADD DUP3 DUP2 SUB DUP3 MSTORE PUSH1 0x30 DUP2 MSTORE PUSH1 0x20 ADD DUP1 PUSH2 0x2727 PUSH1 0x30 SWAP2 CODECOPY PUSH1 0x40 ADD SWAP2 POP POP PUSH1 0x40 MLOAD DUP1 SWAP2 SUB SWAP1 REVERT JUMPDEST PUSH1 0x3E DUP2 SWAP1 SSTORE PUSH2 0xAB4 JUMP JUMPDEST PUSH1 0x2 DUP3 PUSH1 0x4 DUP2 GT ISZERO PUSH2 0x9E8 JUMPI INVALID JUMPDEST EQ ISZERO PUSH2 0xA39 JUMPI PUSH2 0x2710 DUP2 GT ISZERO PUSH2 0xA2F JUMPI PUSH1 0x40 MLOAD PUSH3 0x461BCD PUSH1 0xE5 SHL DUP2 MSTORE PUSH1 0x4 ADD DUP1 DUP1 PUSH1 0x20 ADD DUP3 DUP2 SUB DUP3 MSTORE PUSH1 0x2C DUP2 MSTORE PUSH1 0x20 ADD DUP1 PUSH2 0x2606 PUSH1 0x2C SWAP2 CODECOPY PUSH1 0x40 ADD SWAP2 POP POP PUSH1 0x40 MLOAD DUP1 SWAP2 SUB SWAP1 REVERT JUMPDEST PUSH1 0x3F DUP2 SWAP1 SSTORE PUSH2 0xAB4 JUMP JUMPDEST PUSH1 0x3 DUP3 PUSH1 0x4 DUP2 GT ISZERO PUSH2 0xA47 JUMPI INVALID JUMPDEST EQ ISZERO PUSH2 0xA57 JUMPI PUSH1 0x40 DUP2 SWAP1 SSTORE PUSH2 0xAB4 JUMP JUMPDEST PUSH1 0x4 DUP3 PUSH1 0x4 DUP2 GT ISZERO PUSH2 0xA65 JUMPI INVALID JUMPDEST EQ ISZERO PUSH2 0xAB4 JUMPI PUSH4 0x3B9ACA00 DUP2 GT ISZERO PUSH2 0xAAE JUMPI PUSH1 0x40 MLOAD PUSH3 0x461BCD PUSH1 0xE5 SHL DUP2 MSTORE PUSH1 0x4 ADD DUP1 DUP1 PUSH1 0x20 ADD DUP3 DUP2 SUB DUP3 MSTORE PUSH1 0x28 DUP2 MSTORE PUSH1 0x20 ADD DUP1 PUSH2 0x267D PUSH1 0x28 SWAP2 CODECOPY PUSH1 0x40 ADD SWAP2 POP POP PUSH1 0x40 MLOAD DUP1 SWAP2 SUB SWAP1 REVERT JUMPDEST PUSH1 0x3D DUP2 SWAP1 SSTORE JUMPDEST POP POP JUMP JUMPDEST PUSH1 0x0 PUSH2 0xAC2 PUSH2 0x2507 JUMP JUMPDEST POP PUSH1 0x1 PUSH1 0x1 PUSH1 0xA0 SHL SUB DUP4 AND PUSH1 0x0 SWAP1 DUP2 MSTORE PUSH1 0x46 PUSH1 0x20 SWAP1 DUP2 MSTORE PUSH1 0x40 DUP1 DUP4 KECCAK256 DUP2 MLOAD PUSH1 0x80 DUP2 ADD DUP4 MSTORE DUP2 SLOAD DUP2 MSTORE PUSH1 0x1 DUP3 ADD SLOAD SWAP4 DUP2 ADD SWAP4 SWAP1 SWAP4 MSTORE PUSH1 0x2 DUP2 ADD SLOAD SWAP2 DUP4 ADD SWAP2 SWAP1 SWAP2 MSTORE PUSH1 0x3 ADD SLOAD PUSH1 0x60 DUP3 ADD MSTORE SWAP1 PUSH2 0xB15 DUP6 PUSH2 0xDD3 JUMP JUMPDEST SWAP1 POP PUSH2 0x2710 DUP2 LT PUSH2 0xBA5 JUMPI PUSH1 0x1 PUSH1 0x1 PUSH1 0xA0 SHL SUB DUP6 AND PUSH1 0x0 DUP2 DUP2 MSTORE PUSH1 0x46 PUSH1 0x20 SWAP1 DUP2 MSTORE PUSH1 0x40 DUP1 DUP4 KECCAK256 DUP4 DUP2 SSTORE PUSH1 0x1 DUP2 ADD DUP5 SWAP1 SSTORE PUSH1 0x2 DUP2 ADD DUP5 SWAP1 SSTORE PUSH1 0x3 ADD DUP4 SWAP1 SSTORE DUP6 MLOAD DUP2 MLOAD SWAP1 DUP2 MSTORE SWAP2 DUP3 ADD SWAP3 SWAP1 SWAP3 MSTORE DUP2 MLOAD PUSH32 0x51C99F515C87B0D95BA97F616EDD182E8F161C4932EAC17C6FEFE9DAB58B77B1 SWAP3 SWAP2 DUP2 SWAP1 SUB SWAP1 SWAP2 ADD SWAP1 LOG2 PUSH2 0xB9C DUP6 DUP6 DUP5 PUSH1 0x0 ADD MLOAD PUSH2 0x1CF6 JUMP JUMPDEST SWAP3 POP POP POP PUSH2 0xCA7 JUMP JUMPDEST DUP2 MLOAD PUSH1 0x0 SWAP1 PUSH2 0xBBC SWAP1 PUSH2 0x2710 SWAP1 PUSH2 0x6F7 SWAP1 DUP6 PUSH2 0x1C54 JUMP JUMPDEST SWAP1 POP PUSH1 0x40 MLOAD DUP1 PUSH1 0x80 ADD PUSH1 0x40 MSTORE DUP1 PUSH2 0xBE0 DUP4 DUP7 PUSH1 0x0 ADD MLOAD PUSH2 0x1E98 SWAP1 SWAP2 SWAP1 PUSH4 0xFFFFFFFF AND JUMP JUMPDEST DUP2 MSTORE PUSH1 0x20 ADD PUSH2 0xC0A PUSH2 0xBFF DUP7 PUSH1 0x40 ADD MLOAD NUMBER PUSH2 0x1E98 SWAP1 SWAP2 SWAP1 PUSH4 0xFFFFFFFF AND JUMP JUMPDEST PUSH1 0x20 DUP8 ADD MLOAD SWAP1 PUSH2 0x1E98 JUMP JUMPDEST DUP2 MSTORE NUMBER PUSH1 0x20 DUP1 DUP4 ADD SWAP2 SWAP1 SWAP2 MSTORE PUSH1 0x60 DUP1 DUP8 ADD MLOAD PUSH1 0x40 SWAP4 DUP5 ADD MSTORE PUSH1 0x1 PUSH1 0x1 PUSH1 0xA0 SHL SUB DUP11 AND PUSH1 0x0 DUP2 DUP2 MSTORE PUSH1 0x46 DUP5 MSTORE DUP5 SWAP1 KECCAK256 DUP6 MLOAD DUP1 DUP3 SSTORE DUP7 DUP6 ADD MLOAD PUSH1 0x1 DUP4 ADD SSTORE DUP7 DUP7 ADD MLOAD PUSH1 0x2 DUP4 ADD SSTORE SWAP6 SWAP1 SWAP3 ADD MLOAD PUSH1 0x3 SWAP1 SWAP3 ADD SWAP2 SWAP1 SWAP2 SSTORE DUP3 MLOAD DUP6 DUP2 MSTORE SWAP2 DUP3 ADD SWAP4 SWAP1 SWAP4 MSTORE DUP2 MLOAD PUSH32 0x51C99F515C87B0D95BA97F616EDD182E8F161C4932EAC17C6FEFE9DAB58B77B1 SWAP3 SWAP2 DUP2 SWAP1 SUB SWAP1 SWAP2 ADD SWAP1 LOG2 PUSH2 0xCA1 DUP7 DUP7 DUP4 PUSH2 0x1CF6 JUMP JUMPDEST SWAP4 POP POP POP POP JUMPDEST SWAP3 SWAP2 POP POP JUMP JUMPDEST PUSH1 0x41 SLOAD PUSH1 0x42 SLOAD PUSH1 0x43 SLOAD PUSH1 0x44 SLOAD PUSH1 0x45 SLOAD PUSH1 0xFF SWAP1 SWAP5 AND SWAP4 DUP6 JUMP JUMPDEST PUSH1 0x0 SLOAD PUSH1 0x1 PUSH1 0x1 PUSH1 0xA0 SHL SUB AND CALLER EQ PUSH2 0xD24 JUMPI PUSH1 0x40 DUP1 MLOAD PUSH3 0x461BCD PUSH1 0xE5 SHL DUP2 MSTORE PUSH1 0x20 PUSH1 0x4 DUP3 ADD DUP2 SWAP1 MSTORE PUSH1 0x24 DUP3 ADD MSTORE PUSH32 0x4F776E61626C653A2063616C6C6572206973206E6F7420746865206F776E6572 PUSH1 0x44 DUP3 ADD MSTORE SWAP1 MLOAD SWAP1 DUP2 SWAP1 SUB PUSH1 0x64 ADD SWAP1 REVERT JUMPDEST PUSH1 0x1 PUSH1 0x1 PUSH1 0xA0 SHL SUB DUP2 AND PUSH2 0xD69 JUMPI PUSH1 0x40 MLOAD PUSH3 0x461BCD PUSH1 0xE5 SHL DUP2 MSTORE PUSH1 0x4 ADD DUP1 DUP1 PUSH1 0x20 ADD DUP3 DUP2 SUB DUP3 MSTORE PUSH1 0x26 DUP2 MSTORE PUSH1 0x20 ADD DUP1 PUSH2 0x2551 PUSH1 0x26 SWAP2 CODECOPY PUSH1 0x40 ADD SWAP2 POP POP PUSH1 0x40 MLOAD DUP1 SWAP2 SUB SWAP1 REVERT JUMPDEST PUSH1 0x0 DUP1 SLOAD PUSH1 0x40 MLOAD PUSH1 0x1 PUSH1 0x1 PUSH1 0xA0 SHL SUB DUP1 DUP6 AND SWAP4 SWAP3 AND SWAP2 PUSH32 0xEA8258F2D9DDB679928CF34B78CF645B7FEDA9ACC828E4DD82D014EAAE270EBA SWAP2 LOG3 PUSH1 0x1 DUP1 SLOAD PUSH1 0x1 PUSH1 0x1 PUSH1 0xA0 SHL SUB NOT AND PUSH1 0x1 PUSH1 0x1 PUSH1 0xA0 SHL SUB SWAP3 SWAP1 SWAP3 AND SWAP2 SWAP1 SWAP2 OR SWAP1 SSTORE JUMP JUMPDEST PUSH1 0x3A SLOAD PUSH1 0x1 PUSH1 0x1 PUSH1 0xA0 SHL SUB AND DUP2 JUMP JUMPDEST PUSH1 0x0 PUSH2 0xDDD PUSH2 0x2507 JUMP JUMPDEST POP PUSH1 0x1 PUSH1 0x1 PUSH1 0xA0 SHL SUB DUP3 AND PUSH1 0x0 SWAP1 DUP2 MSTORE PUSH1 0x46 PUSH1 0x20 SWAP1 DUP2 MSTORE PUSH1 0x40 DUP1 DUP4 KECCAK256 DUP2 MLOAD PUSH1 0x80 DUP2 ADD DUP4 MSTORE DUP2 SLOAD DUP2 MSTORE PUSH1 0x1 DUP3 ADD SLOAD SWAP4 DUP2 ADD SWAP4 SWAP1 SWAP4 MSTORE PUSH1 0x2 DUP2 ADD SLOAD SWAP2 DUP4 ADD DUP3 SWAP1 MSTORE PUSH1 0x3 ADD SLOAD PUSH1 0x60 DUP4 ADD MSTORE SWAP1 SWAP2 SWAP1 PUSH2 0xE33 SWAP1 NUMBER SWAP1 PUSH2 0x1E98 JUMP JUMPDEST PUSH1 0x20 DUP4 ADD MLOAD SWAP1 SWAP2 POP DUP1 ISZERO PUSH2 0xE58 JUMPI PUSH2 0xE51 DUP2 PUSH2 0x6F7 DUP5 PUSH2 0x2710 PUSH2 0x1C54 JUMP JUMPDEST SWAP4 POP PUSH2 0xE5D JUMP JUMPDEST PUSH1 0x0 SWAP4 POP JUMPDEST POP POP POP SWAP2 SWAP1 POP JUMP JUMPDEST PUSH1 0x1 SLOAD PUSH1 0x1 PUSH1 0x1 PUSH1 0xA0 SHL SUB AND CALLER EQ PUSH2 0xEAE JUMPI PUSH1 0x40 MLOAD PUSH3 0x461BCD PUSH1 0xE5 SHL DUP2 MSTORE PUSH1 0x4 ADD DUP1 DUP1 PUSH1 0x20 ADD DUP3 DUP2 SUB DUP3 MSTORE PUSH1 0x22 DUP2 MSTORE PUSH1 0x20 ADD DUP1 PUSH2 0x25BD PUSH1 0x22 SWAP2 CODECOPY PUSH1 0x40 ADD SWAP2 POP POP PUSH1 0x40 MLOAD DUP1 SWAP2 SUB SWAP1 REVERT JUMPDEST PUSH1 0x1 SLOAD PUSH1 0x0 DUP1 SLOAD PUSH1 0x40 MLOAD PUSH1 0x1 PUSH1 0x1 PUSH1 0xA0 SHL SUB SWAP4 DUP5 AND SWAP4 SWAP1 SWAP2 AND SWAP2 PUSH32 0xAA151555690C956FC3EA32F106BB9F119B5237A061EAA8557CFF3E51E3792C8D SWAP2 LOG3 PUSH1 0x1 SLOAD PUSH1 0x0 DUP1 SLOAD PUSH1 0x1 PUSH1 0x1 PUSH1 0xA0 SHL SUB NOT AND PUSH1 0x1 PUSH1 0x1 PUSH1 0xA0 SHL SUB SWAP1 SWAP3 AND SWAP2 SWAP1 SWAP2 OR SWAP1 SSTORE JUMP JUMPDEST PUSH1 0x38 SLOAD PUSH1 0x1 PUSH1 0x1 PUSH1 0xA0 SHL SUB AND DUP2 JUMP JUMPDEST PUSH1 0x36 SLOAD PUSH1 0x1 PUSH1 0x1 PUSH1 0xA0 SHL SUB AND DUP2 JUMP JUMPDEST PUSH1 0x0 SLOAD PUSH1 0x1 PUSH1 0x1 PUSH1 0xA0 SHL SUB AND CALLER EQ PUSH2 0xF8C JUMPI PUSH1 0x40 DUP1 MLOAD PUSH3 0x461BCD PUSH1 0xE5 SHL DUP2 MSTORE PUSH1 0x20 PUSH1 0x4 DUP3 ADD DUP2 SWAP1 MSTORE PUSH1 0x24 DUP3 ADD MSTORE PUSH32 0x4F776E61626C653A2063616C6C6572206973206E6F7420746865206F776E6572 PUSH1 0x44 DUP3 ADD MSTORE SWAP1 MLOAD SWAP1 DUP2 SWAP1 SUB PUSH1 0x64 ADD SWAP1 REVERT JUMPDEST PUSH1 0x3B SLOAD ISZERO PUSH2 0xFCB JUMPI PUSH1 0x40 MLOAD PUSH3 0x461BCD PUSH1 0xE5 SHL DUP2 MSTORE PUSH1 0x4 ADD DUP1 DUP1 PUSH1 0x20 ADD DUP3 DUP2 SUB DUP3 MSTORE PUSH1 0x30 DUP2 MSTORE PUSH1 0x20 ADD DUP1 PUSH2 0x2757 PUSH1 0x30 SWAP2 CODECOPY PUSH1 0x40 ADD SWAP2 POP POP PUSH1 0x40 MLOAD DUP1 SWAP2 SUB SWAP1 REVERT JUMPDEST PUSH2 0x2710 DUP5 GT ISZERO PUSH2 0x100C JUMPI PUSH1 0x40 MLOAD PUSH3 0x461BCD PUSH1 0xE5 SHL DUP2 MSTORE PUSH1 0x4 ADD DUP1 DUP1 PUSH1 0x20 ADD DUP3 DUP2 SUB DUP3 MSTORE PUSH1 0x30 DUP2 MSTORE PUSH1 0x20 ADD DUP1 PUSH2 0x2727 PUSH1 0x30 SWAP2 CODECOPY PUSH1 0x40 ADD SWAP2 POP POP PUSH1 0x40 MLOAD DUP1 SWAP2 SUB SWAP1 REVERT JUMPDEST PUSH2 0x2710 DUP4 GT ISZERO PUSH2 0x104D JUMPI PUSH1 0x40 MLOAD PUSH3 0x461BCD PUSH1 0xE5 SHL DUP2 MSTORE PUSH1 0x4 ADD DUP1 DUP1 PUSH1 0x20 ADD DUP3 DUP2 SUB DUP3 MSTORE PUSH1 0x2C DUP2 MSTORE PUSH1 0x20 ADD DUP1 PUSH2 0x2606 PUSH1 0x2C SWAP2 CODECOPY PUSH1 0x40 ADD SWAP2 POP POP PUSH1 0x40 MLOAD DUP1 SWAP2 SUB SWAP1 REVERT JUMPDEST PUSH4 0x3B9ACA00 DUP6 GT ISZERO PUSH2 0x1090 JUMPI PUSH1 0x40 MLOAD PUSH3 0x461BCD PUSH1 0xE5 SHL DUP2 MSTORE PUSH1 0x4 ADD DUP1 DUP1 PUSH1 0x20 ADD DUP3 DUP2 SUB DUP3 MSTORE PUSH1 0x28 DUP2 MSTORE PUSH1 0x20 ADD DUP1 PUSH2 0x267D PUSH1 0x28 SWAP2 CODECOPY PUSH1 0x40 ADD SWAP2 POP POP PUSH1 0x40 MLOAD DUP1 SWAP2 SUB SWAP1 REVERT JUMPDEST PUSH1 0x40 DUP1 MLOAD PUSH1 0xC0 DUP2 ADD DUP3 MSTORE DUP9 DUP2 MSTORE PUSH1 0x20 DUP2 ADD DUP9 SWAP1 MSTORE DUP1 DUP3 ADD DUP8 SWAP1 MSTORE PUSH1 0x60 DUP2 ADD DUP7 SWAP1 MSTORE PUSH1 0x80 DUP2 ADD DUP6 SWAP1 MSTORE PUSH1 0xA0 ADD DUP4 SWAP1 MSTORE PUSH1 0x3B SWAP8 SWAP1 SWAP8 SSTORE PUSH1 0x3C SWAP6 SWAP1 SWAP6 SSTORE PUSH1 0x3D SWAP4 SWAP1 SWAP4 SSTORE PUSH1 0x3E SWAP2 SWAP1 SWAP2 SSTORE PUSH1 0x3F SSTORE SWAP1 SWAP2 SSTORE PUSH1 0x47 SSTORE NUMBER PUSH1 0x48 SSTORE JUMP JUMPDEST PUSH1 0x0 PUSH2 0x10FB PUSH2 0x10F2 PUSH2 0x1A98 JUMP JUMPDEST PUSH1 0x47 SLOAD SWAP1 PUSH2 0x1E98 JUMP JUMPDEST SWAP1 POP JUMPDEST SWAP1 JUMP JUMPDEST PUSH1 0x0 PUSH2 0xCA7 PUSH5 0xE8D4A51000 PUSH2 0x6F7 PUSH2 0x1117 PUSH2 0x19CF JUMP JUMPDEST PUSH2 0x6F7 DUP7 PUSH8 0xDE0B6B3A7640000 PUSH2 0x1C54 JUMP JUMPDEST PUSH1 0x39 SLOAD PUSH1 0x36 SLOAD PUSH1 0x40 DUP1 MLOAD PUSH4 0x6FF5C519 PUSH1 0xE0 SHL DUP2 MSTORE PUSH1 0x1 PUSH1 0x1 PUSH1 0xA0 SHL SUB SWAP3 DUP4 AND PUSH1 0x4 DUP3 ADD MSTORE SWAP1 MLOAD PUSH1 0x0 SWAP4 SWAP3 SWAP1 SWAP3 AND SWAP2 PUSH4 0x6FF5C519 SWAP2 PUSH1 0x24 DUP1 DUP3 ADD SWAP3 PUSH1 0x20 SWAP3 SWAP1 SWAP2 SWAP1 DUP3 SWAP1 SUB ADD DUP2 DUP7 DUP1 EXTCODESIZE ISZERO DUP1 ISZERO PUSH2 0x117D JUMPI PUSH1 0x0 DUP1 REVERT JUMPDEST POP GAS STATICCALL ISZERO DUP1 ISZERO PUSH2 0x1191 JUMPI RETURNDATASIZE PUSH1 0x0 DUP1 RETURNDATACOPY RETURNDATASIZE PUSH1 0x0 REVERT JUMPDEST POP POP POP POP PUSH1 0x40 MLOAD RETURNDATASIZE PUSH1 0x20 DUP2 LT ISZERO PUSH2 0x11A7 JUMPI PUSH1 0x0 DUP1 REVERT JUMPDEST POP MLOAD SWAP1 POP SWAP1 JUMP JUMPDEST PUSH1 0x39 SLOAD PUSH1 0x1 PUSH1 0x1 PUSH1 0xA0 SHL SUB AND DUP2 JUMP JUMPDEST PUSH1 0x0 SLOAD PUSH1 0x1 PUSH1 0x1 PUSH1 0xA0 SHL SUB AND SWAP1 JUMP JUMPDEST PUSH1 0x0 PUSH1 0x1 PUSH1 0x1 PUSH1 0xA0 SHL SUB DUP3 AND PUSH2 0x1229 JUMPI PUSH1 0x40 DUP1 MLOAD PUSH3 0x461BCD PUSH1 0xE5 SHL DUP2 MSTORE PUSH1 0x20 PUSH1 0x4 DUP3 ADD MSTORE PUSH1 0x1F PUSH1 0x24 DUP3 ADD MSTORE PUSH32 0x426F6E644465706F7369746F72793A20496E76616C6964206164647265737300 PUSH1 0x44 DUP3 ADD MSTORE SWAP1 MLOAD SWAP1 DUP2 SWAP1 SUB PUSH1 0x64 ADD SWAP1 REVERT JUMPDEST PUSH2 0x1231 PUSH2 0x1EDA JUMP JUMPDEST PUSH1 0x40 SLOAD PUSH1 0x47 SLOAD GT ISZERO PUSH2 0x1274 JUMPI PUSH1 0x40 MLOAD PUSH3 0x461BCD PUSH1 0xE5 SHL DUP2 MSTORE PUSH1 0x4 ADD DUP1 DUP1 PUSH1 0x20 ADD DUP3 DUP2 SUB DUP3 MSTORE PUSH1 0x24 DUP2 MSTORE PUSH1 0x20 ADD DUP1 PUSH2 0x2599 PUSH1 0x24 SWAP2 CODECOPY PUSH1 0x40 ADD SWAP2 POP POP PUSH1 0x40 MLOAD DUP1 SWAP2 SUB SWAP1 REVERT JUMPDEST PUSH1 0x0 PUSH2 0x127E PUSH2 0x19CF JUMP JUMPDEST SWAP1 POP DUP1 DUP5 LT ISZERO PUSH2 0x12BF JUMPI PUSH1 0x40 MLOAD PUSH3 0x461BCD PUSH1 0xE5 SHL DUP2 MSTORE PUSH1 0x4 ADD DUP1 DUP1 PUSH1 0x20 ADD DUP3 DUP2 SUB DUP3 MSTORE PUSH1 0x33 DUP2 MSTORE PUSH1 0x20 ADD DUP1 PUSH2 0x26F4 PUSH1 0x33 SWAP2 CODECOPY PUSH1 0x40 ADD SWAP2 POP POP PUSH1 0x40 MLOAD DUP1 SWAP2 SUB SWAP1 REVERT JUMPDEST PUSH1 0x0 PUSH2 0x12DA PUSH3 0xF4240 PUSH2 0x6F7 DUP9 PUSH2 0x12D4 PUSH2 0x1966 JUMP JUMPDEST SWAP1 PUSH2 0x1C54 JUMP JUMPDEST SWAP1 POP PUSH1 0x0 PUSH2 0x12E7 DUP3 PUSH2 0x1101 JUMP JUMPDEST SWAP1 POP PUSH7 0x2386F26FC10000 DUP2 LT ISZERO PUSH2 0x1345 JUMPI PUSH1 0x40 DUP1 MLOAD PUSH3 0x461BCD PUSH1 0xE5 SHL DUP2 MSTORE PUSH1 0x20 PUSH1 0x4 DUP3 ADD MSTORE PUSH1 0x1E PUSH1 0x24 DUP3 ADD MSTORE PUSH32 0x426F6E644465706F7369746F72793A20426F6E6420746F6F20736D616C6C0000 PUSH1 0x44 DUP3 ADD MSTORE SWAP1 MLOAD SWAP1 DUP2 SWAP1 SUB PUSH1 0x64 ADD SWAP1 REVERT JUMPDEST PUSH2 0x134D PUSH2 0x1A06 JUMP JUMPDEST DUP2 GT ISZERO PUSH2 0x13A1 JUMPI PUSH1 0x40 DUP1 MLOAD PUSH3 0x461BCD PUSH1 0xE5 SHL DUP2 MSTORE PUSH1 0x20 PUSH1 0x4 DUP3 ADD MSTORE PUSH1 0x1E PUSH1 0x24 DUP3 ADD MSTORE PUSH32 0x426F6E644465706F7369746F72793A20426F6E6420746F6F206C617267650000 PUSH1 0x44 DUP3 ADD MSTORE SWAP1 MLOAD SWAP1 DUP2 SWAP1 SUB PUSH1 0x64 ADD SWAP1 REVERT JUMPDEST PUSH1 0x0 PUSH2 0x13C1 PUSH2 0x2710 PUSH2 0x6F7 PUSH1 0x3B PUSH1 0x4 ADD SLOAD DUP6 PUSH2 0x1C54 SWAP1 SWAP2 SWAP1 PUSH4 0xFFFFFFFF AND JUMP JUMPDEST PUSH1 0x37 SLOAD SWAP1 SWAP2 POP PUSH2 0x13DC SWAP1 PUSH1 0x1 PUSH1 0x1 PUSH1 0xA0 SHL SUB AND CALLER ADDRESS DUP12 PUSH2 0x1EEE JUMP JUMPDEST PUSH1 0x37 SLOAD PUSH1 0x38 SLOAD PUSH1 0x40 DUP1 MLOAD PUSH4 0x95EA7B3 PUSH1 0xE0 SHL DUP2 MSTORE PUSH1 0x1 PUSH1 0x1 PUSH1 0xA0 SHL SUB SWAP3 DUP4 AND PUSH1 0x4 DUP3 ADD MSTORE PUSH1 0x24 DUP2 ADD DUP13 SWAP1 MSTORE SWAP1 MLOAD SWAP2 SWAP1 SWAP3 AND SWAP2 PUSH4 0x95EA7B3 SWAP2 PUSH1 0x44 DUP1 DUP4 ADD SWAP3 PUSH1 0x20 SWAP3 SWAP2 SWAP1 DUP3 SWAP1 SUB ADD DUP2 PUSH1 0x0 DUP8 DUP1 EXTCODESIZE ISZERO DUP1 ISZERO PUSH2 0x1435 JUMPI PUSH1 0x0 DUP1 REVERT JUMPDEST POP GAS CALL ISZERO DUP1 ISZERO PUSH2 0x1449 JUMPI RETURNDATASIZE PUSH1 0x0 DUP1 RETURNDATACOPY RETURNDATASIZE PUSH1 0x0 REVERT JUMPDEST POP POP POP POP PUSH1 0x40 MLOAD RETURNDATASIZE PUSH1 0x20 DUP2 LT ISZERO PUSH2 0x145F JUMPI PUSH1 0x0 DUP1 REVERT JUMPDEST POP POP PUSH1 0x38 SLOAD PUSH1 0x37 SLOAD PUSH1 0x1 PUSH1 0x1 PUSH1 0xA0 SHL SUB SWAP2 DUP3 AND SWAP2 PUSH4 0xBC157AC1 SWAP2 DUP12 SWAP2 AND PUSH2 0x1486 DUP7 DUP7 PUSH2 0x1F7C JUMP JUMPDEST PUSH1 0x40 MLOAD DUP5 PUSH4 0xFFFFFFFF AND PUSH1 0xE0 SHL DUP2 MSTORE PUSH1 0x4 ADD DUP1 DUP5 DUP2 MSTORE PUSH1 0x20 ADD DUP4 PUSH1 0x1 PUSH1 0x1 PUSH1 0xA0 SHL SUB AND DUP2 MSTORE PUSH1 0x20 ADD DUP3 DUP2 MSTORE PUSH1 0x20 ADD SWAP4 POP POP POP POP PUSH1 0x0 PUSH1 0x40 MLOAD DUP1 DUP4 SUB DUP2 PUSH1 0x0 DUP8 DUP1 EXTCODESIZE ISZERO DUP1 ISZERO PUSH2 0x14D3 JUMPI PUSH1 0x0 DUP1 REVERT JUMPDEST POP GAS CALL ISZERO DUP1 ISZERO PUSH2 0x14E7 JUMPI RETURNDATASIZE PUSH1 0x0 DUP1 RETURNDATACOPY RETURNDATASIZE PUSH1 0x0 REVERT JUMPDEST POP POP POP POP DUP1 PUSH1 0x0 EQ PUSH2 0x1510 JUMPI PUSH1 0x35 SLOAD PUSH1 0x36 SLOAD PUSH2 0x1510 SWAP2 PUSH1 0x1 PUSH1 0x1 PUSH1 0xA0 SHL SUB SWAP2 DUP3 AND SWAP2 AND DUP4 PUSH2 0x1FD6 JUMP JUMPDEST PUSH1 0x47 SLOAD PUSH2 0x151D SWAP1 DUP4 PUSH2 0x1F7C JUMP JUMPDEST PUSH1 0x47 SSTORE PUSH1 0x40 DUP1 MLOAD PUSH1 0x80 DUP2 ADD DUP3 MSTORE PUSH1 0x1 PUSH1 0x1 PUSH1 0xA0 SHL SUB DUP9 AND PUSH1 0x0 SWAP1 DUP2 MSTORE PUSH1 0x46 PUSH1 0x20 MSTORE SWAP2 SWAP1 SWAP2 KECCAK256 SLOAD DUP2 SWAP1 PUSH2 0x154F SWAP1 DUP6 PUSH2 0x1F7C JUMP JUMPDEST DUP2 MSTORE PUSH1 0x3C DUP1 SLOAD PUSH1 0x20 DUP1 DUP5 ADD SWAP2 SWAP1 SWAP2 MSTORE NUMBER PUSH1 0x40 DUP1 DUP6 ADD DUP3 SWAP1 MSTORE PUSH1 0x60 SWAP5 DUP6 ADD DUP11 SWAP1 MSTORE PUSH1 0x1 PUSH1 0x1 PUSH1 0xA0 SHL SUB DUP13 AND PUSH1 0x0 SWAP1 DUP2 MSTORE PUSH1 0x46 DUP5 MSTORE DUP2 SWAP1 KECCAK256 DUP7 MLOAD DUP2 SSTORE SWAP3 DUP7 ADD MLOAD PUSH1 0x1 DUP5 ADD SSTORE DUP6 ADD MLOAD PUSH1 0x2 DUP4 ADD SSTORE SWAP4 SWAP1 SWAP3 ADD MLOAD PUSH1 0x3 SWAP1 SWAP3 ADD SWAP2 SWAP1 SWAP2 SSTORE SLOAD DUP6 SWAP2 PUSH2 0x15B4 SWAP2 PUSH2 0x1F7C JUMP JUMPDEST PUSH1 0x40 DUP1 MLOAD PUSH1 0x1 PUSH1 0x1 PUSH1 0xA0 SHL SUB DUP11 AND DUP2 MSTORE PUSH1 0x20 DUP2 ADD DUP13 SWAP1 MSTORE DUP2 MLOAD DUP7 SWAP3 PUSH32 0xD52C75B244055AF9364C0A5DC0DA7868F6AE104012F245AD2702031AF04D9B8E SWAP3 DUP3 SWAP1 SUB ADD SWAP1 LOG4 PUSH2 0x15FF PUSH2 0x1892 JUMP JUMPDEST PUSH2 0x1607 PUSH2 0x19CF JUMP JUMPDEST PUSH1 0x40 MLOAD PUSH32 0x2CB17BD1FD2A1FECFEFAE2DE1E6A59194ABAA62179652924CCDCA01617F0BF16 SWAP1 PUSH1 0x0 SWAP1 LOG3 PUSH2 0x1638 PUSH2 0x2042 JUMP JUMPDEST POP SWAP7 SWAP6 POP POP POP POP POP POP JUMP JUMPDEST PUSH1 0x0 SLOAD PUSH1 0x1 PUSH1 0x1 PUSH1 0xA0 SHL SUB AND CALLER EQ PUSH2 0x16A2 JUMPI PUSH1 0x40 DUP1 MLOAD PUSH3 0x461BCD PUSH1 0xE5 SHL DUP2 MSTORE PUSH1 0x20 PUSH1 0x4 DUP3 ADD DUP2 SWAP1 MSTORE PUSH1 0x24 DUP3 ADD MSTORE PUSH32 0x4F776E61626C653A2063616C6C6572206973206E6F7420746865206F776E6572 PUSH1 0x44 DUP3 ADD MSTORE SWAP1 MLOAD SWAP1 DUP2 SWAP1 SUB PUSH1 0x64 ADD SWAP1 REVERT JUMPDEST PUSH1 0x1 PUSH1 0x1 PUSH1 0xA0 SHL SUB DUP2 AND PUSH2 0x16B5 JUMPI PUSH1 0x0 DUP1 REVERT JUMPDEST PUSH1 0x3A DUP1 SLOAD PUSH1 0x1 PUSH1 0x1 PUSH1 0xA0 SHL SUB NOT AND PUSH1 0x1 PUSH1 0x1 PUSH1 0xA0 SHL SUB SWAP3 SWAP1 SWAP3 AND SWAP2 SWAP1 SWAP2 OR SWAP1 SSTORE JUMP JUMPDEST PUSH1 0x35 SLOAD PUSH1 0x1 PUSH1 0x1 PUSH1 0xA0 SHL SUB AND DUP2 JUMP JUMPDEST PUSH1 0x40 DUP1 MLOAD DUP1 DUP3 ADD SWAP1 SWAP2 MSTORE PUSH1 0x20 DUP1 DUP3 MSTORE PUSH32 0x436C61696D53776170204B4C41592D4B4254204C50204465706F7369746F7279 SWAP1 DUP3 ADD MSTORE SWAP1 JUMP JUMPDEST PUSH1 0x36 SLOAD PUSH1 0x0 SWAP1 PUSH1 0x1 PUSH1 0x1 PUSH1 0xA0 SHL SUB DUP4 DUP2 AND SWAP2 AND EQ ISZERO PUSH2 0x176D JUMPI PUSH1 0x40 MLOAD PUSH3 0x461BCD PUSH1 0xE5 SHL DUP2 MSTORE PUSH1 0x4 ADD DUP1 DUP1 PUSH1 0x20 ADD DUP3 DUP2 SUB DUP3 MSTORE PUSH1 0x21 DUP2 MSTORE PUSH1 0x20 ADD DUP1 PUSH2 0x2530 PUSH1 0x21 SWAP2 CODECOPY PUSH1 0x40 ADD SWAP2 POP POP PUSH1 0x40 MLOAD DUP1 SWAP2 SUB SWAP1 REVERT JUMPDEST PUSH1 0x37 SLOAD PUSH1 0x1 PUSH1 0x1 PUSH1 0xA0 SHL SUB DUP4 DUP2 AND SWAP2 AND EQ ISZERO PUSH2 0x17BA JUMPI PUSH1 0x40 MLOAD PUSH3 0x461BCD PUSH1 0xE5 SHL DUP2 MSTORE PUSH1 0x4 ADD DUP1 DUP1 PUSH1 0x20 ADD DUP3 DUP2 SUB DUP3 MSTORE PUSH1 0x27 DUP2 MSTORE PUSH1 0x20 ADD DUP1 PUSH2 0x25DF PUSH1 0x27 SWAP2 CODECOPY PUSH1 0x40 ADD SWAP2 POP POP PUSH1 0x40 MLOAD DUP1 SWAP2 SUB SWAP1 REVERT JUMPDEST PUSH1 0x35 SLOAD PUSH1 0x40 DUP1 MLOAD PUSH32 0x70A0823100000000000000000000000000000000000000000000000000000000 DUP2 MSTORE ADDRESS PUSH1 0x4 DUP3 ADD MSTORE SWAP1 MLOAD PUSH2 0x1863 SWAP3 PUSH1 0x1 PUSH1 0x1 PUSH1 0xA0 SHL SUB SWAP1 DUP2 AND SWAP3 SWAP1 DUP7 AND SWAP2 PUSH4 0x70A08231 SWAP2 PUSH1 0x24 DUP1 DUP3 ADD SWAP3 PUSH1 0x20 SWAP3 SWAP1 SWAP2 SWAP1 DUP3 SWAP1 SUB ADD DUP2 DUP7 DUP1 EXTCODESIZE ISZERO DUP1 ISZERO PUSH2 0x1826 JUMPI PUSH1 0x0 DUP1 REVERT JUMPDEST POP GAS STATICCALL ISZERO DUP1 ISZERO PUSH2 0x183A JUMPI RETURNDATASIZE PUSH1 0x0 DUP1 RETURNDATACOPY RETURNDATASIZE PUSH1 0x0 REVERT JUMPDEST POP POP POP POP PUSH1 0x40 MLOAD RETURNDATASIZE PUSH1 0x20 DUP2 LT ISZERO PUSH2 0x1850 JUMPI PUSH1 0x0 DUP1 REVERT JUMPDEST POP MLOAD PUSH1 0x1 PUSH1 0x1 PUSH1 0xA0 SHL SUB DUP6 AND SWAP2 SWAP1 PUSH2 0x1FD6 JUMP JUMPDEST POP PUSH1 0x1 SWAP2 SWAP1 POP JUMP JUMPDEST PUSH1 0x46 PUSH1 0x20 MSTORE PUSH1 0x0 SWAP1 DUP2 MSTORE PUSH1 0x40 SWAP1 KECCAK256 DUP1 SLOAD PUSH1 0x1 DUP3 ADD SLOAD PUSH1 0x2 DUP4 ADD SLOAD PUSH1 0x3 SWAP1 SWAP4 ADD SLOAD SWAP2 SWAP3 SWAP1 SWAP2 DUP5 JUMP JUMPDEST PUSH1 0x0 PUSH2 0x10FB PUSH8 0xDE0B6B3A7640000 PUSH2 0x6F7 PUSH1 0x36 PUSH1 0x0 SWAP1 SLOAD SWAP1 PUSH2 0x100 EXP SWAP1 DIV PUSH1 0x1 PUSH1 0x1 PUSH1 0xA0 SHL SUB AND PUSH1 0x1 PUSH1 0x1 PUSH1 0xA0 SHL SUB AND PUSH4 0x18160DDD PUSH1 0x40 MLOAD DUP2 PUSH4 0xFFFFFFFF AND PUSH1 0xE0 SHL DUP2 MSTORE PUSH1 0x4 ADD PUSH1 0x20 PUSH1 0x40 MLOAD DUP1 DUP4 SUB DUP2 DUP7 DUP1 EXTCODESIZE ISZERO DUP1 ISZERO PUSH2 0x18F1 JUMPI PUSH1 0x0 DUP1 REVERT JUMPDEST POP GAS STATICCALL ISZERO DUP1 ISZERO PUSH2 0x1905 JUMPI RETURNDATASIZE PUSH1 0x0 DUP1 RETURNDATACOPY RETURNDATASIZE PUSH1 0x0 REVERT JUMPDEST POP POP POP POP PUSH1 0x40 MLOAD RETURNDATASIZE PUSH1 0x20 DUP2 LT ISZERO PUSH2 0x191B JUMPI PUSH1 0x0 DUP1 REVERT JUMPDEST POP MLOAD PUSH2 0x6F7 PUSH8 0xDE0B6B3A7640000 PUSH2 0x12D4 PUSH4 0x3B9ACA00 DUP2 PUSH2 0x10E5 JUMP JUMPDEST PUSH1 0x0 PUSH2 0x1952 PUSH1 0x64 PUSH2 0x6F7 PUSH2 0x1949 PUSH2 0x1892 JUMP JUMPDEST PUSH1 0x3B SLOAD SWAP1 PUSH2 0x1C54 JUMP JUMPDEST PUSH1 0x3D SLOAD SWAP1 SWAP2 POP DUP2 LT ISZERO PUSH2 0x10FE JUMPI POP PUSH1 0x3D SLOAD SWAP1 JUMP JUMPDEST PUSH1 0x39 SLOAD PUSH1 0x37 SLOAD PUSH1 0x40 DUP1 MLOAD PUSH4 0x6FF5C519 PUSH1 0xE0 SHL DUP2 MSTORE PUSH1 0x1 PUSH1 0x1 PUSH1 0xA0 SHL SUB SWAP3 DUP4 AND PUSH1 0x4 DUP3 ADD MSTORE SWAP1 MLOAD PUSH1 0x0 SWAP4 SWAP3 SWAP1 SWAP3 AND SWAP2 PUSH4 0x6FF5C519 SWAP2 PUSH1 0x24 DUP1 DUP3 ADD SWAP3 PUSH1 0x20 SWAP3 SWAP1 SWAP2 SWAP1 DUP3 SWAP1 SUB ADD DUP2 DUP7 DUP1 EXTCODESIZE ISZERO DUP1 ISZERO PUSH2 0x117D JUMPI PUSH1 0x0 DUP1 REVERT JUMPDEST PUSH1 0x3B SLOAD PUSH1 0x3C SLOAD PUSH1 0x3D SLOAD PUSH1 0x3E SLOAD PUSH1 0x3F SLOAD PUSH1 0x40 SLOAD DUP7 JUMP JUMPDEST PUSH1 0x0 DUP1 PUSH2 0x19DA PUSH2 0x1129 JUMP JUMPDEST SWAP1 POP PUSH1 0x0 PUSH2 0x19E6 PUSH2 0x1937 JUMP JUMPDEST SWAP1 POP PUSH2 0x19FA PUSH4 0x3B9ACA00 PUSH2 0x6F7 DUP5 DUP5 PUSH2 0x1C54 JUMP JUMPDEST SWAP3 POP POP POP SWAP1 JUMP JUMPDEST PUSH1 0x1 DUP2 JUMP JUMPDEST PUSH1 0x0 PUSH2 0x10FB PUSH3 0xF4240 PUSH2 0x6F7 PUSH1 0x3B PUSH1 0x3 ADD SLOAD PUSH1 0x36 PUSH1 0x0 SWAP1 SLOAD SWAP1 PUSH2 0x100 EXP SWAP1 DIV PUSH1 0x1 PUSH1 0x1 PUSH1 0xA0 SHL SUB AND PUSH1 0x1 PUSH1 0x1 PUSH1 0xA0 SHL SUB AND PUSH4 0x18160DDD PUSH1 0x40 MLOAD DUP2 PUSH4 0xFFFFFFFF AND PUSH1 0xE0 SHL DUP2 MSTORE PUSH1 0x4 ADD PUSH1 0x20 PUSH1 0x40 MLOAD DUP1 DUP4 SUB DUP2 DUP7 DUP1 EXTCODESIZE ISZERO DUP1 ISZERO PUSH2 0x1A66 JUMPI PUSH1 0x0 DUP1 REVERT JUMPDEST POP GAS STATICCALL ISZERO DUP1 ISZERO PUSH2 0x1A7A JUMPI RETURNDATASIZE PUSH1 0x0 DUP1 RETURNDATACOPY RETURNDATASIZE PUSH1 0x0 REVERT JUMPDEST POP POP POP POP PUSH1 0x40 MLOAD RETURNDATASIZE PUSH1 0x20 DUP2 LT ISZERO PUSH2 0x1A90 JUMPI PUSH1 0x0 DUP1 REVERT JUMPDEST POP MLOAD SWAP1 PUSH2 0x1C54 JUMP JUMPDEST PUSH1 0x0 DUP1 PUSH2 0x1AB0 PUSH1 0x48 SLOAD NUMBER PUSH2 0x1E98 SWAP1 SWAP2 SWAP1 PUSH4 0xFFFFFFFF AND JUMP JUMPDEST PUSH1 0x3C SLOAD PUSH1 0x47 SLOAD SWAP2 SWAP3 POP PUSH2 0x1AC7 SWAP2 PUSH2 0x6F7 SWAP1 DUP5 PUSH2 0x1C54 JUMP JUMPDEST SWAP2 POP PUSH1 0x47 SLOAD DUP3 GT ISZERO PUSH2 0x1AD9 JUMPI PUSH1 0x47 SLOAD SWAP2 POP JUMPDEST POP SWAP1 JUMP JUMPDEST PUSH1 0x0 PUSH2 0x1AE7 PUSH2 0x2122 JUMP JUMPDEST SWAP1 POP PUSH1 0x2 SLOAD DUP2 GT PUSH2 0x1B29 JUMPI PUSH1 0x40 MLOAD PUSH3 0x461BCD PUSH1 0xE5 SHL DUP2 MSTORE PUSH1 0x4 ADD DUP1 DUP1 PUSH1 0x20 ADD DUP3 DUP2 SUB DUP3 MSTORE PUSH1 0x2E DUP2 MSTORE PUSH1 0x20 ADD DUP1 PUSH2 0x26C6 PUSH1 0x2E SWAP2 CODECOPY PUSH1 0x40 ADD SWAP2 POP POP PUSH1 0x40 MLOAD DUP1 SWAP2 SUB SWAP1 REVERT JUMPDEST PUSH1 0x2 DUP2 SWAP1 SSTORE PUSH2 0x1B36 PUSH2 0x2127 JUMP JUMPDEST PUSH1 0x1 PUSH1 0x1 PUSH1 0xA0 SHL SUB DUP8 AND PUSH2 0x1B49 JUMPI PUSH1 0x0 DUP1 REVERT JUMPDEST PUSH1 0x36 DUP1 SLOAD PUSH1 0x1 PUSH1 0x1 PUSH1 0xA0 SHL SUB NOT AND PUSH1 0x1 PUSH1 0x1 PUSH1 0xA0 SHL SUB DUP10 DUP2 AND SWAP2 SWAP1 SWAP2 OR SWAP1 SWAP2 SSTORE DUP7 AND PUSH2 0x1B74 JUMPI PUSH1 0x0 DUP1 REVERT JUMPDEST PUSH1 0x35 DUP1 SLOAD PUSH1 0x1 PUSH1 0x1 PUSH1 0xA0 SHL SUB NOT AND PUSH1 0x1 PUSH1 0x1 PUSH1 0xA0 SHL SUB DUP9 DUP2 AND SWAP2 SWAP1 SWAP2 OR SWAP1 SWAP2 SSTORE DUP6 AND PUSH2 0x1B9F JUMPI PUSH1 0x0 DUP1 REVERT JUMPDEST PUSH1 0x37 DUP1 SLOAD PUSH1 0x1 PUSH1 0x1 PUSH1 0xA0 SHL SUB NOT AND PUSH1 0x1 PUSH1 0x1 PUSH1 0xA0 SHL SUB DUP8 DUP2 AND SWAP2 SWAP1 SWAP2 OR SWAP1 SWAP2 SSTORE DUP5 AND PUSH2 0x1BCA JUMPI PUSH1 0x0 DUP1 REVERT JUMPDEST PUSH1 0x3A DUP1 SLOAD PUSH1 0x1 PUSH1 0x1 PUSH1 0xA0 SHL SUB NOT AND PUSH1 0x1 PUSH1 0x1 PUSH1 0xA0 SHL SUB DUP7 DUP2 AND SWAP2 SWAP1 SWAP2 OR SWAP1 SWAP2 SSTORE DUP4 AND PUSH2 0x1BF5 JUMPI PUSH1 0x0 DUP1 REVERT JUMPDEST PUSH1 0x38 DUP1 SLOAD PUSH1 0x1 PUSH1 0x1 PUSH1 0xA0 SHL SUB NOT AND PUSH1 0x1 PUSH1 0x1 PUSH1 0xA0 SHL SUB DUP6 DUP2 AND SWAP2 SWAP1 SWAP2 OR SWAP1 SWAP2 SSTORE DUP3 AND PUSH2 0x1C20 JUMPI PUSH1 0x0 DUP1 REVERT JUMPDEST POP PUSH1 0x39 DUP1 SLOAD PUSH1 0x1 PUSH1 0x1 PUSH1 0xA0 SHL SUB NOT AND PUSH1 0x1 PUSH1 0x1 PUSH1 0xA0 SHL SUB SWAP3 SWAP1 SWAP3 AND SWAP2 SWAP1 SWAP2 OR SWAP1 SSTORE POP POP POP POP POP JUMP JUMPDEST PUSH1 0x48 SLOAD DUP2 JUMP JUMPDEST PUSH1 0x47 SLOAD DUP2 JUMP JUMPDEST PUSH1 0x0 DUP3 PUSH2 0x1C63 JUMPI POP PUSH1 0x0 PUSH2 0xCA7 JUMP JUMPDEST DUP3 DUP3 MUL DUP3 DUP5 DUP3 DUP2 PUSH2 0x1C70 JUMPI INVALID JUMPDEST DIV EQ PUSH2 0x1CAD JUMPI PUSH1 0x40 MLOAD PUSH3 0x461BCD PUSH1 0xE5 SHL DUP2 MSTORE PUSH1 0x4 ADD DUP1 DUP1 PUSH1 0x20 ADD DUP3 DUP2 SUB DUP3 MSTORE PUSH1 0x21 DUP2 MSTORE PUSH1 0x20 ADD DUP1 PUSH2 0x26A5 PUSH1 0x21 SWAP2 CODECOPY PUSH1 0x40 ADD SWAP2 POP POP PUSH1 0x40 MLOAD DUP1 SWAP2 SUB SWAP1 REVERT JUMPDEST SWAP4 SWAP3 POP POP POP JUMP JUMPDEST PUSH1 0x0 PUSH2 0x1CAD DUP4 DUP4 PUSH1 0x40 MLOAD DUP1 PUSH1 0x40 ADD PUSH1 0x40 MSTORE DUP1 PUSH1 0x1A DUP2 MSTORE PUSH1 0x20 ADD PUSH32 0x536166654D6174683A206469766973696F6E206279207A65726F000000000000 DUP2 MSTORE POP PUSH2 0x21D0 JUMP JUMPDEST PUSH1 0x0 DUP3 PUSH2 0x1D85 JUMPI PUSH1 0x36 SLOAD PUSH1 0x40 DUP1 MLOAD PUSH4 0xA9059CBB PUSH1 0xE0 SHL DUP2 MSTORE PUSH1 0x1 PUSH1 0x1 PUSH1 0xA0 SHL SUB DUP8 DUP2 AND PUSH1 0x4 DUP4 ADD MSTORE PUSH1 0x24 DUP3 ADD DUP7 SWAP1 MSTORE SWAP2 MLOAD SWAP2 SWAP1 SWAP3 AND SWAP2 PUSH4 0xA9059CBB SWAP2 PUSH1 0x44 DUP1 DUP4 ADD SWAP3 PUSH1 0x20 SWAP3 SWAP2 SWAP1 DUP3 SWAP1 SUB ADD DUP2 PUSH1 0x0 DUP8 DUP1 EXTCODESIZE ISZERO DUP1 ISZERO PUSH2 0x1D53 JUMPI PUSH1 0x0 DUP1 REVERT JUMPDEST POP GAS CALL ISZERO DUP1 ISZERO PUSH2 0x1D67 JUMPI RETURNDATASIZE PUSH1 0x0 DUP1 RETURNDATACOPY RETURNDATASIZE PUSH1 0x0 REVERT JUMPDEST POP POP POP POP PUSH1 0x40 MLOAD RETURNDATASIZE PUSH1 0x20 DUP2 LT ISZERO PUSH2 0x1D7D JUMPI PUSH1 0x0 DUP1 REVERT JUMPDEST POP PUSH2 0x1E91 SWAP1 POP JUMP JUMPDEST PUSH1 0x36 SLOAD PUSH1 0x3A SLOAD PUSH1 0x40 DUP1 MLOAD PUSH4 0x95EA7B3 PUSH1 0xE0 SHL DUP2 MSTORE PUSH1 0x1 PUSH1 0x1 PUSH1 0xA0 SHL SUB SWAP3 DUP4 AND PUSH1 0x4 DUP3 ADD MSTORE PUSH1 0x24 DUP2 ADD DUP7 SWAP1 MSTORE SWAP1 MLOAD SWAP2 SWAP1 SWAP3 AND SWAP2 PUSH4 0x95EA7B3 SWAP2 PUSH1 0x44 DUP1 DUP4 ADD SWAP3 PUSH1 0x20 SWAP3 SWAP2 SWAP1 DUP3 SWAP1 SUB ADD DUP2 PUSH1 0x0 DUP8 DUP1 EXTCODESIZE ISZERO DUP1 ISZERO PUSH2 0x1DDE JUMPI PUSH1 0x0 DUP1 REVERT JUMPDEST POP GAS CALL ISZERO DUP1 ISZERO PUSH2 0x1DF2 JUMPI RETURNDATASIZE PUSH1 0x0 DUP1 RETURNDATACOPY RETURNDATASIZE PUSH1 0x0 REVERT JUMPDEST POP POP POP POP PUSH1 0x40 MLOAD RETURNDATASIZE PUSH1 0x20 DUP2 LT ISZERO PUSH2 0x1E08 JUMPI PUSH1 0x0 DUP1 REVERT JUMPDEST POP POP PUSH1 0x3A SLOAD PUSH1 0x40 DUP1 MLOAD PUSH32 0xADC9772E00000000000000000000000000000000000000000000000000000000 DUP2 MSTORE PUSH1 0x1 PUSH1 0x1 PUSH1 0xA0 SHL SUB DUP8 DUP2 AND PUSH1 0x4 DUP4 ADD MSTORE PUSH1 0x24 DUP3 ADD DUP7 SWAP1 MSTORE SWAP2 MLOAD SWAP2 SWAP1 SWAP3 AND SWAP2 PUSH4 0xADC9772E SWAP2 PUSH1 0x44 DUP1 DUP4 ADD SWAP3 PUSH1 0x0 SWAP3 SWAP2 SWAP1 DUP3 SWAP1 SUB ADD DUP2 DUP4 DUP8 DUP1 EXTCODESIZE ISZERO DUP1 ISZERO PUSH2 0x1E78 JUMPI PUSH1 0x0 DUP1 REVERT JUMPDEST POP GAS CALL ISZERO DUP1 ISZERO PUSH2 0x1E8C JUMPI RETURNDATASIZE PUSH1 0x0 DUP1 RETURNDATACOPY RETURNDATASIZE PUSH1 0x0 REVERT JUMPDEST POP POP POP POP JUMPDEST POP SWAP3 SWAP2 POP POP JUMP JUMPDEST PUSH1 0x0 PUSH2 0x1CAD DUP4 DUP4 PUSH1 0x40 MLOAD DUP1 PUSH1 0x40 ADD PUSH1 0x40 MSTORE DUP1 PUSH1 0x1E DUP2 MSTORE PUSH1 0x20 ADD PUSH32 0x536166654D6174683A207375627472616374696F6E206F766572666C6F770000 DUP2 MSTORE POP PUSH2 0x2272 JUMP JUMPDEST PUSH2 0x1EE5 PUSH2 0x10F2 PUSH2 0x1A98 JUMP JUMPDEST PUSH1 0x47 SSTORE NUMBER PUSH1 0x48 SSTORE JUMP JUMPDEST PUSH1 0x40 DUP1 MLOAD PUSH1 0x1 PUSH1 0x1 PUSH1 0xA0 SHL SUB DUP1 DUP7 AND PUSH1 0x24 DUP4 ADD MSTORE DUP5 AND PUSH1 0x44 DUP3 ADD MSTORE PUSH1 0x64 DUP1 DUP3 ADD DUP5 SWAP1 MSTORE DUP3 MLOAD DUP1 DUP4 SUB SWAP1 SWAP2 ADD DUP2 MSTORE PUSH1 0x84 SWAP1 SWAP2 ADD SWAP1 SWAP2 MSTORE PUSH1 0x20 DUP2 ADD DUP1 MLOAD PUSH28 0xFFFFFFFFFFFFFFFFFFFFFFFFFFFFFFFFFFFFFFFFFFFFFFFFFFFFFFFF AND PUSH32 0x23B872DD00000000000000000000000000000000000000000000000000000000 OR SWAP1 MSTORE PUSH2 0x1F76 SWAP1 DUP6 SWAP1 PUSH2 0x22CC JUMP JUMPDEST POP POP POP POP JUMP JUMPDEST PUSH1 0x0 DUP3 DUP3 ADD DUP4 DUP2 LT ISZERO PUSH2 0x1CAD JUMPI PUSH1 0x40 DUP1 MLOAD PUSH3 0x461BCD PUSH1 0xE5 SHL DUP2 MSTORE PUSH1 0x20 PUSH1 0x4 DUP3 ADD MSTORE PUSH1 0x1B PUSH1 0x24 DUP3 ADD MSTORE PUSH32 0x536166654D6174683A206164646974696F6E206F766572666C6F770000000000 PUSH1 0x44 DUP3 ADD MSTORE SWAP1 MLOAD SWAP1 DUP2 SWAP1 SUB PUSH1 0x64 ADD SWAP1 REVERT JUMPDEST PUSH1 0x40 DUP1 MLOAD PUSH1 0x1 PUSH1 0x1 PUSH1 0xA0 SHL SUB DUP5 AND PUSH1 0x24 DUP3 ADD MSTORE PUSH1 0x44 DUP1 DUP3 ADD DUP5 SWAP1 MSTORE DUP3 MLOAD DUP1 DUP4 SUB SWAP1 SWAP2 ADD DUP2 MSTORE PUSH1 0x64 SWAP1 SWAP2 ADD SWAP1 SWAP2 MSTORE PUSH1 0x20 DUP2 ADD DUP1 MLOAD PUSH28 0xFFFFFFFFFFFFFFFFFFFFFFFFFFFFFFFFFFFFFFFFFFFFFFFFFFFFFFFF AND PUSH4 0xA9059CBB PUSH1 0xE0 SHL OR SWAP1 MSTORE PUSH2 0x203D SWAP1 DUP5 SWAP1 PUSH2 0x22CC JUMP JUMPDEST POP POP POP JUMP JUMPDEST PUSH1 0x44 SLOAD PUSH1 0x45 SLOAD PUSH1 0x0 SWAP2 PUSH2 0x2055 SWAP2 SWAP1 PUSH2 0x1F7C JUMP JUMPDEST PUSH1 0x42 SLOAD SWAP1 SWAP2 POP ISZERO DUP1 ISZERO SWAP1 PUSH2 0x2069 JUMPI POP DUP1 NUMBER LT ISZERO JUMPDEST ISZERO PUSH2 0x211F JUMPI PUSH1 0x3B SLOAD PUSH1 0x41 SLOAD PUSH1 0xFF AND ISZERO PUSH2 0x20A3 JUMPI PUSH1 0x42 SLOAD PUSH1 0x3B SLOAD PUSH2 0x208B SWAP2 PUSH2 0x1F7C JUMP JUMPDEST PUSH1 0x3B DUP2 SWAP1 SSTORE PUSH1 0x43 SLOAD GT PUSH2 0x209E JUMPI PUSH1 0x0 PUSH1 0x42 SSTORE JUMPDEST PUSH2 0x20C5 JUMP JUMPDEST PUSH1 0x42 SLOAD PUSH1 0x3B SLOAD PUSH2 0x20B2 SWAP2 PUSH2 0x1E98 JUMP JUMPDEST PUSH1 0x3B DUP2 SWAP1 SSTORE PUSH1 0x43 SLOAD LT PUSH2 0x20C5 JUMPI PUSH1 0x0 PUSH1 0x42 SSTORE JUMPDEST NUMBER PUSH1 0x45 SSTORE PUSH1 0x3B SLOAD PUSH1 0x42 SLOAD PUSH1 0x41 SLOAD PUSH1 0x40 DUP1 MLOAD DUP6 DUP2 MSTORE PUSH1 0x20 DUP2 ADD SWAP5 SWAP1 SWAP5 MSTORE DUP4 DUP2 ADD SWAP3 SWAP1 SWAP3 MSTORE PUSH1 0xFF AND ISZERO ISZERO PUSH1 0x60 DUP4 ADD MSTORE MLOAD PUSH32 0xB923E581A0F83128E9E1D8297AA52B18D6744310476E0B54509C054CD7A93B2A SWAP2 DUP2 SWAP1 SUB PUSH1 0x80 ADD SWAP1 LOG1 POP JUMPDEST POP JUMP JUMPDEST PUSH1 0x1 SWAP1 JUMP JUMPDEST PUSH1 0x0 SLOAD PUSH1 0x1 PUSH1 0x1 PUSH1 0xA0 SHL SUB AND ISZERO PUSH2 0x2185 JUMPI PUSH1 0x40 DUP1 MLOAD PUSH3 0x461BCD PUSH1 0xE5 SHL DUP2 MSTORE PUSH1 0x20 PUSH1 0x4 DUP3 ADD MSTORE PUSH1 0x1C PUSH1 0x24 DUP3 ADD MSTORE PUSH32 0x4F776E61626C653A20616C726561647920696E697469616C697A656400000000 PUSH1 0x44 DUP3 ADD MSTORE SWAP1 MLOAD SWAP1 DUP2 SWAP1 SUB PUSH1 0x64 ADD SWAP1 REVERT JUMPDEST PUSH1 0x0 DUP1 SLOAD PUSH1 0x1 PUSH1 0x1 PUSH1 0xA0 SHL SUB NOT AND CALLER OR DUP1 DUP3 SSTORE PUSH1 0x40 MLOAD PUSH1 0x1 PUSH1 0x1 PUSH1 0xA0 SHL SUB SWAP2 SWAP1 SWAP2 AND SWAP2 SWAP1 PUSH32 0xEA8258F2D9DDB679928CF34B78CF645B7FEDA9ACC828E4DD82D014EAAE270EBA SWAP1 DUP3 SWAP1 LOG3 JUMP JUMPDEST PUSH1 0x0 DUP2 DUP4 PUSH2 0x225C JUMPI PUSH1 0x40 MLOAD PUSH3 0x461BCD PUSH1 0xE5 SHL DUP2 MSTORE PUSH1 0x4 ADD DUP1 DUP1 PUSH1 0x20 ADD DUP3 DUP2 SUB DUP3 MSTORE DUP4 DUP2 DUP2 MLOAD DUP2 MSTORE PUSH1 0x20 ADD SWAP2 POP DUP1 MLOAD SWAP1 PUSH1 0x20 ADD SWAP1 DUP1 DUP4 DUP4 PUSH1 0x0 JUMPDEST DUP4 DUP2 LT ISZERO PUSH2 0x2221 JUMPI DUP2 DUP2 ADD MLOAD DUP4 DUP3 ADD MSTORE PUSH1 0x20 ADD PUSH2 0x2209 JUMP JUMPDEST POP POP POP POP SWAP1 POP SWAP1 DUP2 ADD SWAP1 PUSH1 0x1F AND DUP1 ISZERO PUSH2 0x224E JUMPI DUP1 DUP3 SUB DUP1 MLOAD PUSH1 0x1 DUP4 PUSH1 0x20 SUB PUSH2 0x100 EXP SUB NOT AND DUP2 MSTORE PUSH1 0x20 ADD SWAP2 POP JUMPDEST POP SWAP3 POP POP POP PUSH1 0x40 MLOAD DUP1 SWAP2 SUB SWAP1 REVERT JUMPDEST POP PUSH1 0x0 DUP4 DUP6 DUP2 PUSH2 0x2268 JUMPI INVALID JUMPDEST DIV SWAP6 SWAP5 POP POP POP POP POP JUMP JUMPDEST PUSH1 0x0 DUP2 DUP5 DUP5 GT ISZERO PUSH2 0x22C4 JUMPI PUSH1 0x40 MLOAD PUSH3 0x461BCD PUSH1 0xE5 SHL DUP2 MSTORE PUSH1 0x20 PUSH1 0x4 DUP3 ADD DUP2 DUP2 MSTORE DUP4 MLOAD PUSH1 0x24 DUP5 ADD MSTORE DUP4 MLOAD SWAP1 SWAP3 DUP4 SWAP3 PUSH1 0x44 SWAP1 SWAP2 ADD SWAP2 SWAP1 DUP6 ADD SWAP1 DUP1 DUP4 DUP4 PUSH1 0x0 DUP4 ISZERO PUSH2 0x2221 JUMPI DUP2 DUP2 ADD MLOAD DUP4 DUP3 ADD MSTORE PUSH1 0x20 ADD PUSH2 0x2209 JUMP JUMPDEST POP POP POP SWAP1 SUB SWAP1 JUMP JUMPDEST PUSH1 0x60 PUSH2 0x2321 DUP3 PUSH1 0x40 MLOAD DUP1 PUSH1 0x40 ADD PUSH1 0x40 MSTORE DUP1 PUSH1 0x1F DUP2 MSTORE PUSH1 0x20 ADD PUSH32 0x536166654B4950373A206C6F772D6C6576656C2063616C6C206661696C656400 DUP2 MSTORE POP DUP6 PUSH1 0x1 PUSH1 0x1 PUSH1 0xA0 SHL SUB AND PUSH2 0x237D SWAP1 SWAP3 SWAP2 SWAP1 PUSH4 0xFFFFFFFF AND JUMP JUMPDEST DUP1 MLOAD SWAP1 SWAP2 POP ISZERO PUSH2 0x203D JUMPI DUP1 DUP1 PUSH1 0x20 ADD SWAP1 MLOAD PUSH1 0x20 DUP2 LT ISZERO PUSH2 0x2340 JUMPI PUSH1 0x0 DUP1 REVERT JUMPDEST POP MLOAD PUSH2 0x203D JUMPI PUSH1 0x40 MLOAD PUSH3 0x461BCD PUSH1 0xE5 SHL DUP2 MSTORE PUSH1 0x4 ADD DUP1 DUP1 PUSH1 0x20 ADD DUP3 DUP2 SUB DUP3 MSTORE PUSH1 0x28 DUP2 MSTORE PUSH1 0x20 ADD DUP1 PUSH2 0x2655 PUSH1 0x28 SWAP2 CODECOPY PUSH1 0x40 ADD SWAP2 POP POP PUSH1 0x40 MLOAD DUP1 SWAP2 SUB SWAP1 REVERT JUMPDEST PUSH1 0x60 PUSH2 0x238C DUP5 DUP5 PUSH1 0x0 DUP6 PUSH2 0x2394 JUMP JUMPDEST SWAP5 SWAP4 POP POP POP POP JUMP JUMPDEST PUSH1 0x60 PUSH2 0x239F DUP6 PUSH2 0x2501 JUMP JUMPDEST PUSH2 0x23F0 JUMPI PUSH1 0x40 DUP1 MLOAD PUSH3 0x461BCD PUSH1 0xE5 SHL DUP2 MSTORE PUSH1 0x20 PUSH1 0x4 DUP3 ADD MSTORE PUSH1 0x1D PUSH1 0x24 DUP3 ADD MSTORE PUSH32 0x416464726573733A2063616C6C20746F206E6F6E2D636F6E7472616374000000 PUSH1 0x44 DUP3 ADD MSTORE SWAP1 MLOAD SWAP1 DUP2 SWAP1 SUB PUSH1 0x64 ADD SWAP1 REVERT JUMPDEST PUSH1 0x0 PUSH1 0x60 DUP7 PUSH1 0x1 PUSH1 0x1 PUSH1 0xA0 SHL SUB AND DUP6 DUP8 PUSH1 0x40 MLOAD DUP1 DUP3 DUP1 MLOAD SWAP1 PUSH1 0x20 ADD SWAP1 DUP1 DUP4 DUP4 JUMPDEST PUSH1 0x20 DUP4 LT PUSH2 0x242F JUMPI DUP1 MLOAD DUP3 MSTORE PUSH1 0x1F NOT SWAP1 SWAP3 ADD SWAP2 PUSH1 0x20 SWAP2 DUP3 ADD SWAP2 ADD PUSH2 0x2410 JUMP JUMPDEST PUSH1 0x1 DUP4 PUSH1 0x20 SUB PUSH2 0x100 EXP SUB DUP1 NOT DUP3 MLOAD AND DUP2 DUP5 MLOAD AND DUP1 DUP3 OR DUP6 MSTORE POP POP POP POP POP POP SWAP1 POP ADD SWAP2 POP POP PUSH1 0x0 PUSH1 0x40 MLOAD DUP1 DUP4 SUB DUP2 DUP6 DUP8 GAS CALL SWAP3 POP POP POP RETURNDATASIZE DUP1 PUSH1 0x0 DUP2 EQ PUSH2 0x2491 JUMPI PUSH1 0x40 MLOAD SWAP2 POP PUSH1 0x1F NOT PUSH1 0x3F RETURNDATASIZE ADD AND DUP3 ADD PUSH1 0x40 MSTORE RETURNDATASIZE DUP3 MSTORE RETURNDATASIZE PUSH1 0x0 PUSH1 0x20 DUP5 ADD RETURNDATACOPY PUSH2 0x2496 JUMP JUMPDEST PUSH1 0x60 SWAP2 POP JUMPDEST POP SWAP2 POP SWAP2 POP DUP2 ISZERO PUSH2 0x24AA JUMPI SWAP2 POP PUSH2 0x238C SWAP1 POP JUMP JUMPDEST DUP1 MLOAD ISZERO PUSH2 0x24BA JUMPI DUP1 MLOAD DUP1 DUP3 PUSH1 0x20 ADD REVERT JUMPDEST PUSH1 0x40 MLOAD PUSH3 0x461BCD PUSH1 0xE5 SHL DUP2 MSTORE PUSH1 0x20 PUSH1 0x4 DUP3 ADD DUP2 DUP2 MSTORE DUP7 MLOAD PUSH1 0x24 DUP5 ADD MSTORE DUP7 MLOAD DUP8 SWAP4 SWAP2 SWAP3 DUP4 SWAP3 PUSH1 0x44 ADD SWAP2 SWAP1 DUP6 ADD SWAP1 DUP1 DUP4 DUP4 PUSH1 0x0 DUP4 ISZERO PUSH2 0x2221 JUMPI DUP2 DUP2 ADD MLOAD DUP4 DUP3 ADD MSTORE PUSH1 0x20 ADD PUSH2 0x2209 JUMP JUMPDEST EXTCODESIZE ISZERO ISZERO SWAP1 JUMP JUMPDEST PUSH1 0x40 MLOAD DUP1 PUSH1 0x80 ADD PUSH1 0x40 MSTORE DUP1 PUSH1 0x0 DUP2 MSTORE PUSH1 0x20 ADD PUSH1 0x0 DUP2 MSTORE PUSH1 0x20 ADD PUSH1 0x0 DUP2 MSTORE PUSH1 0x20 ADD PUSH1 0x0 DUP2 MSTORE POP SWAP1 JUMP INVALID TIMESTAMP PUSH16 0x6E6454726561737572793A2063616E6E PUSH16 0x74207769746864726177204B42544F77 PUSH15 0x61626C653A206E6577206F776E6572 KECCAK256 PUSH10 0x7320746865207A65726F KECCAK256 PUSH2 0x6464 PUSH19 0x657373426F6E644465706F7369746F72793A20 PUSH24 0x726F6E67207461726765742076616C7565426F6E64446570 PUSH16 0x7369746F72793A204D61782063617061 PUSH4 0x69747920 PUSH19 0x6561636865644F776E61626C653A206D757374 KECCAK256 PUSH3 0x65206E PUSH6 0x77206F776E65 PUSH19 0x20746F2070756C6C426F6E6454726561737572 PUSH26 0x3A2063616E6E6F74207769746864726177207072696E6369706C PUSH6 0x426F6E644465 PUSH17 0x6F7369746F72793A2044414F2066656520 PUSH4 0x616E6E6F PUSH21 0x20657863656564207061796F7574426F6E64446570 PUSH16 0x7369746F72793A20696E6372656D656E PUSH21 0x20746F6F206C61726765536166654B4950373A204B 0x49 POP CALLDATACOPY KECCAK256 PUSH16 0x7065726174696F6E20646964206E6F74 KECCAK256 PUSH20 0x756363656564426F6E644465706F7369746F7279 GASPRICE KECCAK256 PUSH14 0x696E20646973636F756E74207261 PUSH21 0x6520657863656564536166654D6174683A206D756C PUSH21 0x69706C69636174696F6E206F766572666C6F77436F PUSH15 0x747261637420696E7374616E636520 PUSH9 0x617320616C72656164 PUSH26 0x206265656E20696E697469616C697A6564426F6E644465706F73 PUSH10 0x746F72793A20536C6970 PUSH17 0x616765206C696D69743A206D6F72652074 PUSH9 0x616E206D6178207072 PUSH10 0x6365426F6E644465706F PUSH20 0x69746F72793A207061796F75742063616E6E6F74 KECCAK256 PUSH3 0x652061 PUSH3 0x6F7665 KECCAK256 BALANCE KECCAK256 PUSH17 0x657263656E74426F6E644465706F736974 PUSH16 0x72793A20626F6E6473206D7573742062 PUSH6 0x20696E697469 PUSH2 0x6C69 PUSH27 0x65642066726F6D2030A26469706673582212201469DF6640320408 CREATE2 0x1F DIFFICULTY CALLCODE SELFDESTRUCT PUSH6 0x88005961506B MSTORE8 0xD6 0xE0 DUP13 0xB1 RETURNDATACOPY LOG0 PUSH14 0x55DE16AA64736F6C634300070500 CALLER "
        },
        "gasEstimates": {
          "creation": {
            "codeDepositCost": "2034400",
            "executionCost": "29225",
            "totalCost": "2063625"
          },
          "external": {
            "DAO()": "549",
            "KBT()": "549",
            "NAME()": "infinite",
            "REVISION()": "309",
            "__initialize(address,address,address,address,address,address)": "infinite",
            "adjustment()": "1377",
            "assetPrice()": "infinite",
            "bondInfo(address)": "1299",
            "bondPrice()": "infinite",
            "currentDebt()": "infinite",
            "debtDecay()": "infinite",
            "debtRatio()": "infinite",
            "deposit(uint256,uint256,address)": "infinite",
            "initializeBondTerms(uint256,uint256,uint256,uint256,uint256,uint256,uint256)": "infinite",
            "kbtPrice()": "infinite",
            "lastDecay()": "486",
            "maxPayout()": "infinite",
            "oracle()": "548",
            "owner()": "483",
            "payoutFor(uint256)": "infinite",
            "pendingPayoutFor(address)": "infinite",
            "percentVestedFor(address)": "infinite",
            "priceRate()": "infinite",
            "principle()": "484",
            "pullManagement()": "infinite",
            "pushManagement(address)": "infinite",
            "recoverLostToken(address)": "infinite",
            "redeem(address,bool)": "infinite",
            "renounceManagement()": "22456",
            "setAdjustment(bool,uint256,uint256,uint256)": "infinite",
            "setBondTerms(uint8,uint256)": "infinite",
            "setStaking(address)": "20838",
            "staking()": "549",
            "terms()": "1582",
            "totalDebt()": "508",
            "treasury()": "527"
          },
          "internal": {
            "getRevision()": "15"
          }
        },
        "methodIdentifiers": {
          "DAO()": "98fabd3a",
          "KBT()": "6c9d3232",
          "NAME()": "a3f4df7e",
          "REVISION()": "dde43cba",
          "__initialize(address,address,address,address,address,address)": "e88f9890",
          "adjustment()": "451ee4a1",
          "assetPrice()": "d24378eb",
          "bondInfo(address)": "cd1234b3",
          "bondPrice()": "d7ccfb0b",
          "currentDebt()": "759076e5",
          "debtDecay()": "e392a262",
          "debtRatio()": "cea55f57",
          "deposit(uint256,uint256,address)": "8dbdbe6d",
          "initializeBondTerms(uint256,uint256,uint256,uint256,uint256,uint256,uint256)": "71535008",
          "kbtPrice()": "7a97492f",
          "lastDecay()": "f5c2ab5b",
          "maxPayout()": "e0176de8",
          "oracle()": "7dc0d1d0",
          "owner()": "8da5cb5b",
          "payoutFor(uint256)": "7927ebf8",
          "pendingPayoutFor(address)": "01b88ee8",
          "percentVestedFor(address)": "507930ec",
          "priceRate()": "ceb791d9",
          "principle()": "016a4284",
          "pullManagement()": "5a96ac0a",
          "pushManagement(address)": "46f68ee9",
          "recoverLostToken(address)": "b4abccba",
          "redeem(address,bool)": "1feed31f",
          "renounceManagement()": "089208d8",
          "setAdjustment(bool,uint256,uint256,uint256)": "1a3d0068",
          "setBondTerms(uint8,uint256)": "1e321a0f",
          "setStaking(address)": "8ff39099",
          "staking()": "4cf088d9",
          "terms()": "d5025625",
          "totalDebt()": "fc7b9c18",
          "treasury()": "61d027b3"
        }
      },
      "storageLayout": {
        "storage": [
          {
            "astId": 2683,
            "contract": "contracts/bond/ClaimSwapKlayKbtLpDepository.sol:ClaimSwapKlayKbtLpDepository",
            "label": "_owner",
            "offset": 0,
            "slot": "0",
            "type": "t_address"
          },
          {
            "astId": 2685,
            "contract": "contracts/bond/ClaimSwapKlayKbtLpDepository.sol:ClaimSwapKlayKbtLpDepository",
            "label": "_newOwner",
            "offset": 0,
            "slot": "1",
            "type": "t_address"
          },
          {
            "astId": 3835,
            "contract": "contracts/bond/ClaimSwapKlayKbtLpDepository.sol:ClaimSwapKlayKbtLpDepository",
            "label": "lastInitializedRevision",
            "offset": 0,
            "slot": "2",
            "type": "t_uint256"
          },
          {
            "astId": 3866,
            "contract": "contracts/bond/ClaimSwapKlayKbtLpDepository.sol:ClaimSwapKlayKbtLpDepository",
            "label": "______gap",
            "offset": 0,
            "slot": "3",
            "type": "t_array(t_uint256)50_storage"
          },
          {
            "astId": 59,
            "contract": "contracts/bond/ClaimSwapKlayKbtLpDepository.sol:ClaimSwapKlayKbtLpDepository",
            "label": "DAO",
            "offset": 0,
            "slot": "53",
            "type": "t_address"
          },
          {
            "astId": 61,
            "contract": "contracts/bond/ClaimSwapKlayKbtLpDepository.sol:ClaimSwapKlayKbtLpDepository",
            "label": "KBT",
            "offset": 0,
            "slot": "54",
            "type": "t_address"
          },
          {
            "astId": 64,
            "contract": "contracts/bond/ClaimSwapKlayKbtLpDepository.sol:ClaimSwapKlayKbtLpDepository",
            "label": "principle",
            "offset": 0,
            "slot": "55",
            "type": "t_address"
          },
          {
            "astId": 66,
            "contract": "contracts/bond/ClaimSwapKlayKbtLpDepository.sol:ClaimSwapKlayKbtLpDepository",
            "label": "treasury",
            "offset": 0,
            "slot": "56",
            "type": "t_address"
          },
          {
            "astId": 68,
            "contract": "contracts/bond/ClaimSwapKlayKbtLpDepository.sol:ClaimSwapKlayKbtLpDepository",
            "label": "oracle",
            "offset": 0,
            "slot": "57",
            "type": "t_address"
          },
          {
            "astId": 70,
            "contract": "contracts/bond/ClaimSwapKlayKbtLpDepository.sol:ClaimSwapKlayKbtLpDepository",
            "label": "staking",
            "offset": 0,
            "slot": "58",
            "type": "t_address"
          },
          {
            "astId": 72,
            "contract": "contracts/bond/ClaimSwapKlayKbtLpDepository.sol:ClaimSwapKlayKbtLpDepository",
            "label": "terms",
            "offset": 0,
            "slot": "59",
            "type": "t_struct(Terms)95_storage"
          },
          {
            "astId": 74,
            "contract": "contracts/bond/ClaimSwapKlayKbtLpDepository.sol:ClaimSwapKlayKbtLpDepository",
            "label": "adjustment",
            "offset": 0,
            "slot": "65",
            "type": "t_struct(Adjust)115_storage"
          },
          {
            "astId": 78,
            "contract": "contracts/bond/ClaimSwapKlayKbtLpDepository.sol:ClaimSwapKlayKbtLpDepository",
            "label": "bondInfo",
            "offset": 0,
            "slot": "70",
            "type": "t_mapping(t_address,t_struct(Bond)104_storage)"
          },
          {
            "astId": 80,
            "contract": "contracts/bond/ClaimSwapKlayKbtLpDepository.sol:ClaimSwapKlayKbtLpDepository",
            "label": "totalDebt",
            "offset": 0,
            "slot": "71",
            "type": "t_uint256"
          },
          {
            "astId": 82,
            "contract": "contracts/bond/ClaimSwapKlayKbtLpDepository.sol:ClaimSwapKlayKbtLpDepository",
            "label": "lastDecay",
            "offset": 0,
            "slot": "72",
            "type": "t_uint256"
          }
        ],
        "types": {
          "t_address": {
            "encoding": "inplace",
            "label": "address",
            "numberOfBytes": "20"
          },
          "t_array(t_uint256)50_storage": {
            "base": "t_uint256",
            "encoding": "inplace",
            "label": "uint256[50]",
            "numberOfBytes": "1600"
          },
          "t_bool": {
            "encoding": "inplace",
            "label": "bool",
            "numberOfBytes": "1"
          },
          "t_mapping(t_address,t_struct(Bond)104_storage)": {
            "encoding": "mapping",
            "key": "t_address",
            "label": "mapping(address => struct BondDepository.Bond)",
            "numberOfBytes": "32",
            "value": "t_struct(Bond)104_storage"
          },
          "t_struct(Adjust)115_storage": {
            "encoding": "inplace",
            "label": "struct BondDepository.Adjust",
            "members": [
              {
                "astId": 106,
                "contract": "contracts/bond/ClaimSwapKlayKbtLpDepository.sol:ClaimSwapKlayKbtLpDepository",
                "label": "add",
                "offset": 0,
                "slot": "0",
                "type": "t_bool"
              },
              {
                "astId": 108,
                "contract": "contracts/bond/ClaimSwapKlayKbtLpDepository.sol:ClaimSwapKlayKbtLpDepository",
                "label": "rate",
                "offset": 0,
                "slot": "1",
                "type": "t_uint256"
              },
              {
                "astId": 110,
                "contract": "contracts/bond/ClaimSwapKlayKbtLpDepository.sol:ClaimSwapKlayKbtLpDepository",
                "label": "target",
                "offset": 0,
                "slot": "2",
                "type": "t_uint256"
              },
              {
                "astId": 112,
                "contract": "contracts/bond/ClaimSwapKlayKbtLpDepository.sol:ClaimSwapKlayKbtLpDepository",
                "label": "buffer",
                "offset": 0,
                "slot": "3",
                "type": "t_uint256"
              },
              {
                "astId": 114,
                "contract": "contracts/bond/ClaimSwapKlayKbtLpDepository.sol:ClaimSwapKlayKbtLpDepository",
                "label": "lastBlock",
                "offset": 0,
                "slot": "4",
                "type": "t_uint256"
              }
            ],
            "numberOfBytes": "160"
          },
          "t_struct(Bond)104_storage": {
            "encoding": "inplace",
            "label": "struct BondDepository.Bond",
            "members": [
              {
                "astId": 97,
                "contract": "contracts/bond/ClaimSwapKlayKbtLpDepository.sol:ClaimSwapKlayKbtLpDepository",
                "label": "payout",
                "offset": 0,
                "slot": "0",
                "type": "t_uint256"
              },
              {
                "astId": 99,
                "contract": "contracts/bond/ClaimSwapKlayKbtLpDepository.sol:ClaimSwapKlayKbtLpDepository",
                "label": "vesting",
                "offset": 0,
                "slot": "1",
                "type": "t_uint256"
              },
              {
                "astId": 101,
                "contract": "contracts/bond/ClaimSwapKlayKbtLpDepository.sol:ClaimSwapKlayKbtLpDepository",
                "label": "lastBlock",
                "offset": 0,
                "slot": "2",
                "type": "t_uint256"
              },
              {
                "astId": 103,
                "contract": "contracts/bond/ClaimSwapKlayKbtLpDepository.sol:ClaimSwapKlayKbtLpDepository",
                "label": "pricePaid",
                "offset": 0,
                "slot": "3",
                "type": "t_uint256"
              }
            ],
            "numberOfBytes": "128"
          },
          "t_struct(Terms)95_storage": {
            "encoding": "inplace",
            "label": "struct BondDepository.Terms",
            "members": [
              {
                "astId": 84,
                "contract": "contracts/bond/ClaimSwapKlayKbtLpDepository.sol:ClaimSwapKlayKbtLpDepository",
                "label": "controlVariable",
                "offset": 0,
                "slot": "0",
                "type": "t_uint256"
              },
              {
                "astId": 86,
                "contract": "contracts/bond/ClaimSwapKlayKbtLpDepository.sol:ClaimSwapKlayKbtLpDepository",
                "label": "vestingTerm",
                "offset": 0,
                "slot": "1",
                "type": "t_uint256"
              },
              {
                "astId": 88,
                "contract": "contracts/bond/ClaimSwapKlayKbtLpDepository.sol:ClaimSwapKlayKbtLpDepository",
                "label": "minimumPriceRate",
                "offset": 0,
                "slot": "2",
                "type": "t_uint256"
              },
              {
                "astId": 90,
                "contract": "contracts/bond/ClaimSwapKlayKbtLpDepository.sol:ClaimSwapKlayKbtLpDepository",
                "label": "maxPayout",
                "offset": 0,
                "slot": "3",
                "type": "t_uint256"
              },
              {
                "astId": 92,
                "contract": "contracts/bond/ClaimSwapKlayKbtLpDepository.sol:ClaimSwapKlayKbtLpDepository",
                "label": "fee",
                "offset": 0,
                "slot": "4",
                "type": "t_uint256"
              },
              {
                "astId": 94,
                "contract": "contracts/bond/ClaimSwapKlayKbtLpDepository.sol:ClaimSwapKlayKbtLpDepository",
                "label": "maxDebt",
                "offset": 0,
                "slot": "5",
                "type": "t_uint256"
              }
            ],
            "numberOfBytes": "192"
          },
          "t_uint256": {
            "encoding": "inplace",
            "label": "uint256",
            "numberOfBytes": "32"
          }
        }
      },
      "userdoc": {
        "kind": "user",
        "methods": {
          "assetPrice()": {
            "notice": "get asset price from klaybank oracle"
          },
          "bondPrice()": {
            "notice": "calculate current bond premium"
          },
          "currentDebt()": {
            "notice": "calculate debt factoring in decay"
          },
          "debtDecay()": {
            "notice": "amount to decay total debt by"
          },
          "debtRatio()": {
            "notice": "calculate current ratio of debt to KBT supply"
          },
          "deposit(uint256,uint256,address)": {
            "notice": "deposit bond"
          },
          "initializeBondTerms(uint256,uint256,uint256,uint256,uint256,uint256,uint256)": {
            "notice": "initializes bond parameters"
          },
          "kbtPrice()": {
            "notice": "returns kbt price in usd"
          },
          "maxPayout()": {
            "notice": "determine maximum bond size"
          },
          "payoutFor(uint256)": {
            "notice": "calculate interest due for new bond"
          },
          "pendingPayoutFor(address)": {
            "notice": "calculate amount of KBT available for claim by depositor"
          },
          "percentVestedFor(address)": {
            "notice": "calculate how far into vesting a depositor is"
          },
          "priceRate()": {
            "notice": "calculate bond price rate"
          },
          "recoverLostToken(address)": {
            "notice": "allow anyone to send lost tokens (excluding principle or KBT) to the DAO"
          },
          "redeem(address,bool)": {
            "notice": "redeem bond for user"
          },
          "setAdjustment(bool,uint256,uint256,uint256)": {
            "notice": "set control variable adjustment"
          },
          "setBondTerms(uint8,uint256)": {
            "notice": "set parameters for new bonds"
          },
          "setStaking(address)": {
            "notice": "set contract for auto stake"
          }
        },
        "version": 1
      }
    }
  }
}