{
  "_format": "hh-sol-artifact-1",
  "contractName": "BondTreasury",
  "sourceName": "contracts/bond/BondTreasury.sol",
  "abi": [
    {
      "anonymous": false,
      "inputs": [
        {
          "indexed": true,
          "internalType": "address",
          "name": "token",
          "type": "address"
        },
        {
          "indexed": false,
          "internalType": "uint256",
          "name": "amount",
          "type": "uint256"
        },
        {
          "indexed": false,
          "internalType": "uint256",
          "name": "pay",
          "type": "uint256"
        }
      ],
      "name": "Deposit",
      "type": "event"
    },
    {
      "anonymous": false,
      "inputs": [
        {
          "indexed": false,
          "internalType": "uint256",
          "name": "pid",
          "type": "uint256"
        },
        {
          "indexed": false,
          "internalType": "uint256",
          "name": "amount",
          "type": "uint256"
        }
      ],
      "name": "LPDeposited",
      "type": "event"
    },
    {
      "anonymous": false,
      "inputs": [
        {
          "indexed": false,
          "internalType": "uint256",
          "name": "pid",
          "type": "uint256"
        }
      ],
      "name": "LPDepositedAll",
      "type": "event"
    },
    {
      "anonymous": false,
      "inputs": [
        {
          "indexed": false,
          "internalType": "uint256",
          "name": "pid",
          "type": "uint256"
        },
        {
          "indexed": false,
          "internalType": "uint256",
          "name": "amount",
          "type": "uint256"
        }
      ],
      "name": "LPWithdrawed",
      "type": "event"
    },
    {
      "anonymous": false,
      "inputs": [
        {
          "indexed": false,
          "internalType": "uint256",
          "name": "pid",
          "type": "uint256"
        }
      ],
      "name": "LPWithdrawedAll",
      "type": "event"
    },
    {
      "anonymous": false,
      "inputs": [
        {
          "indexed": true,
          "internalType": "address",
          "name": "previousOwner",
          "type": "address"
        },
        {
          "indexed": true,
          "internalType": "address",
          "name": "newOwner",
          "type": "address"
        }
      ],
      "name": "OwnershipTransferred",
      "type": "event"
    },
    {
      "anonymous": false,
      "inputs": [
        {
          "indexed": true,
          "internalType": "uint256",
          "name": "totalReserves",
          "type": "uint256"
        }
      ],
      "name": "ReservesUpdated",
      "type": "event"
    },
    {
      "inputs": [],
      "name": "DAO",
      "outputs": [
        {
          "internalType": "address",
          "name": "",
          "type": "address"
        }
      ],
      "stateMutability": "view",
      "type": "function"
    },
    {
      "inputs": [],
      "name": "REVISION",
      "outputs": [
        {
          "internalType": "uint256",
          "name": "",
          "type": "uint256"
        }
      ],
      "stateMutability": "view",
      "type": "function"
    },
    {
      "inputs": [
        {
          "internalType": "address",
          "name": "DAO_",
          "type": "address"
        },
        {
          "internalType": "address",
          "name": "kp_",
          "type": "address"
        }
      ],
      "name": "__initialize",
      "outputs": [],
      "stateMutability": "nonpayable",
      "type": "function"
    },
    {
      "inputs": [],
      "name": "booster",
      "outputs": [
        {
          "internalType": "address",
          "name": "",
          "type": "address"
        }
      ],
      "stateMutability": "view",
      "type": "function"
    },
    {
      "inputs": [
        {
          "internalType": "uint256",
          "name": "_amount",
          "type": "uint256"
        },
        {
          "internalType": "address",
          "name": "_token",
          "type": "address"
        },
        {
          "internalType": "uint256",
          "name": "_pay",
          "type": "uint256"
        }
      ],
      "name": "deposit",
      "outputs": [],
      "stateMutability": "nonpayable",
      "type": "function"
    },
    {
      "inputs": [
        {
          "internalType": "uint256",
          "name": "_pid",
          "type": "uint256"
        }
      ],
      "name": "depositAll",
      "outputs": [
        {
          "internalType": "bool",
          "name": "",
          "type": "bool"
        }
      ],
      "stateMutability": "nonpayable",
      "type": "function"
    },
    {
      "inputs": [
        {
          "internalType": "uint256",
          "name": "_pid",
          "type": "uint256"
        },
        {
          "internalType": "uint256",
          "name": "_amount",
          "type": "uint256"
        }
      ],
      "name": "depositLP",
      "outputs": [
        {
          "internalType": "bool",
          "name": "",
          "type": "bool"
        }
      ],
      "stateMutability": "nonpayable",
      "type": "function"
    },
    {
      "inputs": [],
      "name": "getBalance",
      "outputs": [
        {
          "internalType": "uint256",
          "name": "",
          "type": "uint256"
        }
      ],
      "stateMutability": "view",
      "type": "function"
    },
    {
      "inputs": [
        {
          "internalType": "address",
          "name": "",
          "type": "address"
        }
      ],
      "name": "isReserveDepositor",
      "outputs": [
        {
          "internalType": "bool",
          "name": "",
          "type": "bool"
        }
      ],
      "stateMutability": "view",
      "type": "function"
    },
    {
      "inputs": [
        {
          "internalType": "address",
          "name": "",
          "type": "address"
        }
      ],
      "name": "isReserveToken",
      "outputs": [
        {
          "internalType": "bool",
          "name": "",
          "type": "bool"
        }
      ],
      "stateMutability": "view",
      "type": "function"
    },
    {
      "inputs": [],
      "name": "kp",
      "outputs": [
        {
          "internalType": "address",
          "name": "",
          "type": "address"
        }
      ],
      "stateMutability": "view",
      "type": "function"
    },
    {
      "inputs": [],
      "name": "operator",
      "outputs": [
        {
          "internalType": "address",
          "name": "",
          "type": "address"
        }
      ],
      "stateMutability": "view",
      "type": "function"
    },
    {
      "inputs": [],
      "name": "owner",
      "outputs": [
        {
          "internalType": "address",
          "name": "",
          "type": "address"
        }
      ],
      "stateMutability": "view",
      "type": "function"
    },
    {
      "inputs": [
        {
          "internalType": "address",
          "name": "_token",
          "type": "address"
        }
      ],
      "name": "recoverLostToken",
      "outputs": [
        {
          "internalType": "bool",
          "name": "",
          "type": "bool"
        }
      ],
      "stateMutability": "nonpayable",
      "type": "function"
    },
    {
      "inputs": [
        {
          "internalType": "address",
          "name": "_token",
          "type": "address"
        },
        {
          "internalType": "address",
          "name": "_depositor",
          "type": "address"
        }
      ],
      "name": "register",
      "outputs": [],
      "stateMutability": "nonpayable",
      "type": "function"
    },
    {
      "inputs": [],
      "name": "renounceOwnership",
      "outputs": [],
      "stateMutability": "nonpayable",
      "type": "function"
    },
    {
      "inputs": [],
      "name": "reserveDepositors",
      "outputs": [
        {
          "internalType": "address[]",
          "name": "",
          "type": "address[]"
        }
      ],
      "stateMutability": "view",
      "type": "function"
    },
    {
      "inputs": [],
      "name": "reserveTokens",
      "outputs": [
        {
          "internalType": "address[]",
          "name": "",
          "type": "address[]"
        }
      ],
      "stateMutability": "view",
      "type": "function"
    },
    {
      "inputs": [],
      "name": "setApprovals",
      "outputs": [],
      "stateMutability": "nonpayable",
      "type": "function"
    },
    {
      "inputs": [
        {
          "internalType": "address",
          "name": "_booster",
          "type": "address"
        }
      ],
      "name": "setBooster",
      "outputs": [],
      "stateMutability": "nonpayable",
      "type": "function"
    },
    {
      "inputs": [
        {
          "internalType": "address",
          "name": "_op",
          "type": "address"
        }
      ],
      "name": "setOperator",
      "outputs": [],
      "stateMutability": "nonpayable",
      "type": "function"
    },
    {
      "inputs": [
        {
          "internalType": "address",
          "name": "",
          "type": "address"
        }
      ],
      "name": "tokenPaidAmounts",
      "outputs": [
        {
          "internalType": "uint256",
          "name": "",
          "type": "uint256"
        }
      ],
      "stateMutability": "view",
      "type": "function"
    },
    {
      "inputs": [
        {
          "internalType": "address",
          "name": "newOwner",
          "type": "address"
        }
      ],
      "name": "transferOwnership",
      "outputs": [],
      "stateMutability": "nonpayable",
      "type": "function"
    },
    {
      "inputs": [
        {
          "internalType": "address",
          "name": "_depositor",
          "type": "address"
        }
      ],
      "name": "unregisterDepositor",
      "outputs": [],
      "stateMutability": "nonpayable",
      "type": "function"
    },
    {
      "inputs": [
        {
          "internalType": "uint256",
          "name": "_pid",
          "type": "uint256"
        }
      ],
      "name": "withdrawAll",
      "outputs": [
        {
          "internalType": "bool",
          "name": "",
          "type": "bool"
        }
      ],
      "stateMutability": "nonpayable",
      "type": "function"
    },
    {
      "inputs": [
        {
          "internalType": "uint256",
          "name": "_pid",
          "type": "uint256"
        },
        {
          "internalType": "uint256",
          "name": "_amount",
          "type": "uint256"
        }
      ],
      "name": "withdrawLP",
      "outputs": [
        {
          "internalType": "bool",
          "name": "",
          "type": "bool"
        }
      ],
      "stateMutability": "nonpayable",
      "type": "function"
    }
  ],
  "bytecode": "0x6080604052600060015534801561001557600080fd5b50600061002061006f565b600080546001600160a01b0319166001600160a01b0383169081178255604051929350917f8be0079c531659141344cd1fd0a4f28419497f9722a3daafe3b4186f6b6457e0908290a350610073565b3390565b611e5f806100826000396000f3fe608060405234801561001057600080fd5b50600436106101ae5760003560e01c806398fabd3a116100ee578063bfe50f7211610097578063caf9e19111610071578063caf9e1911461045b578063dde43cba14610489578063e1e2c81514610491578063f2fde38b146104b7576101ae565b8063bfe50f7214610413578063c6def07614610436578063c6f678bd1461043e576101ae565b8063b3ab15fb116100c8578063b3ab15fb14610395578063b4abccba146103bb578063bc157ac1146103e1576101ae565b806398fabd3a1461035757806399456f281461035f578063aa67735414610367576101ae565b806364a70e161161015b5780638757b15b116101355780638757b15b146103075780638da5cb5b1461030f57806391918d6414610317578063958e2d311461033a576101ae565b806364a70e16146102d157806368c31dd5146102d9578063715018a6146102ff576101ae565b806327ac36c41161018c57806327ac36c41461022d578063570ca735146102855780635a826df3146102a9576101ae565b806312065fe0146101b3578063124154ca146101cd578063160ab9cd14610207575b600080fd5b6101bb6104dd565b60408051918252519081900360200190f35b6101f3600480360360208110156101e357600080fd5b50356001600160a01b0316610559565b604080519115158252519081900360200190f35b6101bb6004803603602081101561021d57600080fd5b50356001600160a01b031661056e565b610235610580565b60408051602080825283518183015283519192839290830191858101910280838360005b83811015610271578181015183820152602001610259565b505050509050019250505060405180910390f35b61028d6105e2565b604080516001600160a01b039092168252519081900360200190f35b6102cf600480360360208110156102bf57600080fd5b50356001600160a01b03166105f1565b005b61028d610687565b6101f3600480360360208110156102ef57600080fd5b50356001600160a01b0316610696565b6102cf6106ab565b6102cf610769565b61028d6107e2565b6101f36004803603604081101561032d57600080fd5b50803590602001356107f1565b6101f36004803603602081101561035057600080fd5b5035610945565b61028d610a89565b610235610a98565b6102cf6004803603604081101561037d57600080fd5b506001600160a01b0381358116916020013516610af8565b6102cf600480360360208110156103ab57600080fd5b50356001600160a01b0316610c59565b6101f3600480360360208110156103d157600080fd5b50356001600160a01b0316610cef565b6102cf600480360360608110156103f757600080fd5b508035906001600160a01b036020820135169060400135610e45565b6101f36004803603604081101561042957600080fd5b508035906020013561102d565b61028d611181565b6101f36004803603602081101561045457600080fd5b5035611190565b6102cf6004803603604081101561047157600080fd5b506001600160a01b03813581169160200135166112d4565b6101bb611417565b6102cf600480360360208110156104a757600080fd5b50356001600160a01b031661141c565b6102cf600480360360208110156104cd57600080fd5b50356001600160a01b031661151e565b603554604080516370a0823160e01b815230600482015290516000926001600160a01b0316916370a08231916024808301926020929190829003018186803b15801561052857600080fd5b505afa15801561053c573d6000803e3d6000fd5b505050506040513d602081101561055257600080fd5b5051905090565b603c6020526000908152604090205460ff1681565b603a6020526000908152604090205481565b606060388054806020026020016040519081016040528092919081815260200182805480156105d857602002820191906000526020600020905b81546001600160a01b031681526001909101906020018083116105ba575b5050505050905090565b6036546001600160a01b031681565b6105f9611632565b6001600160a01b031661060a6107e2565b6001600160a01b031614610665576040805162461bcd60e51b815260206004820181905260248201527f4f776e61626c653a2063616c6c6572206973206e6f7420746865206f776e6572604482015290519081900360640190fd5b603780546001600160a01b0319166001600160a01b0392909216919091179055565b6035546001600160a01b031681565b60396020526000908152604090205460ff1681565b6106b3611632565b6001600160a01b03166106c46107e2565b6001600160a01b03161461071f576040805162461bcd60e51b815260206004820181905260248201527f4f776e61626c653a2063616c6c6572206973206e6f7420746865206f776e6572604482015290519081900360640190fd5b600080546040516001600160a01b03909116907f8be0079c531659141344cd1fd0a4f28419497f9722a3daafe3b4186f6b6457e0908390a3600080546001600160a01b0319169055565b60005b6038548110156107df57603754603880546107b4926001600160a01b0316916000918590811061079857fe5b6000918252602090912001546001600160a01b03169190611636565b603754603880546107d7926001600160a01b031691600019918590811061079857fe5b60010161076c565b50565b6000546001600160a01b031690565b60006107fb611632565b6001600160a01b031661080c6107e2565b6001600160a01b031614610867576040805162461bcd60e51b815260206004820181905260248201527f4f776e61626c653a2063616c6c6572206973206e6f7420746865206f776e6572604482015290519081900360640190fd5b603754604080517f441a3e70000000000000000000000000000000000000000000000000000000008152600481018690526024810185905290516001600160a01b039092169163441a3e70916044808201926020929091908290030181600087803b1580156108d557600080fd5b505af11580156108e9573d6000803e3d6000fd5b505050506040513d60208110156108ff57600080fd5b5050604080518481526020810184905281517fdc4fcb34c4d56b7a1917bd1862d77d569c6e1949f2ea263efa05650b39040927929181900390910190a150600192915050565b600061094f611632565b6001600160a01b03166109606107e2565b6001600160a01b0316146109bb576040805162461bcd60e51b815260206004820181905260248201527f4f776e61626c653a2063616c6c6572206973206e6f7420746865206f776e6572604482015290519081900360640190fd5b603754604080517f958e2d310000000000000000000000000000000000000000000000000000000081526004810185905290516001600160a01b039092169163958e2d31916024808201926020929091908290030181600087803b158015610a2257600080fd5b505af1158015610a36573d6000803e3d6000fd5b505050506040513d6020811015610a4c57600080fd5b50506040805183815290517fe14e26031a60dcfb7972dfe0ab252f2bb9943068e1565ada4a35021e12f98a969181900360200190a1506001919050565b6034546001600160a01b031681565b6060603b8054806020026020016040519081016040528092919081815260200182805480156105d8576020028201919060005260206000209081546001600160a01b031681526001909101906020018083116105ba575050505050905090565b610b00611632565b6001600160a01b0316610b116107e2565b6001600160a01b031614610b6c576040805162461bcd60e51b815260206004820181905260248201527f4f776e61626c653a2063616c6c6572206973206e6f7420746865206f776e6572604482015290519081900360640190fd5b6001600160a01b03821615801590610b8c57506001600160a01b03811615155b610bdd576040805162461bcd60e51b815260206004820152601760248201527f426f6e6454726561737572793a20302061646472657373000000000000000000604482015290519081900360640190fd5b6001600160a01b0381166000908152603c602052604090205460ff1615610c4b576040805162461bcd60e51b815260206004820181905260248201527f426f6e6454726561737572793a20616c72656164792072656769737465726564604482015290519081900360640190fd5b610c558282611780565b5050565b610c61611632565b6001600160a01b0316610c726107e2565b6001600160a01b031614610ccd576040805162461bcd60e51b815260206004820181905260248201527f4f776e61626c653a2063616c6c6572206973206e6f7420746865206f776e6572604482015290519081900360640190fd5b603680546001600160a01b0319166001600160a01b0392909216919091179055565b6035546000906001600160a01b0383811691161415610d55576040805162461bcd60e51b815260206004820181905260248201527f426f6e6454726561737572793a2063616e6e6f74207769746864726177204b50604482015290519081900360640190fd5b6001600160a01b03821660009081526039602052604090205460ff1615610dad5760405162461bcd60e51b815260040180806020018281038252602c815260200180611d9e602c913960400191505060405180910390fd5b603454604080516370a0823160e01b81523060048201529051610e3d926001600160a01b0390811692908616916370a0823191602480820192602092909190829003018186803b158015610e0057600080fd5b505afa158015610e14573d6000803e3d6000fd5b505050506040513d6020811015610e2a57600080fd5b50516001600160a01b0385169190611923565b506001919050565b6001600160a01b03821660009081526039602052604090205460ff16610eb2576040805162461bcd60e51b815260206004820152601c60248201527f426f6e6454726561737572793a206e6f74207265676973746572656400000000604482015290519081900360640190fd5b336000908152603c602052604090205460ff16610f16576040805162461bcd60e51b815260206004820152601c60248201527f426f6e6454726561737572793a206e6f7420617574686f72697a656400000000604482015290519081900360640190fd5b610f2b6001600160a01b038316333086611975565b6035546040805163a9059cbb60e01b81523360048201526024810184905290516001600160a01b039092169163a9059cbb916044808201926020929091908290030181600087803b158015610f7f57600080fd5b505af1158015610f93573d6000803e3d6000fd5b505050506040513d6020811015610fa957600080fd5b50506001600160a01b0382166000908152603a6020526040902054610fce90826119ee565b6001600160a01b0383166000818152603a6020908152604091829020939093558051868152928301849052805191927f90890809c654f11d6e72a28fa60149770a0d11ec6c92319d6ceb2bb0a4ea1a15929081900390910190a2505050565b6000611037611632565b6001600160a01b03166110486107e2565b6001600160a01b0316146110a3576040805162461bcd60e51b815260206004820181905260248201527f4f776e61626c653a2063616c6c6572206973206e6f7420746865206f776e6572604482015290519081900360640190fd5b603754604080517fe2bbb158000000000000000000000000000000000000000000000000000000008152600481018690526024810185905290516001600160a01b039092169163e2bbb158916044808201926020929091908290030181600087803b15801561111157600080fd5b505af1158015611125573d6000803e3d6000fd5b505050506040513d602081101561113b57600080fd5b5050604080518481526020810184905281517f9e184a99945c43670f5cda924e33880795e38a05fee2bf226987aaa52f332078929181900390910190a150600192915050565b6037546001600160a01b031681565b600061119a611632565b6001600160a01b03166111ab6107e2565b6001600160a01b031614611206576040805162461bcd60e51b815260206004820181905260248201527f4f776e61626c653a2063616c6c6572206973206e6f7420746865206f776e6572604482015290519081900360640190fd5b603754604080517fc6f678bd0000000000000000000000000000000000000000000000000000000081526004810185905290516001600160a01b039092169163c6f678bd916024808201926020929091908290030181600087803b15801561126d57600080fd5b505af1158015611281573d6000803e3d6000fd5b505050506040513d602081101561129757600080fd5b50506040805183815290517fa062115777ad575d17ee1e7725cb7cfb7f5e36ca1036f0f3c035ebe03b44fa449181900360200190a1506001919050565b60006112de611a4f565b905060015481116113205760405162461bcd60e51b815260040180806020018281038252602e815260200180611d70602e913960400191505060405180910390fd5b60018190556001600160a01b038316611380576040805162461bcd60e51b815260206004820152601760248201527f426f6e6454726561737572793a20302061646472657373000000000000000000604482015290519081900360640190fd5b603480546001600160a01b0319166001600160a01b038581169190911790915582166113f3576040805162461bcd60e51b815260206004820152601760248201527f426f6e6454726561737572793a20302061646472657373000000000000000000604482015290519081900360640190fd5b50603580546001600160a01b0319166001600160a01b039290921691909117905550565b600181565b611424611632565b6001600160a01b03166114356107e2565b6001600160a01b031614611490576040805162461bcd60e51b815260206004820181905260248201527f4f776e61626c653a2063616c6c6572206973206e6f7420746865206f776e6572604482015290519081900360640190fd5b6001600160a01b0381166000908152603c602052604090205460ff166114fd576040805162461bcd60e51b815260206004820152601c60248201527f426f6e6454726561737572793a206e6f74207265676973746572656400000000604482015290519081900360640190fd5b6001600160a01b03166000908152603c60205260409020805460ff19169055565b611526611632565b6001600160a01b03166115376107e2565b6001600160a01b031614611592576040805162461bcd60e51b815260206004820181905260248201527f4f776e61626c653a2063616c6c6572206973206e6f7420746865206f776e6572604482015290519081900360640190fd5b6001600160a01b0381166115d75760405162461bcd60e51b8152600401808060200182810382526026815260200180611d246026913960400191505060405180910390fd5b600080546040516001600160a01b03808516939216917f8be0079c531659141344cd1fd0a4f28419497f9722a3daafe3b4186f6b6457e091a3600080546001600160a01b0319166001600160a01b0392909216919091179055565b3390565b8015806116d55750604080517fdd62ed3e0000000000000000000000000000000000000000000000000000000081523060048201526001600160a01b03848116602483015291519185169163dd62ed3e91604480820192602092909190829003018186803b1580156116a757600080fd5b505afa1580156116bb573d6000803e3d6000fd5b505050506040513d60208110156116d157600080fd5b5051155b6117105760405162461bcd60e51b8152600401808060200182810382526036815260200180611df46036913960400191505060405180910390fd5b604080516001600160a01b038416602482015260448082018490528251808303909101815260649091019091526020810180516001600160e01b03167f095ea7b30000000000000000000000000000000000000000000000000000000017905261177b908490611a54565b505050565b6001600160a01b03821660009081526039602052604090205460ff16611804576038805460018082019092557f38395c5dceade9603479b177b68959049485df8aa97b39f3533039af5f4561990180546001600160a01b0319166001600160a01b0385169081179091556000908152603960205260409020805460ff191690911790555b6060603b80548060200260200160405190810160405280929190818152602001828054801561185c57602002820191906000526020600020905b81546001600160a01b0316815260019091019060200180831161183e575b505050505090506000805b82518110156118aa57836001600160a01b031683828151811061188657fe5b60200260200101516001600160a01b031614156118a257600191505b600101611867565b50806118fc57603b80546001810182556000919091527fbbe3212124853f8b0084a66a2d057c2966e251e132af3691db153ab65f0d1a4d0180546001600160a01b0319166001600160a01b0385161790555b50506001600160a01b03166000908152603c60205260409020805460ff1916600117905550565b604080516001600160a01b038416602482015260448082018490528251808303909101815260649091019091526020810180516001600160e01b031663a9059cbb60e01b17905261177b908490611a54565b604080516001600160a01b0380861660248301528416604482015260648082018490528251808303909101815260849091019091526020810180516001600160e01b03167f23b872dd000000000000000000000000000000000000000000000000000000001790526119e8908590611a54565b50505050565b600082820183811015611a48576040805162461bcd60e51b815260206004820152601b60248201527f536166654d6174683a206164646974696f6e206f766572666c6f770000000000604482015290519081900360640190fd5b9392505050565b600190565b6060611aa9826040518060400160405280602081526020017f5361666545524332303a206c6f772d6c6576656c2063616c6c206661696c6564815250856001600160a01b0316611b059092919063ffffffff16565b80519091501561177b57808060200190516020811015611ac857600080fd5b505161177b5760405162461bcd60e51b815260040180806020018281038252602a815260200180611dca602a913960400191505060405180910390fd5b6060611b148484600085611b1c565b949350505050565b60603031831115611b5e5760405162461bcd60e51b8152600401808060200182810382526026815260200180611d4a6026913960400191505060405180910390fd5b611b6785611c79565b611bb8576040805162461bcd60e51b815260206004820152601d60248201527f416464726573733a2063616c6c20746f206e6f6e2d636f6e7472616374000000604482015290519081900360640190fd5b60006060866001600160a01b031685876040518082805190602001908083835b60208310611bf75780518252601f199092019160209182019101611bd8565b6001836020036101000a03801982511681845116808217855250505050505090500191505060006040518083038185875af1925050503d8060008114611c59576040519150601f19603f3d011682016040523d82523d6000602084013e611c5e565b606091505b5091509150611c6e828286611c7f565b979650505050505050565b3b151590565b60608315611c8e575081611a48565b825115611c9e5782518084602001fd5b8160405162461bcd60e51b81526004018080602001828103825283818151815260200191508051906020019080838360005b83811015611ce8578181015183820152602001611cd0565b50505050905090810190601f168015611d155780820380516001836020036101000a031916815260200191505b509250505060405180910390fdfe4f776e61626c653a206e6577206f776e657220697320746865207a65726f2061646472657373416464726573733a20696e73756666696369656e742062616c616e636520666f722063616c6c436f6e747261637420696e7374616e63652068617320616c7265616479206265656e20696e697469616c697a6564426f6e6454726561737572793a2063616e6e6f74207769746864726177207265736572766520746f6b656e735361666545524332303a204552433230206f7065726174696f6e20646964206e6f7420737563636565645361666545524332303a20617070726f76652066726f6d206e6f6e2d7a65726f20746f206e6f6e2d7a65726f20616c6c6f77616e6365a2646970667358221220677d99f95609896f87105f6a42a43e11ce80765f9367f2cba6492aa095f83e2c64736f6c63430007050033",
  "linkReferences": {},
  "deployedLinkReferences": {}
}