{
  "_format": "hh-sol-artifact-1",
  "contractName": "SCAMP",
  "sourceName": "contracts/bank/SCAMP.sol",
  "abi": [
    {
      "inputs": [
        {
          "internalType": "string",
          "name": "_name",
          "type": "string"
        },
        {
          "internalType": "string",
          "name": "_symbol",
          "type": "string"
        },
        {
          "internalType": "address",
          "name": "_creator_address",
          "type": "address"
        }
      ],
      "stateMutability": "nonpayable",
      "type": "constructor"
    },
    {
      "anonymous": false,
      "inputs": [
        {
          "indexed": true,
          "internalType": "address",
          "name": "owner",
          "type": "address"
        },
        {
          "indexed": true,
          "internalType": "address",
          "name": "spender",
          "type": "address"
        },
        {
          "indexed": false,
          "internalType": "uint256",
          "name": "value",
          "type": "uint256"
        }
      ],
      "name": "Approval",
      "type": "event"
    },
    {
      "anonymous": false,
      "inputs": [
        {
          "indexed": false,
          "internalType": "uint256",
          "name": "global_collateral_ratio",
          "type": "uint256"
        }
      ],
      "name": "CollateralRatioRefreshed",
      "type": "event"
    },
    {
      "anonymous": false,
      "inputs": [
        {
          "indexed": false,
          "internalType": "bool",
          "name": "collateral_ratio_paused",
          "type": "bool"
        }
      ],
      "name": "CollateralRatioToggled",
      "type": "event"
    },
    {
      "anonymous": false,
      "inputs": [
        {
          "indexed": false,
          "internalType": "address",
          "name": "controller_address",
          "type": "address"
        }
      ],
      "name": "ControllerSet",
      "type": "event"
    },
    {
      "anonymous": false,
      "inputs": [
        {
          "indexed": false,
          "internalType": "address",
          "name": "eth_usd_consumer_address",
          "type": "address"
        }
      ],
      "name": "ETHUSDOracleSet",
      "type": "event"
    },
    {
      "anonymous": false,
      "inputs": [
        {
          "indexed": false,
          "internalType": "uint256",
          "name": "min_fee",
          "type": "uint256"
        }
      ],
      "name": "MintingFeeSet",
      "type": "event"
    },
    {
      "anonymous": false,
      "inputs": [
        {
          "indexed": false,
          "internalType": "address",
          "name": "oldOwner",
          "type": "address"
        },
        {
          "indexed": false,
          "internalType": "address",
          "name": "newOwner",
          "type": "address"
        }
      ],
      "name": "OwnerChanged",
      "type": "event"
    },
    {
      "anonymous": false,
      "inputs": [
        {
          "indexed": false,
          "internalType": "address",
          "name": "newOwner",
          "type": "address"
        }
      ],
      "name": "OwnerNominated",
      "type": "event"
    },
    {
      "anonymous": false,
      "inputs": [
        {
          "indexed": false,
          "internalType": "address",
          "name": "pool_address",
          "type": "address"
        }
      ],
      "name": "PoolAdded",
      "type": "event"
    },
    {
      "anonymous": false,
      "inputs": [
        {
          "indexed": false,
          "internalType": "address",
          "name": "pool_address",
          "type": "address"
        }
      ],
      "name": "PoolRemoved",
      "type": "event"
    },
    {
      "anonymous": false,
      "inputs": [
        {
          "indexed": false,
          "internalType": "uint256",
          "name": "price_band",
          "type": "uint256"
        }
      ],
      "name": "PriceBandSet",
      "type": "event"
    },
    {
      "anonymous": false,
      "inputs": [
        {
          "indexed": false,
          "internalType": "uint256",
          "name": "new_price_target",
          "type": "uint256"
        }
      ],
      "name": "PriceTargetSet",
      "type": "event"
    },
    {
      "anonymous": false,
      "inputs": [
        {
          "indexed": false,
          "internalType": "uint256",
          "name": "red_fee",
          "type": "uint256"
        }
      ],
      "name": "RedemptionFeeSet",
      "type": "event"
    },
    {
      "anonymous": false,
      "inputs": [
        {
          "indexed": false,
          "internalType": "uint256",
          "name": "new_cooldown",
          "type": "uint256"
        }
      ],
      "name": "RefreshCooldownSet",
      "type": "event"
    },
    {
      "anonymous": false,
      "inputs": [
        {
          "indexed": true,
          "internalType": "address",
          "name": "from",
          "type": "address"
        },
        {
          "indexed": true,
          "internalType": "address",
          "name": "to",
          "type": "address"
        },
        {
          "indexed": false,
          "internalType": "uint256",
          "name": "value",
          "type": "uint256"
        }
      ],
      "name": "Transfer",
      "type": "event"
    },
    {
      "anonymous": false,
      "inputs": [
        {
          "indexed": false,
          "internalType": "address",
          "name": "_WMF_address",
          "type": "address"
        }
      ],
      "name": "WMFAddressSet",
      "type": "event"
    },
    {
      "anonymous": false,
      "inputs": [
        {
          "indexed": false,
          "internalType": "address",
          "name": "WMF_oracle_addr",
          "type": "address"
        },
        {
          "indexed": false,
          "internalType": "address",
          "name": "weth_address",
          "type": "address"
        }
      ],
      "name": "WMFEthOracleSet",
      "type": "event"
    },
    {
      "anonymous": false,
      "inputs": [
        {
          "indexed": true,
          "internalType": "address",
          "name": "from",
          "type": "address"
        },
        {
          "indexed": true,
          "internalType": "address",
          "name": "to",
          "type": "address"
        },
        {
          "indexed": false,
          "internalType": "uint256",
          "name": "amount",
          "type": "uint256"
        }
      ],
      "name": "WUSDBurned",
      "type": "event"
    },
    {
      "anonymous": false,
      "inputs": [
        {
          "indexed": false,
          "internalType": "address",
          "name": "WUSD_oracle_addr",
          "type": "address"
        },
        {
          "indexed": false,
          "internalType": "address",
          "name": "weth_address",
          "type": "address"
        }
      ],
      "name": "WUSDETHOracleSet",
      "type": "event"
    },
    {
      "anonymous": false,
      "inputs": [
        {
          "indexed": true,
          "internalType": "address",
          "name": "from",
          "type": "address"
        },
        {
          "indexed": true,
          "internalType": "address",
          "name": "to",
          "type": "address"
        },
        {
          "indexed": false,
          "internalType": "uint256",
          "name": "amount",
          "type": "uint256"
        }
      ],
      "name": "WUSDMinted",
      "type": "event"
    },
    {
      "anonymous": false,
      "inputs": [
        {
          "indexed": false,
          "internalType": "uint256",
          "name": "new_step",
          "type": "uint256"
        }
      ],
      "name": "WUSDStepSet",
      "type": "event"
    },
    {
      "inputs": [],
      "name": "DEFAULT_ADMIN_ADDRESS",
      "outputs": [
        {
          "internalType": "address",
          "name": "",
          "type": "address"
        }
      ],
      "stateMutability": "view",
      "type": "function"
    },
    {
      "inputs": [],
      "name": "WMF_address",
      "outputs": [
        {
          "internalType": "address",
          "name": "",
          "type": "address"
        }
      ],
      "stateMutability": "view",
      "type": "function"
    },
    {
      "inputs": [],
      "name": "WMF_eth_oracle_address",
      "outputs": [
        {
          "internalType": "address",
          "name": "",
          "type": "address"
        }
      ],
      "stateMutability": "view",
      "type": "function"
    },
    {
      "inputs": [],
      "name": "WMF_price",
      "outputs": [
        {
          "internalType": "uint256",
          "name": "",
          "type": "uint256"
        }
      ],
      "stateMutability": "view",
      "type": "function"
    },
    {
      "inputs": [],
      "name": "WUSD_eth_oracle_address",
      "outputs": [
        {
          "internalType": "address",
          "name": "",
          "type": "address"
        }
      ],
      "stateMutability": "view",
      "type": "function"
    },
    {
      "inputs": [],
      "name": "WUSD_info",
      "outputs": [
        {
          "internalType": "uint256",
          "name": "",
          "type": "uint256"
        },
        {
          "internalType": "uint256",
          "name": "",
          "type": "uint256"
        },
        {
          "internalType": "uint256",
          "name": "",
          "type": "uint256"
        },
        {
          "internalType": "uint256",
          "name": "",
          "type": "uint256"
        },
        {
          "internalType": "uint256",
          "name": "",
          "type": "uint256"
        },
        {
          "internalType": "uint256",
          "name": "",
          "type": "uint256"
        },
        {
          "internalType": "uint256",
          "name": "",
          "type": "uint256"
        },
        {
          "internalType": "uint256",
          "name": "",
          "type": "uint256"
        }
      ],
      "stateMutability": "view",
      "type": "function"
    },
    {
      "inputs": [
        {
          "internalType": "address",
          "name": "",
          "type": "address"
        }
      ],
      "name": "WUSD_pools",
      "outputs": [
        {
          "internalType": "bool",
          "name": "",
          "type": "bool"
        }
      ],
      "stateMutability": "view",
      "type": "function"
    },
    {
      "inputs": [
        {
          "internalType": "uint256",
          "name": "",
          "type": "uint256"
        }
      ],
      "name": "WUSD_pools_array",
      "outputs": [
        {
          "internalType": "address",
          "name": "",
          "type": "address"
        }
      ],
      "stateMutability": "view",
      "type": "function"
    },
    {
      "inputs": [],
      "name": "WUSD_price",
      "outputs": [
        {
          "internalType": "uint256",
          "name": "",
          "type": "uint256"
        }
      ],
      "stateMutability": "view",
      "type": "function"
    },
    {
      "inputs": [],
      "name": "WUSD_step",
      "outputs": [
        {
          "internalType": "uint256",
          "name": "",
          "type": "uint256"
        }
      ],
      "stateMutability": "view",
      "type": "function"
    },
    {
      "inputs": [],
      "name": "acceptOwnership",
      "outputs": [],
      "stateMutability": "nonpayable",
      "type": "function"
    },
    {
      "inputs": [
        {
          "internalType": "address",
          "name": "pool_address",
          "type": "address"
        }
      ],
      "name": "addPool",
      "outputs": [],
      "stateMutability": "nonpayable",
      "type": "function"
    },
    {
      "inputs": [
        {
          "internalType": "address",
          "name": "owner",
          "type": "address"
        },
        {
          "internalType": "address",
          "name": "spender",
          "type": "address"
        }
      ],
      "name": "allowance",
      "outputs": [
        {
          "internalType": "uint256",
          "name": "",
          "type": "uint256"
        }
      ],
      "stateMutability": "view",
      "type": "function"
    },
    {
      "inputs": [
        {
          "internalType": "address",
          "name": "spender",
          "type": "address"
        },
        {
          "internalType": "uint256",
          "name": "amount",
          "type": "uint256"
        }
      ],
      "name": "approve",
      "outputs": [
        {
          "internalType": "bool",
          "name": "",
          "type": "bool"
        }
      ],
      "stateMutability": "nonpayable",
      "type": "function"
    },
    {
      "inputs": [
        {
          "internalType": "address",
          "name": "account",
          "type": "address"
        }
      ],
      "name": "balanceOf",
      "outputs": [
        {
          "internalType": "uint256",
          "name": "",
          "type": "uint256"
        }
      ],
      "stateMutability": "view",
      "type": "function"
    },
    {
      "inputs": [
        {
          "internalType": "uint256",
          "name": "amount",
          "type": "uint256"
        }
      ],
      "name": "burn",
      "outputs": [],
      "stateMutability": "nonpayable",
      "type": "function"
    },
    {
      "inputs": [
        {
          "internalType": "address",
          "name": "account",
          "type": "address"
        },
        {
          "internalType": "uint256",
          "name": "amount",
          "type": "uint256"
        }
      ],
      "name": "burnFrom",
      "outputs": [],
      "stateMutability": "nonpayable",
      "type": "function"
    },
    {
      "inputs": [],
      "name": "collateral_ratio_paused",
      "outputs": [
        {
          "internalType": "bool",
          "name": "",
          "type": "bool"
        }
      ],
      "stateMutability": "view",
      "type": "function"
    },
    {
      "inputs": [],
      "name": "controller_address",
      "outputs": [
        {
          "internalType": "address",
          "name": "",
          "type": "address"
        }
      ],
      "stateMutability": "view",
      "type": "function"
    },
    {
      "inputs": [],
      "name": "creator_address",
      "outputs": [
        {
          "internalType": "address",
          "name": "",
          "type": "address"
        }
      ],
      "stateMutability": "view",
      "type": "function"
    },
    {
      "inputs": [],
      "name": "decimals",
      "outputs": [
        {
          "internalType": "uint8",
          "name": "",
          "type": "uint8"
        }
      ],
      "stateMutability": "view",
      "type": "function"
    },
    {
      "inputs": [
        {
          "internalType": "address",
          "name": "spender",
          "type": "address"
        },
        {
          "internalType": "uint256",
          "name": "subtractedValue",
          "type": "uint256"
        }
      ],
      "name": "decreaseAllowance",
      "outputs": [
        {
          "internalType": "bool",
          "name": "",
          "type": "bool"
        }
      ],
      "stateMutability": "nonpayable",
      "type": "function"
    },
    {
      "inputs": [],
      "name": "eth_usd_consumer_address",
      "outputs": [
        {
          "internalType": "address",
          "name": "",
          "type": "address"
        }
      ],
      "stateMutability": "view",
      "type": "function"
    },
    {
      "inputs": [],
      "name": "eth_usd_price",
      "outputs": [
        {
          "internalType": "uint256",
          "name": "",
          "type": "uint256"
        }
      ],
      "stateMutability": "view",
      "type": "function"
    },
    {
      "inputs": [],
      "name": "genesis_supply",
      "outputs": [
        {
          "internalType": "uint256",
          "name": "",
          "type": "uint256"
        }
      ],
      "stateMutability": "view",
      "type": "function"
    },
    {
      "inputs": [],
      "name": "globalCollateralValue",
      "outputs": [
        {
          "internalType": "uint256",
          "name": "",
          "type": "uint256"
        }
      ],
      "stateMutability": "view",
      "type": "function"
    },
    {
      "inputs": [],
      "name": "global_collateral_ratio",
      "outputs": [
        {
          "internalType": "uint256",
          "name": "",
          "type": "uint256"
        }
      ],
      "stateMutability": "view",
      "type": "function"
    },
    {
      "inputs": [
        {
          "internalType": "address",
          "name": "spender",
          "type": "address"
        },
        {
          "internalType": "uint256",
          "name": "addedValue",
          "type": "uint256"
        }
      ],
      "name": "increaseAllowance",
      "outputs": [
        {
          "internalType": "bool",
          "name": "",
          "type": "bool"
        }
      ],
      "stateMutability": "nonpayable",
      "type": "function"
    },
    {
      "inputs": [],
      "name": "last_call_time",
      "outputs": [
        {
          "internalType": "uint256",
          "name": "",
          "type": "uint256"
        }
      ],
      "stateMutability": "view",
      "type": "function"
    },
    {
      "inputs": [],
      "name": "minting_fee",
      "outputs": [
        {
          "internalType": "uint256",
          "name": "",
          "type": "uint256"
        }
      ],
      "stateMutability": "view",
      "type": "function"
    },
    {
      "inputs": [],
      "name": "name",
      "outputs": [
        {
          "internalType": "string",
          "name": "",
          "type": "string"
        }
      ],
      "stateMutability": "view",
      "type": "function"
    },
    {
      "inputs": [
        {
          "internalType": "address",
          "name": "_owner",
          "type": "address"
        }
      ],
      "name": "nominateNewOwner",
      "outputs": [],
      "stateMutability": "nonpayable",
      "type": "function"
    },
    {
      "inputs": [],
      "name": "nominatedOwner",
      "outputs": [
        {
          "internalType": "address",
          "name": "",
          "type": "address"
        }
      ],
      "stateMutability": "view",
      "type": "function"
    },
    {
      "inputs": [],
      "name": "owner",
      "outputs": [
        {
          "internalType": "address",
          "name": "",
          "type": "address"
        }
      ],
      "stateMutability": "view",
      "type": "function"
    },
    {
      "inputs": [
        {
          "internalType": "address",
          "name": "b_address",
          "type": "address"
        },
        {
          "internalType": "uint256",
          "name": "b_amount",
          "type": "uint256"
        }
      ],
      "name": "pool_burn_from",
      "outputs": [],
      "stateMutability": "nonpayable",
      "type": "function"
    },
    {
      "inputs": [
        {
          "internalType": "address",
          "name": "m_address",
          "type": "address"
        },
        {
          "internalType": "uint256",
          "name": "m_amount",
          "type": "uint256"
        }
      ],
      "name": "pool_mint",
      "outputs": [],
      "stateMutability": "nonpayable",
      "type": "function"
    },
    {
      "inputs": [],
      "name": "price_band",
      "outputs": [
        {
          "internalType": "uint256",
          "name": "",
          "type": "uint256"
        }
      ],
      "stateMutability": "view",
      "type": "function"
    },
    {
      "inputs": [],
      "name": "price_target",
      "outputs": [
        {
          "internalType": "uint256",
          "name": "",
          "type": "uint256"
        }
      ],
      "stateMutability": "view",
      "type": "function"
    },
    {
      "inputs": [],
      "name": "redemption_fee",
      "outputs": [
        {
          "internalType": "uint256",
          "name": "",
          "type": "uint256"
        }
      ],
      "stateMutability": "view",
      "type": "function"
    },
    {
      "inputs": [],
      "name": "refreshCollateralRatio",
      "outputs": [],
      "stateMutability": "nonpayable",
      "type": "function"
    },
    {
      "inputs": [],
      "name": "refresh_cooldown",
      "outputs": [
        {
          "internalType": "uint256",
          "name": "",
          "type": "uint256"
        }
      ],
      "stateMutability": "view",
      "type": "function"
    },
    {
      "inputs": [
        {
          "internalType": "address",
          "name": "pool_address",
          "type": "address"
        }
      ],
      "name": "removePool",
      "outputs": [],
      "stateMutability": "nonpayable",
      "type": "function"
    },
    {
      "inputs": [
        {
          "internalType": "address",
          "name": "_controller_address",
          "type": "address"
        }
      ],
      "name": "setController",
      "outputs": [],
      "stateMutability": "nonpayable",
      "type": "function"
    },
    {
      "inputs": [
        {
          "internalType": "address",
          "name": "_eth_usd_consumer_address",
          "type": "address"
        }
      ],
      "name": "setETHUSDOracle",
      "outputs": [],
      "stateMutability": "nonpayable",
      "type": "function"
    },
    {
      "inputs": [
        {
          "internalType": "uint256",
          "name": "min_fee",
          "type": "uint256"
        }
      ],
      "name": "setMintingFee",
      "outputs": [],
      "stateMutability": "nonpayable",
      "type": "function"
    },
    {
      "inputs": [
        {
          "internalType": "uint256",
          "name": "_price_band",
          "type": "uint256"
        }
      ],
      "name": "setPriceBand",
      "outputs": [],
      "stateMutability": "nonpayable",
      "type": "function"
    },
    {
      "inputs": [
        {
          "internalType": "uint256",
          "name": "_new_price_target",
          "type": "uint256"
        }
      ],
      "name": "setPriceTarget",
      "outputs": [],
      "stateMutability": "nonpayable",
      "type": "function"
    },
    {
      "inputs": [
        {
          "internalType": "uint256",
          "name": "red_fee",
          "type": "uint256"
        }
      ],
      "name": "setRedemptionFee",
      "outputs": [],
      "stateMutability": "nonpayable",
      "type": "function"
    },
    {
      "inputs": [
        {
          "internalType": "uint256",
          "name": "_new_cooldown",
          "type": "uint256"
        }
      ],
      "name": "setRefreshCooldown",
      "outputs": [],
      "stateMutability": "nonpayable",
      "type": "function"
    },
    {
      "inputs": [
        {
          "internalType": "address",
          "name": "_WMF_address",
          "type": "address"
        }
      ],
      "name": "setWMFAddress",
      "outputs": [],
      "stateMutability": "nonpayable",
      "type": "function"
    },
    {
      "inputs": [
        {
          "internalType": "address",
          "name": "_WMF_oracle_addr",
          "type": "address"
        },
        {
          "internalType": "address",
          "name": "_weth_address",
          "type": "address"
        }
      ],
      "name": "setWMFEthOracle",
      "outputs": [],
      "stateMutability": "nonpayable",
      "type": "function"
    },
    {
      "inputs": [
        {
          "internalType": "address",
          "name": "_WUSD_oracle_addr",
          "type": "address"
        },
        {
          "internalType": "address",
          "name": "_weth_address",
          "type": "address"
        }
      ],
      "name": "setWUSDEthOracle",
      "outputs": [],
      "stateMutability": "nonpayable",
      "type": "function"
    },
    {
      "inputs": [
        {
          "internalType": "uint256",
          "name": "_new_step",
          "type": "uint256"
        }
      ],
      "name": "setWUSDStep",
      "outputs": [],
      "stateMutability": "nonpayable",
      "type": "function"
    },
    {
      "inputs": [],
      "name": "symbol",
      "outputs": [
        {
          "internalType": "string",
          "name": "",
          "type": "string"
        }
      ],
      "stateMutability": "view",
      "type": "function"
    },
    {
      "inputs": [],
      "name": "toggleCollateralRatio",
      "outputs": [],
      "stateMutability": "nonpayable",
      "type": "function"
    },
    {
      "inputs": [],
      "name": "totalSupply",
      "outputs": [
        {
          "internalType": "uint256",
          "name": "",
          "type": "uint256"
        }
      ],
      "stateMutability": "view",
      "type": "function"
    },
    {
      "inputs": [
        {
          "internalType": "address",
          "name": "recipient",
          "type": "address"
        },
        {
          "internalType": "uint256",
          "name": "amount",
          "type": "uint256"
        }
      ],
      "name": "transfer",
      "outputs": [
        {
          "internalType": "bool",
          "name": "",
          "type": "bool"
        }
      ],
      "stateMutability": "nonpayable",
      "type": "function"
    },
    {
      "inputs": [
        {
          "internalType": "address",
          "name": "sender",
          "type": "address"
        },
        {
          "internalType": "address",
          "name": "recipient",
          "type": "address"
        },
        {
          "internalType": "uint256",
          "name": "amount",
          "type": "uint256"
        }
      ],
      "name": "transferFrom",
      "outputs": [
        {
          "internalType": "bool",
          "name": "",
          "type": "bool"
        }
      ],
      "stateMutability": "nonpayable",
      "type": "function"
    },
    {
      "inputs": [],
      "name": "weth_address",
      "outputs": [
        {
          "internalType": "address",
          "name": "",
          "type": "address"
        }
      ],
      "stateMutability": "view",
      "type": "function"
    }
  ],
  "bytecode": "0x6080604052601a805460ff60a01b191690553480156200001e57600080fd5b50604051620033ad380380620033ad833981810160405260608110156200004457600080fd5b81019080805160405193929190846401000000008211156200006557600080fd5b9083019060208201858111156200007b57600080fd5b82516401000000008111828201881017156200009657600080fd5b82525081516020918201929091019080838360005b83811015620000c5578181015183820152602001620000ab565b50505050905090810190601f168015620000f35780820380516001836020036101000a031916815260200191505b50604052602001805160405193929190846401000000008211156200011757600080fd5b9083019060208201858111156200012d57600080fd5b82516401000000008111828201881017156200014857600080fd5b82525081516020918201929091019080838360005b83811015620001775781810151838201526020016200015d565b50505050905090810190601f168015620001a55780820380516001836020036101000a031916815260200191505b506040526020015191508190506001600160a01b0381166200022857604080517f08c379a000000000000000000000000000000000000000000000000000000000815260206004820152601960248201527f4f776e657220616464726573732063616e6e6f74206265203000000000000000604482015290519081900360640190fd5b600380546001600160a01b0319166001600160a01b0383169081179091556040805160008152602081019290925280517fb532073b38c83145e3e5135377a08bf9aab55bc0fd7c1179cd4fb995d2a5159c9281900390910190a150825162000298906009906020860190620004e0565b508151620002ae906008906020850190620004e0565b50600a80546001600160a01b0319166001600160a01b038316179055620002d462000332565b601a80546001600160a01b0319166001600160a01b03928316179055600a546200030b91166a01a784379d99db4200000062000336565b50506109c460165550620f42406013819055610e106017556018556113886019556200058c565b3390565b6001600160a01b038216620003ac57604080517f08c379a000000000000000000000000000000000000000000000000000000000815260206004820152601f60248201527f45524332303a206d696e7420746f20746865207a65726f206164647265737300604482015290519081900360640190fd5b620003ba600083836200045f565b620003d6816002546200046460201b620022a91790919060201c565b6002556001600160a01b0382166000908152602081815260409091205462000409918390620022a962000464821b17901c565b6001600160a01b0383166000818152602081815260408083209490945583518581529351929391927fddf252ad1be2c89b69c2b068fc378daa952ba7f163c4a11628f55a4df523b3ef9281900390910190a35050565b505050565b600082820183811015620004d957604080517f08c379a000000000000000000000000000000000000000000000000000000000815260206004820152601b60248201527f536166654d6174683a206164646974696f6e206f766572666c6f770000000000604482015290519081900360640190fd5b9392505050565b828054600181600116156101000203166002900490600052602060002090601f01602090048101928262000518576000855562000563565b82601f106200053357805160ff191683800117855562000563565b8280016001018555821562000563579182015b828111156200056357825182559160200191906001019062000546565b506200057192915062000575565b5090565b5b8082111562000571576000815560010162000576565b612e11806200059c6000396000f3fe608060405234801561001057600080fd5b50600436106103995760003560e01c806367feda3e116101e9578063a8a778ae1161010f578063c3355b8d116100ad578063dd62ed3e1161007c578063dd62ed3e1461095f578063e0c781431461098d578063e4808af3146109aa578063ed88564c146109b257610399565b8063c3355b8d14610921578063cb73999f14610929578063d2d97b0614610931578063d914cd4b1461093957610399565b8063b0fc69ce116100e9578063b0fc69ce146108dd578063b4f56b26146108e5578063bef40ec814610911578063c03f7be31461091957610399565b8063a8a778ae1461083c578063a9059cbb14610868578063af47e24b1461089457610399565b806387a140c31161018757806395d89b411161015657806395d89b41146107da578063a198f397146107e2578063a457c2d714610808578063a6dbd6481461083457610399565b806387a140c3146107765780638da5cb5b1461077e5780639053111f1461078657806392eefe9b146107b457610399565b806379ba5097116101c357806379ba50971461070857806379cc6790146107105780637b38c6601461073c5780637dbc1df01461075957610399565b806367feda3e146106b457806370a08231146106bc578063741d3c18146106e257610399565b806335467d5d116102ce57806342966c681161026c578063590ff1df1161023b578063590ff1df1461063b5780635b578d97146106615780636140133b1461066957806367d69d881461068657610399565b806342966c68146106065780634bd0be231461062357806351e238e31461062b57806353a47bb71461063357610399565b80633b7d0946116102a85780633b7d0946146105b35780633cad0528146105d95780634013124a146105e1578063408ab10f146105e957610399565b806335467d5d1461057757806338681ac91461057f578063395093511461058757610399565b806323b872dd1161033b5780632cb4f63e116103155780632cb4f63e146105415780632eb9771b14610549578063313ce56714610551578063345ba24b1461056f57610399565b806323b872dd146104df578063246126bd146105155780632853fb101461053957610399565b806318160ddd1161037757806318160ddd146104835780631c5df1e51461049d5780632258750a146104ba578063238a4709146104c257610399565b806306fdde031461039e578063095ea7b31461041b5780631627540c1461045b575b600080fd5b6103a66109ba565b6040805160208082528351818301528351919283929083019185019080838360005b838110156103e05781810151838201526020016103c8565b50505050905090810190601f16801561040d5780820380516001836020036101000a031916815260200191505b509250505060405180910390f35b6104476004803603604081101561043157600080fd5b506001600160a01b038135169060200135610a48565b604080519115158252519081900360200190f35b6104816004803603602081101561047157600080fd5b50356001600160a01b0316610a66565b005b61048b610b03565b60408051918252519081900360200190f35b610481600480360360208110156104b357600080fd5b5035610b09565b61048b610ba6565b610481600480360360208110156104d857600080fd5b5035610bac565b610447600480360360608110156104f557600080fd5b506001600160a01b03813581169160208101359091169060400135610c49565b61051d610cd0565b604080516001600160a01b039092168252519081900360200190f35b61048b610cdf565b61048b610ce5565b61048b610ceb565b610559610cf1565b6040805160ff9092168252519081900360200190f35b61048b610cf6565b61051d610d96565b61051d610da5565b6104476004803603604081101561059d57600080fd5b506001600160a01b038135169060200135610db4565b610481600480360360208110156105c957600080fd5b50356001600160a01b0316610e02565b61051d611010565b61048161101f565b610481600480360360208110156105ff57600080fd5b5035611144565b6104816004803603602081101561061c57600080fd5b50356111e1565b61051d6111f5565b61048b611204565b61051d611213565b6104476004803603602081101561065157600080fd5b50356001600160a01b0316611222565b61051d611237565b6104816004803603602081101561067f57600080fd5b5035611246565b6104816004803603604081101561069c57600080fd5b506001600160a01b03813581169160200135166112e3565b61051d611427565b61048b600480360360208110156106d257600080fd5b50356001600160a01b0316611436565b610481600480360360208110156106f857600080fd5b50356001600160a01b0316611451565b610481611614565b6104816004803603604081101561072657600080fd5b506001600160a01b0381351690602001356116d0565b6104816004803603602081101561075257600080fd5b503561172a565b6104816004803603602081101561076f57600080fd5b50356117c7565b610447611864565b61051d611874565b6104816004803603604081101561079c57600080fd5b506001600160a01b0381358116916020013516611883565b610481600480360360208110156107ca57600080fd5b50356001600160a01b03166119c7565b6103a6611ad0565b610481600480360360208110156107f857600080fd5b50356001600160a01b0316611b2b565b6104476004803603604081101561081e57600080fd5b506001600160a01b038135169060200135611c34565b61048b611c9c565b6104816004803603604081101561085257600080fd5b506001600160a01b038135169060200135611ca2565b6104476004803603604081101561087e57600080fd5b506001600160a01b038135169060200135611d43565b61089c611d57565b604080519889526020890197909752878701959095526060870193909352608086019190915260a085015260c084015260e083015251908190036101000190f35b61051d611e05565b610481600480360360408110156108fb57600080fd5b506001600160a01b038135169060200135611e14565b610481611eb5565b61048b611f73565b61048b611f79565b61048b611f7f565b61048b611f85565b6104816004803603602081101561094f57600080fd5b50356001600160a01b031661207c565b61048b6004803603604081101561097557600080fd5b506001600160a01b038135811691602001351661223c565b61051d600480360360208110156109a357600080fd5b5035612267565b61048b612291565b61048b61229d565b6009805460408051602060026001851615610100026000190190941693909304601f81018490048402820184019092528181529291830182828015610a405780601f10610a1557610100808354040283529160200191610a40565b820191906000526020600020905b815481529060010190602001808311610a2357829003601f168201915b505050505081565b6000610a5c610a5561230a565b848461230e565b5060015b92915050565b6003546001600160a01b03163314610aaf5760405162461bcd60e51b815260040180806020018281038252602f815260200180612c40602f913960400191505060405180910390fd5b600480546001600160a01b0383166001600160a01b0319909116811790915560408051918252517f906a1c6bd7e3091ea86693dd029a831c19049ce77f1dce2ce0bab1cacbabce229181900360200190a150565b60025490565b6003546001600160a01b0316331480610b2c5750600b546001600160a01b031633145b610b6b576040805162461bcd60e51b81526020600482015260196024820152600080516020612c20833981519152604482015290519081900360640190fd5b60178190556040805182815290517fc7443059c2ed485e2c9efe4e766bef9432a6f0ed6695741ab4afdffab3b921579181900360200190a150565b601b5481565b6003546001600160a01b0316331480610bcf5750600b546001600160a01b031633145b610c0e576040805162461bcd60e51b81526020600482015260196024820152600080516020612c20833981519152604482015290519081900360640190fd5b60158190556040805182815290517f07aefbcc0d8cdf34e241279c78d93d1df9540b5a60d320437958df12ef59e4639181900360200190a150565b6000610c568484846123fa565b610cc684610c6261230a565b610cc185604051806060016040528060288152602001612c90602891396001600160a01b038a16600090815260016020526040812090610ca061230a565b6001600160a01b031681526020810191909152604001600020549190612555565b61230e565b5060019392505050565b600f546001600160a01b031681565b60195481565b60185481565b60135481565b601281565b60055460408051638e15f47360e01b81529051600092610d919260ff600160a01b830416600a0a92610d8b92620f4240926001600160a01b0390911691638e15f47391600480820192602092909190829003018186803b158015610d5957600080fd5b505afa158015610d6d573d6000803e3d6000fd5b505050506040513d6020811015610d8357600080fd5b5051906125ec565b90612645565b905090565b601a546001600160a01b031681565b600c546001600160a01b031681565b6000610a5c610dc161230a565b84610cc18560016000610dd261230a565b6001600160a01b03908116825260208083019390935260409182016000908120918c1681529252902054906122a9565b6003546001600160a01b0316331480610e255750600b546001600160a01b031633145b610e64576040805162461bcd60e51b81526020600482015260196024820152600080516020612c20833981519152604482015290519081900360640190fd5b6001600160a01b038116610eb7576040805162461bcd60e51b815260206004820152601560248201527416995c9bc81859191c995cdcc819195d1958dd1959605a1b604482015290519081900360640190fd5b6001600160a01b03811660009081526012602052604090205460ff161515600114610f29576040805162461bcd60e51b815260206004820152601360248201527f41646472657373206e6f6e6578697374616e7400000000000000000000000000604482015290519081900360640190fd5b6001600160a01b0381166000908152601260205260408120805460ff191690555b601154811015610fd057816001600160a01b031660118281548110610f6b57fe5b6000918252602090912001546001600160a01b03161415610fc857600060118281548110610f9557fe5b9060005260206000200160006101000a8154816001600160a01b0302191690836001600160a01b03160217905550610fd0565b600101610f4a565b50604080516001600160a01b038316815290517f4106dfdaa577573db51c0ca93f766dbedfa0758faa2e7f5bcdb7c142be803c3f9181900360200190a150565b600e546001600160a01b031681565b6000611029612291565b9050601754601b54420310156110705760405162461bcd60e51b8152600401808060200182810382526035815260200180612d826035913960400191505060405180910390fd5b60195460185461107f916122a9565b8111156110b3576016546013541161109b5760006013556110ae565b6016546013546110aa91612687565b6013555b611108565b6019546018546110c291612687565b81101561110857620f42406110e46016546013546122a990919063ffffffff16565b106110f557620f4240601355611108565b601654601354611104916122a9565b6013555b42601b5560135460408051918252517fb1200af9b3ac4dec88c9d01e1fb7cc7fa1f0fe55bf4afac1f30cc4fc2b2d1dd29181900360200190a150565b6003546001600160a01b03163314806111675750600b546001600160a01b031633145b6111a6576040805162461bcd60e51b81526020600482015260196024820152600080516020612c20833981519152604482015290519081900360640190fd5b60188190556040805182815290517f898a2c9df7982133daaa8cfd78b8c49c520cba03205eec6480552c19059f6e3a9181900360200190a150565b6111f26111ec61230a565b826126c9565b50565b600a546001600160a01b031681565b6a01a784379d99db4200000081565b6004546001600160a01b031681565b60126020526000908152604090205460ff1681565b600d546001600160a01b031681565b6003546001600160a01b03163314806112695750600b546001600160a01b031633145b6112a8576040805162461bcd60e51b81526020600482015260196024820152600080516020612c20833981519152604482015290519081900360640190fd5b60198190556040805182815290517fe9febe6aec89ff2870eeab6d13333c59cbed275b1d9a95f527c853d99ddb7cf49181900360200190a150565b6003546001600160a01b03163314806113065750600b546001600160a01b031633145b611345576040805162461bcd60e51b81526020600482015260196024820152600080516020612c20833981519152604482015290519081900360640190fd5b6001600160a01b0382161580159061136557506001600160a01b03811615155b6113ae576040805162461bcd60e51b815260206004820152601560248201527416995c9bc81859191c995cdcc819195d1958dd1959605a1b604482015290519081900360640190fd5b600d80546001600160a01b038085166001600160a01b0319928316811790935560068054831684179055600f805491851691909216811790915560408051928352602083019190915280517fc47650162f8ed4b9d23dc7b8b7cbc195bb967f7192851dbdc916a7c13620bd289281900390910190a15050565b600b546001600160a01b031681565b6001600160a01b031660009081526020819052604090205490565b6003546001600160a01b03163314806114745750600b546001600160a01b031633145b6114b3576040805162461bcd60e51b81526020600482015260196024820152600080516020612c20833981519152604482015290519081900360640190fd5b6001600160a01b038116611506576040805162461bcd60e51b815260206004820152601560248201527416995c9bc81859191c995cdcc819195d1958dd1959605a1b604482015290519081900360640190fd5b601080546001600160a01b038084166001600160a01b03199283161792839055600580549092169281169290921790819055604080517ff0141d840000000000000000000000000000000000000000000000000000000081529051919092169163f0141d84916004808301926020929190829003018186803b15801561158b57600080fd5b505afa15801561159f573d6000803e3d6000fd5b505050506040513d60208110156115b557600080fd5b50516005805460ff909216600160a01b0260ff60a01b19909216919091179055604080516001600160a01b038316815290517f4e76cd2b10c38c98ffe935e9b3e851cf6d1078a0a6f487a0636af025eded51589181900360200190a150565b6004546001600160a01b0316331461165d5760405162461bcd60e51b8152600401808060200182810382526035815260200180612b5b6035913960400191505060405180910390fd5b600354600454604080516001600160a01b03938416815292909116602083015280517fb532073b38c83145e3e5135377a08bf9aab55bc0fd7c1179cd4fb995d2a5159c9281900390910190a160048054600380546001600160a01b03199081166001600160a01b03841617909155169055565b600061170782604051806060016040528060248152602001612cb860249139611700866116fb61230a565b61223c565b9190612555565b905061171b8361171561230a565b8361230e565b61172583836126c9565b505050565b6003546001600160a01b031633148061174d5750600b546001600160a01b031633145b61178c576040805162461bcd60e51b81526020600482015260196024820152600080516020612c20833981519152604482015290519081900360640190fd5b60168190556040805182815290517ffb4c2c213bf41ea46fd63a2322c8549229187b7a8facd4fa3d85fca5f86607939181900360200190a150565b6003546001600160a01b03163314806117ea5750600b546001600160a01b031633145b611829576040805162461bcd60e51b81526020600482015260196024820152600080516020612c20833981519152604482015290519081900360640190fd5b60148190556040805182815290517f91cc643d187eb250905520d3dae0b1017edd16961d27ab9a4a61fea5e38f717d9181900360200190a150565b601a54600160a01b900460ff1681565b6003546001600160a01b031681565b6003546001600160a01b03163314806118a65750600b546001600160a01b031633145b6118e5576040805162461bcd60e51b81526020600482015260196024820152600080516020612c20833981519152604482015290519081900360640190fd5b6001600160a01b0382161580159061190557506001600160a01b03811615155b61194e576040805162461bcd60e51b815260206004820152601560248201527416995c9bc81859191c995cdcc819195d1958dd1959605a1b604482015290519081900360640190fd5b600e80546001600160a01b038085166001600160a01b0319928316811790935560078054831684179055600f805491851691909216811790915560408051928352602083019190915280517faad0f7c23e9a8a082619b13eb5eaad0d25d199e377053c1154c3e793825b984d9281900390910190a15050565b6003546001600160a01b03163314806119ea5750600b546001600160a01b031633145b611a29576040805162461bcd60e51b81526020600482015260196024820152600080516020612c20833981519152604482015290519081900360640190fd5b6001600160a01b038116611a7c576040805162461bcd60e51b815260206004820152601560248201527416995c9bc81859191c995cdcc819195d1958dd1959605a1b604482015290519081900360640190fd5b600b80546001600160a01b0383166001600160a01b0319909116811790915560408051918252517f79f74fd5964b6943d8a1865abfb7f668c92fa3f32c0a2e3195da7d0946703ad79181900360200190a150565b6008805460408051602060026001851615610100026000190190941693909304601f81018490048402820184019092528181529291830182828015610a405780601f10610a1557610100808354040283529160200191610a40565b6003546001600160a01b0316331480611b4e5750600b546001600160a01b031633145b611b8d576040805162461bcd60e51b81526020600482015260196024820152600080516020612c20833981519152604482015290519081900360640190fd5b6001600160a01b038116611be0576040805162461bcd60e51b815260206004820152601560248201527416995c9bc81859191c995cdcc819195d1958dd1959605a1b604482015290519081900360640190fd5b600c80546001600160a01b0383166001600160a01b0319909116811790915560408051918252517f586c73624ba38ea0abbb474342809764e472e18f02a3792d5913bacd46c1edff9181900360200190a150565b6000610a5c611c4161230a565b84610cc185604051806060016040528060258152602001612db76025913960016000611c6b61230a565b6001600160a01b03908116825260208083019390935260409182016000908120918d16815292529020549190612555565b60165481565b3360009081526012602052604090205460ff161515600114611cf55760405162461bcd60e51b8152600401808060200182810382526026815260200180612bfa6026913960400191505060405180910390fd5b611cff82826127c5565b60408051828152905133916001600160a01b038516917ff486f476364fe774f32599b16785fa3be13b70365927d67eaa3f07f8ac2071889181900360200190a35050565b6000610a5c611d5061230a565b84846123fa565b600080600080600080600080611d6d600061281d565b611d77600161281d565b611d7f610b03565b601354611d8a611f85565b60155460145460055460408051638e15f47360e01b81529051611ded9260ff600160a01b820416600a0a92610d8b92620f4240926001600160a01b031691638e15f473916004808301926020929190829003018186803b158015610d5957600080fd5b969f959e50939c50919a509850965094509092509050565b6010546001600160a01b031681565b3360009081526012602052604090205460ff161515600114611e675760405162461bcd60e51b8152600401808060200182810382526026815260200180612bfa6026913960400191505060405180910390fd5b611e7182826129e2565b6040805182815290516001600160a01b0384169133917f1a471309306d71ae742215725a6ab5c62c19f720298f0f834b973627d738ab239181900360200190a35050565b6003546001600160a01b03163314611f14576040805162461bcd60e51b815260206004820152600d60248201527f4e6f7420746865206f776e657200000000000000000000000000000000000000604482015290519081900360640190fd5b601a805460ff600160a01b808304821615810260ff60a01b1990931692909217928390556040805192909304161515815290517f209068f7bed5a02fb7695c3e3b61bb8324d1facb25523c6422bfd2105ec44d929181900360200190a1565b60175481565b60155481565b60145481565b600080805b6011548110156120765760006001600160a01b031660118281548110611fac57fe5b6000918252602090912001546001600160a01b03161461206e5761206b60118281548110611fd657fe5b60009182526020918290200154604080517f17284c9400000000000000000000000000000000000000000000000000000000815290516001600160a01b03909216926317284c9492600480840193829003018186803b15801561203857600080fd5b505afa15801561204c573d6000803e3d6000fd5b505050506040513d602081101561206257600080fd5b505183906122a9565b91505b600101611f8a565b50905090565b6003546001600160a01b031633148061209f5750600b546001600160a01b031633145b6120de576040805162461bcd60e51b81526020600482015260196024820152600080516020612c20833981519152604482015290519081900360640190fd5b6001600160a01b038116612131576040805162461bcd60e51b815260206004820152601560248201527416995c9bc81859191c995cdcc819195d1958dd1959605a1b604482015290519081900360640190fd5b6001600160a01b03811660009081526012602052604090205460ff161561219f576040805162461bcd60e51b815260206004820152601660248201527f4164647265737320616c72656164792065786973747300000000000000000000604482015290519081900360640190fd5b6001600160a01b0381166000818152601260209081526040808320805460ff191660019081179091556011805491820181559093527f31ecc21a745e3968a04e9570e4425bc18fa8019c68028196b546d1669c200c6890920180546001600160a01b03191684179055815192835290517f73cca62ab1b520c9715bf4e6c71e3e518c754e7148f65102f43289a7df0efea69281900390910190a150565b6001600160a01b03918216600090815260016020908152604080832093909416825291909152205490565b6011818154811061227757600080fd5b6000918252602090912001546001600160a01b0316905081565b6000610d91600061281d565b6000610d91600161281d565b600082820183811015612303576040805162461bcd60e51b815260206004820152601b60248201527f536166654d6174683a206164646974696f6e206f766572666c6f770000000000604482015290519081900360640190fd5b9392505050565b3390565b6001600160a01b0383166123535760405162461bcd60e51b8152600401808060200182810382526024815260200180612d5e6024913960400191505060405180910390fd5b6001600160a01b0382166123985760405162461bcd60e51b8152600401808060200182810382526022815260200180612bb26022913960400191505060405180910390fd5b6001600160a01b03808416600081815260016020908152604080832094871680845294825291829020859055815185815291517f8c5be1e5ebec7d5bd14f71427d1e84f3dd0314c0f7b2291e5b200ac8c7c3b9259281900390910190a3505050565b6001600160a01b03831661243f5760405162461bcd60e51b8152600401808060200182810382526025815260200180612d396025913960400191505060405180910390fd5b6001600160a01b0382166124845760405162461bcd60e51b8152600401808060200182810382526023815260200180612b386023913960400191505060405180910390fd5b61248f838383611725565b6124cc81604051806060016040528060268152602001612bd4602691396001600160a01b0386166000908152602081905260409020549190612555565b6001600160a01b0380851660009081526020819052604080822093909355908416815220546124fb90826122a9565b6001600160a01b038084166000818152602081815260409182902094909455805185815290519193928716927fddf252ad1be2c89b69c2b068fc378daa952ba7f163c4a11628f55a4df523b3ef92918290030190a3505050565b600081848411156125e45760405162461bcd60e51b81526004018080602001828103825283818151815260200191508051906020019080838360005b838110156125a9578181015183820152602001612591565b50505050905090810190601f1680156125d65780820380516001836020036101000a031916815260200191505b509250505060405180910390fd5b505050900390565b6000826125fb57506000610a60565b8282028284828161260857fe5b04146123035760405162461bcd60e51b8152600401808060200182810382526021815260200180612c6f6021913960400191505060405180910390fd5b600061230383836040518060400160405280601a81526020017f536166654d6174683a206469766973696f6e206279207a65726f000000000000815250612ad2565b600061230383836040518060400160405280601e81526020017f536166654d6174683a207375627472616374696f6e206f766572666c6f770000815250612555565b6001600160a01b03821661270e5760405162461bcd60e51b8152600401808060200182810382526021815260200180612d186021913960400191505060405180910390fd5b61271a82600083611725565b61275781604051806060016040528060228152602001612b90602291396001600160a01b0385166000908152602081905260409020549190612555565b6001600160a01b03831660009081526020819052604090205560025461277d9082612687565b6002556040805182815290516000916001600160a01b038516917fddf252ad1be2c89b69c2b068fc378daa952ba7f163c4a11628f55a4df523b3ef9181900360200190a35050565b6127cf82826126c9565b612819826127db61230a565b610cc184604051806060016040528060248152602001612cb8602491396001600160a01b038816600090815260016020526040812090610ca061230a565b5050565b60055460408051638e15f47360e01b8152905160009283926128829260ff600160a01b840416600a0a92610d8b92620f4240926001600160a01b0390921691638e15f47391600480820192602092909190829003018186803b158015610d5957600080fd5b905060008084600181111561289357fe5b141561292557600654600f5460408051633ddac95360e01b81526001600160a01b039283166004820152620f4240602482015290519190921691633ddac953916044808301926020929190829003018186803b1580156128f257600080fd5b505afa158015612906573d6000803e3d6000fd5b505050506040513d602081101561291c57600080fd5b505190506129c9565b600184600181111561293357fe5b141561299257600754600f5460408051633ddac95360e01b81526001600160a01b039283166004820152620f4240602482015290519190921691633ddac953916044808301926020929190829003018186803b1580156128f257600080fd5b60405162461bcd60e51b815260040180806020018281038252603c815260200180612cdc603c913960400191505060405180910390fd5b6129da81610d8b84620f42406125ec565b949350505050565b6001600160a01b038216612a3d576040805162461bcd60e51b815260206004820152601f60248201527f45524332303a206d696e7420746f20746865207a65726f206164647265737300604482015290519081900360640190fd5b612a4960008383611725565b600254612a5690826122a9565b6002556001600160a01b038216600090815260208190526040902054612a7c90826122a9565b6001600160a01b0383166000818152602081815260408083209490945583518581529351929391927fddf252ad1be2c89b69c2b068fc378daa952ba7f163c4a11628f55a4df523b3ef9281900390910190a35050565b60008183612b215760405162461bcd60e51b81526020600482018181528351602484015283519092839260449091019190850190808383600083156125a9578181015183820152602001612591565b506000838581612b2d57fe5b049594505050505056fe45524332303a207472616e7366657220746f20746865207a65726f2061646472657373596f75206d757374206265206e6f6d696e61746564206265666f726520796f752063616e20616363657074206f776e65727368697045524332303a206275726e20616d6f756e7420657863656564732062616c616e636545524332303a20617070726f766520746f20746865207a65726f206164647265737345524332303a207472616e7366657220616d6f756e7420657863656564732062616c616e63654f6e6c79205755534420706f6f6c732063616e2063616c6c20746869732066756e6374696f6e4e6f7420746865206f776e65722c20636f6e74726f6c6c6572000000000000004f6e6c792074686520636f6e7472616374206f776e6572206d617920706572666f726d207468697320616374696f6e536166654d6174683a206d756c7469706c69636174696f6e206f766572666c6f7745524332303a207472616e7366657220616d6f756e74206578636565647320616c6c6f77616e636545524332303a206275726e20616d6f756e74206578636565647320616c6c6f77616e6365494e56414c49442050524943452043484f4943452e204e6565647320746f20626520656974686572203020285755534429206f7220312028574d462945524332303a206275726e2066726f6d20746865207a65726f206164647265737345524332303a207472616e736665722066726f6d20746865207a65726f206164647265737345524332303a20617070726f76652066726f6d20746865207a65726f20616464726573734d757374207761697420666f7220746865207265667265736820636f6f6c646f776e2073696e6365206c617374207265667265736845524332303a2064656372656173656420616c6c6f77616e63652062656c6f77207a65726fa2646970667358221220a043181f8494903773212768519a787b86a595590858eebe4a6bcb0c4626698664736f6c63430007050033",
  "linkReferences": {},
  "deployedLinkReferences": {}
}