{
  "_format": "hh-sol-artifact-1",
  "contractName": "CAMP",
  "sourceName": "contracts/bank/CAMP.sol",
  "abi": [
    {
      "inputs": [
        {
          "internalType": "string",
          "name": "_name",
          "type": "string"
        },
        {
          "internalType": "string",
          "name": "_symbol",
          "type": "string"
        },
        {
          "internalType": "address",
          "name": "_creator_address",
          "type": "address"
        }
      ],
      "stateMutability": "nonpayable",
      "type": "constructor"
    },
    {
      "anonymous": false,
      "inputs": [
        {
          "indexed": true,
          "internalType": "address",
          "name": "owner",
          "type": "address"
        },
        {
          "indexed": true,
          "internalType": "address",
          "name": "spender",
          "type": "address"
        },
        {
          "indexed": false,
          "internalType": "uint256",
          "name": "value",
          "type": "uint256"
        }
      ],
      "name": "Approval",
      "type": "event"
    },
    {
      "anonymous": false,
      "inputs": [
        {
          "indexed": true,
          "internalType": "address",
          "name": "from",
          "type": "address"
        },
        {
          "indexed": true,
          "internalType": "address",
          "name": "to",
          "type": "address"
        },
        {
          "indexed": false,
          "internalType": "uint256",
          "name": "amount",
          "type": "uint256"
        }
      ],
      "name": "BankBurned",
      "type": "event"
    },
    {
      "anonymous": false,
      "inputs": [
        {
          "indexed": true,
          "internalType": "address",
          "name": "from",
          "type": "address"
        },
        {
          "indexed": true,
          "internalType": "address",
          "name": "to",
          "type": "address"
        },
        {
          "indexed": false,
          "internalType": "uint256",
          "name": "amount",
          "type": "uint256"
        }
      ],
      "name": "BankMinted",
      "type": "event"
    },
    {
      "anonymous": false,
      "inputs": [
        {
          "indexed": false,
          "internalType": "address",
          "name": "oldOwner",
          "type": "address"
        },
        {
          "indexed": false,
          "internalType": "address",
          "name": "newOwner",
          "type": "address"
        }
      ],
      "name": "OwnerChanged",
      "type": "event"
    },
    {
      "anonymous": false,
      "inputs": [
        {
          "indexed": false,
          "internalType": "address",
          "name": "newOwner",
          "type": "address"
        }
      ],
      "name": "OwnerNominated",
      "type": "event"
    },
    {
      "anonymous": false,
      "inputs": [
        {
          "indexed": false,
          "internalType": "address",
          "name": "addr",
          "type": "address"
        }
      ],
      "name": "SCAMPAddressSet",
      "type": "event"
    },
    {
      "anonymous": false,
      "inputs": [
        {
          "indexed": true,
          "internalType": "address",
          "name": "from",
          "type": "address"
        },
        {
          "indexed": true,
          "internalType": "address",
          "name": "to",
          "type": "address"
        },
        {
          "indexed": false,
          "internalType": "uint256",
          "name": "value",
          "type": "uint256"
        }
      ],
      "name": "Transfer",
      "type": "event"
    },
    {
      "inputs": [
        {
          "internalType": "address",
          "name": "b_address",
          "type": "address"
        },
        {
          "internalType": "uint256",
          "name": "b_amount",
          "type": "uint256"
        }
      ],
      "name": "Bank_burn_from",
      "outputs": [],
      "stateMutability": "nonpayable",
      "type": "function"
    },
    {
      "inputs": [
        {
          "internalType": "address",
          "name": "m_address",
          "type": "address"
        },
        {
          "internalType": "uint256",
          "name": "m_amount",
          "type": "uint256"
        }
      ],
      "name": "Bank_mint",
      "outputs": [],
      "stateMutability": "nonpayable",
      "type": "function"
    },
    {
      "inputs": [],
      "name": "SCAMPAddress",
      "outputs": [
        {
          "internalType": "address",
          "name": "",
          "type": "address"
        }
      ],
      "stateMutability": "view",
      "type": "function"
    },
    {
      "inputs": [],
      "name": "acceptOwnership",
      "outputs": [],
      "stateMutability": "nonpayable",
      "type": "function"
    },
    {
      "inputs": [
        {
          "internalType": "address",
          "name": "owner",
          "type": "address"
        },
        {
          "internalType": "address",
          "name": "spender",
          "type": "address"
        }
      ],
      "name": "allowance",
      "outputs": [
        {
          "internalType": "uint256",
          "name": "",
          "type": "uint256"
        }
      ],
      "stateMutability": "view",
      "type": "function"
    },
    {
      "inputs": [
        {
          "internalType": "address",
          "name": "spender",
          "type": "address"
        },
        {
          "internalType": "uint256",
          "name": "amount",
          "type": "uint256"
        }
      ],
      "name": "approve",
      "outputs": [
        {
          "internalType": "bool",
          "name": "",
          "type": "bool"
        }
      ],
      "stateMutability": "nonpayable",
      "type": "function"
    },
    {
      "inputs": [
        {
          "internalType": "address",
          "name": "account",
          "type": "address"
        }
      ],
      "name": "balanceOf",
      "outputs": [
        {
          "internalType": "uint256",
          "name": "",
          "type": "uint256"
        }
      ],
      "stateMutability": "view",
      "type": "function"
    },
    {
      "inputs": [
        {
          "internalType": "uint256",
          "name": "amount",
          "type": "uint256"
        }
      ],
      "name": "burn",
      "outputs": [],
      "stateMutability": "nonpayable",
      "type": "function"
    },
    {
      "inputs": [
        {
          "internalType": "address",
          "name": "account",
          "type": "address"
        },
        {
          "internalType": "uint256",
          "name": "amount",
          "type": "uint256"
        }
      ],
      "name": "burnFrom",
      "outputs": [],
      "stateMutability": "nonpayable",
      "type": "function"
    },
    {
      "inputs": [],
      "name": "decimals",
      "outputs": [
        {
          "internalType": "uint8",
          "name": "",
          "type": "uint8"
        }
      ],
      "stateMutability": "view",
      "type": "function"
    },
    {
      "inputs": [
        {
          "internalType": "address",
          "name": "spender",
          "type": "address"
        },
        {
          "internalType": "uint256",
          "name": "subtractedValue",
          "type": "uint256"
        }
      ],
      "name": "decreaseAllowance",
      "outputs": [
        {
          "internalType": "bool",
          "name": "",
          "type": "bool"
        }
      ],
      "stateMutability": "nonpayable",
      "type": "function"
    },
    {
      "inputs": [],
      "name": "genesis_supply",
      "outputs": [
        {
          "internalType": "uint256",
          "name": "",
          "type": "uint256"
        }
      ],
      "stateMutability": "view",
      "type": "function"
    },
    {
      "inputs": [
        {
          "internalType": "address",
          "name": "spender",
          "type": "address"
        },
        {
          "internalType": "uint256",
          "name": "addedValue",
          "type": "uint256"
        }
      ],
      "name": "increaseAllowance",
      "outputs": [
        {
          "internalType": "bool",
          "name": "",
          "type": "bool"
        }
      ],
      "stateMutability": "nonpayable",
      "type": "function"
    },
    {
      "inputs": [],
      "name": "name",
      "outputs": [
        {
          "internalType": "string",
          "name": "",
          "type": "string"
        }
      ],
      "stateMutability": "view",
      "type": "function"
    },
    {
      "inputs": [
        {
          "internalType": "address",
          "name": "_owner",
          "type": "address"
        }
      ],
      "name": "nominateNewOwner",
      "outputs": [],
      "stateMutability": "nonpayable",
      "type": "function"
    },
    {
      "inputs": [],
      "name": "nominatedOwner",
      "outputs": [
        {
          "internalType": "address",
          "name": "",
          "type": "address"
        }
      ],
      "stateMutability": "view",
      "type": "function"
    },
    {
      "inputs": [],
      "name": "oracle_address",
      "outputs": [
        {
          "internalType": "address",
          "name": "",
          "type": "address"
        }
      ],
      "stateMutability": "view",
      "type": "function"
    },
    {
      "inputs": [],
      "name": "owner",
      "outputs": [
        {
          "internalType": "address",
          "name": "",
          "type": "address"
        }
      ],
      "stateMutability": "view",
      "type": "function"
    },
    {
      "inputs": [
        {
          "internalType": "address",
          "name": "new_oracle",
          "type": "address"
        }
      ],
      "name": "setOracle",
      "outputs": [],
      "stateMutability": "nonpayable",
      "type": "function"
    },
    {
      "inputs": [
        {
          "internalType": "address",
          "name": "SCAMP_contract_address",
          "type": "address"
        }
      ],
      "name": "setSCAMPAddress",
      "outputs": [],
      "stateMutability": "nonpayable",
      "type": "function"
    },
    {
      "inputs": [],
      "name": "symbol",
      "outputs": [
        {
          "internalType": "string",
          "name": "",
          "type": "string"
        }
      ],
      "stateMutability": "view",
      "type": "function"
    },
    {
      "inputs": [],
      "name": "totalSupply",
      "outputs": [
        {
          "internalType": "uint256",
          "name": "",
          "type": "uint256"
        }
      ],
      "stateMutability": "view",
      "type": "function"
    },
    {
      "inputs": [
        {
          "internalType": "address",
          "name": "recipient",
          "type": "address"
        },
        {
          "internalType": "uint256",
          "name": "amount",
          "type": "uint256"
        }
      ],
      "name": "transfer",
      "outputs": [
        {
          "internalType": "bool",
          "name": "",
          "type": "bool"
        }
      ],
      "stateMutability": "nonpayable",
      "type": "function"
    },
    {
      "inputs": [
        {
          "internalType": "address",
          "name": "sender",
          "type": "address"
        },
        {
          "internalType": "address",
          "name": "recipient",
          "type": "address"
        },
        {
          "internalType": "uint256",
          "name": "amount",
          "type": "uint256"
        }
      ],
      "name": "transferFrom",
      "outputs": [
        {
          "internalType": "bool",
          "name": "",
          "type": "bool"
        }
      ],
      "stateMutability": "nonpayable",
      "type": "function"
    }
  ],
  "bytecode": "0x60806040523480156200001157600080fd5b5060405162001b1c38038062001b1c833981810160405260608110156200003757600080fd5b81019080805160405193929190846401000000008211156200005857600080fd5b9083019060208201858111156200006e57600080fd5b82516401000000008111828201881017156200008957600080fd5b82525081516020918201929091019080838360005b83811015620000b85781810151838201526020016200009e565b50505050905090810190601f168015620000e65780820380516001836020036101000a031916815260200191505b50604052602001805160405193929190846401000000008211156200010a57600080fd5b9083019060208201858111156200012057600080fd5b82516401000000008111828201881017156200013b57600080fd5b82525081516020918201929091019080838360005b838110156200016a57818101518382015260200162000150565b50505050905090810190601f168015620001985780820380516001836020036101000a031916815260200191505b506040526020015191508190506001600160a01b0381166200021b57604080517f08c379a000000000000000000000000000000000000000000000000000000000815260206004820152601960248201527f4f776e657220616464726573732063616e6e6f74206265203000000000000000604482015290519081900360640190fd5b600380546001600160a01b0319166001600160a01b0383169081179091556040805160008152602081019290925280517fb532073b38c83145e3e5135377a08bf9aab55bc0fd7c1179cd4fb995d2a5159c9281900390910190a15082516200028b9060069060208601906200046c565b508151620002a19060059060208501906200046c565b50620002b9816a52b7d2dcc80cd2e4000000620002c2565b50505062000518565b6001600160a01b0382166200033857604080517f08c379a000000000000000000000000000000000000000000000000000000000815260206004820152601f60248201527f45524332303a206d696e7420746f20746865207a65726f206164647265737300604482015290519081900360640190fd5b6200034660008383620003eb565b6200036281600254620003f060201b62000e291790919060201c565b6002556001600160a01b038216600090815260208181526040909120546200039591839062000e29620003f0821b17901c565b6001600160a01b0383166000818152602081815260408083209490945583518581529351929391927fddf252ad1be2c89b69c2b068fc378daa952ba7f163c4a11628f55a4df523b3ef9281900390910190a35050565b505050565b6000828201838110156200046557604080517f08c379a000000000000000000000000000000000000000000000000000000000815260206004820152601b60248201527f536166654d6174683a206164646974696f6e206f766572666c6f770000000000604482015290519081900360640190fd5b9392505050565b828054600181600116156101000203166002900490600052602060002090601f016020900481019282620004a45760008555620004ef565b82601f10620004bf57805160ff1916838001178555620004ef565b82800160010185558215620004ef579182015b82811115620004ef578251825591602001919060010190620004d2565b50620004fd92915062000501565b5090565b5b80821115620004fd576000815560010162000502565b6115f480620005286000396000f3fe608060405234801561001057600080fd5b50600436106101985760003560e01c806379ba5097116100e3578063a457c2d71161008c578063dbe263a511610066578063dbe263a514610483578063dbf6b9b5146104af578063dd62ed3e146104db57610198565b8063a457c2d714610405578063a9059cbb14610431578063aab67fe71461045d57610198565b80637e0c1792116100bd5780637e0c1792146103ed5780638da5cb5b146103f557806395d89b41146103fd57610198565b806379ba50971461039357806379cc67901461039b5780637adbf973146103c757610198565b8063313ce5671161014557806351e238e31161011f57806351e238e31461035d57806353a47bb71461036557806370a082311461036d57610198565b8063313ce567146102f6578063395093511461031457806342966c681461034057610198565b80631627540c116101765780631627540c1461027e57806318160ddd146102a657806323b872dd146102c057610198565b80630264d45b1461019d57806306fdde03146101c1578063095ea7b31461023e575b600080fd5b6101a5610509565b604080516001600160a01b039092168252519081900360200190f35b6101c9610518565b6040805160208082528351818301528351919283929083019185019080838360005b838110156102035781810151838201526020016101eb565b50505050905090810190601f1680156102305780820380516001836020036101000a031916815260200191505b509250505060405180910390f35b61026a6004803603604081101561025457600080fd5b506001600160a01b0381351690602001356105a6565b604080519115158252519081900360200190f35b6102a46004803603602081101561029457600080fd5b50356001600160a01b03166105c3565b005b6102ae61066d565b60408051918252519081900360200190f35b61026a600480360360608110156102d657600080fd5b506001600160a01b03813581169160208101359091169060400135610673565b6102fe6106fa565b6040805160ff9092168252519081900360200190f35b61026a6004803603604081101561032a57600080fd5b506001600160a01b0381351690602001356106ff565b6102a46004803603602081101561035657600080fd5b503561074d565b6102ae610761565b6101a5610770565b6102ae6004803603602081101561038357600080fd5b50356001600160a01b031661077f565b6102a461079a565b6102a4600480360360408110156103b157600080fd5b506001600160a01b038135169060200135610863565b6102a4600480360360208110156103dd57600080fd5b50356001600160a01b03166108bd565b6101a56109a6565b6101a56109b5565b6101c96109c4565b61026a6004803603604081101561041b57600080fd5b506001600160a01b038135169060200135610a1f565b61026a6004803603604081101561044757600080fd5b506001600160a01b038135169060200135610a87565b6102a46004803603602081101561047357600080fd5b50356001600160a01b0316610a9b565b6102a46004803603604081101561049957600080fd5b506001600160a01b038135169060200135610bb6565b6102a4600480360360408110156104c557600080fd5b506001600160a01b038135169060200135610cda565b6102ae600480360360408110156104f157600080fd5b506001600160a01b0381358116916020013516610dfe565b6007546001600160a01b031681565b6006805460408051602060026001851615610100026000190190941693909304601f8101849004840282018401909252818152929183018282801561059e5780601f106105735761010080835404028352916020019161059e565b820191906000526020600020905b81548152906001019060200180831161058157829003601f168201915b505050505081565b60006105ba6105b3610e8a565b8484610e8e565b50600192915050565b6003546001600160a01b0316331461060c5760405162461bcd60e51b815260040180806020018281038252602f8152602001806114b5602f913960400191505060405180910390fd5b600480546001600160a01b03831673ffffffffffffffffffffffffffffffffffffffff19909116811790915560408051918252517f906a1c6bd7e3091ea86693dd029a831c19049ce77f1dce2ce0bab1cacbabce229181900360200190a150565b60025490565b6000610680848484610f7a565b6106f08461068c610e8a565b6106eb856040518060600160405280602881526020016114e4602891396001600160a01b038a166000908152600160205260408120906106ca610e8a565b6001600160a01b0316815260208101919091526040016000205491906110d5565b610e8e565b5060019392505050565b601281565b60006105ba61070c610e8a565b846106eb856001600061071d610e8a565b6001600160a01b03908116825260208083019390935260409182016000908120918c168152925290205490610e29565b61075e610758610e8a565b8261116c565b50565b6a52b7d2dcc80cd2e400000081565b6004546001600160a01b031681565b6001600160a01b031660009081526020819052604090205490565b6004546001600160a01b031633146107e35760405162461bcd60e51b81526004018080602001828103825260358152602001806114166035913960400191505060405180910390fd5b600354600454604080516001600160a01b03938416815292909116602083015280517fb532073b38c83145e3e5135377a08bf9aab55bc0fd7c1179cd4fb995d2a5159c9281900390910190a1600480546003805473ffffffffffffffffffffffffffffffffffffffff199081166001600160a01b03841617909155169055565b600061089a8260405180606001604052806024815260200161150c602491396108938661088e610e8a565b610dfe565b91906110d5565b90506108ae836108a8610e8a565b83610e8e565b6108b8838361116c565b505050565b6003546001600160a01b0316331461091c576040805162461bcd60e51b815260206004820152601460248201527f596f7520617265206e6f7420616e206f776e6572000000000000000000000000604482015290519081900360640190fd5b6001600160a01b038116610977576040805162461bcd60e51b815260206004820152601560248201527f5a65726f20616464726573732064657465637465640000000000000000000000604482015290519081900360640190fd5b6008805473ffffffffffffffffffffffffffffffffffffffff19166001600160a01b0392909216919091179055565b6008546001600160a01b031681565b6003546001600160a01b031681565b6005805460408051602060026001851615610100026000190190941693909304601f8101849004840282018401909252818152929183018282801561059e5780601f106105735761010080835404028352916020019161059e565b60006105ba610a2c610e8a565b846106eb8560405180606001604052806025815260200161159a6025913960016000610a56610e8a565b6001600160a01b03908116825260208083019390935260409182016000908120918d168152925290205491906110d5565b60006105ba610a94610e8a565b8484610f7a565b6003546001600160a01b03163314610afa576040805162461bcd60e51b815260206004820152601460248201527f596f7520617265206e6f7420616e206f776e6572000000000000000000000000604482015290519081900360640190fd5b6001600160a01b038116610b55576040805162461bcd60e51b815260206004820152601560248201527f5a65726f20616464726573732064657465637465640000000000000000000000604482015290519081900360640190fd5b600980546001600160a01b03831673ffffffffffffffffffffffffffffffffffffffff19909116811790915560408051918252517f93ecff048208e3fbfe7e59563240637a55bae343258df1c606cf0310b047fb999181900360200190a150565b600960009054906101000a90046001600160a01b03166001600160a01b0316630c2e96746040518163ffffffff1660e01b815260040160206040518083038186803b158015610c0457600080fd5b505afa158015610c18573d6000803e3d6000fd5b505050506040513d6020811015610c2e57600080fd5b50516001600160a01b03163314610c8c576040805162461bcd60e51b815260206004820152601060248201527f596f7520617265206e6f742062616e6b00000000000000000000000000000000604482015290519081900360640190fd5b610c968282611268565b6040805182815290516001600160a01b0384169130917ff985a311dab93c77564f494f138b23b41d9c3b14bb2bfdbd5eb7fbc9e929b31b9181900360200190a35050565b600960009054906101000a90046001600160a01b03166001600160a01b0316630c2e96746040518163ffffffff1660e01b815260040160206040518083038186803b158015610d2857600080fd5b505afa158015610d3c573d6000803e3d6000fd5b505050506040513d6020811015610d5257600080fd5b50516001600160a01b03163314610db0576040805162461bcd60e51b815260206004820152601060248201527f596f7520617265206e6f742062616e6b00000000000000000000000000000000604482015290519081900360640190fd5b610dba8282611358565b60408051828152905130916001600160a01b038516917f88fabba059a45fc661f616c17f6759748e090b3e4accb657282e8530df24d73f9181900360200190a35050565b6001600160a01b03918216600090815260016020908152604080832093909416825291909152205490565b600082820183811015610e83576040805162461bcd60e51b815260206004820152601b60248201527f536166654d6174683a206164646974696f6e206f766572666c6f770000000000604482015290519081900360640190fd5b9392505050565b3390565b6001600160a01b038316610ed35760405162461bcd60e51b81526004018080602001828103825260248152602001806115766024913960400191505060405180910390fd5b6001600160a01b038216610f185760405162461bcd60e51b815260040180806020018281038252602281526020018061146d6022913960400191505060405180910390fd5b6001600160a01b03808416600081815260016020908152604080832094871680845294825291829020859055815185815291517f8c5be1e5ebec7d5bd14f71427d1e84f3dd0314c0f7b2291e5b200ac8c7c3b9259281900390910190a3505050565b6001600160a01b038316610fbf5760405162461bcd60e51b81526004018080602001828103825260258152602001806115516025913960400191505060405180910390fd5b6001600160a01b0382166110045760405162461bcd60e51b81526004018080602001828103825260238152602001806113f36023913960400191505060405180910390fd5b61100f8383836108b8565b61104c8160405180606001604052806026815260200161148f602691396001600160a01b03861660009081526020819052604090205491906110d5565b6001600160a01b03808516600090815260208190526040808220939093559084168152205461107b9082610e29565b6001600160a01b038084166000818152602081815260409182902094909455805185815290519193928716927fddf252ad1be2c89b69c2b068fc378daa952ba7f163c4a11628f55a4df523b3ef92918290030190a3505050565b600081848411156111645760405162461bcd60e51b81526004018080602001828103825283818151815260200191508051906020019080838360005b83811015611129578181015183820152602001611111565b50505050905090810190601f1680156111565780820380516001836020036101000a031916815260200191505b509250505060405180910390fd5b505050900390565b6001600160a01b0382166111b15760405162461bcd60e51b81526004018080602001828103825260218152602001806115306021913960400191505060405180910390fd5b6111bd826000836108b8565b6111fa8160405180606001604052806022815260200161144b602291396001600160a01b03851660009081526020819052604090205491906110d5565b6001600160a01b03831660009081526020819052604090205560025461122090826113b0565b6002556040805182815290516000916001600160a01b038516917fddf252ad1be2c89b69c2b068fc378daa952ba7f163c4a11628f55a4df523b3ef9181900360200190a35050565b6001600160a01b0382166112c3576040805162461bcd60e51b815260206004820152601f60248201527f45524332303a206d696e7420746f20746865207a65726f206164647265737300604482015290519081900360640190fd5b6112cf600083836108b8565b6002546112dc9082610e29565b6002556001600160a01b0382166000908152602081905260409020546113029082610e29565b6001600160a01b0383166000818152602081815260408083209490945583518581529351929391927fddf252ad1be2c89b69c2b068fc378daa952ba7f163c4a11628f55a4df523b3ef9281900390910190a35050565b611362828261116c565b6113ac8261136e610e8a565b6106eb8460405180606001604052806024815260200161150c602491396001600160a01b0388166000908152600160205260408120906106ca610e8a565b5050565b6000610e8383836040518060400160405280601e81526020017f536166654d6174683a207375627472616374696f6e206f766572666c6f7700008152506110d556fe45524332303a207472616e7366657220746f20746865207a65726f2061646472657373596f75206d757374206265206e6f6d696e61746564206265666f726520796f752063616e20616363657074206f776e65727368697045524332303a206275726e20616d6f756e7420657863656564732062616c616e636545524332303a20617070726f766520746f20746865207a65726f206164647265737345524332303a207472616e7366657220616d6f756e7420657863656564732062616c616e63654f6e6c792074686520636f6e7472616374206f776e6572206d617920706572666f726d207468697320616374696f6e45524332303a207472616e7366657220616d6f756e74206578636565647320616c6c6f77616e636545524332303a206275726e20616d6f756e74206578636565647320616c6c6f77616e636545524332303a206275726e2066726f6d20746865207a65726f206164647265737345524332303a207472616e736665722066726f6d20746865207a65726f206164647265737345524332303a20617070726f76652066726f6d20746865207a65726f206164647265737345524332303a2064656372656173656420616c6c6f77616e63652062656c6f77207a65726fa2646970667358221220cc175bacf47fde17605a268273ccc6727b808f2957b2dc5008c9ec3df5704de664736f6c63430007050033",
  "linkReferences": {},
  "deployedLinkReferences": {}
}