{
  "_format": "hh-sol-artifact-1",
  "contractName": "CAMP",
  "sourceName": "contracts/bank/CAMP.sol",
  "abi": [
    {
      "inputs": [
        {
          "internalType": "address",
          "name": "_creator_address",
          "type": "address"
        }
      ],
      "stateMutability": "nonpayable",
      "type": "constructor"
    },
    {
      "anonymous": false,
      "inputs": [
        {
          "indexed": true,
          "internalType": "address",
          "name": "owner",
          "type": "address"
        },
        {
          "indexed": true,
          "internalType": "address",
          "name": "spender",
          "type": "address"
        },
        {
          "indexed": false,
          "internalType": "uint256",
          "name": "value",
          "type": "uint256"
        }
      ],
      "name": "Approval",
      "type": "event"
    },
    {
      "anonymous": false,
      "inputs": [
        {
          "indexed": true,
          "internalType": "address",
          "name": "from",
          "type": "address"
        },
        {
          "indexed": true,
          "internalType": "address",
          "name": "to",
          "type": "address"
        },
        {
          "indexed": false,
          "internalType": "uint256",
          "name": "amount",
          "type": "uint256"
        }
      ],
      "name": "BankBurned",
      "type": "event"
    },
    {
      "anonymous": false,
      "inputs": [
        {
          "indexed": true,
          "internalType": "address",
          "name": "from",
          "type": "address"
        },
        {
          "indexed": true,
          "internalType": "address",
          "name": "to",
          "type": "address"
        },
        {
          "indexed": false,
          "internalType": "uint256",
          "name": "amount",
          "type": "uint256"
        }
      ],
      "name": "BankMinted",
      "type": "event"
    },
    {
      "anonymous": false,
      "inputs": [
        {
          "indexed": false,
          "internalType": "address",
          "name": "addr",
          "type": "address"
        }
      ],
      "name": "BondAddressSet",
      "type": "event"
    },
    {
      "anonymous": false,
      "inputs": [
        {
          "indexed": true,
          "internalType": "address",
          "name": "from",
          "type": "address"
        },
        {
          "indexed": true,
          "internalType": "address",
          "name": "to",
          "type": "address"
        },
        {
          "indexed": false,
          "internalType": "uint256",
          "name": "amount",
          "type": "uint256"
        }
      ],
      "name": "BondMinted",
      "type": "event"
    },
    {
      "anonymous": false,
      "inputs": [
        {
          "indexed": false,
          "internalType": "address",
          "name": "oldOwner",
          "type": "address"
        },
        {
          "indexed": false,
          "internalType": "address",
          "name": "newOwner",
          "type": "address"
        }
      ],
      "name": "OwnerChanged",
      "type": "event"
    },
    {
      "anonymous": false,
      "inputs": [
        {
          "indexed": false,
          "internalType": "address",
          "name": "newOwner",
          "type": "address"
        }
      ],
      "name": "OwnerNominated",
      "type": "event"
    },
    {
      "anonymous": false,
      "inputs": [
        {
          "indexed": false,
          "internalType": "address",
          "name": "addr",
          "type": "address"
        }
      ],
      "name": "SCAMPAddressSet",
      "type": "event"
    },
    {
      "anonymous": false,
      "inputs": [
        {
          "indexed": false,
          "internalType": "address",
          "name": "addr",
          "type": "address"
        }
      ],
      "name": "StakeAddressSet",
      "type": "event"
    },
    {
      "anonymous": false,
      "inputs": [
        {
          "indexed": true,
          "internalType": "address",
          "name": "from",
          "type": "address"
        },
        {
          "indexed": true,
          "internalType": "address",
          "name": "to",
          "type": "address"
        },
        {
          "indexed": false,
          "internalType": "uint256",
          "name": "amount",
          "type": "uint256"
        }
      ],
      "name": "StakeMinted",
      "type": "event"
    },
    {
      "anonymous": false,
      "inputs": [
        {
          "indexed": true,
          "internalType": "address",
          "name": "from",
          "type": "address"
        },
        {
          "indexed": true,
          "internalType": "address",
          "name": "to",
          "type": "address"
        },
        {
          "indexed": false,
          "internalType": "uint256",
          "name": "value",
          "type": "uint256"
        }
      ],
      "name": "Transfer",
      "type": "event"
    },
    {
      "inputs": [
        {
          "internalType": "address",
          "name": "b_address",
          "type": "address"
        },
        {
          "internalType": "uint256",
          "name": "b_amount",
          "type": "uint256"
        }
      ],
      "name": "Bank_burn_from",
      "outputs": [],
      "stateMutability": "nonpayable",
      "type": "function"
    },
    {
      "inputs": [
        {
          "internalType": "address",
          "name": "m_address",
          "type": "address"
        },
        {
          "internalType": "uint256",
          "name": "m_amount",
          "type": "uint256"
        }
      ],
      "name": "Bank_mint",
      "outputs": [],
      "stateMutability": "nonpayable",
      "type": "function"
    },
    {
      "inputs": [
        {
          "internalType": "address",
          "name": "m_address",
          "type": "address"
        },
        {
          "internalType": "uint256",
          "name": "m_amount",
          "type": "uint256"
        }
      ],
      "name": "Bond_mint",
      "outputs": [],
      "stateMutability": "nonpayable",
      "type": "function"
    },
    {
      "inputs": [],
      "name": "Bonding_contract_address",
      "outputs": [
        {
          "internalType": "address",
          "name": "",
          "type": "address"
        }
      ],
      "stateMutability": "view",
      "type": "function"
    },
    {
      "inputs": [],
      "name": "Staking_contract_address",
      "outputs": [
        {
          "internalType": "address",
          "name": "",
          "type": "address"
        }
      ],
      "stateMutability": "view",
      "type": "function"
    },
    {
      "inputs": [
        {
          "internalType": "address",
          "name": "m_address",
          "type": "address"
        },
        {
          "internalType": "uint256",
          "name": "m_amount",
          "type": "uint256"
        }
      ],
      "name": "Staking_mint",
      "outputs": [],
      "stateMutability": "nonpayable",
      "type": "function"
    },
    {
      "inputs": [],
      "name": "acceptOwnership",
      "outputs": [],
      "stateMutability": "nonpayable",
      "type": "function"
    },
    {
      "inputs": [
        {
          "internalType": "address",
          "name": "owner",
          "type": "address"
        },
        {
          "internalType": "address",
          "name": "spender",
          "type": "address"
        }
      ],
      "name": "allowance",
      "outputs": [
        {
          "internalType": "uint256",
          "name": "",
          "type": "uint256"
        }
      ],
      "stateMutability": "view",
      "type": "function"
    },
    {
      "inputs": [
        {
          "internalType": "address",
          "name": "spender",
          "type": "address"
        },
        {
          "internalType": "uint256",
          "name": "amount",
          "type": "uint256"
        }
      ],
      "name": "approve",
      "outputs": [
        {
          "internalType": "bool",
          "name": "",
          "type": "bool"
        }
      ],
      "stateMutability": "nonpayable",
      "type": "function"
    },
    {
      "inputs": [
        {
          "internalType": "address",
          "name": "account",
          "type": "address"
        }
      ],
      "name": "balanceOf",
      "outputs": [
        {
          "internalType": "uint256",
          "name": "",
          "type": "uint256"
        }
      ],
      "stateMutability": "view",
      "type": "function"
    },
    {
      "inputs": [],
      "name": "decimals",
      "outputs": [
        {
          "internalType": "uint8",
          "name": "",
          "type": "uint8"
        }
      ],
      "stateMutability": "view",
      "type": "function"
    },
    {
      "inputs": [
        {
          "internalType": "address",
          "name": "spender",
          "type": "address"
        },
        {
          "internalType": "uint256",
          "name": "subtractedValue",
          "type": "uint256"
        }
      ],
      "name": "decreaseAllowance",
      "outputs": [
        {
          "internalType": "bool",
          "name": "",
          "type": "bool"
        }
      ],
      "stateMutability": "nonpayable",
      "type": "function"
    },
    {
      "inputs": [],
      "name": "genesis_supply",
      "outputs": [
        {
          "internalType": "uint256",
          "name": "",
          "type": "uint256"
        }
      ],
      "stateMutability": "view",
      "type": "function"
    },
    {
      "inputs": [
        {
          "internalType": "address",
          "name": "spender",
          "type": "address"
        },
        {
          "internalType": "uint256",
          "name": "addedValue",
          "type": "uint256"
        }
      ],
      "name": "increaseAllowance",
      "outputs": [
        {
          "internalType": "bool",
          "name": "",
          "type": "bool"
        }
      ],
      "stateMutability": "nonpayable",
      "type": "function"
    },
    {
      "inputs": [],
      "name": "name",
      "outputs": [
        {
          "internalType": "string",
          "name": "",
          "type": "string"
        }
      ],
      "stateMutability": "view",
      "type": "function"
    },
    {
      "inputs": [
        {
          "internalType": "address",
          "name": "_owner",
          "type": "address"
        }
      ],
      "name": "nominateNewOwner",
      "outputs": [],
      "stateMutability": "nonpayable",
      "type": "function"
    },
    {
      "inputs": [],
      "name": "nominatedOwner",
      "outputs": [
        {
          "internalType": "address",
          "name": "",
          "type": "address"
        }
      ],
      "stateMutability": "view",
      "type": "function"
    },
    {
      "inputs": [],
      "name": "owner",
      "outputs": [
        {
          "internalType": "address",
          "name": "",
          "type": "address"
        }
      ],
      "stateMutability": "view",
      "type": "function"
    },
    {
      "inputs": [
        {
          "internalType": "address",
          "name": "_Bonding_contract_address",
          "type": "address"
        }
      ],
      "name": "setBondAddress",
      "outputs": [],
      "stateMutability": "nonpayable",
      "type": "function"
    },
    {
      "inputs": [
        {
          "internalType": "address",
          "name": "SCAMP_contract_address",
          "type": "address"
        }
      ],
      "name": "setSCAMPAddress",
      "outputs": [],
      "stateMutability": "nonpayable",
      "type": "function"
    },
    {
      "inputs": [
        {
          "internalType": "address",
          "name": "_Staking_contract_address",
          "type": "address"
        }
      ],
      "name": "setStakeAddress",
      "outputs": [],
      "stateMutability": "nonpayable",
      "type": "function"
    },
    {
      "inputs": [],
      "name": "symbol",
      "outputs": [
        {
          "internalType": "string",
          "name": "",
          "type": "string"
        }
      ],
      "stateMutability": "view",
      "type": "function"
    },
    {
      "inputs": [],
      "name": "totalSupply",
      "outputs": [
        {
          "internalType": "uint256",
          "name": "",
          "type": "uint256"
        }
      ],
      "stateMutability": "view",
      "type": "function"
    },
    {
      "inputs": [
        {
          "internalType": "address",
          "name": "recipient",
          "type": "address"
        },
        {
          "internalType": "uint256",
          "name": "amount",
          "type": "uint256"
        }
      ],
      "name": "transfer",
      "outputs": [
        {
          "internalType": "bool",
          "name": "",
          "type": "bool"
        }
      ],
      "stateMutability": "nonpayable",
      "type": "function"
    },
    {
      "inputs": [
        {
          "internalType": "address",
          "name": "sender",
          "type": "address"
        },
        {
          "internalType": "address",
          "name": "recipient",
          "type": "address"
        },
        {
          "internalType": "uint256",
          "name": "amount",
          "type": "uint256"
        }
      ],
      "name": "transferFrom",
      "outputs": [
        {
          "internalType": "bool",
          "name": "",
          "type": "bool"
        }
      ],
      "stateMutability": "nonpayable",
      "type": "function"
    }
  ],
  "bytecode": "0x60806040523480156200001157600080fd5b5060405162001f3a38038062001f3a833981810160405260208110156200003757600080fd5b5051604080518082018252601e81527f43616d702050726f746f636f6c20476f7665726e616e636520546f6b656e000060208281019182528351808501909452600484527f43414d5000000000000000000000000000000000000000000000000000000000908401528151849391601291620000b69160039162000384565b508151620000cc90600490602085019062000384565b506005805460ff191660ff9290921691909117905550506001600160a01b0381166200015957604080517f08c379a000000000000000000000000000000000000000000000000000000000815260206004820152601960248201527f4f776e657220616464726573732063616e6e6f74206265203000000000000000604482015290519081900360640190fd5b60058054610100600160a81b0319166101006001600160a01b038416908102919091179091556040805160008152602081019290925280517fb532073b38c83145e3e5135377a08bf9aab55bc0fd7c1179cd4fb995d2a5159c9281900390910190a150620001d3816a52b7d2dcc80cd2e4000000620001da565b5062000430565b6001600160a01b0382166200025057604080517f08c379a000000000000000000000000000000000000000000000000000000000815260206004820152601e60248201527f4b4950373a206d696e7420746f20746865207a65726f20616464726573730000604482015290519081900360640190fd5b6200025d30838362000303565b62000279816002546200030860201b6200131c1790919060201c565b6002556001600160a01b03821660009081526020818152604090912054620002ac9183906200131c62000308821b17901c565b6001600160a01b038316600081815260208181526040918290209390935580518481529051919230927fddf252ad1be2c89b69c2b068fc378daa952ba7f163c4a11628f55a4df523b3ef9281900390910190a35050565b505050565b6000828201838110156200037d57604080517f08c379a000000000000000000000000000000000000000000000000000000000815260206004820152601b60248201527f536166654d6174683a206164646974696f6e206f766572666c6f770000000000604482015290519081900360640190fd5b9392505050565b828054600181600116156101000203166002900490600052602060002090601f016020900481019282620003bc576000855562000407565b82601f10620003d757805160ff191683800117855562000407565b8280016001018555821562000407579182015b8281111562000407578251825591602001919060010190620003ea565b506200041592915062000419565b5090565b5b808211156200041557600081556001016200041a565b611afa80620004406000396000f3fe608060405234801561001057600080fd5b50600436106101a35760003560e01c80636a8cdb52116100ee578063a9059cbb11610097578063dbe263a511610071578063dbe263a5146104bb578063dbf6b9b5146104e7578063dd62ed3e14610513578063ec7a2cb814610541576101a3565b8063a9059cbb1461043d578063aab67fe714610469578063b4a7dd741461048f576101a3565b80638da5cb5b116100c85780638da5cb5b1461040157806395d89b4114610409578063a457c2d714610411576101a3565b80636a8cdb52146103ad57806370a08231146103d357806379ba5097146103f9576101a3565b80632f98087b11610150578063395093511161012a578063395093511461037157806351e238e31461039d57806353a47bb7146103a5576101a3565b80632f98087b14610303578063309c62ba14610327578063313ce56714610353576101a3565b806318160ddd1161018157806318160ddd1461028d57806323471d18146102a757806323b872dd146102cd576101a3565b806306fdde03146101a8578063095ea7b3146102255780631627540c14610265575b600080fd5b6101b0610549565b6040805160208082528351818301528351919283929083019185019080838360005b838110156101ea5781810151838201526020016101d2565b50505050905090810190601f1680156102175780820380516001836020036101000a031916815260200191505b509250505060405180910390f35b6102516004803603604081101561023b57600080fd5b506001600160a01b0381351690602001356105df565b604080519115158252519081900360200190f35b61028b6004803603602081101561027b57600080fd5b50356001600160a01b03166105f5565b005b610295610697565b60408051918252519081900360200190f35b61028b600480360360208110156102bd57600080fd5b50356001600160a01b031661069d565b610251600480360360608110156102e357600080fd5b506001600160a01b0381358116916020810135909116906040013561083c565b61030b6108a5565b604080516001600160a01b039092168252519081900360200190f35b61028b6004803603604081101561033d57600080fd5b506001600160a01b0381351690602001356108b4565b61035b6109f2565b6040805160ff9092168252519081900360200190f35b6102516004803603604081101561038757600080fd5b506001600160a01b0381351690602001356109fb565b610295610a31565b61030b610a40565b61028b600480360360208110156103c357600080fd5b50356001600160a01b0316610a4f565b610295600480360360208110156103e957600080fd5b50356001600160a01b0316610bee565b61028b610c09565b61030b610cec565b6101b0610d00565b6102516004803603604081101561042757600080fd5b506001600160a01b038135169060200135610d61565b6102516004803603604081101561045357600080fd5b506001600160a01b038135169060200135610db0565b61028b6004803603602081101561047f57600080fd5b50356001600160a01b0316610dbd565b61028b600480360360408110156104a557600080fd5b506001600160a01b038135169060200135610f5c565b61028b600480360360408110156104d157600080fd5b506001600160a01b03813516906020013561109a565b61028b600480360360408110156104fd57600080fd5b506001600160a01b0381351690602001356111be565b6102956004803603604081101561052957600080fd5b506001600160a01b03813581169160200135166112e2565b61030b61130d565b60038054604080516020601f60026000196101006001881615020190951694909404938401819004810282018101909252828152606093909290918301828280156105d55780601f106105aa576101008083540402835291602001916105d5565b820191906000526020600020905b8154815290600101906020018083116105b857829003601f168201915b5050505050905090565b60006105ec33848461137d565b50600192915050565b60055461010090046001600160a01b031633146106435760405162461bcd60e51b815260040180806020018281038252602f815260200180611a03602f913960400191505060405180910390fd5b600680546001600160a01b0383166001600160a01b0319909116811790915560408051918252517f906a1c6bd7e3091ea86693dd029a831c19049ce77f1dce2ce0bab1cacbabce229181900360200190a150565b60025490565b60055461010090046001600160a01b031633148061073c5750600960009054906101000a90046001600160a01b03166001600160a01b03166367feda3e6040518163ffffffff1660e01b815260040160206040518083038186803b15801561070457600080fd5b505afa158015610718573d6000803e3d6000fd5b505050506040513d602081101561072e57600080fd5b50516001600160a01b031633145b61078d576040805162461bcd60e51b815260206004820152601960248201527f4e6f7420746865206f776e65722c20636f6e74726f6c6c657200000000000000604482015290519081900360640190fd5b6001600160a01b0381166107e8576040805162461bcd60e51b815260206004820152601560248201527f5a65726f20616464726573732064657465637465640000000000000000000000604482015290519081900360640190fd5b600880546001600160a01b0383166001600160a01b0319909116811790915560408051918252517f8df9c277daa02ebcd30d5449acdf58eb1048b62ab9f849e021816d82c6557bc09181900360200190a150565b6000610849848484611469565b61089b843361089685604051806060016040528060278152602001611a32602791396001600160a01b038a16600090815260016020908152604080832033845290915290205491906115c4565b61137d565b5060019392505050565b6008546001600160a01b031681565b60055461010090046001600160a01b03163314806109535750600960009054906101000a90046001600160a01b03166001600160a01b03166367feda3e6040518163ffffffff1660e01b815260040160206040518083038186803b15801561091b57600080fd5b505afa15801561092f573d6000803e3d6000fd5b505050506040513d602081101561094557600080fd5b50516001600160a01b031633145b6109a4576040805162461bcd60e51b815260206004820152601960248201527f4e6f7420746865206f776e65722c20636f6e74726f6c6c657200000000000000604482015290519081900360640190fd5b6109ae828261165b565b6040805182815290516001600160a01b0384169130917fe4dd7a745cc7154aa3a9706500a76620d1251f84c990ecfe799726acef7a7aab9181900360200190a35050565b60055460ff1690565b3360008181526001602090815260408083206001600160a01b038716845290915281205490916105ec918590610896908661131c565b6a52b7d2dcc80cd2e400000081565b6006546001600160a01b031681565b60055461010090046001600160a01b0316331480610aee5750600960009054906101000a90046001600160a01b03166001600160a01b03166367feda3e6040518163ffffffff1660e01b815260040160206040518083038186803b158015610ab657600080fd5b505afa158015610aca573d6000803e3d6000fd5b505050506040513d6020811015610ae057600080fd5b50516001600160a01b031633145b610b3f576040805162461bcd60e51b815260206004820152601960248201527f4e6f7420746865206f776e65722c20636f6e74726f6c6c657200000000000000604482015290519081900360640190fd5b6001600160a01b038116610b9a576040805162461bcd60e51b815260206004820152601560248201527f5a65726f20616464726573732064657465637465640000000000000000000000604482015290519081900360640190fd5b600780546001600160a01b0383166001600160a01b0319909116811790915560408051918252517f40191c3ec27c83454c50b18d90600f479b347c6c4fcdb045de0f6e36d33e636d9181900360200190a150565b6001600160a01b031660009081526020819052604090205490565b6006546001600160a01b03163314610c525760405162461bcd60e51b81526004018080602001828103825260358152602001806119436035913960400191505060405180910390fd5b600554600654604080516101009093046001600160a01b039081168452909116602083015280517fb532073b38c83145e3e5135377a08bf9aab55bc0fd7c1179cd4fb995d2a5159c9281900390910190a160068054600580547fffffffffffffffffffffff0000000000000000000000000000000000000000ff166101006001600160a01b038416021790556001600160a01b0319169055565b60055461010090046001600160a01b031681565b60048054604080516020601f60026000196101006001881615020190951694909404938401819004810282018101909252828152606093909290918301828280156105d55780601f106105aa576101008083540402835291602001916105d5565b60006105ec3384610896856040518060600160405280602481526020016119bb602491393360009081526001602090815260408083206001600160a01b038d16845290915290205491906115c4565b60006105ec338484611469565b60055461010090046001600160a01b0316331480610e5c5750600960009054906101000a90046001600160a01b03166001600160a01b03166367feda3e6040518163ffffffff1660e01b815260040160206040518083038186803b158015610e2457600080fd5b505afa158015610e38573d6000803e3d6000fd5b505050506040513d6020811015610e4e57600080fd5b50516001600160a01b031633145b610ead576040805162461bcd60e51b815260206004820152601960248201527f4e6f7420746865206f776e65722c20636f6e74726f6c6c657200000000000000604482015290519081900360640190fd5b6001600160a01b038116610f08576040805162461bcd60e51b815260206004820152601560248201527f5a65726f20616464726573732064657465637465640000000000000000000000604482015290519081900360640190fd5b600980546001600160a01b0383166001600160a01b0319909116811790915560408051918252517f93ecff048208e3fbfe7e59563240637a55bae343258df1c606cf0310b047fb999181900360200190a150565b60055461010090046001600160a01b0316331480610ffb5750600960009054906101000a90046001600160a01b03166001600160a01b03166367feda3e6040518163ffffffff1660e01b815260040160206040518083038186803b158015610fc357600080fd5b505afa158015610fd7573d6000803e3d6000fd5b505050506040513d6020811015610fed57600080fd5b50516001600160a01b031633145b61104c576040805162461bcd60e51b815260206004820152601960248201527f4e6f7420746865206f776e65722c20636f6e74726f6c6c657200000000000000604482015290519081900360640190fd5b611056828261165b565b6040805182815290516001600160a01b0384169130917f3cad72b6ed2539f51d618a26acae2f4f75a9bb54739601318d6f80a3b8e903da9181900360200190a35050565b600960009054906101000a90046001600160a01b03166001600160a01b0316630c2e96746040518163ffffffff1660e01b815260040160206040518083038186803b1580156110e857600080fd5b505afa1580156110fc573d6000803e3d6000fd5b505050506040513d602081101561111257600080fd5b50516001600160a01b03163314611170576040805162461bcd60e51b815260206004820152601060248201527f596f7520617265206e6f742062616e6b00000000000000000000000000000000604482015290519081900360640190fd5b61117a828261165b565b6040805182815290516001600160a01b0384169130917ff985a311dab93c77564f494f138b23b41d9c3b14bb2bfdbd5eb7fbc9e929b31b9181900360200190a35050565b600960009054906101000a90046001600160a01b03166001600160a01b0316630c2e96746040518163ffffffff1660e01b815260040160206040518083038186803b15801561120c57600080fd5b505afa158015611220573d6000803e3d6000fd5b505050506040513d602081101561123657600080fd5b50516001600160a01b03163314611294576040805162461bcd60e51b815260206004820152601060248201527f596f7520617265206e6f742062616e6b00000000000000000000000000000000604482015290519081900360640190fd5b61129e828261174b565b60408051828152905130916001600160a01b038516917f88fabba059a45fc661f616c17f6759748e090b3e4accb657282e8530df24d73f9181900360200190a35050565b6001600160a01b03918216600090815260016020908152604080832093909416825291909152205490565b6007546001600160a01b031681565b600082820183811015611376576040805162461bcd60e51b815260206004820152601b60248201527f536166654d6174683a206164646974696f6e206f766572666c6f770000000000604482015290519081900360640190fd5b9392505050565b6001600160a01b0383166113c25760405162461bcd60e51b8152600401808060200182810382526023815260200180611aa26023913960400191505060405180910390fd5b6001600160a01b0382166114075760405162461bcd60e51b81526004018080602001828103825260218152602001806119226021913960400191505060405180910390fd5b6001600160a01b03808416600081815260016020908152604080832094871680845294825291829020859055815185815291517f8c5be1e5ebec7d5bd14f71427d1e84f3dd0314c0f7b2291e5b200ac8c7c3b9259281900390910190a3505050565b6001600160a01b0383166114ae5760405162461bcd60e51b81526004018080602001828103825260248152602001806119df6024913960400191505060405180910390fd5b6001600160a01b0382166114f35760405162461bcd60e51b81526004018080602001828103825260228152602001806119996022913960400191505060405180910390fd5b6114fe8383836117c4565b61153b81604051806060016040528060258152602001611a7d602591396001600160a01b03861660009081526020819052604090205491906115c4565b6001600160a01b03808516600090815260208190526040808220939093559084168152205461156a908261131c565b6001600160a01b038084166000818152602081815260409182902094909455805185815290519193928716927fddf252ad1be2c89b69c2b068fc378daa952ba7f163c4a11628f55a4df523b3ef92918290030190a3505050565b600081848411156116535760405162461bcd60e51b81526004018080602001828103825283818151815260200191508051906020019080838360005b83811015611618578181015183820152602001611600565b50505050905090810190601f1680156116455780820380516001836020036101000a031916815260200191505b509250505060405180910390fd5b505050900390565b6001600160a01b0382166116b6576040805162461bcd60e51b815260206004820152601e60248201527f4b4950373a206d696e7420746f20746865207a65726f20616464726573730000604482015290519081900360640190fd5b6116c13083836117c4565b6002546116ce908261131c565b6002556001600160a01b0382166000908152602081905260409020546116f4908261131c565b6001600160a01b038316600081815260208181526040918290209390935580518481529051919230927fddf252ad1be2c89b69c2b068fc378daa952ba7f163c4a11628f55a4df523b3ef9281900390910190a35050565b61175582826117c9565b6117c0826117616118db565b61089684604051806060016040528060248152602001611a59602491396001600160a01b03881660009081526001602052604081209061179f6118db565b6001600160a01b0316815260208101919091526040016000205491906115c4565b5050565b505050565b6001600160a01b038216611824576040805162461bcd60e51b815260206004820181905260248201527f4b4950373a206275726e2066726f6d20746865207a65726f2061646472657373604482015290519081900360640190fd5b611830826000836117c4565b61186d81604051806060016040528060218152602001611978602191396001600160a01b03851660009081526020819052604090205491906115c4565b6001600160a01b03831660009081526020819052604090205560025461189390826118df565b6002556040805182815290516000916001600160a01b038516917fddf252ad1be2c89b69c2b068fc378daa952ba7f163c4a11628f55a4df523b3ef9181900360200190a35050565b3390565b600061137683836040518060400160405280601e81526020017f536166654d6174683a207375627472616374696f6e206f766572666c6f7700008152506115c456fe4b4950373a20617070726f766520746f20746865207a65726f2061646472657373596f75206d757374206265206e6f6d696e61746564206265666f726520796f752063616e20616363657074206f776e6572736869704b4950373a206275726e20616d6f756e7420657863656564732062616c616e63654b4950373a207472616e7366657220746f20746865207a65726f20616464726573734b4950373a2064656372656173656420616c6c6f77616e63652062656c6f77207a65726f4b4950373a207472616e736665722066726f6d20746865207a65726f20616464726573734f6e6c792074686520636f6e7472616374206f776e6572206d617920706572666f726d207468697320616374696f6e4b4950373a207472616e7366657220616d6f756e74206578636565647320616c6c6f77616e636545524332303a206275726e20616d6f756e74206578636565647320616c6c6f77616e63654b4950373a207472616e7366657220616d6f756e7420657863656564732062616c616e63654b4950373a20617070726f76652066726f6d20746865207a65726f2061646472657373a2646970667358221220dca904c31f5fa94e90f5aa6c83016a7a0d067ab4a28ef428578d7a4f831de00c64736f6c63430007050033",
  "linkReferences": {},
  "deployedLinkReferences": {}
}