{
  "_format": "hh-sol-artifact-1",
  "contractName": "WUSDOracleWrapper",
  "sourceName": "contracts/bank/Oracle/WUSDOraclewrapper.sol",
  "abi": [
    {
      "inputs": [
        {
          "internalType": "address",
          "name": "_creator_address",
          "type": "address"
        },
        {
          "internalType": "address",
          "name": "_timelock_address",
          "type": "address"
        }
      ],
      "stateMutability": "nonpayable",
      "type": "constructor"
    },
    {
      "anonymous": false,
      "inputs": [
        {
          "indexed": false,
          "internalType": "address",
          "name": "oldOwner",
          "type": "address"
        },
        {
          "indexed": false,
          "internalType": "address",
          "name": "newOwner",
          "type": "address"
        }
      ],
      "name": "OwnerChanged",
      "type": "event"
    },
    {
      "anonymous": false,
      "inputs": [
        {
          "indexed": false,
          "internalType": "address",
          "name": "newOwner",
          "type": "address"
        }
      ],
      "name": "OwnerNominated",
      "type": "event"
    },
    {
      "inputs": [],
      "name": "EXTRA_PRECISION",
      "outputs": [
        {
          "internalType": "uint256",
          "name": "",
          "type": "uint256"
        }
      ],
      "stateMutability": "view",
      "type": "function"
    },
    {
      "inputs": [],
      "name": "PRICE_PRECISION",
      "outputs": [
        {
          "internalType": "uint256",
          "name": "",
          "type": "uint256"
        }
      ],
      "stateMutability": "view",
      "type": "function"
    },
    {
      "inputs": [],
      "name": "acceptOwnership",
      "outputs": [],
      "stateMutability": "nonpayable",
      "type": "function"
    },
    {
      "inputs": [],
      "name": "chainlink_WUSD_eth_decimals",
      "outputs": [
        {
          "internalType": "uint256",
          "name": "",
          "type": "uint256"
        }
      ],
      "stateMutability": "view",
      "type": "function"
    },
    {
      "inputs": [
        {
          "internalType": "address",
          "name": "token",
          "type": "address"
        },
        {
          "internalType": "uint256",
          "name": "amountIn",
          "type": "uint256"
        }
      ],
      "name": "consult",
      "outputs": [
        {
          "internalType": "uint256",
          "name": "amountOut",
          "type": "uint256"
        }
      ],
      "stateMutability": "view",
      "type": "function"
    },
    {
      "inputs": [],
      "name": "getWUSDPrice",
      "outputs": [
        {
          "internalType": "uint256",
          "name": "raw_price",
          "type": "uint256"
        },
        {
          "internalType": "uint256",
          "name": "precise_price",
          "type": "uint256"
        }
      ],
      "stateMutability": "view",
      "type": "function"
    },
    {
      "inputs": [
        {
          "internalType": "address",
          "name": "_owner",
          "type": "address"
        }
      ],
      "name": "nominateNewOwner",
      "outputs": [],
      "stateMutability": "nonpayable",
      "type": "function"
    },
    {
      "inputs": [],
      "name": "nominatedOwner",
      "outputs": [
        {
          "internalType": "address",
          "name": "",
          "type": "address"
        }
      ],
      "stateMutability": "view",
      "type": "function"
    },
    {
      "inputs": [],
      "name": "owner",
      "outputs": [
        {
          "internalType": "address",
          "name": "",
          "type": "address"
        }
      ],
      "stateMutability": "view",
      "type": "function"
    },
    {
      "inputs": [
        {
          "internalType": "address",
          "name": "_chainlink_WUSD_eth_oracle",
          "type": "address"
        }
      ],
      "name": "setChainlinkWUSDETHOracle",
      "outputs": [],
      "stateMutability": "nonpayable",
      "type": "function"
    },
    {
      "inputs": [],
      "name": "timelock_address",
      "outputs": [
        {
          "internalType": "address",
          "name": "",
          "type": "address"
        }
      ],
      "stateMutability": "view",
      "type": "function"
    }
  ],
  "bytecode": "0x6080604052620f4240600455620f424060055534801561001e57600080fd5b50604051610b14380380610b148339818101604052604081101561004157600080fd5b508051602090910151816001600160a01b0381166100c057604080517f08c379a000000000000000000000000000000000000000000000000000000000815260206004820152601960248201527f4f776e657220616464726573732063616e6e6f74206265203000000000000000604482015290519081900360640190fd5b600080546001600160a01b0319166001600160a01b038316908117825560408051928352602083019190915280517fb532073b38c83145e3e5135377a08bf9aab55bc0fd7c1179cd4fb995d2a5159c9281900390910190a150600680546001600160a01b038084166001600160a01b0319928316179092556002805490911673b48c2315b3d2e64552ec37d6dadb542e7e0adc4c1790819055604080517f313ce5670000000000000000000000000000000000000000000000000000000081529051919092169163313ce567916004828101926020929190829003018186803b1580156101ac57600080fd5b505afa1580156101c0573d6000803e3d6000fd5b505050506040513d60208110156101d657600080fd5b505160ff166003555050610925806101ef6000396000f3fe608060405234801561001057600080fd5b50600436106100c95760003560e01c806379ba509711610081578063a9badc141161005b578063a9badc14146101b7578063dc6663c7146101bf578063ffaa3b23146101c7576100c9565b806379ba50971461019f5780638da5cb5b146101a757806395082d25146101af576100c9565b80632137cc71116100b25780632137cc71146101175780633ddac9531461013d57806353a47bb71461017b576100c9565b80631627540c146100ce5780631b747bde146100f6575b600080fd5b6100f4600480360360208110156100e457600080fd5b50356001600160a01b03166101cf565b005b6100fe610279565b6040805192835260208301919091528051918290030190f35b6100f46004803603602081101561012d57600080fd5b50356001600160a01b03166103f6565b6101696004803603604081101561015357600080fd5b506001600160a01b038135169060200135610521565b60408051918252519081900360200190f35b610183610623565b604080516001600160a01b039092168252519081900360200190f35b6100f4610632565b6101836106fb565b61016961070a565b610169610710565b610183610716565b610169610725565b6000546001600160a01b031633146102185760405162461bcd60e51b815260040180806020018281038252602f8152602001806108a0602f913960400191505060405180910390fd5b600180546001600160a01b03831673ffffffffffffffffffffffffffffffffffffffff19909116811790915560408051918252517f906a1c6bd7e3091ea86693dd029a831c19049ce77f1dce2ce0bab1cacbabce229181900360200190a150565b600080600080600080600260009054906101000a90046001600160a01b03166001600160a01b031663feaf968c6040518163ffffffff1660e01b815260040160a06040518083038186803b1580156102d057600080fd5b505afa1580156102e4573d6000803e3d6000fd5b505050506040513d60a08110156102fa57600080fd5b50805160208201516060830151608090930151919650945090925090506000831280159061032757508115155b801561034b57508369ffffffffffffffffffff168169ffffffffffffffffffff1610155b61039c576040805162461bcd60e51b815260206004820152601760248201527f496e76616c696420636861696e6c696e6b207072696365000000000000000000604482015290519081900360640190fd5b6103c0600354600a0a6103ba6004548661072b90919063ffffffff16565b9061078b565b95506103ec600354600a0a6103ba6005546103e66004548861072b90919063ffffffff16565b9061072b565b9450505050509091565b6000546001600160a01b031633148061041957506006546001600160a01b031633145b61046a576040805162461bcd60e51b815260206004820152601560248201527f4e6f74206f776e6572206f722074696d656c6f636b0000000000000000000000604482015290519081900360640190fd5b6002805473ffffffffffffffffffffffffffffffffffffffff19166001600160a01b038381169190911791829055604080517f313ce5670000000000000000000000000000000000000000000000000000000081529051929091169163313ce56791600480820192602092909190829003018186803b1580156104ec57600080fd5b505afa158015610500573d6000803e3d6000fd5b505050506040513d602081101561051657600080fd5b505160ff1660035550565b600073c778417e063141139fce010982780140aa0cd5ab6001600160a01b03841614610594576040805162461bcd60e51b815260206004820152601560248201527f6d75737420757365207765746820616464726573730000000000000000000000604482015290519081900360640190fd5b81620f4240146105eb576040805162461bcd60e51b815260206004820152601260248201527f6d7573742063616c6c2077697468203165360000000000000000000000000000604482015290519081900360640190fd5b60006105f5610279565b915050610619816103ba6005546103e660045460045461072b90919063ffffffff16565b9150505b92915050565b6001546001600160a01b031681565b6001546001600160a01b0316331461067b5760405162461bcd60e51b815260040180806020018281038252603581526020018061086b6035913960400191505060405180910390fd5b600054600154604080516001600160a01b03938416815292909116602083015280517fb532073b38c83145e3e5135377a08bf9aab55bc0fd7c1179cd4fb995d2a5159c9281900390910190a1600180546000805473ffffffffffffffffffffffffffffffffffffffff199081166001600160a01b03841617909155169055565b6000546001600160a01b031681565b60045481565b60035481565b6006546001600160a01b031681565b60055481565b60008261073a5750600061061d565b8282028284828161074757fe5b04146107845760405162461bcd60e51b81526004018080602001828103825260218152602001806108cf6021913960400191505060405180910390fd5b9392505050565b600061078483836040518060400160405280601a81526020017f536166654d6174683a206469766973696f6e206279207a65726f000000000000815250600081836108545760405162461bcd60e51b81526004018080602001828103825283818151815260200191508051906020019080838360005b83811015610819578181015183820152602001610801565b50505050905090810190601f1680156108465780820380516001836020036101000a031916815260200191505b509250505060405180910390fd5b50600083858161086057fe5b049594505050505056fe596f75206d757374206265206e6f6d696e61746564206265666f726520796f752063616e20616363657074206f776e6572736869704f6e6c792074686520636f6e7472616374206f776e6572206d617920706572666f726d207468697320616374696f6e536166654d6174683a206d756c7469706c69636174696f6e206f766572666c6f77a2646970667358221220d44877dee4b45a17fd7a6b524fa3ecc9f9fe3bed7558cce59f7c1ce0ce3c320f64736f6c63430007050033",
  "linkReferences": {},
  "deployedLinkReferences": {}
}