{
  "_format": "hh-sol-artifact-1",
  "contractName": "ClaimSwapKlayKbtLpDepository",
  "sourceName": "contracts/bond/ClaimSwapKlayKbtLpDepository.sol",
  "abi": [
    {
      "anonymous": false,
      "inputs": [
        {
          "indexed": false,
          "internalType": "address",
          "name": "depositor",
          "type": "address"
        },
        {
          "indexed": false,
          "internalType": "uint256",
          "name": "deposit",
          "type": "uint256"
        },
        {
          "indexed": true,
          "internalType": "uint256",
          "name": "payout",
          "type": "uint256"
        },
        {
          "indexed": true,
          "internalType": "uint256",
          "name": "expires",
          "type": "uint256"
        },
        {
          "indexed": true,
          "internalType": "uint256",
          "name": "priceInUSD",
          "type": "uint256"
        }
      ],
      "name": "BondCreated",
      "type": "event"
    },
    {
      "anonymous": false,
      "inputs": [
        {
          "indexed": true,
          "internalType": "uint256",
          "name": "priceInUSD",
          "type": "uint256"
        },
        {
          "indexed": true,
          "internalType": "uint256",
          "name": "debtRatio",
          "type": "uint256"
        }
      ],
      "name": "BondPriceChanged",
      "type": "event"
    },
    {
      "anonymous": false,
      "inputs": [
        {
          "indexed": true,
          "internalType": "address",
          "name": "recipient",
          "type": "address"
        },
        {
          "indexed": false,
          "internalType": "uint256",
          "name": "payout",
          "type": "uint256"
        },
        {
          "indexed": false,
          "internalType": "uint256",
          "name": "remaining",
          "type": "uint256"
        }
      ],
      "name": "BondRedeemed",
      "type": "event"
    },
    {
      "anonymous": false,
      "inputs": [
        {
          "indexed": false,
          "internalType": "uint256",
          "name": "initialBCV",
          "type": "uint256"
        },
        {
          "indexed": false,
          "internalType": "uint256",
          "name": "newBCV",
          "type": "uint256"
        },
        {
          "indexed": false,
          "internalType": "uint256",
          "name": "adjustment",
          "type": "uint256"
        },
        {
          "indexed": false,
          "internalType": "bool",
          "name": "addition",
          "type": "bool"
        }
      ],
      "name": "ControlVariableAdjustment",
      "type": "event"
    },
    {
      "anonymous": false,
      "inputs": [
        {
          "indexed": true,
          "internalType": "address",
          "name": "previousOwner",
          "type": "address"
        },
        {
          "indexed": true,
          "internalType": "address",
          "name": "newOwner",
          "type": "address"
        }
      ],
      "name": "OwnershipPulled",
      "type": "event"
    },
    {
      "anonymous": false,
      "inputs": [
        {
          "indexed": true,
          "internalType": "address",
          "name": "previousOwner",
          "type": "address"
        },
        {
          "indexed": true,
          "internalType": "address",
          "name": "newOwner",
          "type": "address"
        }
      ],
      "name": "OwnershipPushed",
      "type": "event"
    },
    {
      "inputs": [],
      "name": "CAMP",
      "outputs": [
        {
          "internalType": "address",
          "name": "",
          "type": "address"
        }
      ],
      "stateMutability": "view",
      "type": "function"
    },
    {
      "inputs": [],
      "name": "DAO",
      "outputs": [
        {
          "internalType": "address",
          "name": "",
          "type": "address"
        }
      ],
      "stateMutability": "view",
      "type": "function"
    },
    {
      "inputs": [],
      "name": "NAME",
      "outputs": [
        {
          "internalType": "string",
          "name": "",
          "type": "string"
        }
      ],
      "stateMutability": "pure",
      "type": "function"
    },
    {
      "inputs": [],
      "name": "REVISION",
      "outputs": [
        {
          "internalType": "uint256",
          "name": "",
          "type": "uint256"
        }
      ],
      "stateMutability": "view",
      "type": "function"
    },
    {
      "inputs": [
        {
          "internalType": "address",
          "name": "_CAMP",
          "type": "address"
        },
        {
          "internalType": "address",
          "name": "_DAO",
          "type": "address"
        },
        {
          "internalType": "address",
          "name": "_principle",
          "type": "address"
        },
        {
          "internalType": "address",
          "name": "_Token0address",
          "type": "address"
        },
        {
          "internalType": "address",
          "name": "_Token1address",
          "type": "address"
        },
        {
          "internalType": "address",
          "name": "_treasury",
          "type": "address"
        },
        {
          "internalType": "address",
          "name": "_usdt_address",
          "type": "address"
        }
      ],
      "name": "__initialize",
      "outputs": [],
      "stateMutability": "nonpayable",
      "type": "function"
    },
    {
      "inputs": [],
      "name": "adjustment",
      "outputs": [
        {
          "internalType": "bool",
          "name": "add",
          "type": "bool"
        },
        {
          "internalType": "uint256",
          "name": "rate",
          "type": "uint256"
        },
        {
          "internalType": "uint256",
          "name": "target",
          "type": "uint256"
        },
        {
          "internalType": "uint256",
          "name": "buffer",
          "type": "uint256"
        },
        {
          "internalType": "uint256",
          "name": "lastBlock",
          "type": "uint256"
        }
      ],
      "stateMutability": "view",
      "type": "function"
    },
    {
      "inputs": [],
      "name": "assetPrice",
      "outputs": [
        {
          "internalType": "uint256",
          "name": "",
          "type": "uint256"
        }
      ],
      "stateMutability": "view",
      "type": "function"
    },
    {
      "inputs": [
        {
          "internalType": "address",
          "name": "",
          "type": "address"
        }
      ],
      "name": "bondInfo",
      "outputs": [
        {
          "internalType": "uint256",
          "name": "payout",
          "type": "uint256"
        },
        {
          "internalType": "uint256",
          "name": "vesting",
          "type": "uint256"
        },
        {
          "internalType": "uint256",
          "name": "lastBlock",
          "type": "uint256"
        },
        {
          "internalType": "uint256",
          "name": "pricePaid",
          "type": "uint256"
        }
      ],
      "stateMutability": "view",
      "type": "function"
    },
    {
      "inputs": [],
      "name": "bondPrice",
      "outputs": [
        {
          "internalType": "uint256",
          "name": "price_",
          "type": "uint256"
        }
      ],
      "stateMutability": "view",
      "type": "function"
    },
    {
      "inputs": [],
      "name": "currentDebt",
      "outputs": [
        {
          "internalType": "uint256",
          "name": "",
          "type": "uint256"
        }
      ],
      "stateMutability": "view",
      "type": "function"
    },
    {
      "inputs": [],
      "name": "debtDecay",
      "outputs": [
        {
          "internalType": "uint256",
          "name": "decay_",
          "type": "uint256"
        }
      ],
      "stateMutability": "view",
      "type": "function"
    },
    {
      "inputs": [],
      "name": "debtRatio",
      "outputs": [
        {
          "internalType": "uint256",
          "name": "debtRatio_",
          "type": "uint256"
        }
      ],
      "stateMutability": "view",
      "type": "function"
    },
    {
      "inputs": [
        {
          "internalType": "uint256",
          "name": "_amount",
          "type": "uint256"
        },
        {
          "internalType": "uint256",
          "name": "_maxPrice",
          "type": "uint256"
        },
        {
          "internalType": "address",
          "name": "_depositor",
          "type": "address"
        }
      ],
      "name": "deposit",
      "outputs": [
        {
          "internalType": "uint256",
          "name": "",
          "type": "uint256"
        }
      ],
      "stateMutability": "nonpayable",
      "type": "function"
    },
    {
      "inputs": [
        {
          "internalType": "uint256",
          "name": "_controlVariable",
          "type": "uint256"
        },
        {
          "internalType": "uint256",
          "name": "_vestingTerm",
          "type": "uint256"
        },
        {
          "internalType": "uint256",
          "name": "_minimumPriceRate",
          "type": "uint256"
        },
        {
          "internalType": "uint256",
          "name": "_maxPayout",
          "type": "uint256"
        },
        {
          "internalType": "uint256",
          "name": "_fee",
          "type": "uint256"
        },
        {
          "internalType": "uint256",
          "name": "_maxDebt",
          "type": "uint256"
        },
        {
          "internalType": "uint256",
          "name": "_initialDebt",
          "type": "uint256"
        }
      ],
      "name": "initializeBondTerms",
      "outputs": [],
      "stateMutability": "nonpayable",
      "type": "function"
    },
    {
      "inputs": [],
      "name": "lastDecay",
      "outputs": [
        {
          "internalType": "uint256",
          "name": "",
          "type": "uint256"
        }
      ],
      "stateMutability": "view",
      "type": "function"
    },
    {
      "inputs": [],
      "name": "maxPayout",
      "outputs": [
        {
          "internalType": "uint256",
          "name": "",
          "type": "uint256"
        }
      ],
      "stateMutability": "view",
      "type": "function"
    },
    {
      "inputs": [],
      "name": "oracle",
      "outputs": [
        {
          "internalType": "address",
          "name": "",
          "type": "address"
        }
      ],
      "stateMutability": "view",
      "type": "function"
    },
    {
      "inputs": [],
      "name": "owner",
      "outputs": [
        {
          "internalType": "address",
          "name": "",
          "type": "address"
        }
      ],
      "stateMutability": "view",
      "type": "function"
    },
    {
      "inputs": [
        {
          "internalType": "uint256",
          "name": "_value",
          "type": "uint256"
        }
      ],
      "name": "payoutFor",
      "outputs": [
        {
          "internalType": "uint256",
          "name": "",
          "type": "uint256"
        }
      ],
      "stateMutability": "view",
      "type": "function"
    },
    {
      "inputs": [
        {
          "internalType": "address",
          "name": "_depositor",
          "type": "address"
        }
      ],
      "name": "pendingPayoutFor",
      "outputs": [
        {
          "internalType": "uint256",
          "name": "pendingPayout_",
          "type": "uint256"
        }
      ],
      "stateMutability": "view",
      "type": "function"
    },
    {
      "inputs": [
        {
          "internalType": "address",
          "name": "_depositor",
          "type": "address"
        }
      ],
      "name": "percentVestedFor",
      "outputs": [
        {
          "internalType": "uint256",
          "name": "percentVested_",
          "type": "uint256"
        }
      ],
      "stateMutability": "view",
      "type": "function"
    },
    {
      "inputs": [],
      "name": "priceRate",
      "outputs": [
        {
          "internalType": "uint256",
          "name": "rate_",
          "type": "uint256"
        }
      ],
      "stateMutability": "view",
      "type": "function"
    },
    {
      "inputs": [],
      "name": "principle",
      "outputs": [
        {
          "internalType": "address",
          "name": "",
          "type": "address"
        }
      ],
      "stateMutability": "view",
      "type": "function"
    },
    {
      "inputs": [],
      "name": "pullManagement",
      "outputs": [],
      "stateMutability": "nonpayable",
      "type": "function"
    },
    {
      "inputs": [
        {
          "internalType": "address",
          "name": "newOwner_",
          "type": "address"
        }
      ],
      "name": "pushManagement",
      "outputs": [],
      "stateMutability": "nonpayable",
      "type": "function"
    },
    {
      "inputs": [
        {
          "internalType": "address",
          "name": "_token",
          "type": "address"
        }
      ],
      "name": "recoverLostToken",
      "outputs": [
        {
          "internalType": "bool",
          "name": "",
          "type": "bool"
        }
      ],
      "stateMutability": "nonpayable",
      "type": "function"
    },
    {
      "inputs": [
        {
          "internalType": "address",
          "name": "_recipient",
          "type": "address"
        },
        {
          "internalType": "bool",
          "name": "_stake",
          "type": "bool"
        }
      ],
      "name": "redeem",
      "outputs": [
        {
          "internalType": "uint256",
          "name": "",
          "type": "uint256"
        }
      ],
      "stateMutability": "nonpayable",
      "type": "function"
    },
    {
      "inputs": [],
      "name": "renounceManagement",
      "outputs": [],
      "stateMutability": "nonpayable",
      "type": "function"
    },
    {
      "inputs": [
        {
          "internalType": "bool",
          "name": "_addition",
          "type": "bool"
        },
        {
          "internalType": "uint256",
          "name": "_increment",
          "type": "uint256"
        },
        {
          "internalType": "uint256",
          "name": "_target",
          "type": "uint256"
        },
        {
          "internalType": "uint256",
          "name": "_buffer",
          "type": "uint256"
        }
      ],
      "name": "setAdjustment",
      "outputs": [],
      "stateMutability": "nonpayable",
      "type": "function"
    },
    {
      "inputs": [
        {
          "internalType": "enum BondDepository.PARAMETER",
          "name": "_parameter",
          "type": "uint8"
        },
        {
          "internalType": "uint256",
          "name": "_input",
          "type": "uint256"
        }
      ],
      "name": "setBondTerms",
      "outputs": [],
      "stateMutability": "nonpayable",
      "type": "function"
    },
    {
      "inputs": [
        {
          "internalType": "address",
          "name": "_staking",
          "type": "address"
        }
      ],
      "name": "setStaking",
      "outputs": [],
      "stateMutability": "nonpayable",
      "type": "function"
    },
    {
      "inputs": [],
      "name": "staking",
      "outputs": [
        {
          "internalType": "address",
          "name": "",
          "type": "address"
        }
      ],
      "stateMutability": "view",
      "type": "function"
    },
    {
      "inputs": [],
      "name": "terms",
      "outputs": [
        {
          "internalType": "uint256",
          "name": "controlVariable",
          "type": "uint256"
        },
        {
          "internalType": "uint256",
          "name": "vestingTerm",
          "type": "uint256"
        },
        {
          "internalType": "uint256",
          "name": "minimumPriceRate",
          "type": "uint256"
        },
        {
          "internalType": "uint256",
          "name": "maxPayout",
          "type": "uint256"
        },
        {
          "internalType": "uint256",
          "name": "fee",
          "type": "uint256"
        },
        {
          "internalType": "uint256",
          "name": "maxDebt",
          "type": "uint256"
        }
      ],
      "stateMutability": "view",
      "type": "function"
    },
    {
      "inputs": [],
      "name": "totalDebt",
      "outputs": [
        {
          "internalType": "uint256",
          "name": "",
          "type": "uint256"
        }
      ],
      "stateMutability": "view",
      "type": "function"
    },
    {
      "inputs": [],
      "name": "treasury",
      "outputs": [
        {
          "internalType": "address",
          "name": "",
          "type": "address"
        }
      ],
      "stateMutability": "view",
      "type": "function"
    },
    {
      "inputs": [],
      "name": "usdt_address",
      "outputs": [
        {
          "internalType": "address",
          "name": "",
          "type": "address"
        }
      ],
      "stateMutability": "view",
      "type": "function"
    }
  ],
  "bytecode": "0x6080604052600060025534801561001557600080fd5b5061001e610023565b6100e6565b6000546001600160a01b03161561009b57604080517f08c379a000000000000000000000000000000000000000000000000000000000815260206004820152601c60248201527f4f776e61626c653a20616c726561647920696e697469616c697a656400000000604482015290519081900360640190fd5b600080546001600160a01b03191633178082556040516001600160a01b039190911691907fea8258f2d9ddb679928cf34b78cf645b7feda9acc828e4dd82d014eaae270eba908290a3565b612a4480620000f66000396000f3fe608060405234801561001057600080fd5b506004361061025c5760003560e01c80637dc0d1d011610145578063ceb791d9116100bd578063dde43cba1161008c578063e392a26211610071578063e392a26214610691578063f5c2ab5b14610699578063fc7b9c18146106a15761025c565b8063dde43cba14610681578063e0176de8146106895761025c565b8063ceb791d91461062e578063d24378eb14610636578063d50256251461063e578063d7ccfb0b146106795761025c565b806398fabd3a11610114578063b4abccba116100f9578063b4abccba146105a0578063cd1234b3146105da578063cea55f57146106265761025c565b806398fabd3a1461051b578063a3f4df7e146105235761025c565b80637dc0d1d0146104b35780638da5cb5b146104bb5780638dbdbe6d146104c35780638ff39099146104f55761025c565b8063451ee4a1116101d85780635a96ac0a116101a7578063715350081161018c578063715350081461044d578063759076e51461048e5780637927ebf8146104965761025c565b80635a96ac0a1461043d57806361d027b3146104455761025c565b8063451ee4a1146103b457806346f68ee9146103e95780634cf088d91461040f578063507930ec146104175761025c565b80631e321a0f1161022f5780631fef3056116102145780631fef30561461034c57806325e9e3a71461035457806332f57962146103ac5761025c565b80631e321a0f146102f85780631feed31f1461031e5761025c565b8063016a42841461026157806301b88ee814610285578063089208d8146102bd5780631a3d0068146102c7575b600080fd5b6102696106a9565b604080516001600160a01b039092168252519081900360200190f35b6102ab6004803603602081101561029b57600080fd5b50356001600160a01b03166106b8565b60408051918252519081900360200190f35b6102c5610711565b005b6102c5600480360360808110156102dd57600080fd5b508035151590602081013590604081013590606001356107ba565b6102c56004803603604081101561030e57600080fd5b5060ff8135169060200135610908565b6102ab6004803603604081101561033457600080fd5b506001600160a01b0381351690602001351515610ac2565b610269610cb7565b6102c5600480360360e081101561036a57600080fd5b506001600160a01b038135811691602081013582169160408201358116916060810135821691608082013581169160a081013582169160c09091013516610cc6565b610269610e6c565b6103bc610e7b565b60408051951515865260208601949094528484019290925260608401526080830152519081900360a00190f35b6102c5600480360360208110156103ff57600080fd5b50356001600160a01b0316610e93565b610269610f92565b6102ab6004803603602081101561042d57600080fd5b50356001600160a01b0316610fa1565b6102c5611033565b6102696110dd565b6102c5600480360360e081101561046357600080fd5b5080359060208101359060408101359060608101359060808101359060a08101359060c001356110ec565b6102ab6112a2565b6102ab600480360360208110156104ac57600080fd5b50356112be565b6102696112e6565b6102696112f5565b6102ab600480360360608110156104d957600080fd5b50803590602081013590604001356001600160a01b0316611304565b6102c56004803603602081101561050b57600080fd5b50356001600160a01b031661177a565b61026961180e565b61052b61181d565b6040805160208082528351818301528351919283929083019185019080838360005b8381101561056557818101518382015260200161054d565b50505050905090810190601f1680156105925780820380516001836020036101000a031916815260200191505b509250505060405180910390f35b6105c6600480360360208110156105b657600080fd5b50356001600160a01b0316611854565b604080519115158252519081900360200190f35b610600600480360360208110156105f057600080fd5b50356001600160a01b0316611989565b604080519485526020850193909352838301919091526060830152519081900360800190f35b6102ab6119b0565b6102ab611a55565b6102ab611a84565b610646611d39565b604080519687526020870195909552858501939093526060850191909152608084015260a0830152519081900360c00190f35b6102ab611d4e565b6102ab611df3565b6102ab611df8565b6102ab611e8a565b6102ab611ecf565b6102ab611ed5565b603b546001600160a01b031681565b6000806106c483610fa1565b6001600160a01b0384166000908152604a602052604090205490915061271082106106f15780925061070a565b6107076127106107018385611edb565b90611f3b565b92505b5050919050565b6000546001600160a01b03163314610770576040805162461bcd60e51b815260206004820181905260248201527f4f776e61626c653a2063616c6c6572206973206e6f7420746865206f776e6572604482015290519081900360640190fd5b600080546040516001600160a01b03909116907fea8258f2d9ddb679928cf34b78cf645b7feda9acc828e4dd82d014eaae270eba908390a3600080546001600160a01b0319169055565b6000546001600160a01b03163314610819576040805162461bcd60e51b815260206004820181905260248201527f4f776e61626c653a2063616c6c6572206973206e6f7420746865206f776e6572604482015290519081900360640190fd5b603f5461082f906103e890610701906019611edb565b83111561086d5760405162461bcd60e51b81526004018080602001828103825260238152602001806128986023913960400191505060405180910390fd5b8361087c57603f548210610882565b603f5482115b6108bd5760405162461bcd60e51b81526004018080602001828103825260228152602001806127dd6022913960400191505060405180910390fd5b6040805160a08101825294151580865260208601859052908501839052606085018290524360809095018590526045805460ff19169091179055604692909255604755604855604955565b6000546001600160a01b03163314610967576040805162461bcd60e51b815260206004820181905260248201527f4f776e61626c653a2063616c6c6572206973206e6f7420746865206f776e6572604482015290519081900360640190fd5b600082600481111561097557fe5b1415610985576040819055610abe565b600182600481111561099357fe5b14156109e4576127108111156109da5760405162461bcd60e51b815260040180806020018281038252603081526020018061298d6030913960400191505060405180910390fd5b6042819055610abe565b60028260048111156109f257fe5b1415610a4357612710811115610a395760405162461bcd60e51b815260040180806020018281038252602c81526020018061286c602c913960400191505060405180910390fd5b6043819055610abe565b6003826004811115610a5157fe5b1415610a61576044819055610abe565b6004826004811115610a6f57fe5b1415610abe57633b9aca00811115610ab85760405162461bcd60e51b81526004018080602001828103825260288152602001806128e36028913960400191505060405180910390fd5b60418190555b5050565b6000610acc61278e565b506001600160a01b0383166000908152604a6020908152604080832081516080810183528154815260018201549381019390935260028101549183019190915260030154606082015290610b1f85610fa1565b90506127108110610baf576001600160a01b0385166000818152604a602090815260408083208381556001810184905560028101849055600301839055855181519081529182019290925281517f51c99f515c87b0d95ba97f616edd182e8f161c4932eac17c6fefe9dab58b77b1929181900390910190a2610ba685858460000151611f7d565b92505050610cb1565b8151600090610bc690612710906107019085611edb565b90506040518060800160405280610bea83866000015161211f90919063ffffffff16565b8152602001610c14610c0986604001514361211f90919063ffffffff16565b60208701519061211f565b8152436020808301919091526060808701516040938401526001600160a01b038a166000818152604a84528490208551808255868501516001830155868601516002830155959092015160039092019190915582518581529182019390935281517f51c99f515c87b0d95ba97f616edd182e8f161c4932eac17c6fefe9dab58b77b1929181900390910190a2610cab868683611f7d565b93505050505b92915050565b603d546001600160a01b031681565b6000610cd0612161565b90506002548111610d125760405162461bcd60e51b815260040180806020018281038252602e81526020018061292c602e913960400191505060405180910390fd5b6002819055610d1f612166565b6001600160a01b038816610d3257600080fd5b603680546001600160a01b0319166001600160a01b038a8116919091179091558516610d5d57600080fd5b603980546001600160a01b0319166001600160a01b03878116919091179091558416610d8857600080fd5b603a80546001600160a01b0319166001600160a01b03868116919091179091558716610db357600080fd5b603580546001600160a01b0319166001600160a01b03898116919091179091558616610dde57600080fd5b603b80546001600160a01b0319166001600160a01b03888116919091179091558316610e0957600080fd5b603c80546001600160a01b0319166001600160a01b03858116919091179091558216610e3457600080fd5b50603d80546001600160a01b03199081166001600160a01b039384161790915560385460378054919093169116179055505050505050565b6036546001600160a01b031681565b60455460465460475460485460495460ff9094169385565b6000546001600160a01b03163314610ef2576040805162461bcd60e51b815260206004820181905260248201527f4f776e61626c653a2063616c6c6572206973206e6f7420746865206f776e6572604482015290519081900360640190fd5b6001600160a01b038116610f375760405162461bcd60e51b81526004018080602001828103825260268152602001806127b76026913960400191505060405180910390fd5b600080546040516001600160a01b03808516939216917fea8258f2d9ddb679928cf34b78cf645b7feda9acc828e4dd82d014eaae270eba91a3600180546001600160a01b0319166001600160a01b0392909216919091179055565b603e546001600160a01b031681565b6000610fab61278e565b506001600160a01b0382166000908152604a60209081526040808320815160808101835281548152600182015493810193909352600281015491830182905260030154606083015290919061100190439061211f565b602083015190915080156110265761101f8161070184612710611edb565b935061102b565b600093505b505050919050565b6001546001600160a01b0316331461107c5760405162461bcd60e51b81526004018080602001828103825260228152602001806128236022913960400191505060405180910390fd5b600154600080546040516001600160a01b0393841693909116917faa151555690c956fc3ea32f106bb9f119b5237a061eaa8557cff3e51e3792c8d91a3600154600080546001600160a01b0319166001600160a01b03909216919091179055565b603c546001600160a01b031681565b6000546001600160a01b0316331461114b576040805162461bcd60e51b815260206004820181905260248201527f4f776e61626c653a2063616c6c6572206973206e6f7420746865206f776e6572604482015290519081900360640190fd5b603f541561118a5760405162461bcd60e51b81526004018080602001828103825260308152602001806129bd6030913960400191505060405180910390fd5b6127108411156111cb5760405162461bcd60e51b815260040180806020018281038252603081526020018061298d6030913960400191505060405180910390fd5b61271083111561120c5760405162461bcd60e51b815260040180806020018281038252602c81526020018061286c602c913960400191505060405180910390fd5b633b9aca0085111561124f5760405162461bcd60e51b81526004018080602001828103825260288152602001806128e36028913960400191505060405180910390fd5b6040805160c08101825288815260208101889052808201879052606081018690526080810185905260a001839052603f9790975594909555604192909255604255604355604491909155604b5543604c55565b60006112b86112af611e8a565b604b549061211f565b90505b90565b6000610cb164e8d4a510006107016112d4611d4e565b61070186670de0b6b3a7640000611edb565b6038546001600160a01b031681565b6000546001600160a01b031690565b60006001600160a01b038216611361576040805162461bcd60e51b815260206004820152601f60248201527f426f6e644465706f7369746f72793a20496e76616c6964206164647265737300604482015290519081900360640190fd5b61136961220f565b604454604b5411156113ac5760405162461bcd60e51b81526004018080602001828103825260248152602001806127ff6024913960400191505060405180910390fd5b60006113b6611d4e565b9050808410156113f75760405162461bcd60e51b815260040180806020018281038252603381526020018061295a6033913960400191505060405180910390fd5b6000611412620f42406107018861140c611a84565b90611edb565b9050600061141f826112be565b9050662386f26fc1000081101561147d576040805162461bcd60e51b815260206004820152601e60248201527f426f6e644465706f7369746f72793a20426f6e6420746f6f20736d616c6c0000604482015290519081900360640190fd5b611485611df8565b8111156114d9576040805162461bcd60e51b815260206004820152601e60248201527f426f6e644465706f7369746f72793a20426f6e6420746f6f206c617267650000604482015290519081900360640190fd5b60006114f9612710610701603f6004015485611edb90919063ffffffff16565b603b54909150611514906001600160a01b031633308b612223565b603b54603c546040805163095ea7b360e01b81526001600160a01b039283166004820152602481018c90529051919092169163095ea7b39160448083019260209291908290030181600087803b15801561156d57600080fd5b505af1158015611581573d6000803e3d6000fd5b505050506040513d602081101561159757600080fd5b5050603c54603b546001600160a01b039182169163bc157ac1918b91166115be86866122b1565b6040518463ffffffff1660e01b815260040180848152602001836001600160a01b031681526020018281526020019350505050600060405180830381600087803b15801561160b57600080fd5b505af115801561161f573d6000803e3d6000fd5b505050508060001461164857603554603654611648916001600160a01b0391821691168361230b565b604b5461165590836122b1565b604b55604080516080810182526001600160a01b0388166000908152604a6020529190912054819061168790856122b1565b8152604080546020808401919091524382840181905260609384018990526001600160a01b038b166000908152604a83528390208551815591850151600183015584830151600283015593909201516003909201919091555485916116eb916122b1565b604080516001600160a01b038a168152602081018c9052815186927fd52c75b244055af9364c0a5dc0da7868f6ae104012f245ad2702031af04d9b8e928290030190a46117366119b0565b61173e611d4e565b6040517f2cb17bd1fd2a1fecfefae2de1e6a59194abaa62179652924ccdca01617f0bf1690600090a361176f612377565b509695505050505050565b6000546001600160a01b031633146117d9576040805162461bcd60e51b815260206004820181905260248201527f4f776e61626c653a2063616c6c6572206973206e6f7420746865206f776e6572604482015290519081900360640190fd5b6001600160a01b0381166117ec57600080fd5b603e80546001600160a01b0319166001600160a01b0392909216919091179055565b6035546001600160a01b031681565b6040805180820190915260208082527f436c61696d53776170204b4c41592d4b4254204c50204465706f7369746f72799082015290565b6036546000906001600160a01b03838116911614156118a45760405162461bcd60e51b81526004018080602001828103825260228152602001806129ed6022913960400191505060405180910390fd5b603b546001600160a01b03838116911614156118f15760405162461bcd60e51b81526004018080602001828103825260278152602001806128456027913960400191505060405180910390fd5b603554604080516370a0823160e01b81523060048201529051611981926001600160a01b0390811692908616916370a0823191602480820192602092909190829003018186803b15801561194457600080fd5b505afa158015611958573d6000803e3d6000fd5b505050506040513d602081101561196e57600080fd5b50516001600160a01b038516919061230b565b506001919050565b604a6020526000908152604090208054600182015460028301546003909301549192909184565b60006112b8670de0b6b3a7640000610701603660009054906101000a90046001600160a01b03166001600160a01b03166318160ddd6040518163ffffffff1660e01b815260040160206040518083038186803b158015611a0f57600080fd5b505afa158015611a23573d6000803e3d6000fd5b505050506040513d6020811015611a3957600080fd5b5051610701670de0b6b3a764000061140c633b9aca00816112a2565b6000611a706064610701611a676119b0565b603f5490611edb565b6041549091508110156112bb575060415490565b600080603b60009054906101000a90046001600160a01b03166001600160a01b03166318160ddd6040518163ffffffff1660e01b815260040160206040518083038186803b158015611ad557600080fd5b505afa158015611ae9573d6000803e3d6000fd5b505050506040513d6020811015611aff57600080fd5b5051603954603b54604080516370a0823160e01b81526001600160a01b039283166004820152905193945060009391909216916370a08231916024808301926020929190829003018186803b158015611b5757600080fd5b505afa158015611b6b573d6000803e3d6000fd5b505050506040513d6020811015611b8157600080fd5b5051603a54603b54604080516370a0823160e01b81526001600160a01b039283166004820152905193945060009391909216916370a08231916024808301926020929190829003018186803b158015611bd957600080fd5b505afa158015611bed573d6000803e3d6000fd5b505050506040513d6020811015611c0357600080fd5b5051603754603a546040805163b3596f0760e01b81526001600160a01b0392831660048201529051939450600093611c9393929092169163b3596f0791602480820192602092909190829003018186803b158015611c6057600080fd5b505afa158015611c74573d6000803e3d6000fd5b505050506040513d6020811015611c8a57600080fd5b50518390611edb565b6037546039546040805163b3596f0760e01b81526001600160a01b0392831660048201529051611d1b93929092169163b3596f0791602480820192602092909190829003018186803b158015611ce857600080fd5b505afa158015611cfc573d6000803e3d6000fd5b505050506040513d6020811015611d1257600080fd5b50518590611edb565b019050611d3081670de0b6b3a7640000611edb565b94505050505090565b603f5460405460415460425460435460445486565b6037546036546040805163b3596f0760e01b81526001600160a01b03928316600482015290516000938493169163b3596f07916024808301926020929190829003018186803b158015611da057600080fd5b505afa158015611db4573d6000803e3d6000fd5b505050506040513d6020811015611dca57600080fd5b505190506000611dd8611a55565b9050611dec633b9aca006107018484611edb565b9250505090565b600181565b60006112b8620f4240610701603f60030154603660009054906101000a90046001600160a01b03166001600160a01b03166318160ddd6040518163ffffffff1660e01b815260040160206040518083038186803b158015611e5857600080fd5b505afa158015611e6c573d6000803e3d6000fd5b505050506040513d6020811015611e8257600080fd5b505190611edb565b600080611ea2604c544361211f90919063ffffffff16565b604054604b54919250611eb9916107019084611edb565b9150604b54821115611ecb57604b5491505b5090565b604c5481565b604b5481565b600082611eea57506000610cb1565b82820282848281611ef757fe5b0414611f345760405162461bcd60e51b815260040180806020018281038252602181526020018061290b6021913960400191505060405180910390fd5b9392505050565b6000611f3483836040518060400160405280601a81526020017f536166654d6174683a206469766973696f6e206279207a65726f000000000000815250612457565b60008261200c576036546040805163a9059cbb60e01b81526001600160a01b038781166004830152602482018690529151919092169163a9059cbb9160448083019260209291908290030181600087803b158015611fda57600080fd5b505af1158015611fee573d6000803e3d6000fd5b505050506040513d602081101561200457600080fd5b506121189050565b603654603e546040805163095ea7b360e01b81526001600160a01b039283166004820152602481018690529051919092169163095ea7b39160448083019260209291908290030181600087803b15801561206557600080fd5b505af1158015612079573d6000803e3d6000fd5b505050506040513d602081101561208f57600080fd5b5050603e54604080517fadc9772e0000000000000000000000000000000000000000000000000000000081526001600160a01b038781166004830152602482018690529151919092169163adc9772e91604480830192600092919082900301818387803b1580156120ff57600080fd5b505af1158015612113573d6000803e3d6000fd5b505050505b5092915050565b6000611f3483836040518060400160405280601e81526020017f536166654d6174683a207375627472616374696f6e206f766572666c6f7700008152506124f9565b600190565b6000546001600160a01b0316156121c4576040805162461bcd60e51b815260206004820152601c60248201527f4f776e61626c653a20616c726561647920696e697469616c697a656400000000604482015290519081900360640190fd5b600080546001600160a01b03191633178082556040516001600160a01b039190911691907fea8258f2d9ddb679928cf34b78cf645b7feda9acc828e4dd82d014eaae270eba908290a3565b61221a6112af611e8a565b604b5543604c55565b604080516001600160a01b0380861660248301528416604482015260648082018490528251808303909101815260849091019091526020810180517bffffffffffffffffffffffffffffffffffffffffffffffffffffffff167f23b872dd000000000000000000000000000000000000000000000000000000001790526122ab908590612553565b50505050565b600082820183811015611f34576040805162461bcd60e51b815260206004820152601b60248201527f536166654d6174683a206164646974696f6e206f766572666c6f770000000000604482015290519081900360640190fd5b604080516001600160a01b038416602482015260448082018490528251808303909101815260649091019091526020810180517bffffffffffffffffffffffffffffffffffffffffffffffffffffffff1663a9059cbb60e01b179052612372908490612553565b505050565b60485460495460009161238a91906122b1565b6046549091501580159061239e5750804310155b1561245457603f5460455460ff16156123d857604654603f546123c0916122b1565b603f819055604754116123d35760006046555b6123fa565b604654603f546123e79161211f565b603f819055604754106123fa5760006046555b43604955603f546046546045546040805185815260208101949094528381019290925260ff1615156060830152517fb923e581a0f83128e9e1d8297aa52b18d6744310476e0b54509c054cd7a93b2a9181900360800190a1505b50565b600081836124e35760405162461bcd60e51b81526004018080602001828103825283818151815260200191508051906020019080838360005b838110156124a8578181015183820152602001612490565b50505050905090810190601f1680156124d55780820380516001836020036101000a031916815260200191505b509250505060405180910390fd5b5060008385816124ef57fe5b0495945050505050565b6000818484111561254b5760405162461bcd60e51b81526020600482018181528351602484015283519092839260449091019190850190808383600083156124a8578181015183820152602001612490565b505050900390565b60606125a8826040518060400160405280601f81526020017f536166654b4950373a206c6f772d6c6576656c2063616c6c206661696c656400815250856001600160a01b03166126049092919063ffffffff16565b805190915015612372578080602001905160208110156125c757600080fd5b50516123725760405162461bcd60e51b81526004018080602001828103825260288152602001806128bb6028913960400191505060405180910390fd5b6060612613848460008561261b565b949350505050565b606061262685612788565b612677576040805162461bcd60e51b815260206004820152601d60248201527f416464726573733a2063616c6c20746f206e6f6e2d636f6e7472616374000000604482015290519081900360640190fd5b60006060866001600160a01b031685876040518082805190602001908083835b602083106126b65780518252601f199092019160209182019101612697565b6001836020036101000a03801982511681845116808217855250505050505090500191505060006040518083038185875af1925050503d8060008114612718576040519150601f19603f3d011682016040523d82523d6000602084013e61271d565b606091505b509150915081156127315791506126139050565b8051156127415780518082602001fd5b60405162461bcd60e51b81526020600482018181528651602484015286518793919283926044019190850190808383600083156124a8578181015183820152602001612490565b3b151590565b604051806080016040528060008152602001600081526020016000815260200160008152509056fe4f776e61626c653a206e6577206f776e657220697320746865207a65726f2061646472657373426f6e644465706f7369746f72793a2077726f6e67207461726765742076616c7565426f6e644465706f7369746f72793a204d617820636170616369747920726561636865644f776e61626c653a206d757374206265206e6577206f776e657220746f2070756c6c426f6e6454726561737572793a2063616e6e6f74207769746864726177207072696e6369706c65426f6e644465706f7369746f72793a2044414f206665652063616e6e6f7420657863656564207061796f7574426f6e644465706f7369746f72793a20696e6372656d656e7420746f6f206c61726765536166654b4950373a204b495037206f7065726174696f6e20646964206e6f742073756363656564426f6e644465706f7369746f72793a206d696e20646973636f756e74207261746520657863656564536166654d6174683a206d756c7469706c69636174696f6e206f766572666c6f77436f6e747261637420696e7374616e63652068617320616c7265616479206265656e20696e697469616c697a6564426f6e644465706f7369746f72793a20536c697070616765206c696d69743a206d6f7265207468616e206d6178207072696365426f6e644465706f7369746f72793a207061796f75742063616e6e6f742062652061626f766520312070657263656e74426f6e644465706f7369746f72793a20626f6e6473206d75737420626520696e697469616c697a65642066726f6d2030426f6e6454726561737572793a2063616e6e6f742077697468647261772043414d50a26469706673582212200e0bab7c38eb7a2f7287078f0135269b9727e00244737034cb0ff04c0b03e61964736f6c63430007050033",
  "linkReferences": {},
  "deployedLinkReferences": {}
}