{
  "_format": "hh-sol-artifact-1",
  "contractName": "ClaimSwapKlayKbtLpDepository",
  "sourceName": "contracts/bond/ClaimSwapKlayKbtLpDepository.sol",
  "abi": [
    {
      "anonymous": false,
      "inputs": [
        {
          "indexed": false,
          "internalType": "address",
          "name": "depositor",
          "type": "address"
        },
        {
          "indexed": false,
          "internalType": "uint256",
          "name": "deposit",
          "type": "uint256"
        },
        {
          "indexed": true,
          "internalType": "uint256",
          "name": "payout",
          "type": "uint256"
        },
        {
          "indexed": true,
          "internalType": "uint256",
          "name": "expires",
          "type": "uint256"
        },
        {
          "indexed": true,
          "internalType": "uint256",
          "name": "priceInUSD",
          "type": "uint256"
        }
      ],
      "name": "BondCreated",
      "type": "event"
    },
    {
      "anonymous": false,
      "inputs": [
        {
          "indexed": true,
          "internalType": "uint256",
          "name": "priceInUSD",
          "type": "uint256"
        },
        {
          "indexed": true,
          "internalType": "uint256",
          "name": "debtRatio",
          "type": "uint256"
        }
      ],
      "name": "BondPriceChanged",
      "type": "event"
    },
    {
      "anonymous": false,
      "inputs": [
        {
          "indexed": true,
          "internalType": "address",
          "name": "recipient",
          "type": "address"
        },
        {
          "indexed": false,
          "internalType": "uint256",
          "name": "payout",
          "type": "uint256"
        },
        {
          "indexed": false,
          "internalType": "uint256",
          "name": "remaining",
          "type": "uint256"
        }
      ],
      "name": "BondRedeemed",
      "type": "event"
    },
    {
      "anonymous": false,
      "inputs": [
        {
          "indexed": false,
          "internalType": "uint256",
          "name": "initialBCV",
          "type": "uint256"
        },
        {
          "indexed": false,
          "internalType": "uint256",
          "name": "newBCV",
          "type": "uint256"
        },
        {
          "indexed": false,
          "internalType": "uint256",
          "name": "adjustment",
          "type": "uint256"
        },
        {
          "indexed": false,
          "internalType": "bool",
          "name": "addition",
          "type": "bool"
        }
      ],
      "name": "ControlVariableAdjustment",
      "type": "event"
    },
    {
      "anonymous": false,
      "inputs": [
        {
          "indexed": true,
          "internalType": "address",
          "name": "previousOwner",
          "type": "address"
        },
        {
          "indexed": true,
          "internalType": "address",
          "name": "newOwner",
          "type": "address"
        }
      ],
      "name": "OwnershipTransferred",
      "type": "event"
    },
    {
      "inputs": [],
      "name": "DAO",
      "outputs": [
        {
          "internalType": "address",
          "name": "",
          "type": "address"
        }
      ],
      "stateMutability": "view",
      "type": "function"
    },
    {
      "inputs": [],
      "name": "NAME",
      "outputs": [
        {
          "internalType": "string",
          "name": "",
          "type": "string"
        }
      ],
      "stateMutability": "pure",
      "type": "function"
    },
    {
      "inputs": [],
      "name": "REVISION",
      "outputs": [
        {
          "internalType": "uint256",
          "name": "",
          "type": "uint256"
        }
      ],
      "stateMutability": "view",
      "type": "function"
    },
    {
      "inputs": [
        {
          "internalType": "address",
          "name": "_kp",
          "type": "address"
        },
        {
          "internalType": "address",
          "name": "_DAO",
          "type": "address"
        },
        {
          "internalType": "address",
          "name": "_principle",
          "type": "address"
        },
        {
          "internalType": "address",
          "name": "_Token0address",
          "type": "address"
        },
        {
          "internalType": "address",
          "name": "_Token1address",
          "type": "address"
        },
        {
          "internalType": "address",
          "name": "_oracle",
          "type": "address"
        }
      ],
      "name": "__initialize",
      "outputs": [],
      "stateMutability": "nonpayable",
      "type": "function"
    },
    {
      "inputs": [],
      "name": "adjustment",
      "outputs": [
        {
          "internalType": "bool",
          "name": "add",
          "type": "bool"
        },
        {
          "internalType": "uint256",
          "name": "rate",
          "type": "uint256"
        },
        {
          "internalType": "uint256",
          "name": "target",
          "type": "uint256"
        },
        {
          "internalType": "uint256",
          "name": "buffer",
          "type": "uint256"
        },
        {
          "internalType": "uint256",
          "name": "lastBlock",
          "type": "uint256"
        }
      ],
      "stateMutability": "view",
      "type": "function"
    },
    {
      "inputs": [],
      "name": "assetOracle",
      "outputs": [
        {
          "internalType": "address",
          "name": "",
          "type": "address"
        }
      ],
      "stateMutability": "view",
      "type": "function"
    },
    {
      "inputs": [],
      "name": "assetPrice",
      "outputs": [
        {
          "internalType": "uint256",
          "name": "",
          "type": "uint256"
        }
      ],
      "stateMutability": "view",
      "type": "function"
    },
    {
      "inputs": [
        {
          "internalType": "address",
          "name": "",
          "type": "address"
        }
      ],
      "name": "bondInfo",
      "outputs": [
        {
          "internalType": "uint256",
          "name": "payout",
          "type": "uint256"
        },
        {
          "internalType": "uint256",
          "name": "vesting",
          "type": "uint256"
        },
        {
          "internalType": "uint256",
          "name": "lastBlock",
          "type": "uint256"
        },
        {
          "internalType": "uint256",
          "name": "pricePaid",
          "type": "uint256"
        }
      ],
      "stateMutability": "view",
      "type": "function"
    },
    {
      "inputs": [],
      "name": "bondPrice",
      "outputs": [
        {
          "internalType": "uint256",
          "name": "price_",
          "type": "uint256"
        }
      ],
      "stateMutability": "view",
      "type": "function"
    },
    {
      "inputs": [],
      "name": "currentDebt",
      "outputs": [
        {
          "internalType": "uint256",
          "name": "",
          "type": "uint256"
        }
      ],
      "stateMutability": "view",
      "type": "function"
    },
    {
      "inputs": [],
      "name": "debtDecay",
      "outputs": [
        {
          "internalType": "uint256",
          "name": "decay_",
          "type": "uint256"
        }
      ],
      "stateMutability": "view",
      "type": "function"
    },
    {
      "inputs": [],
      "name": "debtRatio",
      "outputs": [
        {
          "internalType": "uint256",
          "name": "debtRatio_",
          "type": "uint256"
        }
      ],
      "stateMutability": "view",
      "type": "function"
    },
    {
      "inputs": [
        {
          "internalType": "uint256",
          "name": "_amount",
          "type": "uint256"
        },
        {
          "internalType": "uint256",
          "name": "_maxPrice",
          "type": "uint256"
        },
        {
          "internalType": "address",
          "name": "_depositor",
          "type": "address"
        }
      ],
      "name": "deposit",
      "outputs": [
        {
          "internalType": "uint256",
          "name": "",
          "type": "uint256"
        }
      ],
      "stateMutability": "nonpayable",
      "type": "function"
    },
    {
      "inputs": [
        {
          "internalType": "uint256",
          "name": "_controlVariable",
          "type": "uint256"
        },
        {
          "internalType": "uint256",
          "name": "_vestingTerm",
          "type": "uint256"
        },
        {
          "internalType": "uint256",
          "name": "_minimumPriceRate",
          "type": "uint256"
        },
        {
          "internalType": "uint256",
          "name": "_maxPayout",
          "type": "uint256"
        },
        {
          "internalType": "uint256",
          "name": "_fee",
          "type": "uint256"
        },
        {
          "internalType": "uint256",
          "name": "_maxDebt",
          "type": "uint256"
        },
        {
          "internalType": "uint256",
          "name": "_initialDebt",
          "type": "uint256"
        }
      ],
      "name": "initializeBondTerms",
      "outputs": [],
      "stateMutability": "nonpayable",
      "type": "function"
    },
    {
      "inputs": [],
      "name": "kp",
      "outputs": [
        {
          "internalType": "address",
          "name": "",
          "type": "address"
        }
      ],
      "stateMutability": "view",
      "type": "function"
    },
    {
      "inputs": [],
      "name": "lastDecay",
      "outputs": [
        {
          "internalType": "uint256",
          "name": "",
          "type": "uint256"
        }
      ],
      "stateMutability": "view",
      "type": "function"
    },
    {
      "inputs": [],
      "name": "maxPayout",
      "outputs": [
        {
          "internalType": "uint256",
          "name": "",
          "type": "uint256"
        }
      ],
      "stateMutability": "view",
      "type": "function"
    },
    {
      "inputs": [],
      "name": "owner",
      "outputs": [
        {
          "internalType": "address",
          "name": "",
          "type": "address"
        }
      ],
      "stateMutability": "view",
      "type": "function"
    },
    {
      "inputs": [
        {
          "internalType": "uint256",
          "name": "_value",
          "type": "uint256"
        }
      ],
      "name": "payoutFor",
      "outputs": [
        {
          "internalType": "uint256",
          "name": "",
          "type": "uint256"
        }
      ],
      "stateMutability": "view",
      "type": "function"
    },
    {
      "inputs": [
        {
          "internalType": "address",
          "name": "_depositor",
          "type": "address"
        }
      ],
      "name": "pendingPayoutFor",
      "outputs": [
        {
          "internalType": "uint256",
          "name": "pendingPayout_",
          "type": "uint256"
        }
      ],
      "stateMutability": "view",
      "type": "function"
    },
    {
      "inputs": [
        {
          "internalType": "address",
          "name": "_depositor",
          "type": "address"
        }
      ],
      "name": "percentVestedFor",
      "outputs": [
        {
          "internalType": "uint256",
          "name": "percentVested_",
          "type": "uint256"
        }
      ],
      "stateMutability": "view",
      "type": "function"
    },
    {
      "inputs": [],
      "name": "priceRate",
      "outputs": [
        {
          "internalType": "uint256",
          "name": "rate_",
          "type": "uint256"
        }
      ],
      "stateMutability": "view",
      "type": "function"
    },
    {
      "inputs": [],
      "name": "principle",
      "outputs": [
        {
          "internalType": "address",
          "name": "",
          "type": "address"
        }
      ],
      "stateMutability": "view",
      "type": "function"
    },
    {
      "inputs": [
        {
          "internalType": "address",
          "name": "_token",
          "type": "address"
        }
      ],
      "name": "recoverLostToken",
      "outputs": [
        {
          "internalType": "bool",
          "name": "",
          "type": "bool"
        }
      ],
      "stateMutability": "nonpayable",
      "type": "function"
    },
    {
      "inputs": [
        {
          "internalType": "address",
          "name": "_recipient",
          "type": "address"
        }
      ],
      "name": "redeem",
      "outputs": [
        {
          "internalType": "uint256",
          "name": "",
          "type": "uint256"
        }
      ],
      "stateMutability": "nonpayable",
      "type": "function"
    },
    {
      "inputs": [],
      "name": "renounceOwnership",
      "outputs": [],
      "stateMutability": "nonpayable",
      "type": "function"
    },
    {
      "inputs": [
        {
          "internalType": "bool",
          "name": "_addition",
          "type": "bool"
        },
        {
          "internalType": "uint256",
          "name": "_increment",
          "type": "uint256"
        },
        {
          "internalType": "uint256",
          "name": "_target",
          "type": "uint256"
        },
        {
          "internalType": "uint256",
          "name": "_buffer",
          "type": "uint256"
        }
      ],
      "name": "setAdjustment",
      "outputs": [],
      "stateMutability": "nonpayable",
      "type": "function"
    },
    {
      "inputs": [
        {
          "internalType": "enum BondDepository.PARAMETER",
          "name": "_parameter",
          "type": "uint8"
        },
        {
          "internalType": "uint256",
          "name": "_input",
          "type": "uint256"
        }
      ],
      "name": "setBondTerms",
      "outputs": [],
      "stateMutability": "nonpayable",
      "type": "function"
    },
    {
      "inputs": [
        {
          "internalType": "address",
          "name": "_treasury",
          "type": "address"
        }
      ],
      "name": "setTreasury",
      "outputs": [],
      "stateMutability": "nonpayable",
      "type": "function"
    },
    {
      "inputs": [],
      "name": "staking",
      "outputs": [
        {
          "internalType": "address",
          "name": "",
          "type": "address"
        }
      ],
      "stateMutability": "view",
      "type": "function"
    },
    {
      "inputs": [],
      "name": "terms",
      "outputs": [
        {
          "internalType": "uint256",
          "name": "controlVariable",
          "type": "uint256"
        },
        {
          "internalType": "uint256",
          "name": "vestingTerm",
          "type": "uint256"
        },
        {
          "internalType": "uint256",
          "name": "minimumPriceRate",
          "type": "uint256"
        },
        {
          "internalType": "uint256",
          "name": "maxPayout",
          "type": "uint256"
        },
        {
          "internalType": "uint256",
          "name": "fee",
          "type": "uint256"
        },
        {
          "internalType": "uint256",
          "name": "maxDebt",
          "type": "uint256"
        }
      ],
      "stateMutability": "view",
      "type": "function"
    },
    {
      "inputs": [],
      "name": "totalDebt",
      "outputs": [
        {
          "internalType": "uint256",
          "name": "",
          "type": "uint256"
        }
      ],
      "stateMutability": "view",
      "type": "function"
    },
    {
      "inputs": [
        {
          "internalType": "address",
          "name": "newOwner",
          "type": "address"
        }
      ],
      "name": "transferOwnership",
      "outputs": [],
      "stateMutability": "nonpayable",
      "type": "function"
    },
    {
      "inputs": [],
      "name": "treasury",
      "outputs": [
        {
          "internalType": "address",
          "name": "",
          "type": "address"
        }
      ],
      "stateMutability": "view",
      "type": "function"
    }
  ],
  "bytecode": "0x6080604052600060015534801561001557600080fd5b50600061002061006f565b600080546001600160a01b0319166001600160a01b0383169081178255604051929350917f8be0079c531659141344cd1fd0a4f28419497f9722a3daafe3b4186f6b6457e0908290a350610073565b3390565b612766806100826000396000f3fe608060405234801561001057600080fd5b50600436106102265760003560e01c806398fabd3a1161012a578063d7ccfb0b116100bd578063e88f98901161008c578063f2fde38b11610071578063f2fde38b1461061b578063f5c2ab5b14610641578063fc7b9c181461064957610226565b8063e88f9890146105a7578063f0f44260146105f557610226565b8063d7ccfb0b14610587578063dde43cba1461058f578063e0176de814610597578063e392a2621461059f57610226565b8063cea55f57116100f9578063cea55f5714610534578063ceb791d91461053c578063d24378eb14610544578063d50256251461054c57610226565b806398fabd3a14610429578063a3f4df7e14610431578063b4abccba146104ae578063cd1234b3146104e857610226565b806361d027b3116101bd578063759076e51161018c5780638da5cb5b116101715780638da5cb5b146103c95780638dbdbe6d146103d157806395a2251f1461040357610226565b8063759076e5146103a45780637927ebf8146103ac57610226565b806361d027b31461034b57806364a70e1614610353578063715018a61461035b578063715350081461036357610226565b80631e321a0f116101f95780631e321a0f146102c2578063451ee4a1146102e85780634cf088d91461031d578063507930ec1461032557610226565b8063016a42841461022b57806301b88ee81461024f5780631a3d0068146102875780631d4d3a5d146102ba575b600080fd5b610233610651565b604080516001600160a01b039092168252519081900360200190f35b6102756004803603602081101561026557600080fd5b50356001600160a01b0316610660565b60408051918252519081900360200190f35b6102b86004803603608081101561029d57600080fd5b508035151590602081013590604081013590606001356106b9565b005b61023361081c565b6102b8600480360360408110156102d857600080fd5b5060ff813516906020013561082b565b6102f06109fa565b60408051951515865260208601949094528484019290925260608401526080830152519081900360a00190f35b610233610a12565b6102756004803603602081101561033b57600080fd5b50356001600160a01b0316610a21565b610233610ab3565b610233610ac2565b6102b8610ad1565b6102b8600480360360e081101561037957600080fd5b5080359060208101359060408101359060608101359060808101359060a08101359060c00135610b8f565b610275610d5f565b610275600480360360208110156103c257600080fd5b5035610d7b565b610233610da9565b610275600480360360608110156103e757600080fd5b50803590602081013590604001356001600160a01b0316610db8565b6102756004803603602081101561041957600080fd5b50356001600160a01b031661124a565b610233611525565b610439611534565b6040805160208082528351818301528351919283929083019185019080838360005b8381101561047357818101518382015260200161045b565b50505050905090810190601f1680156104a05780820380516001836020036101000a031916815260200191505b509250505060405180910390f35b6104d4600480360360208110156104c457600080fd5b50356001600160a01b031661156b565b604080519115158252519081900360200190f35b61050e600480360360208110156104fe57600080fd5b50356001600160a01b03166116b6565b604080519485526020850193909352838301919091526060830152519081900360800190f35b6102756116dd565b610275611710565b61027561173f565b6105546119ec565b604080519687526020870195909552858501939093526060850191909152608084015260a0830152519081900360c00190f35b610275611a01565b610275611aa6565b610275611aab565b610275611b3d565b6102b8600480360360c08110156105bd57600080fd5b506001600160a01b038135811691602081013582169160408201358116916060810135821691608082013581169160a0013516611b82565b6102b86004803603602081101561060b57600080fd5b50356001600160a01b0316611cc6565b6102b86004803603602081101561063157600080fd5b50356001600160a01b0316611d6f565b610275611e83565b610275611e89565b6039546001600160a01b031681565b60008061066c83610a21565b6001600160a01b0384166000908152604760205260409020549091506127108210610699578092506106b2565b6106af6127106106a98385611e8f565b90611ee8565b92505b5050919050565b6106c1611f4f565b6001600160a01b03166106d2610da9565b6001600160a01b03161461072d576040805162461bcd60e51b815260206004820181905260248201527f4f776e61626c653a2063616c6c6572206973206e6f7420746865206f776e6572604482015290519081900360640190fd5b603c54610743906103e8906106a9906019611e8f565b8311156107815760405162461bcd60e51b81526004018080602001828103825260238152602001806125da6023913960400191505060405180910390fd5b8361079057603c548210610796565b603c5482115b6107d15760405162461bcd60e51b815260040180806020018281038252602281526020018061251b6022913960400191505060405180910390fd5b6040805160a08101825294151580865260208601859052908501839052606085018290524360809095018590526042805460ff19169091179055604392909255604455604555604655565b6036546001600160a01b031681565b610833611f4f565b6001600160a01b0316610844610da9565b6001600160a01b03161461089f576040805162461bcd60e51b815260206004820181905260248201527f4f776e61626c653a2063616c6c6572206973206e6f7420746865206f776e6572604482015290519081900360640190fd5b60008260048111156108ad57fe5b14156108bd57603d8190556109f6565b60018260048111156108cb57fe5b141561091c576127108111156109125760405162461bcd60e51b81526004018080602001828103825260308152602001806126a76030913960400191505060405180910390fd5b603f8190556109f6565b600282600481111561092a57fe5b141561097b576127108111156109715760405162461bcd60e51b815260040180806020018281038252602c8152602001806125ae602c913960400191505060405180910390fd5b60408190556109f6565b600382600481111561098957fe5b14156109995760418190556109f6565b60048260048111156109a757fe5b14156109f657633b9aca008111156109f05760405162461bcd60e51b81526004018080602001828103825260288152602001806125fd6028913960400191505060405180910390fd5b603e8190555b5050565b60425460435460445460455460465460ff9094169385565b603b546001600160a01b031681565b6000610a2b6124cc565b506001600160a01b03821660009081526047602090815260408083208151608081018352815481526001820154938101939093526002810154918301829052600301546060830152909190610a81904390611f53565b60208301519091508015610aa657610a9f816106a984612710611e8f565b9350610aab565b600093505b505050919050565b603a546001600160a01b031681565b6035546001600160a01b031681565b610ad9611f4f565b6001600160a01b0316610aea610da9565b6001600160a01b031614610b45576040805162461bcd60e51b815260206004820181905260248201527f4f776e61626c653a2063616c6c6572206973206e6f7420746865206f776e6572604482015290519081900360640190fd5b600080546040516001600160a01b03909116907f8be0079c531659141344cd1fd0a4f28419497f9722a3daafe3b4186f6b6457e0908390a3600080546001600160a01b0319169055565b610b97611f4f565b6001600160a01b0316610ba8610da9565b6001600160a01b031614610c03576040805162461bcd60e51b815260206004820181905260248201527f4f776e61626c653a2063616c6c6572206973206e6f7420746865206f776e6572604482015290519081900360640190fd5b603c5415610c425760405162461bcd60e51b81526004018080602001828103825260308152602001806126d76030913960400191505060405180910390fd5b612710841115610c835760405162461bcd60e51b81526004018080602001828103825260308152602001806126a76030913960400191505060405180910390fd5b612710831115610cc45760405162461bcd60e51b815260040180806020018281038252602c8152602001806125ae602c913960400191505060405180910390fd5b633b9aca00851115610d075760405162461bcd60e51b81526004018080602001828103825260288152602001806125fd6028913960400191505060405180910390fd5b6040805160c08101825288815260208101889052808201879052606081018690526080810185905260a001839052603c97909755603d95909555603e93909355603f9190915590925560419190915560485543604955565b6000610d75610d6c611b3d565b60485490611f53565b90505b90565b6000610da364e8d4a510006106a9610d91611a01565b6106a986670de0b6b3a7640000611e8f565b92915050565b6000546001600160a01b031690565b60006001600160a01b038216610e15576040805162461bcd60e51b815260206004820152601f60248201527f426f6e644465706f7369746f72793a20496e76616c6964206164647265737300604482015290519081900360640190fd5b610e1d611fb0565b6041546048541115610e605760405162461bcd60e51b815260040180806020018281038252602481526020018061253d6024913960400191505060405180910390fd5b6000610e6a611a01565b905080841015610eab5760405162461bcd60e51b81526004018080602001828103825260338152602001806126746033913960400191505060405180910390fd5b6000610ec6620f42406106a988610ec061173f565b90611e8f565b90506000610ed382610d7b565b9050662386f26fc10000811015610f31576040805162461bcd60e51b815260206004820152601e60248201527f426f6e644465706f7369746f72793a20426f6e6420746f6f20736d616c6c0000604482015290519081900360640190fd5b610f39611aab565b811115610f8d576040805162461bcd60e51b815260206004820152601e60248201527f426f6e644465706f7369746f72793a20426f6e6420746f6f206c617267650000604482015290519081900360640190fd5b6000610fad6127106106a9603c6004015485611e8f90919063ffffffff16565b603954909150610fc8906001600160a01b031633308b611fc4565b603954603a54604080517f095ea7b30000000000000000000000000000000000000000000000000000000081526001600160a01b039283166004820152602481018c90529051919092169163095ea7b39160448083019260209291908290030181600087803b15801561103a57600080fd5b505af115801561104e573d6000803e3d6000fd5b505050506040513d602081101561106457600080fd5b5050603a546039546001600160a01b039182169163bc157ac1918b911661108b8686612052565b6040518463ffffffff1660e01b815260040180848152602001836001600160a01b031681526020018281526020019350505050600060405180830381600087803b1580156110d857600080fd5b505af11580156110ec573d6000803e3d6000fd5b505050508060001461111557603454603554611115916001600160a01b039182169116836120ac565b6048546111229083612052565b604855604080516080810182526001600160a01b03881660009081526047602052919091205481906111549085612052565b8152603d805460208084019190915243604080850182905260609485018a90526001600160a01b038c1660009081526047845281902086518155928601516001840155850151600283015593909201516003909201919091555485916111b991612052565b604080516001600160a01b038a168152602081018c9052815186927fd52c75b244055af9364c0a5dc0da7868f6ae104012f245ad2702031af04d9b8e928290030190a46112046116dd565b61120c611a01565b6040517f2cb17bd1fd2a1fecfefae2de1e6a59194abaa62179652924ccdca01617f0bf1690600090a361123d612118565b50925050505b9392505050565b60006112546124cc565b506001600160a01b0382166000908152604760209081526040808320815160808101835281548152600182015493810193909352600281015491830191909152600301546060820152906112a784610a21565b905061271081106113aa576001600160a01b03841660008181526047602090815260408083208381556001810184905560028101849055600301839055855181519081529182019290925281517f51c99f515c87b0d95ba97f616edd182e8f161c4932eac17c6fefe9dab58b77b1929181900390910190a260355482516040805163a9059cbb60e01b81526001600160a01b03888116600483015260248201939093529051919092169163a9059cbb9160448083019260209291908290030181600087803b15801561137857600080fd5b505af115801561138c573d6000803e3d6000fd5b505050506040513d60208110156113a257600080fd5b506106b29050565b81516000906113c190612710906106a99085611e8f565b905060405180608001604052806113e5838660000151611f5390919063ffffffff16565b815260200161140f611404866040015143611f5390919063ffffffff16565b602087015190611f53565b8152436020808301919091526060808701516040938401526001600160a01b0389166000818152604784528490208551808255868501516001830155868601516002830155959092015160039092019190915582518581529182019390935281517f51c99f515c87b0d95ba97f616edd182e8f161c4932eac17c6fefe9dab58b77b1929181900390910190a26035546040805163a9059cbb60e01b81526001600160a01b038881166004830152602482018590529151919092169163a9059cbb9160448083019260209291908290030181600087803b1580156114f157600080fd5b505af1158015611505573d6000803e3d6000fd5b505050506040513d602081101561151b57600080fd5b5050505050919050565b6034546001600160a01b031681565b6040805180820190915260208082527f436c61696d53776170204b4c41592d4b4254204c50204465706f7369746f72799082015290565b6035546000906001600160a01b03838116911614156115d1576040805162461bcd60e51b815260206004820181905260248201527f426f6e6454726561737572793a2063616e6e6f74207769746864726177204b50604482015290519081900360640190fd5b6039546001600160a01b038381169116141561161e5760405162461bcd60e51b81526004018080602001828103825260278152602001806125876027913960400191505060405180910390fd5b603454604080516370a0823160e01b815230600482015290516116ae926001600160a01b0390811692908616916370a0823191602480820192602092909190829003018186803b15801561167157600080fd5b505afa158015611685573d6000803e3d6000fd5b505050506040513d602081101561169b57600080fd5b50516001600160a01b03851691906120ac565b506001919050565b60476020526000908152604090208054600182015460028301546003909301549192909184565b6000610d75670de0b6b3a76400006106a9603c600501546106a9670de0b6b3a7640000610ec0633b9aca00610ec0610d5f565b600061172b60646106a96117226116dd565b603c5490611e8f565b603e54909150811015610d785750603e5490565b600080603960009054906101000a90046001600160a01b03166001600160a01b03166318160ddd6040518163ffffffff1660e01b815260040160206040518083038186803b15801561179057600080fd5b505afa1580156117a4573d6000803e3d6000fd5b505050506040513d60208110156117ba57600080fd5b5051603754603954604080516370a0823160e01b81526001600160a01b039283166004820152905193945060009391909216916370a08231916024808301926020929190829003018186803b15801561181257600080fd5b505afa158015611826573d6000803e3d6000fd5b505050506040513d602081101561183c57600080fd5b5051603854603954604080516370a0823160e01b81526001600160a01b039283166004820152905193945060009391909216916370a08231916024808301926020929190829003018186803b15801561189457600080fd5b505afa1580156118a8573d6000803e3d6000fd5b505050506040513d60208110156118be57600080fd5b50516036546038546040805163b3596f0760e01b81526001600160a01b039283166004820152905193945060009361194e93929092169163b3596f0791602480820192602092909190829003018186803b15801561191b57600080fd5b505afa15801561192f573d6000803e3d6000fd5b505050506040513d602081101561194557600080fd5b50518390611e8f565b6036546037546040805163b3596f0760e01b81526001600160a01b03928316600482015290516119d693929092169163b3596f0791602480820192602092909190829003018186803b1580156119a357600080fd5b505afa1580156119b7573d6000803e3d6000fd5b505050506040513d60208110156119cd57600080fd5b50518590611e8f565b0190506119e38185611ee8565b94505050505090565b603c54603d54603e54603f5460405460415486565b6036546035546040805163b3596f0760e01b81526001600160a01b03928316600482015290516000938493169163b3596f07916024808301926020929190829003018186803b158015611a5357600080fd5b505afa158015611a67573d6000803e3d6000fd5b505050506040513d6020811015611a7d57600080fd5b505190506000611a8b611710565b9050611a9f633b9aca006106a98484611e8f565b9250505090565b600181565b6000610d75620f42406106a9603c60030154603560009054906101000a90046001600160a01b03166001600160a01b03166318160ddd6040518163ffffffff1660e01b815260040160206040518083038186803b158015611b0b57600080fd5b505afa158015611b1f573d6000803e3d6000fd5b505050506040513d6020811015611b3557600080fd5b505190611e8f565b600080611b5560495443611f5390919063ffffffff16565b603d54604854919250611b6c916106a99084611e8f565b9150604854821115611b7e5760485491505b5090565b6000611b8c6121f8565b90506001548111611bce5760405162461bcd60e51b815260040180806020018281038252602e815260200180612646602e913960400191505060405180910390fd5b60018190556001600160a01b038716611be657600080fd5b603580546001600160a01b0319166001600160a01b03898116919091179091558416611c1157600080fd5b603780546001600160a01b0319166001600160a01b03868116919091179091558316611c3c57600080fd5b603880546001600160a01b0319166001600160a01b03858116919091179091558616611c6757600080fd5b603480546001600160a01b0319166001600160a01b03888116919091179091558516611c9257600080fd5b50603980546001600160a01b039586166001600160a01b031991821617909155603680549290951691161790925550505050565b611cce611f4f565b6001600160a01b0316611cdf610da9565b6001600160a01b031614611d3a576040805162461bcd60e51b815260206004820181905260248201527f4f776e61626c653a2063616c6c6572206973206e6f7420746865206f776e6572604482015290519081900360640190fd5b6001600160a01b038116611d4d57600080fd5b603a80546001600160a01b0319166001600160a01b0392909216919091179055565b611d77611f4f565b6001600160a01b0316611d88610da9565b6001600160a01b031614611de3576040805162461bcd60e51b815260206004820181905260248201527f4f776e61626c653a2063616c6c6572206973206e6f7420746865206f776e6572604482015290519081900360640190fd5b6001600160a01b038116611e285760405162461bcd60e51b81526004018080602001828103825260268152602001806124f56026913960400191505060405180910390fd5b600080546040516001600160a01b03808516939216917f8be0079c531659141344cd1fd0a4f28419497f9722a3daafe3b4186f6b6457e091a3600080546001600160a01b0319166001600160a01b0392909216919091179055565b60495481565b60485481565b600082611e9e57506000610da3565b82820282848281611eab57fe5b04146112435760405162461bcd60e51b81526004018080602001828103825260218152602001806126256021913960400191505060405180910390fd5b6000808211611f3e576040805162461bcd60e51b815260206004820152601a60248201527f536166654d6174683a206469766973696f6e206279207a65726f000000000000604482015290519081900360640190fd5b818381611f4757fe5b049392505050565b3390565b600082821115611faa576040805162461bcd60e51b815260206004820152601e60248201527f536166654d6174683a207375627472616374696f6e206f766572666c6f770000604482015290519081900360640190fd5b50900390565b611fbb610d6c611b3d565b60485543604955565b604080516001600160a01b0380861660248301528416604482015260648082018490528251808303909101815260849091019091526020810180517bffffffffffffffffffffffffffffffffffffffffffffffffffffffff167f23b872dd0000000000000000000000000000000000000000000000000000000017905261204c9085906121fd565b50505050565b600082820183811015611243576040805162461bcd60e51b815260206004820152601b60248201527f536166654d6174683a206164646974696f6e206f766572666c6f770000000000604482015290519081900360640190fd5b604080516001600160a01b038416602482015260448082018490528251808303909101815260649091019091526020810180517bffffffffffffffffffffffffffffffffffffffffffffffffffffffff1663a9059cbb60e01b1790526121139084906121fd565b505050565b60455460465460009161212b9190612052565b6043549091501580159061213f5750804310155b156121f557603c5460425460ff161561217957604354603c5461216191612052565b603c819055604454116121745760006043555b61219b565b604354603c5461218891611f53565b603c8190556044541061219b5760006043555b43604655603c546043546042546040805185815260208101949094528381019290925260ff1615156060830152517fb923e581a0f83128e9e1d8297aa52b18d6744310476e0b54509c054cd7a93b2a9181900360800190a1505b50565b600190565b6060612252826040518060400160405280602081526020017f5361666545524332303a206c6f772d6c6576656c2063616c6c206661696c6564815250856001600160a01b03166122ae9092919063ffffffff16565b8051909150156121135780806020019051602081101561227157600080fd5b50516121135760405162461bcd60e51b815260040180806020018281038252602a815260200180612707602a913960400191505060405180910390fd5b60606122bd84846000856122c5565b949350505050565b606030318311156123075760405162461bcd60e51b81526004018080602001828103825260268152602001806125616026913960400191505060405180910390fd5b61231085612422565b612361576040805162461bcd60e51b815260206004820152601d60248201527f416464726573733a2063616c6c20746f206e6f6e2d636f6e7472616374000000604482015290519081900360640190fd5b60006060866001600160a01b031685876040518082805190602001908083835b602083106123a05780518252601f199092019160209182019101612381565b6001836020036101000a03801982511681845116808217855250505050505090500191505060006040518083038185875af1925050503d8060008114612402576040519150601f19603f3d011682016040523d82523d6000602084013e612407565b606091505b5091509150612417828286612428565b979650505050505050565b3b151590565b60608315612437575081611243565b8251156124475782518084602001fd5b8160405162461bcd60e51b81526004018080602001828103825283818151815260200191508051906020019080838360005b83811015612491578181015183820152602001612479565b50505050905090810190601f1680156124be5780820380516001836020036101000a031916815260200191505b509250505060405180910390fd5b604051806080016040528060008152602001600081526020016000815260200160008152509056fe4f776e61626c653a206e6577206f776e657220697320746865207a65726f2061646472657373426f6e644465706f7369746f72793a2077726f6e67207461726765742076616c7565426f6e644465706f7369746f72793a204d61782063617061636974792072656163686564416464726573733a20696e73756666696369656e742062616c616e636520666f722063616c6c426f6e6454726561737572793a2063616e6e6f74207769746864726177207072696e6369706c65426f6e644465706f7369746f72793a2044414f206665652063616e6e6f7420657863656564207061796f7574426f6e644465706f7369746f72793a20696e6372656d656e7420746f6f206c61726765426f6e644465706f7369746f72793a206d696e20646973636f756e74207261746520657863656564536166654d6174683a206d756c7469706c69636174696f6e206f766572666c6f77436f6e747261637420696e7374616e63652068617320616c7265616479206265656e20696e697469616c697a6564426f6e644465706f7369746f72793a20536c697070616765206c696d69743a206d6f7265207468616e206d6178207072696365426f6e644465706f7369746f72793a207061796f75742063616e6e6f742062652061626f766520312070657263656e74426f6e644465706f7369746f72793a20626f6e6473206d75737420626520696e697469616c697a65642066726f6d20305361666545524332303a204552433230206f7065726174696f6e20646964206e6f742073756363656564a2646970667358221220bdcc642003169ef6b42c3f7b0c242b2d0e9987564676f81841ff211f43f3c4d764736f6c63430007050033",
  "linkReferences": {},
  "deployedLinkReferences": {}
}