{
  "_format": "hh-sol-artifact-1",
  "contractName": "Booster",
  "sourceName": "contracts/Booster.sol",
  "abi": [
    {
      "inputs": [
        {
          "internalType": "address",
          "name": "_staker",
          "type": "address"
        },
        {
          "internalType": "address",
          "name": "_minter",
          "type": "address"
        }
      ],
      "stateMutability": "nonpayable",
      "type": "constructor"
    },
    {
      "anonymous": false,
      "inputs": [
        {
          "indexed": true,
          "internalType": "address",
          "name": "user",
          "type": "address"
        },
        {
          "indexed": true,
          "internalType": "uint256",
          "name": "poolid",
          "type": "uint256"
        },
        {
          "indexed": false,
          "internalType": "uint256",
          "name": "amount",
          "type": "uint256"
        }
      ],
      "name": "Deposited",
      "type": "event"
    },
    {
      "anonymous": false,
      "inputs": [
        {
          "indexed": true,
          "internalType": "address",
          "name": "user",
          "type": "address"
        },
        {
          "indexed": true,
          "internalType": "uint256",
          "name": "poolid",
          "type": "uint256"
        },
        {
          "indexed": false,
          "internalType": "uint256",
          "name": "amount",
          "type": "uint256"
        }
      ],
      "name": "Withdrawn",
      "type": "event"
    },
    {
      "inputs": [],
      "name": "FEE_DENOMINATOR",
      "outputs": [
        {
          "internalType": "uint256",
          "name": "",
          "type": "uint256"
        }
      ],
      "stateMutability": "view",
      "type": "function"
    },
    {
      "inputs": [],
      "name": "MaxFees",
      "outputs": [
        {
          "internalType": "uint256",
          "name": "",
          "type": "uint256"
        }
      ],
      "stateMutability": "view",
      "type": "function"
    },
    {
      "inputs": [
        {
          "internalType": "address",
          "name": "_lptoken",
          "type": "address"
        },
        {
          "internalType": "address",
          "name": "_gauge",
          "type": "address"
        }
      ],
      "name": "addPool",
      "outputs": [
        {
          "internalType": "bool",
          "name": "",
          "type": "bool"
        }
      ],
      "stateMutability": "nonpayable",
      "type": "function"
    },
    {
      "inputs": [
        {
          "internalType": "uint256",
          "name": "_pid",
          "type": "uint256"
        },
        {
          "internalType": "uint256",
          "name": "_amount",
          "type": "uint256"
        }
      ],
      "name": "deposit",
      "outputs": [
        {
          "internalType": "bool",
          "name": "",
          "type": "bool"
        }
      ],
      "stateMutability": "nonpayable",
      "type": "function"
    },
    {
      "inputs": [
        {
          "internalType": "uint256",
          "name": "_pid",
          "type": "uint256"
        }
      ],
      "name": "depositAll",
      "outputs": [
        {
          "internalType": "bool",
          "name": "",
          "type": "bool"
        }
      ],
      "stateMutability": "nonpayable",
      "type": "function"
    },
    {
      "inputs": [],
      "name": "distributionrate",
      "outputs": [
        {
          "internalType": "uint256",
          "name": "",
          "type": "uint256"
        }
      ],
      "stateMutability": "view",
      "type": "function"
    },
    {
      "inputs": [
        {
          "internalType": "uint256",
          "name": "_pid",
          "type": "uint256"
        }
      ],
      "name": "earmarkFees",
      "outputs": [
        {
          "internalType": "bool",
          "name": "",
          "type": "bool"
        }
      ],
      "stateMutability": "nonpayable",
      "type": "function"
    },
    {
      "inputs": [],
      "name": "earmarkIncentive",
      "outputs": [
        {
          "internalType": "uint256",
          "name": "",
          "type": "uint256"
        }
      ],
      "stateMutability": "view",
      "type": "function"
    },
    {
      "inputs": [],
      "name": "earmarkRewards",
      "outputs": [
        {
          "internalType": "bool",
          "name": "",
          "type": "bool"
        }
      ],
      "stateMutability": "nonpayable",
      "type": "function"
    },
    {
      "inputs": [],
      "name": "ekl",
      "outputs": [
        {
          "internalType": "address",
          "name": "",
          "type": "address"
        }
      ],
      "stateMutability": "view",
      "type": "function"
    },
    {
      "inputs": [],
      "name": "escrow",
      "outputs": [
        {
          "internalType": "address",
          "name": "",
          "type": "address"
        }
      ],
      "stateMutability": "view",
      "type": "function"
    },
    {
      "inputs": [],
      "name": "feeManager",
      "outputs": [
        {
          "internalType": "address",
          "name": "",
          "type": "address"
        }
      ],
      "stateMutability": "view",
      "type": "function"
    },
    {
      "inputs": [],
      "name": "feeToken",
      "outputs": [
        {
          "internalType": "address",
          "name": "",
          "type": "address"
        }
      ],
      "stateMutability": "view",
      "type": "function"
    },
    {
      "inputs": [
        {
          "internalType": "address",
          "name": "",
          "type": "address"
        }
      ],
      "name": "gaugeMap",
      "outputs": [
        {
          "internalType": "bool",
          "name": "",
          "type": "bool"
        }
      ],
      "stateMutability": "view",
      "type": "function"
    },
    {
      "inputs": [
        {
          "internalType": "address",
          "name": "_gaugeAddress",
          "type": "address"
        },
        {
          "internalType": "uint256",
          "name": "_amount",
          "type": "uint256"
        }
      ],
      "name": "gaugevote",
      "outputs": [
        {
          "internalType": "bool",
          "name": "",
          "type": "bool"
        }
      ],
      "stateMutability": "nonpayable",
      "type": "function"
    },
    {
      "inputs": [],
      "name": "isShutdown",
      "outputs": [
        {
          "internalType": "bool",
          "name": "",
          "type": "bool"
        }
      ],
      "stateMutability": "view",
      "type": "function"
    },
    {
      "inputs": [],
      "name": "kpdisrate",
      "outputs": [
        {
          "internalType": "uint256",
          "name": "",
          "type": "uint256"
        }
      ],
      "stateMutability": "view",
      "type": "function"
    },
    {
      "inputs": [],
      "name": "lockFees",
      "outputs": [
        {
          "internalType": "address",
          "name": "",
          "type": "address"
        }
      ],
      "stateMutability": "view",
      "type": "function"
    },
    {
      "inputs": [],
      "name": "lockIncentive",
      "outputs": [
        {
          "internalType": "uint256",
          "name": "",
          "type": "uint256"
        }
      ],
      "stateMutability": "view",
      "type": "function"
    },
    {
      "inputs": [],
      "name": "lockRewards",
      "outputs": [
        {
          "internalType": "address",
          "name": "",
          "type": "address"
        }
      ],
      "stateMutability": "view",
      "type": "function"
    },
    {
      "inputs": [
        {
          "internalType": "address",
          "name": "_to",
          "type": "address"
        },
        {
          "internalType": "uint256",
          "name": "_amount",
          "type": "uint256"
        }
      ],
      "name": "mint_KP",
      "outputs": [],
      "stateMutability": "nonpayable",
      "type": "function"
    },
    {
      "inputs": [],
      "name": "minter",
      "outputs": [
        {
          "internalType": "address",
          "name": "",
          "type": "address"
        }
      ],
      "stateMutability": "view",
      "type": "function"
    },
    {
      "inputs": [],
      "name": "owner",
      "outputs": [
        {
          "internalType": "address",
          "name": "",
          "type": "address"
        }
      ],
      "stateMutability": "view",
      "type": "function"
    },
    {
      "inputs": [],
      "name": "platformFee",
      "outputs": [
        {
          "internalType": "uint256",
          "name": "",
          "type": "uint256"
        }
      ],
      "stateMutability": "view",
      "type": "function"
    },
    {
      "inputs": [
        {
          "internalType": "uint256",
          "name": "",
          "type": "uint256"
        }
      ],
      "name": "poolInfo",
      "outputs": [
        {
          "internalType": "address",
          "name": "lptoken",
          "type": "address"
        },
        {
          "internalType": "address",
          "name": "token",
          "type": "address"
        },
        {
          "internalType": "address",
          "name": "gauge",
          "type": "address"
        },
        {
          "internalType": "bool",
          "name": "shutdown",
          "type": "bool"
        }
      ],
      "stateMutability": "view",
      "type": "function"
    },
    {
      "inputs": [],
      "name": "poolLength",
      "outputs": [
        {
          "internalType": "uint256",
          "name": "",
          "type": "uint256"
        }
      ],
      "stateMutability": "view",
      "type": "function"
    },
    {
      "inputs": [],
      "name": "poolManager",
      "outputs": [
        {
          "internalType": "address",
          "name": "",
          "type": "address"
        }
      ],
      "stateMutability": "view",
      "type": "function"
    },
    {
      "inputs": [
        {
          "internalType": "address",
          "name": "_address",
          "type": "address"
        },
        {
          "internalType": "uint256",
          "name": "_amount",
          "type": "uint256"
        }
      ],
      "name": "rewardClaimed",
      "outputs": [
        {
          "internalType": "bool",
          "name": "",
          "type": "bool"
        }
      ],
      "stateMutability": "nonpayable",
      "type": "function"
    },
    {
      "inputs": [],
      "name": "rewardFactory",
      "outputs": [
        {
          "internalType": "address",
          "name": "",
          "type": "address"
        }
      ],
      "stateMutability": "view",
      "type": "function"
    },
    {
      "inputs": [
        {
          "internalType": "address",
          "name": "_asset",
          "type": "address"
        },
        {
          "internalType": "address",
          "name": "_to",
          "type": "address"
        }
      ],
      "name": "sendExtras",
      "outputs": [
        {
          "internalType": "bool",
          "name": "",
          "type": "bool"
        }
      ],
      "stateMutability": "nonpayable",
      "type": "function"
    },
    {
      "inputs": [
        {
          "internalType": "address",
          "name": "_asset",
          "type": "address"
        },
        {
          "internalType": "address",
          "name": "_to",
          "type": "address"
        }
      ],
      "name": "sendExtrasfromVoterProxy",
      "outputs": [
        {
          "internalType": "bool",
          "name": "",
          "type": "bool"
        }
      ],
      "stateMutability": "nonpayable",
      "type": "function"
    },
    {
      "inputs": [
        {
          "internalType": "address",
          "name": "_rfactory",
          "type": "address"
        },
        {
          "internalType": "address",
          "name": "_tfactory",
          "type": "address"
        }
      ],
      "name": "setFactories",
      "outputs": [],
      "stateMutability": "nonpayable",
      "type": "function"
    },
    {
      "inputs": [
        {
          "internalType": "address",
          "name": "_feetoken",
          "type": "address"
        }
      ],
      "name": "setFeeInfo",
      "outputs": [],
      "stateMutability": "nonpayable",
      "type": "function"
    },
    {
      "inputs": [
        {
          "internalType": "address",
          "name": "_feeM",
          "type": "address"
        }
      ],
      "name": "setFeeManager",
      "outputs": [],
      "stateMutability": "nonpayable",
      "type": "function"
    },
    {
      "inputs": [
        {
          "internalType": "uint256",
          "name": "_lockFees",
          "type": "uint256"
        },
        {
          "internalType": "uint256",
          "name": "_stakerFees",
          "type": "uint256"
        },
        {
          "internalType": "uint256",
          "name": "_callerFees",
          "type": "uint256"
        },
        {
          "internalType": "uint256",
          "name": "_platform",
          "type": "uint256"
        },
        {
          "internalType": "uint256",
          "name": "_distrrate",
          "type": "uint256"
        }
      ],
      "name": "setFees",
      "outputs": [],
      "stateMutability": "nonpayable",
      "type": "function"
    },
    {
      "inputs": [
        {
          "internalType": "uint256",
          "name": "_kprate",
          "type": "uint256"
        }
      ],
      "name": "setKPdisrate",
      "outputs": [
        {
          "internalType": "uint256",
          "name": "",
          "type": "uint256"
        }
      ],
      "stateMutability": "nonpayable",
      "type": "function"
    },
    {
      "inputs": [
        {
          "internalType": "address",
          "name": "_owner",
          "type": "address"
        }
      ],
      "name": "setOwner",
      "outputs": [],
      "stateMutability": "nonpayable",
      "type": "function"
    },
    {
      "inputs": [
        {
          "internalType": "address",
          "name": "_poolM",
          "type": "address"
        }
      ],
      "name": "setPoolManager",
      "outputs": [],
      "stateMutability": "nonpayable",
      "type": "function"
    },
    {
      "inputs": [
        {
          "internalType": "address",
          "name": "_rewards",
          "type": "address"
        },
        {
          "internalType": "address",
          "name": "_stakerRewards",
          "type": "address"
        }
      ],
      "name": "setRewardContracts",
      "outputs": [],
      "stateMutability": "nonpayable",
      "type": "function"
    },
    {
      "inputs": [
        {
          "internalType": "address",
          "name": "_treasury",
          "type": "address"
        }
      ],
      "name": "setTreasury",
      "outputs": [],
      "stateMutability": "nonpayable",
      "type": "function"
    },
    {
      "inputs": [
        {
          "internalType": "address",
          "name": "_voteDelegate",
          "type": "address"
        }
      ],
      "name": "setVoteDelegate",
      "outputs": [],
      "stateMutability": "nonpayable",
      "type": "function"
    },
    {
      "inputs": [
        {
          "internalType": "uint256",
          "name": "_pid",
          "type": "uint256"
        }
      ],
      "name": "shutdownPool",
      "outputs": [
        {
          "internalType": "bool",
          "name": "",
          "type": "bool"
        }
      ],
      "stateMutability": "nonpayable",
      "type": "function"
    },
    {
      "inputs": [],
      "name": "shutdownSystem",
      "outputs": [],
      "stateMutability": "nonpayable",
      "type": "function"
    },
    {
      "inputs": [],
      "name": "staker",
      "outputs": [
        {
          "internalType": "address",
          "name": "",
          "type": "address"
        }
      ],
      "stateMutability": "view",
      "type": "function"
    },
    {
      "inputs": [],
      "name": "stakerIncentive",
      "outputs": [
        {
          "internalType": "uint256",
          "name": "",
          "type": "uint256"
        }
      ],
      "stateMutability": "view",
      "type": "function"
    },
    {
      "inputs": [],
      "name": "stakerRewards",
      "outputs": [
        {
          "internalType": "address",
          "name": "",
          "type": "address"
        }
      ],
      "stateMutability": "view",
      "type": "function"
    },
    {
      "inputs": [],
      "name": "tokenFactory",
      "outputs": [
        {
          "internalType": "address",
          "name": "",
          "type": "address"
        }
      ],
      "stateMutability": "view",
      "type": "function"
    },
    {
      "inputs": [],
      "name": "treasury",
      "outputs": [
        {
          "internalType": "address",
          "name": "",
          "type": "address"
        }
      ],
      "stateMutability": "view",
      "type": "function"
    },
    {
      "inputs": [],
      "name": "voteDelegate",
      "outputs": [
        {
          "internalType": "address",
          "name": "",
          "type": "address"
        }
      ],
      "stateMutability": "view",
      "type": "function"
    },
    {
      "inputs": [
        {
          "internalType": "uint256",
          "name": "_pid",
          "type": "uint256"
        },
        {
          "internalType": "uint256",
          "name": "_amount",
          "type": "uint256"
        }
      ],
      "name": "withdraw",
      "outputs": [
        {
          "internalType": "bool",
          "name": "",
          "type": "bool"
        }
      ],
      "stateMutability": "nonpayable",
      "type": "function"
    },
    {
      "inputs": [
        {
          "internalType": "uint256",
          "name": "_pid",
          "type": "uint256"
        }
      ],
      "name": "withdrawAll",
      "outputs": [
        {
          "internalType": "bool",
          "name": "",
          "type": "bool"
        }
      ],
      "stateMutability": "nonpayable",
      "type": "function"
    }
  ],
  "bytecode": "0x60c06040526107d06000556107c6600155600a6002556117706003556107d060045561138860055534801561003357600080fd5b50604051612f90380380612f908339818101604052604081101561005657600080fd5b508051602090910151601080546001600160601b0319606094851b8116608052600680546001600160a01b031990811633908117909255600b8054821683179055600780548216831790556008805482169092179091556001600160a81b0319909216909255600c80549091169055911b1660a05260805160601c60a05160601c612e5661013a60003980610a0d52806111085280611689525080610b1b5280610be95280610c675280610d3a52806110215280611268528061132552806115015280611cc35280611e4a5280611ed1528061262e528061272d5250612e566000f3fe608060405234801561001057600080fd5b50600436106103415760003560e01c80637aef6715116101bd578063c6f678bd116100f9578063dbe981ef116100a2578063e2fdcc171161007c578063e2fdcc17146107c8578063e77772fe146107d0578063eb511dd4146107d8578063f0f442601461080657610341565b8063dbe981ef14610771578063dc4c90d31461079d578063e2bbb158146107a557610341565b8063cfb9cfba116100d3578063cfb9cfba14610761578063d0fb020314610769578063d73792a91461057357610341565b8063c6f678bd146106f8578063ca10ec2314610715578063cb0d5b521461073b57610341565b806395539a1d116101665780639f00332b116101405780639f00332b146106b2578063ab366292146106ba578063b99eb384146106c2578063bf86d690146106f057610341565b806395539a1d14610639578063958e2d31146106675780639aa4c2e51461068457610341565b8063878de1d011610197578063878de1d0146106215780638da5cb5b146106295780638fd281dd1461063157610341565b80637aef6715146105a15780637cddae7b146105c757806383b78188146105f557610341565b80633a088cd21161028c5780635ebaf1db1161023557806362d28ac71161020f57806362d28ac714610563578063647846a51461056b5780637303df9a14610573578063748743231461057b57610341565b80635ebaf1db1461053657806360cafe841461053e57806361d027b31461055b57610341565b8063472d35b911610266578063472d35b9146105005780634e35868514610526578063509406181461052e57610341565b80633a088cd2146104a957806343b40a46146104b1578063441a3e70146104dd57610341565b80631526fe27116102ee57806326232a2e116102c857806326232a2e14610491578063354af91914610499578063376d771a146104a157610341565b80631526fe271461040657806321bf906714610458578063245e4bf01461048957610341565b8063081e3eda1161031f578063081e3eda146103d05780630a837297146103d857806313af4035146103e057610341565b806304a66b481461034657806305a72a481461037d57806307546172146103ac575b600080fd5b61037b600480360360a081101561035c57600080fd5b508035906020810135906040810135906060810135906080013561082c565b005b61039a6004803603602081101561039357600080fd5b5035610962565b60408051918252519081900360200190f35b6103b4610a0b565b604080516001600160a01b039092168252519081900360200190f35b61039a610a2f565b61039a610a35565b61037b600480360360208110156103f657600080fd5b50356001600160a01b0316610a3b565b6104236004803603602081101561041c57600080fd5b5035610aa4565b604080516001600160a01b03958616815293851660208501529190931682820152911515606082015290519081900360800190f35b6104756004803603602081101561046e57600080fd5b5035610af3565b604080519115158252519081900360200190f35b6103b4610f30565b61039a610f3f565b61037b610f45565b6103b46110aa565b61039a6110b9565b61037b600480360360408110156104c757600080fd5b506001600160a01b0381351690602001356110bf565b610475600480360360408110156104f357600080fd5b5080359060200135611191565b61037b6004803603602081101561051657600080fd5b50356001600160a01b03166111f1565b61039a61125a565b61039a611260565b6103b4611266565b6104756004803603602081101561055457600080fd5b503561128a565b6103b46113b9565b61039a6113c8565b6103b46113ce565b61039a6113dd565b61037b6004803603602081101561059157600080fd5b50356001600160a01b03166113e3565b61037b600480360360208110156105b757600080fd5b50356001600160a01b031661144c565b610475600480360360408110156105dd57600080fd5b506001600160a01b03813581169160200135166114b5565b6104756004803603604081101561060b57600080fd5b506001600160a01b03813516906020013561161e565b6103b4611720565b6103b4611738565b610475611747565b61037b6004803603604081101561064f57600080fd5b506001600160a01b03813581169160200135166117a2565b6104756004803603602081101561067d57600080fd5b503561182e565b61037b6004803603604081101561069a57600080fd5b506001600160a01b0381358116916020013516611926565b6103b46119ab565b6103b46119ba565b610475600480360360408110156106d857600080fd5b506001600160a01b03813581169160200135166119c9565b610475611a62565b6104756004803603602081101561070e57600080fd5b5035611a72565b61037b6004803603602081101561072b57600080fd5b50356001600160a01b0316611b12565b6104756004803603602081101561075157600080fd5b50356001600160a01b0316611c44565b6103b4611c59565b6103b4611c68565b6104756004803603604081101561078757600080fd5b506001600160a01b038135169060200135611c77565b6103b4611d59565b610475600480360360408110156107bb57600080fd5b5080359060200135611d68565b6103b4612032565b6103b461204a565b610475600480360360408110156107ee57600080fd5b506001600160a01b0381358116916020013516612059565b61037b6004803603602081101561081c57600080fd5b50356001600160a01b03166122fa565b6007546001600160a01b03163314610873576040805162461bcd60e51b8152602060048201526005602482015264042c2eae8d60db1b604482015290519081900360640190fd5b600061088b8361088586818a8a612363565b90612363565b905061271081146108e3576040805162461bcd60e51b815260206004820152600860248201527f3e4d617846656573000000000000000000000000000000000000000000000000604482015290519081900360640190fd5b6103e886101580156108f75750610bb88611155b801561090557506103e88510155b80156109135750610bb88511155b80156109205750600a8410155b801561092d575060648411155b801561093b57506117708311155b1561095a57600086905560018590556002849055600383905560048290555b505050505050565b6006546000906001600160a01b031633146109ac576040805162461bcd60e51b8152602060048201526005602482015264042c2eae8d60db1b604482015290519081900360640190fd5b6127108210610a02576040805162461bcd60e51b815260206004820152600b60248201527f4d41782072656163686564000000000000000000000000000000000000000000604482015290519081900360640190fd5b50600581905590565b7f000000000000000000000000000000000000000000000000000000000000000081565b60115490565b60055481565b6006546001600160a01b03163314610a82576040805162461bcd60e51b8152602060048201526005602482015264042c2eae8d60db1b604482015290519081900360640190fd5b600680546001600160a01b0319166001600160a01b0392909216919091179055565b60118181548110610ab457600080fd5b60009182526020909120600390910201805460018201546002909201546001600160a01b0391821693509181169190811690600160a01b900460ff1684565b60008073d067c3b871ee9e07ba4205a8f96c182babba6c586001600160a01b03166330baee757f00000000000000000000000000000000000000000000000000000000000000006040518263ffffffff1660e01b815260040180826001600160a01b0316815260200191505060206040518083038186803b158015610b7757600080fd5b505afa158015610b8b573d6000803e3d6000fd5b505050506040513d6020811015610ba157600080fd5b505190508015610c4c57601054604080517f15a0ea6a0000000000000000000000000000000000000000000000000000000081526001600160a01b03928316600482015290517f0000000000000000000000000000000000000000000000000000000000000000909216916315a0ea6a9160248082019260009290919082900301818387803b158015610c3357600080fd5b505af1158015610c47573d6000803e3d6000fd5b505050505b601054604080516370a0823160e01b81526001600160a01b037f000000000000000000000000000000000000000000000000000000000000000081166004830152915160009392909216916370a0823191602480820192602092909190829003018186803b158015610cbd57600080fd5b505afa158015610cd1573d6000803e3d6000fd5b505050506040513d6020811015610ce757600080fd5b505190508015610ddd57600060118581548110610d0057fe5b60009182526020909120600390910201805460028201549192506001600160a01b039081169190811690600160a01b900460ff16610dd9577f00000000000000000000000000000000000000000000000000000000000000006001600160a01b031663d9caed128383876040518463ffffffff1660e01b815260040180846001600160a01b03168152602001836001600160a01b031681526020018281526020019350505050600060405180830381600087803b158015610dc057600080fd5b505af1158015610dd4573d6000803e3d6000fd5b505050505b5050505b601054604080516370a0823160e01b815230600482015290516000926001600160a01b0316916370a08231916024808301926020929190829003018186803b158015610e2857600080fd5b505afa158015610e3c573d6000803e3d6000fd5b505050506040513d6020811015610e5257600080fd5b5051600454909150600090610e769061271090610e709085906123c4565b9061241d565b9050610e828282612484565b600f54601054919350610ea2916001600160a01b039081169116846124e1565b600f546040805163590a41f560e01b81526004810185905290516001600160a01b039092169163590a41f59160248082019260009290919082900301818387803b158015610eef57600080fd5b505af1158015610f03573d6000803e3d6000fd5b5050600c54601054610f2493506001600160a01b03908116925016836124e1565b50600195945050505050565b6009546001600160a01b031681565b60035481565b6006546001600160a01b03163314610f8c576040805162461bcd60e51b8152602060048201526005602482015264042c2eae8d60db1b604482015290519081900360640190fd5b6010805460ff60a01b1916600160a01b17905560005b6011548110156110a757600060118281548110610fbb57fe5b906000526020600020906003020190508060020160149054906101000a900460ff1615610fe8575061109f565b80546002820154604080516301395c5960e31b81526001600160a01b0393841660048201819052928416602482018190529151929391927f0000000000000000000000000000000000000000000000000000000000000000909216916309cae2c89160448082019260009290919082900301818387803b15801561106b57600080fd5b505af192505050801561107c575060015b6110855761109b565b60028301805460ff60a01b1916600160a01b1790555b5050505b600101610fa2565b50565b600e546001600160a01b031681565b60025481565b6006546001600160a01b03163314611106576040805162461bcd60e51b8152602060048201526005602482015264042c2eae8d60db1b604482015290519081900360640190fd5b7f00000000000000000000000000000000000000000000000000000000000000006001600160a01b03166340c10f1983836040518363ffffffff1660e01b815260040180836001600160a01b0316815260200182815260200192505050600060405180830381600087803b15801561117d57600080fd5b505af115801561095a573d6000803e3d6000fd5b6007546000906001600160a01b031633146111db576040805162461bcd60e51b8152602060048201526005602482015264042c2eae8d60db1b604482015290519081900360640190fd5b6111e783833333612566565b5060015b92915050565b6007546001600160a01b03163314611238576040805162461bcd60e51b8152602060048201526005602482015264042c2eae8d60db1b604482015290519081900360640190fd5b600780546001600160a01b0319166001600160a01b0392909216919091179055565b60045481565b60005481565b7f000000000000000000000000000000000000000000000000000000000000000081565b6008546000906001600160a01b031633146112d4576040805162461bcd60e51b8152602060048201526005602482015264042c2eae8d60db1b604482015290519081900360640190fd5b6000601183815481106112e357fe5b60009182526020822060039091020180546002820154604080516301395c5960e31b81526001600160a01b0393841660048201529183166024830152519294507f000000000000000000000000000000000000000000000000000000000000000091909116926309cae2c89260448084019382900301818387803b15801561136a57600080fd5b505af192505050801561137b575060015b50600201805460ff60a01b1916600160a01b17908190556001600160a01b03166000908152601260205260409020805460ff19169055506001919050565b600c546001600160a01b031681565b60015481565b6010546001600160a01b031681565b61271081565b600b546001600160a01b0316331461142a576040805162461bcd60e51b8152602060048201526005602482015264042c2eae8d60db1b604482015290519081900360640190fd5b600b80546001600160a01b0319166001600160a01b0392909216919091179055565b6008546001600160a01b03163314611493576040805162461bcd60e51b8152602060048201526005602482015264042c2eae8d60db1b604482015290519081900360640190fd5b600880546001600160a01b0319166001600160a01b0392909216919091179055565b6008546000906001600160a01b031633146114ff576040805162461bcd60e51b8152602060048201526005602482015264042c2eae8d60db1b604482015290519081900360640190fd5b7f00000000000000000000000000000000000000000000000000000000000000006001600160a01b0316631bd43be3846040518263ffffffff1660e01b815260040180826001600160a01b03168152602001915050600060405180830381600087803b15801561156e57600080fd5b505af1158015611582573d6000803e3d6000fd5b505050506000836001600160a01b03166370a08231306040518263ffffffff1660e01b815260040180826001600160a01b0316815260200191505060206040518083038186803b1580156115d557600080fd5b505afa1580156115e9573d6000803e3d6000fd5b505050506040513d60208110156115ff57600080fd5b505190506116176001600160a01b03851684836124e1565b5092915050565b600e546000906001600160a01b03163314611668576040805162461bcd60e51b8152602060048201526005602482015264042c2eae8d60db1b604482015290519081900360640190fd5b6000611685612710610e70600554866123c490919063ffffffff16565b90507f00000000000000000000000000000000000000000000000000000000000000006001600160a01b03166340c10f1985836040518363ffffffff1660e01b815260040180836001600160a01b0316815260200182815260200192505050600060405180830381600087803b1580156116fe57600080fd5b505af1158015611712573d6000803e3d6000fd5b506001979650505050505050565b73807c4e063eb0ac21e8eef7623a6ed50a8ede58ca81565b6006546001600160a01b031681565b601054600090600160a01b900460ff1615611794576040805162461bcd60e51b815260206004820152600860248201526739b43aba3237bbb760c11b604482015290519081900360640190fd5b61179c61272b565b50600190565b6006546001600160a01b031633146117e9576040805162461bcd60e51b8152602060048201526005602482015264042c2eae8d60db1b604482015290519081900360640190fd5b600e546001600160a01b031661182a57600e80546001600160a01b038085166001600160a01b031992831617909255600d8054928416929091169190911790555b5050565b6007546000906001600160a01b03163314611878576040805162461bcd60e51b8152602060048201526005602482015264042c2eae8d60db1b604482015290519081900360640190fd5b60006011838154811061188757fe5b6000918252602080832060016003909302019190910154604080516370a0823160e01b815233600482015290516001600160a01b03909216945084926370a0823192602480840193829003018186803b1580156118e357600080fd5b505afa1580156118f7573d6000803e3d6000fd5b505050506040513d602081101561190d57600080fd5b5051905061191b8482611191565b506001949350505050565b6006546001600160a01b0316331461196d576040805162461bcd60e51b8152602060048201526005602482015264042c2eae8d60db1b604482015290519081900360640190fd5b6009546001600160a01b031661182a57600980546001600160a01b039384166001600160a01b031991821617909155600a8054929093169116179055565b600b546001600160a01b031681565b600f546001600160a01b031681565b6008546000906001600160a01b03163314611a13576040805162461bcd60e51b8152602060048201526005602482015264042c2eae8d60db1b604482015290519081900360640190fd5b6000836001600160a01b03166370a08231306040518263ffffffff1660e01b815260040180826001600160a01b0316815260200191505060206040518083038186803b1580156115d557600080fd5b601054600160a01b900460ff1681565b60008060118381548110611a8257fe5b60009182526020808320600390920290910154604080516370a0823160e01b815233600482015290516001600160a01b03909216945084926370a0823192602480840193829003018186803b158015611ada57600080fd5b505afa158015611aee573d6000803e3d6000fd5b505050506040513d6020811015611b0457600080fd5b5051905061191b8482611d68565b6007546001600160a01b03163314611b59576040805162461bcd60e51b8152602060048201526005602482015264042c2eae8d60db1b604482015290519081900360640190fd5b6010546001600160a01b038281169116146110a757600954600e54604080517ff8d6122e0000000000000000000000000000000000000000000000000000000081526001600160a01b03858116600483015292831660248201523060448201529051919092169163f8d6122e9160648083019260209291908290030181600087803b158015611be757600080fd5b505af1158015611bfb573d6000803e3d6000fd5b505050506040513d6020811015611c1157600080fd5b5051600f80546001600160a01b039283166001600160a01b03199182161790915560108054939092169216919091179055565b60126020526000908152604090205460ff1681565b600d546001600160a01b031681565b6007546001600160a01b031681565b600b546000906001600160a01b03163314611cc1576040805162461bcd60e51b8152602060048201526005602482015264042c2eae8d60db1b604482015290519081900360640190fd5b7f00000000000000000000000000000000000000000000000000000000000000006001600160a01b0316635f74bbde84846040518363ffffffff1660e01b815260040180836001600160a01b0316815260200182815260200192505050600060405180830381600087803b158015611d3857600080fd5b505af1158015611d4c573d6000803e3d6000fd5b5060019695505050505050565b6008546001600160a01b031681565b601054600090600160a01b900460ff1615611db5576040805162461bcd60e51b815260206004820152600860248201526739b43aba3237bbb760c11b604482015290519081900360640190fd5b600060118481548110611dc457fe5b600091825260209091206003909102016002810154909150600160a01b900460ff1615611e38576040805162461bcd60e51b815260206004820152600e60248201527f706f6f6c20697320636c6f736564000000000000000000000000000000000000604482015290519081900360640190fd5b80546001600160a01b0316611e6f81337f000000000000000000000000000000000000000000000000000000000000000087612a52565b60028201546001600160a01b031680611ecf576040805162461bcd60e51b815260206004820152600e60248201527f2167617567652073657474696e67000000000000000000000000000000000000604482015290519081900360640190fd5b7f00000000000000000000000000000000000000000000000000000000000000006001600160a01b031663f9609f0883836040518363ffffffff1660e01b815260040180836001600160a01b03168152602001826001600160a01b0316815260200192505050600060405180830381600087803b158015611f4f57600080fd5b505af1158015611f63573d6000803e3d6000fd5b505050506001830154604080517f40c10f190000000000000000000000000000000000000000000000000000000081523360048201526024810188905290516001600160a01b039092169182916340c10f1991604480830192600092919082900301818387803b158015611fd657600080fd5b505af1158015611fea573d6000803e3d6000fd5b50506040805189815290518a93503392507f73a19dd210f1a7f902193214c0ee91dd35ee5b4d920cba8d519eca65a7b488ca9181900360200190a35060019695505050505050565b73d067c3b871ee9e07ba4205a8f96c182babba6c5881565b600a546001600160a01b031681565b6008546000906001600160a01b0316331480156120805750601054600160a01b900460ff16155b6120d3576040805162461bcd60e51b8152602060048083019190915260248201527f2161646400000000000000000000000000000000000000000000000000000000604482015290519081900360640190fd5b6001600160a01b038216158015906120f357506001600160a01b03831615155b612144576040805162461bcd60e51b815260206004820152600660248201527f21706172616d0000000000000000000000000000000000000000000000000000604482015290519081900360640190fd5b601154600a54604080517f114a899c0000000000000000000000000000000000000000000000000000000081526001600160a01b0387811660048301529151600093929092169163114a899c9160248082019260209290919082900301818787803b1580156121b257600080fd5b505af11580156121c6573d6000803e3d6000fd5b505050506040513d60208110156121dc57600080fd5b5051604080516080810182526001600160a01b03808916825292831660208281019182528885168385018181526000606086018181526011805460018181018355918452975160039098027f31ecc21a745e3968a04e9570e4425bc18fa8019c68028196b546d1669c200c6881018054998c166001600160a01b03199a8b1617905596517f31ecc21a745e3968a04e9570e4425bc18fa8019c68028196b546d1669c200c6988018054918c16918a1691909117905592517f31ecc21a745e3968a04e9570e4425bc18fa8019c68028196b546d1669c200c6a909601805491511515600160a01b0260ff60a01b1997909a1691909716179490941696909617909355918152601290915220805460ff1916821790559250505092915050565b6007546001600160a01b03163314612341576040805162461bcd60e51b8152602060048201526005602482015264042c2eae8d60db1b604482015290519081900360640190fd5b600c80546001600160a01b0319166001600160a01b0392909216919091179055565b6000828201838110156123bd576040805162461bcd60e51b815260206004820152601b60248201527f536166654d6174683a206164646974696f6e206f766572666c6f770000000000604482015290519081900360640190fd5b9392505050565b6000826123d3575060006111eb565b828202828482816123e057fe5b04146123bd5760405162461bcd60e51b8152600401808060200182810382526021815260200180612dd66021913960400191505060405180910390fd5b6000808211612473576040805162461bcd60e51b815260206004820152601a60248201527f536166654d6174683a206469766973696f6e206279207a65726f000000000000604482015290519081900360640190fd5b81838161247c57fe5b049392505050565b6000828211156124db576040805162461bcd60e51b815260206004820152601e60248201527f536166654d6174683a207375627472616374696f6e206f766572666c6f770000604482015290519081900360640190fd5b50900390565b604080516001600160a01b038416602482015260448082018490528251808303909101815260649091019091526020810180517bffffffffffffffffffffffffffffffffffffffffffffffffffffffff167fa9059cbb00000000000000000000000000000000000000000000000000000000179052612561908490612ae0565b505050565b60006011858154811061257557fe5b600091825260208220600390910201805460028201546001830154604080517f9dc29fac0000000000000000000000000000000000000000000000000000000081526001600160a01b038a81166004830152602482018c9052915195975093811695928116949116928392639dc29fac9260448084019382900301818387803b15801561260157600080fd5b505af1158015612615573d6000803e3d6000fd5b505050506002840154600160a01b900460ff166126cd577f00000000000000000000000000000000000000000000000000000000000000006001600160a01b031663d9caed1284848a6040518463ffffffff1660e01b815260040180846001600160a01b03168152602001836001600160a01b031681526020018281526020019350505050600060405180830381600087803b1580156126b457600080fd5b505af11580156126c8573d6000803e3d6000fd5b505050505b6126e16001600160a01b03841686896124e1565b60408051888152905189916001600160a01b038816917f92ccf450a286a957af52509bc1c9939d1a6a481783e142e41e2499f0bb66ebc69181900360200190a35050505050505050565b7f00000000000000000000000000000000000000000000000000000000000000006001600160a01b031663372500ab6040518163ffffffff1660e01b8152600401600060405180830381600087803b15801561278657600080fd5b505af115801561279a573d6000803e3d6000fd5b5050604080516370a0823160e01b815230600482015290516000935073807c4e063eb0ac21e8eef7623a6ed50a8ede58ca92506370a0823191602480820192602092909190829003018186803b1580156127f357600080fd5b505afa158015612807573d6000803e3d6000fd5b505050506040513d602081101561281d57600080fd5b5051905080156110a7576000612844612710610e70600054856123c490919063ffffffff16565b90506000612863612710610e70600154866123c490919063ffffffff16565b90506000612882612710610e70600254876123c490919063ffffffff16565b600c549091506001600160a01b0316158015906128aa5750600c546001600160a01b03163014155b80156128b857506000600354115b1561290b5760006128da612710610e70600354886123c490919063ffffffff16565b600c549091506129099073807c4e063eb0ac21e8eef7623a6ed50a8ede58ca906001600160a01b0316836124e1565b505b61292a73807c4e063eb0ac21e8eef7623a6ed50a8ede58ca33836124e1565b600e546129569073807c4e063eb0ac21e8eef7623a6ed50a8ede58ca906001600160a01b0316856124e1565b600e546040805163590a41f560e01b81526004810186905290516001600160a01b039092169163590a41f59160248082019260009290919082900301818387803b1580156129a357600080fd5b505af11580156129b7573d6000803e3d6000fd5b5050600d546129e7925073807c4e063eb0ac21e8eef7623a6ed50a8ede58ca91506001600160a01b0316846124e1565b600d546040805163590a41f560e01b81526004810185905290516001600160a01b039092169163590a41f59160248082019260009290919082900301818387803b158015612a3457600080fd5b505af1158015612a48573d6000803e3d6000fd5b5050505050505050565b604080516001600160a01b0380861660248301528416604482015260648082018490528251808303909101815260849091019091526020810180517bffffffffffffffffffffffffffffffffffffffffffffffffffffffff167f23b872dd00000000000000000000000000000000000000000000000000000000179052612ada908590612ae0565b50505050565b6060612b35826040518060400160405280602081526020017f5361666545524332303a206c6f772d6c6576656c2063616c6c206661696c6564815250856001600160a01b0316612b919092919063ffffffff16565b80519091501561256157808060200190516020811015612b5457600080fd5b50516125615760405162461bcd60e51b815260040180806020018281038252602a815260200180612df7602a913960400191505060405180910390fd5b6060612ba08484600085612ba8565b949350505050565b60603031831115612bea5760405162461bcd60e51b8152600401808060200182810382526026815260200180612db06026913960400191505060405180910390fd5b612bf385612d05565b612c44576040805162461bcd60e51b815260206004820152601d60248201527f416464726573733a2063616c6c20746f206e6f6e2d636f6e7472616374000000604482015290519081900360640190fd5b60006060866001600160a01b031685876040518082805190602001908083835b60208310612c835780518252601f199092019160209182019101612c64565b6001836020036101000a03801982511681845116808217855250505050505090500191505060006040518083038185875af1925050503d8060008114612ce5576040519150601f19603f3d011682016040523d82523d6000602084013e612cea565b606091505b5091509150612cfa828286612d0b565b979650505050505050565b3b151590565b60608315612d1a5750816123bd565b825115612d2a5782518084602001fd5b8160405162461bcd60e51b81526004018080602001828103825283818151815260200191508051906020019080838360005b83811015612d74578181015183820152602001612d5c565b50505050905090810190601f168015612da15780820380516001836020036101000a031916815260200191505b509250505060405180910390fdfe416464726573733a20696e73756666696369656e742062616c616e636520666f722063616c6c536166654d6174683a206d756c7469706c69636174696f6e206f766572666c6f775361666545524332303a204552433230206f7065726174696f6e20646964206e6f742073756363656564a2646970667358221220e8fa2471a04258db350a0ca09111902247893a79eb78515702118be37785b34e64736f6c63430007050033",
  "linkReferences": {},
  "deployedLinkReferences": {}
}