{
  "_format": "hh-sol-artifact-1",
  "contractName": "CubeStake",
  "sourceName": "contracts/stake/CubeStake.sol",
  "abi": [
    {
      "inputs": [
        {
          "internalType": "contract IERC20",
          "name": "_cube",
          "type": "address"
        }
      ],
      "stateMutability": "nonpayable",
      "type": "constructor"
    },
    {
      "anonymous": false,
      "inputs": [
        {
          "indexed": true,
          "internalType": "address",
          "name": "owner",
          "type": "address"
        },
        {
          "indexed": true,
          "internalType": "address",
          "name": "spender",
          "type": "address"
        },
        {
          "indexed": false,
          "internalType": "uint256",
          "name": "value",
          "type": "uint256"
        }
      ],
      "name": "Approval",
      "type": "event"
    },
    {
      "anonymous": false,
      "inputs": [
        {
          "indexed": true,
          "internalType": "address",
          "name": "newOperator",
          "type": "address"
        }
      ],
      "name": "OperatorUpdated",
      "type": "event"
    },
    {
      "anonymous": false,
      "inputs": [
        {
          "indexed": true,
          "internalType": "address",
          "name": "previousOwner",
          "type": "address"
        },
        {
          "indexed": true,
          "internalType": "address",
          "name": "newOwner",
          "type": "address"
        }
      ],
      "name": "OwnershipTransferred",
      "type": "event"
    },
    {
      "anonymous": false,
      "inputs": [
        {
          "indexed": false,
          "internalType": "address",
          "name": "profitController",
          "type": "address"
        }
      ],
      "name": "ProfitControllerUpdated",
      "type": "event"
    },
    {
      "anonymous": false,
      "inputs": [
        {
          "indexed": false,
          "internalType": "uint256",
          "name": "amount",
          "type": "uint256"
        }
      ],
      "name": "ProfitDistributed",
      "type": "event"
    },
    {
      "anonymous": false,
      "inputs": [],
      "name": "StakePaused",
      "type": "event"
    },
    {
      "anonymous": false,
      "inputs": [
        {
          "indexed": true,
          "internalType": "address",
          "name": "from",
          "type": "address"
        },
        {
          "indexed": true,
          "internalType": "address",
          "name": "to",
          "type": "address"
        },
        {
          "indexed": false,
          "internalType": "uint256",
          "name": "value",
          "type": "uint256"
        }
      ],
      "name": "Transfer",
      "type": "event"
    },
    {
      "inputs": [],
      "name": "EPOCH_PERIOD",
      "outputs": [
        {
          "internalType": "uint256",
          "name": "",
          "type": "uint256"
        }
      ],
      "stateMutability": "view",
      "type": "function"
    },
    {
      "inputs": [],
      "name": "LOCK_DURATION",
      "outputs": [
        {
          "internalType": "uint256",
          "name": "",
          "type": "uint256"
        }
      ],
      "stateMutability": "view",
      "type": "function"
    },
    {
      "inputs": [
        {
          "internalType": "address",
          "name": "owner",
          "type": "address"
        },
        {
          "internalType": "address",
          "name": "spender",
          "type": "address"
        }
      ],
      "name": "allowance",
      "outputs": [
        {
          "internalType": "uint256",
          "name": "",
          "type": "uint256"
        }
      ],
      "stateMutability": "view",
      "type": "function"
    },
    {
      "inputs": [
        {
          "internalType": "address",
          "name": "spender",
          "type": "address"
        },
        {
          "internalType": "uint256",
          "name": "amount",
          "type": "uint256"
        }
      ],
      "name": "approve",
      "outputs": [
        {
          "internalType": "bool",
          "name": "",
          "type": "bool"
        }
      ],
      "stateMutability": "nonpayable",
      "type": "function"
    },
    {
      "inputs": [
        {
          "internalType": "address",
          "name": "account",
          "type": "address"
        }
      ],
      "name": "balanceOf",
      "outputs": [
        {
          "internalType": "uint256",
          "name": "",
          "type": "uint256"
        }
      ],
      "stateMutability": "view",
      "type": "function"
    },
    {
      "inputs": [],
      "name": "calcAccAmt",
      "outputs": [
        {
          "internalType": "uint256",
          "name": "",
          "type": "uint256"
        }
      ],
      "stateMutability": "view",
      "type": "function"
    },
    {
      "inputs": [],
      "name": "cube",
      "outputs": [
        {
          "internalType": "contract IERC20",
          "name": "",
          "type": "address"
        }
      ],
      "stateMutability": "view",
      "type": "function"
    },
    {
      "inputs": [],
      "name": "cubePerShare",
      "outputs": [
        {
          "internalType": "uint256",
          "name": "",
          "type": "uint256"
        }
      ],
      "stateMutability": "view",
      "type": "function"
    },
    {
      "inputs": [],
      "name": "decimals",
      "outputs": [
        {
          "internalType": "uint8",
          "name": "",
          "type": "uint8"
        }
      ],
      "stateMutability": "view",
      "type": "function"
    },
    {
      "inputs": [
        {
          "internalType": "address",
          "name": "spender",
          "type": "address"
        },
        {
          "internalType": "uint256",
          "name": "subtractedValue",
          "type": "uint256"
        }
      ],
      "name": "decreaseAllowance",
      "outputs": [
        {
          "internalType": "bool",
          "name": "",
          "type": "bool"
        }
      ],
      "stateMutability": "nonpayable",
      "type": "function"
    },
    {
      "inputs": [
        {
          "internalType": "uint256",
          "name": "_amount",
          "type": "uint256"
        }
      ],
      "name": "distribute",
      "outputs": [],
      "stateMutability": "nonpayable",
      "type": "function"
    },
    {
      "inputs": [],
      "name": "epoch",
      "outputs": [
        {
          "internalType": "uint256",
          "name": "lastRewardTime",
          "type": "uint256"
        },
        {
          "internalType": "uint256",
          "name": "lockAmount",
          "type": "uint256"
        },
        {
          "internalType": "uint256",
          "name": "stepAmount",
          "type": "uint256"
        }
      ],
      "stateMutability": "view",
      "type": "function"
    },
    {
      "inputs": [
        {
          "internalType": "address",
          "name": "spender",
          "type": "address"
        },
        {
          "internalType": "uint256",
          "name": "addedValue",
          "type": "uint256"
        }
      ],
      "name": "increaseAllowance",
      "outputs": [
        {
          "internalType": "bool",
          "name": "",
          "type": "bool"
        }
      ],
      "stateMutability": "nonpayable",
      "type": "function"
    },
    {
      "inputs": [
        {
          "internalType": "address",
          "name": "_profitController",
          "type": "address"
        }
      ],
      "name": "init",
      "outputs": [],
      "stateMutability": "nonpayable",
      "type": "function"
    },
    {
      "inputs": [],
      "name": "name",
      "outputs": [
        {
          "internalType": "string",
          "name": "",
          "type": "string"
        }
      ],
      "stateMutability": "view",
      "type": "function"
    },
    {
      "inputs": [],
      "name": "operator",
      "outputs": [
        {
          "internalType": "address",
          "name": "",
          "type": "address"
        }
      ],
      "stateMutability": "view",
      "type": "function"
    },
    {
      "inputs": [],
      "name": "owner",
      "outputs": [
        {
          "internalType": "address",
          "name": "",
          "type": "address"
        }
      ],
      "stateMutability": "view",
      "type": "function"
    },
    {
      "inputs": [
        {
          "internalType": "address",
          "name": "_user",
          "type": "address"
        }
      ],
      "name": "pendingxCube",
      "outputs": [
        {
          "internalType": "uint256",
          "name": "",
          "type": "uint256"
        }
      ],
      "stateMutability": "view",
      "type": "function"
    },
    {
      "inputs": [],
      "name": "profitController",
      "outputs": [
        {
          "internalType": "address",
          "name": "",
          "type": "address"
        }
      ],
      "stateMutability": "view",
      "type": "function"
    },
    {
      "inputs": [],
      "name": "renounceOwnership",
      "outputs": [],
      "stateMutability": "nonpayable",
      "type": "function"
    },
    {
      "inputs": [
        {
          "internalType": "address",
          "name": "_operator",
          "type": "address"
        }
      ],
      "name": "setOperator",
      "outputs": [],
      "stateMutability": "nonpayable",
      "type": "function"
    },
    {
      "inputs": [
        {
          "internalType": "address",
          "name": "_profitController",
          "type": "address"
        }
      ],
      "name": "setProfitController",
      "outputs": [],
      "stateMutability": "nonpayable",
      "type": "function"
    },
    {
      "inputs": [],
      "name": "setStakePaused",
      "outputs": [],
      "stateMutability": "nonpayable",
      "type": "function"
    },
    {
      "inputs": [
        {
          "internalType": "uint256",
          "name": "_amount",
          "type": "uint256"
        }
      ],
      "name": "stake",
      "outputs": [],
      "stateMutability": "nonpayable",
      "type": "function"
    },
    {
      "inputs": [],
      "name": "stakePaused",
      "outputs": [
        {
          "internalType": "bool",
          "name": "",
          "type": "bool"
        }
      ],
      "stateMutability": "view",
      "type": "function"
    },
    {
      "inputs": [],
      "name": "symbol",
      "outputs": [
        {
          "internalType": "string",
          "name": "",
          "type": "string"
        }
      ],
      "stateMutability": "view",
      "type": "function"
    },
    {
      "inputs": [],
      "name": "totalSupply",
      "outputs": [
        {
          "internalType": "uint256",
          "name": "",
          "type": "uint256"
        }
      ],
      "stateMutability": "view",
      "type": "function"
    },
    {
      "inputs": [
        {
          "internalType": "address",
          "name": "to",
          "type": "address"
        },
        {
          "internalType": "uint256",
          "name": "amount",
          "type": "uint256"
        }
      ],
      "name": "transfer",
      "outputs": [
        {
          "internalType": "bool",
          "name": "",
          "type": "bool"
        }
      ],
      "stateMutability": "nonpayable",
      "type": "function"
    },
    {
      "inputs": [
        {
          "internalType": "address",
          "name": "from",
          "type": "address"
        },
        {
          "internalType": "address",
          "name": "to",
          "type": "address"
        },
        {
          "internalType": "uint256",
          "name": "amount",
          "type": "uint256"
        }
      ],
      "name": "transferFrom",
      "outputs": [
        {
          "internalType": "bool",
          "name": "",
          "type": "bool"
        }
      ],
      "stateMutability": "nonpayable",
      "type": "function"
    },
    {
      "inputs": [
        {
          "internalType": "address",
          "name": "newOwner",
          "type": "address"
        }
      ],
      "name": "transferOwnership",
      "outputs": [],
      "stateMutability": "nonpayable",
      "type": "function"
    },
    {
      "inputs": [
        {
          "internalType": "address",
          "name": "_receiver",
          "type": "address"
        },
        {
          "internalType": "address",
          "name": "_token",
          "type": "address"
        },
        {
          "internalType": "uint256",
          "name": "_amount",
          "type": "uint256"
        }
      ],
      "name": "transferTo",
      "outputs": [],
      "stateMutability": "nonpayable",
      "type": "function"
    },
    {
      "inputs": [
        {
          "internalType": "uint256",
          "name": "_share",
          "type": "uint256"
        }
      ],
      "name": "unstake",
      "outputs": [],
      "stateMutability": "nonpayable",
      "type": "function"
    },
    {
      "inputs": [],
      "name": "updateStakeLock",
      "outputs": [],
      "stateMutability": "nonpayable",
      "type": "function"
    },
    {
      "inputs": [
        {
          "internalType": "address",
          "name": "_user",
          "type": "address"
        }
      ],
      "name": "userLockInfo",
      "outputs": [
        {
          "internalType": "uint256",
          "name": "",
          "type": "uint256"
        },
        {
          "internalType": "uint256",
          "name": "",
          "type": "uint256"
        }
      ],
      "stateMutability": "view",
      "type": "function"
    },
    {
      "inputs": [
        {
          "internalType": "address",
          "name": "",
          "type": "address"
        }
      ],
      "name": "userLocks",
      "outputs": [
        {
          "internalType": "uint256",
          "name": "unlockTime",
          "type": "uint256"
        },
        {
          "internalType": "uint256",
          "name": "xCubeAmount",
          "type": "uint256"
        }
      ],
      "stateMutability": "view",
      "type": "function"
    }
  ],
  "bytecode": "0x60806040526008805460ff60a01b191690553480156200001e57600080fd5b5060405162002a2b38038062002a2b833981016040819052620000419162000367565b604080518082018252600981527f437562655374616b65000000000000000000000000000000000000000000000060208083019182528351808501909452600584527f7843554245000000000000000000000000000000000000000000000000000000908401528151919291620000bb91600391620002c1565b508051620000d1906004906020840190620002c1565b505050620000ee620000e86200012460201b60201c565b62000128565b6001600655620000fe3362000184565b600880546001600160a01b0319166001600160a01b0392909216919091179055620003ed565b3390565b600580546001600160a01b038381166201000081810262010000600160b01b031985161790945560405193909204169182907f8be0079c531659141344cd1fd0a4f28419497f9722a3daafe3b4186f6b6457e090600090a35050565b6005546001600160a01b036201000090910416331462000205576040517f08c379a000000000000000000000000000000000000000000000000000000000815260206004820181905260248201527f4f776e61626c653a2063616c6c6572206973206e6f7420746865206f776e657260448201526064015b60405180910390fd5b6001600160a01b03811662000277576040517f08c379a000000000000000000000000000000000000000000000000000000000815260206004820152601760248201527f546f7765723a20496e76616c6964206f70657261746f720000000000000000006044820152606401620001fc565b600780546001600160a01b0319166001600160a01b0383169081179091556040517fb3b3f5f64ab192e4b5fefde1f51ce9733bbdcf831951543b325aebd49cc27ec490600090a250565b828054620002cf9062000397565b90600052602060002090601f016020900481019282620002f357600085556200033e565b82601f106200030e57805160ff19168380011785556200033e565b828001600101855582156200033e579182015b828111156200033e57825182559160200191906001019062000321565b506200034c92915062000350565b5090565b5b808211156200034c576000815560010162000351565b60006020828403121562000379578081fd5b81516001600160a01b038116811462000390578182fd5b9392505050565b600181811c90821680620003ac57607f821691505b60208210811415620003e7577f4e487b7100000000000000000000000000000000000000000000000000000000600052602260045260246000fd5b50919050565b61262e80620003fd6000396000f3fe608060405234801561001057600080fd5b50600436106102415760003560e01c806370a08231116101455780639ce6d5a0116100bd578063a9059cbb1161008c578063bba00c6f11610071578063bba00c6f146104eb578063dd62ed3e146104f3578063f2fde38b1461052c57600080fd5b8063a9059cbb146104c5578063b3ab15fb146104d857600080fd5b80639ce6d5a014610484578063a457c2d71461048c578063a5f2a1521461049f578063a694fc3a146104b257600080fd5b8063900cf0cf1161011457806395d89b41116100f957806395d89b411461046a57806399d4256c146104725780639c511ad41461047a57600080fd5b8063900cf0cf1461042a57806391c05b0b1461045757600080fd5b806370a08231146103cf578063715018a6146103f85780638da5cb5b146104005780638e095aec1461041757600080fd5b8063313ce567116101d85780634a42fc89116101a75780635c7712111161018c5780635c7712111461039557806360ffdc16146103a85780636a475ee3146103bc57600080fd5b80634a42fc8914610357578063570ca7351461036a57600080fd5b8063313ce567146103185780633950935114610327578063419273dd1461033a578063485d38341461034d57600080fd5b806318160ddd1161021457806318160ddd146102d557806319ab453c146102dd57806323b872dd146102f25780632e17de781461030557600080fd5b80630259ef581461024657806306fdde0314610287578063095ea7b31461029c5780630d460dd1146102bf575b600080fd5b61026d6102543660046123be565b600d602052600090815260409020805460019091015482565b604080519283526020830191909152015b60405180910390f35b61028f61053f565b60405161027e91906124da565b6102af6102aa366004612445565b6105d1565b604051901515815260200161027e565b6102c76105e9565b60405190815260200161027e565b6002546102c7565b6102f06102eb3660046123be565b61062b565b005b6102af61030036600461240a565b610763565b6102f061031336600461248e565b610789565b6040516012815260200161027e565b6102af610335366004612445565b610a58565b6102f06103483660046123be565b610a97565b6102c762093a8081565b61026d6103653660046123be565b610baf565b60075461037d906001600160a01b031681565b6040516001600160a01b03909116815260200161027e565b60085461037d906001600160a01b031681565b6008546102af90600160a01b900460ff1681565b600c5461037d906001600160a01b031681565b6102c76103dd3660046123be565b6001600160a01b031660009081526020819052604090205490565b6102f0610c11565b6005546201000090046001600160a01b031661037d565b6102c76104253660046123be565b610c7e565b600954600a54600b5461043c92919083565b6040805193845260208401929092529082015260600161027e565b6102f061046536600461248e565b610d6b565b61028f610ee7565b6102f0610ef6565b6102c76201518081565b6102f0610fe2565b6102af61049a366004612445565b611028565b6102f06104ad36600461240a565b6110dd565b6102f06104c036600461248e565b611271565b6102af6104d3366004612445565b6115e5565b6102f06104e63660046123be565b6115f3565b6102c7611701565b6102c76105013660046123d8565b6001600160a01b03918216600090815260016020908152604080832093909416825291909152205490565b6102f061053a3660046123be565b6117f4565b60606003805461054e906125a7565b80601f016020809104026020016040519081016040528092919081815260200182805461057a906125a7565b80156105c75780601f1061059c576101008083540402835291602001916105c7565b820191906000526020600020905b8154815290600101906020018083116105aa57829003601f168201915b5050505050905090565b6000336105df8185856118dd565b5060019392505050565b6009546000904210156105fc5750600090565b600954429060009061060e9083612564565b90506000816009600201546106239190612545565b949350505050565b600554610100900460ff166106465760055460ff161561064a565b303b155b6106c15760405162461bcd60e51b815260206004820152602e60248201527f496e697469616c697a61626c653a20636f6e747261637420697320616c72656160448201527f647920696e697469616c697a656400000000000000000000000000000000000060648201526084015b60405180910390fd5b600554610100900460ff161580156106e3576005805461ffff19166101011790555b6005546001600160a01b03620100009091041633146107445760405162461bcd60e51b815260206004820181905260248201527f4f776e61626c653a2063616c6c6572206973206e6f7420746865206f776e657260448201526064016106b8565b61074d82610a97565b801561075f576005805461ff00191690555b5050565b600033610771858285611a35565b61077c858585611ac1565b60019150505b9392505050565b600260065414156107dc5760405162461bcd60e51b815260206004820152601f60248201527f5265656e7472616e637947756172643a207265656e7472616e742063616c6c0060448201526064016106b8565b6002600655600854600160a01b900460ff161561083b5760405162461bcd60e51b815260206004820152600d60248201527f5374616b653a205061757365640000000000000000000000000000000000000060448201526064016106b8565b3360009081526020819052604090205481111561089a5760405162461bcd60e51b815260206004820152600f60248201527f5374616b653a203e62616c616e6365000000000000000000000000000000000060448201526064016106b8565b336000908152600d6020526040902080544210156108fa5760405162461bcd60e51b815260206004820152601260248201527f5374616b653a204e6f742065787069726564000000000000000000000000000060448201526064016106b8565b818160010154101561094e5760405162461bcd60e51b815260206004820152601160248201527f5374616b653a204e6f74205374616b656400000000000000000000000000000060448201526064016106b8565b610956610fe2565b600061096160025490565b6008546040516370a0823160e01b81523060048201529192506000916001600160a01b03909116906370a082319060240160206040518083038186803b1580156109aa57600080fd5b505afa1580156109be573d6000803e3d6000fd5b505050506040513d601f19601f820116820180604052508101906109e291906124a6565b600a549091506000906109f6908390611cd8565b90506000610a0e84610a088885611ce4565b90611cf0565b905085856001016000828254610a249190612564565b90915550610a3490503387611cfc565b600854610a4b906001600160a01b03163383611e81565b5050600160065550505050565b3360008181526001602090815260408083206001600160a01b03871684529091528120549091906105df9082908690610a9290879061250d565b6118dd565b6005546001600160a01b0362010000909104163314610af85760405162461bcd60e51b815260206004820181905260248201527f4f776e61626c653a2063616c6c6572206973206e6f7420746865206f776e657260448201526064016106b8565b6001600160a01b038116610b4e5760405162461bcd60e51b815260206004820152600f60248201527f496e76616c69642061646472657373000000000000000000000000000000000060448201526064016106b8565b600c805473ffffffffffffffffffffffffffffffffffffffff19166001600160a01b0383169081179091556040519081527f46b8044bc75ff9c389a3a67c04aa9dfec4f70614a48d843f7250d196e79738879060200160405180910390a150565b6001600160a01b0381166000908152600d602090815260408083208151808301909252805480835260019091015492820192909252829180610bf8575060009485945092505050565b6000610c048242611cd8565b9196919550909350505050565b6005546001600160a01b0362010000909104163314610c725760405162461bcd60e51b815260206004820181905260248201527f4f776e61626c653a2063616c6c6572206973206e6f7420746865206f776e657260448201526064016106b8565b610c7c6000611f15565b565b600080610c8a60025490565b90506000610c966105e9565b600a54610ca39190612564565b6008546040516370a0823160e01b8152306004820152919250600091610d309184916001600160a01b03909116906370a082319060240160206040518083038186803b158015610cf257600080fd5b505afa158015610d06573d6000803e3d6000fd5b505050506040513d601f19601f82011682018060405250810190610d2a91906124a6565b90611cd8565b90506000610d6184610a0884610d5b8a6001600160a01b031660009081526020819052604090205490565b90611ce4565b9695505050505050565b6005546201000090046001600160a01b03166001600160a01b0316336001600160a01b03161480610da65750600c546001600160a01b031633145b610df25760405162461bcd60e51b815260206004820152601660248201527f4f6e6c792070726f66697420636f6e74726f6c6c65720000000000000000000060448201526064016106b8565b80610e3f5760405162461bcd60e51b815260206004820152601d60248201527f416d6f756e74206d7573742062652067726561746572207468616e203000000060448201526064016106b8565b610e47610fe2565b600a54600090610e579083611f87565b90506000610e688262015180611cf0565b60408051606081018252428082526020808301879052918301849052600955600a859055600b83905590518581529192507f939df96a3b47dbfb83da233006cef1eb233fc5cba50ea94fecdebea4d99423e6910160405180910390a1600c54600854610ee2916001600160a01b0391821691163086611f93565b505050565b60606004805461054e906125a7565b6005546201000090046001600160a01b03166001600160a01b0316336001600160a01b03161480610f3157506007546001600160a01b031633145b610f7d5760405162461bcd60e51b815260206004820152601960248201527f546f7765723a2073656e64657220213d206f70657261746f720000000000000060448201526064016106b8565b600880547fffffffffffffffffffffff00ffffffffffffffffffffffffffffffffffffffff8116600160a01b9182900460ff16159091021790556040517f3b6e484c9533df7b2b8c2beff158587669dd51264cd92c5c831d017d4e6831f690600090a1565b6000610fec6105e9565b905080600960010154111561101b5780600960010160008282546110109190612564565b909155506110219050565b6000600a555b5042600955565b3360008181526001602090815260408083206001600160a01b0387168452909152812054909190838110156110c55760405162461bcd60e51b815260206004820152602560248201527f45524332303a2064656372656173656420616c6c6f77616e63652062656c6f7760448201527f207a65726f00000000000000000000000000000000000000000000000000000060648201526084016106b8565b6110d282868684036118dd565b506001949350505050565b6005546001600160a01b036201000090910416331461113e5760405162461bcd60e51b815260206004820181905260248201527f4f776e61626c653a2063616c6c6572206973206e6f7420746865206f776e657260448201526064016106b8565b6040516370a0823160e01b8152306004820152829082906001600160a01b038316906370a082319060240160206040518083038186803b15801561118157600080fd5b505afa158015611195573d6000803e3d6000fd5b505050506040513d601f19601f820116820180604052508101906111b991906124a6565b10156112075760405162461bcd60e51b815260206004820152601260248201527f4e6f7420656e6f7567682062616c616e6365000000000000000000000000000060448201526064016106b8565b600082116112575760405162461bcd60e51b815260206004820152600b60248201527f5a65726f20616d6f756e7400000000000000000000000000000000000000000060448201526064016106b8565b61126b6001600160a01b0382168584611e81565b50505050565b600260065414156112c45760405162461bcd60e51b815260206004820152601f60248201527f5265656e7472616e637947756172643a207265656e7472616e742063616c6c0060448201526064016106b8565b6002600655600854600160a01b900460ff16156113235760405162461bcd60e51b815260206004820152600f60248201527f5374616b6520697320706175736564000000000000000000000000000000000060448201526064016106b8565b61132b610fe2565b6113696040518060400160405280600981526020017f49276d20616c6976650000000000000000000000000000000000000000000000815250611fe4565b60006113784262093a80611f87565b6008546040516370a0823160e01b81523060048201529192506000916001600160a01b03909116906370a082319060240160206040518083038186803b1580156113c157600080fd5b505afa1580156113d5573d6000803e3d6000fd5b505050506040513d601f19601f820116820180604052508101906113f991906124a6565b9050600061140660025490565b90506000811580611415575082155b15611421575083611446565b600a54600090611432908590611cd8565b905061144281610a088886611ce4565b9150505b6114846040518060400160405280600a81526020017f49276d20616c6976653200000000000000000000000000000000000000000000815250611fe4565b600081116114d45760405162461bcd60e51b815260206004820152600f60248201527f5374616b653a204f75742069732030000000000000000000000000000000000060448201526064016106b8565b336000908152600d60205260408120858155600181018054919284926114fb90849061250d565b909155505060408051808201909152600a81527f49276d20616c6976653300000000000000000000000000000000000000000000602082015261153d90611fe4565b6115473383612040565b6115856040518060400160405280600a81526020017f49276d20616c6976653400000000000000000000000000000000000000000000815250611fe4565b61158f333061211f565b6008546115a7906001600160a01b0316333089611f93565b610a4b6040518060400160405280600a81526020017f49276d20616c6976653500000000000000000000000000000000000000000000815250611fe4565b6000336105df818585611ac1565b6005546001600160a01b03620100009091041633146116545760405162461bcd60e51b815260206004820181905260248201527f4f776e61626c653a2063616c6c6572206973206e6f7420746865206f776e657260448201526064016106b8565b6001600160a01b0381166116aa5760405162461bcd60e51b815260206004820152601760248201527f546f7765723a20496e76616c6964206f70657261746f7200000000000000000060448201526064016106b8565b6007805473ffffffffffffffffffffffffffffffffffffffff19166001600160a01b0383169081179091556040517fb3b3f5f64ab192e4b5fefde1f51ce9733bbdcf831951543b325aebd49cc27ec490600090a250565b60008061170d60025490565b6008546040516370a0823160e01b81523060048201529192506000916001600160a01b03909116906370a082319060240160206040518083038186803b15801561175657600080fd5b505afa15801561176a573d6000803e3d6000fd5b505050506040513d601f19601f8201168201806040525081019061178e91906124a6565b905081158061179b575080155b156117b057670de0b6b3a76400009250505090565b60006117d16117bd6105e9565b600a546117cb908590611cd8565b90611f87565b905060006117eb84610a0884670de0b6b3a7640000611ce4565b95945050505050565b6005546001600160a01b03620100009091041633146118555760405162461bcd60e51b815260206004820181905260248201527f4f776e61626c653a2063616c6c6572206973206e6f7420746865206f776e657260448201526064016106b8565b6001600160a01b0381166118d15760405162461bcd60e51b815260206004820152602660248201527f4f776e61626c653a206e6577206f776e657220697320746865207a65726f206160448201527f646472657373000000000000000000000000000000000000000000000000000060648201526084016106b8565b6118da81611f15565b50565b6001600160a01b0383166119585760405162461bcd60e51b8152602060048201526024808201527f45524332303a20617070726f76652066726f6d20746865207a65726f2061646460448201527f726573730000000000000000000000000000000000000000000000000000000060648201526084016106b8565b6001600160a01b0382166119d45760405162461bcd60e51b815260206004820152602260248201527f45524332303a20617070726f766520746f20746865207a65726f20616464726560448201527f737300000000000000000000000000000000000000000000000000000000000060648201526084016106b8565b6001600160a01b0383811660008181526001602090815260408083209487168084529482529182902085905590518481527f8c5be1e5ebec7d5bd14f71427d1e84f3dd0314c0f7b2291e5b200ac8c7c3b925910160405180910390a3505050565b6001600160a01b03838116600090815260016020908152604080832093861683529290522054600019811461126b5781811015611ab45760405162461bcd60e51b815260206004820152601d60248201527f45524332303a20696e73756666696369656e7420616c6c6f77616e636500000060448201526064016106b8565b61126b84848484036118dd565b6001600160a01b038316611b3d5760405162461bcd60e51b815260206004820152602560248201527f45524332303a207472616e736665722066726f6d20746865207a65726f20616460448201527f647265737300000000000000000000000000000000000000000000000000000060648201526084016106b8565b6001600160a01b038216611bb95760405162461bcd60e51b815260206004820152602360248201527f45524332303a207472616e7366657220746f20746865207a65726f206164647260448201527f657373000000000000000000000000000000000000000000000000000000000060648201526084016106b8565b6001600160a01b03831660009081526020819052604090205481811015611c485760405162461bcd60e51b815260206004820152602660248201527f45524332303a207472616e7366657220616d6f756e742065786365656473206260448201527f616c616e6365000000000000000000000000000000000000000000000000000060648201526084016106b8565b6001600160a01b03808516600090815260208190526040808220858503905591851681529081208054849290611c7f90849061250d565b92505081905550826001600160a01b0316846001600160a01b03167fddf252ad1be2c89b69c2b068fc378daa952ba7f163c4a11628f55a4df523b3ef84604051611ccb91815260200190565b60405180910390a361126b565b60006107828284612564565b60006107828284612545565b60006107828284612525565b6001600160a01b038216611d785760405162461bcd60e51b815260206004820152602160248201527f45524332303a206275726e2066726f6d20746865207a65726f2061646472657360448201527f730000000000000000000000000000000000000000000000000000000000000060648201526084016106b8565b6001600160a01b03821660009081526020819052604090205481811015611e075760405162461bcd60e51b815260206004820152602260248201527f45524332303a206275726e20616d6f756e7420657863656564732062616c616e60448201527f636500000000000000000000000000000000000000000000000000000000000060648201526084016106b8565b6001600160a01b0383166000908152602081905260408120838303905560028054849290611e36908490612564565b90915550506040518281526000906001600160a01b038516907fddf252ad1be2c89b69c2b068fc378daa952ba7f163c4a11628f55a4df523b3ef9060200160405180910390a3505050565b6040516001600160a01b038316602482015260448101829052610ee29084907fa9059cbb00000000000000000000000000000000000000000000000000000000906064015b60408051601f198184030181529190526020810180516001600160e01b03167fffffffff0000000000000000000000000000000000000000000000000000000090931692909217909152612188565b600580546001600160a01b03838116620100008181027fffffffffffffffffffff0000000000000000000000000000000000000000ffff85161790945560405193909204169182907f8be0079c531659141344cd1fd0a4f28419497f9722a3daafe3b4186f6b6457e090600090a35050565b6000610782828461250d565b6040516001600160a01b038085166024830152831660448201526064810182905261126b9085907f23b872dd0000000000000000000000000000000000000000000000000000000090608401611ec6565b6118da81604051602401611ff891906124da565b60408051601f198184030181529190526020810180516001600160e01b03167f41304fac0000000000000000000000000000000000000000000000000000000017905261226d565b6001600160a01b0382166120965760405162461bcd60e51b815260206004820152601f60248201527f45524332303a206d696e7420746f20746865207a65726f20616464726573730060448201526064016106b8565b80600260008282546120a8919061250d565b90915550506001600160a01b038216600090815260208190526040812080548392906120d590849061250d565b90915550506040518181526001600160a01b038316906000907fddf252ad1be2c89b69c2b068fc378daa952ba7f163c4a11628f55a4df523b3ef9060200160405180910390a35050565b6040516001600160a01b0380841660248301528216604482015261075f9060640160408051601f198184030181529190526020810180516001600160e01b03167fdaf0d4aa0000000000000000000000000000000000000000000000000000000017905261226d565b60006121dd826040518060400160405280602081526020017f5361666545524332303a206c6f772d6c6576656c2063616c6c206661696c6564815250856001600160a01b031661228e9092919063ffffffff16565b805190915015610ee257808060200190518101906121fb919061246e565b610ee25760405162461bcd60e51b815260206004820152602a60248201527f5361666545524332303a204552433230206f7065726174696f6e20646964206e60448201527f6f7420737563636565640000000000000000000000000000000000000000000060648201526084016106b8565b80516a636f6e736f6c652e6c6f67602083016000808483855afa5050505050565b60606106238484600085856001600160a01b0385163b6122f05760405162461bcd60e51b815260206004820152601d60248201527f416464726573733a2063616c6c20746f206e6f6e2d636f6e747261637400000060448201526064016106b8565b600080866001600160a01b0316858760405161230c91906124be565b60006040518083038185875af1925050503d8060008114612349576040519150601f19603f3d011682016040523d82523d6000602084013e61234e565b606091505b509150915061235e828286612369565b979650505050505050565b60608315612378575081610782565b8251156123885782518084602001fd5b8160405162461bcd60e51b81526004016106b891906124da565b80356001600160a01b03811681146123b957600080fd5b919050565b6000602082840312156123cf578081fd5b610782826123a2565b600080604083850312156123ea578081fd5b6123f3836123a2565b9150612401602084016123a2565b90509250929050565b60008060006060848603121561241e578081fd5b612427846123a2565b9250612435602085016123a2565b9150604084013590509250925092565b60008060408385031215612457578182fd5b612460836123a2565b946020939093013593505050565b60006020828403121561247f578081fd5b81518015158114610782578182fd5b60006020828403121561249f578081fd5b5035919050565b6000602082840312156124b7578081fd5b5051919050565b600082516124d081846020870161257b565b9190910192915050565b60208152600082518060208401526124f981604085016020870161257b565b601f01601f19169190910160400192915050565b60008219821115612520576125206125e2565b500190565b60008261254057634e487b7160e01b81526012600452602481fd5b500490565b600081600019048311821515161561255f5761255f6125e2565b500290565b600082821015612576576125766125e2565b500390565b60005b8381101561259657818101518382015260200161257e565b8381111561126b5750506000910152565b600181811c908216806125bb57607f821691505b602082108114156125dc57634e487b7160e01b600052602260045260246000fd5b50919050565b634e487b7160e01b600052601160045260246000fdfea2646970667358221220da756b5a5a47feec6dba05c92eef92ed88156ddac68f178ce27a9e1a4485f6d364736f6c63430008040033",
  "linkReferences": {},
  "deployedLinkReferences": {}
}