{
  "_format": "hh-sol-artifact-1",
  "contractName": "CAMP",
  "sourceName": "contracts/bank/CAMP.sol",
  "abi": [
    {
      "inputs": [
        {
          "internalType": "string",
          "name": "_name",
          "type": "string"
        },
        {
          "internalType": "string",
          "name": "_symbol",
          "type": "string"
        },
        {
          "internalType": "address",
          "name": "_creator_address",
          "type": "address"
        }
      ],
      "stateMutability": "nonpayable",
      "type": "constructor"
    },
    {
      "anonymous": false,
      "inputs": [
        {
          "indexed": true,
          "internalType": "address",
          "name": "owner",
          "type": "address"
        },
        {
          "indexed": true,
          "internalType": "address",
          "name": "spender",
          "type": "address"
        },
        {
          "indexed": false,
          "internalType": "uint256",
          "name": "value",
          "type": "uint256"
        }
      ],
      "name": "Approval",
      "type": "event"
    },
    {
      "anonymous": false,
      "inputs": [
        {
          "indexed": true,
          "internalType": "address",
          "name": "from",
          "type": "address"
        },
        {
          "indexed": true,
          "internalType": "address",
          "name": "to",
          "type": "address"
        },
        {
          "indexed": false,
          "internalType": "uint256",
          "name": "amount",
          "type": "uint256"
        }
      ],
      "name": "BankBurned",
      "type": "event"
    },
    {
      "anonymous": false,
      "inputs": [
        {
          "indexed": true,
          "internalType": "address",
          "name": "from",
          "type": "address"
        },
        {
          "indexed": true,
          "internalType": "address",
          "name": "to",
          "type": "address"
        },
        {
          "indexed": false,
          "internalType": "uint256",
          "name": "amount",
          "type": "uint256"
        }
      ],
      "name": "BankMinted",
      "type": "event"
    },
    {
      "anonymous": false,
      "inputs": [
        {
          "indexed": false,
          "internalType": "address",
          "name": "addr",
          "type": "address"
        }
      ],
      "name": "BondAddressSet",
      "type": "event"
    },
    {
      "anonymous": false,
      "inputs": [
        {
          "indexed": true,
          "internalType": "address",
          "name": "from",
          "type": "address"
        },
        {
          "indexed": true,
          "internalType": "address",
          "name": "to",
          "type": "address"
        },
        {
          "indexed": false,
          "internalType": "uint256",
          "name": "amount",
          "type": "uint256"
        }
      ],
      "name": "BondMinted",
      "type": "event"
    },
    {
      "anonymous": false,
      "inputs": [
        {
          "indexed": false,
          "internalType": "address",
          "name": "oldOwner",
          "type": "address"
        },
        {
          "indexed": false,
          "internalType": "address",
          "name": "newOwner",
          "type": "address"
        }
      ],
      "name": "OwnerChanged",
      "type": "event"
    },
    {
      "anonymous": false,
      "inputs": [
        {
          "indexed": false,
          "internalType": "address",
          "name": "newOwner",
          "type": "address"
        }
      ],
      "name": "OwnerNominated",
      "type": "event"
    },
    {
      "anonymous": false,
      "inputs": [
        {
          "indexed": false,
          "internalType": "address",
          "name": "addr",
          "type": "address"
        }
      ],
      "name": "SCAMPAddressSet",
      "type": "event"
    },
    {
      "anonymous": false,
      "inputs": [
        {
          "indexed": false,
          "internalType": "address",
          "name": "addr",
          "type": "address"
        }
      ],
      "name": "StakeAddressSet",
      "type": "event"
    },
    {
      "anonymous": false,
      "inputs": [
        {
          "indexed": true,
          "internalType": "address",
          "name": "from",
          "type": "address"
        },
        {
          "indexed": true,
          "internalType": "address",
          "name": "to",
          "type": "address"
        },
        {
          "indexed": false,
          "internalType": "uint256",
          "name": "amount",
          "type": "uint256"
        }
      ],
      "name": "StakeMinted",
      "type": "event"
    },
    {
      "anonymous": false,
      "inputs": [
        {
          "indexed": true,
          "internalType": "address",
          "name": "from",
          "type": "address"
        },
        {
          "indexed": true,
          "internalType": "address",
          "name": "to",
          "type": "address"
        },
        {
          "indexed": false,
          "internalType": "uint256",
          "name": "value",
          "type": "uint256"
        }
      ],
      "name": "Transfer",
      "type": "event"
    },
    {
      "inputs": [
        {
          "internalType": "address",
          "name": "b_address",
          "type": "address"
        },
        {
          "internalType": "uint256",
          "name": "b_amount",
          "type": "uint256"
        }
      ],
      "name": "Bank_burn_from",
      "outputs": [],
      "stateMutability": "nonpayable",
      "type": "function"
    },
    {
      "inputs": [
        {
          "internalType": "address",
          "name": "m_address",
          "type": "address"
        },
        {
          "internalType": "uint256",
          "name": "m_amount",
          "type": "uint256"
        }
      ],
      "name": "Bank_mint",
      "outputs": [],
      "stateMutability": "nonpayable",
      "type": "function"
    },
    {
      "inputs": [
        {
          "internalType": "address",
          "name": "m_address",
          "type": "address"
        },
        {
          "internalType": "uint256",
          "name": "m_amount",
          "type": "uint256"
        }
      ],
      "name": "Bond_mint",
      "outputs": [],
      "stateMutability": "nonpayable",
      "type": "function"
    },
    {
      "inputs": [],
      "name": "Bonding_contract_address",
      "outputs": [
        {
          "internalType": "address",
          "name": "",
          "type": "address"
        }
      ],
      "stateMutability": "view",
      "type": "function"
    },
    {
      "inputs": [],
      "name": "SCAMPAddress",
      "outputs": [
        {
          "internalType": "address",
          "name": "",
          "type": "address"
        }
      ],
      "stateMutability": "view",
      "type": "function"
    },
    {
      "inputs": [],
      "name": "Staking_contract_address",
      "outputs": [
        {
          "internalType": "address",
          "name": "",
          "type": "address"
        }
      ],
      "stateMutability": "view",
      "type": "function"
    },
    {
      "inputs": [
        {
          "internalType": "address",
          "name": "m_address",
          "type": "address"
        },
        {
          "internalType": "uint256",
          "name": "m_amount",
          "type": "uint256"
        }
      ],
      "name": "Staking_mint",
      "outputs": [],
      "stateMutability": "nonpayable",
      "type": "function"
    },
    {
      "inputs": [],
      "name": "acceptOwnership",
      "outputs": [],
      "stateMutability": "nonpayable",
      "type": "function"
    },
    {
      "inputs": [
        {
          "internalType": "address",
          "name": "owner",
          "type": "address"
        },
        {
          "internalType": "address",
          "name": "spender",
          "type": "address"
        }
      ],
      "name": "allowance",
      "outputs": [
        {
          "internalType": "uint256",
          "name": "",
          "type": "uint256"
        }
      ],
      "stateMutability": "view",
      "type": "function"
    },
    {
      "inputs": [
        {
          "internalType": "address",
          "name": "spender",
          "type": "address"
        },
        {
          "internalType": "uint256",
          "name": "amount",
          "type": "uint256"
        }
      ],
      "name": "approve",
      "outputs": [
        {
          "internalType": "bool",
          "name": "",
          "type": "bool"
        }
      ],
      "stateMutability": "nonpayable",
      "type": "function"
    },
    {
      "inputs": [
        {
          "internalType": "address",
          "name": "account",
          "type": "address"
        }
      ],
      "name": "balanceOf",
      "outputs": [
        {
          "internalType": "uint256",
          "name": "",
          "type": "uint256"
        }
      ],
      "stateMutability": "view",
      "type": "function"
    },
    {
      "inputs": [
        {
          "internalType": "uint256",
          "name": "amount",
          "type": "uint256"
        }
      ],
      "name": "burn",
      "outputs": [],
      "stateMutability": "nonpayable",
      "type": "function"
    },
    {
      "inputs": [
        {
          "internalType": "address",
          "name": "account",
          "type": "address"
        },
        {
          "internalType": "uint256",
          "name": "amount",
          "type": "uint256"
        }
      ],
      "name": "burnFrom",
      "outputs": [],
      "stateMutability": "nonpayable",
      "type": "function"
    },
    {
      "inputs": [],
      "name": "decimals",
      "outputs": [
        {
          "internalType": "uint8",
          "name": "",
          "type": "uint8"
        }
      ],
      "stateMutability": "view",
      "type": "function"
    },
    {
      "inputs": [
        {
          "internalType": "address",
          "name": "spender",
          "type": "address"
        },
        {
          "internalType": "uint256",
          "name": "subtractedValue",
          "type": "uint256"
        }
      ],
      "name": "decreaseAllowance",
      "outputs": [
        {
          "internalType": "bool",
          "name": "",
          "type": "bool"
        }
      ],
      "stateMutability": "nonpayable",
      "type": "function"
    },
    {
      "inputs": [],
      "name": "genesis_supply",
      "outputs": [
        {
          "internalType": "uint256",
          "name": "",
          "type": "uint256"
        }
      ],
      "stateMutability": "view",
      "type": "function"
    },
    {
      "inputs": [
        {
          "internalType": "address",
          "name": "spender",
          "type": "address"
        },
        {
          "internalType": "uint256",
          "name": "addedValue",
          "type": "uint256"
        }
      ],
      "name": "increaseAllowance",
      "outputs": [
        {
          "internalType": "bool",
          "name": "",
          "type": "bool"
        }
      ],
      "stateMutability": "nonpayable",
      "type": "function"
    },
    {
      "inputs": [],
      "name": "name",
      "outputs": [
        {
          "internalType": "string",
          "name": "",
          "type": "string"
        }
      ],
      "stateMutability": "view",
      "type": "function"
    },
    {
      "inputs": [
        {
          "internalType": "address",
          "name": "_owner",
          "type": "address"
        }
      ],
      "name": "nominateNewOwner",
      "outputs": [],
      "stateMutability": "nonpayable",
      "type": "function"
    },
    {
      "inputs": [],
      "name": "nominatedOwner",
      "outputs": [
        {
          "internalType": "address",
          "name": "",
          "type": "address"
        }
      ],
      "stateMutability": "view",
      "type": "function"
    },
    {
      "inputs": [],
      "name": "owner",
      "outputs": [
        {
          "internalType": "address",
          "name": "",
          "type": "address"
        }
      ],
      "stateMutability": "view",
      "type": "function"
    },
    {
      "inputs": [
        {
          "internalType": "address",
          "name": "_Bonding_contract_address",
          "type": "address"
        }
      ],
      "name": "setBondAddress",
      "outputs": [],
      "stateMutability": "nonpayable",
      "type": "function"
    },
    {
      "inputs": [
        {
          "internalType": "address",
          "name": "SCAMP_contract_address",
          "type": "address"
        }
      ],
      "name": "setSCAMPAddress",
      "outputs": [],
      "stateMutability": "nonpayable",
      "type": "function"
    },
    {
      "inputs": [
        {
          "internalType": "address",
          "name": "_Staking_contract_address",
          "type": "address"
        }
      ],
      "name": "setStakeAddress",
      "outputs": [],
      "stateMutability": "nonpayable",
      "type": "function"
    },
    {
      "inputs": [],
      "name": "symbol",
      "outputs": [
        {
          "internalType": "string",
          "name": "",
          "type": "string"
        }
      ],
      "stateMutability": "view",
      "type": "function"
    },
    {
      "inputs": [],
      "name": "totalSupply",
      "outputs": [
        {
          "internalType": "uint256",
          "name": "",
          "type": "uint256"
        }
      ],
      "stateMutability": "view",
      "type": "function"
    },
    {
      "inputs": [
        {
          "internalType": "address",
          "name": "recipient",
          "type": "address"
        },
        {
          "internalType": "uint256",
          "name": "amount",
          "type": "uint256"
        }
      ],
      "name": "transfer",
      "outputs": [
        {
          "internalType": "bool",
          "name": "",
          "type": "bool"
        }
      ],
      "stateMutability": "nonpayable",
      "type": "function"
    },
    {
      "inputs": [
        {
          "internalType": "address",
          "name": "sender",
          "type": "address"
        },
        {
          "internalType": "address",
          "name": "recipient",
          "type": "address"
        },
        {
          "internalType": "uint256",
          "name": "amount",
          "type": "uint256"
        }
      ],
      "name": "transferFrom",
      "outputs": [
        {
          "internalType": "bool",
          "name": "",
          "type": "bool"
        }
      ],
      "stateMutability": "nonpayable",
      "type": "function"
    }
  ],
  "bytecode": "0x60806040523480156200001157600080fd5b5060405162001fe738038062001fe7833981810160405260608110156200003757600080fd5b81019080805160405193929190846401000000008211156200005857600080fd5b9083019060208201858111156200006e57600080fd5b82516401000000008111828201881017156200008957600080fd5b82525081516020918201929091019080838360005b83811015620000b85781810151838201526020016200009e565b50505050905090810190601f168015620000e65780820380516001836020036101000a031916815260200191505b50604052602001805160405193929190846401000000008211156200010a57600080fd5b9083019060208201858111156200012057600080fd5b82516401000000008111828201881017156200013b57600080fd5b82525081516020918201929091019080838360005b838110156200016a57818101518382015260200162000150565b50505050905090810190601f168015620001985780820380516001836020036101000a031916815260200191505b506040526020015191508190506001600160a01b0381166200021b57604080517f08c379a000000000000000000000000000000000000000000000000000000000815260206004820152601960248201527f4f776e657220616464726573732063616e6e6f74206265203000000000000000604482015290519081900360640190fd5b600380546001600160a01b0319166001600160a01b0383169081179091556040805160008152602081019290925280517fb532073b38c83145e3e5135377a08bf9aab55bc0fd7c1179cd4fb995d2a5159c9281900390910190a15082516200028b9060069060208601906200046c565b508151620002a19060059060208501906200046c565b50620002b9816a52b7d2dcc80cd2e4000000620002c2565b50505062000518565b6001600160a01b0382166200033857604080517f08c379a000000000000000000000000000000000000000000000000000000000815260206004820152601f60248201527f45524332303a206d696e7420746f20746865207a65726f206164647265737300604482015290519081900360640190fd5b6200034660008383620003eb565b6200036281600254620003f060201b620012f41790919060201c565b6002556001600160a01b0382166000908152602081815260409091205462000395918390620012f4620003f0821b17901c565b6001600160a01b0383166000818152602081815260408083209490945583518581529351929391927fddf252ad1be2c89b69c2b068fc378daa952ba7f163c4a11628f55a4df523b3ef9281900390910190a35050565b505050565b6000828201838110156200046557604080517f08c379a000000000000000000000000000000000000000000000000000000000815260206004820152601b60248201527f536166654d6174683a206164646974696f6e206f766572666c6f770000000000604482015290519081900360640190fd5b9392505050565b828054600181600116156101000203166002900490600052602060002090601f016020900481019282620004a45760008555620004ef565b82601f10620004bf57805160ff1916838001178555620004ef565b82800160010185558215620004ef579182015b82811115620004ef578251825591602001919060010190620004d2565b50620004fd92915062000501565b5090565b5b80821115620004fd576000815560010162000502565b611abf80620005286000396000f3fe608060405234801561001057600080fd5b50600436106101c45760003560e01c80636a8cdb52116100f9578063a9059cbb11610097578063dbe263a511610071578063dbe263a51461052d578063dbf6b9b514610559578063dd62ed3e14610585578063ec7a2cb8146105b3576101c4565b8063a9059cbb146104af578063aab67fe7146104db578063b4a7dd7414610501576101c4565b806379cc6790116100d357806379cc6790146104475780638da5cb5b1461047357806395d89b411461047b578063a457c2d714610483576101c4565b80636a8cdb52146103f357806370a082311461041957806379ba50971461043f576101c4565b80632f98087b116101665780633950935111610140578063395093511461039a57806342966c68146103c657806351e238e3146103e357806353a47bb7146103eb576101c4565b80632f98087b14610348578063309c62ba14610350578063313ce5671461037c576101c4565b80631627540c116101a25780631627540c146102aa57806318160ddd146102d257806323471d18146102ec57806323b872dd14610312576101c4565b80630264d45b146101c957806306fdde03146101ed578063095ea7b31461026a575b600080fd5b6101d16105bb565b604080516001600160a01b039092168252519081900360200190f35b6101f56105ca565b6040805160208082528351818301528351919283929083019185019080838360005b8381101561022f578181015183820152602001610217565b50505050905090810190601f16801561025c5780820380516001836020036101000a031916815260200191505b509250505060405180910390f35b6102966004803603604081101561028057600080fd5b506001600160a01b038135169060200135610658565b604080519115158252519081900360200190f35b6102d0600480360360208110156102c057600080fd5b50356001600160a01b0316610675565b005b6102da610712565b60408051918252519081900360200190f35b6102d06004803603602081101561030257600080fd5b50356001600160a01b0316610718565b6102966004803603606081101561032857600080fd5b506001600160a01b038135811691602081013590911690604001356108b2565b6101d1610939565b6102d06004803603604081101561036657600080fd5b506001600160a01b038135169060200135610948565b6103846109f5565b6040805160ff9092168252519081900360200190f35b610296600480360360408110156103b057600080fd5b506001600160a01b0381351690602001356109fa565b6102d0600480360360208110156103dc57600080fd5b5035610a48565b6102da610a5c565b6101d1610a6b565b6102d06004803603602081101561040957600080fd5b50356001600160a01b0316610a7a565b6102da6004803603602081101561042f57600080fd5b50356001600160a01b0316610c14565b6102d0610c2f565b6102d06004803603604081101561045d57600080fd5b506001600160a01b038135169060200135610ceb565b6101d1610d45565b6101f5610d54565b6102966004803603604081101561049957600080fd5b506001600160a01b038135169060200135610daf565b610296600480360360408110156104c557600080fd5b506001600160a01b038135169060200135610e17565b6102d0600480360360208110156104f157600080fd5b50356001600160a01b0316610e2b565b6102d06004803603604081101561051757600080fd5b506001600160a01b038135169060200135610fc5565b6102d06004803603604081101561054357600080fd5b506001600160a01b038135169060200135611072565b6102d06004803603604081101561056f57600080fd5b506001600160a01b038135169060200135611196565b6102da6004803603604081101561059b57600080fd5b506001600160a01b03813581169160200135166112ba565b6101d16112e5565b6007546001600160a01b031681565b6006805460408051602060026001851615610100026000190190941693909304601f810184900484028201840190925281815292918301828280156106505780601f1061062557610100808354040283529160200191610650565b820191906000526020600020905b81548152906001019060200180831161063357829003601f168201915b505050505081565b600061066c610665611355565b8484611359565b50600192915050565b6003546001600160a01b031633146106be5760405162461bcd60e51b815260040180806020018281038252602f815260200180611980602f913960400191505060405180910390fd5b600480546001600160a01b0383166001600160a01b0319909116811790915560408051918252517f906a1c6bd7e3091ea86693dd029a831c19049ce77f1dce2ce0bab1cacbabce229181900360200190a150565b60025490565b6003546001600160a01b03163314806107b25750600a60009054906101000a90046001600160a01b03166001600160a01b03166367feda3e6040518163ffffffff1660e01b815260040160206040518083038186803b15801561077a57600080fd5b505afa15801561078e573d6000803e3d6000fd5b505050506040513d60208110156107a457600080fd5b50516001600160a01b031633145b610803576040805162461bcd60e51b815260206004820152601960248201527f4e6f7420746865206f776e65722c20636f6e74726f6c6c657200000000000000604482015290519081900360640190fd5b6001600160a01b03811661085e576040805162461bcd60e51b815260206004820152601560248201527f5a65726f20616464726573732064657465637465640000000000000000000000604482015290519081900360640190fd5b600980546001600160a01b0383166001600160a01b0319909116811790915560408051918252517f8df9c277daa02ebcd30d5449acdf58eb1048b62ab9f849e021816d82c6557bc09181900360200190a150565b60006108bf848484611445565b61092f846108cb611355565b61092a856040518060600160405280602881526020016119af602891396001600160a01b038a16600090815260016020526040812090610909611355565b6001600160a01b0316815260208101919091526040016000205491906115a0565b611359565b5060019392505050565b6009546001600160a01b031681565b6008546001600160a01b031633146109a7576040805162461bcd60e51b815260206004820152601060248201527f596f7520617265206e6f7420426f6e6400000000000000000000000000000000604482015290519081900360640190fd5b6109b18282611637565b6040805182815290516001600160a01b0384169130917fe4dd7a745cc7154aa3a9706500a76620d1251f84c990ecfe799726acef7a7aab9181900360200190a35050565b601281565b600061066c610a07611355565b8461092a8560016000610a18611355565b6001600160a01b03908116825260208083019390935260409182016000908120918c1681529252902054906112f4565b610a59610a53611355565b82611727565b50565b6a52b7d2dcc80cd2e400000081565b6004546001600160a01b031681565b6003546001600160a01b0316331480610b145750600a60009054906101000a90046001600160a01b03166001600160a01b03166367feda3e6040518163ffffffff1660e01b815260040160206040518083038186803b158015610adc57600080fd5b505afa158015610af0573d6000803e3d6000fd5b505050506040513d6020811015610b0657600080fd5b50516001600160a01b031633145b610b65576040805162461bcd60e51b815260206004820152601960248201527f4e6f7420746865206f776e65722c20636f6e74726f6c6c657200000000000000604482015290519081900360640190fd5b6001600160a01b038116610bc0576040805162461bcd60e51b815260206004820152601560248201527f5a65726f20616464726573732064657465637465640000000000000000000000604482015290519081900360640190fd5b600880546001600160a01b0383166001600160a01b0319909116811790915560408051918252517f40191c3ec27c83454c50b18d90600f479b347c6c4fcdb045de0f6e36d33e636d9181900360200190a150565b6001600160a01b031660009081526020819052604090205490565b6004546001600160a01b03163314610c785760405162461bcd60e51b81526004018080602001828103825260358152602001806118e16035913960400191505060405180910390fd5b600354600454604080516001600160a01b03938416815292909116602083015280517fb532073b38c83145e3e5135377a08bf9aab55bc0fd7c1179cd4fb995d2a5159c9281900390910190a160048054600380546001600160a01b03199081166001600160a01b03841617909155169055565b6000610d22826040518060600160405280602481526020016119d760249139610d1b86610d16611355565b6112ba565b91906115a0565b9050610d3683610d30611355565b83611359565b610d408383611727565b505050565b6003546001600160a01b031681565b6005805460408051602060026001851615610100026000190190941693909304601f810184900484028201840190925281815292918301828280156106505780601f1061062557610100808354040283529160200191610650565b600061066c610dbc611355565b8461092a85604051806060016040528060258152602001611a656025913960016000610de6611355565b6001600160a01b03908116825260208083019390935260409182016000908120918d168152925290205491906115a0565b600061066c610e24611355565b8484611445565b6003546001600160a01b0316331480610ec55750600a60009054906101000a90046001600160a01b03166001600160a01b03166367feda3e6040518163ffffffff1660e01b815260040160206040518083038186803b158015610e8d57600080fd5b505afa158015610ea1573d6000803e3d6000fd5b505050506040513d6020811015610eb757600080fd5b50516001600160a01b031633145b610f16576040805162461bcd60e51b815260206004820152601960248201527f4e6f7420746865206f776e65722c20636f6e74726f6c6c657200000000000000604482015290519081900360640190fd5b6001600160a01b038116610f71576040805162461bcd60e51b815260206004820152601560248201527f5a65726f20616464726573732064657465637465640000000000000000000000604482015290519081900360640190fd5b600a80546001600160a01b0383166001600160a01b0319909116811790915560408051918252517f93ecff048208e3fbfe7e59563240637a55bae343258df1c606cf0310b047fb999181900360200190a150565b6009546001600160a01b03163314611024576040805162461bcd60e51b815260206004820152601c60248201527f596f7520617265206e6f74205374616b696e6720436f6e747261637400000000604482015290519081900360640190fd5b61102e8282611637565b6040805182815290516001600160a01b0384169130917f3cad72b6ed2539f51d618a26acae2f4f75a9bb54739601318d6f80a3b8e903da9181900360200190a35050565b600a60009054906101000a90046001600160a01b03166001600160a01b0316630c2e96746040518163ffffffff1660e01b815260040160206040518083038186803b1580156110c057600080fd5b505afa1580156110d4573d6000803e3d6000fd5b505050506040513d60208110156110ea57600080fd5b50516001600160a01b03163314611148576040805162461bcd60e51b815260206004820152601060248201527f596f7520617265206e6f742062616e6b00000000000000000000000000000000604482015290519081900360640190fd5b6111528282611637565b6040805182815290516001600160a01b0384169130917ff985a311dab93c77564f494f138b23b41d9c3b14bb2bfdbd5eb7fbc9e929b31b9181900360200190a35050565b600a60009054906101000a90046001600160a01b03166001600160a01b0316630c2e96746040518163ffffffff1660e01b815260040160206040518083038186803b1580156111e457600080fd5b505afa1580156111f8573d6000803e3d6000fd5b505050506040513d602081101561120e57600080fd5b50516001600160a01b0316331461126c576040805162461bcd60e51b815260206004820152601060248201527f596f7520617265206e6f742062616e6b00000000000000000000000000000000604482015290519081900360640190fd5b6112768282611823565b60408051828152905130916001600160a01b038516917f88fabba059a45fc661f616c17f6759748e090b3e4accb657282e8530df24d73f9181900360200190a35050565b6001600160a01b03918216600090815260016020908152604080832093909416825291909152205490565b6008546001600160a01b031681565b60008282018381101561134e576040805162461bcd60e51b815260206004820152601b60248201527f536166654d6174683a206164646974696f6e206f766572666c6f770000000000604482015290519081900360640190fd5b9392505050565b3390565b6001600160a01b03831661139e5760405162461bcd60e51b8152600401808060200182810382526024815260200180611a416024913960400191505060405180910390fd5b6001600160a01b0382166113e35760405162461bcd60e51b81526004018080602001828103825260228152602001806119386022913960400191505060405180910390fd5b6001600160a01b03808416600081815260016020908152604080832094871680845294825291829020859055815185815291517f8c5be1e5ebec7d5bd14f71427d1e84f3dd0314c0f7b2291e5b200ac8c7c3b9259281900390910190a3505050565b6001600160a01b03831661148a5760405162461bcd60e51b8152600401808060200182810382526025815260200180611a1c6025913960400191505060405180910390fd5b6001600160a01b0382166114cf5760405162461bcd60e51b81526004018080602001828103825260238152602001806118be6023913960400191505060405180910390fd5b6114da838383610d40565b6115178160405180606001604052806026815260200161195a602691396001600160a01b03861660009081526020819052604090205491906115a0565b6001600160a01b03808516600090815260208190526040808220939093559084168152205461154690826112f4565b6001600160a01b038084166000818152602081815260409182902094909455805185815290519193928716927fddf252ad1be2c89b69c2b068fc378daa952ba7f163c4a11628f55a4df523b3ef92918290030190a3505050565b6000818484111561162f5760405162461bcd60e51b81526004018080602001828103825283818151815260200191508051906020019080838360005b838110156115f45781810151838201526020016115dc565b50505050905090810190601f1680156116215780820380516001836020036101000a031916815260200191505b509250505060405180910390fd5b505050900390565b6001600160a01b038216611692576040805162461bcd60e51b815260206004820152601f60248201527f45524332303a206d696e7420746f20746865207a65726f206164647265737300604482015290519081900360640190fd5b61169e60008383610d40565b6002546116ab90826112f4565b6002556001600160a01b0382166000908152602081905260409020546116d190826112f4565b6001600160a01b0383166000818152602081815260408083209490945583518581529351929391927fddf252ad1be2c89b69c2b068fc378daa952ba7f163c4a11628f55a4df523b3ef9281900390910190a35050565b6001600160a01b03821661176c5760405162461bcd60e51b81526004018080602001828103825260218152602001806119fb6021913960400191505060405180910390fd5b61177882600083610d40565b6117b581604051806060016040528060228152602001611916602291396001600160a01b03851660009081526020819052604090205491906115a0565b6001600160a01b0383166000908152602081905260409020556002546117db908261187b565b6002556040805182815290516000916001600160a01b038516917fddf252ad1be2c89b69c2b068fc378daa952ba7f163c4a11628f55a4df523b3ef9181900360200190a35050565b61182d8282611727565b61187782611839611355565b61092a846040518060600160405280602481526020016119d7602491396001600160a01b038816600090815260016020526040812090610909611355565b5050565b600061134e83836040518060400160405280601e81526020017f536166654d6174683a207375627472616374696f6e206f766572666c6f7700008152506115a056fe45524332303a207472616e7366657220746f20746865207a65726f2061646472657373596f75206d757374206265206e6f6d696e61746564206265666f726520796f752063616e20616363657074206f776e65727368697045524332303a206275726e20616d6f756e7420657863656564732062616c616e636545524332303a20617070726f766520746f20746865207a65726f206164647265737345524332303a207472616e7366657220616d6f756e7420657863656564732062616c616e63654f6e6c792074686520636f6e7472616374206f776e6572206d617920706572666f726d207468697320616374696f6e45524332303a207472616e7366657220616d6f756e74206578636565647320616c6c6f77616e636545524332303a206275726e20616d6f756e74206578636565647320616c6c6f77616e636545524332303a206275726e2066726f6d20746865207a65726f206164647265737345524332303a207472616e736665722066726f6d20746865207a65726f206164647265737345524332303a20617070726f76652066726f6d20746865207a65726f206164647265737345524332303a2064656372656173656420616c6c6f77616e63652062656c6f77207a65726fa26469706673582212203224027c031ba74c09f2da770ebb8b55c52dba800ded6b9ea831ccae1c2c130264736f6c63430007050033",
  "linkReferences": {},
  "deployedLinkReferences": {}
}