{
  "_format": "hh-sol-artifact-1",
  "contractName": "EKLDepositor",
  "sourceName": "contracts/EKLDepositor.sol",
  "abi": [
    {
      "inputs": [
        {
          "internalType": "address",
          "name": "_staker",
          "type": "address"
        },
        {
          "internalType": "address",
          "name": "_minter",
          "type": "address"
        }
      ],
      "stateMutability": "nonpayable",
      "type": "constructor"
    },
    {
      "inputs": [],
      "name": "FEE_DENOMINATOR",
      "outputs": [
        {
          "internalType": "uint256",
          "name": "",
          "type": "uint256"
        }
      ],
      "stateMutability": "view",
      "type": "function"
    },
    {
      "inputs": [
        {
          "internalType": "uint256",
          "name": "_amount",
          "type": "uint256"
        },
        {
          "internalType": "bool",
          "name": "_lock",
          "type": "bool"
        },
        {
          "internalType": "address",
          "name": "_stakeAddress",
          "type": "address"
        }
      ],
      "name": "deposit",
      "outputs": [],
      "stateMutability": "nonpayable",
      "type": "function"
    },
    {
      "inputs": [
        {
          "internalType": "bool",
          "name": "_lock",
          "type": "bool"
        },
        {
          "internalType": "address",
          "name": "_stakeAddress",
          "type": "address"
        }
      ],
      "name": "depositAll",
      "outputs": [],
      "stateMutability": "nonpayable",
      "type": "function"
    },
    {
      "inputs": [
        {
          "internalType": "uint256",
          "name": "_amount",
          "type": "uint256"
        },
        {
          "internalType": "bool",
          "name": "_lock",
          "type": "bool"
        }
      ],
      "name": "depositEKL",
      "outputs": [],
      "stateMutability": "nonpayable",
      "type": "function"
    },
    {
      "inputs": [],
      "name": "ekl",
      "outputs": [
        {
          "internalType": "address",
          "name": "",
          "type": "address"
        }
      ],
      "stateMutability": "view",
      "type": "function"
    },
    {
      "inputs": [],
      "name": "escrow",
      "outputs": [
        {
          "internalType": "address",
          "name": "",
          "type": "address"
        }
      ],
      "stateMutability": "view",
      "type": "function"
    },
    {
      "inputs": [],
      "name": "feeManager",
      "outputs": [
        {
          "internalType": "address",
          "name": "",
          "type": "address"
        }
      ],
      "stateMutability": "view",
      "type": "function"
    },
    {
      "inputs": [],
      "name": "incentiveEKL",
      "outputs": [
        {
          "internalType": "uint256",
          "name": "",
          "type": "uint256"
        }
      ],
      "stateMutability": "view",
      "type": "function"
    },
    {
      "inputs": [],
      "name": "initialLock",
      "outputs": [],
      "stateMutability": "nonpayable",
      "type": "function"
    },
    {
      "inputs": [],
      "name": "lockEklipse",
      "outputs": [],
      "stateMutability": "nonpayable",
      "type": "function"
    },
    {
      "inputs": [],
      "name": "lockIncentive",
      "outputs": [
        {
          "internalType": "uint256",
          "name": "",
          "type": "uint256"
        }
      ],
      "stateMutability": "view",
      "type": "function"
    },
    {
      "inputs": [],
      "name": "minter",
      "outputs": [
        {
          "internalType": "address",
          "name": "",
          "type": "address"
        }
      ],
      "stateMutability": "view",
      "type": "function"
    },
    {
      "inputs": [
        {
          "internalType": "address",
          "name": "_feeManager",
          "type": "address"
        }
      ],
      "name": "setFeeManager",
      "outputs": [],
      "stateMutability": "nonpayable",
      "type": "function"
    },
    {
      "inputs": [
        {
          "internalType": "uint256",
          "name": "_lockIncentive",
          "type": "uint256"
        }
      ],
      "name": "setFees",
      "outputs": [],
      "stateMutability": "nonpayable",
      "type": "function"
    },
    {
      "inputs": [],
      "name": "staker",
      "outputs": [
        {
          "internalType": "address",
          "name": "",
          "type": "address"
        }
      ],
      "stateMutability": "view",
      "type": "function"
    },
    {
      "inputs": [],
      "name": "unlockTime",
      "outputs": [
        {
          "internalType": "uint256",
          "name": "",
          "type": "uint256"
        }
      ],
      "stateMutability": "view",
      "type": "function"
    },
    {
      "inputs": [],
      "name": "withdrawexpiredekl",
      "outputs": [],
      "stateMutability": "nonpayable",
      "type": "function"
    }
  ],
  "bytecode": "0x60c0604052600a600055600060025534801561001a57600080fd5b506040516116a23803806116a28339818101604052604081101561003d57600080fd5b5080516020909101516001600160601b0319606092831b8116608052911b1660a052600180546001600160a01b0319163317905560805160601c60a05160601c6115c26100e06000398061027c52806105b2528061063d52806106a952806106e05280610b245280610bfa52508061041852806104c6528061088a528061092252806109e75280610a7e5280610d765280610dc25280610e5a52506115c26000f3fe608060405234801561001057600080fd5b506004361061011b5760003560e01c806367989458116100b2578063ab85493a11610081578063d73792a911610066578063d73792a914610262578063e2fdcc171461026a578063f56e6c7e146102725761011b565b8063ab85493a14610252578063d0fb02031461025a5761011b565b8063679894581461020657806380ed71e41461020e578063836f8f2014610242578063878de1d01461024a5761011b565b8063472d35b9116100ee578063472d35b9146101ab57806350940618146101d15780635ebaf1db146101d9578063621419c0146101e15761011b565b80630754617214610120578063215537fd14610144578063251c1aa3146101745780633d18678e1461018e575b600080fd5b61012861027a565b604080516001600160a01b039092168252519081900360200190f35b6101726004803603604081101561015a57600080fd5b508035151590602001356001600160a01b031661029e565b005b61017c610331565b60408051918252519081900360200190f35b610172600480360360208110156101a457600080fd5b5035610337565b610172600480360360208110156101c157600080fd5b50356001600160a01b031661038f565b61017c610410565b610128610416565b610172600480360360408110156101f757600080fd5b5080359060200135151561043a565b61017c61044a565b6101726004803603606081101561022457600080fd5b508035906020810135151590604001356001600160a01b0316610450565b61017261078d565b610128610a64565b610172610a7c565b610128610b93565b61017c610ba2565b610128610ba8565b610172610bc0565b7f000000000000000000000000000000000000000000000000000000000000000081565b604080516370a0823160e01b8152336004820152905160009173807c4e063eb0ac21e8eef7623a6ed50a8ede58ca916370a0823191602480820192602092909190829003018186803b1580156102f357600080fd5b505afa158015610307573d6000803e3d6000fd5b505050506040513d602081101561031d57600080fd5b5051905061032c818484610450565b505050565b60035481565b6001546001600160a01b0316331461037e576040805162461bcd60e51b8152602060048201526005602482015264042c2eae8d60db1b604482015290519081900360640190fd5b601e811161038c5760008190555b50565b6001546001600160a01b031633146103d6576040805162461bcd60e51b8152602060048201526005602482015264042c2eae8d60db1b604482015290519081900360640190fd5b600180547fffffffffffffffffffffffff0000000000000000000000000000000000000000166001600160a01b0392909216919091179055565b60005481565b7f000000000000000000000000000000000000000000000000000000000000000081565b61044682826000610450565b5050565b60025481565b600083116104a5576040805162461bcd60e51b815260206004820152600360248201527f213e300000000000000000000000000000000000000000000000000000000000604482015290519081900360640190fd5b8115610516576104eb73807c4e063eb0ac21e8eef7623a6ed50a8ede58ca337f000000000000000000000000000000000000000000000000000000000000000086610c60565b6104f3610cd3565b6002541561051157600254610509908490610ee8565b600060025592505b61057a565b61053673807c4e063eb0ac21e8eef7623a6ed50a8ede58ca333086610c60565b600061055961271061055360005487610f4b90919063ffffffff16565b90610fa4565b9050610565848261100b565b6002549094506105759082610ee8565b600255505b6001600160a01b03811615801561061657604080516340c10f1960e01b81523360048201526024810186905290516001600160a01b037f000000000000000000000000000000000000000000000000000000000000000016916340c10f1991604480830192600092919082900301818387803b1580156105f957600080fd5b505af115801561060d573d6000803e3d6000fd5b50505050610787565b604080516340c10f1960e01b81523060048201526024810186905290516001600160a01b037f000000000000000000000000000000000000000000000000000000000000000016916340c10f1991604480830192600092919082900301818387803b15801561068457600080fd5b505af1158015610698573d6000803e3d6000fd5b506106d39250506001600160a01b037f0000000000000000000000000000000000000000000000000000000000000000169050836000611068565b6107076001600160a01b037f0000000000000000000000000000000000000000000000000000000000000000168386611068565b604080517f2ee409080000000000000000000000000000000000000000000000000000000081523360048201526024810186905290516001600160a01b03841691632ee4090891604480830192600092919082900301818387803b15801561076e57600080fd5b505af1158015610782573d6000803e3d6000fd5b505050505b50505050565b6001546001600160a01b031633146107d4576040805162461bcd60e51b8152602060048201526005602482015264042c2eae8d60db1b604482015290519081900360640190fd5b604080517f1959a002000000000000000000000000000000000000000000000000000000008152306004820152905160009173d067c3b871ee9e07ba4205a8f96c182babba6c5891631959a00291602480820192608092909190829003018186803b15801561084257600080fd5b505afa158015610856573d6000803e3d6000fd5b505050506040513d608081101561086c57600080fd5b505190508061038c574263077f880001600062093a808083040290507f00000000000000000000000000000000000000000000000000000000000000006001600160a01b03166386d1a69f6040518163ffffffff1660e01b8152600401600060405180830381600087803b1580156108e357600080fd5b505af11580156108f7573d6000803e3d6000fd5b50505050600073807c4e063eb0ac21e8eef7623a6ed50a8ede58ca6001600160a01b03166370a082317f00000000000000000000000000000000000000000000000000000000000000006040518263ffffffff1660e01b815260040180826001600160a01b0316815260200191505060206040518083038186803b15801561097e57600080fd5b505afa158015610992573d6000803e3d6000fd5b505050506040513d60208110156109a857600080fd5b5051604080517ff7d9d0c40000000000000000000000000000000000000000000000000000000081526004810183905290519192506001600160a01b037f0000000000000000000000000000000000000000000000000000000000000000169163f7d9d0c4916024808201926020929091908290030181600087803b158015610a3057600080fd5b505af1158015610a44573d6000803e3d6000fd5b505050506040513d6020811015610a5a57600080fd5b5050506003555050565b73807c4e063eb0ac21e8eef7623a6ed50a8ede58ca81565b7f00000000000000000000000000000000000000000000000000000000000000006001600160a01b03166386d1a69f6040518163ffffffff1660e01b8152600401600060405180830381600087803b158015610ad757600080fd5b505af1158015610aeb573d6000803e3d6000fd5b5050505060006002541115610b8957600254604080516340c10f1960e01b81523360048201526024810192909252516001600160a01b037f000000000000000000000000000000000000000000000000000000000000000016916340c10f1991604480830192600092919082900301818387803b158015610b6b57600080fd5b505af1158015610b7f573d6000803e3d6000fd5b5050600060025550505b610b91610cd3565b565b6001546001600160a01b031681565b61271081565b73d067c3b871ee9e07ba4205a8f96c182babba6c5881565b610bc8610cd3565b60025415610b9157600254604080516340c10f1960e01b81523360048201526024810192909252516001600160a01b037f000000000000000000000000000000000000000000000000000000000000000016916340c10f1991604480830192600092919082900301818387803b158015610c4157600080fd5b505af1158015610c55573d6000803e3d6000fd5b505060006002555050565b604080516001600160a01b0380861660248301528416604482015260648082018490528251808303909101815260849091019091526020810180516001600160e01b03167f23b872dd000000000000000000000000000000000000000000000000000000001790526107879085906111a9565b604080516370a0823160e01b8152306004820152905160009173807c4e063eb0ac21e8eef7623a6ed50a8ede58ca916370a0823191602480820192602092909190829003018186803b158015610d2857600080fd5b505afa158015610d3c573d6000803e3d6000fd5b505050506040513d6020811015610d5257600080fd5b505190508015610d9b57610d9b73807c4e063eb0ac21e8eef7623a6ed50a8ede58ca7f00000000000000000000000000000000000000000000000000000000000000008361125a565b600073807c4e063eb0ac21e8eef7623a6ed50a8ede58ca6001600160a01b03166370a082317f00000000000000000000000000000000000000000000000000000000000000006040518263ffffffff1660e01b815260040180826001600160a01b0316815260200191505060206040518083038186803b158015610e1e57600080fd5b505afa158015610e32573d6000803e3d6000fd5b505050506040513d6020811015610e4857600080fd5b5051905080610e58575050610b91565b7f00000000000000000000000000000000000000000000000000000000000000006001600160a01b031663f7d9d0c4826040518263ffffffff1660e01b815260040180828152602001915050602060405180830381600087803b158015610ebe57600080fd5b505af1158015610ed2573d6000803e3d6000fd5b505050506040513d602081101561078757600080fd5b600082820183811015610f42576040805162461bcd60e51b815260206004820152601b60248201527f536166654d6174683a206164646974696f6e206f766572666c6f770000000000604482015290519081900360640190fd5b90505b92915050565b600082610f5a57506000610f45565b82820282848281610f6757fe5b0414610f425760405162461bcd60e51b815260040180806020018281038252602181526020018061150c6021913960400191505060405180910390fd5b6000808211610ffa576040805162461bcd60e51b815260206004820152601a60248201527f536166654d6174683a206469766973696f6e206279207a65726f000000000000604482015290519081900360640190fd5b81838161100357fe5b049392505050565b600082821115611062576040805162461bcd60e51b815260206004820152601e60248201527f536166654d6174683a207375627472616374696f6e206f766572666c6f770000604482015290519081900360640190fd5b50900390565b8015806111075750604080517fdd62ed3e0000000000000000000000000000000000000000000000000000000081523060048201526001600160a01b03848116602483015291519185169163dd62ed3e91604480820192602092909190829003018186803b1580156110d957600080fd5b505afa1580156110ed573d6000803e3d6000fd5b505050506040513d602081101561110357600080fd5b5051155b6111425760405162461bcd60e51b81526004018080602001828103825260368152602001806115576036913960400191505060405180910390fd5b604080516001600160a01b038416602482015260448082018490528251808303909101815260649091019091526020810180516001600160e01b03167f095ea7b30000000000000000000000000000000000000000000000000000000017905261032c9084905b60606111fe826040518060400160405280602081526020017f5361666545524332303a206c6f772d6c6576656c2063616c6c206661696c6564815250856001600160a01b03166112c59092919063ffffffff16565b80519091501561032c5780806020019051602081101561121d57600080fd5b505161032c5760405162461bcd60e51b815260040180806020018281038252602a81526020018061152d602a913960400191505060405180910390fd5b604080516001600160a01b038416602482015260448082018490528251808303909101815260649091019091526020810180516001600160e01b03167fa9059cbb0000000000000000000000000000000000000000000000000000000017905261032c9084906111a9565b60606112d484846000856112de565b90505b9392505050565b606030318311156113205760405162461bcd60e51b81526004018080602001828103825260268152602001806114e66026913960400191505060405180910390fd5b6113298561143b565b61137a576040805162461bcd60e51b815260206004820152601d60248201527f416464726573733a2063616c6c20746f206e6f6e2d636f6e7472616374000000604482015290519081900360640190fd5b60006060866001600160a01b031685876040518082805190602001908083835b602083106113b95780518252601f19909201916020918201910161139a565b6001836020036101000a03801982511681845116808217855250505050505090500191505060006040518083038185875af1925050503d806000811461141b576040519150601f19603f3d011682016040523d82523d6000602084013e611420565b606091505b5091509150611430828286611441565b979650505050505050565b3b151590565b606083156114505750816112d7565b8251156114605782518084602001fd5b8160405162461bcd60e51b81526004018080602001828103825283818151815260200191508051906020019080838360005b838110156114aa578181015183820152602001611492565b50505050905090810190601f1680156114d75780820380516001836020036101000a031916815260200191505b509250505060405180910390fdfe416464726573733a20696e73756666696369656e742062616c616e636520666f722063616c6c536166654d6174683a206d756c7469706c69636174696f6e206f766572666c6f775361666545524332303a204552433230206f7065726174696f6e20646964206e6f7420737563636565645361666545524332303a20617070726f76652066726f6d206e6f6e2d7a65726f20746f206e6f6e2d7a65726f20616c6c6f77616e6365a264697066735822122084ce1281ebbea0f1c456c00dbf4760234ba61dad060227e2bb163ca54b82faed64736f6c63430007050033",
  "linkReferences": {},
  "deployedLinkReferences": {}
}