{
  "_format": "hh-sol-artifact-1",
  "contractName": "EKLkpEKLBond",
  "sourceName": "contracts/bond/EKlkpEKLBond.sol",
  "abi": [
    {
      "anonymous": false,
      "inputs": [
        {
          "indexed": false,
          "internalType": "address",
          "name": "depositor",
          "type": "address"
        },
        {
          "indexed": false,
          "internalType": "uint256",
          "name": "deposit",
          "type": "uint256"
        },
        {
          "indexed": true,
          "internalType": "uint256",
          "name": "payout",
          "type": "uint256"
        },
        {
          "indexed": true,
          "internalType": "uint256",
          "name": "expires",
          "type": "uint256"
        },
        {
          "indexed": true,
          "internalType": "uint256",
          "name": "priceInUSD",
          "type": "uint256"
        }
      ],
      "name": "BondCreated",
      "type": "event"
    },
    {
      "anonymous": false,
      "inputs": [
        {
          "indexed": true,
          "internalType": "uint256",
          "name": "priceInUSD",
          "type": "uint256"
        },
        {
          "indexed": true,
          "internalType": "uint256",
          "name": "debtRatio",
          "type": "uint256"
        }
      ],
      "name": "BondPriceChanged",
      "type": "event"
    },
    {
      "anonymous": false,
      "inputs": [
        {
          "indexed": true,
          "internalType": "address",
          "name": "recipient",
          "type": "address"
        },
        {
          "indexed": false,
          "internalType": "uint256",
          "name": "payout",
          "type": "uint256"
        },
        {
          "indexed": false,
          "internalType": "uint256",
          "name": "remaining",
          "type": "uint256"
        }
      ],
      "name": "BondRedeemed",
      "type": "event"
    },
    {
      "anonymous": false,
      "inputs": [
        {
          "indexed": false,
          "internalType": "uint256",
          "name": "initialBCV",
          "type": "uint256"
        },
        {
          "indexed": false,
          "internalType": "uint256",
          "name": "newBCV",
          "type": "uint256"
        },
        {
          "indexed": false,
          "internalType": "uint256",
          "name": "adjustment",
          "type": "uint256"
        },
        {
          "indexed": false,
          "internalType": "bool",
          "name": "addition",
          "type": "bool"
        }
      ],
      "name": "ControlVariableAdjustment",
      "type": "event"
    },
    {
      "anonymous": false,
      "inputs": [
        {
          "indexed": true,
          "internalType": "address",
          "name": "previousOwner",
          "type": "address"
        },
        {
          "indexed": true,
          "internalType": "address",
          "name": "newOwner",
          "type": "address"
        }
      ],
      "name": "OwnershipTransferred",
      "type": "event"
    },
    {
      "inputs": [],
      "name": "DAO",
      "outputs": [
        {
          "internalType": "address",
          "name": "",
          "type": "address"
        }
      ],
      "stateMutability": "view",
      "type": "function"
    },
    {
      "inputs": [],
      "name": "NAME",
      "outputs": [
        {
          "internalType": "string",
          "name": "",
          "type": "string"
        }
      ],
      "stateMutability": "pure",
      "type": "function"
    },
    {
      "inputs": [],
      "name": "REVISION",
      "outputs": [
        {
          "internalType": "uint256",
          "name": "",
          "type": "uint256"
        }
      ],
      "stateMutability": "view",
      "type": "function"
    },
    {
      "inputs": [
        {
          "internalType": "address",
          "name": "_kp",
          "type": "address"
        },
        {
          "internalType": "address",
          "name": "_DAO",
          "type": "address"
        },
        {
          "internalType": "address",
          "name": "_principle",
          "type": "address"
        },
        {
          "internalType": "address",
          "name": "_ekllp",
          "type": "address"
        },
        {
          "internalType": "address",
          "name": "_kplp",
          "type": "address"
        }
      ],
      "name": "__initialize",
      "outputs": [],
      "stateMutability": "nonpayable",
      "type": "function"
    },
    {
      "inputs": [],
      "name": "adjustment",
      "outputs": [
        {
          "internalType": "bool",
          "name": "add",
          "type": "bool"
        },
        {
          "internalType": "uint256",
          "name": "rate",
          "type": "uint256"
        },
        {
          "internalType": "uint256",
          "name": "target",
          "type": "uint256"
        },
        {
          "internalType": "uint256",
          "name": "buffer",
          "type": "uint256"
        },
        {
          "internalType": "uint256",
          "name": "lastBlock",
          "type": "uint256"
        }
      ],
      "stateMutability": "view",
      "type": "function"
    },
    {
      "inputs": [],
      "name": "assetPrice",
      "outputs": [
        {
          "internalType": "uint256",
          "name": "",
          "type": "uint256"
        }
      ],
      "stateMutability": "view",
      "type": "function"
    },
    {
      "inputs": [
        {
          "internalType": "address",
          "name": "",
          "type": "address"
        }
      ],
      "name": "bondInfo",
      "outputs": [
        {
          "internalType": "uint256",
          "name": "payout",
          "type": "uint256"
        },
        {
          "internalType": "uint256",
          "name": "vesting",
          "type": "uint256"
        },
        {
          "internalType": "uint256",
          "name": "lastBlock",
          "type": "uint256"
        },
        {
          "internalType": "uint256",
          "name": "pricePaid",
          "type": "uint256"
        }
      ],
      "stateMutability": "view",
      "type": "function"
    },
    {
      "inputs": [],
      "name": "bondPrice",
      "outputs": [
        {
          "internalType": "uint256",
          "name": "price_",
          "type": "uint256"
        }
      ],
      "stateMutability": "view",
      "type": "function"
    },
    {
      "inputs": [],
      "name": "currentDebt",
      "outputs": [
        {
          "internalType": "uint256",
          "name": "",
          "type": "uint256"
        }
      ],
      "stateMutability": "view",
      "type": "function"
    },
    {
      "inputs": [],
      "name": "debtDecay",
      "outputs": [
        {
          "internalType": "uint256",
          "name": "decay_",
          "type": "uint256"
        }
      ],
      "stateMutability": "view",
      "type": "function"
    },
    {
      "inputs": [],
      "name": "debtRatio",
      "outputs": [
        {
          "internalType": "uint256",
          "name": "debtRatio_",
          "type": "uint256"
        }
      ],
      "stateMutability": "view",
      "type": "function"
    },
    {
      "inputs": [
        {
          "internalType": "uint256",
          "name": "_amount",
          "type": "uint256"
        },
        {
          "internalType": "uint256",
          "name": "_maxPrice",
          "type": "uint256"
        },
        {
          "internalType": "address",
          "name": "_depositor",
          "type": "address"
        }
      ],
      "name": "deposit",
      "outputs": [
        {
          "internalType": "uint256",
          "name": "",
          "type": "uint256"
        }
      ],
      "stateMutability": "nonpayable",
      "type": "function"
    },
    {
      "inputs": [],
      "name": "ekl",
      "outputs": [
        {
          "internalType": "address",
          "name": "",
          "type": "address"
        }
      ],
      "stateMutability": "view",
      "type": "function"
    },
    {
      "inputs": [],
      "name": "ekllp",
      "outputs": [
        {
          "internalType": "address",
          "name": "",
          "type": "address"
        }
      ],
      "stateMutability": "view",
      "type": "function"
    },
    {
      "inputs": [
        {
          "internalType": "uint256",
          "name": "_controlVariable",
          "type": "uint256"
        },
        {
          "internalType": "uint256",
          "name": "_vestingTerm",
          "type": "uint256"
        },
        {
          "internalType": "uint256",
          "name": "_minimumPriceRate",
          "type": "uint256"
        },
        {
          "internalType": "uint256",
          "name": "_maxPayout",
          "type": "uint256"
        },
        {
          "internalType": "uint256",
          "name": "_fee",
          "type": "uint256"
        },
        {
          "internalType": "uint256",
          "name": "_maxDebt",
          "type": "uint256"
        },
        {
          "internalType": "uint256",
          "name": "_initialDebt",
          "type": "uint256"
        }
      ],
      "name": "initializeBondTerms",
      "outputs": [],
      "stateMutability": "nonpayable",
      "type": "function"
    },
    {
      "inputs": [],
      "name": "kp",
      "outputs": [
        {
          "internalType": "address",
          "name": "",
          "type": "address"
        }
      ],
      "stateMutability": "view",
      "type": "function"
    },
    {
      "inputs": [],
      "name": "kplp",
      "outputs": [
        {
          "internalType": "address",
          "name": "",
          "type": "address"
        }
      ],
      "stateMutability": "view",
      "type": "function"
    },
    {
      "inputs": [],
      "name": "lastDecay",
      "outputs": [
        {
          "internalType": "uint256",
          "name": "",
          "type": "uint256"
        }
      ],
      "stateMutability": "view",
      "type": "function"
    },
    {
      "inputs": [],
      "name": "maxPayout",
      "outputs": [
        {
          "internalType": "uint256",
          "name": "",
          "type": "uint256"
        }
      ],
      "stateMutability": "view",
      "type": "function"
    },
    {
      "inputs": [],
      "name": "owner",
      "outputs": [
        {
          "internalType": "address",
          "name": "",
          "type": "address"
        }
      ],
      "stateMutability": "view",
      "type": "function"
    },
    {
      "inputs": [
        {
          "internalType": "uint256",
          "name": "_value",
          "type": "uint256"
        }
      ],
      "name": "payoutFor",
      "outputs": [
        {
          "internalType": "uint256",
          "name": "",
          "type": "uint256"
        }
      ],
      "stateMutability": "view",
      "type": "function"
    },
    {
      "inputs": [
        {
          "internalType": "address",
          "name": "_depositor",
          "type": "address"
        }
      ],
      "name": "pendingPayoutFor",
      "outputs": [
        {
          "internalType": "uint256",
          "name": "pendingPayout_",
          "type": "uint256"
        }
      ],
      "stateMutability": "view",
      "type": "function"
    },
    {
      "inputs": [
        {
          "internalType": "address",
          "name": "_depositor",
          "type": "address"
        }
      ],
      "name": "percentVestedFor",
      "outputs": [
        {
          "internalType": "uint256",
          "name": "percentVested_",
          "type": "uint256"
        }
      ],
      "stateMutability": "view",
      "type": "function"
    },
    {
      "inputs": [],
      "name": "priceRate",
      "outputs": [
        {
          "internalType": "uint256",
          "name": "rate_",
          "type": "uint256"
        }
      ],
      "stateMutability": "view",
      "type": "function"
    },
    {
      "inputs": [],
      "name": "principle",
      "outputs": [
        {
          "internalType": "address",
          "name": "",
          "type": "address"
        }
      ],
      "stateMutability": "view",
      "type": "function"
    },
    {
      "inputs": [
        {
          "internalType": "address",
          "name": "_token",
          "type": "address"
        }
      ],
      "name": "recoverLostToken",
      "outputs": [
        {
          "internalType": "bool",
          "name": "",
          "type": "bool"
        }
      ],
      "stateMutability": "nonpayable",
      "type": "function"
    },
    {
      "inputs": [
        {
          "internalType": "address",
          "name": "_recipient",
          "type": "address"
        }
      ],
      "name": "redeem",
      "outputs": [
        {
          "internalType": "uint256",
          "name": "",
          "type": "uint256"
        }
      ],
      "stateMutability": "nonpayable",
      "type": "function"
    },
    {
      "inputs": [],
      "name": "renounceOwnership",
      "outputs": [],
      "stateMutability": "nonpayable",
      "type": "function"
    },
    {
      "inputs": [
        {
          "internalType": "bool",
          "name": "_addition",
          "type": "bool"
        },
        {
          "internalType": "uint256",
          "name": "_increment",
          "type": "uint256"
        },
        {
          "internalType": "uint256",
          "name": "_target",
          "type": "uint256"
        },
        {
          "internalType": "uint256",
          "name": "_buffer",
          "type": "uint256"
        }
      ],
      "name": "setAdjustment",
      "outputs": [],
      "stateMutability": "nonpayable",
      "type": "function"
    },
    {
      "inputs": [
        {
          "internalType": "enum EKLkpEKLBondDepository.PARAMETER",
          "name": "_parameter",
          "type": "uint8"
        },
        {
          "internalType": "uint256",
          "name": "_input",
          "type": "uint256"
        }
      ],
      "name": "setBondTerms",
      "outputs": [],
      "stateMutability": "nonpayable",
      "type": "function"
    },
    {
      "inputs": [
        {
          "internalType": "address",
          "name": "_treasury",
          "type": "address"
        }
      ],
      "name": "setTreasury",
      "outputs": [],
      "stateMutability": "nonpayable",
      "type": "function"
    },
    {
      "inputs": [],
      "name": "staking",
      "outputs": [
        {
          "internalType": "address",
          "name": "",
          "type": "address"
        }
      ],
      "stateMutability": "view",
      "type": "function"
    },
    {
      "inputs": [],
      "name": "terms",
      "outputs": [
        {
          "internalType": "uint256",
          "name": "controlVariable",
          "type": "uint256"
        },
        {
          "internalType": "uint256",
          "name": "vestingTerm",
          "type": "uint256"
        },
        {
          "internalType": "uint256",
          "name": "minimumPriceRate",
          "type": "uint256"
        },
        {
          "internalType": "uint256",
          "name": "maxPayout",
          "type": "uint256"
        },
        {
          "internalType": "uint256",
          "name": "fee",
          "type": "uint256"
        },
        {
          "internalType": "uint256",
          "name": "maxDebt",
          "type": "uint256"
        }
      ],
      "stateMutability": "view",
      "type": "function"
    },
    {
      "inputs": [],
      "name": "totalDebt",
      "outputs": [
        {
          "internalType": "uint256",
          "name": "",
          "type": "uint256"
        }
      ],
      "stateMutability": "view",
      "type": "function"
    },
    {
      "inputs": [
        {
          "internalType": "address",
          "name": "newOwner",
          "type": "address"
        }
      ],
      "name": "transferOwnership",
      "outputs": [],
      "stateMutability": "nonpayable",
      "type": "function"
    },
    {
      "inputs": [],
      "name": "treasury",
      "outputs": [
        {
          "internalType": "address",
          "name": "",
          "type": "address"
        }
      ],
      "stateMutability": "view",
      "type": "function"
    }
  ],
  "bytecode": "0x6080604052600060015534801561001557600080fd5b50600061002061006f565b600080546001600160a01b0319166001600160a01b0383169081178255604051929350917f8be0079c531659141344cd1fd0a4f28419497f9722a3daafe3b4186f6b6457e0908290a350610073565b3390565b6126c2806100826000396000f3fe608060405234801561001057600080fd5b506004361061025c5760003560e01c806398fabd3a11610145578063d7ccfb0b116100bd578063ed41dcaa1161008c578063f2fde38b11610071578063f2fde38b1461065b578063f5c2ab5b14610681578063fc7b9c18146106895761025c565b8063ed41dcaa1461062d578063f0f44260146106355761025c565b8063d7ccfb0b1461060d578063dde43cba14610615578063e0176de81461061d578063e392a262146106255761025c565b8063cd1234b311610114578063ceb791d9116100f9578063ceb791d9146105c2578063d24378eb146105ca578063d5025625146105d25761025c565b8063cd1234b31461056e578063cea55f57146105ba5761025c565b806398fabd3a14610467578063a3f4df7e1461046f578063b4abccba146104ec578063b64b709c146105265761025c565b8063715018a6116101d8578063878de1d0116101a75780638dbdbe6d1161018c5780638dbdbe6d1461040757806395a2251f146104395780639820dd621461045f5761025c565b8063878de1d0146103f75780638da5cb5b146103ff5761025c565b8063715018a6146103895780637153500814610391578063759076e5146103d25780637927ebf8146103da5761025c565b8063451ee4a11161022f578063507930ec11610214578063507930ec1461035357806361d027b31461037957806364a70e16146103815761025c565b8063451ee4a1146103165780634cf088d91461034b5761025c565b8063016a42841461026157806301b88ee8146102855780631a3d0068146102bd5780631e321a0f146102f0575b600080fd5b610269610691565b604080516001600160a01b039092168252519081900360200190f35b6102ab6004803603602081101561029b57600080fd5b50356001600160a01b03166106a0565b60408051918252519081900360200190f35b6102ee600480360360808110156102d357600080fd5b508035151590602081013590604081013590606001356106f9565b005b6102ee6004803603604081101561030657600080fd5b5060ff813516906020013561085c565b61031e610a2b565b60408051951515865260208601949094528484019290925260608401526080830152519081900360a00190f35b610269610a43565b6102ab6004803603602081101561036957600080fd5b50356001600160a01b0316610a52565b610269610ae4565b610269610af3565b6102ee610b02565b6102ee600480360360e08110156103a757600080fd5b5080359060208101359060408101359060608101359060808101359060a08101359060c00135610bc0565b6102ab610d8d565b6102ab600480360360208110156103f057600080fd5b5035610da9565b610269610dd7565b610269610def565b6102ab6004803603606081101561041d57600080fd5b50803590602081013590604001356001600160a01b0316610dfe565b6102ab6004803603602081101561044f57600080fd5b50356001600160a01b0316611290565b61026961156b565b61026961157a565b610477611589565b6040805160208082528351818301528351919283929083019185019080838360005b838110156104b1578181015183820152602001610499565b50505050905090810190601f1680156104de5780820380516001836020036101000a031916815260200191505b509250505060405180910390f35b6105126004803603602081101561050257600080fd5b50356001600160a01b03166115c0565b604080519115158252519081900360200190f35b6102ee600480360360a081101561053c57600080fd5b506001600160a01b03813581169160208101358216916040820135811691606081013582169160809091013516611724565b6105946004803603602081101561058457600080fd5b50356001600160a01b0316611820565b604080519485526020850193909352838301919091526060830152519081900360800190f35b6102ab611847565b6102ab61187a565b6102ab6118a9565b6105da611a6f565b604080519687526020870195909552858501939093526060850191909152608084015260a0830152519081900360c00190f35b6102ab611a84565b6102ab611b37565b6102ab611b3c565b6102ab611bce565b610269611c13565b6102ee6004803603602081101561064b57600080fd5b50356001600160a01b0316611c22565b6102ee6004803603602081101561067157600080fd5b50356001600160a01b0316611ccb565b6102ab611ddf565b6102ab611de5565b6038546001600160a01b031681565b6000806106ac83610a52565b6001600160a01b03841660009081526046602052604090205490915061271082106106d9578092506106f2565b6106ef6127106106e98385611deb565b90611e44565b92505b5050919050565b610701611eab565b6001600160a01b0316610712610def565b6001600160a01b03161461076d576040805162461bcd60e51b815260206004820181905260248201527f4f776e61626c653a2063616c6c6572206973206e6f7420746865206f776e6572604482015290519081900360640190fd5b603b54610783906103e8906106e9906019611deb565b8311156107c15760405162461bcd60e51b81526004018080602001828103825260238152602001806125366023913960400191505060405180910390fd5b836107d057603b5482106107d6565b603b5482115b6108115760405162461bcd60e51b81526004018080602001828103825260228152602001806124776022913960400191505060405180910390fd5b6040805160a08101825294151580865260208601859052908501839052606085018290524360809095018590526041805460ff19169091179055604292909255604355604455604555565b610864611eab565b6001600160a01b0316610875610def565b6001600160a01b0316146108d0576040805162461bcd60e51b815260206004820181905260248201527f4f776e61626c653a2063616c6c6572206973206e6f7420746865206f776e6572604482015290519081900360640190fd5b60008260048111156108de57fe5b14156108ee57603c819055610a27565b60018260048111156108fc57fe5b141561094d576127108111156109435760405162461bcd60e51b81526004018080602001828103825260308152602001806126036030913960400191505060405180910390fd5b603e819055610a27565b600282600481111561095b57fe5b14156109ac576127108111156109a25760405162461bcd60e51b815260040180806020018281038252602c81526020018061250a602c913960400191505060405180910390fd5b603f819055610a27565b60038260048111156109ba57fe5b14156109ca576040819055610a27565b60048260048111156109d857fe5b1415610a2757633b9aca00811115610a215760405162461bcd60e51b81526004018080602001828103825260288152602001806125596028913960400191505060405180910390fd5b603d8190555b5050565b60415460425460435460445460455460ff9094169385565b603a546001600160a01b031681565b6000610a5c612428565b506001600160a01b03821660009081526046602090815260408083208151608081018352815481526001820154938101939093526002810154918301829052600301546060830152909190610ab2904390611eaf565b60208301519091508015610ad757610ad0816106e984612710611deb565b9350610adc565b600093505b505050919050565b6039546001600160a01b031681565b6035546001600160a01b031681565b610b0a611eab565b6001600160a01b0316610b1b610def565b6001600160a01b031614610b76576040805162461bcd60e51b815260206004820181905260248201527f4f776e61626c653a2063616c6c6572206973206e6f7420746865206f776e6572604482015290519081900360640190fd5b600080546040516001600160a01b03909116907f8be0079c531659141344cd1fd0a4f28419497f9722a3daafe3b4186f6b6457e0908390a3600080546001600160a01b0319169055565b610bc8611eab565b6001600160a01b0316610bd9610def565b6001600160a01b031614610c34576040805162461bcd60e51b815260206004820181905260248201527f4f776e61626c653a2063616c6c6572206973206e6f7420746865206f776e6572604482015290519081900360640190fd5b603b5415610c735760405162461bcd60e51b81526004018080602001828103825260308152602001806126336030913960400191505060405180910390fd5b612710841115610cb45760405162461bcd60e51b81526004018080602001828103825260308152602001806126036030913960400191505060405180910390fd5b612710831115610cf55760405162461bcd60e51b815260040180806020018281038252602c81526020018061250a602c913960400191505060405180910390fd5b633b9aca00851115610d385760405162461bcd60e51b81526004018080602001828103825260288152602001806125596028913960400191505060405180910390fd5b6040805160c08101825288815260208101889052808201879052606081018690526080810185905260a001839052603b97909755603c95909555603d93909355603e91909155603f5590915560475543604855565b6000610da3610d9a611bce565b60475490611eaf565b90505b90565b6000610dd164e8d4a510006106e9610dbf611a84565b6106e986670de0b6b3a7640000611deb565b92915050565b73807c4e063eb0ac21e8eef7623a6ed50a8ede58ca81565b6000546001600160a01b031690565b60006001600160a01b038216610e5b576040805162461bcd60e51b815260206004820152601f60248201527f426f6e644465706f7369746f72793a20496e76616c6964206164647265737300604482015290519081900360640190fd5b610e63611f0c565b6040546047541115610ea65760405162461bcd60e51b81526004018080602001828103825260248152602001806124996024913960400191505060405180910390fd5b6000610eb0611a84565b905080841015610ef15760405162461bcd60e51b81526004018080602001828103825260338152602001806125d06033913960400191505060405180910390fd5b6000610f0c620f42406106e988610f066118a9565b90611deb565b90506000610f1982610da9565b9050662386f26fc10000811015610f77576040805162461bcd60e51b815260206004820152601e60248201527f426f6e644465706f7369746f72793a20426f6e6420746f6f20736d616c6c0000604482015290519081900360640190fd5b610f7f611b3c565b811115610fd3576040805162461bcd60e51b815260206004820152601e60248201527f426f6e644465706f7369746f72793a20426f6e6420746f6f206c617267650000604482015290519081900360640190fd5b6000610ff36127106106e9603b6004015485611deb90919063ffffffff16565b60385490915061100e906001600160a01b031633308b611f20565b603854603954604080517f095ea7b30000000000000000000000000000000000000000000000000000000081526001600160a01b039283166004820152602481018c90529051919092169163095ea7b39160448083019260209291908290030181600087803b15801561108057600080fd5b505af1158015611094573d6000803e3d6000fd5b505050506040513d60208110156110aa57600080fd5b50506039546038546001600160a01b039182169163bc157ac1918b91166110d18686611fae565b6040518463ffffffff1660e01b815260040180848152602001836001600160a01b031681526020018281526020019350505050600060405180830381600087803b15801561111e57600080fd5b505af1158015611132573d6000803e3d6000fd5b505050508060001461115b5760345460355461115b916001600160a01b03918216911683612008565b6047546111689083611fae565b604755604080516080810182526001600160a01b038816600090815260466020529190912054819061119a9085611fae565b8152603c805460208084019190915243604080850182905260609485018a90526001600160a01b038c1660009081526046845281902086518155928601516001840155850151600283015593909201516003909201919091555485916111ff91611fae565b604080516001600160a01b038a168152602081018c9052815186927fd52c75b244055af9364c0a5dc0da7868f6ae104012f245ad2702031af04d9b8e928290030190a461124a611847565b611252611a84565b6040517f2cb17bd1fd2a1fecfefae2de1e6a59194abaa62179652924ccdca01617f0bf1690600090a3611283612074565b50925050505b9392505050565b600061129a612428565b506001600160a01b0382166000908152604660209081526040808320815160808101835281548152600182015493810193909352600281015491830191909152600301546060820152906112ed84610a52565b905061271081106113f0576001600160a01b03841660008181526046602090815260408083208381556001810184905560028101849055600301839055855181519081529182019290925281517f51c99f515c87b0d95ba97f616edd182e8f161c4932eac17c6fefe9dab58b77b1929181900390910190a260355482516040805163a9059cbb60e01b81526001600160a01b03888116600483015260248201939093529051919092169163a9059cbb9160448083019260209291908290030181600087803b1580156113be57600080fd5b505af11580156113d2573d6000803e3d6000fd5b505050506040513d60208110156113e857600080fd5b506106f29050565b815160009061140790612710906106e99085611deb565b9050604051806080016040528061142b838660000151611eaf90919063ffffffff16565b815260200161145561144a866040015143611eaf90919063ffffffff16565b602087015190611eaf565b8152436020808301919091526060808701516040938401526001600160a01b0389166000818152604684528490208551808255868501516001830155868601516002830155959092015160039092019190915582518581529182019390935281517f51c99f515c87b0d95ba97f616edd182e8f161c4932eac17c6fefe9dab58b77b1929181900390910190a26035546040805163a9059cbb60e01b81526001600160a01b038881166004830152602482018590529151919092169163a9059cbb9160448083019260209291908290030181600087803b15801561153757600080fd5b505af115801561154b573d6000803e3d6000fd5b505050506040513d602081101561156157600080fd5b5050505050919050565b6037546001600160a01b031681565b6034546001600160a01b031681565b6040805180820190915260208082527f4b6c61795377617020454b4c2d6b70454b4c204c50204465706f7369746f72799082015290565b6035546000906001600160a01b0383811691161415611626576040805162461bcd60e51b815260206004820181905260248201527f426f6e6454726561737572793a2063616e6e6f74207769746864726177204b50604482015290519081900360640190fd5b6038546001600160a01b03838116911614156116735760405162461bcd60e51b81526004018080602001828103825260278152602001806124e36027913960400191505060405180910390fd5b603454604080517f70a08231000000000000000000000000000000000000000000000000000000008152306004820152905161171c926001600160a01b0390811692908616916370a0823191602480820192602092909190829003018186803b1580156116df57600080fd5b505afa1580156116f3573d6000803e3d6000fd5b505050506040513d602081101561170957600080fd5b50516001600160a01b0385169190612008565b506001919050565b600061172e612154565b905060015481116117705760405162461bcd60e51b815260040180806020018281038252602e8152602001806125a2602e913960400191505060405180910390fd5b60018190556001600160a01b03861661178857600080fd5b603580546001600160a01b0319166001600160a01b038881169190911790915585166117b357600080fd5b603480546001600160a01b0319166001600160a01b038781169190911790915584166117de57600080fd5b50603880546001600160a01b039485166001600160a01b0319918216179091556036805493851693821693909317909255603780549190931691161790555050565b60466020526000908152604090208054600182015460028301546003909301549192909184565b6000610da3670de0b6b3a76400006106e9603b600501546106e9670de0b6b3a7640000610f06633b9aca00610f06610d8d565b600061189560646106e961188c611847565b603b5490611deb565b603d54909150811015610da65750603d5490565b600080603860009054906101000a90046001600160a01b03166001600160a01b03166318160ddd6040518163ffffffff1660e01b815260040160206040518083038186803b1580156118fa57600080fd5b505afa15801561190e573d6000803e3d6000fd5b505050506040513d602081101561192457600080fd5b50516036546040805163e416118160e01b815273807c4e063eb0ac21e8eef7623a6ed50a8ede58ca6004820152670de0b6b3a7640000602482015290519293506000926001600160a01b039092169163e416118191604480820192602092909190829003018186803b15801561199957600080fd5b505afa1580156119ad573d6000803e3d6000fd5b505050506040513d60208110156119c357600080fd5b5051603854604080517f1a595f6500000000000000000000000000000000000000000000000000000000815281519394506000936001600160a01b0390931692631a595f6592600480840193919291829003018186803b158015611a2657600080fd5b505afa158015611a3a573d6000803e3d6000fd5b505050506040513d6040811015611a5057600080fd5b50519050611a67836106e984610f06856002611deb565b935050505090565b603b54603c54603d54603e54603f5460405486565b6037546035546040805163e416118160e01b81526001600160a01b039283166004820152670de0b6b3a7640000602482015290516000938493169163e4161181916044808301926020929190829003018186803b158015611ae457600080fd5b505afa158015611af8573d6000803e3d6000fd5b505050506040513d6020811015611b0e57600080fd5b505190506000611b1c61187a565b9050611b30633b9aca006106e98484611deb565b9250505090565b600181565b6000610da3620f42406106e9603b60030154603560009054906101000a90046001600160a01b03166001600160a01b03166318160ddd6040518163ffffffff1660e01b815260040160206040518083038186803b158015611b9c57600080fd5b505afa158015611bb0573d6000803e3d6000fd5b505050506040513d6020811015611bc657600080fd5b505190611deb565b600080611be660485443611eaf90919063ffffffff16565b603c54604754919250611bfd916106e99084611deb565b9150604754821115611c0f5760475491505b5090565b6036546001600160a01b031681565b611c2a611eab565b6001600160a01b0316611c3b610def565b6001600160a01b031614611c96576040805162461bcd60e51b815260206004820181905260248201527f4f776e61626c653a2063616c6c6572206973206e6f7420746865206f776e6572604482015290519081900360640190fd5b6001600160a01b038116611ca957600080fd5b603980546001600160a01b0319166001600160a01b0392909216919091179055565b611cd3611eab565b6001600160a01b0316611ce4610def565b6001600160a01b031614611d3f576040805162461bcd60e51b815260206004820181905260248201527f4f776e61626c653a2063616c6c6572206973206e6f7420746865206f776e6572604482015290519081900360640190fd5b6001600160a01b038116611d845760405162461bcd60e51b81526004018080602001828103825260268152602001806124516026913960400191505060405180910390fd5b600080546040516001600160a01b03808516939216917f8be0079c531659141344cd1fd0a4f28419497f9722a3daafe3b4186f6b6457e091a3600080546001600160a01b0319166001600160a01b0392909216919091179055565b60485481565b60475481565b600082611dfa57506000610dd1565b82820282848281611e0757fe5b04146112895760405162461bcd60e51b81526004018080602001828103825260218152602001806125816021913960400191505060405180910390fd5b6000808211611e9a576040805162461bcd60e51b815260206004820152601a60248201527f536166654d6174683a206469766973696f6e206279207a65726f000000000000604482015290519081900360640190fd5b818381611ea357fe5b049392505050565b3390565b600082821115611f06576040805162461bcd60e51b815260206004820152601e60248201527f536166654d6174683a207375627472616374696f6e206f766572666c6f770000604482015290519081900360640190fd5b50900390565b611f17610d9a611bce565b60475543604855565b604080516001600160a01b0380861660248301528416604482015260648082018490528251808303909101815260849091019091526020810180517bffffffffffffffffffffffffffffffffffffffffffffffffffffffff167f23b872dd00000000000000000000000000000000000000000000000000000000179052611fa8908590612159565b50505050565b600082820183811015611289576040805162461bcd60e51b815260206004820152601b60248201527f536166654d6174683a206164646974696f6e206f766572666c6f770000000000604482015290519081900360640190fd5b604080516001600160a01b038416602482015260448082018490528251808303909101815260649091019091526020810180517bffffffffffffffffffffffffffffffffffffffffffffffffffffffff1663a9059cbb60e01b17905261206f908490612159565b505050565b6044546045546000916120879190611fae565b6042549091501580159061209b5750804310155b1561215157603b5460415460ff16156120d557604254603b546120bd91611fae565b603b819055604354116120d05760006042555b6120f7565b604254603b546120e491611eaf565b603b819055604354106120f75760006042555b43604555603b546042546041546040805185815260208101949094528381019290925260ff1615156060830152517fb923e581a0f83128e9e1d8297aa52b18d6744310476e0b54509c054cd7a93b2a9181900360800190a1505b50565b600190565b60606121ae826040518060400160405280602081526020017f5361666545524332303a206c6f772d6c6576656c2063616c6c206661696c6564815250856001600160a01b031661220a9092919063ffffffff16565b80519091501561206f578080602001905160208110156121cd57600080fd5b505161206f5760405162461bcd60e51b815260040180806020018281038252602a815260200180612663602a913960400191505060405180910390fd5b60606122198484600085612221565b949350505050565b606030318311156122635760405162461bcd60e51b81526004018080602001828103825260268152602001806124bd6026913960400191505060405180910390fd5b61226c8561237e565b6122bd576040805162461bcd60e51b815260206004820152601d60248201527f416464726573733a2063616c6c20746f206e6f6e2d636f6e7472616374000000604482015290519081900360640190fd5b60006060866001600160a01b031685876040518082805190602001908083835b602083106122fc5780518252601f1990920191602091820191016122dd565b6001836020036101000a03801982511681845116808217855250505050505090500191505060006040518083038185875af1925050503d806000811461235e576040519150601f19603f3d011682016040523d82523d6000602084013e612363565b606091505b5091509150612373828286612384565b979650505050505050565b3b151590565b60608315612393575081611289565b8251156123a35782518084602001fd5b8160405162461bcd60e51b81526004018080602001828103825283818151815260200191508051906020019080838360005b838110156123ed5781810151838201526020016123d5565b50505050905090810190601f16801561241a5780820380516001836020036101000a031916815260200191505b509250505060405180910390fd5b604051806080016040528060008152602001600081526020016000815260200160008152509056fe4f776e61626c653a206e6577206f776e657220697320746865207a65726f2061646472657373426f6e644465706f7369746f72793a2077726f6e67207461726765742076616c7565426f6e644465706f7369746f72793a204d61782063617061636974792072656163686564416464726573733a20696e73756666696369656e742062616c616e636520666f722063616c6c426f6e6454726561737572793a2063616e6e6f74207769746864726177207072696e6369706c65426f6e644465706f7369746f72793a2044414f206665652063616e6e6f7420657863656564207061796f7574426f6e644465706f7369746f72793a20696e6372656d656e7420746f6f206c61726765426f6e644465706f7369746f72793a206d696e20646973636f756e74207261746520657863656564536166654d6174683a206d756c7469706c69636174696f6e206f766572666c6f77436f6e747261637420696e7374616e63652068617320616c7265616479206265656e20696e697469616c697a6564426f6e644465706f7369746f72793a20536c697070616765206c696d69743a206d6f7265207468616e206d6178207072696365426f6e644465706f7369746f72793a207061796f75742063616e6e6f742062652061626f766520312070657263656e74426f6e644465706f7369746f72793a20626f6e6473206d75737420626520696e697469616c697a65642066726f6d20305361666545524332303a204552433230206f7065726174696f6e20646964206e6f742073756363656564a2646970667358221220178eaa919c2479ab3fa72bc168f29c1c15c5e27f67aff08c4ca33658e70d8fa564736f6c63430007050033",
  "linkReferences": {},
  "deployedLinkReferences": {}
}