{
  "_format": "hh-sol-artifact-1",
  "contractName": "VirtualBalanceRewardPool",
  "sourceName": "contracts/VirtualBalanceRewardPool.sol",
  "abi": [
    {
      "inputs": [
        {
          "internalType": "address",
          "name": "deposit_",
          "type": "address"
        },
        {
          "internalType": "address",
          "name": "reward_",
          "type": "address"
        },
        {
          "internalType": "address",
          "name": "op_",
          "type": "address"
        }
      ],
      "stateMutability": "nonpayable",
      "type": "constructor"
    },
    {
      "anonymous": false,
      "inputs": [
        {
          "indexed": false,
          "internalType": "uint256",
          "name": "reward",
          "type": "uint256"
        }
      ],
      "name": "RewardAdded",
      "type": "event"
    },
    {
      "anonymous": false,
      "inputs": [
        {
          "indexed": true,
          "internalType": "address",
          "name": "user",
          "type": "address"
        },
        {
          "indexed": false,
          "internalType": "uint256",
          "name": "reward",
          "type": "uint256"
        }
      ],
      "name": "RewardPaid",
      "type": "event"
    },
    {
      "anonymous": false,
      "inputs": [
        {
          "indexed": true,
          "internalType": "address",
          "name": "user",
          "type": "address"
        },
        {
          "indexed": false,
          "internalType": "uint256",
          "name": "amount",
          "type": "uint256"
        }
      ],
      "name": "Staked",
      "type": "event"
    },
    {
      "anonymous": false,
      "inputs": [
        {
          "indexed": true,
          "internalType": "address",
          "name": "user",
          "type": "address"
        },
        {
          "indexed": false,
          "internalType": "uint256",
          "name": "amount",
          "type": "uint256"
        }
      ],
      "name": "Withdrawn",
      "type": "event"
    },
    {
      "inputs": [
        {
          "internalType": "address",
          "name": "account",
          "type": "address"
        }
      ],
      "name": "balanceOf",
      "outputs": [
        {
          "internalType": "uint256",
          "name": "",
          "type": "uint256"
        }
      ],
      "stateMutability": "view",
      "type": "function"
    },
    {
      "inputs": [],
      "name": "currentRewards",
      "outputs": [
        {
          "internalType": "uint256",
          "name": "",
          "type": "uint256"
        }
      ],
      "stateMutability": "view",
      "type": "function"
    },
    {
      "inputs": [],
      "name": "deposits",
      "outputs": [
        {
          "internalType": "contract IDeposit",
          "name": "",
          "type": "address"
        }
      ],
      "stateMutability": "view",
      "type": "function"
    },
    {
      "inputs": [
        {
          "internalType": "uint256",
          "name": "_amount",
          "type": "uint256"
        }
      ],
      "name": "donate",
      "outputs": [
        {
          "internalType": "bool",
          "name": "",
          "type": "bool"
        }
      ],
      "stateMutability": "nonpayable",
      "type": "function"
    },
    {
      "inputs": [],
      "name": "duration",
      "outputs": [
        {
          "internalType": "uint256",
          "name": "",
          "type": "uint256"
        }
      ],
      "stateMutability": "view",
      "type": "function"
    },
    {
      "inputs": [
        {
          "internalType": "address",
          "name": "account",
          "type": "address"
        }
      ],
      "name": "earned",
      "outputs": [
        {
          "internalType": "uint256",
          "name": "",
          "type": "uint256"
        }
      ],
      "stateMutability": "view",
      "type": "function"
    },
    {
      "inputs": [
        {
          "internalType": "address",
          "name": "_account",
          "type": "address"
        }
      ],
      "name": "getReward",
      "outputs": [],
      "stateMutability": "nonpayable",
      "type": "function"
    },
    {
      "inputs": [],
      "name": "historicalRewards",
      "outputs": [
        {
          "internalType": "uint256",
          "name": "",
          "type": "uint256"
        }
      ],
      "stateMutability": "view",
      "type": "function"
    },
    {
      "inputs": [],
      "name": "lastTimeRewardApplicable",
      "outputs": [
        {
          "internalType": "uint256",
          "name": "",
          "type": "uint256"
        }
      ],
      "stateMutability": "view",
      "type": "function"
    },
    {
      "inputs": [],
      "name": "lastUpdateTime",
      "outputs": [
        {
          "internalType": "uint256",
          "name": "",
          "type": "uint256"
        }
      ],
      "stateMutability": "view",
      "type": "function"
    },
    {
      "inputs": [],
      "name": "newRewardRatio",
      "outputs": [
        {
          "internalType": "uint256",
          "name": "",
          "type": "uint256"
        }
      ],
      "stateMutability": "view",
      "type": "function"
    },
    {
      "inputs": [],
      "name": "operator",
      "outputs": [
        {
          "internalType": "address",
          "name": "",
          "type": "address"
        }
      ],
      "stateMutability": "view",
      "type": "function"
    },
    {
      "inputs": [],
      "name": "periodFinish",
      "outputs": [
        {
          "internalType": "uint256",
          "name": "",
          "type": "uint256"
        }
      ],
      "stateMutability": "view",
      "type": "function"
    },
    {
      "inputs": [
        {
          "internalType": "uint256",
          "name": "_rewards",
          "type": "uint256"
        }
      ],
      "name": "queueNewRewards",
      "outputs": [],
      "stateMutability": "nonpayable",
      "type": "function"
    },
    {
      "inputs": [],
      "name": "queuedRewards",
      "outputs": [
        {
          "internalType": "uint256",
          "name": "",
          "type": "uint256"
        }
      ],
      "stateMutability": "view",
      "type": "function"
    },
    {
      "inputs": [],
      "name": "rewardPerToken",
      "outputs": [
        {
          "internalType": "uint256",
          "name": "",
          "type": "uint256"
        }
      ],
      "stateMutability": "view",
      "type": "function"
    },
    {
      "inputs": [],
      "name": "rewardPerTokenStored",
      "outputs": [
        {
          "internalType": "uint256",
          "name": "",
          "type": "uint256"
        }
      ],
      "stateMutability": "view",
      "type": "function"
    },
    {
      "inputs": [],
      "name": "rewardRate",
      "outputs": [
        {
          "internalType": "uint256",
          "name": "",
          "type": "uint256"
        }
      ],
      "stateMutability": "view",
      "type": "function"
    },
    {
      "inputs": [],
      "name": "rewardToken",
      "outputs": [
        {
          "internalType": "contract IERC20",
          "name": "",
          "type": "address"
        }
      ],
      "stateMutability": "view",
      "type": "function"
    },
    {
      "inputs": [
        {
          "internalType": "address",
          "name": "",
          "type": "address"
        }
      ],
      "name": "rewards",
      "outputs": [
        {
          "internalType": "uint256",
          "name": "",
          "type": "uint256"
        }
      ],
      "stateMutability": "view",
      "type": "function"
    },
    {
      "inputs": [
        {
          "internalType": "address",
          "name": "_account",
          "type": "address"
        },
        {
          "internalType": "uint256",
          "name": "amount",
          "type": "uint256"
        }
      ],
      "name": "stake",
      "outputs": [],
      "stateMutability": "nonpayable",
      "type": "function"
    },
    {
      "inputs": [],
      "name": "totalSupply",
      "outputs": [
        {
          "internalType": "uint256",
          "name": "",
          "type": "uint256"
        }
      ],
      "stateMutability": "view",
      "type": "function"
    },
    {
      "inputs": [
        {
          "internalType": "address",
          "name": "",
          "type": "address"
        }
      ],
      "name": "userRewardPerTokenPaid",
      "outputs": [
        {
          "internalType": "uint256",
          "name": "",
          "type": "uint256"
        }
      ],
      "stateMutability": "view",
      "type": "function"
    },
    {
      "inputs": [
        {
          "internalType": "address",
          "name": "_account",
          "type": "address"
        },
        {
          "internalType": "uint256",
          "name": "amount",
          "type": "uint256"
        }
      ],
      "name": "withdraw",
      "outputs": [],
      "stateMutability": "nonpayable",
      "type": "function"
    }
  ],
  "bytecode": "0x60806040526000600355600060045560006007556000600855600060095561033e600a5534801561002f57600080fd5b506040516111c23803806111c28339818101604052606081101561005257600080fd5b5080516020820151604090920151600080546001600160a01b039384166001600160a01b0319918216179091556001805494841694821694909417909355600280549290911691909216179055611114806100ae6000396000f3fe608060405234801561001057600080fd5b50600436106101975760003560e01c806380faa57d116100e3578063cd3daf9d1161008c578063f14faf6f11610066578063f14faf6f14610343578063f3fef3a314610374578063f7c618c1146103a057610197565b8063cd3daf9d1461032b578063df136d6514610333578063ebe2b12b1461033b57610197565b8063adc9772e116100bd578063adc9772e146102d1578063c00007b0146102fd578063c8f33c911461032357610197565b806380faa57d1461029b5780638b876347146102a3578063901a7d53146102c957610197565b8063570ca735116101455780636c8bcee81161011f5780636c8bcee81461026557806370a082311461026d5780637b0a47ee1461029357610197565b8063570ca73514610236578063590a41f51461023e57806363d38c3b1461025d57610197565b806318160ddd1161017657806318160ddd14610202578063262d3d6d1461020a578063323a5e0b1461021257610197565b80628cc2621461019c5780630700037d146101d45780630fb5a6b4146101fa575b600080fd5b6101c2600480360360208110156101b257600080fd5b50356001600160a01b03166103a8565b60408051918252519081900360200190f35b6101c2600480360360208110156101ea57600080fd5b50356001600160a01b0316610416565b6101c2610428565b6101c261042f565b6101c26104b0565b61021a6104b6565b604080516001600160a01b039092168252519081900360200190f35b61021a6104c5565b61025b6004803603602081101561025457600080fd5b50356104d4565b005b6101c26105b7565b6101c26105bd565b6101c26004803603602081101561028357600080fd5b50356001600160a01b03166105c3565b6101c261065c565b6101c2610662565b6101c2600480360360208110156102b957600080fd5b50356001600160a01b0316610675565b6101c2610687565b61025b600480360360408110156102e757600080fd5b506001600160a01b03813516906020013561068d565b61025b6004803603602081101561031357600080fd5b50356001600160a01b0316610779565b6101c2610855565b6101c261085b565b6101c26108a9565b6101c26108af565b6103606004803603602081101561035957600080fd5b50356108b5565b604080519115158252519081900360200190f35b61025b6004803603604081101561038a57600080fd5b506001600160a01b0381351690602001356108e5565b61021a6109d1565b6001600160a01b0381166000908152600c6020908152604080832054600b909252822054610410919061040a90670de0b6b3a764000090610404906103f5906103ef61085b565b906109e0565b6103fe886105c3565b90610a3d565b90610a9d565b90610b04565b92915050565b600c6020526000908152604090205481565b62093a8081565b60008060009054906101000a90046001600160a01b03166001600160a01b03166318160ddd6040518163ffffffff1660e01b815260040160206040518083038186803b15801561047e57600080fd5b505afa158015610492573d6000803e3d6000fd5b505050506040513d60208110156104a857600080fd5b505190505b90565b60095481565b6000546001600160a01b031681565b6002546001600160a01b031681565b6002546001600160a01b03163314610521576040805162461bcd60e51b815260206004820152600b60248201526a08585d5d1a1bdc9a5e995960aa1b604482015290519081900360640190fd5b60075461052f908290610b04565b9050600354421061054d5761054381610b5e565b60006007556105b4565b600061057161056a62093a806003546109e090919063ffffffff16565b42906109e0565b6004549091508102600061058b84610404846103e8610a3d565b9050600a548110156105aa576105a084610b5e565b60006007556105b0565b60078490555b5050505b50565b60075481565b600a5481565b60008054604080517f70a082310000000000000000000000000000000000000000000000000000000081526001600160a01b038581166004830152915191909216916370a08231916024808301926020929190829003018186803b15801561062a57600080fd5b505afa15801561063e573d6000803e3d6000fd5b505050506040513d602081101561065457600080fd5b505192915050565b60045481565b600061067042600354610c84565b905090565b600b6020526000908152604090205481565b60085481565b8161069661085b565b6006556106a1610662565b6005556001600160a01b038116156106e8576106bc816103a8565b6001600160a01b0382166000908152600c6020908152604080832093909355600654600b909152919020555b6000546001600160a01b03163314610735576040805162461bcd60e51b815260206004820152600b60248201526a08585d5d1a1bdc9a5e995960aa1b604482015290519081900360640190fd5b6040805183815290516001600160a01b038516917f9e71bc8eea02a63969f509818f2dafb9254532904319f9dbda79b67bd34a5f3d919081900360200190a2505050565b8061078261085b565b60065561078d610662565b6005556001600160a01b038116156107d4576107a8816103a8565b6001600160a01b0382166000908152600c6020908152604080832093909355600654600b909152919020555b60006107df836103a8565b90508015610850576001600160a01b038084166000908152600c602052604081205560015461081091168483610c9a565b6040805182815290516001600160a01b038516917fe2403640ba68fed3a2f88b7557551d1993f84b99bb10ff833f0cf8db0c5e0486919081900360200190a25b505050565b60055481565b600061086561042f565b61087257506006546104ad565b6106706108a061088061042f565b610404670de0b6b3a76400006103fe6004546103fe6005546103ef610662565b60065490610b04565b60065481565b60035481565b6001546000906108d0906001600160a01b0316333085610d1a565b6007546108dd9083610b04565b600755919050565b816108ee61085b565b6006556108f9610662565b6005556001600160a01b0381161561094057610914816103a8565b6001600160a01b0382166000908152600c6020908152604080832093909355600654600b909152919020555b6000546001600160a01b0316331461098d576040805162461bcd60e51b815260206004820152600b60248201526a08585d5d1a1bdc9a5e995960aa1b604482015290519081900360640190fd5b6040805183815290516001600160a01b038516917f7084f5476618d8e60b11ef0d7d3f06914655adb8793e28ff7f018d4c76d505d5919081900360200190a2505050565b6001546001600160a01b031681565b600082821115610a37576040805162461bcd60e51b815260206004820152601e60248201527f536166654d6174683a207375627472616374696f6e206f766572666c6f770000604482015290519081900360640190fd5b50900390565b600082610a4c57506000610410565b82820282848281610a5957fe5b0414610a965760405162461bcd60e51b81526004018080602001828103825260218152602001806110946021913960400191505060405180910390fd5b9392505050565b6000808211610af3576040805162461bcd60e51b815260206004820152601a60248201527f536166654d6174683a206469766973696f6e206279207a65726f000000000000604482015290519081900360640190fd5b818381610afc57fe5b049392505050565b600082820183811015610a96576040805162461bcd60e51b815260206004820152601b60248201527f536166654d6174683a206164646974696f6e206f766572666c6f770000000000604482015290519081900360640190fd5b6000610b6861085b565b600655610b73610662565b6005556001600160a01b03811615610bba57610b8e816103a8565b6001600160a01b0382166000908152600c6020908152604080832093909355600654600b909152919020555b600954610bc79083610b04565b6009556003544210610be857610be08262093a80610a9d565b600455610c32565b600354600090610bf890426109e0565b90506000610c1160045483610a3d90919063ffffffff16565b9050610c1d8482610b04565b9350610c2c8462093a80610a9d565b60045550505b6008829055426005819055610c4a9062093a80610b04565b6003556040805183815290517fde88a922e0d3b88b24e9623efeb464919c6bf9f66857a65e2bfcf2ce87a9433d9181900360200190a15050565b6000818310610c935781610a96565b5090919050565b604080516001600160a01b038416602482015260448082018490528251808303909101815260649091019091526020810180517bffffffffffffffffffffffffffffffffffffffffffffffffffffffff167fa9059cbb00000000000000000000000000000000000000000000000000000000179052610850908490610d9e565b604080516001600160a01b0380861660248301528416604482015260648082018490528251808303909101815260849091019091526020810180517bffffffffffffffffffffffffffffffffffffffffffffffffffffffff167f23b872dd000000000000000000000000000000000000000000000000000000001790526105b09085905b6060610df3826040518060400160405280602081526020017f5361666545524332303a206c6f772d6c6576656c2063616c6c206661696c6564815250856001600160a01b0316610e4f9092919063ffffffff16565b80519091501561085057808060200190516020811015610e1257600080fd5b50516108505760405162461bcd60e51b815260040180806020018281038252602a8152602001806110b5602a913960400191505060405180910390fd5b6060610e5e8484600085610e66565b949350505050565b60603031831115610ea85760405162461bcd60e51b815260040180806020018281038252602681526020018061106e6026913960400191505060405180910390fd5b610eb185610fc3565b610f02576040805162461bcd60e51b815260206004820152601d60248201527f416464726573733a2063616c6c20746f206e6f6e2d636f6e7472616374000000604482015290519081900360640190fd5b60006060866001600160a01b031685876040518082805190602001908083835b60208310610f415780518252601f199092019160209182019101610f22565b6001836020036101000a03801982511681845116808217855250505050505090500191505060006040518083038185875af1925050503d8060008114610fa3576040519150601f19603f3d011682016040523d82523d6000602084013e610fa8565b606091505b5091509150610fb8828286610fc9565b979650505050505050565b3b151590565b60608315610fd8575081610a96565b825115610fe85782518084602001fd5b8160405162461bcd60e51b81526004018080602001828103825283818151815260200191508051906020019080838360005b8381101561103257818101518382015260200161101a565b50505050905090810190601f16801561105f5780820380516001836020036101000a031916815260200191505b509250505060405180910390fdfe416464726573733a20696e73756666696369656e742062616c616e636520666f722063616c6c536166654d6174683a206d756c7469706c69636174696f6e206f766572666c6f775361666545524332303a204552433230206f7065726174696f6e20646964206e6f742073756363656564a264697066735822122032db97c86396a0dc87def90021209c77b47e7122832e3eabf7886081cc18debe64736f6c63430007050033",
  "linkReferences": {},
  "deployedLinkReferences": {}
}