{
  "_format": "hh-sol-artifact-1",
  "contractName": "BaseRewardPool",
  "sourceName": "contracts/BaseRewardPool.sol",
  "abi": [
    {
      "inputs": [
        {
          "internalType": "address",
          "name": "stakingToken_",
          "type": "address"
        },
        {
          "internalType": "address",
          "name": "rewardToken_",
          "type": "address"
        },
        {
          "internalType": "address",
          "name": "operator_",
          "type": "address"
        },
        {
          "internalType": "address",
          "name": "rewardManager_",
          "type": "address"
        }
      ],
      "stateMutability": "nonpayable",
      "type": "constructor"
    },
    {
      "anonymous": false,
      "inputs": [
        {
          "indexed": false,
          "internalType": "uint256",
          "name": "reward",
          "type": "uint256"
        }
      ],
      "name": "RewardAdded",
      "type": "event"
    },
    {
      "anonymous": false,
      "inputs": [
        {
          "indexed": true,
          "internalType": "address",
          "name": "user",
          "type": "address"
        },
        {
          "indexed": false,
          "internalType": "uint256",
          "name": "reward",
          "type": "uint256"
        }
      ],
      "name": "RewardPaid",
      "type": "event"
    },
    {
      "anonymous": false,
      "inputs": [
        {
          "indexed": true,
          "internalType": "address",
          "name": "user",
          "type": "address"
        },
        {
          "indexed": false,
          "internalType": "uint256",
          "name": "amount",
          "type": "uint256"
        }
      ],
      "name": "Staked",
      "type": "event"
    },
    {
      "anonymous": false,
      "inputs": [
        {
          "indexed": true,
          "internalType": "address",
          "name": "user",
          "type": "address"
        },
        {
          "indexed": false,
          "internalType": "uint256",
          "name": "amount",
          "type": "uint256"
        }
      ],
      "name": "Withdrawn",
      "type": "event"
    },
    {
      "inputs": [
        {
          "internalType": "address",
          "name": "_reward",
          "type": "address"
        }
      ],
      "name": "addExtraReward",
      "outputs": [
        {
          "internalType": "bool",
          "name": "",
          "type": "bool"
        }
      ],
      "stateMutability": "nonpayable",
      "type": "function"
    },
    {
      "inputs": [
        {
          "internalType": "address",
          "name": "account",
          "type": "address"
        }
      ],
      "name": "balanceOf",
      "outputs": [
        {
          "internalType": "uint256",
          "name": "",
          "type": "uint256"
        }
      ],
      "stateMutability": "view",
      "type": "function"
    },
    {
      "inputs": [],
      "name": "clearExtraRewards",
      "outputs": [],
      "stateMutability": "nonpayable",
      "type": "function"
    },
    {
      "inputs": [],
      "name": "currentRewards",
      "outputs": [
        {
          "internalType": "uint256",
          "name": "",
          "type": "uint256"
        }
      ],
      "stateMutability": "view",
      "type": "function"
    },
    {
      "inputs": [
        {
          "internalType": "uint256",
          "name": "_amount",
          "type": "uint256"
        }
      ],
      "name": "donate",
      "outputs": [
        {
          "internalType": "bool",
          "name": "",
          "type": "bool"
        }
      ],
      "stateMutability": "nonpayable",
      "type": "function"
    },
    {
      "inputs": [],
      "name": "duration",
      "outputs": [
        {
          "internalType": "uint256",
          "name": "",
          "type": "uint256"
        }
      ],
      "stateMutability": "view",
      "type": "function"
    },
    {
      "inputs": [
        {
          "internalType": "address",
          "name": "account",
          "type": "address"
        }
      ],
      "name": "earned",
      "outputs": [
        {
          "internalType": "uint256",
          "name": "",
          "type": "uint256"
        }
      ],
      "stateMutability": "view",
      "type": "function"
    },
    {
      "inputs": [
        {
          "internalType": "uint256",
          "name": "",
          "type": "uint256"
        }
      ],
      "name": "extraRewards",
      "outputs": [
        {
          "internalType": "address",
          "name": "",
          "type": "address"
        }
      ],
      "stateMutability": "view",
      "type": "function"
    },
    {
      "inputs": [],
      "name": "extraRewardsLength",
      "outputs": [
        {
          "internalType": "uint256",
          "name": "",
          "type": "uint256"
        }
      ],
      "stateMutability": "view",
      "type": "function"
    },
    {
      "inputs": [
        {
          "internalType": "address",
          "name": "_account",
          "type": "address"
        },
        {
          "internalType": "bool",
          "name": "_claimExtras",
          "type": "bool"
        }
      ],
      "name": "getReward",
      "outputs": [
        {
          "internalType": "bool",
          "name": "",
          "type": "bool"
        }
      ],
      "stateMutability": "nonpayable",
      "type": "function"
    },
    {
      "inputs": [],
      "name": "getkpEKLReward",
      "outputs": [
        {
          "internalType": "bool",
          "name": "",
          "type": "bool"
        }
      ],
      "stateMutability": "nonpayable",
      "type": "function"
    },
    {
      "inputs": [],
      "name": "historicalRewards",
      "outputs": [
        {
          "internalType": "uint256",
          "name": "",
          "type": "uint256"
        }
      ],
      "stateMutability": "view",
      "type": "function"
    },
    {
      "inputs": [],
      "name": "lastTimeRewardApplicable",
      "outputs": [
        {
          "internalType": "uint256",
          "name": "",
          "type": "uint256"
        }
      ],
      "stateMutability": "view",
      "type": "function"
    },
    {
      "inputs": [],
      "name": "lastUpdateTime",
      "outputs": [
        {
          "internalType": "uint256",
          "name": "",
          "type": "uint256"
        }
      ],
      "stateMutability": "view",
      "type": "function"
    },
    {
      "inputs": [],
      "name": "newRewardRatio",
      "outputs": [
        {
          "internalType": "uint256",
          "name": "",
          "type": "uint256"
        }
      ],
      "stateMutability": "view",
      "type": "function"
    },
    {
      "inputs": [],
      "name": "operator",
      "outputs": [
        {
          "internalType": "address",
          "name": "",
          "type": "address"
        }
      ],
      "stateMutability": "view",
      "type": "function"
    },
    {
      "inputs": [],
      "name": "periodFinish",
      "outputs": [
        {
          "internalType": "uint256",
          "name": "",
          "type": "uint256"
        }
      ],
      "stateMutability": "view",
      "type": "function"
    },
    {
      "inputs": [
        {
          "internalType": "uint256",
          "name": "_rewards",
          "type": "uint256"
        }
      ],
      "name": "queueNewRewards",
      "outputs": [
        {
          "internalType": "bool",
          "name": "",
          "type": "bool"
        }
      ],
      "stateMutability": "nonpayable",
      "type": "function"
    },
    {
      "inputs": [],
      "name": "queuedRewards",
      "outputs": [
        {
          "internalType": "uint256",
          "name": "",
          "type": "uint256"
        }
      ],
      "stateMutability": "view",
      "type": "function"
    },
    {
      "inputs": [],
      "name": "rewardManager",
      "outputs": [
        {
          "internalType": "address",
          "name": "",
          "type": "address"
        }
      ],
      "stateMutability": "view",
      "type": "function"
    },
    {
      "inputs": [],
      "name": "rewardPerToken",
      "outputs": [
        {
          "internalType": "uint256",
          "name": "",
          "type": "uint256"
        }
      ],
      "stateMutability": "view",
      "type": "function"
    },
    {
      "inputs": [],
      "name": "rewardPerTokenStored",
      "outputs": [
        {
          "internalType": "uint256",
          "name": "",
          "type": "uint256"
        }
      ],
      "stateMutability": "view",
      "type": "function"
    },
    {
      "inputs": [],
      "name": "rewardRate",
      "outputs": [
        {
          "internalType": "uint256",
          "name": "",
          "type": "uint256"
        }
      ],
      "stateMutability": "view",
      "type": "function"
    },
    {
      "inputs": [],
      "name": "rewardToken",
      "outputs": [
        {
          "internalType": "contract IERC20",
          "name": "",
          "type": "address"
        }
      ],
      "stateMutability": "view",
      "type": "function"
    },
    {
      "inputs": [
        {
          "internalType": "address",
          "name": "",
          "type": "address"
        }
      ],
      "name": "rewards",
      "outputs": [
        {
          "internalType": "uint256",
          "name": "",
          "type": "uint256"
        }
      ],
      "stateMutability": "view",
      "type": "function"
    },
    {
      "inputs": [
        {
          "internalType": "uint256",
          "name": "_amount",
          "type": "uint256"
        }
      ],
      "name": "stake",
      "outputs": [
        {
          "internalType": "bool",
          "name": "",
          "type": "bool"
        }
      ],
      "stateMutability": "nonpayable",
      "type": "function"
    },
    {
      "inputs": [],
      "name": "stakeAll",
      "outputs": [
        {
          "internalType": "bool",
          "name": "",
          "type": "bool"
        }
      ],
      "stateMutability": "nonpayable",
      "type": "function"
    },
    {
      "inputs": [
        {
          "internalType": "address",
          "name": "_for",
          "type": "address"
        },
        {
          "internalType": "uint256",
          "name": "_amount",
          "type": "uint256"
        }
      ],
      "name": "stakeFor",
      "outputs": [
        {
          "internalType": "bool",
          "name": "",
          "type": "bool"
        }
      ],
      "stateMutability": "nonpayable",
      "type": "function"
    },
    {
      "inputs": [],
      "name": "stakingToken",
      "outputs": [
        {
          "internalType": "contract IERC20",
          "name": "",
          "type": "address"
        }
      ],
      "stateMutability": "view",
      "type": "function"
    },
    {
      "inputs": [],
      "name": "totalSupply",
      "outputs": [
        {
          "internalType": "uint256",
          "name": "",
          "type": "uint256"
        }
      ],
      "stateMutability": "view",
      "type": "function"
    },
    {
      "inputs": [
        {
          "internalType": "address",
          "name": "",
          "type": "address"
        }
      ],
      "name": "userRewardPerTokenPaid",
      "outputs": [
        {
          "internalType": "uint256",
          "name": "",
          "type": "uint256"
        }
      ],
      "stateMutability": "view",
      "type": "function"
    },
    {
      "inputs": [
        {
          "internalType": "uint256",
          "name": "amount",
          "type": "uint256"
        },
        {
          "internalType": "bool",
          "name": "claim",
          "type": "bool"
        }
      ],
      "name": "withdraw",
      "outputs": [
        {
          "internalType": "bool",
          "name": "",
          "type": "bool"
        }
      ],
      "stateMutability": "nonpayable",
      "type": "function"
    },
    {
      "inputs": [
        {
          "internalType": "bool",
          "name": "claim",
          "type": "bool"
        }
      ],
      "name": "withdrawAll",
      "outputs": [],
      "stateMutability": "nonpayable",
      "type": "function"
    }
  ],
  "bytecode": "0x608060405260006004556000600555600060085560006009556000600a5534801561002957600080fd5b50604051611a15380380611a158339818101604052608081101561004c57600080fd5b50805160208201516040830151606090930151600180546001600160a01b039485166001600160a01b0319918216179091556000805493851693821693909317909255600280549484169483169490941790935560038054929093169116179055611959806100bc6000396000f3fe608060405234801561001057600080fd5b506004361061020a5760003560e01c80637050ccd91161012a578063a694fc3a116100bd578063d55a23f41161008c578063ebe2b12b11610071578063ebe2b12b14610496578063f14faf6f1461049e578063f7c618c1146104bb5761020a565b8063d55a23f414610486578063df136d651461048e5761020a565b8063a694fc3a14610451578063c0884d721461046e578063c8f33c9114610476578063cd3daf9d1461047e5761020a565b806380faa57d116100f957806380faa57d146104135780638b8763471461041b5780638dcb406114610441578063901a7d53146104495761020a565b80637050ccd9146103af57806370a08231146103dd57806372f702f3146104035780637b0a47ee1461040b5761020a565b80632ee40908116101a2578063590a41f511610171578063590a41f51461035c5780635e43c47b1461037957806363d38c3b1461039f5780636c8bcee8146103a75761020a565b80632ee40908146102d257806338d074361461031257806340c3544614610337578063570ca735146103545761020a565b80630fb5a6b4116101de5780630fb5a6b41461029b57806318160ddd146102a35780631c1c6fe5146102ab578063262d3d6d146102ca5761020a565b80628cc2621461020f5780630569d388146102475780630700037d146102515780630f4ef8a614610277575b600080fd5b6102356004803603602081101561022557600080fd5b50356001600160a01b03166104c3565b60408051918252519081900360200190f35b61024f610533565b005b6102356004803603602081101561026757600080fd5b50356001600160a01b031661058e565b61027f6105a0565b604080516001600160a01b039092168252519081900360200190f35b6102356105af565b6102356105b6565b61024f600480360360208110156102c157600080fd5b503515156105bd565b6102356105db565b6102fe600480360360408110156102e857600080fd5b506001600160a01b0381351690602001356105e1565b604080519115158252519081900360200190f35b6102fe6004803603604081101561032857600080fd5b508035906020013515156107d4565b61027f6004803603602081101561034d57600080fd5b50356109dc565b61027f610a06565b6102fe6004803603602081101561037257600080fd5b5035610a15565b6102fe6004803603602081101561038f57600080fd5b50356001600160a01b0316610b02565b610235610c19565b610235610c1f565b6102fe600480360360408110156103c557600080fd5b506001600160a01b0381351690602001351515610c25565b610235600480360360208110156103f357600080fd5b50356001600160a01b0316610e3f565b61027f610e5a565b610235610e69565b610235610e6f565b6102356004803603602081101561043157600080fd5b50356001600160a01b0316610e82565b6102fe610e94565b610235610f3d565b6102fe6004803603602081101561046757600080fd5b5035610f43565b6102fe61111f565b610235611134565b61023561113a565b610235611188565b61023561118e565b610235611194565b6102fe600480360360208110156104b457600080fd5b503561119a565b61027f6111c8565b6001600160a01b0381166000908152600d6020908152604080832054600c90925282205461052b919061052590670de0b6b3a76400009061051f906105109061050a61113a565b906111d7565b61051988610e3f565b90611239565b90611299565b90611300565b90505b919050565b6003546001600160a01b03163314610580576040805162461bcd60e51b815260206004820152600b60248201526a08585d5d1a1bdc9a5e995960aa1b604482015290519081900360640190fd5b61058c600f6000611878565b565b600d6020526000908152604090205481565b6003546001600160a01b031681565b62093a8081565b600b545b90565b336000908152600e60205260409020546105d790826107d4565b5050565b600a5481565b6000826105ec61113a565b6007556105f7610e6f565b6006556001600160a01b0381161561063e57610612816104c3565b6001600160a01b0382166000908152600d6020908152604080832093909355600754600c909152919020555b60008311610693576040805162461bcd60e51b815260206004820152601b60248201527f526577617264506f6f6c203a2043616e6e6f74207374616b6520300000000000604482015290519081900360640190fd5b60005b600f5481101561072a57600f81815481106106ad57fe5b6000918252602082200154604080516356e4bb9760e11b81526001600160a01b038981166004830152602482018990529151919092169263adc9772e926044808201939182900301818387803b15801561070657600080fd5b505af115801561071a573d6000803e3d6000fd5b5050600190920191506106969050565b50600b546107389084611300565b600b556001600160a01b0384166000908152600e602052604090205461075e9084611300565b6001600160a01b038086166000908152600e602052604090209190915560015461078b911633308661135a565b6040805184815290516001600160a01b038616917f9e71bc8eea02a63969f509818f2dafb9254532904319f9dbda79b67bd34a5f3d919081900360200190a25060019392505050565b6000336107df61113a565b6007556107ea610e6f565b6006556001600160a01b0381161561083157610805816104c3565b6001600160a01b0382166000908152600d6020908152604080832093909355600754600c909152919020555b60008411610886576040805162461bcd60e51b815260206004820152601e60248201527f526577617264506f6f6c203a2043616e6e6f7420776974686472617720300000604482015290519081900360640190fd5b60005b600f5481101561093257600f81815481106108a057fe5b6000918252602082200154604080517ff3fef3a30000000000000000000000000000000000000000000000000000000081523360048201526024810189905290516001600160a01b039092169263f3fef3a39260448084019382900301818387803b15801561090e57600080fd5b505af1158015610922573d6000803e3d6000fd5b5050600190920191506108899050565b50600b5461094090856111d7565b600b55336000908152600e602052604090205461095d90856111d7565b336000818152600e6020526040902091909155600154610989916001600160a01b0390911690866113e8565b60408051858152905133917f7084f5476618d8e60b11ef0d7d3f06914655adb8793e28ff7f018d4c76d505d5919081900360200190a282156109d2576109d0336001610c25565b505b5060019392505050565b600f81815481106109ec57600080fd5b6000918252602090912001546001600160a01b0316905081565b6002546001600160a01b031681565b6002546000906001600160a01b03163314610a65576040805162461bcd60e51b815260206004820152600b60248201526a08585d5d1a1bdc9a5e995960aa1b604482015290519081900360640190fd5b600854610a73908390611300565b91506004544210610a9457610a878261146d565b506000600855600161052e565b6000610ab8610ab162093a806004546111d790919063ffffffff16565b42906111d7565b60055490915081026000610ad28561051f846103e8611239565b905061033e811015610af157610ae78561146d565b6000600855610af7565b60088590555b506001949350505050565b6003546000906001600160a01b03163314610b52576040805162461bcd60e51b815260206004820152600b60248201526a08585d5d1a1bdc9a5e995960aa1b604482015290519081900360640190fd5b6001600160a01b038216610bad576040805162461bcd60e51b815260206004820152600f60248201527f217265776172642073657474696e670000000000000000000000000000000000604482015290519081900360640190fd5b50600f8054600181810183556000929092527f8d1108e10bcb7c27dddfc02ed9d693a074039d026cf4ea4240b40f7d581ac8020180546001600160a01b0384167fffffffffffffffffffffffff0000000000000000000000000000000000000000909116179055919050565b60085481565b61033e81565b600082610c3061113a565b600755610c3b610e6f565b6006556001600160a01b03811615610c8257610c56816104c3565b6001600160a01b0382166000908152600d6020908152604080832093909355600754600c909152919020555b6000610c8d856104c3565b90508015610d84576001600160a01b038086166000908152600d6020526040812081905554610cbe911686836113e8565b600254604080517f83b781880000000000000000000000000000000000000000000000000000000081526001600160a01b03888116600483015260248201859052915191909216916383b7818891604480830192600092919082900301818387803b158015610d2c57600080fd5b505af1158015610d40573d6000803e3d6000fd5b50506040805184815290516001600160a01b03891693507fe2403640ba68fed3a2f88b7557551d1993f84b99bb10ff833f0cf8db0c5e048692509081900360200190a25b8315610af75760005b600f54811015610e3357600f8181548110610da457fe5b6000918252602082200154604080517fc00007b00000000000000000000000000000000000000000000000000000000081526001600160a01b038a811660048301529151919092169263c00007b0926024808201939182900301818387803b158015610e0f57600080fd5b505af1158015610e23573d6000803e3d6000fd5b505060019092019150610d8d9050565b50506001949350505050565b6001600160a01b03166000908152600e602052604090205490565b6001546001600160a01b031681565b60055481565b6000610e7d42600454611593565b905090565b600c6020526000908152604090205481565b600154604080517f70a08231000000000000000000000000000000000000000000000000000000008152336004820152905160009283926001600160a01b03909116916370a0823191602480820192602092909190829003018186803b158015610efd57600080fd5b505afa158015610f11573d6000803e3d6000fd5b505050506040513d6020811015610f2757600080fd5b50519050610f3481610f43565b50600191505090565b60095481565b600033610f4e61113a565b600755610f59610e6f565b6006556001600160a01b03811615610fa057610f74816104c3565b6001600160a01b0382166000908152600d6020908152604080832093909355600754600c909152919020555b60008311610ff5576040805162461bcd60e51b815260206004820152601b60248201527f526577617264506f6f6c203a2043616e6e6f74207374616b6520300000000000604482015290519081900360640190fd5b60005b600f5481101561108857600f818154811061100f57fe5b6000918252602082200154604080516356e4bb9760e11b81523360048201526024810188905290516001600160a01b039092169263adc9772e9260448084019382900301818387803b15801561106457600080fd5b505af1158015611078573d6000803e3d6000fd5b505060019092019150610ff89050565b50600b546110969084611300565b600b55336000908152600e60205260409020546110b39084611300565b336000818152600e60205260409020919091556001546110e0916001600160a01b0390911690308661135a565b60408051848152905133917f9e71bc8eea02a63969f509818f2dafb9254532904319f9dbda79b67bd34a5f3d919081900360200190a250600192915050565b600061112c336001610c25565b506001905090565b60065481565b60006111446105b6565b61115157506007546105ba565b610e7d61117f61115f6105b6565b61051f670de0b6b3a764000061051960055461051960065461050a610e6f565b60075490611300565b600f5490565b60075481565b60045481565b600080546111b3906001600160a01b031633308561135a565b6008546111c09083611300565b600855919050565b6000546001600160a01b031681565b60008282111561122e576040805162461bcd60e51b815260206004820152601e60248201527f536166654d6174683a207375627472616374696f6e206f766572666c6f770000604482015290519081900360640190fd5b508082035b92915050565b60008261124857506000611233565b8282028284828161125557fe5b04146112925760405162461bcd60e51b81526004018080602001828103825260218152602001806118d96021913960400191505060405180910390fd5b9392505050565b60008082116112ef576040805162461bcd60e51b815260206004820152601a60248201527f536166654d6174683a206469766973696f6e206279207a65726f000000000000604482015290519081900360640190fd5b8183816112f857fe5b049392505050565b600082820183811015611292576040805162461bcd60e51b815260206004820152601b60248201527f536166654d6174683a206164646974696f6e206f766572666c6f770000000000604482015290519081900360640190fd5b604080516001600160a01b0380861660248301528416604482015260648082018490528251808303909101815260849091019091526020810180517bffffffffffffffffffffffffffffffffffffffffffffffffffffffff167f23b872dd000000000000000000000000000000000000000000000000000000001790526113e29085906115a9565b50505050565b604080516001600160a01b038416602482015260448082018490528251808303909101815260649091019091526020810180517bffffffffffffffffffffffffffffffffffffffffffffffffffffffff167fa9059cbb000000000000000000000000000000000000000000000000000000001790526114689084906115a9565b505050565b600061147761113a565b600755611482610e6f565b6006556001600160a01b038116156114c95761149d816104c3565b6001600160a01b0382166000908152600d6020908152604080832093909355600754600c909152919020555b600a546114d69083611300565b600a5560045442106114f7576114ef8262093a80611299565b600555611541565b60045460009061150790426111d7565b905060006115206005548361123990919063ffffffff16565b905061152c8482611300565b935061153b8462093a80611299565b60055550505b60098290554260068190556115599062093a80611300565b6004556040805183815290517fde88a922e0d3b88b24e9623efeb464919c6bf9f66857a65e2bfcf2ce87a9433d9181900360200190a15050565b60008183106115a25781611292565b5090919050565b60606115fe826040518060400160405280602081526020017f5361666545524332303a206c6f772d6c6576656c2063616c6c206661696c6564815250856001600160a01b031661165a9092919063ffffffff16565b8051909150156114685780806020019051602081101561161d57600080fd5b50516114685760405162461bcd60e51b815260040180806020018281038252602a8152602001806118fa602a913960400191505060405180910390fd5b60606116698484600085611671565b949350505050565b606030318311156116b35760405162461bcd60e51b81526004018080602001828103825260268152602001806118b36026913960400191505060405180910390fd5b6116bc856117ce565b61170d576040805162461bcd60e51b815260206004820152601d60248201527f416464726573733a2063616c6c20746f206e6f6e2d636f6e7472616374000000604482015290519081900360640190fd5b60006060866001600160a01b031685876040518082805190602001908083835b6020831061174c5780518252601f19909201916020918201910161172d565b6001836020036101000a03801982511681845116808217855250505050505090500191505060006040518083038185875af1925050503d80600081146117ae576040519150601f19603f3d011682016040523d82523d6000602084013e6117b3565b606091505b50915091506117c38282866117d4565b979650505050505050565b3b151590565b606083156117e3575081611292565b8251156117f35782518084602001fd5b8160405162461bcd60e51b81526004018080602001828103825283818151815260200191508051906020019080838360005b8381101561183d578181015183820152602001611825565b50505050905090810190601f16801561186a5780820380516001836020036101000a031916815260200191505b509250505060405180910390fd5b50805460008255906000526020600020908101906118969190611899565b50565b5b808211156118ae576000815560010161189a565b509056fe416464726573733a20696e73756666696369656e742062616c616e636520666f722063616c6c536166654d6174683a206d756c7469706c69636174696f6e206f766572666c6f775361666545524332303a204552433230206f7065726174696f6e20646964206e6f742073756363656564a264697066735822122055e5bde3a55513506db4b4d09909b85a93a85da69890c3439d48ba115887576c64736f6c63430007050033",
  "linkReferences": {},
  "deployedLinkReferences": {}
}