{
  "_format": "hh-sol-artifact-1",
  "contractName": "KPUSDTBond",
  "sourceName": "contracts/bond/KPUSDTBond.sol",
  "abi": [
    {
      "anonymous": false,
      "inputs": [
        {
          "indexed": false,
          "internalType": "address",
          "name": "depositor",
          "type": "address"
        },
        {
          "indexed": false,
          "internalType": "uint256",
          "name": "deposit",
          "type": "uint256"
        },
        {
          "indexed": true,
          "internalType": "uint256",
          "name": "payout",
          "type": "uint256"
        },
        {
          "indexed": true,
          "internalType": "uint256",
          "name": "expires",
          "type": "uint256"
        },
        {
          "indexed": true,
          "internalType": "uint256",
          "name": "priceInUSD",
          "type": "uint256"
        }
      ],
      "name": "BondCreated",
      "type": "event"
    },
    {
      "anonymous": false,
      "inputs": [
        {
          "indexed": true,
          "internalType": "uint256",
          "name": "priceInUSD",
          "type": "uint256"
        },
        {
          "indexed": true,
          "internalType": "uint256",
          "name": "debtRatio",
          "type": "uint256"
        }
      ],
      "name": "BondPriceChanged",
      "type": "event"
    },
    {
      "anonymous": false,
      "inputs": [
        {
          "indexed": true,
          "internalType": "address",
          "name": "recipient",
          "type": "address"
        },
        {
          "indexed": false,
          "internalType": "uint256",
          "name": "payout",
          "type": "uint256"
        },
        {
          "indexed": false,
          "internalType": "uint256",
          "name": "remaining",
          "type": "uint256"
        }
      ],
      "name": "BondRedeemed",
      "type": "event"
    },
    {
      "anonymous": false,
      "inputs": [
        {
          "indexed": false,
          "internalType": "uint256",
          "name": "initialBCV",
          "type": "uint256"
        },
        {
          "indexed": false,
          "internalType": "uint256",
          "name": "newBCV",
          "type": "uint256"
        },
        {
          "indexed": false,
          "internalType": "uint256",
          "name": "adjustment",
          "type": "uint256"
        },
        {
          "indexed": false,
          "internalType": "bool",
          "name": "addition",
          "type": "bool"
        }
      ],
      "name": "ControlVariableAdjustment",
      "type": "event"
    },
    {
      "anonymous": false,
      "inputs": [
        {
          "indexed": true,
          "internalType": "address",
          "name": "previousOwner",
          "type": "address"
        },
        {
          "indexed": true,
          "internalType": "address",
          "name": "newOwner",
          "type": "address"
        }
      ],
      "name": "OwnershipTransferred",
      "type": "event"
    },
    {
      "inputs": [],
      "name": "DAO",
      "outputs": [
        {
          "internalType": "address",
          "name": "",
          "type": "address"
        }
      ],
      "stateMutability": "view",
      "type": "function"
    },
    {
      "inputs": [],
      "name": "NAME",
      "outputs": [
        {
          "internalType": "string",
          "name": "",
          "type": "string"
        }
      ],
      "stateMutability": "pure",
      "type": "function"
    },
    {
      "inputs": [],
      "name": "REVISION",
      "outputs": [
        {
          "internalType": "uint256",
          "name": "",
          "type": "uint256"
        }
      ],
      "stateMutability": "view",
      "type": "function"
    },
    {
      "inputs": [
        {
          "internalType": "address",
          "name": "_kp",
          "type": "address"
        },
        {
          "internalType": "address",
          "name": "_DAO",
          "type": "address"
        },
        {
          "internalType": "address",
          "name": "_principle",
          "type": "address"
        },
        {
          "internalType": "address",
          "name": "_kplp",
          "type": "address"
        }
      ],
      "name": "__initialize",
      "outputs": [],
      "stateMutability": "nonpayable",
      "type": "function"
    },
    {
      "inputs": [],
      "name": "adjustment",
      "outputs": [
        {
          "internalType": "bool",
          "name": "add",
          "type": "bool"
        },
        {
          "internalType": "uint256",
          "name": "rate",
          "type": "uint256"
        },
        {
          "internalType": "uint256",
          "name": "target",
          "type": "uint256"
        },
        {
          "internalType": "uint256",
          "name": "buffer",
          "type": "uint256"
        },
        {
          "internalType": "uint256",
          "name": "lastBlock",
          "type": "uint256"
        }
      ],
      "stateMutability": "view",
      "type": "function"
    },
    {
      "inputs": [],
      "name": "assetPrice",
      "outputs": [
        {
          "internalType": "uint256",
          "name": "",
          "type": "uint256"
        }
      ],
      "stateMutability": "view",
      "type": "function"
    },
    {
      "inputs": [
        {
          "internalType": "address",
          "name": "",
          "type": "address"
        }
      ],
      "name": "bondInfo",
      "outputs": [
        {
          "internalType": "uint256",
          "name": "payout",
          "type": "uint256"
        },
        {
          "internalType": "uint256",
          "name": "vesting",
          "type": "uint256"
        },
        {
          "internalType": "uint256",
          "name": "lastBlock",
          "type": "uint256"
        },
        {
          "internalType": "uint256",
          "name": "pricePaid",
          "type": "uint256"
        }
      ],
      "stateMutability": "view",
      "type": "function"
    },
    {
      "inputs": [],
      "name": "bondPrice",
      "outputs": [
        {
          "internalType": "uint256",
          "name": "price_",
          "type": "uint256"
        }
      ],
      "stateMutability": "view",
      "type": "function"
    },
    {
      "inputs": [],
      "name": "currentDebt",
      "outputs": [
        {
          "internalType": "uint256",
          "name": "",
          "type": "uint256"
        }
      ],
      "stateMutability": "view",
      "type": "function"
    },
    {
      "inputs": [],
      "name": "debtDecay",
      "outputs": [
        {
          "internalType": "uint256",
          "name": "decay_",
          "type": "uint256"
        }
      ],
      "stateMutability": "view",
      "type": "function"
    },
    {
      "inputs": [],
      "name": "debtRatio",
      "outputs": [
        {
          "internalType": "uint256",
          "name": "debtRatio_",
          "type": "uint256"
        }
      ],
      "stateMutability": "view",
      "type": "function"
    },
    {
      "inputs": [
        {
          "internalType": "uint256",
          "name": "_amount",
          "type": "uint256"
        },
        {
          "internalType": "uint256",
          "name": "_maxPrice",
          "type": "uint256"
        },
        {
          "internalType": "address",
          "name": "_depositor",
          "type": "address"
        }
      ],
      "name": "deposit",
      "outputs": [
        {
          "internalType": "uint256",
          "name": "",
          "type": "uint256"
        }
      ],
      "stateMutability": "nonpayable",
      "type": "function"
    },
    {
      "inputs": [
        {
          "internalType": "uint256",
          "name": "_controlVariable",
          "type": "uint256"
        },
        {
          "internalType": "uint256",
          "name": "_vestingTerm",
          "type": "uint256"
        },
        {
          "internalType": "uint256",
          "name": "_minimumPriceRate",
          "type": "uint256"
        },
        {
          "internalType": "uint256",
          "name": "_maxPayout",
          "type": "uint256"
        },
        {
          "internalType": "uint256",
          "name": "_fee",
          "type": "uint256"
        },
        {
          "internalType": "uint256",
          "name": "_maxDebt",
          "type": "uint256"
        },
        {
          "internalType": "uint256",
          "name": "_initialDebt",
          "type": "uint256"
        }
      ],
      "name": "initializeBondTerms",
      "outputs": [],
      "stateMutability": "nonpayable",
      "type": "function"
    },
    {
      "inputs": [],
      "name": "kp",
      "outputs": [
        {
          "internalType": "address",
          "name": "",
          "type": "address"
        }
      ],
      "stateMutability": "view",
      "type": "function"
    },
    {
      "inputs": [],
      "name": "kplp",
      "outputs": [
        {
          "internalType": "address",
          "name": "",
          "type": "address"
        }
      ],
      "stateMutability": "view",
      "type": "function"
    },
    {
      "inputs": [],
      "name": "lastDecay",
      "outputs": [
        {
          "internalType": "uint256",
          "name": "",
          "type": "uint256"
        }
      ],
      "stateMutability": "view",
      "type": "function"
    },
    {
      "inputs": [],
      "name": "maxPayout",
      "outputs": [
        {
          "internalType": "uint256",
          "name": "",
          "type": "uint256"
        }
      ],
      "stateMutability": "view",
      "type": "function"
    },
    {
      "inputs": [],
      "name": "owner",
      "outputs": [
        {
          "internalType": "address",
          "name": "",
          "type": "address"
        }
      ],
      "stateMutability": "view",
      "type": "function"
    },
    {
      "inputs": [
        {
          "internalType": "uint256",
          "name": "_value",
          "type": "uint256"
        }
      ],
      "name": "payoutFor",
      "outputs": [
        {
          "internalType": "uint256",
          "name": "",
          "type": "uint256"
        }
      ],
      "stateMutability": "view",
      "type": "function"
    },
    {
      "inputs": [
        {
          "internalType": "address",
          "name": "_depositor",
          "type": "address"
        }
      ],
      "name": "pendingPayoutFor",
      "outputs": [
        {
          "internalType": "uint256",
          "name": "pendingPayout_",
          "type": "uint256"
        }
      ],
      "stateMutability": "view",
      "type": "function"
    },
    {
      "inputs": [
        {
          "internalType": "address",
          "name": "_depositor",
          "type": "address"
        }
      ],
      "name": "percentVestedFor",
      "outputs": [
        {
          "internalType": "uint256",
          "name": "percentVested_",
          "type": "uint256"
        }
      ],
      "stateMutability": "view",
      "type": "function"
    },
    {
      "inputs": [],
      "name": "priceRate",
      "outputs": [
        {
          "internalType": "uint256",
          "name": "rate_",
          "type": "uint256"
        }
      ],
      "stateMutability": "view",
      "type": "function"
    },
    {
      "inputs": [],
      "name": "principle",
      "outputs": [
        {
          "internalType": "address",
          "name": "",
          "type": "address"
        }
      ],
      "stateMutability": "view",
      "type": "function"
    },
    {
      "inputs": [
        {
          "internalType": "address",
          "name": "_token",
          "type": "address"
        }
      ],
      "name": "recoverLostToken",
      "outputs": [
        {
          "internalType": "bool",
          "name": "",
          "type": "bool"
        }
      ],
      "stateMutability": "nonpayable",
      "type": "function"
    },
    {
      "inputs": [
        {
          "internalType": "address",
          "name": "_recipient",
          "type": "address"
        }
      ],
      "name": "redeem",
      "outputs": [
        {
          "internalType": "uint256",
          "name": "",
          "type": "uint256"
        }
      ],
      "stateMutability": "nonpayable",
      "type": "function"
    },
    {
      "inputs": [],
      "name": "renounceOwnership",
      "outputs": [],
      "stateMutability": "nonpayable",
      "type": "function"
    },
    {
      "inputs": [
        {
          "internalType": "bool",
          "name": "_addition",
          "type": "bool"
        },
        {
          "internalType": "uint256",
          "name": "_increment",
          "type": "uint256"
        },
        {
          "internalType": "uint256",
          "name": "_target",
          "type": "uint256"
        },
        {
          "internalType": "uint256",
          "name": "_buffer",
          "type": "uint256"
        }
      ],
      "name": "setAdjustment",
      "outputs": [],
      "stateMutability": "nonpayable",
      "type": "function"
    },
    {
      "inputs": [
        {
          "internalType": "enum BondDepository.PARAMETER",
          "name": "_parameter",
          "type": "uint8"
        },
        {
          "internalType": "uint256",
          "name": "_input",
          "type": "uint256"
        }
      ],
      "name": "setBondTerms",
      "outputs": [],
      "stateMutability": "nonpayable",
      "type": "function"
    },
    {
      "inputs": [
        {
          "internalType": "address",
          "name": "_treasury",
          "type": "address"
        }
      ],
      "name": "setTreasury",
      "outputs": [],
      "stateMutability": "nonpayable",
      "type": "function"
    },
    {
      "inputs": [],
      "name": "staking",
      "outputs": [
        {
          "internalType": "address",
          "name": "",
          "type": "address"
        }
      ],
      "stateMutability": "view",
      "type": "function"
    },
    {
      "inputs": [],
      "name": "terms",
      "outputs": [
        {
          "internalType": "uint256",
          "name": "controlVariable",
          "type": "uint256"
        },
        {
          "internalType": "uint256",
          "name": "vestingTerm",
          "type": "uint256"
        },
        {
          "internalType": "uint256",
          "name": "minimumPriceRate",
          "type": "uint256"
        },
        {
          "internalType": "uint256",
          "name": "maxPayout",
          "type": "uint256"
        },
        {
          "internalType": "uint256",
          "name": "fee",
          "type": "uint256"
        },
        {
          "internalType": "uint256",
          "name": "maxDebt",
          "type": "uint256"
        }
      ],
      "stateMutability": "view",
      "type": "function"
    },
    {
      "inputs": [],
      "name": "totalDebt",
      "outputs": [
        {
          "internalType": "uint256",
          "name": "",
          "type": "uint256"
        }
      ],
      "stateMutability": "view",
      "type": "function"
    },
    {
      "inputs": [
        {
          "internalType": "address",
          "name": "newOwner",
          "type": "address"
        }
      ],
      "name": "transferOwnership",
      "outputs": [],
      "stateMutability": "nonpayable",
      "type": "function"
    },
    {
      "inputs": [],
      "name": "treasury",
      "outputs": [
        {
          "internalType": "address",
          "name": "",
          "type": "address"
        }
      ],
      "stateMutability": "view",
      "type": "function"
    }
  ],
  "bytecode": "0x6080604052600060015534801561001557600080fd5b50600061002061006f565b600080546001600160a01b0319166001600160a01b0383169081178255604051929350917f8be0079c531659141344cd1fd0a4f28419497f9722a3daafe3b4186f6b6457e0908290a350610073565b3390565b6125e7806100826000396000f3fe608060405234801561001057600080fd5b50600436106102265760003560e01c80639820dd621161012a578063d5025625116100bd578063e392a2621161008c578063f2fde38b11610071578063f2fde38b1461060b578063f5c2ab5b14610631578063fc7b9c181461063957610226565b8063e392a262146105dd578063f0f44260146105e557610226565b8063d50256251461058a578063d7ccfb0b146105c5578063dde43cba146105cd578063e0176de8146105d557610226565b8063cd1234b3116100f9578063cd1234b314610526578063cea55f5714610572578063ceb791d91461057a578063d24378eb1461058257610226565b80639820dd621461045f57806398fabd3a14610467578063a3f4df7e1461046f578063b4abccba146104ec57610226565b806364a70e16116101bd5780637927ebf81161018c5780638da5cb5b116101715780638da5cb5b146103ff5780638dbdbe6d1461040757806395a2251f1461043957610226565b80637927ebf8146103a45780637b6432b3146103c157610226565b806364a70e161461034b578063715018a614610353578063715350081461035b578063759076e51461039c57610226565b8063451ee4a1116101f9578063451ee4a1146102e05780634cf088d914610315578063507930ec1461031d57806361d027b31461034357610226565b8063016a42841461022b57806301b88ee81461024f5780631a3d0068146102875780631e321a0f146102ba575b600080fd5b610233610641565b604080516001600160a01b039092168252519081900360200190f35b6102756004803603602081101561026557600080fd5b50356001600160a01b0316610650565b60408051918252519081900360200190f35b6102b86004803603608081101561029d57600080fd5b508035151590602081013590604081013590606001356106a9565b005b6102b8600480360360408110156102d057600080fd5b5060ff8135169060200135610808565b6102e86109d7565b60408051951515865260208601949094528484019290925260608401526080830152519081900360a00190f35b6102336109ef565b6102756004803603602081101561033357600080fd5b50356001600160a01b03166109fe565b610233610a90565b610233610a9f565b6102b8610aae565b6102b8600480360360e081101561037157600080fd5b5080359060208101359060408101359060608101359060808101359060a08101359060c00135610b6c565b610275610d36565b610275600480360360208110156103ba57600080fd5b5035610d52565b6102b8600480360360808110156103d757600080fd5b506001600160a01b038135811691602081013582169160408201358116916060013516610d80565b610233610e8b565b6102756004803603606081101561041d57600080fd5b50803590602081013590604001356001600160a01b0316610e9a565b6102756004803603602081101561044f57600080fd5b50356001600160a01b031661132c565b610233611607565b610233611616565b610477611625565b6040805160208082528351818301528351919283929083019185019080838360005b838110156104b1578181015183820152602001610499565b50505050905090810190601f1680156104de5780820380516001836020036101000a031916815260200191505b509250505060405180910390f35b6105126004803603602081101561050257600080fd5b50356001600160a01b031661165c565b604080519115158252519081900360200190f35b61054c6004803603602081101561053c57600080fd5b50356001600160a01b03166117c0565b604080519485526020850193909352838301919091526060830152519081900360800190f35b6102756117e7565b61027561181a565b610275611849565b610592611989565b604080519687526020870195909552858501939093526060850191909152608084015260a0830152519081900360c00190f35b61027561199e565b610275611a6a565b610275611a6f565b610275611b01565b6102b8600480360360208110156105fb57600080fd5b50356001600160a01b0316611b46565b6102b86004803603602081101561062157600080fd5b50356001600160a01b0316611bef565b610275611d03565b610275611d09565b6037546001600160a01b031681565b60008061065c836109fe565b6001600160a01b0384166000908152604560205260409020549091506127108210610689578092506106a2565b61069f6127106106998385611d0f565b90611d68565b92505b5050919050565b6106b1611dcf565b6001600160a01b03166106c2610e8b565b6001600160a01b03161461071d576040805162461bcd60e51b815260206004820181905260248201527f4f776e61626c653a2063616c6c6572206973206e6f7420746865206f776e6572604482015290519081900360640190fd5b603a54610733906103e890610699906019611d0f565b8311156107715760405162461bcd60e51b815260040180806020018281038252602381526020018061245b6023913960400191505060405180910390fd5b8361078057603a548210610786565b603a5482115b6107c15760405162461bcd60e51b815260040180806020018281038252602281526020018061239c6022913960400191505060405180910390fd5b6040805160a0810182529415158086526020860185905285820184905260608601839052436080909601869052815460ff1916179055604192909255604255604355604455565b610810611dcf565b6001600160a01b0316610821610e8b565b6001600160a01b03161461087c576040805162461bcd60e51b815260206004820181905260248201527f4f776e61626c653a2063616c6c6572206973206e6f7420746865206f776e6572604482015290519081900360640190fd5b600082600481111561088a57fe5b141561089a57603b8190556109d3565b60018260048111156108a857fe5b14156108f9576127108111156108ef5760405162461bcd60e51b81526004018080602001828103825260308152602001806125286030913960400191505060405180910390fd5b603d8190556109d3565b600282600481111561090757fe5b14156109585761271081111561094e5760405162461bcd60e51b815260040180806020018281038252602c81526020018061242f602c913960400191505060405180910390fd5b603e8190556109d3565b600382600481111561096657fe5b141561097657603f8190556109d3565b600482600481111561098457fe5b14156109d357633b9aca008111156109cd5760405162461bcd60e51b815260040180806020018281038252602881526020018061247e6028913960400191505060405180910390fd5b603c8190555b5050565b60405460415460425460435460445460ff9094169385565b6039546001600160a01b031681565b6000610a0861234d565b506001600160a01b03821660009081526045602090815260408083208151608081018352815481526001820154938101939093526002810154918301829052600301546060830152909190610a5e904390611dd3565b60208301519091508015610a8357610a7c8161069984612710611d0f565b9350610a88565b600093505b505050919050565b6038546001600160a01b031681565b6035546001600160a01b031681565b610ab6611dcf565b6001600160a01b0316610ac7610e8b565b6001600160a01b031614610b22576040805162461bcd60e51b815260206004820181905260248201527f4f776e61626c653a2063616c6c6572206973206e6f7420746865206f776e6572604482015290519081900360640190fd5b600080546040516001600160a01b03909116907f8be0079c531659141344cd1fd0a4f28419497f9722a3daafe3b4186f6b6457e0908390a3600080546001600160a01b0319169055565b610b74611dcf565b6001600160a01b0316610b85610e8b565b6001600160a01b031614610be0576040805162461bcd60e51b815260206004820181905260248201527f4f776e61626c653a2063616c6c6572206973206e6f7420746865206f776e6572604482015290519081900360640190fd5b603a5415610c1f5760405162461bcd60e51b81526004018080602001828103825260308152602001806125586030913960400191505060405180910390fd5b612710841115610c605760405162461bcd60e51b81526004018080602001828103825260308152602001806125286030913960400191505060405180910390fd5b612710831115610ca15760405162461bcd60e51b815260040180806020018281038252602c81526020018061242f602c913960400191505060405180910390fd5b633b9aca00851115610ce45760405162461bcd60e51b815260040180806020018281038252602881526020018061247e6028913960400191505060405180910390fd5b6040805160c08101825288815260208101889052908101869052606081018590526080810184905260a001829052603a96909655603b94909455603c92909255603d55603e55603f5560465543604755565b6000610d4c610d43611b01565b60465490611dd3565b90505b90565b6000610d7a64e8d4a51000610699610d6861199e565b61069986670de0b6b3a7640000611d0f565b92915050565b6000610d8a611e30565b90506001548111610dcc5760405162461bcd60e51b815260040180806020018281038252602e8152602001806124c7602e913960400191505060405180910390fd5b60018190556001600160a01b038516610de457600080fd5b603580546001600160a01b0319166001600160a01b03878116919091179091558416610e0f57600080fd5b603480546001600160a01b0319166001600160a01b03868116919091179091558316610e3a57600080fd5b603780546001600160a01b0319166001600160a01b03858116919091179091558216610e6557600080fd5b50603680546001600160a01b0319166001600160a01b0392909216919091179055505050565b6000546001600160a01b031690565b60006001600160a01b038216610ef7576040805162461bcd60e51b815260206004820152601f60248201527f426f6e644465706f7369746f72793a20496e76616c6964206164647265737300604482015290519081900360640190fd5b610eff611e35565b603f546046541115610f425760405162461bcd60e51b81526004018080602001828103825260248152602001806123be6024913960400191505060405180910390fd5b6000610f4c61199e565b905080841015610f8d5760405162461bcd60e51b81526004018080602001828103825260338152602001806124f56033913960400191505060405180910390fd5b6000610fa8620f424061069988610fa2611849565b90611d0f565b90506000610fb582610d52565b9050662386f26fc10000811015611013576040805162461bcd60e51b815260206004820152601e60248201527f426f6e644465706f7369746f72793a20426f6e6420746f6f20736d616c6c0000604482015290519081900360640190fd5b61101b611a6f565b81111561106f576040805162461bcd60e51b815260206004820152601e60248201527f426f6e644465706f7369746f72793a20426f6e6420746f6f206c617267650000604482015290519081900360640190fd5b600061108f612710610699603a6004015485611d0f90919063ffffffff16565b6037549091506110aa906001600160a01b031633308b611e49565b603754603854604080517f095ea7b30000000000000000000000000000000000000000000000000000000081526001600160a01b039283166004820152602481018c90529051919092169163095ea7b39160448083019260209291908290030181600087803b15801561111c57600080fd5b505af1158015611130573d6000803e3d6000fd5b505050506040513d602081101561114657600080fd5b50506038546037546001600160a01b039182169163bc157ac1918b911661116d8686611ed7565b6040518463ffffffff1660e01b815260040180848152602001836001600160a01b031681526020018281526020019350505050600060405180830381600087803b1580156111ba57600080fd5b505af11580156111ce573d6000803e3d6000fd5b50505050806000146111f7576034546035546111f7916001600160a01b03918216911683611f31565b6046546112049083611ed7565b604655604080516080810182526001600160a01b03881660009081526045602052919091205481906112369085611ed7565b8152603b805460208084019190915243604080850182905260609485018a90526001600160a01b038c16600090815260458452819020865181559286015160018401558501516002830155939092015160039092019190915554859161129b91611ed7565b604080516001600160a01b038a168152602081018c9052815186927fd52c75b244055af9364c0a5dc0da7868f6ae104012f245ad2702031af04d9b8e928290030190a46112e66117e7565b6112ee61199e565b6040517f2cb17bd1fd2a1fecfefae2de1e6a59194abaa62179652924ccdca01617f0bf1690600090a361131f611f9d565b50925050505b9392505050565b600061133661234d565b506001600160a01b038216600090815260456020908152604080832081516080810183528154815260018201549381019390935260028101549183019190915260030154606082015290611389846109fe565b9050612710811061148c576001600160a01b03841660008181526045602090815260408083208381556001810184905560028101849055600301839055855181519081529182019290925281517f51c99f515c87b0d95ba97f616edd182e8f161c4932eac17c6fefe9dab58b77b1929181900390910190a260355482516040805163a9059cbb60e01b81526001600160a01b03888116600483015260248201939093529051919092169163a9059cbb9160448083019260209291908290030181600087803b15801561145a57600080fd5b505af115801561146e573d6000803e3d6000fd5b505050506040513d602081101561148457600080fd5b506106a29050565b81516000906114a390612710906106999085611d0f565b905060405180608001604052806114c7838660000151611dd390919063ffffffff16565b81526020016114f16114e6866040015143611dd390919063ffffffff16565b602087015190611dd3565b8152436020808301919091526060808701516040938401526001600160a01b0389166000818152604584528490208551808255868501516001830155868601516002830155959092015160039092019190915582518581529182019390935281517f51c99f515c87b0d95ba97f616edd182e8f161c4932eac17c6fefe9dab58b77b1929181900390910190a26035546040805163a9059cbb60e01b81526001600160a01b038881166004830152602482018590529151919092169163a9059cbb9160448083019260209291908290030181600087803b1580156115d357600080fd5b505af11580156115e7573d6000803e3d6000fd5b505050506040513d60208110156115fd57600080fd5b5050505050919050565b6036546001600160a01b031681565b6034546001600160a01b031681565b60408051808201909152601f81527f4b6c617953776170204b50472d55534454204c50204465706f7369746f727900602082015290565b6035546000906001600160a01b03838116911614156116c2576040805162461bcd60e51b815260206004820181905260248201527f426f6e6454726561737572793a2063616e6e6f74207769746864726177204b50604482015290519081900360640190fd5b6037546001600160a01b038381169116141561170f5760405162461bcd60e51b81526004018080602001828103825260278152602001806124086027913960400191505060405180910390fd5b603454604080517f70a0823100000000000000000000000000000000000000000000000000000000815230600482015290516117b8926001600160a01b0390811692908616916370a0823191602480820192602092909190829003018186803b15801561177b57600080fd5b505afa15801561178f573d6000803e3d6000fd5b505050506040513d60208110156117a557600080fd5b50516001600160a01b0385169190611f31565b506001919050565b60456020526000908152604090208054600182015460028301546003909301549192909184565b6000610d4c670de0b6b3a7640000610699603a60050154610699670de0b6b3a7640000610fa2633b9aca00610fa2610d36565b6000611835606461069961182c6117e7565b603a5490611d0f565b603c54909150811015610d4f5750603c5490565b600080603760009054906101000a90046001600160a01b03166001600160a01b03166318160ddd6040518163ffffffff1660e01b815260040160206040518083038186803b15801561189a57600080fd5b505afa1580156118ae573d6000803e3d6000fd5b505050506040513d60208110156118c457600080fd5b5051603754604080517f1a595f6500000000000000000000000000000000000000000000000000000000815281519394506000936001600160a01b0390931692631a595f6592600480840193919291829003018186803b15801561192757600080fd5b505afa15801561193b573d6000803e3d6000fd5b505050506040513d604081101561195157600080fd5b50602001519050600061196e64e8d4a51000610fa2846002611d0f565b90506119818361069983620f4240611d0f565b935050505090565b603a54603b54603c54603d54603e54603f5486565b603654603554604080517fe41611810000000000000000000000000000000000000000000000000000000081526001600160a01b039283166004820152670de0b6b3a7640000602482015290516000938493169163e4161181916044808301926020929190829003018186803b158015611a1757600080fd5b505afa158015611a2b573d6000803e3d6000fd5b505050506040513d6020811015611a4157600080fd5b505190506000611a4f61181a565b9050611a63633b9aca006106998484611d0f565b9250505090565b600181565b6000610d4c620f4240610699603a60030154603560009054906101000a90046001600160a01b03166001600160a01b03166318160ddd6040518163ffffffff1660e01b815260040160206040518083038186803b158015611acf57600080fd5b505afa158015611ae3573d6000803e3d6000fd5b505050506040513d6020811015611af957600080fd5b505190611d0f565b600080611b1960475443611dd390919063ffffffff16565b603b54604654919250611b30916106999084611d0f565b9150604654821115611b425760465491505b5090565b611b4e611dcf565b6001600160a01b0316611b5f610e8b565b6001600160a01b031614611bba576040805162461bcd60e51b815260206004820181905260248201527f4f776e61626c653a2063616c6c6572206973206e6f7420746865206f776e6572604482015290519081900360640190fd5b6001600160a01b038116611bcd57600080fd5b603880546001600160a01b0319166001600160a01b0392909216919091179055565b611bf7611dcf565b6001600160a01b0316611c08610e8b565b6001600160a01b031614611c63576040805162461bcd60e51b815260206004820181905260248201527f4f776e61626c653a2063616c6c6572206973206e6f7420746865206f776e6572604482015290519081900360640190fd5b6001600160a01b038116611ca85760405162461bcd60e51b81526004018080602001828103825260268152602001806123766026913960400191505060405180910390fd5b600080546040516001600160a01b03808516939216917f8be0079c531659141344cd1fd0a4f28419497f9722a3daafe3b4186f6b6457e091a3600080546001600160a01b0319166001600160a01b0392909216919091179055565b60475481565b60465481565b600082611d1e57506000610d7a565b82820282848281611d2b57fe5b04146113255760405162461bcd60e51b81526004018080602001828103825260218152602001806124a66021913960400191505060405180910390fd5b6000808211611dbe576040805162461bcd60e51b815260206004820152601a60248201527f536166654d6174683a206469766973696f6e206279207a65726f000000000000604482015290519081900360640190fd5b818381611dc757fe5b049392505050565b3390565b600082821115611e2a576040805162461bcd60e51b815260206004820152601e60248201527f536166654d6174683a207375627472616374696f6e206f766572666c6f770000604482015290519081900360640190fd5b50900390565b600190565b611e40610d43611b01565b60465543604755565b604080516001600160a01b0380861660248301528416604482015260648082018490528251808303909101815260849091019091526020810180517bffffffffffffffffffffffffffffffffffffffffffffffffffffffff167f23b872dd00000000000000000000000000000000000000000000000000000000179052611ed190859061207e565b50505050565b600082820183811015611325576040805162461bcd60e51b815260206004820152601b60248201527f536166654d6174683a206164646974696f6e206f766572666c6f770000000000604482015290519081900360640190fd5b604080516001600160a01b038416602482015260448082018490528251808303909101815260649091019091526020810180517bffffffffffffffffffffffffffffffffffffffffffffffffffffffff1663a9059cbb60e01b179052611f9890849061207e565b505050565b604354604454600091611fb09190611ed7565b60415490915015801590611fc45750804310155b1561207b57603a5460405460ff1615611ffe57604154603a54611fe691611ed7565b603a81905560425411611ff95760006041555b612020565b604154603a5461200d91611dd3565b603a819055604254106120205760006041555b43604455603a5460415460408054815185815260208101949094528382019290925260ff90911615156060830152517fb923e581a0f83128e9e1d8297aa52b18d6744310476e0b54509c054cd7a93b2a9181900360800190a1505b50565b60606120d3826040518060400160405280602081526020017f5361666545524332303a206c6f772d6c6576656c2063616c6c206661696c6564815250856001600160a01b031661212f9092919063ffffffff16565b805190915015611f98578080602001905160208110156120f257600080fd5b5051611f985760405162461bcd60e51b815260040180806020018281038252602a815260200180612588602a913960400191505060405180910390fd5b606061213e8484600085612146565b949350505050565b606030318311156121885760405162461bcd60e51b81526004018080602001828103825260268152602001806123e26026913960400191505060405180910390fd5b612191856122a3565b6121e2576040805162461bcd60e51b815260206004820152601d60248201527f416464726573733a2063616c6c20746f206e6f6e2d636f6e7472616374000000604482015290519081900360640190fd5b60006060866001600160a01b031685876040518082805190602001908083835b602083106122215780518252601f199092019160209182019101612202565b6001836020036101000a03801982511681845116808217855250505050505090500191505060006040518083038185875af1925050503d8060008114612283576040519150601f19603f3d011682016040523d82523d6000602084013e612288565b606091505b50915091506122988282866122a9565b979650505050505050565b3b151590565b606083156122b8575081611325565b8251156122c85782518084602001fd5b8160405162461bcd60e51b81526004018080602001828103825283818151815260200191508051906020019080838360005b838110156123125781810151838201526020016122fa565b50505050905090810190601f16801561233f5780820380516001836020036101000a031916815260200191505b509250505060405180910390fd5b604051806080016040528060008152602001600081526020016000815260200160008152509056fe4f776e61626c653a206e6577206f776e657220697320746865207a65726f2061646472657373426f6e644465706f7369746f72793a2077726f6e67207461726765742076616c7565426f6e644465706f7369746f72793a204d61782063617061636974792072656163686564416464726573733a20696e73756666696369656e742062616c616e636520666f722063616c6c426f6e6454726561737572793a2063616e6e6f74207769746864726177207072696e6369706c65426f6e644465706f7369746f72793a2044414f206665652063616e6e6f7420657863656564207061796f7574426f6e644465706f7369746f72793a20696e6372656d656e7420746f6f206c61726765426f6e644465706f7369746f72793a206d696e20646973636f756e74207261746520657863656564536166654d6174683a206d756c7469706c69636174696f6e206f766572666c6f77436f6e747261637420696e7374616e63652068617320616c7265616479206265656e20696e697469616c697a6564426f6e644465706f7369746f72793a20536c697070616765206c696d69743a206d6f7265207468616e206d6178207072696365426f6e644465706f7369746f72793a207061796f75742063616e6e6f742062652061626f766520312070657263656e74426f6e644465706f7369746f72793a20626f6e6473206d75737420626520696e697469616c697a65642066726f6d20305361666545524332303a204552433230206f7065726174696f6e20646964206e6f742073756363656564a2646970667358221220d9d18620ea1175b27347b4d06abad803342f32e9bc8d60b482a8b825562d05ac64736f6c63430007050033",
  "linkReferences": {},
  "deployedLinkReferences": {}
}