{
  "_format": "hh-sol-artifact-1",
  "contractName": "KPStakingProxyV2",
  "sourceName": "contracts/KPStakingProxyV2.sol",
  "abi": [
    {
      "inputs": [
        {
          "internalType": "address",
          "name": "_rewards",
          "type": "address"
        },
        {
          "internalType": "address",
          "name": "_booster",
          "type": "address"
        }
      ],
      "stateMutability": "nonpayable",
      "type": "constructor"
    },
    {
      "anonymous": false,
      "inputs": [
        {
          "indexed": true,
          "internalType": "address",
          "name": "_distro",
          "type": "address"
        },
        {
          "indexed": false,
          "internalType": "bool",
          "name": "_valid",
          "type": "bool"
        }
      ],
      "name": "AddDistributor",
      "type": "event"
    },
    {
      "anonymous": false,
      "inputs": [
        {
          "indexed": true,
          "internalType": "address",
          "name": "token",
          "type": "address"
        },
        {
          "indexed": false,
          "internalType": "uint256",
          "name": "amount",
          "type": "uint256"
        }
      ],
      "name": "RewardsDistributed",
      "type": "event"
    },
    {
      "inputs": [],
      "name": "UseDistributors",
      "outputs": [
        {
          "internalType": "bool",
          "name": "",
          "type": "bool"
        }
      ],
      "stateMutability": "view",
      "type": "function"
    },
    {
      "inputs": [],
      "name": "applyPendingOwner",
      "outputs": [],
      "stateMutability": "nonpayable",
      "type": "function"
    },
    {
      "inputs": [],
      "name": "booster",
      "outputs": [
        {
          "internalType": "address",
          "name": "",
          "type": "address"
        }
      ],
      "stateMutability": "view",
      "type": "function"
    },
    {
      "inputs": [],
      "name": "callIncentive",
      "outputs": [
        {
          "internalType": "uint256",
          "name": "",
          "type": "uint256"
        }
      ],
      "stateMutability": "view",
      "type": "function"
    },
    {
      "inputs": [],
      "name": "denominator",
      "outputs": [
        {
          "internalType": "uint256",
          "name": "",
          "type": "uint256"
        }
      ],
      "stateMutability": "view",
      "type": "function"
    },
    {
      "inputs": [],
      "name": "distribute",
      "outputs": [],
      "stateMutability": "nonpayable",
      "type": "function"
    },
    {
      "inputs": [
        {
          "internalType": "contract IERC20",
          "name": "_token",
          "type": "address"
        }
      ],
      "name": "distributeOther",
      "outputs": [],
      "stateMutability": "nonpayable",
      "type": "function"
    },
    {
      "inputs": [
        {
          "internalType": "address",
          "name": "",
          "type": "address"
        }
      ],
      "name": "distributors",
      "outputs": [
        {
          "internalType": "bool",
          "name": "",
          "type": "bool"
        }
      ],
      "stateMutability": "view",
      "type": "function"
    },
    {
      "inputs": [],
      "name": "ekl",
      "outputs": [
        {
          "internalType": "address",
          "name": "",
          "type": "address"
        }
      ],
      "stateMutability": "view",
      "type": "function"
    },
    {
      "inputs": [],
      "name": "eklDeposit",
      "outputs": [
        {
          "internalType": "address",
          "name": "",
          "type": "address"
        }
      ],
      "stateMutability": "view",
      "type": "function"
    },
    {
      "inputs": [],
      "name": "getBalance",
      "outputs": [
        {
          "internalType": "uint256",
          "name": "",
          "type": "uint256"
        }
      ],
      "stateMutability": "view",
      "type": "function"
    },
    {
      "inputs": [],
      "name": "kp",
      "outputs": [
        {
          "internalType": "address",
          "name": "",
          "type": "address"
        }
      ],
      "stateMutability": "view",
      "type": "function"
    },
    {
      "inputs": [],
      "name": "kpEKL",
      "outputs": [
        {
          "internalType": "address",
          "name": "",
          "type": "address"
        }
      ],
      "stateMutability": "view",
      "type": "function"
    },
    {
      "inputs": [],
      "name": "kpEKLStaking",
      "outputs": [
        {
          "internalType": "address",
          "name": "",
          "type": "address"
        }
      ],
      "stateMutability": "view",
      "type": "function"
    },
    {
      "inputs": [],
      "name": "kpStaking",
      "outputs": [
        {
          "internalType": "address",
          "name": "",
          "type": "address"
        }
      ],
      "stateMutability": "view",
      "type": "function"
    },
    {
      "inputs": [],
      "name": "owner",
      "outputs": [
        {
          "internalType": "address",
          "name": "",
          "type": "address"
        }
      ],
      "stateMutability": "view",
      "type": "function"
    },
    {
      "inputs": [],
      "name": "pendingOwner",
      "outputs": [
        {
          "internalType": "address",
          "name": "",
          "type": "address"
        }
      ],
      "stateMutability": "view",
      "type": "function"
    },
    {
      "inputs": [
        {
          "internalType": "address",
          "name": "_token",
          "type": "address"
        },
        {
          "internalType": "address",
          "name": "_to",
          "type": "address"
        }
      ],
      "name": "rescueToken",
      "outputs": [],
      "stateMutability": "nonpayable",
      "type": "function"
    },
    {
      "inputs": [],
      "name": "rewards",
      "outputs": [
        {
          "internalType": "address",
          "name": "",
          "type": "address"
        }
      ],
      "stateMutability": "view",
      "type": "function"
    },
    {
      "inputs": [],
      "name": "setApprovals",
      "outputs": [],
      "stateMutability": "nonpayable",
      "type": "function"
    },
    {
      "inputs": [
        {
          "internalType": "uint256",
          "name": "_incentive",
          "type": "uint256"
        }
      ],
      "name": "setCallIncentive",
      "outputs": [],
      "stateMutability": "nonpayable",
      "type": "function"
    },
    {
      "inputs": [
        {
          "internalType": "address",
          "name": "_distro",
          "type": "address"
        },
        {
          "internalType": "bool",
          "name": "_valid",
          "type": "bool"
        }
      ],
      "name": "setDistributor",
      "outputs": [],
      "stateMutability": "nonpayable",
      "type": "function"
    },
    {
      "inputs": [
        {
          "internalType": "address",
          "name": "_po",
          "type": "address"
        }
      ],
      "name": "setPendingOwner",
      "outputs": [],
      "stateMutability": "nonpayable",
      "type": "function"
    },
    {
      "inputs": [
        {
          "internalType": "bool",
          "name": "_use",
          "type": "bool"
        }
      ],
      "name": "setUseDistributorList",
      "outputs": [],
      "stateMutability": "nonpayable",
      "type": "function"
    },
    {
      "inputs": [],
      "name": "stake",
      "outputs": [],
      "stateMutability": "nonpayable",
      "type": "function"
    },
    {
      "inputs": [
        {
          "internalType": "uint256",
          "name": "_amount",
          "type": "uint256"
        }
      ],
      "name": "withdraw",
      "outputs": [],
      "stateMutability": "nonpayable",
      "type": "function"
    }
  ],
  "bytecode": "0x60a060405260646002556005805460ff1916600117905534801561002257600080fd5b50604051611d38380380611d388339818101604052604081101561004557600080fd5b508051602091820151606082901b6001600160601b03191660805260008054336001600160a01b0319918216811783558252600490945260408120805460ff19166001179055600380549094166001600160a01b03928316179093551690611c47906100f190398061043f52806105425280610963528061099852806109c15280610c6f5280610caf5280610cf05280610d305280610d88528061142352806114bb5250611c476000f3fe608060405234801561001057600080fd5b50600436106101ae5760003560e01c80639ec5a894116100ee578063cc64278411610097578063e30c397811610071578063e30c39781461038e578063e4fc6b6d14610396578063e7f31fb11461039e578063e8574ac1146103a6576101ae565b8063cc6427841461031d578063cc7554eb14610343578063d59ba0df14610360576101ae565b8063c42069ec116100c8578063c42069ec146102e7578063c6def0761461030d578063cb22356b14610315576101ae565b80639ec5a894146102b8578063ba1294b8146102c0578063beced651146102df576101ae565b806351c92b131161015b5780638757b15b116101355780638757b15b14610298578063878de1d0146102a05780638da5cb5b146102a857806396ce0795146102b0576101ae565b806351c92b131461026257806364a70e16146102885780636d4a2ea114610290576101ae565b80633a4b66f11161018c5780633a4b66f114610208578063432fc108146102105780634707d00014610234576101ae565b806312065fe0146101b35780632e1a7d4d146101cd57806338f16d28146101ec575b600080fd5b6101bb6103ae565b60408051918252519081900360200190f35b6101ea600480360360208110156101e357600080fd5b5035610434565b005b6101f461052e565b604080519115158252519081900360200190f35b6101ea610537565b610218610605565b604080516001600160a01b039092168252519081900360200190f35b6101ea6004803603604081101561024a57600080fd5b506001600160a01b038135811691602001351661061d565b6101ea6004803603602081101561027857600080fd5b50356001600160a01b03166107ac565b610218610a93565b6101ea610aab565b6101ea610b83565b610218610d59565b610218610d71565b6101bb610d80565b610218610d86565b6101ea600480360360208110156102d657600080fd5b50351515610daa565b610218610e04565b6101ea600480360360208110156102fd57600080fd5b50356001600160a01b0316610e1c565b610218610e92565b6101bb610ea1565b6101f46004803603602081101561033357600080fd5b50356001600160a01b0316610ea7565b6101ea6004803603602081101561035957600080fd5b5035610ebc565b6101ea6004803603604081101561037657600080fd5b506001600160a01b0381351690602001351515610f5e565b610218611005565b6101ea611014565b61021861156d565b610218611585565b604080516370a0823160e01b81523060048201529051600091735042d8158d3c3c7f95374512b726fb2fa82eba6b916370a0823191602480820192602092909190829003018186803b15801561040357600080fd5b505afa158015610417573d6000803e3d6000fd5b505050506040513d602081101561042d57600080fd5b5051905090565b336001600160a01b037f00000000000000000000000000000000000000000000000000000000000000001614610499576040805162461bcd60e51b8152602060048201526005602482015264042c2eae8d60db1b604482015290519081900360640190fd5b60408051631c683a1b60e11b8152600481018390526000602482018190529151735042d8158d3c3c7f95374512b726fb2fa82eba6b926338d07436926044808201939182900301818387803b1580156104f157600080fd5b505af1158015610505573d6000803e3d6000fd5b5061052b925073f05d180a169418959a017865866f0abaf7db7ead91503390508361159d565b50565b60055460ff1681565b336001600160a01b037f0000000000000000000000000000000000000000000000000000000000000000161461059c576040805162461bcd60e51b8152602060048201526005602482015264042c2eae8d60db1b604482015290519081900360640190fd5b735042d8158d3c3c7f95374512b726fb2fa82eba6b6001600160a01b0316638dcb40616040518163ffffffff1660e01b8152600401600060405180830381600087803b1580156105eb57600080fd5b505af11580156105ff573d6000803e3d6000fd5b50505050565b73abe0f9cff7d77aed6b6c9107f0584f897cc0942d81565b6000546001600160a01b03163314610664576040805162461bcd60e51b8152602060048201526005602482015264042c2eae8d60db1b604482015290519081900360640190fd5b6001600160a01b03821673807c4e063eb0ac21e8eef7623a6ed50a8ede58ca148015906106ae57506001600160a01b03821673f05d180a169418959a017865866f0abaf7db7ead14155b80156106d757506001600160a01b0382167308644836b786b69a5082fd4644a3f2d1534b11a814155b610716576040805162461bcd60e51b815260206004820152600b60248201526a1b9bdd08185b1b1bddd95960aa1b604482015290519081900360640190fd5b6000826001600160a01b03166370a08231306040518263ffffffff1660e01b815260040180826001600160a01b0316815260200191505060206040518083038186803b15801561076557600080fd5b505afa158015610779573d6000803e3d6000fd5b505050506040513d602081101561078f57600080fd5b505190506107a76001600160a01b038416838361159d565b505050565b60055460ff1615610803573360009081526004602052604090205460ff16610803576040805162461bcd60e51b8152602060048201526005602482015264042c2eae8d60db1b604482015290519081900360640190fd5b6001600160a01b03811673807c4e063eb0ac21e8eef7623a6ed50a8ede58ca1480159061084d57506001600160a01b0381167308644836b786b69a5082fd4644a3f2d1534b11a814155b61088c576040805162461bcd60e51b815260206004820152600b60248201526a1b9bdd08185b1b1bddd95960aa1b604482015290519081900360640190fd5b6000816001600160a01b03166370a08231306040518263ffffffff1660e01b815260040180826001600160a01b0316815260200191505060206040518083038186803b1580156108db57600080fd5b505afa1580156108ef573d6000803e3d6000fd5b505050506040513d602081101561090557600080fd5b505190508015610a8f57600061093261271061092c6002548561161d90919063ffffffff16565b9061167f565b905061093e82826116e6565b91506109546001600160a01b038416338361159d565b6109896001600160a01b0384167f00000000000000000000000000000000000000000000000000000000000000006000611743565b6109bf6001600160a01b0384167f0000000000000000000000000000000000000000000000000000000000000000600019611743565b7f00000000000000000000000000000000000000000000000000000000000000006001600160a01b031663b66503cf84846040518363ffffffff1660e01b815260040180836001600160a01b0316815260200182815260200192505050600060405180830381600087803b158015610a3657600080fd5b505af1158015610a4a573d6000803e3d6000fd5b50506040805185815290516001600160a01b03871693507fdf29796aad820e4bb192f3a8d631b76519bcd2cbe77cc85af20e9df53cece08692509081900360200190a2505b5050565b73f05d180a169418959a017865866f0abaf7db7ead81565b6000546001600160a01b03163314610af2576040805162461bcd60e51b8152602060048201526005602482015264042c2eae8d60db1b604482015290519081900360640190fd5b6001546001600160a01b0316610b4f576040805162461bcd60e51b815260206004820152600d60248201527f696e76616c6964206f776e657200000000000000000000000000000000000000604482015290519081900360640190fd5b600180546000805473ffffffffffffffffffffffffffffffffffffffff199081166001600160a01b03841617909155169055565b610bb773f05d180a169418959a017865866f0abaf7db7ead735042d8158d3c3c7f95374512b726fb2fa82eba6b6000611743565b610bec73f05d180a169418959a017865866f0abaf7db7ead735042d8158d3c3c7f95374512b726fb2fa82eba6b600019611743565b610c2073807c4e063eb0ac21e8eef7623a6ed50a8ede58ca73abe0f9cff7d77aed6b6c9107f0584f897cc0942d6000611743565b610c5573807c4e063eb0ac21e8eef7623a6ed50a8ede58ca73abe0f9cff7d77aed6b6c9107f0584f897cc0942d600019611743565b610c957308644836b786b69a5082fd4644a3f2d1534b11a87f00000000000000000000000000000000000000000000000000000000000000006000611743565b610cd67308644836b786b69a5082fd4644a3f2d1534b11a87f0000000000000000000000000000000000000000000000000000000000000000600019611743565b610d1673807c4e063eb0ac21e8eef7623a6ed50a8ede58ca7f00000000000000000000000000000000000000000000000000000000000000006000611743565b610d5773807c4e063eb0ac21e8eef7623a6ed50a8ede58ca7f0000000000000000000000000000000000000000000000000000000000000000600019611743565b565b73807c4e063eb0ac21e8eef7623a6ed50a8ede58ca81565b6000546001600160a01b031681565b61271081565b7f000000000000000000000000000000000000000000000000000000000000000081565b6000546001600160a01b03163314610df1576040805162461bcd60e51b8152602060048201526005602482015264042c2eae8d60db1b604482015290519081900360640190fd5b6005805460ff1916911515919091179055565b7358337263cf52a4906913866242cfdee16dee82bb81565b6000546001600160a01b03163314610e63576040805162461bcd60e51b8152602060048201526005602482015264042c2eae8d60db1b604482015290519081900360640190fd5b6001805473ffffffffffffffffffffffffffffffffffffffff19166001600160a01b0392909216919091179055565b6003546001600160a01b031681565b60025481565b60046020526000908152604090205460ff1681565b6000546001600160a01b03163314610f03576040805162461bcd60e51b8152602060048201526005602482015264042c2eae8d60db1b604482015290519081900360640190fd5b6064811115610f59576040805162461bcd60e51b815260206004820152600860248201527f746f6f2068696768000000000000000000000000000000000000000000000000604482015290519081900360640190fd5b600255565b6000546001600160a01b03163314610fa5576040805162461bcd60e51b8152602060048201526005602482015264042c2eae8d60db1b604482015290519081900360640190fd5b6001600160a01b038216600081815260046020908152604091829020805460ff1916851515908117909155825190815291517f3bb4fb70bcd6f2a6c7b656049bb6f5ea7c3abc5e6f9aa7d72c621b082938174a9281900390910190a25050565b6001546001600160a01b031681565b60055460ff161561106b573360009081526004602052604090205460ff1661106b576040805162461bcd60e51b8152602060048201526005602482015264042c2eae8d60db1b604482015290519081900360640190fd5b604080517f4eab7aaa0000000000000000000000000000000000000000000000000000000081526000600482018190529151735042d8158d3c3c7f95374512b726fb2fa82eba6b92634eab7aaa926024808201939182900301818387803b1580156110d557600080fd5b505af11580156110e9573d6000803e3d6000fd5b5050604080516370a0823160e01b815230600482015290516000935073807c4e063eb0ac21e8eef7623a6ed50a8ede58ca92506370a0823191602480820192602092909190829003018186803b15801561114257600080fd5b505afa158015611156573d6000803e3d6000fd5b505050506040513d602081101561116c57600080fd5b50519050600061117d82600261167f565b905061118982826116e6565b9150811561121b57604080517f621419c000000000000000000000000000000000000000000000000000000000815260048101839052600060248201819052915173abe0f9cff7d77aed6b6c9107f0584f897cc0942d9263621419c0926044808201939182900301818387803b15801561120257600080fd5b505af1158015611216573d6000803e3d6000fd5b505050505b604080516370a0823160e01b815230600482015290516000917358337263cf52a4906913866242cfdee16dee82bb916370a0823191602480820192602092909190829003018186803b15801561127057600080fd5b505afa158015611284573d6000803e3d6000fd5b505050506040513d602081101561129a57600080fd5b5051905080156113155760408051631c683a1b60e11b81526004810183905260006024820181905291517358337263cf52a4906913866242cfdee16dee82bb926338d07436926044808201939182900301818387803b1580156112fc57600080fd5b505af1158015611310573d6000803e3d6000fd5b505050505b604080516370a0823160e01b815230600482015290516000917308644836b786b69a5082fd4644a3f2d1534b11a8916370a0823191602480820192602092909190829003018186803b15801561136a57600080fd5b505afa15801561137e573d6000803e3d6000fd5b505050506040513d602081101561139457600080fd5b5051905080156105ff5760006113bb61271061092c6002548561161d90919063ffffffff16565b90506113c782826116e6565b91506113e87308644836b786b69a5082fd4644a3f2d1534b11a8338361159d565b6040805163b66503cf60e01b81527308644836b786b69a5082fd4644a3f2d1534b11a860048201526024810184905290516001600160a01b037f0000000000000000000000000000000000000000000000000000000000000000169163b66503cf91604480830192600092919082900301818387803b15801561146a57600080fd5b505af115801561147e573d6000803e3d6000fd5b50506040805163b66503cf60e01b815273807c4e063eb0ac21e8eef7623a6ed50a8ede58ca60048201526024810189905290516001600160a01b037f000000000000000000000000000000000000000000000000000000000000000016935063b66503cf9250604480830192600092919082900301818387803b15801561150457600080fd5b505af1158015611518573d6000803e3d6000fd5b50506040805185815290517308644836b786b69a5082fd4644a3f2d1534b11a893507fdf29796aad820e4bb192f3a8d631b76519bcd2cbe77cc85af20e9df53cece08692509081900360200190a25050505050565b7308644836b786b69a5082fd4644a3f2d1534b11a881565b735042d8158d3c3c7f95374512b726fb2fa82eba6b81565b604080516001600160a01b038416602482015260448082018490528251808303909101815260649091019091526020810180517bffffffffffffffffffffffffffffffffffffffffffffffffffffffff167fa9059cbb000000000000000000000000000000000000000000000000000000001790526107a7908490611899565b60008261162c57506000611679565b8282028284828161163957fe5b04146116765760405162461bcd60e51b8152600401808060200182810382526021815260200180611b916021913960400191505060405180910390fd5b90505b92915050565b60008082116116d5576040805162461bcd60e51b815260206004820152601a60248201527f536166654d6174683a206469766973696f6e206279207a65726f000000000000604482015290519081900360640190fd5b8183816116de57fe5b049392505050565b60008282111561173d576040805162461bcd60e51b815260206004820152601e60248201527f536166654d6174683a207375627472616374696f6e206f766572666c6f770000604482015290519081900360640190fd5b50900390565b8015806117e25750604080517fdd62ed3e0000000000000000000000000000000000000000000000000000000081523060048201526001600160a01b03848116602483015291519185169163dd62ed3e91604480820192602092909190829003018186803b1580156117b457600080fd5b505afa1580156117c8573d6000803e3d6000fd5b505050506040513d60208110156117de57600080fd5b5051155b61181d5760405162461bcd60e51b8152600401808060200182810382526036815260200180611bdc6036913960400191505060405180910390fd5b604080516001600160a01b038416602482015260448082018490528251808303909101815260649091019091526020810180517bffffffffffffffffffffffffffffffffffffffffffffffffffffffff167f095ea7b3000000000000000000000000000000000000000000000000000000001790526107a79084905b60606118ee826040518060400160405280602081526020017f5361666545524332303a206c6f772d6c6576656c2063616c6c206661696c6564815250856001600160a01b031661194a9092919063ffffffff16565b8051909150156107a75780806020019051602081101561190d57600080fd5b50516107a75760405162461bcd60e51b815260040180806020018281038252602a815260200180611bb2602a913960400191505060405180910390fd5b60606119598484600085611963565b90505b9392505050565b606030318311156119a55760405162461bcd60e51b8152600401808060200182810382526026815260200180611b6b6026913960400191505060405180910390fd5b6119ae85611ac0565b6119ff576040805162461bcd60e51b815260206004820152601d60248201527f416464726573733a2063616c6c20746f206e6f6e2d636f6e7472616374000000604482015290519081900360640190fd5b60006060866001600160a01b031685876040518082805190602001908083835b60208310611a3e5780518252601f199092019160209182019101611a1f565b6001836020036101000a03801982511681845116808217855250505050505090500191505060006040518083038185875af1925050503d8060008114611aa0576040519150601f19603f3d011682016040523d82523d6000602084013e611aa5565b606091505b5091509150611ab5828286611ac6565b979650505050505050565b3b151590565b60608315611ad557508161195c565b825115611ae55782518084602001fd5b8160405162461bcd60e51b81526004018080602001828103825283818151815260200191508051906020019080838360005b83811015611b2f578181015183820152602001611b17565b50505050905090810190601f168015611b5c5780820380516001836020036101000a031916815260200191505b509250505060405180910390fdfe416464726573733a20696e73756666696369656e742062616c616e636520666f722063616c6c536166654d6174683a206d756c7469706c69636174696f6e206f766572666c6f775361666545524332303a204552433230206f7065726174696f6e20646964206e6f7420737563636565645361666545524332303a20617070726f76652066726f6d206e6f6e2d7a65726f20746f206e6f6e2d7a65726f20616c6c6f77616e6365a2646970667358221220b709d059bb34fc8f9ab66738c64093326e0389cdc63970d375a7182722d65d3f64736f6c63430007050033",
  "linkReferences": {},
  "deployedLinkReferences": {}
}