{
  "_format": "hh-sol-artifact-1",
  "contractName": "kpRewardPool",
  "sourceName": "contracts/kpRewardPool.sol",
  "abi": [
    {
      "inputs": [
        {
          "internalType": "address",
          "name": "stakingToken_",
          "type": "address"
        },
        {
          "internalType": "address",
          "name": "rewardToken_",
          "type": "address"
        },
        {
          "internalType": "address",
          "name": "eklDeposits_",
          "type": "address"
        },
        {
          "internalType": "address",
          "name": "kpEKLRewards_",
          "type": "address"
        },
        {
          "internalType": "address",
          "name": "kpEKLToken_",
          "type": "address"
        },
        {
          "internalType": "address",
          "name": "operator_",
          "type": "address"
        },
        {
          "internalType": "address",
          "name": "rewardManager_",
          "type": "address"
        }
      ],
      "stateMutability": "nonpayable",
      "type": "constructor"
    },
    {
      "anonymous": false,
      "inputs": [
        {
          "indexed": false,
          "internalType": "uint256",
          "name": "reward",
          "type": "uint256"
        }
      ],
      "name": "RewardAdded",
      "type": "event"
    },
    {
      "anonymous": false,
      "inputs": [
        {
          "indexed": true,
          "internalType": "address",
          "name": "user",
          "type": "address"
        },
        {
          "indexed": false,
          "internalType": "uint256",
          "name": "reward",
          "type": "uint256"
        }
      ],
      "name": "RewardPaid",
      "type": "event"
    },
    {
      "anonymous": false,
      "inputs": [
        {
          "indexed": true,
          "internalType": "address",
          "name": "user",
          "type": "address"
        },
        {
          "indexed": false,
          "internalType": "uint256",
          "name": "amount",
          "type": "uint256"
        }
      ],
      "name": "Staked",
      "type": "event"
    },
    {
      "anonymous": false,
      "inputs": [
        {
          "indexed": true,
          "internalType": "address",
          "name": "user",
          "type": "address"
        },
        {
          "indexed": false,
          "internalType": "uint256",
          "name": "amount",
          "type": "uint256"
        }
      ],
      "name": "Withdrawn",
      "type": "event"
    },
    {
      "inputs": [],
      "name": "FEE_DENOMINATOR",
      "outputs": [
        {
          "internalType": "uint256",
          "name": "",
          "type": "uint256"
        }
      ],
      "stateMutability": "view",
      "type": "function"
    },
    {
      "inputs": [
        {
          "internalType": "address",
          "name": "_reward",
          "type": "address"
        }
      ],
      "name": "addExtraReward",
      "outputs": [],
      "stateMutability": "nonpayable",
      "type": "function"
    },
    {
      "inputs": [
        {
          "internalType": "address",
          "name": "account",
          "type": "address"
        }
      ],
      "name": "balanceOf",
      "outputs": [
        {
          "internalType": "uint256",
          "name": "",
          "type": "uint256"
        }
      ],
      "stateMutability": "view",
      "type": "function"
    },
    {
      "inputs": [],
      "name": "clearExtraRewards",
      "outputs": [],
      "stateMutability": "nonpayable",
      "type": "function"
    },
    {
      "inputs": [],
      "name": "currentRewards",
      "outputs": [
        {
          "internalType": "uint256",
          "name": "",
          "type": "uint256"
        }
      ],
      "stateMutability": "view",
      "type": "function"
    },
    {
      "inputs": [
        {
          "internalType": "uint256",
          "name": "_amount",
          "type": "uint256"
        }
      ],
      "name": "donate",
      "outputs": [
        {
          "internalType": "bool",
          "name": "",
          "type": "bool"
        }
      ],
      "stateMutability": "nonpayable",
      "type": "function"
    },
    {
      "inputs": [],
      "name": "duration",
      "outputs": [
        {
          "internalType": "uint256",
          "name": "",
          "type": "uint256"
        }
      ],
      "stateMutability": "view",
      "type": "function"
    },
    {
      "inputs": [
        {
          "internalType": "address",
          "name": "account",
          "type": "address"
        }
      ],
      "name": "earned",
      "outputs": [
        {
          "internalType": "uint256",
          "name": "",
          "type": "uint256"
        }
      ],
      "stateMutability": "view",
      "type": "function"
    },
    {
      "inputs": [],
      "name": "eklDeposits",
      "outputs": [
        {
          "internalType": "address",
          "name": "",
          "type": "address"
        }
      ],
      "stateMutability": "view",
      "type": "function"
    },
    {
      "inputs": [
        {
          "internalType": "uint256",
          "name": "",
          "type": "uint256"
        }
      ],
      "name": "extraRewards",
      "outputs": [
        {
          "internalType": "address",
          "name": "",
          "type": "address"
        }
      ],
      "stateMutability": "view",
      "type": "function"
    },
    {
      "inputs": [],
      "name": "extraRewardsLength",
      "outputs": [
        {
          "internalType": "uint256",
          "name": "",
          "type": "uint256"
        }
      ],
      "stateMutability": "view",
      "type": "function"
    },
    {
      "inputs": [
        {
          "internalType": "bool",
          "name": "_stake",
          "type": "bool"
        }
      ],
      "name": "getKPReward",
      "outputs": [],
      "stateMutability": "nonpayable",
      "type": "function"
    },
    {
      "inputs": [
        {
          "internalType": "address",
          "name": "_account",
          "type": "address"
        },
        {
          "internalType": "bool",
          "name": "_claimExtras",
          "type": "bool"
        },
        {
          "internalType": "bool",
          "name": "_stake",
          "type": "bool"
        }
      ],
      "name": "getReward",
      "outputs": [],
      "stateMutability": "nonpayable",
      "type": "function"
    },
    {
      "inputs": [],
      "name": "historicalRewards",
      "outputs": [
        {
          "internalType": "uint256",
          "name": "",
          "type": "uint256"
        }
      ],
      "stateMutability": "view",
      "type": "function"
    },
    {
      "inputs": [],
      "name": "kpEKLRewards",
      "outputs": [
        {
          "internalType": "address",
          "name": "",
          "type": "address"
        }
      ],
      "stateMutability": "view",
      "type": "function"
    },
    {
      "inputs": [],
      "name": "kpEKLToken",
      "outputs": [
        {
          "internalType": "contract IERC20",
          "name": "",
          "type": "address"
        }
      ],
      "stateMutability": "view",
      "type": "function"
    },
    {
      "inputs": [],
      "name": "lastTimeRewardApplicable",
      "outputs": [
        {
          "internalType": "uint256",
          "name": "",
          "type": "uint256"
        }
      ],
      "stateMutability": "view",
      "type": "function"
    },
    {
      "inputs": [],
      "name": "lastUpdateTime",
      "outputs": [
        {
          "internalType": "uint256",
          "name": "",
          "type": "uint256"
        }
      ],
      "stateMutability": "view",
      "type": "function"
    },
    {
      "inputs": [],
      "name": "newRewardRatio",
      "outputs": [
        {
          "internalType": "uint256",
          "name": "",
          "type": "uint256"
        }
      ],
      "stateMutability": "view",
      "type": "function"
    },
    {
      "inputs": [],
      "name": "operator",
      "outputs": [
        {
          "internalType": "address",
          "name": "",
          "type": "address"
        }
      ],
      "stateMutability": "view",
      "type": "function"
    },
    {
      "inputs": [],
      "name": "periodFinish",
      "outputs": [
        {
          "internalType": "uint256",
          "name": "",
          "type": "uint256"
        }
      ],
      "stateMutability": "view",
      "type": "function"
    },
    {
      "inputs": [
        {
          "internalType": "uint256",
          "name": "_rewards",
          "type": "uint256"
        }
      ],
      "name": "queueNewRewards",
      "outputs": [],
      "stateMutability": "nonpayable",
      "type": "function"
    },
    {
      "inputs": [],
      "name": "queuedRewards",
      "outputs": [
        {
          "internalType": "uint256",
          "name": "",
          "type": "uint256"
        }
      ],
      "stateMutability": "view",
      "type": "function"
    },
    {
      "inputs": [],
      "name": "rewardManager",
      "outputs": [
        {
          "internalType": "address",
          "name": "",
          "type": "address"
        }
      ],
      "stateMutability": "view",
      "type": "function"
    },
    {
      "inputs": [],
      "name": "rewardPerToken",
      "outputs": [
        {
          "internalType": "uint256",
          "name": "",
          "type": "uint256"
        }
      ],
      "stateMutability": "view",
      "type": "function"
    },
    {
      "inputs": [],
      "name": "rewardPerTokenStored",
      "outputs": [
        {
          "internalType": "uint256",
          "name": "",
          "type": "uint256"
        }
      ],
      "stateMutability": "view",
      "type": "function"
    },
    {
      "inputs": [],
      "name": "rewardRate",
      "outputs": [
        {
          "internalType": "uint256",
          "name": "",
          "type": "uint256"
        }
      ],
      "stateMutability": "view",
      "type": "function"
    },
    {
      "inputs": [],
      "name": "rewardToken",
      "outputs": [
        {
          "internalType": "contract IERC20",
          "name": "",
          "type": "address"
        }
      ],
      "stateMutability": "view",
      "type": "function"
    },
    {
      "inputs": [
        {
          "internalType": "address",
          "name": "",
          "type": "address"
        }
      ],
      "name": "rewards",
      "outputs": [
        {
          "internalType": "uint256",
          "name": "",
          "type": "uint256"
        }
      ],
      "stateMutability": "view",
      "type": "function"
    },
    {
      "inputs": [
        {
          "internalType": "uint256",
          "name": "_amount",
          "type": "uint256"
        }
      ],
      "name": "stake",
      "outputs": [],
      "stateMutability": "nonpayable",
      "type": "function"
    },
    {
      "inputs": [],
      "name": "stakeAll",
      "outputs": [],
      "stateMutability": "nonpayable",
      "type": "function"
    },
    {
      "inputs": [
        {
          "internalType": "address",
          "name": "_for",
          "type": "address"
        },
        {
          "internalType": "uint256",
          "name": "_amount",
          "type": "uint256"
        }
      ],
      "name": "stakeFor",
      "outputs": [],
      "stateMutability": "nonpayable",
      "type": "function"
    },
    {
      "inputs": [],
      "name": "stakingToken",
      "outputs": [
        {
          "internalType": "contract IERC20",
          "name": "",
          "type": "address"
        }
      ],
      "stateMutability": "view",
      "type": "function"
    },
    {
      "inputs": [],
      "name": "totalSupply",
      "outputs": [
        {
          "internalType": "uint256",
          "name": "",
          "type": "uint256"
        }
      ],
      "stateMutability": "view",
      "type": "function"
    },
    {
      "inputs": [
        {
          "internalType": "address",
          "name": "",
          "type": "address"
        }
      ],
      "name": "userRewardPerTokenPaid",
      "outputs": [
        {
          "internalType": "uint256",
          "name": "",
          "type": "uint256"
        }
      ],
      "stateMutability": "view",
      "type": "function"
    },
    {
      "inputs": [
        {
          "internalType": "uint256",
          "name": "_amount",
          "type": "uint256"
        },
        {
          "internalType": "bool",
          "name": "claim",
          "type": "bool"
        }
      ],
      "name": "withdraw",
      "outputs": [],
      "stateMutability": "nonpayable",
      "type": "function"
    },
    {
      "inputs": [
        {
          "internalType": "bool",
          "name": "claim",
          "type": "bool"
        }
      ],
      "name": "withdrawAll",
      "outputs": [],
      "stateMutability": "nonpayable",
      "type": "function"
    }
  ],
  "bytecode": "0x61016060405260008055600060015560006004556000600555600060065534801561002957600080fd5b5060405161219e38038061219e833981810160405260e081101561004c57600080fd5b5080516020820151604083015160608085015160808087015160a08089015160c0998a01516001600160601b031999871b8a1690925296851b881690925294831b861690965294811b84166101405290811b831660e05292831b82166101005290911b166101205260805160601c60a05160601c60c05160601c60e05160601c6101005160601c6101205160601c6101405160601c6120196101856000398061063d52806106bf5280610cd552508061073852806114a352806114f852806115e05250806106ea52806114c5528061151a5280611541525080610573528061118152806112d25280611326528061138e52806113ed525080610bb45280610be15250806108f95280610afe5280610e235280610e7452806110a45250806111be52806111fd52806112af528061130452506120196000f3fe608060405234801561001057600080fd5b50600436106102765760003560e01c80636c8bcee811610160578063c8f33c91116100d8578063df136d651161008c578063f14faf6f11610071578063f14faf6f146104ff578063f7c618c114610530578063f9a6e7641461053857610276565b8063df136d65146104ef578063ebe2b12b146104f757610276565b8063d55a23f4116100bd578063d55a23f4146104d7578063d73792a9146104df578063d816fd01146104e757610276565b8063c8f33c91146104c7578063cd3daf9d146104cf57610276565b806380faa57d1161012f5780638dcb4061116101145780638dcb40611461049a578063901a7d53146104a2578063a694fc3a146104aa57610276565b806380faa57d1461046c5780638b8763471461047457610276565b80636c8bcee81461042e57806370a082311461043657806372f702f31461045c5780637b0a47ee1461046457610276565b80632c12cbe1116101f35780634eab7aaa116101c2578063590a41f5116101a7578063590a41f5146103e35780635e43c47b1461040057806363d38c3b1461042657610276565b80634eab7aaa146103bc578063570ca735146103db57610276565b80632c12cbe1146103465780632ee409081461034e57806338d074361461037a57806340c354461461039f57610276565b80630fb5a6b41161024a57806318160ddd1161022f57806318160ddd146103175780631c1c6fe51461031f578063262d3d6d1461033e57610276565b80630fb5a6b41461030757806316b3667c1461030f57610276565b80628cc2621461027b5780630569d388146102b35780630700037d146102bd5780630f4ef8a6146102e3575b600080fd5b6102a16004803603602081101561029157600080fd5b50356001600160a01b031661056e565b60408051918252519081900360200190f35b6102bb610632565b005b6102a1600480360360208110156102d357600080fd5b50356001600160a01b03166106ab565b6102eb6106bd565b604080516001600160a01b039092168252519081900360200190f35b6102a16106e1565b6102eb6106e8565b6102a161070c565b6102bb6004803603602081101561033557600080fd5b50351515610713565b6102a1610730565b6102eb610736565b6102bb6004803603604081101561036457600080fd5b506001600160a01b03813516906020013561075a565b6102bb6004803603604081101561039057600080fd5b5080359060200135151561095d565b6102eb600480360360208110156103b557600080fd5b5035610b7c565b6102bb600480360360208110156103d257600080fd5b50351515610ba6565b6102eb610bb2565b6102bb600480360360208110156103f957600080fd5b5035610bd6565b6102bb6004803603602081101561041657600080fd5b50356001600160a01b0316610cca565b6102a1610dfa565b6102a1610e00565b6102a16004803603602081101561044c57600080fd5b50356001600160a01b0316610e06565b6102eb610e21565b6102a1610e45565b6102a1610e4b565b6102a16004803603602081101561048a57600080fd5b50356001600160a01b0316610e5e565b6102bb610e70565b6102a1610f16565b6102bb600480360360208110156104c057600080fd5b5035610f1c565b6102a161110f565b6102a1611115565b6102a1611173565b6102a1611179565b6102eb61117f565b6102a16111a3565b6102a16111a9565b61051c6004803603602081101561051557600080fd5b50356111af565b604080519115158252519081900360200190f35b6102eb6111fb565b6102bb6004803603606081101561054e57600080fd5b506001600160a01b0381351690602081013515159060400135151561121f565b6000807f00000000000000000000000000000000000000000000000000000000000000006001600160a01b031663509406186040518163ffffffff1660e01b815260040160206040518083038186803b1580156105ca57600080fd5b505afa1580156105de573d6000803e3d6000fd5b505050506040513d60208110156105f457600080fd5b50519050600061060384611703565b9050600061061d612710610617848661175f565b906117bf565b90506106298282611826565b95945050505050565b336001600160a01b037f0000000000000000000000000000000000000000000000000000000000000000161461069d576040805162461bcd60e51b815260206004820152600b60248201526a08585d5d1a1bdc9a5e995960aa1b604482015290519081900360640190fd5b6106a9600b6000611f0a565b565b600a6020526000908152604090205481565b7f000000000000000000000000000000000000000000000000000000000000000081565b62093a8081565b7f000000000000000000000000000000000000000000000000000000000000000081565b6007545b90565b3360009081526008602052604090205461072d908261095d565b50565b60065481565b7f000000000000000000000000000000000000000000000000000000000000000081565b81610763611115565b60035561076e610e4b565b6002556001600160a01b038116156107b55761078981611703565b6001600160a01b0382166000908152600a60209081526040808320939093556003546009909152919020555b6000821161080a576040805162461bcd60e51b815260206004820152601b60248201527f526577617264506f6f6c203a2043616e6e6f74207374616b6520300000000000604482015290519081900360640190fd5b600b5460005b818110156108a257600b818154811061082557fe5b6000918252602082200154604080516356e4bb9760e11b81526001600160a01b038981166004830152602482018990529151919092169263adc9772e926044808201939182900301818387803b15801561087e57600080fd5b505af1158015610892573d6000803e3d6000fd5b5050600190920191506108109050565b506007546108b09084611883565b6007556001600160a01b0384166000908152600860205260409020546108d69084611883565b6001600160a01b03808616600090815260086020526040902091909155610921907f0000000000000000000000000000000000000000000000000000000000000000163330866118dd565b60408051848152905133917f9e71bc8eea02a63969f509818f2dafb9254532904319f9dbda79b67bd34a5f3d919081900360200190a250505050565b33610966611115565b600355610971610e4b565b6002556001600160a01b038116156109b85761098c81611703565b6001600160a01b0382166000908152600a60209081526040808320939093556003546009909152919020555b60008311610a0d576040805162461bcd60e51b815260206004820152601e60248201527f526577617264506f6f6c203a2043616e6e6f7420776974686472617720300000604482015290519081900360640190fd5b600b5460005b81811015610aba57600b8181548110610a2857fe5b6000918252602082200154604080517ff3fef3a30000000000000000000000000000000000000000000000000000000081523360048201526024810189905290516001600160a01b039092169263f3fef3a39260448084019382900301818387803b158015610a9657600080fd5b505af1158015610aaa573d6000803e3d6000fd5b505060019092019150610a139050565b50600754610ac89085611826565b60075533600090815260086020526040902054610ae59085611826565b33600081815260086020526040902091909155610b2d907f00000000000000000000000000000000000000000000000000000000000000006001600160a01b03169086611950565b60408051858152905133917f7084f5476618d8e60b11ef0d7d3f06914655adb8793e28ff7f018d4c76d505d5919081900360200190a28215610b7657610b76336001600061121f565b50505050565b600b8181548110610b8c57600080fd5b6000918252602090912001546001600160a01b0316905081565b61072d3360018361121f565b7f000000000000000000000000000000000000000000000000000000000000000081565b336001600160a01b037f00000000000000000000000000000000000000000000000000000000000000001614610c41576040805162461bcd60e51b815260206004820152600b60248201526a08585d5d1a1bdc9a5e995960aa1b604482015290519081900360640190fd5b600454610c4f908290611883565b90506000544210610c6d57610c63816119c0565b600060045561072d565b60008054610c8990610c829062093a80611826565b4290611826565b60015490915081026000610ca384610617846103e861175f565b905061033e811015610cc257610cb8846119c0565b6000600455610b76565b505050600455565b336001600160a01b037f00000000000000000000000000000000000000000000000000000000000000001614610d35576040805162461bcd60e51b815260206004820152600b60248201526a08585d5d1a1bdc9a5e995960aa1b604482015290519081900360640190fd5b6001600160a01b038116610d90576040805162461bcd60e51b815260206004820152600f60248201527f217265776172642073657474696e670000000000000000000000000000000000604482015290519081900360640190fd5b600b80546001810182556000919091527f0175b7a638427703f0dbe7bb9bbf987a2551717b34e79f33b5b1008d1fa01db90180547fffffffffffffffffffffffff0000000000000000000000000000000000000000166001600160a01b0392909216919091179055565b60045481565b61033e81565b6001600160a01b031660009081526008602052604090205490565b7f000000000000000000000000000000000000000000000000000000000000000081565b60015481565b6000610e5942600054611ae4565b905090565b60096020526000908152604090205481565b60007f00000000000000000000000000000000000000000000000000000000000000006001600160a01b03166370a08231336040518263ffffffff1660e01b815260040180826001600160a01b0316815260200191505060206040518083038186803b158015610edf57600080fd5b505afa158015610ef3573d6000803e3d6000fd5b505050506040513d6020811015610f0957600080fd5b5051905061072d81610f1c565b60055481565b33610f25611115565b600355610f30610e4b565b6002556001600160a01b03811615610f7757610f4b81611703565b6001600160a01b0382166000908152600a60209081526040808320939093556003546009909152919020555b60008211610fcc576040805162461bcd60e51b815260206004820152601b60248201527f526577617264506f6f6c203a2043616e6e6f74207374616b6520300000000000604482015290519081900360640190fd5b600b5460005b8181101561106057600b8181548110610fe757fe5b6000918252602082200154604080516356e4bb9760e11b81523360048201526024810188905290516001600160a01b039092169263adc9772e9260448084019382900301818387803b15801561103c57600080fd5b505af1158015611050573d6000803e3d6000fd5b505060019092019150610fd29050565b5060075461106e9084611883565b6007553360009081526008602052604090205461108b9084611883565b336000818152600860205260409020919091556110d4907f00000000000000000000000000000000000000000000000000000000000000006001600160a01b03169030866118dd565b60408051848152905133917f9e71bc8eea02a63969f509818f2dafb9254532904319f9dbda79b67bd34a5f3d919081900360200190a2505050565b60025481565b60008061112061070c565b905080611131575050600354610710565b61116d61116482610617670de0b6b3a764000061115e60015461115e600254611158610e4b565b90611826565b9061175f565b60035490611883565b91505090565b600b5490565b61271081565b7f000000000000000000000000000000000000000000000000000000000000000081565b60035481565b60005481565b60006111e66001600160a01b037f0000000000000000000000000000000000000000000000000000000000000000163330856118dd565b6004546111f39083611883565b600455919050565b7f000000000000000000000000000000000000000000000000000000000000000081565b82611228611115565b600355611233610e4b565b6002556001600160a01b0381161561127a5761124e81611703565b6001600160a01b0382166000908152600a60209081526040808320939093556003546009909152919020555b600061128585611703565b90508015611649576001600160a01b038086166000908152600a602052604081208190556112f7917f000000000000000000000000000000000000000000000000000000000000000016907f000000000000000000000000000000000000000000000000000000000000000090611afa565b61134b6001600160a01b037f0000000000000000000000000000000000000000000000000000000000000000167f000000000000000000000000000000000000000000000000000000000000000083611afa565b604080517f621419c00000000000000000000000000000000000000000000000000000000081526004810183905260006024820181905291516001600160a01b037f0000000000000000000000000000000000000000000000000000000000000000169263621419c0926044808201939182900301818387803b1580156113d157600080fd5b505af11580156113e5573d6000803e3d6000fd5b5050505060007f00000000000000000000000000000000000000000000000000000000000000006001600160a01b031663509406186040518163ffffffff1660e01b815260040160206040518083038186803b15801561144457600080fd5b505afa158015611458573d6000803e3d6000fd5b505050506040513d602081101561146e57600080fd5b50519050600061148e6127106106176114878286611826565b869061175f565b905084156115d3576114eb6001600160a01b037f0000000000000000000000000000000000000000000000000000000000000000167f00000000000000000000000000000000000000000000000000000000000000006000611afa565b61153f6001600160a01b037f0000000000000000000000000000000000000000000000000000000000000000167f000000000000000000000000000000000000000000000000000000000000000083611afa565b7f00000000000000000000000000000000000000000000000000000000000000006001600160a01b0316632ee4090888836040518363ffffffff1660e01b815260040180836001600160a01b0316815260200182815260200192505050600060405180830381600087803b1580156115b657600080fd5b505af11580156115ca573d6000803e3d6000fd5b50505050611607565b6116076001600160a01b037f0000000000000000000000000000000000000000000000000000000000000000168883611950565b6040805182815290516001600160a01b038916917fe2403640ba68fed3a2f88b7557551d1993f84b99bb10ff833f0cf8db0c5e0486919081900360200190a250505b83156116fc57600b5460005b818110156116f957600b818154811061166a57fe5b6000918252602082200154604080517fc00007b00000000000000000000000000000000000000000000000000000000081526001600160a01b038b811660048301529151919092169263c00007b0926024808201939182900301818387803b1580156116d557600080fd5b505af11580156116e9573d6000803e3d6000fd5b5050600190920191506116559050565b50505b5050505050565b6001600160a01b0381166000908152600a60209081526040808320546009909252822054611759919061175390670de0b6b3a7640000906106179061174a90611158611115565b61115e88610e06565b90611883565b92915050565b60008261176e57506000611759565b8282028284828161177b57fe5b04146117b85760405162461bcd60e51b8152600401808060200182810382526021815260200180611f636021913960400191505060405180910390fd5b9392505050565b6000808211611815576040805162461bcd60e51b815260206004820152601a60248201527f536166654d6174683a206469766973696f6e206279207a65726f000000000000604482015290519081900360640190fd5b81838161181e57fe5b049392505050565b60008282111561187d576040805162461bcd60e51b815260206004820152601e60248201527f536166654d6174683a207375627472616374696f6e206f766572666c6f770000604482015290519081900360640190fd5b50900390565b6000828201838110156117b8576040805162461bcd60e51b815260206004820152601b60248201527f536166654d6174683a206164646974696f6e206f766572666c6f770000000000604482015290519081900360640190fd5b604080516001600160a01b0380861660248301528416604482015260648082018490528251808303909101815260849091019091526020810180516001600160e01b03167f23b872dd00000000000000000000000000000000000000000000000000000000179052610b76908590611c3b565b604080516001600160a01b038416602482015260448082018490528251808303909101815260649091019091526020810180516001600160e01b03167fa9059cbb000000000000000000000000000000000000000000000000000000001790526119bb908490611c3b565b505050565b60006119ca611115565b6003556119d5610e4b565b6002556001600160a01b03811615611a1c576119f081611703565b6001600160a01b0382166000908152600a60209081526040808320939093556003546009909152919020555b600654611a299083611883565b6006556000544210611a4a57611a428262093a806117bf565b600155611a92565b60008054611a589042611826565b90506000611a716001548361175f90919063ffffffff16565b9050611a7d8482611883565b9350611a8c8462093a806117bf565b60015550505b6005829055426002819055611aaa9062093a80611883565b6000556040805183815290517fde88a922e0d3b88b24e9623efeb464919c6bf9f66857a65e2bfcf2ce87a9433d9181900360200190a15050565b6000818310611af357816117b8565b5090919050565b801580611b995750604080517fdd62ed3e0000000000000000000000000000000000000000000000000000000081523060048201526001600160a01b03848116602483015291519185169163dd62ed3e91604480820192602092909190829003018186803b158015611b6b57600080fd5b505afa158015611b7f573d6000803e3d6000fd5b505050506040513d6020811015611b9557600080fd5b5051155b611bd45760405162461bcd60e51b8152600401808060200182810382526036815260200180611fae6036913960400191505060405180910390fd5b604080516001600160a01b038416602482015260448082018490528251808303909101815260649091019091526020810180516001600160e01b03167f095ea7b3000000000000000000000000000000000000000000000000000000001790526119bb9084905b6060611c90826040518060400160405280602081526020017f5361666545524332303a206c6f772d6c6576656c2063616c6c206661696c6564815250856001600160a01b0316611cec9092919063ffffffff16565b8051909150156119bb57808060200190516020811015611caf57600080fd5b50516119bb5760405162461bcd60e51b815260040180806020018281038252602a815260200180611f84602a913960400191505060405180910390fd5b6060611cfb8484600085611d03565b949350505050565b60603031831115611d455760405162461bcd60e51b8152600401808060200182810382526026815260200180611f3d6026913960400191505060405180910390fd5b611d4e85611e60565b611d9f576040805162461bcd60e51b815260206004820152601d60248201527f416464726573733a2063616c6c20746f206e6f6e2d636f6e7472616374000000604482015290519081900360640190fd5b60006060866001600160a01b031685876040518082805190602001908083835b60208310611dde5780518252601f199092019160209182019101611dbf565b6001836020036101000a03801982511681845116808217855250505050505090500191505060006040518083038185875af1925050503d8060008114611e40576040519150601f19603f3d011682016040523d82523d6000602084013e611e45565b606091505b5091509150611e55828286611e66565b979650505050505050565b3b151590565b60608315611e755750816117b8565b825115611e855782518084602001fd5b8160405162461bcd60e51b81526004018080602001828103825283818151815260200191508051906020019080838360005b83811015611ecf578181015183820152602001611eb7565b50505050905090810190601f168015611efc5780820380516001836020036101000a031916815260200191505b509250505060405180910390fd5b508054600082559060005260206000209081019061072d91905b80821115611f385760008155600101611f24565b509056fe416464726573733a20696e73756666696369656e742062616c616e636520666f722063616c6c536166654d6174683a206d756c7469706c69636174696f6e206f766572666c6f775361666545524332303a204552433230206f7065726174696f6e20646964206e6f7420737563636565645361666545524332303a20617070726f76652066726f6d206e6f6e2d7a65726f20746f206e6f6e2d7a65726f20616c6c6f77616e6365a2646970667358221220d7ad46ec682394f2e2b77b4ae0b69486917a2a5b214523abf4b336411088b49864736f6c63430007050033",
  "linkReferences": {},
  "deployedLinkReferences": {}
}