{
  "_format": "hh-sol-artifact-1",
  "contractName": "KPtoken",
  "sourceName": "contracts/KPtoken.sol",
  "abi": [
    {
      "inputs": [
        {
          "internalType": "address",
          "name": "_proxy",
          "type": "address"
        },
        {
          "internalType": "string",
          "name": "_name",
          "type": "string"
        },
        {
          "internalType": "string",
          "name": "_symbol",
          "type": "string"
        },
        {
          "internalType": "address",
          "name": "_creator_address",
          "type": "address"
        }
      ],
      "stateMutability": "nonpayable",
      "type": "constructor"
    },
    {
      "anonymous": false,
      "inputs": [
        {
          "indexed": true,
          "internalType": "address",
          "name": "owner",
          "type": "address"
        },
        {
          "indexed": true,
          "internalType": "address",
          "name": "spender",
          "type": "address"
        },
        {
          "indexed": false,
          "internalType": "uint256",
          "name": "value",
          "type": "uint256"
        }
      ],
      "name": "Approval",
      "type": "event"
    },
    {
      "anonymous": false,
      "inputs": [
        {
          "indexed": true,
          "internalType": "address",
          "name": "from",
          "type": "address"
        },
        {
          "indexed": true,
          "internalType": "address",
          "name": "to",
          "type": "address"
        },
        {
          "indexed": false,
          "internalType": "uint256",
          "name": "amount",
          "type": "uint256"
        }
      ],
      "name": "BankBurned",
      "type": "event"
    },
    {
      "anonymous": false,
      "inputs": [
        {
          "indexed": true,
          "internalType": "address",
          "name": "from",
          "type": "address"
        },
        {
          "indexed": true,
          "internalType": "address",
          "name": "to",
          "type": "address"
        },
        {
          "indexed": false,
          "internalType": "uint256",
          "name": "amount",
          "type": "uint256"
        }
      ],
      "name": "BankMinted",
      "type": "event"
    },
    {
      "anonymous": false,
      "inputs": [
        {
          "indexed": false,
          "internalType": "address",
          "name": "kusd",
          "type": "address"
        }
      ],
      "name": "KUSDAddressSet",
      "type": "event"
    },
    {
      "anonymous": false,
      "inputs": [
        {
          "indexed": true,
          "internalType": "address",
          "name": "from",
          "type": "address"
        },
        {
          "indexed": true,
          "internalType": "address",
          "name": "to",
          "type": "address"
        },
        {
          "indexed": false,
          "internalType": "uint256",
          "name": "amount",
          "type": "uint256"
        }
      ],
      "name": "Minted",
      "type": "event"
    },
    {
      "anonymous": false,
      "inputs": [
        {
          "indexed": false,
          "internalType": "address",
          "name": "oldOwner",
          "type": "address"
        },
        {
          "indexed": false,
          "internalType": "address",
          "name": "newOwner",
          "type": "address"
        }
      ],
      "name": "OwnerChanged",
      "type": "event"
    },
    {
      "anonymous": false,
      "inputs": [
        {
          "indexed": false,
          "internalType": "address",
          "name": "newOwner",
          "type": "address"
        }
      ],
      "name": "OwnerNominated",
      "type": "event"
    },
    {
      "anonymous": false,
      "inputs": [
        {
          "indexed": true,
          "internalType": "address",
          "name": "from",
          "type": "address"
        },
        {
          "indexed": true,
          "internalType": "address",
          "name": "to",
          "type": "address"
        },
        {
          "indexed": false,
          "internalType": "uint256",
          "name": "value",
          "type": "uint256"
        }
      ],
      "name": "Transfer",
      "type": "event"
    },
    {
      "inputs": [
        {
          "internalType": "address",
          "name": "b_address",
          "type": "address"
        },
        {
          "internalType": "uint256",
          "name": "b_amount",
          "type": "uint256"
        }
      ],
      "name": "Bank_burn_from",
      "outputs": [],
      "stateMutability": "nonpayable",
      "type": "function"
    },
    {
      "inputs": [
        {
          "internalType": "address",
          "name": "m_address",
          "type": "address"
        },
        {
          "internalType": "uint256",
          "name": "m_amount",
          "type": "uint256"
        }
      ],
      "name": "Bank_mint",
      "outputs": [],
      "stateMutability": "nonpayable",
      "type": "function"
    },
    {
      "inputs": [],
      "name": "acceptOwnership",
      "outputs": [],
      "stateMutability": "nonpayable",
      "type": "function"
    },
    {
      "inputs": [
        {
          "internalType": "address",
          "name": "owner",
          "type": "address"
        },
        {
          "internalType": "address",
          "name": "spender",
          "type": "address"
        }
      ],
      "name": "allowance",
      "outputs": [
        {
          "internalType": "uint256",
          "name": "",
          "type": "uint256"
        }
      ],
      "stateMutability": "view",
      "type": "function"
    },
    {
      "inputs": [
        {
          "internalType": "address",
          "name": "spender",
          "type": "address"
        },
        {
          "internalType": "uint256",
          "name": "amount",
          "type": "uint256"
        }
      ],
      "name": "approve",
      "outputs": [
        {
          "internalType": "bool",
          "name": "",
          "type": "bool"
        }
      ],
      "stateMutability": "nonpayable",
      "type": "function"
    },
    {
      "inputs": [
        {
          "internalType": "address",
          "name": "account",
          "type": "address"
        }
      ],
      "name": "balanceOf",
      "outputs": [
        {
          "internalType": "uint256",
          "name": "",
          "type": "uint256"
        }
      ],
      "stateMutability": "view",
      "type": "function"
    },
    {
      "inputs": [
        {
          "internalType": "uint256",
          "name": "amount",
          "type": "uint256"
        }
      ],
      "name": "burn",
      "outputs": [],
      "stateMutability": "nonpayable",
      "type": "function"
    },
    {
      "inputs": [
        {
          "internalType": "address",
          "name": "account",
          "type": "address"
        },
        {
          "internalType": "uint256",
          "name": "amount",
          "type": "uint256"
        }
      ],
      "name": "burnFrom",
      "outputs": [],
      "stateMutability": "nonpayable",
      "type": "function"
    },
    {
      "inputs": [],
      "name": "creator_address",
      "outputs": [
        {
          "internalType": "address",
          "name": "",
          "type": "address"
        }
      ],
      "stateMutability": "view",
      "type": "function"
    },
    {
      "inputs": [],
      "name": "decimals",
      "outputs": [
        {
          "internalType": "uint8",
          "name": "",
          "type": "uint8"
        }
      ],
      "stateMutability": "view",
      "type": "function"
    },
    {
      "inputs": [
        {
          "internalType": "address",
          "name": "spender",
          "type": "address"
        },
        {
          "internalType": "uint256",
          "name": "subtractedValue",
          "type": "uint256"
        }
      ],
      "name": "decreaseAllowance",
      "outputs": [
        {
          "internalType": "bool",
          "name": "",
          "type": "bool"
        }
      ],
      "stateMutability": "nonpayable",
      "type": "function"
    },
    {
      "inputs": [
        {
          "internalType": "address",
          "name": "spender",
          "type": "address"
        },
        {
          "internalType": "uint256",
          "name": "addedValue",
          "type": "uint256"
        }
      ],
      "name": "increaseAllowance",
      "outputs": [
        {
          "internalType": "bool",
          "name": "",
          "type": "bool"
        }
      ],
      "stateMutability": "nonpayable",
      "type": "function"
    },
    {
      "inputs": [],
      "name": "kusd",
      "outputs": [
        {
          "internalType": "address",
          "name": "",
          "type": "address"
        }
      ],
      "stateMutability": "view",
      "type": "function"
    },
    {
      "inputs": [],
      "name": "maxSupply",
      "outputs": [
        {
          "internalType": "uint256",
          "name": "",
          "type": "uint256"
        }
      ],
      "stateMutability": "view",
      "type": "function"
    },
    {
      "inputs": [
        {
          "internalType": "address",
          "name": "_to",
          "type": "address"
        },
        {
          "internalType": "uint256",
          "name": "_amount",
          "type": "uint256"
        }
      ],
      "name": "mint",
      "outputs": [],
      "stateMutability": "nonpayable",
      "type": "function"
    },
    {
      "inputs": [],
      "name": "name",
      "outputs": [
        {
          "internalType": "string",
          "name": "",
          "type": "string"
        }
      ],
      "stateMutability": "view",
      "type": "function"
    },
    {
      "inputs": [
        {
          "internalType": "address",
          "name": "_owner",
          "type": "address"
        }
      ],
      "name": "nominateNewOwner",
      "outputs": [],
      "stateMutability": "nonpayable",
      "type": "function"
    },
    {
      "inputs": [],
      "name": "nominatedOwner",
      "outputs": [
        {
          "internalType": "address",
          "name": "",
          "type": "address"
        }
      ],
      "stateMutability": "view",
      "type": "function"
    },
    {
      "inputs": [],
      "name": "operator",
      "outputs": [
        {
          "internalType": "address",
          "name": "",
          "type": "address"
        }
      ],
      "stateMutability": "view",
      "type": "function"
    },
    {
      "inputs": [],
      "name": "owner",
      "outputs": [
        {
          "internalType": "address",
          "name": "",
          "type": "address"
        }
      ],
      "stateMutability": "view",
      "type": "function"
    },
    {
      "inputs": [
        {
          "internalType": "address",
          "name": "_kusd",
          "type": "address"
        }
      ],
      "name": "setKUSDAddress",
      "outputs": [],
      "stateMutability": "nonpayable",
      "type": "function"
    },
    {
      "inputs": [
        {
          "internalType": "address",
          "name": "_newproxy",
          "type": "address"
        }
      ],
      "name": "setVoterproxy",
      "outputs": [],
      "stateMutability": "nonpayable",
      "type": "function"
    },
    {
      "inputs": [],
      "name": "symbol",
      "outputs": [
        {
          "internalType": "string",
          "name": "",
          "type": "string"
        }
      ],
      "stateMutability": "view",
      "type": "function"
    },
    {
      "inputs": [],
      "name": "totalSupply",
      "outputs": [
        {
          "internalType": "uint256",
          "name": "",
          "type": "uint256"
        }
      ],
      "stateMutability": "view",
      "type": "function"
    },
    {
      "inputs": [
        {
          "internalType": "address",
          "name": "recipient",
          "type": "address"
        },
        {
          "internalType": "uint256",
          "name": "amount",
          "type": "uint256"
        }
      ],
      "name": "transfer",
      "outputs": [
        {
          "internalType": "bool",
          "name": "",
          "type": "bool"
        }
      ],
      "stateMutability": "nonpayable",
      "type": "function"
    },
    {
      "inputs": [
        {
          "internalType": "address",
          "name": "sender",
          "type": "address"
        },
        {
          "internalType": "address",
          "name": "recipient",
          "type": "address"
        },
        {
          "internalType": "uint256",
          "name": "amount",
          "type": "uint256"
        }
      ],
      "name": "transferFrom",
      "outputs": [
        {
          "internalType": "bool",
          "name": "",
          "type": "bool"
        }
      ],
      "stateMutability": "nonpayable",
      "type": "function"
    },
    {
      "inputs": [],
      "name": "updateOperator",
      "outputs": [],
      "stateMutability": "nonpayable",
      "type": "function"
    },
    {
      "inputs": [],
      "name": "voterProxy",
      "outputs": [
        {
          "internalType": "address",
          "name": "",
          "type": "address"
        }
      ],
      "stateMutability": "view",
      "type": "function"
    }
  ],
  "bytecode": "0x60806040526a52b7d2dcc80cd2e4000000600b553480156200002057600080fd5b5060405162001ad538038062001ad5833981810160405260808110156200004657600080fd5b8151602083018051604051929492938301929190846401000000008211156200006e57600080fd5b9083019060208201858111156200008457600080fd5b82516401000000008111828201881017156200009f57600080fd5b82525081516020918201929091019080838360005b83811015620000ce578181015183820152602001620000b4565b50505050905090810190601f168015620000fc5780820380516001836020036101000a031916815260200191505b50604052602001805160405193929190846401000000008211156200012057600080fd5b9083019060208201858111156200013657600080fd5b82516401000000008111828201881017156200015157600080fd5b82525081516020918201929091019080838360005b838110156200018057818101518382015260200162000166565b50505050905090810190601f168015620001ae5780820380516001836020036101000a031916815260200191505b506040526020015191508190506001600160a01b0381166200023157604080517f08c379a000000000000000000000000000000000000000000000000000000000815260206004820152601960248201527f4f776e657220616464726573732063616e6e6f74206265203000000000000000604482015290519081900360640190fd5b600380546001600160a01b0319166001600160a01b0383169081179091556040805160008152602081019290925280517fb532073b38c83145e3e5135377a08bf9aab55bc0fd7c1179cd4fb995d2a5159c9281900390910190a1508251620002a1906006906020860190620002fb565b508151620002b7906005906020850190620002fb565b50600a80546001600160a01b039283166001600160a01b03199182161790915560078054821633179055600880549590921694169390931790925550620003a79050565b828054600181600116156101000203166002900490600052602060002090601f0160209004810192826200033357600085556200037e565b82601f106200034e57805160ff19168380011785556200037e565b828001600101855582156200037e579182015b828111156200037e57825182559160200191906001019062000361565b506200038c92915062000390565b5090565b5b808211156200038c576000815560010162000391565b61171e80620003b76000396000f3fe608060405234801561001057600080fd5b50600436106101c45760003560e01c8063570ca735116100f9578063a457c2d711610097578063d5abeb0111610071578063d5abeb01146104eb578063dbe263a5146104f3578063dbf6b9b51461051f578063dd62ed3e1461054b576101c4565b8063a457c2d71461048b578063a9059cbb146104b7578063d5934b76146104e3576101c4565b806379cc6790116100d357806379cc6790146104295780638da5cb5b1461045557806395d89b411461045d57806399b1aea814610465576101c4565b8063570ca735146103f357806370a08231146103fb57806379ba509714610421576101c4565b80632b63f5e71161016657806340c10f191161014057806340c10f191461039a57806342966c68146103c65780634bd0be23146103e357806353a47bb7146103eb576101c4565b80632b63f5e71461032a578063313ce56714610350578063395093511461036e576101c4565b806318160ddd116101a257806318160ddd146102ae5780631ba980b3146102c85780632398a4d7146102ec57806323b872dd146102f4576101c4565b806306fdde03146101c9578063095ea7b3146102465780631627540c14610286575b600080fd5b6101d1610579565b6040805160208082528351818301528351919283929083019185019080838360005b8381101561020b5781810151838201526020016101f3565b50505050905090810190601f1680156102385780820380516001836020036101000a031916815260200191505b509250505060405180910390f35b6102726004803603604081101561025c57600080fd5b506001600160a01b038135169060200135610607565b604080519115158252519081900360200190f35b6102ac6004803603602081101561029c57600080fd5b50356001600160a01b0316610624565b005b6102b66106c1565b60408051918252519081900360200190f35b6102d06106c7565b604080516001600160a01b039092168252519081900360200190f35b6102d06106d6565b6102726004803603606081101561030a57600080fd5b506001600160a01b038135811691602081013590911690604001356106e5565b6102ac6004803603602081101561034057600080fd5b50356001600160a01b031661076c565b6103586107d7565b6040805160ff9092168252519081900360200190f35b6102726004803603604081101561038457600080fd5b506001600160a01b0381351690602001356107dc565b6102ac600480360360408110156103b057600080fd5b506001600160a01b03813516906020013561082a565b6102ac600480360360208110156103dc57600080fd5b50356108dd565b6102d06108f1565b6102d0610900565b6102d061090f565b6102b66004803603602081101561041157600080fd5b50356001600160a01b031661091e565b6102ac610939565b6102ac6004803603604081101561043f57600080fd5b506001600160a01b0381351690602001356109f5565b6102d0610a4a565b6101d1610a59565b6102ac6004803603602081101561047b57600080fd5b50356001600160a01b0316610ab4565b610272600480360360408110156104a157600080fd5b506001600160a01b038135169060200135610bac565b610272600480360360408110156104cd57600080fd5b506001600160a01b038135169060200135610c14565b6102ac610c28565b6102b6610cc3565b6102ac6004803603604081101561050957600080fd5b506001600160a01b038135169060200135610cc9565b6102ac6004803603604081101561053557600080fd5b506001600160a01b038135169060200135610ded565b6102b66004803603604081101561056157600080fd5b506001600160a01b0381358116916020013516610f11565b6006805460408051602060026001851615610100026000190190941693909304601f810184900484028201840190925281815292918301828280156105ff5780601f106105d4576101008083540402835291602001916105ff565b820191906000526020600020905b8154815290600101906020018083116105e257829003601f168201915b505050505081565b600061061b610614610f3c565b8484610f40565b50600192915050565b6003546001600160a01b0316331461066d5760405162461bcd60e51b815260040180806020018281038252602f8152602001806115df602f913960400191505060405180910390fd5b600480546001600160a01b0383166001600160a01b0319909116811790915560408051918252517f906a1c6bd7e3091ea86693dd029a831c19049ce77f1dce2ce0bab1cacbabce229181900360200190a150565b60025490565b6008546001600160a01b031681565b6009546001600160a01b031681565b60006106f284848461102c565b610762846106fe610f3c565b61075d8560405180606001604052806028815260200161160e602891396001600160a01b038a1660009081526001602052604081209061073c610f3c565b6001600160a01b031681526020810191909152604001600020549190611187565b610f40565b5060019392505050565b6003546001600160a01b031633146107b55760405162461bcd60e51b815260040180806020018281038252602f8152602001806115df602f913960400191505060405180910390fd5b600880546001600160a01b0319166001600160a01b0392909216919091179055565b601281565b600061061b6107e9610f3c565b8461075d85600160006107fa610f3c565b6001600160a01b03908116825260208083019390935260409182016000908120918c16815292529020549061121e565b6007546001600160a01b03163314610841576108d9565b600061084b6106c1565b90508061086a5761085c838361127f565b610864610c28565b506108d9565b610874818361121e565b9050600b548111156108cd576040805162461bcd60e51b815260206004820152600e60248201527f416c7265616479204d6178537570000000000000000000000000000000000000604482015290519081900360640190fd5b6108d7838361127f565b505b5050565b6108ee6108e8610f3c565b8261136f565b50565b600a546001600160a01b031681565b6004546001600160a01b031681565b6007546001600160a01b031681565b6001600160a01b031660009081526020819052604090205490565b6004546001600160a01b031633146109825760405162461bcd60e51b81526004018080602001828103825260358152602001806115406035913960400191505060405180910390fd5b600354600454604080516001600160a01b03938416815292909116602083015280517fb532073b38c83145e3e5135377a08bf9aab55bc0fd7c1179cd4fb995d2a5159c9281900390910190a160048054600380546001600160a01b03199081166001600160a01b03841617909155169055565b6000610a2c8260405180606001604052806024815260200161163660249139610a2586610a20610f3c565b610f11565b9190611187565b9050610a4083610a3a610f3c565b83610f40565b6108d7838361136f565b6003546001600160a01b031681565b6005805460408051602060026001851615610100026000190190941693909304601f810184900484028201840190925281815292918301828280156105ff5780601f106105d4576101008083540402835291602001916105ff565b6003546001600160a01b03163314610afd5760405162461bcd60e51b815260040180806020018281038252602f8152602001806115df602f913960400191505060405180910390fd5b6001600160a01b038116610b58576040805162461bcd60e51b815260206004820152601560248201527f5a65726f20616464726573732064657465637465640000000000000000000000604482015290519081900360640190fd5b600980546001600160a01b0383166001600160a01b0319909116811790915560408051918252517f1ff74fdf68d51e8a8a20005f7513030c984fe9f3ffa146a3fd50e8739a73ba759181900360200190a150565b600061061b610bb9610f3c565b8461075d856040518060600160405280602581526020016116c46025913960016000610be3610f3c565b6001600160a01b03908116825260208083019390935260409182016000908120918d16815292529020549190611187565b600061061b610c21610f3c565b848461102c565b600860009054906101000a90046001600160a01b03166001600160a01b031663570ca7356040518163ffffffff1660e01b815260040160206040518083038186803b158015610c7657600080fd5b505afa158015610c8a573d6000803e3d6000fd5b505050506040513d6020811015610ca057600080fd5b5051600780546001600160a01b0319166001600160a01b03909216919091179055565b600b5481565b600960009054906101000a90046001600160a01b03166001600160a01b03166341805c1c6040518163ffffffff1660e01b815260040160206040518083038186803b158015610d1757600080fd5b505afa158015610d2b573d6000803e3d6000fd5b505050506040513d6020811015610d4157600080fd5b50516001600160a01b03163314610d9f576040805162461bcd60e51b815260206004820152601060248201527f596f7520617265206e6f742062616e6b00000000000000000000000000000000604482015290519081900360640190fd5b610da9828261127f565b6040805182815290516001600160a01b0384169130917ff985a311dab93c77564f494f138b23b41d9c3b14bb2bfdbd5eb7fbc9e929b31b9181900360200190a35050565b600960009054906101000a90046001600160a01b03166001600160a01b03166341805c1c6040518163ffffffff1660e01b815260040160206040518083038186803b158015610e3b57600080fd5b505afa158015610e4f573d6000803e3d6000fd5b505050506040513d6020811015610e6557600080fd5b50516001600160a01b03163314610ec3576040805162461bcd60e51b815260206004820152601060248201527f596f7520617265206e6f742062616e6b00000000000000000000000000000000604482015290519081900360640190fd5b610ecd828261146b565b60408051828152905130916001600160a01b038516917f88fabba059a45fc661f616c17f6759748e090b3e4accb657282e8530df24d73f9181900360200190a35050565b6001600160a01b03918216600090815260016020908152604080832093909416825291909152205490565b3390565b6001600160a01b038316610f855760405162461bcd60e51b81526004018080602001828103825260248152602001806116a06024913960400191505060405180910390fd5b6001600160a01b038216610fca5760405162461bcd60e51b81526004018080602001828103825260228152602001806115976022913960400191505060405180910390fd5b6001600160a01b03808416600081815260016020908152604080832094871680845294825291829020859055815185815291517f8c5be1e5ebec7d5bd14f71427d1e84f3dd0314c0f7b2291e5b200ac8c7c3b9259281900390910190a3505050565b6001600160a01b0383166110715760405162461bcd60e51b815260040180806020018281038252602581526020018061167b6025913960400191505060405180910390fd5b6001600160a01b0382166110b65760405162461bcd60e51b815260040180806020018281038252602381526020018061151d6023913960400191505060405180910390fd5b6110c18383836108d7565b6110fe816040518060600160405280602681526020016115b9602691396001600160a01b0386166000908152602081905260409020549190611187565b6001600160a01b03808516600090815260208190526040808220939093559084168152205461112d908261121e565b6001600160a01b038084166000818152602081815260409182902094909455805185815290519193928716927fddf252ad1be2c89b69c2b068fc378daa952ba7f163c4a11628f55a4df523b3ef92918290030190a3505050565b600081848411156112165760405162461bcd60e51b81526004018080602001828103825283818151815260200191508051906020019080838360005b838110156111db5781810151838201526020016111c3565b50505050905090810190601f1680156112085780820380516001836020036101000a031916815260200191505b509250505060405180910390fd5b505050900390565b600082820183811015611278576040805162461bcd60e51b815260206004820152601b60248201527f536166654d6174683a206164646974696f6e206f766572666c6f770000000000604482015290519081900360640190fd5b9392505050565b6001600160a01b0382166112da576040805162461bcd60e51b815260206004820152601f60248201527f45524332303a206d696e7420746f20746865207a65726f206164647265737300604482015290519081900360640190fd5b6112e6600083836108d7565b6002546112f3908261121e565b6002556001600160a01b038216600090815260208190526040902054611319908261121e565b6001600160a01b0383166000818152602081815260408083209490945583518581529351929391927fddf252ad1be2c89b69c2b068fc378daa952ba7f163c4a11628f55a4df523b3ef9281900390910190a35050565b6001600160a01b0382166113b45760405162461bcd60e51b815260040180806020018281038252602181526020018061165a6021913960400191505060405180910390fd5b6113c0826000836108d7565b6113fd81604051806060016040528060228152602001611575602291396001600160a01b0385166000908152602081905260409020549190611187565b6001600160a01b03831660009081526020819052604090205560025461142390826114bf565b6002556040805182815290516000916001600160a01b038516917fddf252ad1be2c89b69c2b068fc378daa952ba7f163c4a11628f55a4df523b3ef9181900360200190a35050565b611475828261136f565b6108d982611481610f3c565b61075d84604051806060016040528060248152602001611636602491396001600160a01b03881660009081526001602052604081209061073c610f3c565b600082821115611516576040805162461bcd60e51b815260206004820152601e60248201527f536166654d6174683a207375627472616374696f6e206f766572666c6f770000604482015290519081900360640190fd5b5090039056fe45524332303a207472616e7366657220746f20746865207a65726f2061646472657373596f75206d757374206265206e6f6d696e61746564206265666f726520796f752063616e20616363657074206f776e65727368697045524332303a206275726e20616d6f756e7420657863656564732062616c616e636545524332303a20617070726f766520746f20746865207a65726f206164647265737345524332303a207472616e7366657220616d6f756e7420657863656564732062616c616e63654f6e6c792074686520636f6e7472616374206f776e6572206d617920706572666f726d207468697320616374696f6e45524332303a207472616e7366657220616d6f756e74206578636565647320616c6c6f77616e636545524332303a206275726e20616d6f756e74206578636565647320616c6c6f77616e636545524332303a206275726e2066726f6d20746865207a65726f206164647265737345524332303a207472616e736665722066726f6d20746865207a65726f206164647265737345524332303a20617070726f76652066726f6d20746865207a65726f206164647265737345524332303a2064656372656173656420616c6c6f77616e63652062656c6f77207a65726fa2646970667358221220befd05c04a79bacc1f7f9e2c75145cc843022431c11c345540c97ed76674c89a64736f6c63430007050033",
  "linkReferences": {},
  "deployedLinkReferences": {}
}