{
  "_format": "hh-sol-artifact-1",
  "contractName": "AssetOracle",
  "sourceName": "contracts/bank/Oracle/AssetOracle.sol",
  "abi": [
    {
      "inputs": [],
      "stateMutability": "nonpayable",
      "type": "constructor"
    },
    {
      "anonymous": false,
      "inputs": [
        {
          "indexed": true,
          "internalType": "uint256",
          "name": "idx",
          "type": "uint256"
        },
        {
          "indexed": true,
          "internalType": "address",
          "name": "newOracle",
          "type": "address"
        }
      ],
      "name": "AssetOracleUpdated",
      "type": "event"
    },
    {
      "anonymous": false,
      "inputs": [
        {
          "indexed": false,
          "internalType": "address",
          "name": "oldOwner",
          "type": "address"
        },
        {
          "indexed": false,
          "internalType": "address",
          "name": "newOwner",
          "type": "address"
        }
      ],
      "name": "OwnerChanged",
      "type": "event"
    },
    {
      "anonymous": false,
      "inputs": [
        {
          "indexed": false,
          "internalType": "address",
          "name": "newOwner",
          "type": "address"
        }
      ],
      "name": "OwnerNominated",
      "type": "event"
    },
    {
      "inputs": [],
      "name": "acceptOwnership",
      "outputs": [],
      "stateMutability": "nonpayable",
      "type": "function"
    },
    {
      "inputs": [
        {
          "internalType": "address",
          "name": "asset",
          "type": "address"
        }
      ],
      "name": "getAssetPrice",
      "outputs": [
        {
          "internalType": "uint256",
          "name": "",
          "type": "uint256"
        }
      ],
      "stateMutability": "view",
      "type": "function"
    },
    {
      "inputs": [
        {
          "internalType": "address",
          "name": "_owner",
          "type": "address"
        }
      ],
      "name": "nominateNewOwner",
      "outputs": [],
      "stateMutability": "nonpayable",
      "type": "function"
    },
    {
      "inputs": [],
      "name": "nominatedOwner",
      "outputs": [
        {
          "internalType": "address",
          "name": "",
          "type": "address"
        }
      ],
      "stateMutability": "view",
      "type": "function"
    },
    {
      "inputs": [],
      "name": "owner",
      "outputs": [
        {
          "internalType": "address",
          "name": "",
          "type": "address"
        }
      ],
      "stateMutability": "view",
      "type": "function"
    },
    {
      "inputs": [
        {
          "internalType": "uint256",
          "name": "",
          "type": "uint256"
        }
      ],
      "name": "priceOracle",
      "outputs": [
        {
          "internalType": "address",
          "name": "",
          "type": "address"
        }
      ],
      "stateMutability": "view",
      "type": "function"
    },
    {
      "inputs": [
        {
          "internalType": "address[]",
          "name": "_oracle",
          "type": "address[]"
        }
      ],
      "name": "setAssetOracle",
      "outputs": [],
      "stateMutability": "nonpayable",
      "type": "function"
    }
  ],
  "bytecode": "0x608060405234801561001057600080fd5b50338061007e57604080517f08c379a000000000000000000000000000000000000000000000000000000000815260206004820152601960248201527f4f776e657220616464726573732063616e6e6f74206265203000000000000000604482015290519081900360640190fd5b600080546001600160a01b0319166001600160a01b038316908117825560408051928352602083019190915280517fb532073b38c83145e3e5135377a08bf9aab55bc0fd7c1179cd4fb995d2a5159c9281900390910190a15061065f806100e66000396000f3fe608060405234801561001057600080fd5b506004361061007d5760003560e01c806379ba50971161005b57806379ba5097146100eb5780638da5cb5b146100f3578063a8173038146100fb578063b3596f071461019e5761007d565b80631627540c1461008257806345a6de8f146100aa57806353a47bb7146100e3575b600080fd5b6100a86004803603602081101561009857600080fd5b50356001600160a01b03166101d6565b005b6100c7600480360360208110156100c057600080fd5b5035610280565b604080516001600160a01b039092168252519081900360200190f35b6100c76102aa565b6100a86102b9565b6100c7610382565b6100a86004803603602081101561011157600080fd5b81019060208101813564010000000081111561012c57600080fd5b82018360208201111561013e57600080fd5b8035906020019184602083028401116401000000008311171561016057600080fd5b919080806020026020016040519081016040528093929190818152602001838360200280828437600092019190915250929550610391945050505050565b6101c4600480360360208110156101b457600080fd5b50356001600160a01b0316610494565b60408051918252519081900360200190f35b6000546001600160a01b0316331461021f5760405162461bcd60e51b815260040180806020018281038252602f8152602001806105fb602f913960400191505060405180910390fd5b600180546001600160a01b03831673ffffffffffffffffffffffffffffffffffffffff19909116811790915560408051918252517f906a1c6bd7e3091ea86693dd029a831c19049ce77f1dce2ce0bab1cacbabce229181900360200190a150565b6002818154811061029057600080fd5b6000918252602090912001546001600160a01b0316905081565b6001546001600160a01b031681565b6001546001600160a01b031633146103025760405162461bcd60e51b81526004018080602001828103825260358152602001806105c66035913960400191505060405180910390fd5b600054600154604080516001600160a01b03938416815292909116602083015280517fb532073b38c83145e3e5135377a08bf9aab55bc0fd7c1179cd4fb995d2a5159c9281900390910190a1600180546000805473ffffffffffffffffffffffffffffffffffffffff199081166001600160a01b03841617909155169055565b6000546001600160a01b031681565b6000546001600160a01b031633146103da5760405162461bcd60e51b815260040180806020018281038252602f8152602001806105fb602f913960400191505060405180910390fd5b60005b81518110156104905760028282815181106103f457fe5b602090810291909101810151825460018101845560009384529190922001805473ffffffffffffffffffffffffffffffffffffffff19166001600160a01b03909216919091179055815182908290811061044a57fe5b60200260200101516001600160a01b0316817f35ffc63943ebc4c1151dd9af60228b02dc785665bac0adcf8fc7b1e56afb1d4760405160405180910390a36001016103dd565b5050565b6000805b600254811015610572576000600282815481106104b157fe5b6000918252602080832090910154604080517f3ddac9530000000000000000000000000000000000000000000000000000000081526001600160a01b038981166004830152620f4240602483015291519190921694508492633ddac9539260448082019391829003018186803b15801561052a57600080fd5b505afa15801561053e573d6000803e3d6000fd5b505050506040513d602081101561055457600080fd5b5051905080156105685792506105c0915050565b5050600101610498565b506040805162461bcd60e51b815260206004820152601660248201527f43414e4e4f542047455420415353455420505249434500000000000000000000604482015290519081900360640190fd5b91905056fe596f75206d757374206265206e6f6d696e61746564206265666f726520796f752063616e20616363657074206f776e6572736869704f6e6c792074686520636f6e7472616374206f776e6572206d617920706572666f726d207468697320616374696f6ea2646970667358221220dcde9be1445bc2d0453a880c3c85f45a4177432623b5f30257ea14783b92dfb964736f6c63430007050033",
  "linkReferences": {},
  "deployedLinkReferences": {}
}