{
  "_format": "hh-sol-artifact-1",
  "contractName": "Tower",
  "sourceName": "contracts/ERC20/Tower.sol",
  "abi": [
    {
      "inputs": [
        {
          "internalType": "address",
          "name": "_bank",
          "type": "address"
        }
      ],
      "stateMutability": "nonpayable",
      "type": "constructor"
    },
    {
      "anonymous": false,
      "inputs": [
        {
          "indexed": true,
          "internalType": "address",
          "name": "owner",
          "type": "address"
        },
        {
          "indexed": true,
          "internalType": "address",
          "name": "spender",
          "type": "address"
        },
        {
          "indexed": false,
          "internalType": "uint256",
          "name": "value",
          "type": "uint256"
        }
      ],
      "name": "Approval",
      "type": "event"
    },
    {
      "anonymous": false,
      "inputs": [
        {
          "indexed": true,
          "internalType": "address",
          "name": "bank",
          "type": "address"
        }
      ],
      "name": "BankUpdated",
      "type": "event"
    },
    {
      "anonymous": false,
      "inputs": [
        {
          "indexed": false,
          "internalType": "address",
          "name": "burnAddress",
          "type": "address"
        }
      ],
      "name": "LogAddBurnAddress",
      "type": "event"
    },
    {
      "anonymous": false,
      "inputs": [
        {
          "indexed": false,
          "internalType": "address",
          "name": "farm",
          "type": "address"
        }
      ],
      "name": "LogAddFarm",
      "type": "event"
    },
    {
      "anonymous": false,
      "inputs": [
        {
          "indexed": false,
          "internalType": "address",
          "name": "sender",
          "type": "address"
        },
        {
          "indexed": false,
          "internalType": "uint256",
          "name": "amount",
          "type": "uint256"
        }
      ],
      "name": "LogBurn",
      "type": "event"
    },
    {
      "anonymous": false,
      "inputs": [
        {
          "indexed": false,
          "internalType": "address",
          "name": "sender",
          "type": "address"
        },
        {
          "indexed": false,
          "internalType": "uint256",
          "name": "amount",
          "type": "uint256"
        }
      ],
      "name": "LogMint",
      "type": "event"
    },
    {
      "anonymous": false,
      "inputs": [
        {
          "indexed": false,
          "internalType": "address",
          "name": "burnAddress",
          "type": "address"
        }
      ],
      "name": "LogRemoveBurnAddress",
      "type": "event"
    },
    {
      "anonymous": false,
      "inputs": [
        {
          "indexed": false,
          "internalType": "address",
          "name": "farm",
          "type": "address"
        }
      ],
      "name": "LogRemoveFarm",
      "type": "event"
    },
    {
      "anonymous": false,
      "inputs": [
        {
          "indexed": true,
          "internalType": "address",
          "name": "previousOwner",
          "type": "address"
        },
        {
          "indexed": true,
          "internalType": "address",
          "name": "newOwner",
          "type": "address"
        }
      ],
      "name": "OwnershipTransferred",
      "type": "event"
    },
    {
      "anonymous": false,
      "inputs": [
        {
          "indexed": true,
          "internalType": "address",
          "name": "from",
          "type": "address"
        },
        {
          "indexed": true,
          "internalType": "address",
          "name": "to",
          "type": "address"
        },
        {
          "indexed": false,
          "internalType": "uint256",
          "name": "value",
          "type": "uint256"
        }
      ],
      "name": "Transfer",
      "type": "event"
    },
    {
      "inputs": [],
      "name": "GENESIS_SUPPLY",
      "outputs": [
        {
          "internalType": "uint256",
          "name": "",
          "type": "uint256"
        }
      ],
      "stateMutability": "view",
      "type": "function"
    },
    {
      "inputs": [
        {
          "internalType": "address",
          "name": "_burnAddress",
          "type": "address"
        }
      ],
      "name": "addBurnAddress",
      "outputs": [],
      "stateMutability": "nonpayable",
      "type": "function"
    },
    {
      "inputs": [
        {
          "internalType": "address",
          "name": "_farm",
          "type": "address"
        }
      ],
      "name": "addFarm",
      "outputs": [],
      "stateMutability": "nonpayable",
      "type": "function"
    },
    {
      "inputs": [
        {
          "internalType": "address",
          "name": "owner",
          "type": "address"
        },
        {
          "internalType": "address",
          "name": "spender",
          "type": "address"
        }
      ],
      "name": "allowance",
      "outputs": [
        {
          "internalType": "uint256",
          "name": "",
          "type": "uint256"
        }
      ],
      "stateMutability": "view",
      "type": "function"
    },
    {
      "inputs": [
        {
          "internalType": "address",
          "name": "spender",
          "type": "address"
        },
        {
          "internalType": "uint256",
          "name": "amount",
          "type": "uint256"
        }
      ],
      "name": "approve",
      "outputs": [
        {
          "internalType": "bool",
          "name": "",
          "type": "bool"
        }
      ],
      "stateMutability": "nonpayable",
      "type": "function"
    },
    {
      "inputs": [
        {
          "internalType": "address",
          "name": "account",
          "type": "address"
        }
      ],
      "name": "balanceOf",
      "outputs": [
        {
          "internalType": "uint256",
          "name": "",
          "type": "uint256"
        }
      ],
      "stateMutability": "view",
      "type": "function"
    },
    {
      "inputs": [],
      "name": "bank",
      "outputs": [
        {
          "internalType": "address",
          "name": "",
          "type": "address"
        }
      ],
      "stateMutability": "view",
      "type": "function"
    },
    {
      "inputs": [
        {
          "internalType": "address",
          "name": "_sender",
          "type": "address"
        },
        {
          "internalType": "uint256",
          "name": "_amt",
          "type": "uint256"
        }
      ],
      "name": "burn",
      "outputs": [],
      "stateMutability": "nonpayable",
      "type": "function"
    },
    {
      "inputs": [
        {
          "internalType": "address",
          "name": "",
          "type": "address"
        }
      ],
      "name": "burnAddress",
      "outputs": [
        {
          "internalType": "bool",
          "name": "",
          "type": "bool"
        }
      ],
      "stateMutability": "view",
      "type": "function"
    },
    {
      "inputs": [],
      "name": "decimals",
      "outputs": [
        {
          "internalType": "uint8",
          "name": "",
          "type": "uint8"
        }
      ],
      "stateMutability": "view",
      "type": "function"
    },
    {
      "inputs": [
        {
          "internalType": "address",
          "name": "spender",
          "type": "address"
        },
        {
          "internalType": "uint256",
          "name": "subtractedValue",
          "type": "uint256"
        }
      ],
      "name": "decreaseAllowance",
      "outputs": [
        {
          "internalType": "bool",
          "name": "",
          "type": "bool"
        }
      ],
      "stateMutability": "nonpayable",
      "type": "function"
    },
    {
      "inputs": [
        {
          "internalType": "address",
          "name": "",
          "type": "address"
        }
      ],
      "name": "farms",
      "outputs": [
        {
          "internalType": "bool",
          "name": "",
          "type": "bool"
        }
      ],
      "stateMutability": "view",
      "type": "function"
    },
    {
      "inputs": [
        {
          "internalType": "address",
          "name": "spender",
          "type": "address"
        },
        {
          "internalType": "uint256",
          "name": "addedValue",
          "type": "uint256"
        }
      ],
      "name": "increaseAllowance",
      "outputs": [
        {
          "internalType": "bool",
          "name": "",
          "type": "bool"
        }
      ],
      "stateMutability": "nonpayable",
      "type": "function"
    },
    {
      "inputs": [
        {
          "internalType": "address",
          "name": "_to",
          "type": "address"
        },
        {
          "internalType": "uint256",
          "name": "_amt",
          "type": "uint256"
        }
      ],
      "name": "mintByBank",
      "outputs": [],
      "stateMutability": "nonpayable",
      "type": "function"
    },
    {
      "inputs": [
        {
          "internalType": "address",
          "name": "_to",
          "type": "address"
        },
        {
          "internalType": "uint256",
          "name": "_amt",
          "type": "uint256"
        }
      ],
      "name": "mintByFarm",
      "outputs": [],
      "stateMutability": "nonpayable",
      "type": "function"
    },
    {
      "inputs": [],
      "name": "name",
      "outputs": [
        {
          "internalType": "string",
          "name": "",
          "type": "string"
        }
      ],
      "stateMutability": "view",
      "type": "function"
    },
    {
      "inputs": [],
      "name": "owner",
      "outputs": [
        {
          "internalType": "address",
          "name": "",
          "type": "address"
        }
      ],
      "stateMutability": "view",
      "type": "function"
    },
    {
      "inputs": [
        {
          "internalType": "address",
          "name": "_burnAddress",
          "type": "address"
        }
      ],
      "name": "removeBurnAddress",
      "outputs": [],
      "stateMutability": "nonpayable",
      "type": "function"
    },
    {
      "inputs": [
        {
          "internalType": "address",
          "name": "_farm",
          "type": "address"
        }
      ],
      "name": "removeFarm",
      "outputs": [],
      "stateMutability": "nonpayable",
      "type": "function"
    },
    {
      "inputs": [],
      "name": "renounceOwnership",
      "outputs": [],
      "stateMutability": "nonpayable",
      "type": "function"
    },
    {
      "inputs": [
        {
          "internalType": "address",
          "name": "_bank",
          "type": "address"
        }
      ],
      "name": "setBank",
      "outputs": [],
      "stateMutability": "nonpayable",
      "type": "function"
    },
    {
      "inputs": [],
      "name": "symbol",
      "outputs": [
        {
          "internalType": "string",
          "name": "",
          "type": "string"
        }
      ],
      "stateMutability": "view",
      "type": "function"
    },
    {
      "inputs": [],
      "name": "totalSupply",
      "outputs": [
        {
          "internalType": "uint256",
          "name": "",
          "type": "uint256"
        }
      ],
      "stateMutability": "view",
      "type": "function"
    },
    {
      "inputs": [
        {
          "internalType": "address",
          "name": "to",
          "type": "address"
        },
        {
          "internalType": "uint256",
          "name": "amount",
          "type": "uint256"
        }
      ],
      "name": "transfer",
      "outputs": [
        {
          "internalType": "bool",
          "name": "",
          "type": "bool"
        }
      ],
      "stateMutability": "nonpayable",
      "type": "function"
    },
    {
      "inputs": [
        {
          "internalType": "address",
          "name": "from",
          "type": "address"
        },
        {
          "internalType": "address",
          "name": "to",
          "type": "address"
        },
        {
          "internalType": "uint256",
          "name": "amount",
          "type": "uint256"
        }
      ],
      "name": "transferFrom",
      "outputs": [
        {
          "internalType": "bool",
          "name": "",
          "type": "bool"
        }
      ],
      "stateMutability": "nonpayable",
      "type": "function"
    },
    {
      "inputs": [
        {
          "internalType": "address",
          "name": "newOwner",
          "type": "address"
        }
      ],
      "name": "transferOwnership",
      "outputs": [],
      "stateMutability": "nonpayable",
      "type": "function"
    }
  ],
  "bytecode": "0x60806040523480156200001157600080fd5b5060405162001ab538038062001ab583398101604081905262000034916200045c565b6040518060400160405280600981526020017f546f7765722055534400000000000000000000000000000000000000000000008152506040518060400160405280600381526020017f5457520000000000000000000000000000000000000000000000000000000000815250828083838160039080519060200190620000bc929190620003b6565b508051620000d2906004906020840190620003b6565b505050620000ef620000e96200012b60201b60201c565b6200012f565b620000fa8162000181565b50620001068162000181565b505050620001243368056bc75e2d63100000620002b760201b60201c565b5062000520565b3390565b600580546001600160a01b038381166001600160a01b0319831681179093556040519116919082907f8be0079c531659141344cd1fd0a4f28419497f9722a3daafe3b4186f6b6457e090600090a35050565b6005546001600160a01b03163314620001fb576040517f08c379a000000000000000000000000000000000000000000000000000000000815260206004820181905260248201527f4f776e61626c653a2063616c6c6572206973206e6f7420746865206f776e657260448201526064015b60405180910390fd5b6001600160a01b0381166200026d576040517f08c379a000000000000000000000000000000000000000000000000000000000815260206004820152601960248201527f4f6e6c7942616e6b3a20696e76616c69642061646472657373000000000000006044820152606401620001f2565b600680546001600160a01b0319166001600160a01b0383169081179091556040517ffe3d990e3bb62dbf6649423f21da0662810b4f2705032857be268654dea04b8290600090a250565b6001600160a01b03821662000329576040517f08c379a000000000000000000000000000000000000000000000000000000000815260206004820152601f60248201527f45524332303a206d696e7420746f20746865207a65726f2061646472657373006044820152606401620001f2565b80600260008282546200033d91906200048c565b90915550506001600160a01b038216600090815260208190526040812080548392906200036c9084906200048c565b90915550506040518181526001600160a01b038316906000907fddf252ad1be2c89b69c2b068fc378daa952ba7f163c4a11628f55a4df523b3ef9060200160405180910390a35050565b828054620003c490620004ca565b90600052602060002090601f016020900481019282620003e8576000855562000433565b82601f106200040357805160ff191683800117855562000433565b8280016001018555821562000433579182015b828111156200043357825182559160200191906001019062000416565b506200044192915062000445565b5090565b5b8082111562000441576000815560010162000446565b6000602082840312156200046e578081fd5b81516001600160a01b038116811462000485578182fd5b9392505050565b60008219821115620004c5577f4e487b710000000000000000000000000000000000000000000000000000000081526011600452602481fd5b500190565b600181811c90821680620004df57607f821691505b602082108114156200051a577f4e487b7100000000000000000000000000000000000000000000000000000000600052602260045260246000fd5b50919050565b61158580620005306000396000f3fe608060405234801561001057600080fd5b50600436106101ae5760003560e01c806376cdb03b116100ee578063a457c2d711610097578063d198da3111610071578063d198da31146103a0578063dd62ed3e146103b3578063f2fde38b146103ec578063fd2daf1e146103ff57600080fd5b8063a457c2d714610367578063a9059cbb1461037a578063aff7b07d1461038d57600080fd5b806395d89b41116100c857806395d89b411461033c57806399ec6765146103445780639dc29fac1461035457600080fd5b806376cdb03b146102dd578063881461be146103085780638da5cb5b1461032b57600080fd5b8063313ce5671161015b578063452a14f611610135578063452a14f614610286578063686baf141461029957806370a08231146102ac578063715018a6146102d557600080fd5b8063313ce567146102415780633950935114610250578063421adfa01461026357600080fd5b806309b5ceff1161018c57806309b5ceff1461020957806318160ddd1461021c57806323b872dd1461022e57600080fd5b806306fdde03146101b3578063090d23b9146101d1578063095ea7b3146101e6575b600080fd5b6101bb610412565b6040516101c8919061147c565b60405180910390f35b6101e46101df3660046113c5565b6104a4565b005b6101f96101f4366004611453565b6105b0565b60405190151581526020016101c8565b6101e46102173660046113c5565b6105c8565b6002545b6040519081526020016101c8565b6101f961023c366004611418565b61067d565b604051601281526020016101c8565b6101f961025e366004611453565b6106a1565b6101f96102713660046113c5565b60086020526000908152604090205460ff1681565b6101e46102943660046113c5565b6106e0565b6101e46102a7366004611453565b61078b565b6102206102ba3660046113c5565b6001600160a01b031660009081526020819052604090205490565b6101e4610879565b6006546102f0906001600160a01b031681565b6040516001600160a01b0390911681526020016101c8565b6101f96103163660046113c5565b60076020526000908152604090205460ff1681565b6005546001600160a01b03166102f0565b6101bb6108df565b61022068056bc75e2d6310000081565b6101e4610362366004611453565b6108ee565b6101f9610375366004611453565b610996565b6101f9610388366004611453565b610a40565b6101e461039b3660046113c5565b610a4e565b6101e46103ae366004611453565b610afb565b6102206103c13660046113e6565b6001600160a01b03918216600090815260016020908152604080832093909416825291909152205490565b6101e46103fa3660046113c5565b610b5f565b6101e461040d3660046113c5565b610c41565b606060038054610421906114fe565b80601f016020809104026020016040519081016040528092919081815260200182805461044d906114fe565b801561049a5780601f1061046f5761010080835404028352916020019161049a565b820191906000526020600020905b81548152906001019060200180831161047d57829003601f168201915b5050505050905090565b6005546001600160a01b031633146105035760405162461bcd60e51b815260206004820181905260248201527f4f776e61626c653a2063616c6c6572206973206e6f7420746865206f776e657260448201526064015b60405180910390fd5b6001600160a01b0381166105595760405162461bcd60e51b815260206004820152601960248201527f4f6e6c7942616e6b3a20696e76616c696420616464726573730000000000000060448201526064016104fa565b6006805473ffffffffffffffffffffffffffffffffffffffff19166001600160a01b0383169081179091556040517ffe3d990e3bb62dbf6649423f21da0662810b4f2705032857be268654dea04b8290600090a250565b6000336105be818585610cec565b5060019392505050565b6005546001600160a01b031633146106225760405162461bcd60e51b815260206004820181905260248201527f4f776e61626c653a2063616c6c6572206973206e6f7420746865206f776e657260448201526064016104fa565b6001600160a01b038116600081815260076020908152604091829020805460ff1916600117905590519182527f0496fac6d532e0e1acf35140d8a84d669f07058e6e81396594bf8ff1f21145d591015b60405180910390a150565b60003361068b858285610e45565b610696858585610ed7565b506001949350505050565b3360008181526001602090815260408083206001600160a01b03871684529091528120549091906105be90829086906106db9087906114cf565b610cec565b6005546001600160a01b0316331461073a5760405162461bcd60e51b815260206004820181905260248201527f4f776e61626c653a2063616c6c6572206973206e6f7420746865206f776e657260448201526064016104fa565b6001600160a01b038116600081815260076020908152604091829020805460ff1916905590519182527fdd761820adcbee6ead0fe28b7704a69d947624610b9ac045ecbddc9d9a03f85d9101610672565b3360009081526008602052604090205460ff166107ea5760405162461bcd60e51b815260206004820152601460248201527f546f77657245524332303a204e6f74206661726d00000000000000000000000060448201526064016104fa565b60405162461bcd60e51b815260206004820152600f60248201527f4661726d2063616e2774206d696e74000000000000000000000000000000000060448201526064016104fa565b604080516001600160a01b0384168152602081018390527f9f494565851dbcb31fb5198ca217cda6833282fadb96ba9431bd19c82afc1dd391015b60405180910390a15050565b6005546001600160a01b031633146108d35760405162461bcd60e51b815260206004820181905260248201527f4f776e61626c653a2063616c6c6572206973206e6f7420746865206f776e657260448201526064016104fa565b6108dd60006110ee565b565b606060048054610421906114fe565b3360009081526007602052604090205460ff1661094d5760405162461bcd60e51b815260206004820152601860248201527f546f77657245524332303a204e6f74206275726e61626c65000000000000000060448201526064016104fa565b610957828261114d565b604080516001600160a01b0384168152602081018390527f38d762ef507761291a578e921acfe29c1af31a7331ea03e391cf16cfc4d4f581910161086d565b3360008181526001602090815260408083206001600160a01b038716845290915281205490919083811015610a335760405162461bcd60e51b815260206004820152602560248201527f45524332303a2064656372656173656420616c6c6f77616e63652062656c6f7760448201527f207a65726f00000000000000000000000000000000000000000000000000000060648201526084016104fa565b6106968286868403610cec565b6000336105be818585610ed7565b6005546001600160a01b03163314610aa85760405162461bcd60e51b815260206004820181905260248201527f4f776e61626c653a2063616c6c6572206973206e6f7420746865206f776e657260448201526064016104fa565b6001600160a01b038116600081815260086020908152604091829020805460ff1916600117905590519182527e93600bc90c2ab03b950731052fad412857729f0644ce8b485bcc6e553c5fc39101610672565b6006546001600160a01b03163314610b555760405162461bcd60e51b815260206004820152601260248201527f4f6e6c7942616e6b3a206f6e6c7942616e6b000000000000000000000000000060448201526064016104fa565b61083282826112ca565b6005546001600160a01b03163314610bb95760405162461bcd60e51b815260206004820181905260248201527f4f776e61626c653a2063616c6c6572206973206e6f7420746865206f776e657260448201526064016104fa565b6001600160a01b038116610c355760405162461bcd60e51b815260206004820152602660248201527f4f776e61626c653a206e6577206f776e657220697320746865207a65726f206160448201527f646472657373000000000000000000000000000000000000000000000000000060648201526084016104fa565b610c3e816110ee565b50565b6005546001600160a01b03163314610c9b5760405162461bcd60e51b815260206004820181905260248201527f4f776e61626c653a2063616c6c6572206973206e6f7420746865206f776e657260448201526064016104fa565b6001600160a01b038116600081815260086020908152604091829020805460ff1916905590519182527f9772291de8bdcbb9cb9ef94b2f5672461d1cb65a3c26441f2e5235dd1bf938c49101610672565b6001600160a01b038316610d675760405162461bcd60e51b8152602060048201526024808201527f45524332303a20617070726f76652066726f6d20746865207a65726f2061646460448201527f726573730000000000000000000000000000000000000000000000000000000060648201526084016104fa565b6001600160a01b038216610de35760405162461bcd60e51b815260206004820152602260248201527f45524332303a20617070726f766520746f20746865207a65726f20616464726560448201527f737300000000000000000000000000000000000000000000000000000000000060648201526084016104fa565b6001600160a01b0383811660008181526001602090815260408083209487168084529482529182902085905590518481527f8c5be1e5ebec7d5bd14f71427d1e84f3dd0314c0f7b2291e5b200ac8c7c3b92591015b60405180910390a3505050565b6001600160a01b038381166000908152600160209081526040808320938616835292905220546000198114610ed15781811015610ec45760405162461bcd60e51b815260206004820152601d60248201527f45524332303a20696e73756666696369656e7420616c6c6f77616e636500000060448201526064016104fa565b610ed18484848403610cec565b50505050565b6001600160a01b038316610f535760405162461bcd60e51b815260206004820152602560248201527f45524332303a207472616e736665722066726f6d20746865207a65726f20616460448201527f647265737300000000000000000000000000000000000000000000000000000060648201526084016104fa565b6001600160a01b038216610fcf5760405162461bcd60e51b815260206004820152602360248201527f45524332303a207472616e7366657220746f20746865207a65726f206164647260448201527f657373000000000000000000000000000000000000000000000000000000000060648201526084016104fa565b6001600160a01b0383166000908152602081905260409020548181101561105e5760405162461bcd60e51b815260206004820152602660248201527f45524332303a207472616e7366657220616d6f756e742065786365656473206260448201527f616c616e6365000000000000000000000000000000000000000000000000000060648201526084016104fa565b6001600160a01b038085166000908152602081905260408082208585039055918516815290812080548492906110959084906114cf565b92505081905550826001600160a01b0316846001600160a01b03167fddf252ad1be2c89b69c2b068fc378daa952ba7f163c4a11628f55a4df523b3ef846040516110e191815260200190565b60405180910390a3610ed1565b600580546001600160a01b0383811673ffffffffffffffffffffffffffffffffffffffff19831681179093556040519116919082907f8be0079c531659141344cd1fd0a4f28419497f9722a3daafe3b4186f6b6457e090600090a35050565b6001600160a01b0382166111c95760405162461bcd60e51b815260206004820152602160248201527f45524332303a206275726e2066726f6d20746865207a65726f2061646472657360448201527f730000000000000000000000000000000000000000000000000000000000000060648201526084016104fa565b6001600160a01b038216600090815260208190526040902054818110156112585760405162461bcd60e51b815260206004820152602260248201527f45524332303a206275726e20616d6f756e7420657863656564732062616c616e60448201527f636500000000000000000000000000000000000000000000000000000000000060648201526084016104fa565b6001600160a01b03831660009081526020819052604081208383039055600280548492906112879084906114e7565b90915550506040518281526000906001600160a01b038516907fddf252ad1be2c89b69c2b068fc378daa952ba7f163c4a11628f55a4df523b3ef90602001610e38565b6001600160a01b0382166113205760405162461bcd60e51b815260206004820152601f60248201527f45524332303a206d696e7420746f20746865207a65726f20616464726573730060448201526064016104fa565b806002600082825461133291906114cf565b90915550506001600160a01b0382166000908152602081905260408120805483929061135f9084906114cf565b90915550506040518181526001600160a01b038316906000907fddf252ad1be2c89b69c2b068fc378daa952ba7f163c4a11628f55a4df523b3ef9060200160405180910390a35050565b80356001600160a01b03811681146113c057600080fd5b919050565b6000602082840312156113d6578081fd5b6113df826113a9565b9392505050565b600080604083850312156113f8578081fd5b611401836113a9565b915061140f602084016113a9565b90509250929050565b60008060006060848603121561142c578081fd5b611435846113a9565b9250611443602085016113a9565b9150604084013590509250925092565b60008060408385031215611465578182fd5b61146e836113a9565b946020939093013593505050565b6000602080835283518082850152825b818110156114a85785810183015185820160400152820161148c565b818111156114b95783604083870101525b50601f01601f1916929092016040019392505050565b600082198211156114e2576114e2611539565b500190565b6000828210156114f9576114f9611539565b500390565b600181811c9082168061151257607f821691505b6020821081141561153357634e487b7160e01b600052602260045260246000fd5b50919050565b634e487b7160e01b600052601160045260246000fdfea2646970667358221220d515724ea8902baef3b3923dfbc68de2be6064ee1320db7445056913cd075a6d64736f6c63430008040033",
  "linkReferences": {},
  "deployedLinkReferences": {}
}