{
  "_format": "hh-sol-artifact-1",
  "contractName": "SCAMPBank",
  "sourceName": "contracts/bank/Pools/SCAMPBank.sol",
  "abi": [
    {
      "inputs": [
        {
          "internalType": "address",
          "name": "_SCAMP_contract_address",
          "type": "address"
        },
        {
          "internalType": "address",
          "name": "_CAMP_contract_address",
          "type": "address"
        },
        {
          "internalType": "address",
          "name": "_collateral_address",
          "type": "address"
        },
        {
          "internalType": "address",
          "name": "_creator_address",
          "type": "address"
        }
      ],
      "stateMutability": "nonpayable",
      "type": "constructor"
    },
    {
      "anonymous": false,
      "inputs": [
        {
          "indexed": false,
          "internalType": "bool",
          "name": "toggled",
          "type": "bool"
        }
      ],
      "name": "MintingToggled",
      "type": "event"
    },
    {
      "anonymous": false,
      "inputs": [
        {
          "indexed": false,
          "internalType": "address",
          "name": "oldOwner",
          "type": "address"
        },
        {
          "indexed": false,
          "internalType": "address",
          "name": "newOwner",
          "type": "address"
        }
      ],
      "name": "OwnerChanged",
      "type": "event"
    },
    {
      "anonymous": false,
      "inputs": [
        {
          "indexed": false,
          "internalType": "address",
          "name": "newOwner",
          "type": "address"
        }
      ],
      "name": "OwnerNominated",
      "type": "event"
    },
    {
      "anonymous": false,
      "inputs": [
        {
          "indexed": false,
          "internalType": "uint256",
          "name": "new_ceiling",
          "type": "uint256"
        },
        {
          "indexed": false,
          "internalType": "uint256",
          "name": "new_bonus_rate",
          "type": "uint256"
        },
        {
          "indexed": false,
          "internalType": "uint256",
          "name": "new_redemption_delay",
          "type": "uint256"
        },
        {
          "indexed": false,
          "internalType": "uint256",
          "name": "new_mint_fee",
          "type": "uint256"
        },
        {
          "indexed": false,
          "internalType": "uint256",
          "name": "new_redeem_fee",
          "type": "uint256"
        },
        {
          "indexed": false,
          "internalType": "uint256",
          "name": "new_buyback_fee",
          "type": "uint256"
        },
        {
          "indexed": false,
          "internalType": "uint256",
          "name": "new_recollat_fee",
          "type": "uint256"
        }
      ],
      "name": "PoolParametersSet",
      "type": "event"
    },
    {
      "anonymous": false,
      "inputs": [
        {
          "indexed": false,
          "internalType": "bool",
          "name": "toggled",
          "type": "bool"
        }
      ],
      "name": "RedeemingToggled",
      "type": "event"
    },
    {
      "inputs": [],
      "name": "acceptOwnership",
      "outputs": [],
      "stateMutability": "nonpayable",
      "type": "function"
    },
    {
      "inputs": [],
      "name": "availableExcessCollatDV",
      "outputs": [
        {
          "internalType": "uint256",
          "name": "",
          "type": "uint256"
        }
      ],
      "stateMutability": "view",
      "type": "function"
    },
    {
      "inputs": [],
      "name": "bonus_rate",
      "outputs": [
        {
          "internalType": "uint256",
          "name": "",
          "type": "uint256"
        }
      ],
      "stateMutability": "view",
      "type": "function"
    },
    {
      "inputs": [
        {
          "internalType": "uint256",
          "name": "CAMP_amount",
          "type": "uint256"
        },
        {
          "internalType": "uint256",
          "name": "COLLATERAL_out_min",
          "type": "uint256"
        }
      ],
      "name": "buyBackCAMP",
      "outputs": [],
      "stateMutability": "nonpayable",
      "type": "function"
    },
    {
      "inputs": [],
      "name": "buyback_fee",
      "outputs": [
        {
          "internalType": "uint256",
          "name": "",
          "type": "uint256"
        }
      ],
      "stateMutability": "view",
      "type": "function"
    },
    {
      "inputs": [],
      "name": "collatDollarBalance",
      "outputs": [
        {
          "internalType": "uint256",
          "name": "",
          "type": "uint256"
        }
      ],
      "stateMutability": "view",
      "type": "function"
    },
    {
      "inputs": [],
      "name": "collectRedemption",
      "outputs": [],
      "stateMutability": "nonpayable",
      "type": "function"
    },
    {
      "inputs": [],
      "name": "getCollateralPrice",
      "outputs": [
        {
          "internalType": "uint256",
          "name": "",
          "type": "uint256"
        }
      ],
      "stateMutability": "pure",
      "type": "function"
    },
    {
      "inputs": [
        {
          "internalType": "address",
          "name": "",
          "type": "address"
        }
      ],
      "name": "lastRedeemed",
      "outputs": [
        {
          "internalType": "uint256",
          "name": "",
          "type": "uint256"
        }
      ],
      "stateMutability": "view",
      "type": "function"
    },
    {
      "inputs": [
        {
          "internalType": "uint256",
          "name": "collateral_amount",
          "type": "uint256"
        },
        {
          "internalType": "uint256",
          "name": "SCAMP_out_min",
          "type": "uint256"
        }
      ],
      "name": "mint1t1SCAMP",
      "outputs": [],
      "stateMutability": "nonpayable",
      "type": "function"
    },
    {
      "inputs": [
        {
          "internalType": "uint256",
          "name": "CAMP_amount_d18",
          "type": "uint256"
        },
        {
          "internalType": "uint256",
          "name": "SCAMP_out_min",
          "type": "uint256"
        }
      ],
      "name": "mintAlgorithmicSCAMP",
      "outputs": [],
      "stateMutability": "nonpayable",
      "type": "function"
    },
    {
      "inputs": [
        {
          "internalType": "uint256",
          "name": "collateral_amount",
          "type": "uint256"
        },
        {
          "internalType": "uint256",
          "name": "CAMP_amount",
          "type": "uint256"
        },
        {
          "internalType": "uint256",
          "name": "SCAMP_out_min",
          "type": "uint256"
        }
      ],
      "name": "mintFractionalSCAMP",
      "outputs": [],
      "stateMutability": "nonpayable",
      "type": "function"
    },
    {
      "inputs": [],
      "name": "mintPaused",
      "outputs": [
        {
          "internalType": "bool",
          "name": "",
          "type": "bool"
        }
      ],
      "stateMutability": "view",
      "type": "function"
    },
    {
      "inputs": [],
      "name": "minting_fee",
      "outputs": [
        {
          "internalType": "uint256",
          "name": "",
          "type": "uint256"
        }
      ],
      "stateMutability": "view",
      "type": "function"
    },
    {
      "inputs": [
        {
          "internalType": "address",
          "name": "_owner",
          "type": "address"
        }
      ],
      "name": "nominateNewOwner",
      "outputs": [],
      "stateMutability": "nonpayable",
      "type": "function"
    },
    {
      "inputs": [],
      "name": "nominatedOwner",
      "outputs": [
        {
          "internalType": "address",
          "name": "",
          "type": "address"
        }
      ],
      "stateMutability": "view",
      "type": "function"
    },
    {
      "inputs": [],
      "name": "owner",
      "outputs": [
        {
          "internalType": "address",
          "name": "",
          "type": "address"
        }
      ],
      "stateMutability": "view",
      "type": "function"
    },
    {
      "inputs": [],
      "name": "pausedPrice",
      "outputs": [
        {
          "internalType": "uint256",
          "name": "",
          "type": "uint256"
        }
      ],
      "stateMutability": "view",
      "type": "function"
    },
    {
      "inputs": [],
      "name": "pool_ceiling",
      "outputs": [
        {
          "internalType": "uint256",
          "name": "",
          "type": "uint256"
        }
      ],
      "stateMutability": "view",
      "type": "function"
    },
    {
      "inputs": [],
      "name": "recollat_fee",
      "outputs": [
        {
          "internalType": "uint256",
          "name": "",
          "type": "uint256"
        }
      ],
      "stateMutability": "view",
      "type": "function"
    },
    {
      "inputs": [
        {
          "internalType": "uint256",
          "name": "collateral_amount",
          "type": "uint256"
        },
        {
          "internalType": "uint256",
          "name": "CAMP_out_min",
          "type": "uint256"
        }
      ],
      "name": "recollateralizeSCAMP",
      "outputs": [],
      "stateMutability": "nonpayable",
      "type": "function"
    },
    {
      "inputs": [
        {
          "internalType": "uint256",
          "name": "SCAMP_amount",
          "type": "uint256"
        },
        {
          "internalType": "uint256",
          "name": "COLLATERAL_out_min",
          "type": "uint256"
        }
      ],
      "name": "redeem1t1SCAMP",
      "outputs": [],
      "stateMutability": "nonpayable",
      "type": "function"
    },
    {
      "inputs": [
        {
          "internalType": "uint256",
          "name": "SCAMP_amount",
          "type": "uint256"
        },
        {
          "internalType": "uint256",
          "name": "CAMP_out_min",
          "type": "uint256"
        }
      ],
      "name": "redeemAlgorithmicSCAMP",
      "outputs": [],
      "stateMutability": "nonpayable",
      "type": "function"
    },
    {
      "inputs": [
        {
          "internalType": "address",
          "name": "",
          "type": "address"
        }
      ],
      "name": "redeemCAMPBalances",
      "outputs": [
        {
          "internalType": "uint256",
          "name": "",
          "type": "uint256"
        }
      ],
      "stateMutability": "view",
      "type": "function"
    },
    {
      "inputs": [
        {
          "internalType": "address",
          "name": "",
          "type": "address"
        }
      ],
      "name": "redeemCollateralBalances",
      "outputs": [
        {
          "internalType": "uint256",
          "name": "",
          "type": "uint256"
        }
      ],
      "stateMutability": "view",
      "type": "function"
    },
    {
      "inputs": [
        {
          "internalType": "uint256",
          "name": "SCAMP_amount",
          "type": "uint256"
        },
        {
          "internalType": "uint256",
          "name": "CAMP_out_min",
          "type": "uint256"
        },
        {
          "internalType": "uint256",
          "name": "COLLATERAL_out_min",
          "type": "uint256"
        }
      ],
      "name": "redeemFractionalSCAMP",
      "outputs": [],
      "stateMutability": "nonpayable",
      "type": "function"
    },
    {
      "inputs": [],
      "name": "redeemPaused",
      "outputs": [
        {
          "internalType": "bool",
          "name": "",
          "type": "bool"
        }
      ],
      "stateMutability": "view",
      "type": "function"
    },
    {
      "inputs": [],
      "name": "redemption_delay",
      "outputs": [
        {
          "internalType": "uint256",
          "name": "",
          "type": "uint256"
        }
      ],
      "stateMutability": "view",
      "type": "function"
    },
    {
      "inputs": [],
      "name": "redemption_fee",
      "outputs": [
        {
          "internalType": "uint256",
          "name": "",
          "type": "uint256"
        }
      ],
      "stateMutability": "view",
      "type": "function"
    },
    {
      "inputs": [
        {
          "internalType": "uint256",
          "name": "new_ceiling",
          "type": "uint256"
        },
        {
          "internalType": "uint256",
          "name": "new_bonus_rate",
          "type": "uint256"
        },
        {
          "internalType": "uint256",
          "name": "new_redemption_delay",
          "type": "uint256"
        },
        {
          "internalType": "uint256",
          "name": "new_mint_fee",
          "type": "uint256"
        },
        {
          "internalType": "uint256",
          "name": "new_redeem_fee",
          "type": "uint256"
        },
        {
          "internalType": "uint256",
          "name": "new_buyback_fee",
          "type": "uint256"
        },
        {
          "internalType": "uint256",
          "name": "new_recollat_fee",
          "type": "uint256"
        }
      ],
      "name": "setPoolParameters",
      "outputs": [],
      "stateMutability": "nonpayable",
      "type": "function"
    },
    {
      "inputs": [],
      "name": "toggleMinting",
      "outputs": [],
      "stateMutability": "nonpayable",
      "type": "function"
    },
    {
      "inputs": [],
      "name": "toggleRedeeming",
      "outputs": [],
      "stateMutability": "nonpayable",
      "type": "function"
    },
    {
      "inputs": [],
      "name": "unclaimedPoolCAMP",
      "outputs": [
        {
          "internalType": "uint256",
          "name": "",
          "type": "uint256"
        }
      ],
      "stateMutability": "view",
      "type": "function"
    },
    {
      "inputs": [],
      "name": "unclaimedPoolCollateral",
      "outputs": [
        {
          "internalType": "uint256",
          "name": "",
          "type": "uint256"
        }
      ],
      "stateMutability": "view",
      "type": "function"
    }
  ],
  "bytecode": "0x60a060405269d3c21bcecceda10000006011556000601255611d4c60135560016014556015805461ffff191690553480156200003a57600080fd5b50604051620038a6380380620038a6833981810160405260808110156200006057600080fd5b5080516020820151604083015160609093015191929091806001600160a01b038116620000ee57604080517f08c379a000000000000000000000000000000000000000000000000000000000815260206004820152601960248201527f4f776e657220616464726573732063616e6e6f74206265203000000000000000604482015290519081900360640190fd5b600080546001600160a01b0319166001600160a01b038316908117825560408051928352602083019190915280517fb532073b38c83145e3e5135377a08bf9aab55bc0fd7c1179cd4fb995d2a5159c9281900390910190a1506001600160a01b038416158015906200016857506001600160a01b03831615155b80156200017d57506001600160a01b03821615155b80156200019257506001600160a01b03811615155b620001fe57604080517f08c379a000000000000000000000000000000000000000000000000000000000815260206004820152601560248201527f5a65726f20616464726573732064657465637465640000000000000000000000604482015290519081900360640190fd5b600780546001600160a01b038087166001600160a01b0319928316811790935560068054878316908416811790915560048054841690941784556005805484169091179055600380548683169084168117909155600280549093161791829055604080517f313ce5670000000000000000000000000000000000000000000000000000000081529051620002fa94939092169263313ce567928282019260209290829003018186803b158015620002b457600080fd5b505afa158015620002c9573d6000803e3d6000fd5b505050506040513d6020811015620002e057600080fd5b505160129060ff1662000308602090811b6200299b17901c565b608052506200040e92505050565b60006200035283836040518060400160405280601e81526020017f536166654d6174683a207375627472616374696f6e206f766572666c6f7700008152506200035960201b60201c565b9392505050565b6000818484111562000406576040517f08c379a00000000000000000000000000000000000000000000000000000000081526004018080602001828103825283818151815260200191508051906020019080838360005b83811015620003ca578181015183820152602001620003b0565b50505050905090810190601f168015620003f85780820380516001836020036101000a031916815260200191505b509250505060405180910390fd5b505050900390565b60805161345a6200044c6000398061072352806108e45280610d7e52806113ba528061167c52806118cf5280611b3c5280612030525061345a6000f3fe608060405234801561001057600080fd5b50600436106102265760003560e01c80637d55094d1161012a578063b7988132116100bd578063daa504851161008c578063f61adab211610071578063f61adab2146104fc578063f7683bbc14610504578063fede5c9c1461050c57610226565b8063daa50485146104d1578063efed9b35146104d957610226565b8063b798813214610496578063c3355b8d146104b9578063c74ec56a146104c1578063cb73999f146104c957610226565b8063a4e0a274116100f9578063a4e0a2741461041f578063abae2c4c14610445578063b235d4681461046b578063b38ea2c81461047357610226565b80637d55094d146103eb5780637e4831d3146103f35780638da5cb5b1461040f5780639e643d561461041757610226565b80634c634934116101bd5780636e5450b61161018c57806379ba50971161017157806379ba5097146103b85780637b0461e9146103c05780637bb5103e146103c857610226565b80636e5450b61461036c578063742f39741461039557610226565b80634c634934146102f75780634ebbe762146102ff57806353a47bb7146103405780636526a12a1461036457610226565b80631627540c116101f95780631627540c1461027d57806317284c94146102a35780631cc07a95146102ab5780632dadfec9146102ce57610226565b806308a7493d1461022b578063101197c71461026357806312ace5a21461026b5780631512842514610275575b600080fd5b6102516004803603602081101561024157600080fd5b50356001600160a01b0316610514565b60408051918252519081900360200190f35b610251610526565b61027361052c565b005b61025161064e565b6102736004803603602081101561029357600080fd5b50356001600160a01b0316610654565b6102516106fe565b610273600480360360408110156102c157600080fd5b50803590602001356107ba565b610273600480360360608110156102e457600080fd5b5080359060208101359060400135610b75565b6102516110aa565b610273600480360360e081101561031557600080fd5b5080359060208101359060408101359060608101359060808101359060a08101359060c001356110b0565b610348611181565b604080516001600160a01b039092168252519081900360200190f35b610251611190565b6102736004803603606081101561038257600080fd5b5080359060208101359060400135611196565b610273600480360360408110156103ab57600080fd5b5080359060200135611667565b610273611a0c565b610251611ad5565b610273600480360360408110156103de57600080fd5b5080359060200135611adb565b610273611e2b565b6103fb611e8f565b604080519115158252519081900360200190f35b610348611e98565b610251611ea7565b6102516004803603602081101561043557600080fd5b50356001600160a01b0316611ead565b6102516004803603602081101561045b57600080fd5b50356001600160a01b0316611ebf565b6103fb611ed1565b6102736004803603604081101561048957600080fd5b5080359060200135611edf565b610273600480360360408110156104ac57600080fd5b5080359060200135612132565b610251612483565b610251612489565b61025161248f565b610273612495565b610273600480360360408110156104ef57600080fd5b5080359060200135612507565b61025161283b565b61025161298e565b610251612995565b600d6020526000908152604090205481565b600a5481565b60145433600090815260106020526040902054439161054b91906129e6565b11156105885760405162461bcd60e51b81526004018080602001828103825260428152602001806132946042913960600191505060405180910390fd5b336000908152600c6020526040812054819081908190156105cf57336000908152600c602052604081208054919055600f549092506105c7908361299b565b600f55600193505b336000908152600d60205260409020541561060e5750336000908152600d602052604081208054919055600e54610606908261299b565b600e55600192505b831561062b5760065461062b906001600160a01b03163384612a40565b821561064857600254610648906001600160a01b03163383612a40565b50505050565b60145481565b6000546001600160a01b0316331461069d5760405162461bcd60e51b815260040180806020018281038252602f81526020018061331c602f913960400191505060405180910390fd5b600180546001600160a01b03831673ffffffffffffffffffffffffffffffffffffffff19909116811790915560408051918252517f906a1c6bd7e3091ea86693dd029a831c19049ce77f1dce2ce0bab1cacbabce229181900360200190a150565b600e54600254604080516370a0823160e01b815230600482015290516000936107b4937f0000000000000000000000000000000000000000000000000000000000000000600a0a936107ae936001600160a01b03909216916370a0823191602480820192602092909190829003018186803b15801561077c57600080fd5b505afa158015610790573d6000803e3d6000fd5b505050506040513d60208110156107a657600080fd5b50519061299b565b90612bd8565b90505b90565b601554610100900460ff1615610817576040805162461bcd60e51b815260206004820152601360248201527f52656465656d696e672069732070617573656400000000000000000000000000604482015290519081900360640190fd5b6007546040805163119950ad60e11b81529051620f4240926001600160a01b031691632332a15a916004808301926020929190829003018186803b15801561085e57600080fd5b505afa158015610872573d6000803e3d6000fd5b505050506040513d602081101561088857600080fd5b5051146108dc576040805162461bcd60e51b815260206004820152601d60248201527f436f6c6c61746572616c20726174696f206d757374206265203d3d2031000000604482015290519081900360640190fd5b600061090b837f0000000000000000000000000000000000000000000000000000000000000000600a0a612c31565b9050600073__$c62d9d844820a7ef31bfe5c244420fd885$__6335fdfbd461093161298e565b846040518363ffffffff1660e01b8152600401808381526020018281526020019250505060206040518083038186803b15801561096d57600080fd5b505af4158015610981573d6000803e3d6000fd5b505050506040513d602081101561099757600080fd5b50516009549091506109c490620f4240906109be906109b790839061299b565b8490612bd8565b90612c31565b600e54600254604080516370a0823160e01b81523060048201529051939450610a19936001600160a01b03909216916370a0823191602480820192602092909190829003018186803b15801561077c57600080fd5b811115610a6d576040805162461bcd60e51b815260206004820152601d60248201527f4e6f7420656e6f75676820636f6c6c61746572616c20696e20706f6f6c000000604482015290519081900360640190fd5b80831115610abb576040805162461bcd60e51b815260206004820152601660248201527514db1a5c1c1859d9481b1a5b5a5d081c995858da195960521b604482015290519081900360640190fd5b336000908152600d6020526040902054610ad590826129e6565b336000908152600d6020526040902055600e54610af290826129e6565b600e5533600081815260106020526040808220439055600754815163dbf6b9b560e01b815260048101949094526024840188905290516001600160a01b039091169263dbf6b9b592604480830193919282900301818387803b158015610b5757600080fd5b505af1158015610b6b573d6000803e3d6000fd5b5050505050505050565b601554610100900460ff1615610bd2576040805162461bcd60e51b815260206004820152601360248201527f52656465656d696e672069732070617573656400000000000000000000000000604482015290519081900360640190fd5b6007546040805163492bcb3360e01b815290516000926001600160a01b03169163492bcb33916004808301926020929190829003018186803b158015610c1757600080fd5b505afa158015610c2b573d6000803e3d6000fd5b505050506040513d6020811015610c4157600080fd5b50516007546040805163119950ad60e11b815290519293506000926001600160a01b0390921691632332a15a91600480820192602092909190829003018186803b158015610c8e57600080fd5b505afa158015610ca2573d6000803e3d6000fd5b505050506040513d6020811015610cb857600080fd5b50519050620f424081108015610cce5750600081115b610d095760405162461bcd60e51b81526004018080602001828103825260388152602001806132396038913960400191505060405180910390fd5b6000610d1361298e565b90506000610d40620f42406109be610d39600954620f424061299b90919063ffffffff16565b8a90612bd8565b90506000610d5f610d58620f42406109be8588612bd8565b839061299b565b90506000610d74866109be84620f4240612bd8565b90506000610da5847f0000000000000000000000000000000000000000000000000000000000000000600a0a612c31565b90506000610dba620f42406109be848a612bd8565b90506000610dcf876109be84620f4240612bd8565b600e54600254604080516370a0823160e01b81523060048201529051939450610e24936001600160a01b03909216916370a0823191602480820192602092909190829003018186803b15801561077c57600080fd5b811115610e78576040805162461bcd60e51b815260206004820152601d60248201527f4e6f7420656e6f75676820636f6c6c61746572616c20696e20706f6f6c000000604482015290519081900360640190fd5b808a1115610eb75760405162461bcd60e51b81526004018080602001828103825260238152602001806132716023913960400191505060405180910390fd5b838b1115610f0c576040805162461bcd60e51b815260206004820152601d60248201527f536c697070616765206c696d69742072656163686564205b43414d505d000000604482015290519081900360640190fd5b336000908152600d6020526040902054610f2690826129e6565b336000908152600d6020526040902055600e54610f4390826129e6565b600e55336000908152600c6020526040902054610f6090856129e6565b336000908152600c6020526040902055600f54610f7d90856129e6565b600f819055504360106000336001600160a01b03166001600160a01b0316815260200190815260200160002081905550600760009054906101000a90046001600160a01b03166001600160a01b031663dbf6b9b5338e6040518363ffffffff1660e01b815260040180836001600160a01b0316815260200182815260200192505050600060405180830381600087803b15801561101957600080fd5b505af115801561102d573d6000803e3d6000fd5b50506006546040805163dbe263a560e01b81523060048201526024810189905290516001600160a01b03909216935063dbe263a5925060448082019260009290919082900301818387803b15801561108457600080fd5b505af1158015611098573d6000803e3d6000fd5b50505050505050505050505050505050565b60135481565b6000546001600160a01b031633146110f95760405162461bcd60e51b815260040180806020018281038252602f81526020018061331c602f913960400191505060405180910390fd5b60118790556013869055601485905560088490556009839055600a829055600b8190556040805188815260208101889052808201879052606081018690526080810185905260a0810184905260c0810183905290517f17fe98b66d27bd793ea01bd8a23a54acab8eeb167d9eb016a0c7cd71c573920c9181900360e00190a150505050505050565b6001546001600160a01b031681565b60115481565b60155460ff16156111e2576040805162461bcd60e51b8152602060048201526011602482015270135a5b9d1a5b99c81a5cc81c185d5cd959607a1b604482015290519081900360640190fd5b6007546040805163492bcb3360e01b815290516000926001600160a01b03169163492bcb33916004808301926020929190829003018186803b15801561122757600080fd5b505afa15801561123b573d6000803e3d6000fd5b505050506040513d602081101561125157600080fd5b50516007546040805163119950ad60e11b815290519293506000926001600160a01b0390921691632332a15a91600480820192602092909190829003018186803b15801561129e57600080fd5b505afa1580156112b2573d6000803e3d6000fd5b505050506040513d60208110156112c857600080fd5b50519050620f4240811080156112de5750600081115b6113195760405162461bcd60e51b81526004018080602001828103825260388152602001806132396038913960400191505060405180910390fd5b601154600e54600254604080516370a0823160e01b8152306004820152905161137b938a936113759391926001600160a01b03909116916370a08231916024808301926020929190829003018186803b15801561077c57600080fd5b906129e6565b11156113b85760405162461bcd60e51b815260040180806020018281038252604681526020018061336c6046913960600191505060405180910390fd5b7f0000000000000000000000000000000000000000000000000000000000000000600a0a85026113e6613150565b6040518060a00160405280600760009054906101000a90046001600160a01b03166001600160a01b031663492bcb336040518163ffffffff1660e01b815260040160206040518083038186803b15801561143f57600080fd5b505afa158015611453573d6000803e3d6000fd5b505050506040513d602081101561146957600080fd5b5051815260200161147861298e565b815260200187815260200183815260200184815250905060008061149b83612c73565b915091506114c8620f42406109be6114c1600854620f424061299b90919063ffffffff16565b8590612bd8565b915081871115611518576040805162461bcd60e51b815260206004820152601660248201527514db1a5c1c1859d9481b1a5b5a5d081c995858da195960521b604482015290519081900360640190fd5b8781111561156d576040805162461bcd60e51b815260206004820152601860248201527f4e6f7420656e6f7567682043414d5020696e7075747465640000000000000000604482015290519081900360640190fd5b6006546040805163dbf6b9b560e01b81523360048201526024810184905290516001600160a01b039092169163dbf6b9b59160448082019260009290919082900301818387803b1580156115c057600080fd5b505af11580156115d4573d6000803e3d6000fd5b50506002546115f192506001600160a01b0316905033308c612d22565b6007546040805163dbe263a560e01b81523360048201526024810185905290516001600160a01b039092169163dbe263a59160448082019260009290919082900301818387803b15801561164457600080fd5b505af1158015611658573d6000803e3d6000fd5b50505050505050505050505050565b6007546040805163492bcb3360e01b815290517f0000000000000000000000000000000000000000000000000000000000000000600a0a8502926000926001600160a01b039091169163492bcb3391600480820192602092909190829003018186803b1580156116d657600080fd5b505afa1580156116ea573d6000803e3d6000fd5b505050506040513d602081101561170057600080fd5b5051600754604080517f18160ddd00000000000000000000000000000000000000000000000000000000815290519293506000926001600160a01b03909216916318160ddd91600480820192602092909190829003018186803b15801561176657600080fd5b505afa15801561177a573d6000803e3d6000fd5b505050506040513d602081101561179057600080fd5b50516007546040805163119950ad60e11b815290519293506000926001600160a01b0390921691632332a15a91600480820192602092909190829003018186803b1580156117dd57600080fd5b505afa1580156117f1573d6000803e3d6000fd5b505050506040513d602081101561180757600080fd5b5051905060006118156106fe565b905060008073__$c62d9d844820a7ef31bfe5c244420fd885$__633d09934e8861183d61298e565b8689896040518663ffffffff1660e01b81526004018086815260200185815260200184815260200183815260200182815260200195505050505050604080518083038186803b15801561188f57600080fd5b505af41580156118a3573d6000803e3d6000fd5b505050506040513d60408110156118b957600080fd5b508051602090910151909250905060006118f6837f0000000000000000000000000000000000000000000000000000000000000000600a0a612c31565b9050600061192c886109be611925600b5461191f601354620f42406129e690919063ffffffff16565b9061299b565b8690612bd8565b9050808a111561197c576040805162461bcd60e51b815260206004820152601660248201527514db1a5c1c1859d9481b1a5b5a5d081c995858da195960521b604482015290519081900360640190fd5b600254611994906001600160a01b0316333085612d22565b6006546040805163dbe263a560e01b81523360048201526024810184905290516001600160a01b039092169163dbe263a59160448082019260009290919082900301818387803b1580156119e757600080fd5b505af11580156119fb573d6000803e3d6000fd5b505050505050505050505050505050565b6001546001600160a01b03163314611a555760405162461bcd60e51b81526004018080602001828103825260358152602001806131d46035913960400191505060405180910390fd5b600054600154604080516001600160a01b03938416815292909116602083015280517fb532073b38c83145e3e5135377a08bf9aab55bc0fd7c1179cd4fb995d2a5159c9281900390910190a1600180546000805473ffffffffffffffffffffffffffffffffffffffff199081166001600160a01b03841617909155169055565b600e5481565b60155460ff1615611b27576040805162461bcd60e51b8152602060048201526011602482015270135a5b9d1a5b99c81a5cc81c185d5cd959607a1b604482015290519081900360640190fd5b6007546040805163119950ad60e11b815290517f0000000000000000000000000000000000000000000000000000000000000000600a0a850292620f4240926001600160a01b0390911691632332a15a91600480820192602092909190829003018186803b158015611b9857600080fd5b505afa158015611bac573d6000803e3d6000fd5b505050506040513d6020811015611bc257600080fd5b50511015611c17576040805162461bcd60e51b815260206004820152601d60248201527f436f6c6c61746572616c20726174696f206d757374206265203e3d2031000000604482015290519081900360640190fd5b601154600e54600254604080516370a0823160e01b81523060048201529051611c739388936113759391926001600160a01b03909116916370a08231916024808301926020929190829003018186803b15801561077c57600080fd5b1115611cc6576040805162461bcd60e51b815260206004820181905260248201527f5b506f6f6c277320436c6f7365645d3a204365696c696e672072656163686564604482015290519081900360640190fd5b600073__$c62d9d844820a7ef31bfe5c244420fd885$__634f12ac5a611cea61298e565b846040518363ffffffff1660e01b8152600401808381526020018281526020019250505060206040518083038186803b158015611d2657600080fd5b505af4158015611d3a573d6000803e3d6000fd5b505050506040513d6020811015611d5057600080fd5b5051600854909150611d7090620f4240906109be906109b790839061299b565b905080831115611dc0576040805162461bcd60e51b815260206004820152601660248201527514db1a5c1c1859d9481b1a5b5a5d081c995858da195960521b604482015290519081900360640190fd5b600254611dd8906001600160a01b0316333087612d22565b6007546040805163dbe263a560e01b81523360048201526024810184905290516001600160a01b039092169163dbe263a59160448082019260009290919082900301818387803b158015610b5757600080fd5b6000546001600160a01b03163314611e4257600080fd5b6015805460ff19811660ff918216151791829055604080519290911615158252517f6bdfe227d5db299c59aa56d5f846f40dbd73b271aaa78e18ed74fc3e00b8aa6b9181900360200190a1565b60155460ff1681565b6000546001600160a01b031681565b600f5481565b600c6020526000908152604090205481565b60106020526000908152604090205481565b601554610100900460ff1681565b6007546040805163492bcb3360e01b815290516000926001600160a01b03169163492bcb33916004808301926020929190829003018186803b158015611f2457600080fd5b505afa158015611f38573d6000803e3d6000fd5b505050506040513d6020811015611f4e57600080fd5b50519050611f5a61317f565b6040518060800160405280611f6d61283b565b81526007546040805163492bcb3360e01b815290516020938401936001600160a01b039093169263492bcb339260048082019391829003018186803b158015611fb557600080fd5b505afa158015611fc9573d6000803e3d6000fd5b505050506040513d6020811015611fdf57600080fd5b50518152602001611fee61298e565b81526020018581525090506000612026620f42406109be61201d600a54620f424061299b90919063ffffffff16565b6107ae86612ea5565b90506000612057827f0000000000000000000000000000000000000000000000000000000000000000600a0a612c31565b9050808511156120a7576040805162461bcd60e51b815260206004820152601660248201527514db1a5c1c1859d9481b1a5b5a5d081c995858da195960521b604482015290519081900360640190fd5b6006546040805163dbf6b9b560e01b81523360048201526024810189905290516001600160a01b039092169163dbf6b9b59160448082019260009290919082900301818387803b1580156120fa57600080fd5b505af115801561210e573d6000803e3d6000fd5b505060025461212a92506001600160a01b031690503383612a40565b505050505050565b601554610100900460ff161561218f576040805162461bcd60e51b815260206004820152601360248201527f52656465656d696e672069732070617573656400000000000000000000000000604482015290519081900360640190fd5b6007546040805163492bcb3360e01b815290516000926001600160a01b03169163492bcb33916004808301926020929190829003018186803b1580156121d457600080fd5b505afa1580156121e8573d6000803e3d6000fd5b505050506040513d60208110156121fe57600080fd5b50516007546040805163119950ad60e11b815290519293506000926001600160a01b0390921691632332a15a91600480820192602092909190829003018186803b15801561224b57600080fd5b505afa15801561225f573d6000803e3d6000fd5b505050506040513d602081101561227557600080fd5b5051905080156122cc576040805162461bcd60e51b815260206004820152601a60248201527f436f6c6c61746572616c20726174696f206d7573742062652030000000000000604482015290519081900360640190fd5b60008490506122f3620f42406109be6109b7600954620f424061299b90919063ffffffff16565b90506000612308846109be84620f4240612bd8565b336000908152600c602052604090205490915061232590826129e6565b336000908152600c6020526040902055600f5461234290826129e6565b600f55336000908152601060205260409020439055808511156123a5576040805162461bcd60e51b815260206004820152601660248201527514db1a5c1c1859d9481b1a5b5a5d081c995858da195960521b604482015290519081900360640190fd5b6007546040805163dbf6b9b560e01b81523360048201526024810189905290516001600160a01b039092169163dbf6b9b59160448082019260009290919082900301818387803b1580156123f857600080fd5b505af115801561240c573d6000803e3d6000fd5b50506006546040805163dbe263a560e01b81523060048201526024810186905290516001600160a01b03909216935063dbe263a5925060448082019260009290919082900301818387803b15801561246357600080fd5b505af1158015612477573d6000803e3d6000fd5b50505050505050505050565b60085481565b60125481565b60095481565b6000546001600160a01b031633146124ac57600080fd5b6015805460ff610100808304821615810261ff001990931692909217928390556040805192909304161515815290517f5860c5063a65e23cea4e2e2925f1a841bb6d1bc9615bd425f8dd084980b051419181900360200190a1565b60155460ff1615612553576040805162461bcd60e51b8152602060048201526011602482015270135a5b9d1a5b99c81a5cc81c185d5cd959607a1b604482015290519081900360640190fd5b6007546040805163492bcb3360e01b815290516000926001600160a01b03169163492bcb33916004808301926020929190829003018186803b15801561259857600080fd5b505afa1580156125ac573d6000803e3d6000fd5b505050506040513d60208110156125c257600080fd5b50516007546040805163119950ad60e11b815290519293506001600160a01b0390911691632332a15a91600480820192602092909190829003018186803b15801561260c57600080fd5b505afa158015612620573d6000803e3d6000fd5b505050506040513d602081101561263657600080fd5b50511561268a576040805162461bcd60e51b815260206004820152601a60248201527f436f6c6c61746572616c20726174696f206d7573742062652030000000000000604482015290519081900360640190fd5b600073__$c62d9d844820a7ef31bfe5c244420fd885$__63942adf5083866040518363ffffffff1660e01b8152600401808381526020018281526020019250505060206040518083038186803b1580156126e357600080fd5b505af41580156126f7573d6000803e3d6000fd5b505050506040513d602081101561270d57600080fd5b505160085490915061272d90620f4240906109be906109b790839061299b565b90508083111561277d576040805162461bcd60e51b815260206004820152601660248201527514db1a5c1c1859d9481b1a5b5a5d081c995858da195960521b604482015290519081900360640190fd5b6006546040805163dbf6b9b560e01b81523360048201526024810187905290516001600160a01b039092169163dbf6b9b59160448082019260009290919082900301818387803b1580156127d057600080fd5b505af11580156127e4573d6000803e3d6000fd5b50506007546040805163dbe263a560e01b81523360048201526024810186905290516001600160a01b03909216935063dbe263a5925060448082019260009290919082900301818387803b158015610b5757600080fd5b600080600760009054906101000a90046001600160a01b03166001600160a01b03166318160ddd6040518163ffffffff1660e01b815260040160206040518083038186803b15801561288c57600080fd5b505afa1580156128a0573d6000803e3d6000fd5b505050506040513d60208110156128b657600080fd5b50516007546040805163119950ad60e11b815290519293506000926001600160a01b0390921691632332a15a91600480820192602092909190829003018186803b15801561290357600080fd5b505afa158015612917573d6000803e3d6000fd5b505050506040513d602081101561292d57600080fd5b50519050600061293b6106fe565b9050620f424082111561294f57620f424091505b6000612962620f42406109be8686612bd8565b90508082111561298157612976828261299b565b9450505050506107b7565b60009450505050506107b7565b620f424090565b600b5481565b60006129dd83836040518060400160405280601e81526020017f536166654d6174683a207375627472616374696f6e206f766572666c6f770000815250612f6d565b90505b92915050565b6000828201838110156129dd576040805162461bcd60e51b815260206004820152601b60248201527f536166654d6174683a206164646974696f6e206f766572666c6f770000000000604482015290519081900360640190fd5b604080516001600160a01b038481166024830152604480830185905283518084039091018152606490920183526020820180517bffffffffffffffffffffffffffffffffffffffffffffffffffffffff167fa9059cbb00000000000000000000000000000000000000000000000000000000178152925182516000946060949389169392918291908083835b60208310612aeb5780518252601f199092019160209182019101612acc565b6001836020036101000a0380198251168184511680821785525050505050509050019150506000604051808303816000865af19150503d8060008114612b4d576040519150601f19603f3d011682016040523d82523d6000602084013e612b52565b606091505b5091509150818015612b80575080511580612b805750808060200190516020811015612b7d57600080fd5b50515b612bd1576040805162461bcd60e51b815260206004820152601f60248201527f5472616e7366657248656c7065723a205452414e534645525f4641494c454400604482015290519081900360640190fd5b5050505050565b600082612be7575060006129e0565b82820282848281612bf457fe5b04146129dd5760405162461bcd60e51b815260040180806020018281038252602181526020018061334b6021913960400191505060405180910390fd5b60006129dd83836040518060400160405280601a81526020017f536166654d6174683a206469766973696f6e206279207a65726f000000000000815250613004565b600080600080612ca1620f4240612c9b8760000151886040015161306990919063ffffffff16565b906130c2565b9150612cc5620f4240612c9b8760200151886060015161306990919063ffffffff16565b90506000612cf182612ceb8860800151612c9b620f42408761306990919063ffffffff16565b906130e7565b8651909150600090612d0a90612c9b84620f4240613069565b9050612d16838361310c565b95509350505050915091565b604080516001600160a01b0385811660248301528481166044830152606480830185905283518084039091018152608490920183526020820180517bffffffffffffffffffffffffffffffffffffffffffffffffffffffff167f23b872dd0000000000000000000000000000000000000000000000000000000017815292518251600094606094938a169392918291908083835b60208310612dd55780518252601f199092019160209182019101612db6565b6001836020036101000a0380198251168184511680821785525050505050509050019150506000604051808303816000865af19150503d8060008114612e37576040519150601f19603f3d011682016040523d82523d6000602084013e612e3c565b606091505b5091509150818015612e6a575080511580612e6a5750808060200190516020811015612e6757600080fd5b50515b61212a5760405162461bcd60e51b81526004018080602001828103825260248152602001806133db6024913960400191505060405180910390fd5b8051600090612ee55760405162461bcd60e51b81526004018080602001828103825260218152602001806132d66021913960400191505060405180910390fd5b6000612f09620f4240612c9b8560200151866060015161306990919063ffffffff16565b8351909150811115612f4c5760405162461bcd60e51b81526004018080602001828103825260308152602001806132096030913960400191505060405180910390fd5b6040830151600090612f6590612c9b84620f4240613069565b949350505050565b60008184841115612ffc5760405162461bcd60e51b81526004018080602001828103825283818151815260200191508051906020019080838360005b83811015612fc1578181015183820152602001612fa9565b50505050905090810190601f168015612fee5780820380516001836020036101000a031916815260200191505b509250505060405180910390fd5b505050900390565b600081836130535760405162461bcd60e51b8152602060048201818152835160248401528351909283926044909101919085019080838360008315612fc1578181015183820152602001612fa9565b50600083858161305f57fe5b0495945050505050565b600082613078575060006129e0565b8282028284828161308557fe5b04146129dd5760405162461bcd60e51b815260040180806020018281038252602c8152602001806131a8602c913960400191505060405180910390fd5b60006129dd83836040518060600160405280602581526020016132f760259139613004565b60006129dd83836040518060600160405280602981526020016133b260299139612f6d565b6000828201838110156129dd5760405162461bcd60e51b81526004018080602001828103825260268152602001806133ff6026913960400191505060405180910390fd5b6040518060a0016040528060008152602001600081526020016000815260200160008152602001600081525090565b604051806080016040528060008152602001600081526020016000815260200160008152509056fe536166654d61746855706772616465536166653a206d756c7469706c69636174696f6e206f766572666c6f77596f75206d757374206265206e6f6d696e61746564206265666f726520796f752063616e20616363657074206f776e657273686970596f752061726520747279696e6720746f20627579206261636b206d6f7265207468616e207468652065786365737321436f6c6c61746572616c20726174696f206e6565647320746f206265206265747765656e202e30303030303120616e64202e393939393939536c697070616765206c696d69742072656163686564205b636f6c6c61746572616c5d4d757374207761697420666f7220726564656d7074696f6e5f64656c617920626c6f636b73206265666f726520636f6c6c656374696e6720726564656d7074696f6e4e6f2065786365737320636f6c6c61746572616c20746f20627579206261636b21536166654d61746855706772616465536166653a206469766973696f6e206279207a65726f4f6e6c792074686520636f6e7472616374206f776e6572206d617920706572666f726d207468697320616374696f6e536166654d6174683a206d756c7469706c69636174696f6e206f766572666c6f77506f6f6c206365696c696e6720726561636865642c206e6f206d6f7265205343414d502063616e206265206d696e7465642077697468207468697320636f6c6c61746572616c536166654d61746855706772616465536166653a207375627472616374696f6e206f766572666c6f775472616e7366657248656c7065723a205452414e534645525f46524f4d5f4641494c4544536166654d61746855706772616465536166653a206164646974696f6e206f766572666c6f77a2646970667358221220547baa5ceb0aa82c1cd6c0f64a14fb6f3bb8873467c8fb342e49591150325c4364736f6c63430007050033",
  "linkReferences": {
    "contracts/bank/Pools/SCAMPPoolLibrary.sol": {
      "SCAMPPoolLibrary": [
        {
          "length": 20,
          "start": 3421
        },
        {
          "length": 20,
          "start": 7272
        },
        {
          "length": 20,
          "start": 8470
        },
        {
          "length": 20,
          "start": 10970
        }
      ]
    }
  },
  "deployedLinkReferences": {
    "contracts/bank/Pools/SCAMPPoolLibrary.sol": {
      "SCAMPPoolLibrary": [
        {
          "length": 20,
          "start": 2321
        },
        {
          "length": 20,
          "start": 6172
        },
        {
          "length": 20,
          "start": 7370
        },
        {
          "length": 20,
          "start": 9870
        }
      ]
    }
  }
}