{
  "_format": "hh-sol-artifact-1",
  "contractName": "We_Made_Future",
  "sourceName": "contracts/bank/We_Made_Future.sol",
  "abi": [
    {
      "inputs": [
        {
          "internalType": "string",
          "name": "_name",
          "type": "string"
        },
        {
          "internalType": "string",
          "name": "_symbol",
          "type": "string"
        },
        {
          "internalType": "address",
          "name": "_oracle_address",
          "type": "address"
        },
        {
          "internalType": "address",
          "name": "_creator_address",
          "type": "address"
        }
      ],
      "stateMutability": "nonpayable",
      "type": "constructor"
    },
    {
      "anonymous": false,
      "inputs": [
        {
          "indexed": true,
          "internalType": "address",
          "name": "owner",
          "type": "address"
        },
        {
          "indexed": true,
          "internalType": "address",
          "name": "spender",
          "type": "address"
        },
        {
          "indexed": false,
          "internalType": "uint256",
          "name": "value",
          "type": "uint256"
        }
      ],
      "name": "Approval",
      "type": "event"
    },
    {
      "anonymous": false,
      "inputs": [
        {
          "indexed": false,
          "internalType": "address",
          "name": "oldOwner",
          "type": "address"
        },
        {
          "indexed": false,
          "internalType": "address",
          "name": "newOwner",
          "type": "address"
        }
      ],
      "name": "OwnerChanged",
      "type": "event"
    },
    {
      "anonymous": false,
      "inputs": [
        {
          "indexed": false,
          "internalType": "address",
          "name": "newOwner",
          "type": "address"
        }
      ],
      "name": "OwnerNominated",
      "type": "event"
    },
    {
      "anonymous": false,
      "inputs": [
        {
          "indexed": true,
          "internalType": "address",
          "name": "from",
          "type": "address"
        },
        {
          "indexed": true,
          "internalType": "address",
          "name": "to",
          "type": "address"
        },
        {
          "indexed": false,
          "internalType": "uint256",
          "name": "value",
          "type": "uint256"
        }
      ],
      "name": "Transfer",
      "type": "event"
    },
    {
      "anonymous": false,
      "inputs": [
        {
          "indexed": true,
          "internalType": "address",
          "name": "from",
          "type": "address"
        },
        {
          "indexed": true,
          "internalType": "address",
          "name": "to",
          "type": "address"
        },
        {
          "indexed": false,
          "internalType": "uint256",
          "name": "amount",
          "type": "uint256"
        }
      ],
      "name": "WMFBurned",
      "type": "event"
    },
    {
      "anonymous": false,
      "inputs": [
        {
          "indexed": true,
          "internalType": "address",
          "name": "from",
          "type": "address"
        },
        {
          "indexed": true,
          "internalType": "address",
          "name": "to",
          "type": "address"
        },
        {
          "indexed": false,
          "internalType": "uint256",
          "name": "amount",
          "type": "uint256"
        }
      ],
      "name": "WMFMinted",
      "type": "event"
    },
    {
      "anonymous": false,
      "inputs": [
        {
          "indexed": false,
          "internalType": "address",
          "name": "addr",
          "type": "address"
        }
      ],
      "name": "WUSDAddressSet",
      "type": "event"
    },
    {
      "inputs": [],
      "name": "WUSDStablecoinAdd",
      "outputs": [
        {
          "internalType": "address",
          "name": "",
          "type": "address"
        }
      ],
      "stateMutability": "view",
      "type": "function"
    },
    {
      "inputs": [],
      "name": "acceptOwnership",
      "outputs": [],
      "stateMutability": "nonpayable",
      "type": "function"
    },
    {
      "inputs": [
        {
          "internalType": "address",
          "name": "owner",
          "type": "address"
        },
        {
          "internalType": "address",
          "name": "spender",
          "type": "address"
        }
      ],
      "name": "allowance",
      "outputs": [
        {
          "internalType": "uint256",
          "name": "",
          "type": "uint256"
        }
      ],
      "stateMutability": "view",
      "type": "function"
    },
    {
      "inputs": [
        {
          "internalType": "address",
          "name": "spender",
          "type": "address"
        },
        {
          "internalType": "uint256",
          "name": "amount",
          "type": "uint256"
        }
      ],
      "name": "approve",
      "outputs": [
        {
          "internalType": "bool",
          "name": "",
          "type": "bool"
        }
      ],
      "stateMutability": "nonpayable",
      "type": "function"
    },
    {
      "inputs": [
        {
          "internalType": "address",
          "name": "account",
          "type": "address"
        }
      ],
      "name": "balanceOf",
      "outputs": [
        {
          "internalType": "uint256",
          "name": "",
          "type": "uint256"
        }
      ],
      "stateMutability": "view",
      "type": "function"
    },
    {
      "inputs": [
        {
          "internalType": "uint256",
          "name": "amount",
          "type": "uint256"
        }
      ],
      "name": "burn",
      "outputs": [],
      "stateMutability": "nonpayable",
      "type": "function"
    },
    {
      "inputs": [
        {
          "internalType": "address",
          "name": "account",
          "type": "address"
        },
        {
          "internalType": "uint256",
          "name": "amount",
          "type": "uint256"
        }
      ],
      "name": "burnFrom",
      "outputs": [],
      "stateMutability": "nonpayable",
      "type": "function"
    },
    {
      "inputs": [],
      "name": "decimals",
      "outputs": [
        {
          "internalType": "uint8",
          "name": "",
          "type": "uint8"
        }
      ],
      "stateMutability": "view",
      "type": "function"
    },
    {
      "inputs": [
        {
          "internalType": "address",
          "name": "spender",
          "type": "address"
        },
        {
          "internalType": "uint256",
          "name": "subtractedValue",
          "type": "uint256"
        }
      ],
      "name": "decreaseAllowance",
      "outputs": [
        {
          "internalType": "bool",
          "name": "",
          "type": "bool"
        }
      ],
      "stateMutability": "nonpayable",
      "type": "function"
    },
    {
      "inputs": [],
      "name": "genesis_supply",
      "outputs": [
        {
          "internalType": "uint256",
          "name": "",
          "type": "uint256"
        }
      ],
      "stateMutability": "view",
      "type": "function"
    },
    {
      "inputs": [
        {
          "internalType": "address",
          "name": "spender",
          "type": "address"
        },
        {
          "internalType": "uint256",
          "name": "addedValue",
          "type": "uint256"
        }
      ],
      "name": "increaseAllowance",
      "outputs": [
        {
          "internalType": "bool",
          "name": "",
          "type": "bool"
        }
      ],
      "stateMutability": "nonpayable",
      "type": "function"
    },
    {
      "inputs": [],
      "name": "name",
      "outputs": [
        {
          "internalType": "string",
          "name": "",
          "type": "string"
        }
      ],
      "stateMutability": "view",
      "type": "function"
    },
    {
      "inputs": [
        {
          "internalType": "address",
          "name": "_owner",
          "type": "address"
        }
      ],
      "name": "nominateNewOwner",
      "outputs": [],
      "stateMutability": "nonpayable",
      "type": "function"
    },
    {
      "inputs": [],
      "name": "nominatedOwner",
      "outputs": [
        {
          "internalType": "address",
          "name": "",
          "type": "address"
        }
      ],
      "stateMutability": "view",
      "type": "function"
    },
    {
      "inputs": [],
      "name": "oracle_address",
      "outputs": [
        {
          "internalType": "address",
          "name": "",
          "type": "address"
        }
      ],
      "stateMutability": "view",
      "type": "function"
    },
    {
      "inputs": [],
      "name": "owner",
      "outputs": [
        {
          "internalType": "address",
          "name": "",
          "type": "address"
        }
      ],
      "stateMutability": "view",
      "type": "function"
    },
    {
      "inputs": [
        {
          "internalType": "address",
          "name": "b_address",
          "type": "address"
        },
        {
          "internalType": "uint256",
          "name": "b_amount",
          "type": "uint256"
        }
      ],
      "name": "pool_burn_from",
      "outputs": [],
      "stateMutability": "nonpayable",
      "type": "function"
    },
    {
      "inputs": [
        {
          "internalType": "address",
          "name": "m_address",
          "type": "address"
        },
        {
          "internalType": "uint256",
          "name": "m_amount",
          "type": "uint256"
        }
      ],
      "name": "pool_mint",
      "outputs": [],
      "stateMutability": "nonpayable",
      "type": "function"
    },
    {
      "inputs": [
        {
          "internalType": "address",
          "name": "new_oracle",
          "type": "address"
        }
      ],
      "name": "setOracle",
      "outputs": [],
      "stateMutability": "nonpayable",
      "type": "function"
    },
    {
      "inputs": [
        {
          "internalType": "address",
          "name": "WUSD_contract_address",
          "type": "address"
        }
      ],
      "name": "setWUSDAddress",
      "outputs": [],
      "stateMutability": "nonpayable",
      "type": "function"
    },
    {
      "inputs": [],
      "name": "symbol",
      "outputs": [
        {
          "internalType": "string",
          "name": "",
          "type": "string"
        }
      ],
      "stateMutability": "view",
      "type": "function"
    },
    {
      "inputs": [],
      "name": "totalSupply",
      "outputs": [
        {
          "internalType": "uint256",
          "name": "",
          "type": "uint256"
        }
      ],
      "stateMutability": "view",
      "type": "function"
    },
    {
      "inputs": [
        {
          "internalType": "address",
          "name": "recipient",
          "type": "address"
        },
        {
          "internalType": "uint256",
          "name": "amount",
          "type": "uint256"
        }
      ],
      "name": "transfer",
      "outputs": [
        {
          "internalType": "bool",
          "name": "",
          "type": "bool"
        }
      ],
      "stateMutability": "nonpayable",
      "type": "function"
    },
    {
      "inputs": [
        {
          "internalType": "address",
          "name": "sender",
          "type": "address"
        },
        {
          "internalType": "address",
          "name": "recipient",
          "type": "address"
        },
        {
          "internalType": "uint256",
          "name": "amount",
          "type": "uint256"
        }
      ],
      "name": "transferFrom",
      "outputs": [
        {
          "internalType": "bool",
          "name": "",
          "type": "bool"
        }
      ],
      "stateMutability": "nonpayable",
      "type": "function"
    }
  ],
  "bytecode": "0x60806040523480156200001157600080fd5b5060405162001b2238038062001b22833981810160405260808110156200003757600080fd5b81019080805160405193929190846401000000008211156200005857600080fd5b9083019060208201858111156200006e57600080fd5b82516401000000008111828201881017156200008957600080fd5b82525081516020918201929091019080838360005b83811015620000b85781810151838201526020016200009e565b50505050905090810190601f168015620000e65780820380516001836020036101000a031916815260200191505b50604052602001805160405193929190846401000000008211156200010a57600080fd5b9083019060208201858111156200012057600080fd5b82516401000000008111828201881017156200013b57600080fd5b82525081516020918201929091019080838360005b838110156200016a57818101518382015260200162000150565b50505050905090810190601f168015620001985780820380516001836020036101000a031916815260200191505b50604090815260208201519101519092509050806001600160a01b0381166200022257604080517f08c379a000000000000000000000000000000000000000000000000000000000815260206004820152601960248201527f4f776e657220616464726573732063616e6e6f74206265203000000000000000604482015290519081900360640190fd5b600380546001600160a01b0319166001600160a01b0383169081179091556040805160008152602081019290925280517fb532073b38c83145e3e5135377a08bf9aab55bc0fd7c1179cd4fb995d2a5159c9281900390910190a1508351620002929060069060208701906200048f565b508251620002a89060059060208601906200048f565b50600880546001600160a01b0319166001600160a01b038416179055620002db816a52b7d2dcc80cd2e4000000620002e5565b505050506200053b565b6001600160a01b0382166200035b57604080517f08c379a000000000000000000000000000000000000000000000000000000000815260206004820152601f60248201527f45524332303a206d696e7420746f20746865207a65726f206164647265737300604482015290519081900360640190fd5b62000369600083836200040e565b62000385816002546200041360201b62000deb1790919060201c565b6002556001600160a01b03821660009081526020818152604090912054620003b891839062000deb62000413821b17901c565b6001600160a01b0383166000818152602081815260408083209490945583518581529351929391927fddf252ad1be2c89b69c2b068fc378daa952ba7f163c4a11628f55a4df523b3ef9281900390910190a35050565b505050565b6000828201838110156200048857604080517f08c379a000000000000000000000000000000000000000000000000000000000815260206004820152601b60248201527f536166654d6174683a206164646974696f6e206f766572666c6f770000000000604482015290519081900360640190fd5b9392505050565b828054600181600116156101000203166002900490600052602060002090601f016020900481019282620004c7576000855562000512565b82601f10620004e257805160ff191683800117855562000512565b8280016001018555821562000512579182015b8281111562000512578251825591602001919060010190620004f5565b506200052092915062000524565b5090565b5b8082111562000520576000815560010162000525565b6115d7806200054b6000396000f3fe608060405234801561001057600080fd5b50600436106101985760003560e01c806379cc6790116100e3578063a8a778ae1161008c578063bb0c8de111610066578063bb0c8de1146104ad578063dd62ed3e146104b5578063dda9e3de146104e357610198565b8063a8a778ae14610429578063a9059cbb14610455578063b4f56b261461048157610198565b80638da5cb5b116100bd5780638da5cb5b146103ed57806395d89b41146103f5578063a457c2d7146103fd57610198565b806379cc6790146103935780637adbf973146103bf5780637e0c1792146103e557610198565b8063395093511161014557806353a47bb71161011f57806353a47bb71461034157806370a082311461036557806379ba50971461038b57610198565b806339509351146102f057806342966c681461031c57806351e238e31461033957610198565b806318160ddd1161017657806318160ddd1461028257806323b872dd1461029c578063313ce567146102d257610198565b806306fdde031461019d578063095ea7b31461021a5780631627540c1461025a575b600080fd5b6101a5610509565b6040805160208082528351818301528351919283929083019185019080838360005b838110156101df5781810151838201526020016101c7565b50505050905090810190601f16801561020c5780820380516001836020036101000a031916815260200191505b509250505060405180910390f35b6102466004803603604081101561023057600080fd5b506001600160a01b038135169060200135610597565b604080519115158252519081900360200190f35b6102806004803603602081101561027057600080fd5b50356001600160a01b03166105b4565b005b61028a61065e565b60408051918252519081900360200190f35b610246600480360360608110156102b257600080fd5b506001600160a01b03813581169160208101359091169060400135610664565b6102da6106eb565b6040805160ff9092168252519081900360200190f35b6102466004803603604081101561030657600080fd5b506001600160a01b0381351690602001356106f0565b6102806004803603602081101561033257600080fd5b503561073e565b61028a610752565b610349610761565b604080516001600160a01b039092168252519081900360200190f35b61028a6004803603602081101561037b57600080fd5b50356001600160a01b0316610770565b61028061078b565b610280600480360360408110156103a957600080fd5b506001600160a01b038135169060200135610854565b610280600480360360208110156103d557600080fd5b50356001600160a01b03166108ae565b610349610997565b6103496109a6565b6101a56109b5565b6102466004803603604081101561041357600080fd5b506001600160a01b038135169060200135610a10565b6102806004803603604081101561043f57600080fd5b506001600160a01b038135169060200135610a78565b6102466004803603604081101561046b57600080fd5b506001600160a01b038135169060200135610b7d565b6102806004803603604081101561049757600080fd5b506001600160a01b038135169060200135610b91565b610349610c96565b61028a600480360360408110156104cb57600080fd5b506001600160a01b0381358116916020013516610ca5565b610280600480360360208110156104f957600080fd5b50356001600160a01b0316610cd0565b6006805460408051602060026001851615610100026000190190941693909304601f8101849004840282018401909252818152929183018282801561058f5780601f106105645761010080835404028352916020019161058f565b820191906000526020600020905b81548152906001019060200180831161057257829003601f168201915b505050505081565b60006105ab6105a4610e4c565b8484610e50565b50600192915050565b6003546001600160a01b031633146105fd5760405162461bcd60e51b815260040180806020018281038252602f815260200180611498602f913960400191505060405180910390fd5b600480546001600160a01b03831673ffffffffffffffffffffffffffffffffffffffff19909116811790915560408051918252517f906a1c6bd7e3091ea86693dd029a831c19049ce77f1dce2ce0bab1cacbabce229181900360200190a150565b60025490565b6000610671848484610f3c565b6106e18461067d610e4c565b6106dc856040518060600160405280602881526020016114c7602891396001600160a01b038a166000908152600160205260408120906106bb610e4c565b6001600160a01b031681526020810191909152604001600020549190611097565b610e50565b5060019392505050565b601281565b60006105ab6106fd610e4c565b846106dc856001600061070e610e4c565b6001600160a01b03908116825260208083019390935260409182016000908120918c168152925290205490610deb565b61074f610749610e4c565b8261112e565b50565b6a52b7d2dcc80cd2e400000081565b6004546001600160a01b031681565b6001600160a01b031660009081526020819052604090205490565b6004546001600160a01b031633146107d45760405162461bcd60e51b81526004018080602001828103825260358152602001806113d86035913960400191505060405180910390fd5b600354600454604080516001600160a01b03938416815292909116602083015280517fb532073b38c83145e3e5135377a08bf9aab55bc0fd7c1179cd4fb995d2a5159c9281900390910190a1600480546003805473ffffffffffffffffffffffffffffffffffffffff199081166001600160a01b03841617909155169055565b600061088b826040518060600160405280602481526020016114ef602491396108848661087f610e4c565b610ca5565b9190611097565b905061089f83610899610e4c565b83610e50565b6108a9838361112e565b505050565b6003546001600160a01b0316331461090d576040805162461bcd60e51b815260206004820152601460248201527f596f7520617265206e6f7420616e206f776e6572000000000000000000000000604482015290519081900360640190fd5b6001600160a01b038116610968576040805162461bcd60e51b815260206004820152601560248201527f5a65726f20616464726573732064657465637465640000000000000000000000604482015290519081900360640190fd5b6008805473ffffffffffffffffffffffffffffffffffffffff19166001600160a01b0392909216919091179055565b6008546001600160a01b031681565b6003546001600160a01b031681565b6005805460408051602060026001851615610100026000190190941693909304601f8101849004840282018401909252818152929183018282801561058f5780601f106105645761010080835404028352916020019161058f565b60006105ab610a1d610e4c565b846106dc8560405180606001604052806025815260200161157d6025913960016000610a47610e4c565b6001600160a01b03908116825260208083019390935260409182016000908120918d16815292529020549190611097565b6009546040805163590ff1df60e01b815233600482015290516001600160a01b039092169163590ff1df91602480820192602092909190829003018186803b158015610ac357600080fd5b505afa158015610ad7573d6000803e3d6000fd5b505050506040513d6020811015610aed57600080fd5b50511515600114610b2f5760405162461bcd60e51b81526004018080602001828103825260218152602001806114776021913960400191505060405180910390fd5b610b39828261122a565b60408051828152905130916001600160a01b038516917fcf91134846618eb73cfec86da8f77ed826817a729414c0adfe4bac02534948629181900360200190a35050565b60006105ab610b8a610e4c565b8484610f3c565b6009546040805163590ff1df60e01b815233600482015290516001600160a01b039092169163590ff1df91602480820192602092909190829003018186803b158015610bdc57600080fd5b505afa158015610bf0573d6000803e3d6000fd5b505050506040513d6020811015610c0657600080fd5b50511515600114610c485760405162461bcd60e51b81526004018080602001828103825260218152602001806114776021913960400191505060405180910390fd5b610c528282611282565b6040805182815290516001600160a01b0384169130917fdde4091f21d660fdca402a1d29b1c4c97bc77f166f68e0e0273b918f6a78cab19181900360200190a35050565b6007546001600160a01b031681565b6001600160a01b03918216600090815260016020908152604080832093909416825291909152205490565b6003546001600160a01b03163314610d2f576040805162461bcd60e51b815260206004820152601460248201527f596f7520617265206e6f7420616e206f776e6572000000000000000000000000604482015290519081900360640190fd5b6001600160a01b038116610d8a576040805162461bcd60e51b815260206004820152601560248201527f5a65726f20616464726573732064657465637465640000000000000000000000604482015290519081900360640190fd5b600980546001600160a01b03831673ffffffffffffffffffffffffffffffffffffffff19909116811790915560408051918252517f24577fa31db3964377043366ec303b0ef54826de030a4ca9cbd0a5310a630a909181900360200190a150565b600082820183811015610e45576040805162461bcd60e51b815260206004820152601b60248201527f536166654d6174683a206164646974696f6e206f766572666c6f770000000000604482015290519081900360640190fd5b9392505050565b3390565b6001600160a01b038316610e955760405162461bcd60e51b81526004018080602001828103825260248152602001806115596024913960400191505060405180910390fd5b6001600160a01b038216610eda5760405162461bcd60e51b815260040180806020018281038252602281526020018061142f6022913960400191505060405180910390fd5b6001600160a01b03808416600081815260016020908152604080832094871680845294825291829020859055815185815291517f8c5be1e5ebec7d5bd14f71427d1e84f3dd0314c0f7b2291e5b200ac8c7c3b9259281900390910190a3505050565b6001600160a01b038316610f815760405162461bcd60e51b81526004018080602001828103825260258152602001806115346025913960400191505060405180910390fd5b6001600160a01b038216610fc65760405162461bcd60e51b81526004018080602001828103825260238152602001806113b56023913960400191505060405180910390fd5b610fd18383836108a9565b61100e81604051806060016040528060268152602001611451602691396001600160a01b0386166000908152602081905260409020549190611097565b6001600160a01b03808516600090815260208190526040808220939093559084168152205461103d9082610deb565b6001600160a01b038084166000818152602081815260409182902094909455805185815290519193928716927fddf252ad1be2c89b69c2b068fc378daa952ba7f163c4a11628f55a4df523b3ef92918290030190a3505050565b600081848411156111265760405162461bcd60e51b81526004018080602001828103825283818151815260200191508051906020019080838360005b838110156110eb5781810151838201526020016110d3565b50505050905090810190601f1680156111185780820380516001836020036101000a031916815260200191505b509250505060405180910390fd5b505050900390565b6001600160a01b0382166111735760405162461bcd60e51b81526004018080602001828103825260218152602001806115136021913960400191505060405180910390fd5b61117f826000836108a9565b6111bc8160405180606001604052806022815260200161140d602291396001600160a01b0385166000908152602081905260409020549190611097565b6001600160a01b0383166000908152602081905260409020556002546111e29082611372565b6002556040805182815290516000916001600160a01b038516917fddf252ad1be2c89b69c2b068fc378daa952ba7f163c4a11628f55a4df523b3ef9181900360200190a35050565b611234828261112e565b61127e82611240610e4c565b6106dc846040518060600160405280602481526020016114ef602491396001600160a01b0388166000908152600160205260408120906106bb610e4c565b5050565b6001600160a01b0382166112dd576040805162461bcd60e51b815260206004820152601f60248201527f45524332303a206d696e7420746f20746865207a65726f206164647265737300604482015290519081900360640190fd5b6112e9600083836108a9565b6002546112f69082610deb565b6002556001600160a01b03821660009081526020819052604090205461131c9082610deb565b6001600160a01b0383166000818152602081815260408083209490945583518581529351929391927fddf252ad1be2c89b69c2b068fc378daa952ba7f163c4a11628f55a4df523b3ef9281900390910190a35050565b6000610e4583836040518060400160405280601e81526020017f536166654d6174683a207375627472616374696f6e206f766572666c6f77000081525061109756fe45524332303a207472616e7366657220746f20746865207a65726f2061646472657373596f75206d757374206265206e6f6d696e61746564206265666f726520796f752063616e20616363657074206f776e65727368697045524332303a206275726e20616d6f756e7420657863656564732062616c616e636545524332303a20617070726f766520746f20746865207a65726f206164647265737345524332303a207472616e7366657220616d6f756e7420657863656564732062616c616e63654f6e6c79205755534420706f6f6c732063616e206d696e74206e657720575553444f6e6c792074686520636f6e7472616374206f776e6572206d617920706572666f726d207468697320616374696f6e45524332303a207472616e7366657220616d6f756e74206578636565647320616c6c6f77616e636545524332303a206275726e20616d6f756e74206578636565647320616c6c6f77616e636545524332303a206275726e2066726f6d20746865207a65726f206164647265737345524332303a207472616e736665722066726f6d20746865207a65726f206164647265737345524332303a20617070726f76652066726f6d20746865207a65726f206164647265737345524332303a2064656372656173656420616c6c6f77616e63652062656c6f77207a65726fa2646970667358221220064181ab6cc1ddab145e0b896fabfab59e71f49df9a533995dc1488bd3ca060564736f6c63430007050033",
  "linkReferences": {},
  "deployedLinkReferences": {}
}