{
  "_format": "hh-sol-artifact-1",
  "contractName": "ChainlinkETHUSDPriceConsumer",
  "sourceName": "contracts/bank/Oracle/ChainlinkETHUSDPriceConsumer.sol",
  "abi": [
    {
      "inputs": [],
      "stateMutability": "nonpayable",
      "type": "constructor"
    },
    {
      "inputs": [],
      "name": "getDecimals",
      "outputs": [
        {
          "internalType": "uint8",
          "name": "",
          "type": "uint8"
        }
      ],
      "stateMutability": "view",
      "type": "function"
    },
    {
      "inputs": [],
      "name": "getLatestPrice",
      "outputs": [
        {
          "internalType": "int256",
          "name": "",
          "type": "int256"
        }
      ],
      "stateMutability": "view",
      "type": "function"
    }
  ],
  "bytecode": "0x608060405234801561001057600080fd5b50600080546001600160a01b031916738a753747a1fa494ec906ce90e9f37563a8af630e17905561035a806100466000396000f3fe608060405234801561001057600080fd5b50600436106100365760003560e01c80638e15f4731461003b578063f0141d8414610059575b600080fd5b61004361006e565b60405161005091906102d6565b60405180910390f35b61006161019a565b6040516100509190610316565b60008060008060008060009054906101000a900473ffffffffffffffffffffffffffffffffffffffff1673ffffffffffffffffffffffffffffffffffffffff1663feaf968c6040518163ffffffff1660e01b815260040160a06040518083038186803b1580156100dd57600080fd5b505afa1580156100f1573d6000803e3d6000fd5b505050506040513d601f19601f82011682018060405250810190610115919061025f565b9450945050935093506000831215801561012e57508115155b801561015257508369ffffffffffffffffffff168169ffffffffffffffffffff1610155b610191576040517f08c379a0000000000000000000000000000000000000000000000000000000008152600401610188906102df565b60405180910390fd5b50909250505090565b60008060009054906101000a900473ffffffffffffffffffffffffffffffffffffffff1673ffffffffffffffffffffffffffffffffffffffff1663313ce5676040518163ffffffff1660e01b815260040160206040518083038186803b15801561020357600080fd5b505afa158015610217573d6000803e3d6000fd5b505050506040513d601f19601f8201168201806040525081019061023b91906102ae565b905090565b805169ffffffffffffffffffff8116811461025a57600080fd5b919050565b600080600080600060a08688031215610276578081fd5b61027f86610240565b94506020860151935060408601519250606086015191506102a260808701610240565b90509295509295909350565b6000602082840312156102bf578081fd5b815160ff811681146102cf578182fd5b9392505050565b90815260200190565b60208082526017908201527f496e76616c696420636861696e6c696e6b207072696365000000000000000000604082015260600190565b60ff9190911681526020019056fea2646970667358221220d0e90f0c8d1c84a462e7f4ced9c6949fd9ce546b53173ed03a80ea692e2598c364736f6c63430007050033",
  "linkReferences": {},
  "deployedLinkReferences": {}
}