{
  "_format": "hh-sol-artifact-1",
  "contractName": "ClaimSwapBondZap",
  "sourceName": "contracts/bond/ClaimSwapBondZap.sol",
  "abi": [
    {
      "inputs": [
        {
          "internalType": "address",
          "name": "_claimSwapZap",
          "type": "address"
        }
      ],
      "stateMutability": "nonpayable",
      "type": "constructor"
    },
    {
      "anonymous": false,
      "inputs": [
        {
          "indexed": true,
          "internalType": "address",
          "name": "previousOwner",
          "type": "address"
        },
        {
          "indexed": true,
          "internalType": "address",
          "name": "newOwner",
          "type": "address"
        }
      ],
      "name": "OwnershipPulled",
      "type": "event"
    },
    {
      "anonymous": false,
      "inputs": [
        {
          "indexed": true,
          "internalType": "address",
          "name": "previousOwner",
          "type": "address"
        },
        {
          "indexed": true,
          "internalType": "address",
          "name": "newOwner",
          "type": "address"
        }
      ],
      "name": "OwnershipPushed",
      "type": "event"
    },
    {
      "inputs": [],
      "name": "ClaimSwapZap",
      "outputs": [
        {
          "internalType": "contract IClaimSwapZap",
          "name": "",
          "type": "address"
        }
      ],
      "stateMutability": "view",
      "type": "function"
    },
    {
      "inputs": [],
      "name": "REVISION",
      "outputs": [
        {
          "internalType": "uint256",
          "name": "",
          "type": "uint256"
        }
      ],
      "stateMutability": "view",
      "type": "function"
    },
    {
      "inputs": [],
      "name": "__initialize",
      "outputs": [],
      "stateMutability": "nonpayable",
      "type": "function"
    },
    {
      "inputs": [
        {
          "internalType": "address",
          "name": "_fromTokenAddress",
          "type": "address"
        },
        {
          "internalType": "address",
          "name": "_token0",
          "type": "address"
        },
        {
          "internalType": "address",
          "name": "_token1",
          "type": "address"
        },
        {
          "internalType": "uint256",
          "name": "_amount",
          "type": "uint256"
        }
      ],
      "name": "estimatePoolTokens",
      "outputs": [
        {
          "internalType": "uint256",
          "name": "",
          "type": "uint256"
        }
      ],
      "stateMutability": "view",
      "type": "function"
    },
    {
      "inputs": [
        {
          "internalType": "address",
          "name": "_fromTokenAddress",
          "type": "address"
        },
        {
          "internalType": "address",
          "name": "_token0",
          "type": "address"
        },
        {
          "internalType": "address",
          "name": "_token1",
          "type": "address"
        },
        {
          "internalType": "uint256",
          "name": "_lpAmount",
          "type": "uint256"
        }
      ],
      "name": "estimatePoolTokensInverse",
      "outputs": [
        {
          "internalType": "uint256",
          "name": "",
          "type": "uint256"
        }
      ],
      "stateMutability": "view",
      "type": "function"
    },
    {
      "inputs": [
        {
          "internalType": "address",
          "name": "_token",
          "type": "address"
        }
      ],
      "name": "getBalance",
      "outputs": [
        {
          "internalType": "uint256",
          "name": "",
          "type": "uint256"
        }
      ],
      "stateMutability": "view",
      "type": "function"
    },
    {
      "inputs": [],
      "name": "owner",
      "outputs": [
        {
          "internalType": "address",
          "name": "",
          "type": "address"
        }
      ],
      "stateMutability": "view",
      "type": "function"
    },
    {
      "inputs": [],
      "name": "pullManagement",
      "outputs": [],
      "stateMutability": "nonpayable",
      "type": "function"
    },
    {
      "inputs": [
        {
          "internalType": "address",
          "name": "newOwner_",
          "type": "address"
        }
      ],
      "name": "pushManagement",
      "outputs": [],
      "stateMutability": "nonpayable",
      "type": "function"
    },
    {
      "inputs": [],
      "name": "renounceManagement",
      "outputs": [],
      "stateMutability": "nonpayable",
      "type": "function"
    },
    {
      "inputs": [
        {
          "internalType": "address",
          "name": "_token",
          "type": "address"
        }
      ],
      "name": "withdraw",
      "outputs": [],
      "stateMutability": "nonpayable",
      "type": "function"
    },
    {
      "inputs": [
        {
          "internalType": "address",
          "name": "_depository",
          "type": "address"
        },
        {
          "internalType": "address",
          "name": "_token",
          "type": "address"
        },
        {
          "internalType": "uint256",
          "name": "_amount",
          "type": "uint256"
        },
        {
          "internalType": "uint256",
          "name": "_minAmount",
          "type": "uint256"
        },
        {
          "internalType": "uint256",
          "name": "_maxPrice",
          "type": "uint256"
        }
      ],
      "name": "zapToBond",
      "outputs": [],
      "stateMutability": "payable",
      "type": "function"
    },
    {
      "stateMutability": "payable",
      "type": "receive"
    }
  ],
  "bytecode": "0x60a0604052600060015534801561001557600080fd5b5060405161149e38038061149e8339818101604052602081101561003857600080fd5b5051600160005561004761005c565b60601b6001600160601b031916608052610122565b6034546001600160a01b0316156100d457604080517f08c379a000000000000000000000000000000000000000000000000000000000815260206004820152601c60248201527f4f776e61626c653a20616c726561647920696e697469616c697a656400000000604482015290519081900360640190fd5b603480546001600160a01b0319163317908190556040516001600160a01b0391909116906000907fea8258f2d9ddb679928cf34b78cf645b7feda9acc828e4dd82d014eaae270eba908290a3565b60805160601c61134b61015360003980610584528061068652806109ae5280610cd65280610db5525061134b6000f3fe6080604052600436106100cb5760003560e01c80636be8b32411610074578063dde43cba1161004e578063dde43cba14610295578063f80ce32b146102aa578063f8b2cb4f146102bf576100d2565b80636be8b324146101dc5780638da5cb5b14610237578063c92434a71461024c576100d2565b806346f68ee9116100a557806346f68ee91461016157806351cff8d9146101945780635a96ac0a146101c7576100d2565b8063089208d8146100d75780630a82b6ff146100ee578063240fd4f314610130576100d2565b366100d257005b600080fd5b3480156100e357600080fd5b506100ec6102f2565b005b6100ec600480360360a081101561010457600080fd5b506001600160a01b038135811691602081013590911690604081013590606081013590608001356103a8565b34801561013c57600080fd5b506101456109ac565b604080516001600160a01b039092168252519081900360200190f35b34801561016d57600080fd5b506100ec6004803603602081101561018457600080fd5b50356001600160a01b03166109d0565b3480156101a057600080fd5b506100ec600480360360208110156101b757600080fd5b50356001600160a01b0316610add565b3480156101d357600080fd5b506100ec610bc8565b3480156101e857600080fd5b50610225600480360360808110156101ff57600080fd5b506001600160a01b03813581169160208101358216916040820135169060600135610c81565b60408051918252519081900360200190f35b34801561024357600080fd5b50610145610d51565b34801561025857600080fd5b506102256004803603608081101561026f57600080fd5b506001600160a01b03813581169160208101358216916040820135169060600135610d60565b3480156102a157600080fd5b50610225610dfb565b3480156102b657600080fd5b506100ec610e00565b3480156102cb57600080fd5b50610225600480360360208110156102e257600080fd5b50356001600160a01b0316610e5c565b6034546001600160a01b03163314610351576040805162461bcd60e51b815260206004820181905260248201527f4f776e61626c653a2063616c6c6572206973206e6f7420746865206f776e6572604482015290519081900360640190fd5b6034546040516000916001600160a01b0316907fea8258f2d9ddb679928cf34b78cf645b7feda9acc828e4dd82d014eaae270eba908390a36034805473ffffffffffffffffffffffffffffffffffffffff19169055565b60026000541415610400576040805162461bcd60e51b815260206004820152601f60248201527f5265656e7472616e637947756172643a207265656e7472616e742063616c6c00604482015290519081900360640190fd5b60026000556001600160a01b038416610495573483146104515760405162461bcd60e51b815260040180806020018281038252602d8152602001806112bb602d913960400191505060405180910390fd5b600083116104905760405162461bcd60e51b815260040180806020018281038252602981526020018061123d6029913960400191505060405180910390fd5b61060c565b34156104d25760405162461bcd60e51b81526004018080602001828103825260338152602001806112886033913960400191505060405180910390fd5b604080517f23b872dd0000000000000000000000000000000000000000000000000000000081523360048201523060248201526044810185905290516001600160a01b038616916323b872dd9160648083019260209291908290030181600087803b15801561054057600080fd5b505af1158015610554573d6000803e3d6000fd5b505050506040513d602081101561056a57600080fd5b50506040805163095ea7b360e01b81526001600160a01b037f0000000000000000000000000000000000000000000000000000000000000000811660048301526024820186905291519186169163095ea7b3916044808201926020929091908290030181600087803b1580156105df57600080fd5b505af11580156105f3573d6000803e3d6000fd5b505050506040513d602081101561060957600080fd5b50505b6000856001600160a01b031663016a42846040518163ffffffff1660e01b815260040160206040518083038186803b15801561064757600080fd5b505afa15801561065b573d6000803e3d6000fd5b505050506040513d602081101561067157600080fd5b50519050600061068086610e5c565b905060007f00000000000000000000000000000000000000000000000000000000000000006001600160a01b0316631d37069234308a876001600160a01b0316630dfe16816040518163ffffffff1660e01b815260040160206040518083038186803b1580156106ef57600080fd5b505afa158015610703573d6000803e3d6000fd5b505050506040513d602081101561071957600080fd5b5051604080517fd21220a700000000000000000000000000000000000000000000000000000000815290516001600160a01b038b169163d21220a7916004808301926020929190829003018186803b15801561077457600080fd5b505afa158015610788573d6000803e3d6000fd5b505050506040513d602081101561079e57600080fd5b5051604080517fffffffff0000000000000000000000000000000000000000000000000000000060e089901b1681526001600160a01b03958616600482015293851660248501529184166044840152929092166064820152608481018b905260a481018a9052905160c480830192602092919082900301818588803b15801561082657600080fd5b505af115801561083a573d6000803e3d6000fd5b50505050506040513d602081101561085157600080fd5b50516040805163095ea7b360e01b81526001600160a01b038b811660048301526024820184905291519293509085169163095ea7b3916044808201926020929091908290030181600087803b1580156108a957600080fd5b505af11580156108bd573d6000803e3d6000fd5b505050506040513d60208110156108d357600080fd5b5050604080517f8dbdbe6d000000000000000000000000000000000000000000000000000000008152600481018390526024810186905233604482015290516001600160a01b038a1691638dbdbe6d9160648083019260209291908290030181600087803b15801561094457600080fd5b505af1158015610958573d6000803e3d6000fd5b505050506040513d602081101561096e57600080fd5b506000905061098f6109808489610f0e565b6109898a610e5c565b90610f0e565b905061099c883383610f57565b5050600160005550505050505050565b7f000000000000000000000000000000000000000000000000000000000000000081565b6034546001600160a01b03163314610a2f576040805162461bcd60e51b815260206004820181905260248201527f4f776e61626c653a2063616c6c6572206973206e6f7420746865206f776e6572604482015290519081900360640190fd5b6001600160a01b038116610a745760405162461bcd60e51b81526004018080602001828103825260268152602001806112176026913960400191505060405180910390fd5b6034546040516001600160a01b038084169216907fea8258f2d9ddb679928cf34b78cf645b7feda9acc828e4dd82d014eaae270eba90600090a36035805473ffffffffffffffffffffffffffffffffffffffff19166001600160a01b0392909216919091179055565b6034546001600160a01b03163314610b3c576040805162461bcd60e51b815260206004820181905260248201527f4f776e61626c653a2063616c6c6572206973206e6f7420746865206f776e6572604482015290519081900360640190fd5b6000306001600160a01b031663f8b2cb4f836040518263ffffffff1660e01b815260040180826001600160a01b0316815260200191505060206040518083038186803b158015610b8b57600080fd5b505afa158015610b9f573d6000803e3d6000fd5b505050506040513d6020811015610bb557600080fd5b50519050610bc4823383610f57565b5050565b6035546001600160a01b03163314610c115760405162461bcd60e51b81526004018080602001828103825260228152602001806112666022913960400191505060405180910390fd5b6035546034546040516001600160a01b0392831692909116907faa151555690c956fc3ea32f106bb9f119b5237a061eaa8557cff3e51e3792c8d90600090a36035546034805473ffffffffffffffffffffffffffffffffffffffff19166001600160a01b03909216919091179055565b604080517f6be8b3240000000000000000000000000000000000000000000000000000000081526001600160a01b038681166004830152858116602483015284811660448301526064820184905291516000927f00000000000000000000000000000000000000000000000000000000000000001691636be8b324916084808301926020929190829003018186803b158015610d1c57600080fd5b505afa158015610d30573d6000803e3d6000fd5b505050506040513d6020811015610d4657600080fd5b505195945050505050565b6034546001600160a01b031690565b604080517fc92434a70000000000000000000000000000000000000000000000000000000081526001600160a01b038681166004830152858116602483015284811660448301526064820184905291516000927f0000000000000000000000000000000000000000000000000000000000000000169163c92434a7916084808301926020929190829003018186803b158015610d1c57600080fd5b600181565b6000610e0a61108e565b90506001548111610e4c5760405162461bcd60e51b815260040180806020018281038252602e8152602001806112e8602e913960400191505060405180910390fd5b6001819055610e59611093565b50565b60006001600160a01b038216610e7b57610e7461114c565b9050610f09565b604080517f70a0823100000000000000000000000000000000000000000000000000000000815230600482015290516001600160a01b038416916370a08231916024808301926020929190829003018186803b158015610eda57600080fd5b505afa158015610eee573d6000803e3d6000fd5b505050506040513d6020811015610f0457600080fd5b505190505b919050565b6000610f5083836040518060400160405280601e81526020017f536166654d6174683a207375627472616374696f6e206f766572666c6f770000815250611151565b9392505050565b80610f6157611089565b6001600160a01b038316611005576040516000906001600160a01b0384169083908381818185875af1925050503d8060008114610fba576040519150601f19603f3d011682016040523d82523d6000602084013e610fbf565b606091505b5050905080610fff5760405162461bcd60e51b815260040180806020018281038252602e8152602001806111e9602e913960400191505060405180910390fd5b50611089565b826001600160a01b031663a9059cbb83836040518363ffffffff1660e01b815260040180836001600160a01b0316815260200182815260200192505050602060405180830381600087803b15801561105c57600080fd5b505af1158015611070573d6000803e3d6000fd5b505050506040513d602081101561108657600080fd5b50505b505050565b600190565b6034546001600160a01b0316156110f1576040805162461bcd60e51b815260206004820152601c60248201527f4f776e61626c653a20616c726561647920696e697469616c697a656400000000604482015290519081900360640190fd5b6034805473ffffffffffffffffffffffffffffffffffffffff19163317908190556040516001600160a01b0391909116906000907fea8258f2d9ddb679928cf34b78cf645b7feda9acc828e4dd82d014eaae270eba908290a3565b303190565b600081848411156111e05760405162461bcd60e51b81526004018080602001828103825283818151815260200191508051906020019080838360005b838110156111a557818101518382015260200161118d565b50505050905090810190601f1680156111d25780820380516001836020036101000a031916815260200191505b509250505060405180910390fd5b50505090039056fe436c61696d537761704b6c61794b62744c704465706f7369746f72793a2073656e64206b6c6179206661696c65644f776e61626c653a206e6577206f776e657220697320746865207a65726f2061646472657373436c61696d537761704b6c61794b62744c704465706f7369746f72793a2030206d73672e76616c75654f776e61626c653a206d757374206265206e6577206f776e657220746f2070756c6c436c61696d537761704b6c61794b62744c704465706f7369746f72793a206d73672e76616c7565206e6f7420616c6c6f776564436c61696d537761704b6c61794b62744c704465706f7369746f72793a2077726f6e67206d73672e76616c7565436f6e747261637420696e7374616e63652068617320616c7265616479206265656e20696e697469616c697a6564a264697066735822122016d14ab275677c49a37256c707f93f4f7279f6d20fd8d5fd743bf0717cbd173f64736f6c63430007050033",
  "linkReferences": {},
  "deployedLinkReferences": {}
}