{
  "_format": "hh-sol-artifact-1",
  "contractName": "AssetOracle",
  "sourceName": "contracts/bank/Oracle/AssetOracle.sol",
  "abi": [
    {
      "inputs": [],
      "stateMutability": "nonpayable",
      "type": "constructor"
    },
    {
      "anonymous": false,
      "inputs": [
        {
          "indexed": true,
          "internalType": "uint256",
          "name": "idx",
          "type": "uint256"
        },
        {
          "indexed": true,
          "internalType": "address",
          "name": "newOracle",
          "type": "address"
        }
      ],
      "name": "AssetOracleUpdated",
      "type": "event"
    },
    {
      "anonymous": false,
      "inputs": [
        {
          "indexed": true,
          "internalType": "address",
          "name": "previousOwner",
          "type": "address"
        },
        {
          "indexed": true,
          "internalType": "address",
          "name": "newOwner",
          "type": "address"
        }
      ],
      "name": "OwnershipTransferred",
      "type": "event"
    },
    {
      "inputs": [
        {
          "internalType": "address",
          "name": "asset",
          "type": "address"
        }
      ],
      "name": "getAssetPrice",
      "outputs": [
        {
          "internalType": "uint256",
          "name": "",
          "type": "uint256"
        }
      ],
      "stateMutability": "view",
      "type": "function"
    },
    {
      "inputs": [],
      "name": "owner",
      "outputs": [
        {
          "internalType": "address",
          "name": "",
          "type": "address"
        }
      ],
      "stateMutability": "view",
      "type": "function"
    },
    {
      "inputs": [
        {
          "internalType": "uint256",
          "name": "",
          "type": "uint256"
        }
      ],
      "name": "priceOracle",
      "outputs": [
        {
          "internalType": "address",
          "name": "",
          "type": "address"
        }
      ],
      "stateMutability": "view",
      "type": "function"
    },
    {
      "inputs": [],
      "name": "renounceOwnership",
      "outputs": [],
      "stateMutability": "nonpayable",
      "type": "function"
    },
    {
      "inputs": [
        {
          "internalType": "address[]",
          "name": "_oracle",
          "type": "address[]"
        }
      ],
      "name": "setAssetOracle",
      "outputs": [],
      "stateMutability": "nonpayable",
      "type": "function"
    },
    {
      "inputs": [
        {
          "internalType": "address",
          "name": "newOwner",
          "type": "address"
        }
      ],
      "name": "transferOwnership",
      "outputs": [],
      "stateMutability": "nonpayable",
      "type": "function"
    }
  ],
  "bytecode": "0x608060405234801561001057600080fd5b50600061001b61006a565b600080546001600160a01b0319166001600160a01b0383169081178255604051929350917f8be0079c531659141344cd1fd0a4f28419497f9722a3daafe3b4186f6b6457e0908290a35061006e565b3390565b6106a18061007d6000396000f3fe608060405234801561001057600080fd5b50600436106100725760003560e01c8063a817303811610050578063a8173038146100c2578063b3596f0714610165578063f2fde38b1461019d57610072565b806345a6de8f14610077578063715018a6146100b05780638da5cb5b146100ba575b600080fd5b6100946004803603602081101561008d57600080fd5b50356101c3565b604080516001600160a01b039092168252519081900360200190f35b6100b86101ed565b005b6100946102b8565b6100b8600480360360208110156100d857600080fd5b8101906020810181356401000000008111156100f357600080fd5b82018360208201111561010557600080fd5b8035906020019184602083028401116401000000008311171561012757600080fd5b9190808060200260200160405190810160405280939291908181526020018383602002808284376000920191909152509295506102c7945050505050565b61018b6004803603602081101561017b57600080fd5b50356001600160a01b03166103f5565b60408051918252519081900360200190f35b6100b8600480360360208110156101b357600080fd5b50356001600160a01b0316610520565b600181815481106101d357600080fd5b6000918252602090912001546001600160a01b0316905081565b6101f5610641565b6001600160a01b03166102066102b8565b6001600160a01b031614610261576040805162461bcd60e51b815260206004820181905260248201527f4f776e61626c653a2063616c6c6572206973206e6f7420746865206f776e6572604482015290519081900360640190fd5b600080546040516001600160a01b03909116907f8be0079c531659141344cd1fd0a4f28419497f9722a3daafe3b4186f6b6457e0908390a36000805473ffffffffffffffffffffffffffffffffffffffff19169055565b6000546001600160a01b031690565b6102cf610641565b6001600160a01b03166102e06102b8565b6001600160a01b03161461033b576040805162461bcd60e51b815260206004820181905260248201527f4f776e61626c653a2063616c6c6572206973206e6f7420746865206f776e6572604482015290519081900360640190fd5b60005b81518110156103f157600182828151811061035557fe5b602090810291909101810151825460018101845560009384529190922001805473ffffffffffffffffffffffffffffffffffffffff19166001600160a01b0390921691909117905581518290829081106103ab57fe5b60200260200101516001600160a01b0316817f35ffc63943ebc4c1151dd9af60228b02dc785665bac0adcf8fc7b1e56afb1d4760405160405180910390a360010161033e565b5050565b6000805b6001548110156104cd5760006001828154811061041257fe5b60009182526020918290200154604080517f3ddac9530000000000000000000000000000000000000000000000000000000081526001600160a01b038881166004830152620f4240602483015291519190921692633ddac9539260448082019391829003018186803b15801561048757600080fd5b505afa15801561049b573d6000803e3d6000fd5b505050506040513d60208110156104b157600080fd5b5051905080156104c457915061051b9050565b506001016103f9565b506040805162461bcd60e51b815260206004820152601660248201527f43414e4e4f542047455420415353455420505249434500000000000000000000604482015290519081900360640190fd5b919050565b610528610641565b6001600160a01b03166105396102b8565b6001600160a01b031614610594576040805162461bcd60e51b815260206004820181905260248201527f4f776e61626c653a2063616c6c6572206973206e6f7420746865206f776e6572604482015290519081900360640190fd5b6001600160a01b0381166105d95760405162461bcd60e51b81526004018080602001828103825260268152602001806106466026913960400191505060405180910390fd5b600080546040516001600160a01b03808516939216917f8be0079c531659141344cd1fd0a4f28419497f9722a3daafe3b4186f6b6457e091a36000805473ffffffffffffffffffffffffffffffffffffffff19166001600160a01b0392909216919091179055565b339056fe4f776e61626c653a206e6577206f776e657220697320746865207a65726f2061646472657373a2646970667358221220361a560d8c0977dc911ac1f08571124ebaf7a1099c7b841846b0fb408e0b71c664736f6c63430007050033",
  "linkReferences": {},
  "deployedLinkReferences": {}
}