{
  "_format": "hh-sol-artifact-1",
  "contractName": "AssetOracle",
  "sourceName": "contracts/bank/Oracle/AssetOracle.sol",
  "abi": [
    {
      "inputs": [],
      "stateMutability": "nonpayable",
      "type": "constructor"
    },
    {
      "anonymous": false,
      "inputs": [
        {
          "indexed": true,
          "internalType": "uint256",
          "name": "idx",
          "type": "uint256"
        },
        {
          "indexed": true,
          "internalType": "address",
          "name": "newOracle",
          "type": "address"
        }
      ],
      "name": "AssetOracleUpdated",
      "type": "event"
    },
    {
      "anonymous": false,
      "inputs": [
        {
          "indexed": false,
          "internalType": "address",
          "name": "oldOwner",
          "type": "address"
        },
        {
          "indexed": false,
          "internalType": "address",
          "name": "newOwner",
          "type": "address"
        }
      ],
      "name": "OwnerChanged",
      "type": "event"
    },
    {
      "anonymous": false,
      "inputs": [
        {
          "indexed": false,
          "internalType": "address",
          "name": "newOwner",
          "type": "address"
        }
      ],
      "name": "OwnerNominated",
      "type": "event"
    },
    {
      "inputs": [],
      "name": "acceptOwnership",
      "outputs": [],
      "stateMutability": "nonpayable",
      "type": "function"
    },
    {
      "inputs": [
        {
          "internalType": "address",
          "name": "_principle",
          "type": "address"
        }
      ],
      "name": "assetPrice",
      "outputs": [
        {
          "internalType": "uint256",
          "name": "",
          "type": "uint256"
        }
      ],
      "stateMutability": "view",
      "type": "function"
    },
    {
      "inputs": [
        {
          "internalType": "address",
          "name": "asset",
          "type": "address"
        }
      ],
      "name": "getAssetPrice",
      "outputs": [
        {
          "internalType": "uint256",
          "name": "",
          "type": "uint256"
        }
      ],
      "stateMutability": "view",
      "type": "function"
    },
    {
      "inputs": [
        {
          "internalType": "address",
          "name": "_owner",
          "type": "address"
        }
      ],
      "name": "nominateNewOwner",
      "outputs": [],
      "stateMutability": "nonpayable",
      "type": "function"
    },
    {
      "inputs": [],
      "name": "nominatedOwner",
      "outputs": [
        {
          "internalType": "address",
          "name": "",
          "type": "address"
        }
      ],
      "stateMutability": "view",
      "type": "function"
    },
    {
      "inputs": [],
      "name": "owner",
      "outputs": [
        {
          "internalType": "address",
          "name": "",
          "type": "address"
        }
      ],
      "stateMutability": "view",
      "type": "function"
    },
    {
      "inputs": [
        {
          "internalType": "uint256",
          "name": "",
          "type": "uint256"
        }
      ],
      "name": "priceOracle",
      "outputs": [
        {
          "internalType": "address",
          "name": "",
          "type": "address"
        }
      ],
      "stateMutability": "view",
      "type": "function"
    },
    {
      "inputs": [
        {
          "internalType": "address[]",
          "name": "_oracle",
          "type": "address[]"
        }
      ],
      "name": "setAssetOracle",
      "outputs": [],
      "stateMutability": "nonpayable",
      "type": "function"
    }
  ],
  "bytecode": "0x608060405234801561001057600080fd5b50338061007e57604080517f08c379a000000000000000000000000000000000000000000000000000000000815260206004820152601960248201527f4f776e657220616464726573732063616e6e6f74206265203000000000000000604482015290519081900360640190fd5b600080546001600160a01b0319166001600160a01b038316908117825560408051928352602083019190915280517fb532073b38c83145e3e5135377a08bf9aab55bc0fd7c1179cd4fb995d2a5159c9281900390910190a150610aa1806100e66000396000f3fe608060405234801561001057600080fd5b50600436106100885760003560e01c80638da5cb5b1161005b5780638da5cb5b146100fe578063a817303814610106578063b3596f07146101a9578063b883b058146101e157610088565b80631627540c1461008d57806345a6de8f146100b557806353a47bb7146100ee57806379ba5097146100f6575b600080fd5b6100b3600480360360208110156100a357600080fd5b50356001600160a01b0316610207565b005b6100d2600480360360208110156100cb57600080fd5b50356102b1565b604080516001600160a01b039092168252519081900360200190f35b6100d26102db565b6100b36102ea565b6100d26103b3565b6100b36004803603602081101561011c57600080fd5b81019060208101813564010000000081111561013757600080fd5b82018360208201111561014957600080fd5b8035906020019184602083028401116401000000008311171561016b57600080fd5b9190808060200260200160405190810160405280939291908181526020018383602002808284376000920191909152509295506103c2945050505050565b6101cf600480360360208110156101bf57600080fd5b50356001600160a01b03166104c5565b60408051918252519081900360200190f35b6101cf600480360360208110156101f757600080fd5b50356001600160a01b0316610604565b6000546001600160a01b031633146102505760405162461bcd60e51b815260040180806020018281038252602f815260200180610a1c602f913960400191505060405180910390fd5b600180546001600160a01b03831673ffffffffffffffffffffffffffffffffffffffff19909116811790915560408051918252517f906a1c6bd7e3091ea86693dd029a831c19049ce77f1dce2ce0bab1cacbabce229181900360200190a150565b600281815481106102c157600080fd5b6000918252602090912001546001600160a01b0316905081565b6001546001600160a01b031681565b6001546001600160a01b031633146103335760405162461bcd60e51b81526004018080602001828103825260358152602001806109e76035913960400191505060405180910390fd5b600054600154604080516001600160a01b03938416815292909116602083015280517fb532073b38c83145e3e5135377a08bf9aab55bc0fd7c1179cd4fb995d2a5159c9281900390910190a1600180546000805473ffffffffffffffffffffffffffffffffffffffff199081166001600160a01b03841617909155169055565b6000546001600160a01b031681565b6000546001600160a01b0316331461040b5760405162461bcd60e51b815260040180806020018281038252602f815260200180610a1c602f913960400191505060405180910390fd5b60005b81518110156104c157600282828151811061042557fe5b602090810291909101810151825460018101845560009384529190922001805473ffffffffffffffffffffffffffffffffffffffff19166001600160a01b03909216919091179055815182908290811061047b57fe5b60200260200101516001600160a01b0316817f35ffc63943ebc4c1151dd9af60228b02dc785665bac0adcf8fc7b1e56afb1d4760405160405180910390a360010161040e565b5050565b6002546000906104d4906107b3565b60005b6002548110156105b1576000600282815481106104f057fe5b6000918252602080832090910154604080517f3ddac9530000000000000000000000000000000000000000000000000000000081526001600160a01b038981166004830152620f4240602483015291519190921694508492633ddac9539260448082019391829003018186803b15801561056957600080fd5b505afa15801561057d573d6000803e3d6000fd5b505050506040513d602081101561059357600080fd5b5051905080156105a75792506105ff915050565b50506001016104d7565b506040805162461bcd60e51b815260206004820152601660248201527f43414e4e4f542047455420415353455420505249434500000000000000000000604482015290519081900360640190fd5b919050565b600080826001600160a01b03166318160ddd6040518163ffffffff1660e01b815260040160206040518083038186803b15801561064057600080fd5b505afa158015610654573d6000803e3d6000fd5b505050506040513d602081101561066a57600080fd5b5051604080517f5909c0d500000000000000000000000000000000000000000000000000000000815290519192506000916001600160a01b03861691635909c0d5916004808301926020929190829003018186803b1580156106cb57600080fd5b505afa1580156106df573d6000803e3d6000fd5b505050506040513d60208110156106f557600080fd5b5051604080517f5a3d549300000000000000000000000000000000000000000000000000000000815290519192506000916001600160a01b03871691635a3d5493916004808301926020929190829003018186803b15801561075657600080fd5b505afa15801561076a573d6000803e3d6000fd5b505050506040513d602081101561078057600080fd5b505190506107aa670de0b6b3a76400006107a48561079e8686610825565b90610888565b906108ca565b95945050505050565b6040805160248082018490528251808303909101815260449091019091526020810180517bffffffffffffffffffffffffffffffffffffffffffffffffffffffff167ff5b1bba90000000000000000000000000000000000000000000000000000000017905261082290610923565b50565b60008282018381101561087f576040805162461bcd60e51b815260206004820152601b60248201527f536166654d6174683a206164646974696f6e206f766572666c6f770000000000604482015290519081900360640190fd5b90505b92915050565b600061087f83836040518060400160405280601a81526020017f536166654d6174683a206469766973696f6e206279207a65726f000000000000815250610944565b6000826108d957506000610882565b828202828482816108e657fe5b041461087f5760405162461bcd60e51b8152600401808060200182810382526021815260200180610a4b6021913960400191505060405180910390fd5b80516a636f6e736f6c652e6c6f67602083016000808483855afa5050505050565b600081836109d05760405162461bcd60e51b81526004018080602001828103825283818151815260200191508051906020019080838360005b8381101561099557818101518382015260200161097d565b50505050905090810190601f1680156109c25780820380516001836020036101000a031916815260200191505b509250505060405180910390fd5b5060008385816109dc57fe5b049594505050505056fe596f75206d757374206265206e6f6d696e61746564206265666f726520796f752063616e20616363657074206f776e6572736869704f6e6c792074686520636f6e7472616374206f776e6572206d617920706572666f726d207468697320616374696f6e536166654d6174683a206d756c7469706c69636174696f6e206f766572666c6f77a2646970667358221220c4fb85f7eb5d1249b93fe5739cc0cc426e61bd16a74cc79bda6f826a56d9461664736f6c63430007050033",
  "linkReferences": {},
  "deployedLinkReferences": {}
}