{
  "_format": "hh-sol-artifact-1",
  "contractName": "SCAMPBank",
  "sourceName": "contracts/bank/Pools/SCAMPBank.sol",
  "abi": [
    {
      "inputs": [
        {
          "internalType": "address",
          "name": "_SCAMP_contract_address",
          "type": "address"
        },
        {
          "internalType": "address",
          "name": "_CAMP_contract_address",
          "type": "address"
        },
        {
          "internalType": "address",
          "name": "_collateral_address",
          "type": "address"
        },
        {
          "internalType": "address",
          "name": "_creator_address",
          "type": "address"
        },
        {
          "internalType": "address",
          "name": "_oracle",
          "type": "address"
        }
      ],
      "stateMutability": "nonpayable",
      "type": "constructor"
    },
    {
      "anonymous": false,
      "inputs": [
        {
          "indexed": false,
          "internalType": "bool",
          "name": "toggled",
          "type": "bool"
        }
      ],
      "name": "MintingToggled",
      "type": "event"
    },
    {
      "anonymous": false,
      "inputs": [
        {
          "indexed": false,
          "internalType": "address",
          "name": "oldOwner",
          "type": "address"
        },
        {
          "indexed": false,
          "internalType": "address",
          "name": "newOwner",
          "type": "address"
        }
      ],
      "name": "OwnerChanged",
      "type": "event"
    },
    {
      "anonymous": false,
      "inputs": [
        {
          "indexed": false,
          "internalType": "address",
          "name": "newOwner",
          "type": "address"
        }
      ],
      "name": "OwnerNominated",
      "type": "event"
    },
    {
      "anonymous": false,
      "inputs": [
        {
          "indexed": false,
          "internalType": "uint256",
          "name": "new_ceiling",
          "type": "uint256"
        },
        {
          "indexed": false,
          "internalType": "uint256",
          "name": "new_bonus_rate",
          "type": "uint256"
        },
        {
          "indexed": false,
          "internalType": "uint256",
          "name": "new_redemption_delay",
          "type": "uint256"
        },
        {
          "indexed": false,
          "internalType": "uint256",
          "name": "new_mint_fee",
          "type": "uint256"
        },
        {
          "indexed": false,
          "internalType": "uint256",
          "name": "new_redeem_fee",
          "type": "uint256"
        },
        {
          "indexed": false,
          "internalType": "uint256",
          "name": "new_buyback_fee",
          "type": "uint256"
        },
        {
          "indexed": false,
          "internalType": "uint256",
          "name": "new_recollat_fee",
          "type": "uint256"
        }
      ],
      "name": "PoolParametersSet",
      "type": "event"
    },
    {
      "anonymous": false,
      "inputs": [
        {
          "indexed": false,
          "internalType": "bool",
          "name": "toggled",
          "type": "bool"
        }
      ],
      "name": "RedeemingToggled",
      "type": "event"
    },
    {
      "inputs": [],
      "name": "acceptOwnership",
      "outputs": [],
      "stateMutability": "nonpayable",
      "type": "function"
    },
    {
      "inputs": [],
      "name": "availableExcessCollatDV",
      "outputs": [
        {
          "internalType": "uint256",
          "name": "",
          "type": "uint256"
        }
      ],
      "stateMutability": "view",
      "type": "function"
    },
    {
      "inputs": [],
      "name": "bonus_rate",
      "outputs": [
        {
          "internalType": "uint256",
          "name": "",
          "type": "uint256"
        }
      ],
      "stateMutability": "view",
      "type": "function"
    },
    {
      "inputs": [
        {
          "internalType": "uint256",
          "name": "CAMP_amount",
          "type": "uint256"
        },
        {
          "internalType": "uint256",
          "name": "COLLATERAL_out_min",
          "type": "uint256"
        }
      ],
      "name": "buyBackCAMP",
      "outputs": [],
      "stateMutability": "nonpayable",
      "type": "function"
    },
    {
      "inputs": [],
      "name": "buyback_fee",
      "outputs": [
        {
          "internalType": "uint256",
          "name": "",
          "type": "uint256"
        }
      ],
      "stateMutability": "view",
      "type": "function"
    },
    {
      "inputs": [],
      "name": "collatDollarBalance",
      "outputs": [
        {
          "internalType": "uint256",
          "name": "",
          "type": "uint256"
        }
      ],
      "stateMutability": "view",
      "type": "function"
    },
    {
      "inputs": [],
      "name": "collat_klay_oracle_address",
      "outputs": [
        {
          "internalType": "address",
          "name": "",
          "type": "address"
        }
      ],
      "stateMutability": "view",
      "type": "function"
    },
    {
      "inputs": [],
      "name": "collectRedemption",
      "outputs": [],
      "stateMutability": "nonpayable",
      "type": "function"
    },
    {
      "inputs": [],
      "name": "getCollateralPrice",
      "outputs": [
        {
          "internalType": "uint256",
          "name": "",
          "type": "uint256"
        }
      ],
      "stateMutability": "pure",
      "type": "function"
    },
    {
      "inputs": [
        {
          "internalType": "address",
          "name": "",
          "type": "address"
        }
      ],
      "name": "lastRedeemed",
      "outputs": [
        {
          "internalType": "uint256",
          "name": "",
          "type": "uint256"
        }
      ],
      "stateMutability": "view",
      "type": "function"
    },
    {
      "inputs": [
        {
          "internalType": "uint256",
          "name": "collateral_amount",
          "type": "uint256"
        },
        {
          "internalType": "uint256",
          "name": "SCAMP_out_min",
          "type": "uint256"
        }
      ],
      "name": "mint1t1SCAMP",
      "outputs": [],
      "stateMutability": "nonpayable",
      "type": "function"
    },
    {
      "inputs": [
        {
          "internalType": "uint256",
          "name": "CAMP_amount_d18",
          "type": "uint256"
        },
        {
          "internalType": "uint256",
          "name": "SCAMP_out_min",
          "type": "uint256"
        }
      ],
      "name": "mintAlgorithmicSCAMP",
      "outputs": [],
      "stateMutability": "nonpayable",
      "type": "function"
    },
    {
      "inputs": [
        {
          "internalType": "uint256",
          "name": "collateral_amount",
          "type": "uint256"
        },
        {
          "internalType": "uint256",
          "name": "CAMP_amount",
          "type": "uint256"
        },
        {
          "internalType": "uint256",
          "name": "SCAMP_out_min",
          "type": "uint256"
        }
      ],
      "name": "mintFractionalSCAMP",
      "outputs": [],
      "stateMutability": "nonpayable",
      "type": "function"
    },
    {
      "inputs": [],
      "name": "mintPaused",
      "outputs": [
        {
          "internalType": "bool",
          "name": "",
          "type": "bool"
        }
      ],
      "stateMutability": "view",
      "type": "function"
    },
    {
      "inputs": [],
      "name": "minting_fee",
      "outputs": [
        {
          "internalType": "uint256",
          "name": "",
          "type": "uint256"
        }
      ],
      "stateMutability": "view",
      "type": "function"
    },
    {
      "inputs": [
        {
          "internalType": "address",
          "name": "_owner",
          "type": "address"
        }
      ],
      "name": "nominateNewOwner",
      "outputs": [],
      "stateMutability": "nonpayable",
      "type": "function"
    },
    {
      "inputs": [],
      "name": "nominatedOwner",
      "outputs": [
        {
          "internalType": "address",
          "name": "",
          "type": "address"
        }
      ],
      "stateMutability": "view",
      "type": "function"
    },
    {
      "inputs": [],
      "name": "owner",
      "outputs": [
        {
          "internalType": "address",
          "name": "",
          "type": "address"
        }
      ],
      "stateMutability": "view",
      "type": "function"
    },
    {
      "inputs": [],
      "name": "pausedPrice",
      "outputs": [
        {
          "internalType": "uint256",
          "name": "",
          "type": "uint256"
        }
      ],
      "stateMutability": "view",
      "type": "function"
    },
    {
      "inputs": [],
      "name": "pool_ceiling",
      "outputs": [
        {
          "internalType": "uint256",
          "name": "",
          "type": "uint256"
        }
      ],
      "stateMutability": "view",
      "type": "function"
    },
    {
      "inputs": [],
      "name": "recollat_fee",
      "outputs": [
        {
          "internalType": "uint256",
          "name": "",
          "type": "uint256"
        }
      ],
      "stateMutability": "view",
      "type": "function"
    },
    {
      "inputs": [
        {
          "internalType": "uint256",
          "name": "collateral_amount",
          "type": "uint256"
        },
        {
          "internalType": "uint256",
          "name": "CAMP_out_min",
          "type": "uint256"
        }
      ],
      "name": "recollateralizeSCAMP",
      "outputs": [],
      "stateMutability": "nonpayable",
      "type": "function"
    },
    {
      "inputs": [
        {
          "internalType": "uint256",
          "name": "SCAMP_amount",
          "type": "uint256"
        },
        {
          "internalType": "uint256",
          "name": "COLLATERAL_out_min",
          "type": "uint256"
        }
      ],
      "name": "redeem1t1SCAMP",
      "outputs": [],
      "stateMutability": "nonpayable",
      "type": "function"
    },
    {
      "inputs": [
        {
          "internalType": "uint256",
          "name": "SCAMP_amount",
          "type": "uint256"
        },
        {
          "internalType": "uint256",
          "name": "CAMP_out_min",
          "type": "uint256"
        }
      ],
      "name": "redeemAlgorithmicSCAMP",
      "outputs": [],
      "stateMutability": "nonpayable",
      "type": "function"
    },
    {
      "inputs": [
        {
          "internalType": "address",
          "name": "",
          "type": "address"
        }
      ],
      "name": "redeemCAMPBalances",
      "outputs": [
        {
          "internalType": "uint256",
          "name": "",
          "type": "uint256"
        }
      ],
      "stateMutability": "view",
      "type": "function"
    },
    {
      "inputs": [
        {
          "internalType": "address",
          "name": "",
          "type": "address"
        }
      ],
      "name": "redeemCollateralBalances",
      "outputs": [
        {
          "internalType": "uint256",
          "name": "",
          "type": "uint256"
        }
      ],
      "stateMutability": "view",
      "type": "function"
    },
    {
      "inputs": [
        {
          "internalType": "uint256",
          "name": "SCAMP_amount",
          "type": "uint256"
        },
        {
          "internalType": "uint256",
          "name": "CAMP_out_min",
          "type": "uint256"
        },
        {
          "internalType": "uint256",
          "name": "COLLATERAL_out_min",
          "type": "uint256"
        }
      ],
      "name": "redeemFractionalSCAMP",
      "outputs": [],
      "stateMutability": "nonpayable",
      "type": "function"
    },
    {
      "inputs": [],
      "name": "redeemPaused",
      "outputs": [
        {
          "internalType": "bool",
          "name": "",
          "type": "bool"
        }
      ],
      "stateMutability": "view",
      "type": "function"
    },
    {
      "inputs": [],
      "name": "redemption_delay",
      "outputs": [
        {
          "internalType": "uint256",
          "name": "",
          "type": "uint256"
        }
      ],
      "stateMutability": "view",
      "type": "function"
    },
    {
      "inputs": [],
      "name": "redemption_fee",
      "outputs": [
        {
          "internalType": "uint256",
          "name": "",
          "type": "uint256"
        }
      ],
      "stateMutability": "view",
      "type": "function"
    },
    {
      "inputs": [
        {
          "internalType": "uint256",
          "name": "new_ceiling",
          "type": "uint256"
        },
        {
          "internalType": "uint256",
          "name": "new_bonus_rate",
          "type": "uint256"
        },
        {
          "internalType": "uint256",
          "name": "new_redemption_delay",
          "type": "uint256"
        },
        {
          "internalType": "uint256",
          "name": "new_mint_fee",
          "type": "uint256"
        },
        {
          "internalType": "uint256",
          "name": "new_redeem_fee",
          "type": "uint256"
        },
        {
          "internalType": "uint256",
          "name": "new_buyback_fee",
          "type": "uint256"
        },
        {
          "internalType": "uint256",
          "name": "new_recollat_fee",
          "type": "uint256"
        }
      ],
      "name": "setPoolParameters",
      "outputs": [],
      "stateMutability": "nonpayable",
      "type": "function"
    },
    {
      "inputs": [],
      "name": "toggleMinting",
      "outputs": [],
      "stateMutability": "nonpayable",
      "type": "function"
    },
    {
      "inputs": [],
      "name": "toggleRedeeming",
      "outputs": [],
      "stateMutability": "nonpayable",
      "type": "function"
    },
    {
      "inputs": [],
      "name": "unclaimedPoolCAMP",
      "outputs": [
        {
          "internalType": "uint256",
          "name": "",
          "type": "uint256"
        }
      ],
      "stateMutability": "view",
      "type": "function"
    },
    {
      "inputs": [],
      "name": "unclaimedPoolCollateral",
      "outputs": [
        {
          "internalType": "uint256",
          "name": "",
          "type": "uint256"
        }
      ],
      "stateMutability": "view",
      "type": "function"
    }
  ],
  "bytecode": "0x60a060405269d3c21bcecceda10000006014556000601555611d4c60165560016017556018805461ffff191690553480156200003a57600080fd5b5060405162003cfd38038062003cfd833981810160405260a08110156200006057600080fd5b50805160208201516040830151606084015160809094015192939192909190816001600160a01b038116620000f657604080517f08c379a000000000000000000000000000000000000000000000000000000000815260206004820152601960248201527f4f776e657220616464726573732063616e6e6f74206265203000000000000000604482015290519081900360640190fd5b600080546001600160a01b0319166001600160a01b038316908117825560408051928352602083019190915280517fb532073b38c83145e3e5135377a08bf9aab55bc0fd7c1179cd4fb995d2a5159c9281900390910190a1506001600160a01b038516158015906200017057506001600160a01b03841615155b80156200018557506001600160a01b03831615155b80156200019a57506001600160a01b03821615155b6200020657604080517f08c379a000000000000000000000000000000000000000000000000000000000815260206004820152601560248201527f5a65726f20616464726573732064657465637465640000000000000000000000604482015290519081900360640190fd5b600780546001600160a01b038088166001600160a01b0319928316811790935560068054888316908416811790915560048054841690941784556005805484169091179055600380548783169084168117909155600280549093161791829055604080517f313ce56700000000000000000000000000000000000000000000000000000000815290516200030294939092169263313ce567928282019260209290829003018186803b158015620002bc57600080fd5b505afa158015620002d1573d6000803e3d6000fd5b505050506040513d6020811015620002e857600080fd5b505160129060ff1662000330602090811b62002dca17901c565b608052600880546001600160a01b0319166001600160a01b0392909216919091179055506200043692505050565b60006200037a83836040518060400160405280601e81526020017f536166654d6174683a207375627472616374696f6e206f766572666c6f7700008152506200038160201b60201c565b9392505050565b600081848411156200042e576040517f08c379a00000000000000000000000000000000000000000000000000000000081526004018080602001828103825283818151815260200191508051906020019080838360005b83811015620003f2578181015183820152602001620003d8565b50505050905090810190601f168015620004205780820380516001836020036101000a031916815260200191505b509250505060405180910390fd5b505050900390565b608051613889620004746000398061072f52806109275280610e3a52806114f552806118295280611af75280611d64528061236152506138896000f3fe608060405234801561001057600080fd5b50600436106102415760003560e01c80637d55094d11610145578063b7988132116100bd578063daa504851161008c578063f61adab211610071578063f61adab21461051f578063f7683bbc14610527578063fede5c9c1461052f57610241565b8063daa50485146104f4578063efed9b35146104fc57610241565b8063b7988132146104b9578063c3355b8d146104dc578063c74ec56a146104e4578063cb73999f146104ec57610241565b80639e643d5611610114578063abae2c4c116100f9578063abae2c4c14610468578063b235d4681461048e578063b38ea2c81461049657610241565b80639e643d561461043a578063a4e0a2741461044257610241565b80637d55094d146104065780637e4831d31461040e5780638da5cb5b1461042a5780638ff2793a1461043257610241565b80634c634934116101d85780636e5450b6116101a757806379ba50971161018c57806379ba5097146103d35780637b0461e9146103db5780637bb5103e146103e357610241565b80636e5450b614610387578063742f3974146103b057610241565b80634c634934146103125780634ebbe7621461031a57806353a47bb71461035b5780636526a12a1461037f57610241565b80631627540c116102145780631627540c1461029857806317284c94146102be5780631cc07a95146102c65780632dadfec9146102e957610241565b806308a7493d14610246578063101197c71461027e57806312ace5a2146102865780631512842514610290575b600080fd5b61026c6004803603602081101561025c57600080fd5b50356001600160a01b0316610537565b60408051918252519081900360200190f35b61026c610549565b61028e61054f565b005b61026c610671565b61028e600480360360208110156102ae57600080fd5b50356001600160a01b0316610677565b61026c610721565b61028e600480360360408110156102dc57600080fd5b50803590602001356107fd565b61028e600480360360608110156102ff57600080fd5b5080359060208101359060400135610bb2565b61026c611166565b61028e600480360360e081101561033057600080fd5b5080359060208101359060408101359060608101359060808101359060a08101359060c0013561116c565b61036361123d565b604080516001600160a01b039092168252519081900360200190f35b61026c61124c565b61028e6004803603606081101561039d57600080fd5b5080359060208101359060400135611252565b61028e600480360360408110156103c657600080fd5b5080359060200135611812565b61028e611c34565b61026c611cfd565b61028e600480360360408110156103f957600080fd5b5080359060200135611d03565b61028e612053565b6104166120b7565b604080519115158252519081900360200190f35b6103636120c0565b6103636120cf565b61026c6120de565b61026c6004803603602081101561045857600080fd5b50356001600160a01b03166120e4565b61026c6004803603602081101561047e57600080fd5b50356001600160a01b03166120f6565b610416612108565b61028e600480360360408110156104ac57600080fd5b5080359060200135612116565b61028e600480360360408110156104cf57600080fd5b5080359060200135612463565b61026c612833565b61026c612839565b61026c61283f565b61028e612845565b61028e6004803603604081101561051257600080fd5b50803590602001356128b7565b61026c612c6a565b61026c612dbd565b61026c612dc4565b60106020526000908152604090205481565b600d5481565b60175433600090815260136020526040902054439161056e9190612e15565b11156105ab5760405162461bcd60e51b81526004018080602001828103825260428152602001806136c36042913960600191505060405180910390fd5b336000908152600f6020526040812054819081908190156105f257336000908152600f6020526040812080549190556012549092506105ea9083612dca565b601255600193505b3360009081526010602052604090205415610631575033600090815260106020526040812080549190556011546106299082612dca565b601155600192505b831561064e5760065461064e906001600160a01b03163384612e6f565b821561066b5760025461066b906001600160a01b03163383612e6f565b50505050565b60175481565b6000546001600160a01b031633146106c05760405162461bcd60e51b815260040180806020018281038252602f81526020018061374b602f913960400191505060405180910390fd5b600180546001600160a01b03831673ffffffffffffffffffffffffffffffffffffffff19909116811790915560408051918252517f906a1c6bd7e3091ea86693dd029a831c19049ce77f1dce2ce0bab1cacbabce229181900360200190a150565b60006107f7620f42406107f17f0000000000000000000000000000000000000000000000000000000000000000600a0a6107eb601154600260009054906101000a90046001600160a01b03166001600160a01b03166370a08231306040518263ffffffff1660e01b815260040180826001600160a01b0316815260200191505060206040518083038186803b1580156107b957600080fd5b505afa1580156107cd573d6000803e3d6000fd5b505050506040513d60208110156107e357600080fd5b505190612dca565b90613007565b90613060565b90505b90565b601854610100900460ff161561085a576040805162461bcd60e51b815260206004820152601360248201527f52656465656d696e672069732070617573656400000000000000000000000000604482015290519081900360640190fd5b6007546040805163119950ad60e11b81529051620f4240926001600160a01b031691632332a15a916004808301926020929190829003018186803b1580156108a157600080fd5b505afa1580156108b5573d6000803e3d6000fd5b505050506040513d60208110156108cb57600080fd5b50511461091f576040805162461bcd60e51b815260206004820152601d60248201527f436f6c6c61746572616c20726174696f206d757374206265203d3d2031000000604482015290519081900360640190fd5b600061094e837f0000000000000000000000000000000000000000000000000000000000000000600a0a613060565b9050600073__$c62d9d844820a7ef31bfe5c244420fd885$__6335fdfbd4610974612dbd565b846040518363ffffffff1660e01b8152600401808381526020018281526020019250505060206040518083038186803b1580156109b057600080fd5b505af41580156109c4573d6000803e3d6000fd5b505050506040513d60208110156109da57600080fd5b5051600c54909150610a0190620f4240906107f1906109fa908390612dca565b8490613007565b601154600254604080516370a0823160e01b81523060048201529051939450610a56936001600160a01b03909216916370a0823191602480820192602092909190829003018186803b1580156107b957600080fd5b811115610aaa576040805162461bcd60e51b815260206004820152601d60248201527f4e6f7420656e6f75676820636f6c6c61746572616c20696e20706f6f6c000000604482015290519081900360640190fd5b80831115610af8576040805162461bcd60e51b815260206004820152601660248201527514db1a5c1c1859d9481b1a5b5a5d081c995858da195960521b604482015290519081900360640190fd5b33600090815260106020526040902054610b129082612e15565b33600090815260106020526040902055601154610b2f9082612e15565b60115533600081815260136020526040808220439055600754815163dbf6b9b560e01b815260048101949094526024840188905290516001600160a01b039091169263dbf6b9b592604480830193919282900301818387803b158015610b9457600080fd5b505af1158015610ba8573d6000803e3d6000fd5b5050505050505050565b601854610100900460ff1615610c0f576040805162461bcd60e51b815260206004820152601360248201527f52656465656d696e672069732070617573656400000000000000000000000000604482015290519081900360640190fd5b6008546007546040805162388d5960e51b815290516000936001600160a01b039081169363b3596f0793911691630711ab2091600480820192602092909190829003018186803b158015610c6257600080fd5b505afa158015610c76573d6000803e3d6000fd5b505050506040513d6020811015610c8c57600080fd5b5051604080516001600160e01b031960e085901b1681526001600160a01b039092166004830152516024808301926020929190829003018186803b158015610cd357600080fd5b505afa158015610ce7573d6000803e3d6000fd5b505050506040513d6020811015610cfd57600080fd5b50516007546040805163119950ad60e11b815290519293506000926001600160a01b0390921691632332a15a91600480820192602092909190829003018186803b158015610d4a57600080fd5b505afa158015610d5e573d6000803e3d6000fd5b505050506040513d6020811015610d7457600080fd5b50519050620f424081108015610d8a5750600081115b610dc55760405162461bcd60e51b81526004018080602001828103825260388152602001806136686038913960400191505060405180910390fd5b6000610dcf612dbd565b90506000610dfc620f42406107f1610df5600c54620f4240612dca90919063ffffffff16565b8a90613007565b90506000610e1b610e14620f42406107f18588613007565b8390612dca565b90506000610e30866107f184620f4240613007565b90506000610e61847f0000000000000000000000000000000000000000000000000000000000000000600a0a613060565b90506000610e76620f42406107f1848a613007565b90506000610e8b876107f184620f4240613007565b601154600254604080516370a0823160e01b81523060048201529051939450610ee0936001600160a01b03909216916370a0823191602480820192602092909190829003018186803b1580156107b957600080fd5b811115610f34576040805162461bcd60e51b815260206004820152601d60248201527f4e6f7420656e6f75676820636f6c6c61746572616c20696e20706f6f6c000000604482015290519081900360640190fd5b808a1115610f735760405162461bcd60e51b81526004018080602001828103825260238152602001806136a06023913960400191505060405180910390fd5b838b1115610fc8576040805162461bcd60e51b815260206004820152601d60248201527f536c697070616765206c696d69742072656163686564205b43414d505d000000604482015290519081900360640190fd5b33600090815260106020526040902054610fe29082612e15565b33600090815260106020526040902055601154610fff9082612e15565b601155336000908152600f602052604090205461101c9085612e15565b336000908152600f60205260409020556012546110399085612e15565b6012819055504360136000336001600160a01b03166001600160a01b0316815260200190815260200160002081905550600760009054906101000a90046001600160a01b03166001600160a01b031663dbf6b9b5338e6040518363ffffffff1660e01b815260040180836001600160a01b0316815260200182815260200192505050600060405180830381600087803b1580156110d557600080fd5b505af11580156110e9573d6000803e3d6000fd5b50506006546040805163dbe263a560e01b81523060048201526024810189905290516001600160a01b03909216935063dbe263a5925060448082019260009290919082900301818387803b15801561114057600080fd5b505af1158015611154573d6000803e3d6000fd5b50505050505050505050505050505050565b60165481565b6000546001600160a01b031633146111b55760405162461bcd60e51b815260040180806020018281038252602f81526020018061374b602f913960400191505060405180910390fd5b601487905560168690556017859055600b849055600c839055600d829055600e8190556040805188815260208101889052808201879052606081018690526080810185905260a0810184905260c0810183905290517f17fe98b66d27bd793ea01bd8a23a54acab8eeb167d9eb016a0c7cd71c573920c9181900360e00190a150505050505050565b6001546001600160a01b031681565b60145481565b60185460ff161561129e576040805162461bcd60e51b8152602060048201526011602482015270135a5b9d1a5b99c81a5cc81c185d5cd959607a1b604482015290519081900360640190fd5b6008546007546040805162388d5960e51b815290516000936001600160a01b039081169363b3596f0793911691630711ab2091600480820192602092909190829003018186803b1580156112f157600080fd5b505afa158015611305573d6000803e3d6000fd5b505050506040513d602081101561131b57600080fd5b5051604080516001600160e01b031960e085901b1681526001600160a01b039092166004830152516024808301926020929190829003018186803b15801561136257600080fd5b505afa158015611376573d6000803e3d6000fd5b505050506040513d602081101561138c57600080fd5b50516007546040805163119950ad60e11b815290519293506000926001600160a01b0390921691632332a15a91600480820192602092909190829003018186803b1580156113d957600080fd5b505afa1580156113ed573d6000803e3d6000fd5b505050506040513d602081101561140357600080fd5b50519050620f4240811080156114195750600081115b6114545760405162461bcd60e51b81526004018080602001828103825260388152602001806136686038913960400191505060405180910390fd5b601454601154600254604080516370a0823160e01b815230600482015290516114b6938a936114b09391926001600160a01b03909116916370a08231916024808301926020929190829003018186803b1580156107b957600080fd5b90612e15565b11156114f35760405162461bcd60e51b815260040180806020018281038252604681526020018061379b6046913960600191505060405180910390fd5b7f0000000000000000000000000000000000000000000000000000000000000000600a0a850261152161357f565b6040805160a0810180835260085460075462388d5960e51b9092529251919283926001600160a01b039182169263b3596f07921690630711ab209060a480870191602091818903018186803b15801561157957600080fd5b505afa15801561158d573d6000803e3d6000fd5b505050506040513d60208110156115a357600080fd5b5051604080516001600160e01b031960e085901b1681526001600160a01b039092166004830152516024808301926020929190829003018186803b1580156115ea57600080fd5b505afa1580156115fe573d6000803e3d6000fd5b505050506040513d602081101561161457600080fd5b50518152602001611623612dbd565b8152602001878152602001838152602001848152509050600080611646836130a2565b91509150611673620f42406107f161166c600b54620f4240612dca90919063ffffffff16565b8590613007565b9150818711156116c3576040805162461bcd60e51b815260206004820152601660248201527514db1a5c1c1859d9481b1a5b5a5d081c995858da195960521b604482015290519081900360640190fd5b87811115611718576040805162461bcd60e51b815260206004820152601860248201527f4e6f7420656e6f7567682043414d5020696e7075747465640000000000000000604482015290519081900360640190fd5b6006546040805163dbf6b9b560e01b81523360048201526024810184905290516001600160a01b039092169163dbf6b9b59160448082019260009290919082900301818387803b15801561176b57600080fd5b505af115801561177f573d6000803e3d6000fd5b505060025461179c92506001600160a01b0316905033308c613151565b6007546040805163dbe263a560e01b81523360048201526024810185905290516001600160a01b039092169163dbe263a59160448082019260009290919082900301818387803b1580156117ef57600080fd5b505af1158015611803573d6000803e3d6000fd5b50505050505050505050505050565b6008546007546040805162388d5960e51b815290517f0000000000000000000000000000000000000000000000000000000000000000600a0a8602936000936001600160a01b039182169363b3596f07939190921691630711ab20916004808301926020929190829003018186803b15801561188d57600080fd5b505afa1580156118a1573d6000803e3d6000fd5b505050506040513d60208110156118b757600080fd5b5051604080516001600160e01b031960e085901b1681526001600160a01b039092166004830152516024808301926020929190829003018186803b1580156118fe57600080fd5b505afa158015611912573d6000803e3d6000fd5b505050506040513d602081101561192857600080fd5b5051600754604080517f18160ddd00000000000000000000000000000000000000000000000000000000815290519293506000926001600160a01b03909216916318160ddd91600480820192602092909190829003018186803b15801561198e57600080fd5b505afa1580156119a2573d6000803e3d6000fd5b505050506040513d60208110156119b857600080fd5b50516007546040805163119950ad60e11b815290519293506000926001600160a01b0390921691632332a15a91600480820192602092909190829003018186803b158015611a0557600080fd5b505afa158015611a19573d6000803e3d6000fd5b505050506040513d6020811015611a2f57600080fd5b505190506000611a3d610721565b905060008073__$c62d9d844820a7ef31bfe5c244420fd885$__633d09934e88611a65612dbd565b8689896040518663ffffffff1660e01b81526004018086815260200185815260200184815260200183815260200182815260200195505050505050604080518083038186803b158015611ab757600080fd5b505af4158015611acb573d6000803e3d6000fd5b505050506040513d6040811015611ae157600080fd5b50805160209091015190925090506000611b1e837f0000000000000000000000000000000000000000000000000000000000000000600a0a613060565b90506000611b54886107f1611b4d600e54611b47601654620f4240612e1590919063ffffffff16565b90612dca565b8690613007565b9050808a1115611ba4576040805162461bcd60e51b815260206004820152601660248201527514db1a5c1c1859d9481b1a5b5a5d081c995858da195960521b604482015290519081900360640190fd5b600254611bbc906001600160a01b0316333085613151565b6006546040805163dbe263a560e01b81523360048201526024810184905290516001600160a01b039092169163dbe263a59160448082019260009290919082900301818387803b158015611c0f57600080fd5b505af1158015611c23573d6000803e3d6000fd5b505050505050505050505050505050565b6001546001600160a01b03163314611c7d5760405162461bcd60e51b81526004018080602001828103825260358152602001806136036035913960400191505060405180910390fd5b600054600154604080516001600160a01b03938416815292909116602083015280517fb532073b38c83145e3e5135377a08bf9aab55bc0fd7c1179cd4fb995d2a5159c9281900390910190a1600180546000805473ffffffffffffffffffffffffffffffffffffffff199081166001600160a01b03841617909155169055565b60115481565b60185460ff1615611d4f576040805162461bcd60e51b8152602060048201526011602482015270135a5b9d1a5b99c81a5cc81c185d5cd959607a1b604482015290519081900360640190fd5b6007546040805163119950ad60e11b815290517f0000000000000000000000000000000000000000000000000000000000000000600a0a850292620f4240926001600160a01b0390911691632332a15a91600480820192602092909190829003018186803b158015611dc057600080fd5b505afa158015611dd4573d6000803e3d6000fd5b505050506040513d6020811015611dea57600080fd5b50511015611e3f576040805162461bcd60e51b815260206004820152601d60248201527f436f6c6c61746572616c20726174696f206d757374206265203e3d2031000000604482015290519081900360640190fd5b601454601154600254604080516370a0823160e01b81523060048201529051611e9b9388936114b09391926001600160a01b03909116916370a08231916024808301926020929190829003018186803b1580156107b957600080fd5b1115611eee576040805162461bcd60e51b815260206004820181905260248201527f5b506f6f6c277320436c6f7365645d3a204365696c696e672072656163686564604482015290519081900360640190fd5b600073__$c62d9d844820a7ef31bfe5c244420fd885$__634f12ac5a611f12612dbd565b846040518363ffffffff1660e01b8152600401808381526020018281526020019250505060206040518083038186803b158015611f4e57600080fd5b505af4158015611f62573d6000803e3d6000fd5b505050506040513d6020811015611f7857600080fd5b5051600b54909150611f9890620f4240906107f1906109fa908390612dca565b905080831115611fe8576040805162461bcd60e51b815260206004820152601660248201527514db1a5c1c1859d9481b1a5b5a5d081c995858da195960521b604482015290519081900360640190fd5b600254612000906001600160a01b0316333087613151565b6007546040805163dbe263a560e01b81523360048201526024810184905290516001600160a01b039092169163dbe263a59160448082019260009290919082900301818387803b158015610b9457600080fd5b6000546001600160a01b0316331461206a57600080fd5b6018805460ff19811660ff918216151791829055604080519290911615158252517f6bdfe227d5db299c59aa56d5f846f40dbd73b271aaa78e18ed74fc3e00b8aa6b9181900360200190a1565b60185460ff1681565b6000546001600160a01b031681565b6009546001600160a01b031681565b60125481565b600f6020526000908152604090205481565b60136020526000908152604090205481565b601854610100900460ff1681565b6008546007546040805162388d5960e51b815290516000936001600160a01b039081169363b3596f0793911691630711ab2091600480820192602092909190829003018186803b15801561216957600080fd5b505afa15801561217d573d6000803e3d6000fd5b505050506040513d602081101561219357600080fd5b5051604080516001600160e01b031960e085901b1681526001600160a01b039092166004830152516024808301926020929190829003018186803b1580156121da57600080fd5b505afa1580156121ee573d6000803e3d6000fd5b505050506040513d602081101561220457600080fd5b505190506122106135ae565b6040518060800160405280612223612c6a565b81526008546007546040805162388d5960e51b815290516020948501946001600160a01b039485169463b3596f07941692630711ab209260048083019392829003018186803b15801561227557600080fd5b505afa158015612289573d6000803e3d6000fd5b505050506040513d602081101561229f57600080fd5b5051604080516001600160e01b031960e085901b1681526001600160a01b039092166004830152516024808301926020929190829003018186803b1580156122e657600080fd5b505afa1580156122fa573d6000803e3d6000fd5b505050506040513d602081101561231057600080fd5b5051815260200161231f612dbd565b81526020018581525090506000612357620f42406107f161234e600d54620f4240612dca90919063ffffffff16565b6107eb866132d4565b90506000612388827f0000000000000000000000000000000000000000000000000000000000000000600a0a613060565b9050808511156123d8576040805162461bcd60e51b815260206004820152601660248201527514db1a5c1c1859d9481b1a5b5a5d081c995858da195960521b604482015290519081900360640190fd5b6006546040805163dbf6b9b560e01b81523360048201526024810189905290516001600160a01b039092169163dbf6b9b59160448082019260009290919082900301818387803b15801561242b57600080fd5b505af115801561243f573d6000803e3d6000fd5b505060025461245b92506001600160a01b031690503383612e6f565b505050505050565b601854610100900460ff16156124c0576040805162461bcd60e51b815260206004820152601360248201527f52656465656d696e672069732070617573656400000000000000000000000000604482015290519081900360640190fd5b6008546007546040805162388d5960e51b815290516000936001600160a01b039081169363b3596f0793911691630711ab2091600480820192602092909190829003018186803b15801561251357600080fd5b505afa158015612527573d6000803e3d6000fd5b505050506040513d602081101561253d57600080fd5b5051604080516001600160e01b031960e085901b1681526001600160a01b039092166004830152516024808301926020929190829003018186803b15801561258457600080fd5b505afa158015612598573d6000803e3d6000fd5b505050506040513d60208110156125ae57600080fd5b50516007546040805163119950ad60e11b815290519293506000926001600160a01b0390921691632332a15a91600480820192602092909190829003018186803b1580156125fb57600080fd5b505afa15801561260f573d6000803e3d6000fd5b505050506040513d602081101561262557600080fd5b50519050801561267c576040805162461bcd60e51b815260206004820152601a60248201527f436f6c6c61746572616c20726174696f206d7573742062652030000000000000604482015290519081900360640190fd5b60008490506126a3620f42406107f16109fa600c54620f4240612dca90919063ffffffff16565b905060006126b8846107f184620f4240613007565b336000908152600f60205260409020549091506126d59082612e15565b336000908152600f60205260409020556012546126f29082612e15565b60125533600090815260136020526040902043905580851115612755576040805162461bcd60e51b815260206004820152601660248201527514db1a5c1c1859d9481b1a5b5a5d081c995858da195960521b604482015290519081900360640190fd5b6007546040805163dbf6b9b560e01b81523360048201526024810189905290516001600160a01b039092169163dbf6b9b59160448082019260009290919082900301818387803b1580156127a857600080fd5b505af11580156127bc573d6000803e3d6000fd5b50506006546040805163dbe263a560e01b81523060048201526024810186905290516001600160a01b03909216935063dbe263a5925060448082019260009290919082900301818387803b15801561281357600080fd5b505af1158015612827573d6000803e3d6000fd5b50505050505050505050565b600b5481565b60155481565b600c5481565b6000546001600160a01b0316331461285c57600080fd5b6018805460ff610100808304821615810261ff001990931692909217928390556040805192909304161515815290517f5860c5063a65e23cea4e2e2925f1a841bb6d1bc9615bd425f8dd084980b051419181900360200190a1565b60185460ff1615612903576040805162461bcd60e51b8152602060048201526011602482015270135a5b9d1a5b99c81a5cc81c185d5cd959607a1b604482015290519081900360640190fd5b6008546007546040805162388d5960e51b815290516000936001600160a01b039081169363b3596f0793911691630711ab2091600480820192602092909190829003018186803b15801561295657600080fd5b505afa15801561296a573d6000803e3d6000fd5b505050506040513d602081101561298057600080fd5b5051604080516001600160e01b031960e085901b1681526001600160a01b039092166004830152516024808301926020929190829003018186803b1580156129c757600080fd5b505afa1580156129db573d6000803e3d6000fd5b505050506040513d60208110156129f157600080fd5b50516007546040805163119950ad60e11b815290519293506001600160a01b0390911691632332a15a91600480820192602092909190829003018186803b158015612a3b57600080fd5b505afa158015612a4f573d6000803e3d6000fd5b505050506040513d6020811015612a6557600080fd5b505115612ab9576040805162461bcd60e51b815260206004820152601a60248201527f436f6c6c61746572616c20726174696f206d7573742062652030000000000000604482015290519081900360640190fd5b600073__$c62d9d844820a7ef31bfe5c244420fd885$__63942adf5083866040518363ffffffff1660e01b8152600401808381526020018281526020019250505060206040518083038186803b158015612b1257600080fd5b505af4158015612b26573d6000803e3d6000fd5b505050506040513d6020811015612b3c57600080fd5b5051600b54909150612b5c90620f4240906107f1906109fa908390612dca565b905080831115612bac576040805162461bcd60e51b815260206004820152601660248201527514db1a5c1c1859d9481b1a5b5a5d081c995858da195960521b604482015290519081900360640190fd5b6006546040805163dbf6b9b560e01b81523360048201526024810187905290516001600160a01b039092169163dbf6b9b59160448082019260009290919082900301818387803b158015612bff57600080fd5b505af1158015612c13573d6000803e3d6000fd5b50506007546040805163dbe263a560e01b81523360048201526024810186905290516001600160a01b03909216935063dbe263a5925060448082019260009290919082900301818387803b158015610b9457600080fd5b600080600760009054906101000a90046001600160a01b03166001600160a01b03166318160ddd6040518163ffffffff1660e01b815260040160206040518083038186803b158015612cbb57600080fd5b505afa158015612ccf573d6000803e3d6000fd5b505050506040513d6020811015612ce557600080fd5b50516007546040805163119950ad60e11b815290519293506000926001600160a01b0390921691632332a15a91600480820192602092909190829003018186803b158015612d3257600080fd5b505afa158015612d46573d6000803e3d6000fd5b505050506040513d6020811015612d5c57600080fd5b505190506000612d6a610721565b9050620f4240811115612d7e57620f424091505b6000612d91620f42406107f18686613007565b905080821115612db057612da58282612dca565b9450505050506107fa565b60009450505050506107fa565b620f424090565b600e5481565b6000612e0c83836040518060400160405280601e81526020017f536166654d6174683a207375627472616374696f6e206f766572666c6f77000081525061339c565b90505b92915050565b600082820183811015612e0c576040805162461bcd60e51b815260206004820152601b60248201527f536166654d6174683a206164646974696f6e206f766572666c6f770000000000604482015290519081900360640190fd5b604080516001600160a01b038481166024830152604480830185905283518084039091018152606490920183526020820180517bffffffffffffffffffffffffffffffffffffffffffffffffffffffff167fa9059cbb00000000000000000000000000000000000000000000000000000000178152925182516000946060949389169392918291908083835b60208310612f1a5780518252601f199092019160209182019101612efb565b6001836020036101000a0380198251168184511680821785525050505050509050019150506000604051808303816000865af19150503d8060008114612f7c576040519150601f19603f3d011682016040523d82523d6000602084013e612f81565b606091505b5091509150818015612faf575080511580612faf5750808060200190516020811015612fac57600080fd5b50515b613000576040805162461bcd60e51b815260206004820152601f60248201527f5472616e7366657248656c7065723a205452414e534645525f4641494c454400604482015290519081900360640190fd5b5050505050565b60008261301657506000612e0f565b8282028284828161302357fe5b0414612e0c5760405162461bcd60e51b815260040180806020018281038252602181526020018061377a6021913960400191505060405180910390fd5b6000612e0c83836040518060400160405280601a81526020017f536166654d6174683a206469766973696f6e206279207a65726f000000000000815250613433565b6000806000806130d0620f42406130ca8760000151886040015161349890919063ffffffff16565b906134f1565b91506130f4620f42406130ca8760200151886060015161349890919063ffffffff16565b905060006131208261311a88608001516130ca620f42408761349890919063ffffffff16565b90613516565b8651909150600090613139906130ca84620f4240613498565b9050613145838361353b565b95509350505050915091565b604080516001600160a01b0385811660248301528481166044830152606480830185905283518084039091018152608490920183526020820180517bffffffffffffffffffffffffffffffffffffffffffffffffffffffff167f23b872dd0000000000000000000000000000000000000000000000000000000017815292518251600094606094938a169392918291908083835b602083106132045780518252601f1990920191602091820191016131e5565b6001836020036101000a0380198251168184511680821785525050505050509050019150506000604051808303816000865af19150503d8060008114613266576040519150601f19603f3d011682016040523d82523d6000602084013e61326b565b606091505b5091509150818015613299575080511580613299575080806020019051602081101561329657600080fd5b50515b61245b5760405162461bcd60e51b815260040180806020018281038252602481526020018061380a6024913960400191505060405180910390fd5b80516000906133145760405162461bcd60e51b81526004018080602001828103825260218152602001806137056021913960400191505060405180910390fd5b6000613338620f42406130ca8560200151866060015161349890919063ffffffff16565b835190915081111561337b5760405162461bcd60e51b81526004018080602001828103825260308152602001806136386030913960400191505060405180910390fd5b6040830151600090613394906130ca84620f4240613498565b949350505050565b6000818484111561342b5760405162461bcd60e51b81526004018080602001828103825283818151815260200191508051906020019080838360005b838110156133f05781810151838201526020016133d8565b50505050905090810190601f16801561341d5780820380516001836020036101000a031916815260200191505b509250505060405180910390fd5b505050900390565b600081836134825760405162461bcd60e51b81526020600482018181528351602484015283519092839260449091019190850190808383600083156133f05781810151838201526020016133d8565b50600083858161348e57fe5b0495945050505050565b6000826134a757506000612e0f565b828202828482816134b457fe5b0414612e0c5760405162461bcd60e51b815260040180806020018281038252602c8152602001806135d7602c913960400191505060405180910390fd5b6000612e0c838360405180606001604052806025815260200161372660259139613433565b6000612e0c83836040518060600160405280602981526020016137e16029913961339c565b600082820183811015612e0c5760405162461bcd60e51b815260040180806020018281038252602681526020018061382e6026913960400191505060405180910390fd5b6040518060a0016040528060008152602001600081526020016000815260200160008152602001600081525090565b604051806080016040528060008152602001600081526020016000815260200160008152509056fe536166654d61746855706772616465536166653a206d756c7469706c69636174696f6e206f766572666c6f77596f75206d757374206265206e6f6d696e61746564206265666f726520796f752063616e20616363657074206f776e657273686970596f752061726520747279696e6720746f20627579206261636b206d6f7265207468616e207468652065786365737321436f6c6c61746572616c20726174696f206e6565647320746f206265206265747765656e202e30303030303120616e64202e393939393939536c697070616765206c696d69742072656163686564205b636f6c6c61746572616c5d4d757374207761697420666f7220726564656d7074696f6e5f64656c617920626c6f636b73206265666f726520636f6c6c656374696e6720726564656d7074696f6e4e6f2065786365737320636f6c6c61746572616c20746f20627579206261636b21536166654d61746855706772616465536166653a206469766973696f6e206279207a65726f4f6e6c792074686520636f6e7472616374206f776e6572206d617920706572666f726d207468697320616374696f6e536166654d6174683a206d756c7469706c69636174696f6e206f766572666c6f77506f6f6c206365696c696e6720726561636865642c206e6f206d6f7265205343414d502063616e206265206d696e7465642077697468207468697320636f6c6c61746572616c536166654d61746855706772616465536166653a207375627472616374696f6e206f766572666c6f775472616e7366657248656c7065723a205452414e534645525f46524f4d5f4641494c4544536166654d61746855706772616465536166653a206164646974696f6e206f766572666c6f77a26469706673582212207cac29ea8b995e607870f7f2e5fd8d54584821f02252332bf1ef2ae2387fae7764736f6c63430007050033",
  "linkReferences": {
    "contracts/bank/Pools/SCAMPPoolLibrary.sol": {
      "SCAMPPoolLibrary": [
        {
          "length": 20,
          "start": 3528
        },
        {
          "length": 20,
          "start": 7864
        },
        {
          "length": 20,
          "start": 9062
        },
        {
          "length": 20,
          "start": 12081
        }
      ]
    }
  },
  "deployedLinkReferences": {
    "contracts/bank/Pools/SCAMPPoolLibrary.sol": {
      "SCAMPPoolLibrary": [
        {
          "length": 20,
          "start": 2388
        },
        {
          "length": 20,
          "start": 6724
        },
        {
          "length": 20,
          "start": 7922
        },
        {
          "length": 20,
          "start": 10941
        }
      ]
    }
  }
}