{
  "_format": "hh-sol-artifact-1",
  "contractName": "SCAMPBank",
  "sourceName": "contracts/bank/Pools/SCAMPBank.sol",
  "abi": [
    {
      "inputs": [
        {
          "internalType": "address",
          "name": "_SCAMP_contract_address",
          "type": "address"
        },
        {
          "internalType": "address",
          "name": "_CAMP_contract_address",
          "type": "address"
        },
        {
          "internalType": "address",
          "name": "_collateral_address",
          "type": "address"
        },
        {
          "internalType": "address",
          "name": "_creator_address",
          "type": "address"
        },
        {
          "internalType": "address",
          "name": "_oracle",
          "type": "address"
        }
      ],
      "stateMutability": "nonpayable",
      "type": "constructor"
    },
    {
      "anonymous": false,
      "inputs": [
        {
          "indexed": false,
          "internalType": "bool",
          "name": "toggled",
          "type": "bool"
        }
      ],
      "name": "MintingToggled",
      "type": "event"
    },
    {
      "anonymous": false,
      "inputs": [
        {
          "indexed": false,
          "internalType": "address",
          "name": "oldOwner",
          "type": "address"
        },
        {
          "indexed": false,
          "internalType": "address",
          "name": "newOwner",
          "type": "address"
        }
      ],
      "name": "OwnerChanged",
      "type": "event"
    },
    {
      "anonymous": false,
      "inputs": [
        {
          "indexed": false,
          "internalType": "address",
          "name": "newOwner",
          "type": "address"
        }
      ],
      "name": "OwnerNominated",
      "type": "event"
    },
    {
      "anonymous": false,
      "inputs": [
        {
          "indexed": false,
          "internalType": "uint256",
          "name": "new_ceiling",
          "type": "uint256"
        },
        {
          "indexed": false,
          "internalType": "uint256",
          "name": "new_bonus_rate",
          "type": "uint256"
        },
        {
          "indexed": false,
          "internalType": "uint256",
          "name": "new_redemption_delay",
          "type": "uint256"
        },
        {
          "indexed": false,
          "internalType": "uint256",
          "name": "new_mint_fee",
          "type": "uint256"
        },
        {
          "indexed": false,
          "internalType": "uint256",
          "name": "new_redeem_fee",
          "type": "uint256"
        },
        {
          "indexed": false,
          "internalType": "uint256",
          "name": "new_buyback_fee",
          "type": "uint256"
        },
        {
          "indexed": false,
          "internalType": "uint256",
          "name": "new_recollat_fee",
          "type": "uint256"
        }
      ],
      "name": "PoolParametersSet",
      "type": "event"
    },
    {
      "anonymous": false,
      "inputs": [
        {
          "indexed": false,
          "internalType": "bool",
          "name": "toggled",
          "type": "bool"
        }
      ],
      "name": "RedeemingToggled",
      "type": "event"
    },
    {
      "anonymous": false,
      "inputs": [
        {
          "indexed": false,
          "internalType": "uint256",
          "name": "ratio",
          "type": "uint256"
        }
      ],
      "name": "ReserveRatioset",
      "type": "event"
    },
    {
      "inputs": [],
      "name": "acceptOwnership",
      "outputs": [],
      "stateMutability": "nonpayable",
      "type": "function"
    },
    {
      "inputs": [],
      "name": "availableExcessCollatDV",
      "outputs": [
        {
          "internalType": "uint256",
          "name": "",
          "type": "uint256"
        }
      ],
      "stateMutability": "view",
      "type": "function"
    },
    {
      "inputs": [],
      "name": "bonus_rate",
      "outputs": [
        {
          "internalType": "uint256",
          "name": "",
          "type": "uint256"
        }
      ],
      "stateMutability": "view",
      "type": "function"
    },
    {
      "inputs": [
        {
          "internalType": "uint256",
          "name": "CAMP_amount",
          "type": "uint256"
        },
        {
          "internalType": "uint256",
          "name": "COLLATERAL_out_min",
          "type": "uint256"
        }
      ],
      "name": "buyBackCAMP",
      "outputs": [],
      "stateMutability": "nonpayable",
      "type": "function"
    },
    {
      "inputs": [],
      "name": "buyback_fee",
      "outputs": [
        {
          "internalType": "uint256",
          "name": "",
          "type": "uint256"
        }
      ],
      "stateMutability": "view",
      "type": "function"
    },
    {
      "inputs": [],
      "name": "collatDollarBalance",
      "outputs": [
        {
          "internalType": "uint256",
          "name": "",
          "type": "uint256"
        }
      ],
      "stateMutability": "view",
      "type": "function"
    },
    {
      "inputs": [],
      "name": "collat_klay_oracle_address",
      "outputs": [
        {
          "internalType": "address",
          "name": "",
          "type": "address"
        }
      ],
      "stateMutability": "view",
      "type": "function"
    },
    {
      "inputs": [],
      "name": "collatcirculation",
      "outputs": [
        {
          "internalType": "uint256",
          "name": "",
          "type": "uint256"
        }
      ],
      "stateMutability": "view",
      "type": "function"
    },
    {
      "inputs": [],
      "name": "collectRedemption",
      "outputs": [],
      "stateMutability": "nonpayable",
      "type": "function"
    },
    {
      "inputs": [],
      "name": "getCollateralPrice",
      "outputs": [
        {
          "internalType": "uint256",
          "name": "",
          "type": "uint256"
        }
      ],
      "stateMutability": "pure",
      "type": "function"
    },
    {
      "inputs": [
        {
          "internalType": "address",
          "name": "",
          "type": "address"
        }
      ],
      "name": "lastRedeemed",
      "outputs": [
        {
          "internalType": "uint256",
          "name": "",
          "type": "uint256"
        }
      ],
      "stateMutability": "view",
      "type": "function"
    },
    {
      "inputs": [
        {
          "internalType": "uint256",
          "name": "collateral_amount",
          "type": "uint256"
        },
        {
          "internalType": "uint256",
          "name": "SCAMP_out_min",
          "type": "uint256"
        }
      ],
      "name": "mint1t1SCAMP",
      "outputs": [],
      "stateMutability": "nonpayable",
      "type": "function"
    },
    {
      "inputs": [
        {
          "internalType": "uint256",
          "name": "CAMP_amount_d18",
          "type": "uint256"
        },
        {
          "internalType": "uint256",
          "name": "SCAMP_out_min",
          "type": "uint256"
        }
      ],
      "name": "mintAlgorithmicSCAMP",
      "outputs": [],
      "stateMutability": "nonpayable",
      "type": "function"
    },
    {
      "inputs": [
        {
          "internalType": "uint256",
          "name": "collateral_amount",
          "type": "uint256"
        },
        {
          "internalType": "uint256",
          "name": "CAMP_amount",
          "type": "uint256"
        },
        {
          "internalType": "uint256",
          "name": "SCAMP_out_min",
          "type": "uint256"
        }
      ],
      "name": "mintFractionalSCAMP",
      "outputs": [],
      "stateMutability": "nonpayable",
      "type": "function"
    },
    {
      "inputs": [],
      "name": "mintPaused",
      "outputs": [
        {
          "internalType": "bool",
          "name": "",
          "type": "bool"
        }
      ],
      "stateMutability": "view",
      "type": "function"
    },
    {
      "inputs": [],
      "name": "minting_fee",
      "outputs": [
        {
          "internalType": "uint256",
          "name": "",
          "type": "uint256"
        }
      ],
      "stateMutability": "view",
      "type": "function"
    },
    {
      "inputs": [
        {
          "internalType": "address",
          "name": "_owner",
          "type": "address"
        }
      ],
      "name": "nominateNewOwner",
      "outputs": [],
      "stateMutability": "nonpayable",
      "type": "function"
    },
    {
      "inputs": [],
      "name": "nominatedOwner",
      "outputs": [
        {
          "internalType": "address",
          "name": "",
          "type": "address"
        }
      ],
      "stateMutability": "view",
      "type": "function"
    },
    {
      "inputs": [],
      "name": "owner",
      "outputs": [
        {
          "internalType": "address",
          "name": "",
          "type": "address"
        }
      ],
      "stateMutability": "view",
      "type": "function"
    },
    {
      "inputs": [],
      "name": "pausedPrice",
      "outputs": [
        {
          "internalType": "uint256",
          "name": "",
          "type": "uint256"
        }
      ],
      "stateMutability": "view",
      "type": "function"
    },
    {
      "inputs": [],
      "name": "pool_ceiling",
      "outputs": [
        {
          "internalType": "uint256",
          "name": "",
          "type": "uint256"
        }
      ],
      "stateMutability": "view",
      "type": "function"
    },
    {
      "inputs": [],
      "name": "recollat_fee",
      "outputs": [
        {
          "internalType": "uint256",
          "name": "",
          "type": "uint256"
        }
      ],
      "stateMutability": "view",
      "type": "function"
    },
    {
      "inputs": [
        {
          "internalType": "uint256",
          "name": "collateral_amount",
          "type": "uint256"
        },
        {
          "internalType": "uint256",
          "name": "CAMP_out_min",
          "type": "uint256"
        }
      ],
      "name": "recollateralizeSCAMP",
      "outputs": [],
      "stateMutability": "nonpayable",
      "type": "function"
    },
    {
      "inputs": [
        {
          "internalType": "uint256",
          "name": "SCAMP_amount",
          "type": "uint256"
        },
        {
          "internalType": "uint256",
          "name": "COLLATERAL_out_min",
          "type": "uint256"
        }
      ],
      "name": "redeem1t1SCAMP",
      "outputs": [],
      "stateMutability": "nonpayable",
      "type": "function"
    },
    {
      "inputs": [
        {
          "internalType": "uint256",
          "name": "SCAMP_amount",
          "type": "uint256"
        },
        {
          "internalType": "uint256",
          "name": "CAMP_out_min",
          "type": "uint256"
        }
      ],
      "name": "redeemAlgorithmicSCAMP",
      "outputs": [],
      "stateMutability": "nonpayable",
      "type": "function"
    },
    {
      "inputs": [
        {
          "internalType": "address",
          "name": "",
          "type": "address"
        }
      ],
      "name": "redeemCAMPBalances",
      "outputs": [
        {
          "internalType": "uint256",
          "name": "",
          "type": "uint256"
        }
      ],
      "stateMutability": "view",
      "type": "function"
    },
    {
      "inputs": [
        {
          "internalType": "address",
          "name": "",
          "type": "address"
        }
      ],
      "name": "redeemCollateralBalances",
      "outputs": [
        {
          "internalType": "uint256",
          "name": "",
          "type": "uint256"
        }
      ],
      "stateMutability": "view",
      "type": "function"
    },
    {
      "inputs": [
        {
          "internalType": "uint256",
          "name": "SCAMP_amount",
          "type": "uint256"
        },
        {
          "internalType": "uint256",
          "name": "CAMP_out_min",
          "type": "uint256"
        },
        {
          "internalType": "uint256",
          "name": "COLLATERAL_out_min",
          "type": "uint256"
        }
      ],
      "name": "redeemFractionalSCAMP",
      "outputs": [],
      "stateMutability": "nonpayable",
      "type": "function"
    },
    {
      "inputs": [],
      "name": "redeemPaused",
      "outputs": [
        {
          "internalType": "bool",
          "name": "",
          "type": "bool"
        }
      ],
      "stateMutability": "view",
      "type": "function"
    },
    {
      "inputs": [],
      "name": "redemption_delay",
      "outputs": [
        {
          "internalType": "uint256",
          "name": "",
          "type": "uint256"
        }
      ],
      "stateMutability": "view",
      "type": "function"
    },
    {
      "inputs": [],
      "name": "redemption_fee",
      "outputs": [
        {
          "internalType": "uint256",
          "name": "",
          "type": "uint256"
        }
      ],
      "stateMutability": "view",
      "type": "function"
    },
    {
      "inputs": [],
      "name": "reserveratio",
      "outputs": [
        {
          "internalType": "uint256",
          "name": "",
          "type": "uint256"
        }
      ],
      "stateMutability": "view",
      "type": "function"
    },
    {
      "inputs": [
        {
          "internalType": "uint256",
          "name": "new_ceiling",
          "type": "uint256"
        },
        {
          "internalType": "uint256",
          "name": "new_bonus_rate",
          "type": "uint256"
        },
        {
          "internalType": "uint256",
          "name": "new_redemption_delay",
          "type": "uint256"
        },
        {
          "internalType": "uint256",
          "name": "new_mint_fee",
          "type": "uint256"
        },
        {
          "internalType": "uint256",
          "name": "new_redeem_fee",
          "type": "uint256"
        },
        {
          "internalType": "uint256",
          "name": "new_buyback_fee",
          "type": "uint256"
        },
        {
          "internalType": "uint256",
          "name": "new_recollat_fee",
          "type": "uint256"
        }
      ],
      "name": "setPoolParameters",
      "outputs": [],
      "stateMutability": "nonpayable",
      "type": "function"
    },
    {
      "inputs": [],
      "name": "toggleMinting",
      "outputs": [],
      "stateMutability": "nonpayable",
      "type": "function"
    },
    {
      "inputs": [],
      "name": "toggleRedeeming",
      "outputs": [],
      "stateMutability": "nonpayable",
      "type": "function"
    },
    {
      "inputs": [],
      "name": "unclaimedPoolCAMP",
      "outputs": [
        {
          "internalType": "uint256",
          "name": "",
          "type": "uint256"
        }
      ],
      "stateMutability": "view",
      "type": "function"
    },
    {
      "inputs": [],
      "name": "unclaimedPoolCollateral",
      "outputs": [
        {
          "internalType": "uint256",
          "name": "",
          "type": "uint256"
        }
      ],
      "stateMutability": "view",
      "type": "function"
    }
  ],
  "bytecode": "0x60a060405269d3c21bcecceda10000006014556000601555611d4c60165560016017556018805461ffff191690553480156200003a57600080fd5b50604051620039b2380380620039b2833981810160405260a08110156200006057600080fd5b50805160208201516040830151606084015160809094015192939192909190816001600160a01b038116620000f657604080517f08c379a000000000000000000000000000000000000000000000000000000000815260206004820152601960248201527f4f776e657220616464726573732063616e6e6f74206265203000000000000000604482015290519081900360640190fd5b600080546001600160a01b0319166001600160a01b038316908117825560408051928352602083019190915280517fb532073b38c83145e3e5135377a08bf9aab55bc0fd7c1179cd4fb995d2a5159c9281900390910190a1506001600160a01b038516158015906200017057506001600160a01b03841615155b80156200018557506001600160a01b03831615155b80156200019a57506001600160a01b03821615155b6200020657604080517f08c379a000000000000000000000000000000000000000000000000000000000815260206004820152601560248201527f5a65726f20616464726573732064657465637465640000000000000000000000604482015290519081900360640190fd5b600780546001600160a01b038088166001600160a01b0319928316811790935560068054888316908416811790915560048054841690941784556005805484169091179055600380548783169084168117909155600280549093161791829055604080517f313ce56700000000000000000000000000000000000000000000000000000000815290516200030294939092169263313ce567928282019260209290829003018186803b158015620002bc57600080fd5b505afa158015620002d1573d6000803e3d6000fd5b505050506040513d6020811015620002e857600080fd5b505160129060ff1662000330602090811b62002a7f17901c565b608052600880546001600160a01b0319166001600160a01b0392909216919091179055506200043692505050565b60006200037a83836040518060400160405280601e81526020017f536166654d6174683a207375627472616374696f6e206f766572666c6f7700008152506200038160201b60201c565b9392505050565b600081848411156200042e576040517f08c379a00000000000000000000000000000000000000000000000000000000081526004018080602001828103825283818151815260200191508051906020019080838360005b83811015620003f2578181015183820152602001620003d8565b50505050905090810190601f168015620004205780820380516001836020036101000a031916815260200191505b509250505060405180910390fd5b505050900390565b60805161353e620004746000398061078c528061094d5280610df6528061144d528061172152806119695280611bd652806120f6525061353e6000f3fe608060405234801561001057600080fd5b50600436106102775760003560e01c80637bb5103e11610160578063b38ea2c8116100d8578063daa504851161008c578063f61adab211610071578063f61adab214610565578063f7683bbc1461056d578063fede5c9c1461057557610277565b8063daa504851461053a578063efed9b351461054257610277565b8063c3355b8d116100bd578063c3355b8d14610522578063c74ec56a1461052a578063cb73999f1461053257610277565b8063b38ea2c8146104dc578063b7988132146104ff57610277565b80638ff2793a1161012f578063a4e0a27411610114578063a4e0a27414610488578063abae2c4c146104ae578063b235d468146104d457610277565b80638ff2793a146104785780639e643d561461048057610277565b80637bb5103e146104295780637d55094d1461044c5780637e4831d3146104545780638da5cb5b1461047057610277565b80634c634934116101f35780636526a12a116101c2578063742f3974116101a7578063742f3974146103f657806379ba5097146104195780637b0461e91461042157610277565b80636526a12a146103c55780636e5450b6146103cd57610277565b80634c634934146103505780634ebbe7621461035857806353a47bb714610399578063589917d5146103bd57610277565b80631627540c1161024a5780631cc07a951161022f5780631cc07a95146102fc5780632dadfec91461031f57806337b2bc7c1461034857610277565b80631627540c146102ce57806317284c94146102f457610277565b806308a7493d1461027c578063101197c7146102b457806312ace5a2146102bc57806315128425146102c6575b600080fd5b6102a26004803603602081101561029257600080fd5b50356001600160a01b031661057d565b60408051918252519081900360200190f35b6102a261058f565b6102c4610595565b005b6102a26106b7565b6102c4600480360360208110156102e457600080fd5b50356001600160a01b03166106bd565b6102a2610767565b6102c46004803603604081101561031257600080fd5b5080359060200135610823565b6102c46004803603606081101561033557600080fd5b5080359060208101359060400135610bde565b6102a2611122565b6102a2611128565b6102c4600480360360e081101561036e57600080fd5b5080359060208101359060408101359060608101359060808101359060a08101359060c0013561112e565b6103a16111ff565b604080516001600160a01b039092168252519081900360200190f35b6102a261120e565b6102a2611214565b6102c4600480360360608110156103e357600080fd5b508035906020810135906040013561121a565b6102c46004803603604081101561040c57600080fd5b50803590602001356116f9565b6102c4611aa6565b6102a2611b6f565b6102c46004803603604081101561043f57600080fd5b5080359060200135611b75565b6102c4611ec5565b61045c611f29565b604080519115158252519081900360200190f35b6103a1611f32565b6103a1611f41565b6102a2611f50565b6102a26004803603602081101561049e57600080fd5b50356001600160a01b0316611f56565b6102a2600480360360208110156104c457600080fd5b50356001600160a01b0316611f68565b61045c611f7a565b6102c4600480360360408110156104f257600080fd5b5080359060200135611f88565b6102c46004803603604081101561051557600080fd5b50803590602001356121f8565b6102a2612558565b6102a261255e565b6102a2612564565b6102c461256a565b6102c46004803603604081101561055857600080fd5b50803590602001356125dc565b6102a261291f565b6102a2612a72565b6102a2612a79565b60106020526000908152604090205481565b600d5481565b6017543360009081526013602052604090205443916105b49190612aca565b11156105f15760405162461bcd60e51b81526004018080602001828103825260428152602001806133786042913960600191505060405180910390fd5b336000908152600f60205260408120548190819081901561063857336000908152600f6020526040812080549190556012549092506106309083612a7f565b601255600193505b33600090815260106020526040902054156106775750336000908152601060205260408120805491905560115461066f9082612a7f565b601155600192505b831561069457600654610694906001600160a01b03163384612b24565b82156106b1576002546106b1906001600160a01b03163383612b24565b50505050565b60175481565b6000546001600160a01b031633146107065760405162461bcd60e51b815260040180806020018281038252602f815260200180613400602f913960400191505060405180910390fd5b600180546001600160a01b03831673ffffffffffffffffffffffffffffffffffffffff19909116811790915560408051918252517f906a1c6bd7e3091ea86693dd029a831c19049ce77f1dce2ce0bab1cacbabce229181900360200190a150565b601154600254604080516370a0823160e01b8152306004820152905160009361081d937f0000000000000000000000000000000000000000000000000000000000000000600a0a93610817936001600160a01b03909216916370a0823191602480820192602092909190829003018186803b1580156107e557600080fd5b505afa1580156107f9573d6000803e3d6000fd5b505050506040513d602081101561080f57600080fd5b505190612a7f565b90612cbc565b90505b90565b601854610100900460ff1615610880576040805162461bcd60e51b815260206004820152601360248201527f52656465656d696e672069732070617573656400000000000000000000000000604482015290519081900360640190fd5b6007546040805163119950ad60e11b81529051620f4240926001600160a01b031691632332a15a916004808301926020929190829003018186803b1580156108c757600080fd5b505afa1580156108db573d6000803e3d6000fd5b505050506040513d60208110156108f157600080fd5b505114610945576040805162461bcd60e51b815260206004820152601d60248201527f436f6c6c61746572616c20726174696f206d757374206265203d3d2031000000604482015290519081900360640190fd5b6000610974837f0000000000000000000000000000000000000000000000000000000000000000600a0a612d15565b9050600073__$c62d9d844820a7ef31bfe5c244420fd885$__6335fdfbd461099a612a72565b846040518363ffffffff1660e01b8152600401808381526020018281526020019250505060206040518083038186803b1580156109d657600080fd5b505af41580156109ea573d6000803e3d6000fd5b505050506040513d6020811015610a0057600080fd5b5051600c54909150610a2d90620f424090610a2790610a20908390612a7f565b8490612cbc565b90612d15565b601154600254604080516370a0823160e01b81523060048201529051939450610a82936001600160a01b03909216916370a0823191602480820192602092909190829003018186803b1580156107e557600080fd5b811115610ad6576040805162461bcd60e51b815260206004820152601d60248201527f4e6f7420656e6f75676820636f6c6c61746572616c20696e20706f6f6c000000604482015290519081900360640190fd5b80831115610b24576040805162461bcd60e51b815260206004820152601660248201527514db1a5c1c1859d9481b1a5b5a5d081c995858da195960521b604482015290519081900360640190fd5b33600090815260106020526040902054610b3e9082612aca565b33600090815260106020526040902055601154610b5b9082612aca565b60115533600081815260136020526040808220439055600754815163dbf6b9b560e01b815260048101949094526024840188905290516001600160a01b039091169263dbf6b9b592604480830193919282900301818387803b158015610bc057600080fd5b505af1158015610bd4573d6000803e3d6000fd5b5050505050505050565b601854610100900460ff1615610c3b576040805162461bcd60e51b815260206004820152601360248201527f52656465656d696e672069732070617573656400000000000000000000000000604482015290519081900360640190fd5b6008546005546040805163b3596f0760e01b81526001600160a01b0392831660048201529051600093929092169163b3596f0791602480820192602092909190829003018186803b158015610c8f57600080fd5b505afa158015610ca3573d6000803e3d6000fd5b505050506040513d6020811015610cb957600080fd5b50516007546040805163119950ad60e11b815290519293506000926001600160a01b0390921691632332a15a91600480820192602092909190829003018186803b158015610d0657600080fd5b505afa158015610d1a573d6000803e3d6000fd5b505050506040513d6020811015610d3057600080fd5b50519050620f424081108015610d465750600081115b610d815760405162461bcd60e51b815260040180806020018281038252603881526020018061331d6038913960400191505060405180910390fd5b6000610d8b612a72565b90506000610db8620f4240610a27610db1600c54620f4240612a7f90919063ffffffff16565b8a90612cbc565b90506000610dd7610dd0620f4240610a278588612cbc565b8390612a7f565b90506000610dec86610a2784620f4240612cbc565b90506000610e1d847f0000000000000000000000000000000000000000000000000000000000000000600a0a612d15565b90506000610e32620f4240610a27848a612cbc565b90506000610e4787610a2784620f4240612cbc565b601154600254604080516370a0823160e01b81523060048201529051939450610e9c936001600160a01b03909216916370a0823191602480820192602092909190829003018186803b1580156107e557600080fd5b811115610ef0576040805162461bcd60e51b815260206004820152601d60248201527f4e6f7420656e6f75676820636f6c6c61746572616c20696e20706f6f6c000000604482015290519081900360640190fd5b808a1115610f2f5760405162461bcd60e51b81526004018080602001828103825260238152602001806133556023913960400191505060405180910390fd5b838b1115610f84576040805162461bcd60e51b815260206004820152601d60248201527f536c697070616765206c696d69742072656163686564205b43414d505d000000604482015290519081900360640190fd5b33600090815260106020526040902054610f9e9082612aca565b33600090815260106020526040902055601154610fbb9082612aca565b601155336000908152600f6020526040902054610fd89085612aca565b336000908152600f6020526040902055601254610ff59085612aca565b6012819055504360136000336001600160a01b03166001600160a01b0316815260200190815260200160002081905550600760009054906101000a90046001600160a01b03166001600160a01b031663dbf6b9b5338e6040518363ffffffff1660e01b815260040180836001600160a01b0316815260200182815260200192505050600060405180830381600087803b15801561109157600080fd5b505af11580156110a5573d6000803e3d6000fd5b50506006546040805163dbe263a560e01b81523060048201526024810189905290516001600160a01b03909216935063dbe263a5925060448082019260009290919082900301818387803b1580156110fc57600080fd5b505af1158015611110573d6000803e3d6000fd5b50505050505050505050505050505050565b601a5481565b60165481565b6000546001600160a01b031633146111775760405162461bcd60e51b815260040180806020018281038252602f815260200180613400602f913960400191505060405180910390fd5b601487905560168690556017859055600b849055600c839055600d829055600e8190556040805188815260208101889052808201879052606081018690526080810185905260a0810184905260c0810183905290517f17fe98b66d27bd793ea01bd8a23a54acab8eeb167d9eb016a0c7cd71c573920c9181900360e00190a150505050505050565b6001546001600160a01b031681565b60195481565b60145481565b60185460ff1615611266576040805162461bcd60e51b8152602060048201526011602482015270135a5b9d1a5b99c81a5cc81c185d5cd959607a1b604482015290519081900360640190fd5b6008546005546040805163b3596f0760e01b81526001600160a01b0392831660048201529051600093929092169163b3596f0791602480820192602092909190829003018186803b1580156112ba57600080fd5b505afa1580156112ce573d6000803e3d6000fd5b505050506040513d60208110156112e457600080fd5b50516007546040805163119950ad60e11b815290519293506000926001600160a01b0390921691632332a15a91600480820192602092909190829003018186803b15801561133157600080fd5b505afa158015611345573d6000803e3d6000fd5b505050506040513d602081101561135b57600080fd5b50519050620f4240811080156113715750600081115b6113ac5760405162461bcd60e51b815260040180806020018281038252603881526020018061331d6038913960400191505060405180910390fd5b601454601154600254604080516370a0823160e01b8152306004820152905161140e938a936114089391926001600160a01b03909116916370a08231916024808301926020929190829003018186803b1580156107e557600080fd5b90612aca565b111561144b5760405162461bcd60e51b81526004018080602001828103825260468152602001806134506046913960600191505060405180910390fd5b7f0000000000000000000000000000000000000000000000000000000000000000600a0a8502611479613234565b6040805160a0810180835260085460055463b3596f0760e01b9092526001600160a01b0391821660a484015292519192839291169063b3596f079060c480850191602091818703018186803b1580156114d157600080fd5b505afa1580156114e5573d6000803e3d6000fd5b505050506040513d60208110156114fb57600080fd5b5051815260200161150a612a72565b815260200187815260200183815260200184815250905060008061152d83612d57565b9150915061155a620f4240610a27611553600b54620f4240612a7f90919063ffffffff16565b8590612cbc565b9150818711156115aa576040805162461bcd60e51b815260206004820152601660248201527514db1a5c1c1859d9481b1a5b5a5d081c995858da195960521b604482015290519081900360640190fd5b878111156115ff576040805162461bcd60e51b815260206004820152601860248201527f4e6f7420656e6f7567682043414d5020696e7075747465640000000000000000604482015290519081900360640190fd5b6006546040805163dbf6b9b560e01b81523360048201526024810184905290516001600160a01b039092169163dbf6b9b59160448082019260009290919082900301818387803b15801561165257600080fd5b505af1158015611666573d6000803e3d6000fd5b505060025461168392506001600160a01b0316905033308c612e06565b6007546040805163dbe263a560e01b81523360048201526024810185905290516001600160a01b039092169163dbe263a59160448082019260009290919082900301818387803b1580156116d657600080fd5b505af11580156116ea573d6000803e3d6000fd5b50505050505050505050505050565b6008546005546040805163b3596f0760e01b81526001600160a01b03928316600482015290517f0000000000000000000000000000000000000000000000000000000000000000600a0a860293600093169163b3596f07916024808301926020929190829003018186803b15801561177057600080fd5b505afa158015611784573d6000803e3d6000fd5b505050506040513d602081101561179a57600080fd5b5051600754604080517f18160ddd00000000000000000000000000000000000000000000000000000000815290519293506000926001600160a01b03909216916318160ddd91600480820192602092909190829003018186803b15801561180057600080fd5b505afa158015611814573d6000803e3d6000fd5b505050506040513d602081101561182a57600080fd5b50516007546040805163119950ad60e11b815290519293506000926001600160a01b0390921691632332a15a91600480820192602092909190829003018186803b15801561187757600080fd5b505afa15801561188b573d6000803e3d6000fd5b505050506040513d60208110156118a157600080fd5b5051905060006118af610767565b905060008073__$c62d9d844820a7ef31bfe5c244420fd885$__633d09934e886118d7612a72565b8689896040518663ffffffff1660e01b81526004018086815260200185815260200184815260200183815260200182815260200195505050505050604080518083038186803b15801561192957600080fd5b505af415801561193d573d6000803e3d6000fd5b505050506040513d604081101561195357600080fd5b50805160209091015190925090506000611990837f0000000000000000000000000000000000000000000000000000000000000000600a0a612d15565b905060006119c688610a276119bf600e546119b9601654620f4240612aca90919063ffffffff16565b90612a7f565b8690612cbc565b9050808a1115611a16576040805162461bcd60e51b815260206004820152601660248201527514db1a5c1c1859d9481b1a5b5a5d081c995858da195960521b604482015290519081900360640190fd5b600254611a2e906001600160a01b0316333085612e06565b6006546040805163dbe263a560e01b81523360048201526024810184905290516001600160a01b039092169163dbe263a59160448082019260009290919082900301818387803b158015611a8157600080fd5b505af1158015611a95573d6000803e3d6000fd5b505050505050505050505050505050565b6001546001600160a01b03163314611aef5760405162461bcd60e51b81526004018080602001828103825260358152602001806132b86035913960400191505060405180910390fd5b600054600154604080516001600160a01b03938416815292909116602083015280517fb532073b38c83145e3e5135377a08bf9aab55bc0fd7c1179cd4fb995d2a5159c9281900390910190a1600180546000805473ffffffffffffffffffffffffffffffffffffffff199081166001600160a01b03841617909155169055565b60115481565b60185460ff1615611bc1576040805162461bcd60e51b8152602060048201526011602482015270135a5b9d1a5b99c81a5cc81c185d5cd959607a1b604482015290519081900360640190fd5b6007546040805163119950ad60e11b815290517f0000000000000000000000000000000000000000000000000000000000000000600a0a850292620f4240926001600160a01b0390911691632332a15a91600480820192602092909190829003018186803b158015611c3257600080fd5b505afa158015611c46573d6000803e3d6000fd5b505050506040513d6020811015611c5c57600080fd5b50511015611cb1576040805162461bcd60e51b815260206004820152601d60248201527f436f6c6c61746572616c20726174696f206d757374206265203e3d2031000000604482015290519081900360640190fd5b601454601154600254604080516370a0823160e01b81523060048201529051611d0d9388936114089391926001600160a01b03909116916370a08231916024808301926020929190829003018186803b1580156107e557600080fd5b1115611d60576040805162461bcd60e51b815260206004820181905260248201527f5b506f6f6c277320436c6f7365645d3a204365696c696e672072656163686564604482015290519081900360640190fd5b600073__$c62d9d844820a7ef31bfe5c244420fd885$__634f12ac5a611d84612a72565b846040518363ffffffff1660e01b8152600401808381526020018281526020019250505060206040518083038186803b158015611dc057600080fd5b505af4158015611dd4573d6000803e3d6000fd5b505050506040513d6020811015611dea57600080fd5b5051600b54909150611e0a90620f424090610a2790610a20908390612a7f565b905080831115611e5a576040805162461bcd60e51b815260206004820152601660248201527514db1a5c1c1859d9481b1a5b5a5d081c995858da195960521b604482015290519081900360640190fd5b600254611e72906001600160a01b0316333087612e06565b6007546040805163dbe263a560e01b81523360048201526024810184905290516001600160a01b039092169163dbe263a59160448082019260009290919082900301818387803b158015610bc057600080fd5b6000546001600160a01b03163314611edc57600080fd5b6018805460ff19811660ff918216151791829055604080519290911615158252517f6bdfe227d5db299c59aa56d5f846f40dbd73b271aaa78e18ed74fc3e00b8aa6b9181900360200190a1565b60185460ff1681565b6000546001600160a01b031681565b6009546001600160a01b031681565b60125481565b600f6020526000908152604090205481565b60136020526000908152604090205481565b601854610100900460ff1681565b6008546005546040805163b3596f0760e01b81526001600160a01b0392831660048201529051600093929092169163b3596f0791602480820192602092909190829003018186803b158015611fdc57600080fd5b505afa158015611ff0573d6000803e3d6000fd5b505050506040513d602081101561200657600080fd5b50519050612012613263565b604051806080016040528061202561291f565b81526008546005546040805163b3596f0760e01b81526001600160a01b0392831660048201529051602094850194929093169263b3596f0792602480840193919291829003018186803b15801561207b57600080fd5b505afa15801561208f573d6000803e3d6000fd5b505050506040513d60208110156120a557600080fd5b505181526020016120b4612a72565b815260200185815250905060006120ec620f4240610a276120e3600d54620f4240612a7f90919063ffffffff16565b61081786612f89565b9050600061211d827f0000000000000000000000000000000000000000000000000000000000000000600a0a612d15565b90508085111561216d576040805162461bcd60e51b815260206004820152601660248201527514db1a5c1c1859d9481b1a5b5a5d081c995858da195960521b604482015290519081900360640190fd5b6006546040805163dbf6b9b560e01b81523360048201526024810189905290516001600160a01b039092169163dbf6b9b59160448082019260009290919082900301818387803b1580156121c057600080fd5b505af11580156121d4573d6000803e3d6000fd5b50506002546121f092506001600160a01b031690503383612b24565b505050505050565b601854610100900460ff1615612255576040805162461bcd60e51b815260206004820152601360248201527f52656465656d696e672069732070617573656400000000000000000000000000604482015290519081900360640190fd5b6008546005546040805163b3596f0760e01b81526001600160a01b0392831660048201529051600093929092169163b3596f0791602480820192602092909190829003018186803b1580156122a957600080fd5b505afa1580156122bd573d6000803e3d6000fd5b505050506040513d60208110156122d357600080fd5b50516007546040805163119950ad60e11b815290519293506000926001600160a01b0390921691632332a15a91600480820192602092909190829003018186803b15801561232057600080fd5b505afa158015612334573d6000803e3d6000fd5b505050506040513d602081101561234a57600080fd5b5051905080156123a1576040805162461bcd60e51b815260206004820152601a60248201527f436f6c6c61746572616c20726174696f206d7573742062652030000000000000604482015290519081900360640190fd5b60008490506123c8620f4240610a27610a20600c54620f4240612a7f90919063ffffffff16565b905060006123dd84610a2784620f4240612cbc565b336000908152600f60205260409020549091506123fa9082612aca565b336000908152600f60205260409020556012546124179082612aca565b6012553360009081526013602052604090204390558085111561247a576040805162461bcd60e51b815260206004820152601660248201527514db1a5c1c1859d9481b1a5b5a5d081c995858da195960521b604482015290519081900360640190fd5b6007546040805163dbf6b9b560e01b81523360048201526024810189905290516001600160a01b039092169163dbf6b9b59160448082019260009290919082900301818387803b1580156124cd57600080fd5b505af11580156124e1573d6000803e3d6000fd5b50506006546040805163dbe263a560e01b81523060048201526024810186905290516001600160a01b03909216935063dbe263a5925060448082019260009290919082900301818387803b15801561253857600080fd5b505af115801561254c573d6000803e3d6000fd5b50505050505050505050565b600b5481565b60155481565b600c5481565b6000546001600160a01b0316331461258157600080fd5b6018805460ff610100808304821615810261ff001990931692909217928390556040805192909304161515815290517f5860c5063a65e23cea4e2e2925f1a841bb6d1bc9615bd425f8dd084980b051419181900360200190a1565b60185460ff1615612628576040805162461bcd60e51b8152602060048201526011602482015270135a5b9d1a5b99c81a5cc81c185d5cd959607a1b604482015290519081900360640190fd5b6008546005546040805163b3596f0760e01b81526001600160a01b0392831660048201529051600093929092169163b3596f0791602480820192602092909190829003018186803b15801561267c57600080fd5b505afa158015612690573d6000803e3d6000fd5b505050506040513d60208110156126a657600080fd5b50516007546040805163119950ad60e11b815290519293506001600160a01b0390911691632332a15a91600480820192602092909190829003018186803b1580156126f057600080fd5b505afa158015612704573d6000803e3d6000fd5b505050506040513d602081101561271a57600080fd5b50511561276e576040805162461bcd60e51b815260206004820152601a60248201527f436f6c6c61746572616c20726174696f206d7573742062652030000000000000604482015290519081900360640190fd5b600073__$c62d9d844820a7ef31bfe5c244420fd885$__63942adf5083866040518363ffffffff1660e01b8152600401808381526020018281526020019250505060206040518083038186803b1580156127c757600080fd5b505af41580156127db573d6000803e3d6000fd5b505050506040513d60208110156127f157600080fd5b5051600b5490915061281190620f424090610a2790610a20908390612a7f565b905080831115612861576040805162461bcd60e51b815260206004820152601660248201527514db1a5c1c1859d9481b1a5b5a5d081c995858da195960521b604482015290519081900360640190fd5b6006546040805163dbf6b9b560e01b81523360048201526024810187905290516001600160a01b039092169163dbf6b9b59160448082019260009290919082900301818387803b1580156128b457600080fd5b505af11580156128c8573d6000803e3d6000fd5b50506007546040805163dbe263a560e01b81523360048201526024810186905290516001600160a01b03909216935063dbe263a5925060448082019260009290919082900301818387803b158015610bc057600080fd5b600080600760009054906101000a90046001600160a01b03166001600160a01b03166318160ddd6040518163ffffffff1660e01b815260040160206040518083038186803b15801561297057600080fd5b505afa158015612984573d6000803e3d6000fd5b505050506040513d602081101561299a57600080fd5b50516007546040805163119950ad60e11b815290519293506000926001600160a01b0390921691632332a15a91600480820192602092909190829003018186803b1580156129e757600080fd5b505afa1580156129fb573d6000803e3d6000fd5b505050506040513d6020811015612a1157600080fd5b505190506000612a1f610767565b9050620f4240821115612a3357620f424091505b6000612a46620f4240610a278686612cbc565b905080821115612a6557612a5a8282612a7f565b945050505050610820565b6000945050505050610820565b620f424090565b600e5481565b6000612ac183836040518060400160405280601e81526020017f536166654d6174683a207375627472616374696f6e206f766572666c6f770000815250613051565b90505b92915050565b600082820183811015612ac1576040805162461bcd60e51b815260206004820152601b60248201527f536166654d6174683a206164646974696f6e206f766572666c6f770000000000604482015290519081900360640190fd5b604080516001600160a01b038481166024830152604480830185905283518084039091018152606490920183526020820180517bffffffffffffffffffffffffffffffffffffffffffffffffffffffff167fa9059cbb00000000000000000000000000000000000000000000000000000000178152925182516000946060949389169392918291908083835b60208310612bcf5780518252601f199092019160209182019101612bb0565b6001836020036101000a0380198251168184511680821785525050505050509050019150506000604051808303816000865af19150503d8060008114612c31576040519150601f19603f3d011682016040523d82523d6000602084013e612c36565b606091505b5091509150818015612c64575080511580612c645750808060200190516020811015612c6157600080fd5b50515b612cb5576040805162461bcd60e51b815260206004820152601f60248201527f5472616e7366657248656c7065723a205452414e534645525f4641494c454400604482015290519081900360640190fd5b5050505050565b600082612ccb57506000612ac4565b82820282848281612cd857fe5b0414612ac15760405162461bcd60e51b815260040180806020018281038252602181526020018061342f6021913960400191505060405180910390fd5b6000612ac183836040518060400160405280601a81526020017f536166654d6174683a206469766973696f6e206279207a65726f0000000000008152506130e8565b600080600080612d85620f4240612d7f8760000151886040015161314d90919063ffffffff16565b906131a6565b9150612da9620f4240612d7f8760200151886060015161314d90919063ffffffff16565b90506000612dd582612dcf8860800151612d7f620f42408761314d90919063ffffffff16565b906131cb565b8651909150600090612dee90612d7f84620f424061314d565b9050612dfa83836131f0565b95509350505050915091565b604080516001600160a01b0385811660248301528481166044830152606480830185905283518084039091018152608490920183526020820180517bffffffffffffffffffffffffffffffffffffffffffffffffffffffff167f23b872dd0000000000000000000000000000000000000000000000000000000017815292518251600094606094938a169392918291908083835b60208310612eb95780518252601f199092019160209182019101612e9a565b6001836020036101000a0380198251168184511680821785525050505050509050019150506000604051808303816000865af19150503d8060008114612f1b576040519150601f19603f3d011682016040523d82523d6000602084013e612f20565b606091505b5091509150818015612f4e575080511580612f4e5750808060200190516020811015612f4b57600080fd5b50515b6121f05760405162461bcd60e51b81526004018080602001828103825260248152602001806134bf6024913960400191505060405180910390fd5b8051600090612fc95760405162461bcd60e51b81526004018080602001828103825260218152602001806133ba6021913960400191505060405180910390fd5b6000612fed620f4240612d7f8560200151866060015161314d90919063ffffffff16565b83519091508111156130305760405162461bcd60e51b81526004018080602001828103825260308152602001806132ed6030913960400191505060405180910390fd5b604083015160009061304990612d7f84620f424061314d565b949350505050565b600081848411156130e05760405162461bcd60e51b81526004018080602001828103825283818151815260200191508051906020019080838360005b838110156130a557818101518382015260200161308d565b50505050905090810190601f1680156130d25780820380516001836020036101000a031916815260200191505b509250505060405180910390fd5b505050900390565b600081836131375760405162461bcd60e51b81526020600482018181528351602484015283519092839260449091019190850190808383600083156130a557818101518382015260200161308d565b50600083858161314357fe5b0495945050505050565b60008261315c57506000612ac4565b8282028284828161316957fe5b0414612ac15760405162461bcd60e51b815260040180806020018281038252602c81526020018061328c602c913960400191505060405180910390fd5b6000612ac183836040518060600160405280602581526020016133db602591396130e8565b6000612ac1838360405180606001604052806029815260200161349660299139613051565b600082820183811015612ac15760405162461bcd60e51b81526004018080602001828103825260268152602001806134e36026913960400191505060405180910390fd5b6040518060a0016040528060008152602001600081526020016000815260200160008152602001600081525090565b604051806080016040528060008152602001600081526020016000815260200160008152509056fe536166654d61746855706772616465536166653a206d756c7469706c69636174696f6e206f766572666c6f77596f75206d757374206265206e6f6d696e61746564206265666f726520796f752063616e20616363657074206f776e657273686970596f752061726520747279696e6720746f20627579206261636b206d6f7265207468616e207468652065786365737321436f6c6c61746572616c20726174696f206e6565647320746f206265206265747765656e202e30303030303120616e64202e393939393939536c697070616765206c696d69742072656163686564205b636f6c6c61746572616c5d4d757374207761697420666f7220726564656d7074696f6e5f64656c617920626c6f636b73206265666f726520636f6c6c656374696e6720726564656d7074696f6e4e6f2065786365737320636f6c6c61746572616c20746f20627579206261636b21536166654d61746855706772616465536166653a206469766973696f6e206279207a65726f4f6e6c792074686520636f6e7472616374206f776e6572206d617920706572666f726d207468697320616374696f6e536166654d6174683a206d756c7469706c69636174696f6e206f766572666c6f77506f6f6c206365696c696e6720726561636865642c206e6f206d6f7265205343414d502063616e206265206d696e7465642077697468207468697320636f6c6c61746572616c536166654d61746855706772616465536166653a207375627472616374696f6e206f766572666c6f775472616e7366657248656c7065723a205452414e534645525f46524f4d5f4641494c4544536166654d61746855706772616465536166653a206164646974696f6e206f766572666c6f77a26469706673582212205749303991fe192c4c60d6adde9c6df5999c772c7469bd2c1064758c6ee4056d64736f6c63430007050033",
  "linkReferences": {
    "contracts/bank/Pools/SCAMPPoolLibrary.sol": {
      "SCAMPPoolLibrary": [
        {
          "length": 20,
          "start": 3566
        },
        {
          "length": 20,
          "start": 7466
        },
        {
          "length": 20,
          "start": 8664
        },
        {
          "length": 20,
          "start": 11238
        }
      ]
    }
  },
  "deployedLinkReferences": {
    "contracts/bank/Pools/SCAMPPoolLibrary.sol": {
      "SCAMPPoolLibrary": [
        {
          "length": 20,
          "start": 2426
        },
        {
          "length": 20,
          "start": 6326
        },
        {
          "length": 20,
          "start": 7524
        },
        {
          "length": 20,
          "start": 10098
        }
      ]
    }
  }
}