{
  "_format": "hh-sol-artifact-1",
  "contractName": "Bank",
  "sourceName": "contracts/bank/Bank.sol",
  "abi": [
    {
      "anonymous": false,
      "inputs": [
        {
          "indexed": false,
          "internalType": "bool",
          "name": "isEnabled",
          "type": "bool"
        }
      ],
      "name": "LogEnableEcr",
      "type": "event"
    },
    {
      "anonymous": false,
      "inputs": [
        {
          "indexed": false,
          "internalType": "uint256",
          "name": "collatIn",
          "type": "uint256"
        },
        {
          "indexed": false,
          "internalType": "uint256",
          "name": "cubeIn",
          "type": "uint256"
        },
        {
          "indexed": false,
          "internalType": "uint256",
          "name": "towerOut",
          "type": "uint256"
        },
        {
          "indexed": false,
          "internalType": "uint256",
          "name": "towerFee",
          "type": "uint256"
        }
      ],
      "name": "LogMint",
      "type": "event"
    },
    {
      "anonymous": false,
      "inputs": [
        {
          "indexed": false,
          "internalType": "uint256",
          "name": "towerIn",
          "type": "uint256"
        },
        {
          "indexed": false,
          "internalType": "uint256",
          "name": "collatOut",
          "type": "uint256"
        },
        {
          "indexed": false,
          "internalType": "uint256",
          "name": "cubeOut",
          "type": "uint256"
        },
        {
          "indexed": false,
          "internalType": "uint256",
          "name": "towerFee",
          "type": "uint256"
        }
      ],
      "name": "LogRedeem",
      "type": "event"
    },
    {
      "anonymous": false,
      "inputs": [
        {
          "indexed": true,
          "internalType": "address",
          "name": "arbitrager",
          "type": "address"
        }
      ],
      "name": "LogSetArbitrager",
      "type": "event"
    },
    {
      "anonymous": false,
      "inputs": [
        {
          "indexed": false,
          "internalType": "uint256",
          "name": "ecrMin",
          "type": "uint256"
        }
      ],
      "name": "LogSetEcrMin",
      "type": "event"
    },
    {
      "anonymous": false,
      "inputs": [
        {
          "indexed": false,
          "internalType": "uint256",
          "name": "mintFee",
          "type": "uint256"
        }
      ],
      "name": "LogSetMintFee",
      "type": "event"
    },
    {
      "anonymous": false,
      "inputs": [
        {
          "indexed": false,
          "internalType": "uint256",
          "name": "poolCeiling",
          "type": "uint256"
        }
      ],
      "name": "LogSetPoolCeiling",
      "type": "event"
    },
    {
      "anonymous": false,
      "inputs": [
        {
          "indexed": false,
          "internalType": "uint256",
          "name": "priceBand",
          "type": "uint256"
        }
      ],
      "name": "LogSetPriceBand",
      "type": "event"
    },
    {
      "anonymous": false,
      "inputs": [
        {
          "indexed": false,
          "internalType": "uint256",
          "name": "rctMaxPerHour",
          "type": "uint256"
        }
      ],
      "name": "LogSetRctMaxPerHour",
      "type": "event"
    },
    {
      "anonymous": false,
      "inputs": [
        {
          "indexed": false,
          "internalType": "uint256",
          "name": "redeemFee",
          "type": "uint256"
        }
      ],
      "name": "LogSetRedeemFee",
      "type": "event"
    },
    {
      "anonymous": false,
      "inputs": [
        {
          "indexed": true,
          "internalType": "address",
          "name": "swapController",
          "type": "address"
        }
      ],
      "name": "LogSetSwapController",
      "type": "event"
    },
    {
      "anonymous": false,
      "inputs": [
        {
          "indexed": false,
          "internalType": "uint256",
          "name": "swapFee",
          "type": "uint256"
        }
      ],
      "name": "LogSetSwapFee",
      "type": "event"
    },
    {
      "anonymous": false,
      "inputs": [
        {
          "indexed": false,
          "internalType": "uint256",
          "name": "tcrMin",
          "type": "uint256"
        }
      ],
      "name": "LogSetTcrMin",
      "type": "event"
    },
    {
      "anonymous": false,
      "inputs": [
        {
          "indexed": false,
          "internalType": "uint256",
          "name": "tcrMovement",
          "type": "uint256"
        }
      ],
      "name": "LogSetTcrMovement",
      "type": "event"
    },
    {
      "anonymous": false,
      "inputs": [
        {
          "indexed": false,
          "internalType": "uint32",
          "name": "updatePeriod",
          "type": "uint32"
        }
      ],
      "name": "LogSetUpdatePeriod",
      "type": "event"
    },
    {
      "anonymous": false,
      "inputs": [
        {
          "indexed": false,
          "internalType": "uint256",
          "name": "zapSlippage",
          "type": "uint256"
        }
      ],
      "name": "LogSetZapSlippage",
      "type": "event"
    },
    {
      "anonymous": false,
      "inputs": [
        {
          "indexed": false,
          "internalType": "bool",
          "name": "isPaused",
          "type": "bool"
        }
      ],
      "name": "LogToggleMintPaused",
      "type": "event"
    },
    {
      "anonymous": false,
      "inputs": [
        {
          "indexed": false,
          "internalType": "bool",
          "name": "isPaused",
          "type": "bool"
        }
      ],
      "name": "LogToggleRecollatPaused",
      "type": "event"
    },
    {
      "anonymous": false,
      "inputs": [
        {
          "indexed": false,
          "internalType": "bool",
          "name": "isPaused",
          "type": "bool"
        }
      ],
      "name": "LogToggleRedeemPaused",
      "type": "event"
    },
    {
      "anonymous": false,
      "inputs": [
        {
          "indexed": false,
          "internalType": "bool",
          "name": "isPaused",
          "type": "bool"
        }
      ],
      "name": "LogToggleUpdatePaused",
      "type": "event"
    },
    {
      "anonymous": false,
      "inputs": [
        {
          "indexed": false,
          "internalType": "bool",
          "name": "isPaused",
          "type": "bool"
        }
      ],
      "name": "LogToggleZapMintPaused",
      "type": "event"
    },
    {
      "anonymous": false,
      "inputs": [
        {
          "indexed": true,
          "internalType": "address",
          "name": "newOperator",
          "type": "address"
        }
      ],
      "name": "OperatorUpdated",
      "type": "event"
    },
    {
      "anonymous": false,
      "inputs": [
        {
          "indexed": true,
          "internalType": "address",
          "name": "previousOwner",
          "type": "address"
        },
        {
          "indexed": true,
          "internalType": "address",
          "name": "newOwner",
          "type": "address"
        }
      ],
      "name": "OwnershipTransferred",
      "type": "event"
    },
    {
      "anonymous": false,
      "inputs": [
        {
          "indexed": false,
          "internalType": "uint256",
          "name": "tcr",
          "type": "uint256"
        },
        {
          "indexed": false,
          "internalType": "uint256",
          "name": "ecr",
          "type": "uint256"
        }
      ],
      "name": "RatioUpdated",
      "type": "event"
    },
    {
      "anonymous": false,
      "inputs": [
        {
          "indexed": false,
          "internalType": "uint256",
          "name": "collatIn",
          "type": "uint256"
        },
        {
          "indexed": false,
          "internalType": "uint256",
          "name": "cubeOut",
          "type": "uint256"
        }
      ],
      "name": "Recollateralized",
      "type": "event"
    },
    {
      "anonymous": false,
      "inputs": [
        {
          "indexed": false,
          "internalType": "uint256",
          "name": "collatAmt",
          "type": "uint256"
        },
        {
          "indexed": false,
          "internalType": "uint256",
          "name": "lpAmount",
          "type": "uint256"
        }
      ],
      "name": "ZapSwapped",
      "type": "event"
    },
    {
      "inputs": [
        {
          "internalType": "uint256",
          "name": "_collatIn",
          "type": "uint256"
        }
      ],
      "name": "arbMint",
      "outputs": [],
      "stateMutability": "nonpayable",
      "type": "function"
    },
    {
      "inputs": [
        {
          "internalType": "uint256",
          "name": "_towerIn",
          "type": "uint256"
        }
      ],
      "name": "arbRedeem",
      "outputs": [],
      "stateMutability": "nonpayable",
      "type": "function"
    },
    {
      "inputs": [],
      "name": "arbitrager",
      "outputs": [
        {
          "internalType": "address",
          "name": "",
          "type": "address"
        }
      ],
      "stateMutability": "view",
      "type": "function"
    },
    {
      "inputs": [],
      "name": "blockTimestampLast",
      "outputs": [
        {
          "internalType": "uint64",
          "name": "",
          "type": "uint64"
        }
      ],
      "stateMutability": "view",
      "type": "function"
    },
    {
      "inputs": [],
      "name": "bonusRate",
      "outputs": [
        {
          "internalType": "uint256",
          "name": "",
          "type": "uint256"
        }
      ],
      "stateMutability": "view",
      "type": "function"
    },
    {
      "inputs": [],
      "name": "calcEcr",
      "outputs": [
        {
          "internalType": "uint256",
          "name": "",
          "type": "uint256"
        }
      ],
      "stateMutability": "view",
      "type": "function"
    },
    {
      "inputs": [],
      "name": "collat",
      "outputs": [
        {
          "internalType": "contract IERC20",
          "name": "",
          "type": "address"
        }
      ],
      "stateMutability": "view",
      "type": "function"
    },
    {
      "inputs": [],
      "name": "collect",
      "outputs": [],
      "stateMutability": "nonpayable",
      "type": "function"
    },
    {
      "inputs": [],
      "name": "cube",
      "outputs": [
        {
          "internalType": "contract ITowerERC20",
          "name": "",
          "type": "address"
        }
      ],
      "stateMutability": "view",
      "type": "function"
    },
    {
      "inputs": [],
      "name": "cubePair",
      "outputs": [
        {
          "internalType": "contract IUniswapV2Pair",
          "name": "",
          "type": "address"
        }
      ],
      "stateMutability": "view",
      "type": "function"
    },
    {
      "inputs": [],
      "name": "dustbin",
      "outputs": [
        {
          "internalType": "address",
          "name": "",
          "type": "address"
        }
      ],
      "stateMutability": "view",
      "type": "function"
    },
    {
      "inputs": [],
      "name": "ecr",
      "outputs": [
        {
          "internalType": "uint256",
          "name": "",
          "type": "uint256"
        }
      ],
      "stateMutability": "view",
      "type": "function"
    },
    {
      "inputs": [],
      "name": "ecrMin",
      "outputs": [
        {
          "internalType": "uint256",
          "name": "",
          "type": "uint256"
        }
      ],
      "stateMutability": "view",
      "type": "function"
    },
    {
      "inputs": [],
      "name": "enableEcr",
      "outputs": [
        {
          "internalType": "bool",
          "name": "",
          "type": "bool"
        }
      ],
      "stateMutability": "view",
      "type": "function"
    },
    {
      "inputs": [],
      "name": "info",
      "outputs": [
        {
          "internalType": "uint256",
          "name": "",
          "type": "uint256"
        },
        {
          "internalType": "uint256",
          "name": "",
          "type": "uint256"
        },
        {
          "internalType": "uint256",
          "name": "",
          "type": "uint256"
        },
        {
          "internalType": "uint256",
          "name": "",
          "type": "uint256"
        }
      ],
      "stateMutability": "view",
      "type": "function"
    },
    {
      "inputs": [
        {
          "internalType": "address",
          "name": "_collat",
          "type": "address"
        },
        {
          "internalType": "address",
          "name": "_tower",
          "type": "address"
        },
        {
          "internalType": "address",
          "name": "_cube",
          "type": "address"
        },
        {
          "internalType": "address",
          "name": "_cubePair",
          "type": "address"
        },
        {
          "internalType": "address",
          "name": "_oracle",
          "type": "address"
        },
        {
          "internalType": "address",
          "name": "_safe",
          "type": "address"
        },
        {
          "internalType": "address",
          "name": "_dustbin",
          "type": "address"
        },
        {
          "internalType": "address",
          "name": "_arbitrager",
          "type": "address"
        },
        {
          "internalType": "address",
          "name": "_profitController",
          "type": "address"
        },
        {
          "internalType": "address",
          "name": "_swapController",
          "type": "address"
        },
        {
          "internalType": "uint256",
          "name": "_tcr",
          "type": "uint256"
        }
      ],
      "name": "init",
      "outputs": [],
      "stateMutability": "nonpayable",
      "type": "function"
    },
    {
      "inputs": [
        {
          "internalType": "address",
          "name": "",
          "type": "address"
        }
      ],
      "name": "lastRedeemed",
      "outputs": [
        {
          "internalType": "uint256",
          "name": "",
          "type": "uint256"
        }
      ],
      "stateMutability": "view",
      "type": "function"
    },
    {
      "inputs": [
        {
          "internalType": "uint256",
          "name": "_collatIn",
          "type": "uint256"
        },
        {
          "internalType": "uint256",
          "name": "_cubeIn",
          "type": "uint256"
        },
        {
          "internalType": "uint256",
          "name": "_towerOutMin",
          "type": "uint256"
        }
      ],
      "name": "mint",
      "outputs": [],
      "stateMutability": "nonpayable",
      "type": "function"
    },
    {
      "inputs": [],
      "name": "mintFee",
      "outputs": [
        {
          "internalType": "uint256",
          "name": "",
          "type": "uint256"
        }
      ],
      "stateMutability": "view",
      "type": "function"
    },
    {
      "inputs": [],
      "name": "mintPaused",
      "outputs": [
        {
          "internalType": "bool",
          "name": "",
          "type": "bool"
        }
      ],
      "stateMutability": "view",
      "type": "function"
    },
    {
      "inputs": [
        {
          "internalType": "uint256",
          "name": "_amount",
          "type": "uint256"
        }
      ],
      "name": "mintTowerByProfit",
      "outputs": [],
      "stateMutability": "nonpayable",
      "type": "function"
    },
    {
      "inputs": [],
      "name": "operator",
      "outputs": [
        {
          "internalType": "address",
          "name": "",
          "type": "address"
        }
      ],
      "stateMutability": "view",
      "type": "function"
    },
    {
      "inputs": [],
      "name": "oracle",
      "outputs": [
        {
          "internalType": "contract IPriceOracle",
          "name": "",
          "type": "address"
        }
      ],
      "stateMutability": "view",
      "type": "function"
    },
    {
      "inputs": [],
      "name": "owner",
      "outputs": [
        {
          "internalType": "address",
          "name": "",
          "type": "address"
        }
      ],
      "stateMutability": "view",
      "type": "function"
    },
    {
      "inputs": [],
      "name": "poolCeiling",
      "outputs": [
        {
          "internalType": "uint256",
          "name": "",
          "type": "uint256"
        }
      ],
      "stateMutability": "view",
      "type": "function"
    },
    {
      "inputs": [],
      "name": "priceBand",
      "outputs": [
        {
          "internalType": "uint256",
          "name": "",
          "type": "uint256"
        }
      ],
      "stateMutability": "view",
      "type": "function"
    },
    {
      "inputs": [],
      "name": "profitController",
      "outputs": [
        {
          "internalType": "contract IProfitController",
          "name": "",
          "type": "address"
        }
      ],
      "stateMutability": "view",
      "type": "function"
    },
    {
      "inputs": [
        {
          "internalType": "uint256",
          "name": "",
          "type": "uint256"
        }
      ],
      "name": "rctHourlyCum",
      "outputs": [
        {
          "internalType": "uint256",
          "name": "",
          "type": "uint256"
        }
      ],
      "stateMutability": "view",
      "type": "function"
    },
    {
      "inputs": [],
      "name": "rctMaxPerHour",
      "outputs": [
        {
          "internalType": "uint256",
          "name": "",
          "type": "uint256"
        }
      ],
      "stateMutability": "view",
      "type": "function"
    },
    {
      "inputs": [],
      "name": "recollatAvailable",
      "outputs": [
        {
          "internalType": "uint256",
          "name": "",
          "type": "uint256"
        }
      ],
      "stateMutability": "view",
      "type": "function"
    },
    {
      "inputs": [],
      "name": "recollatPaused",
      "outputs": [
        {
          "internalType": "bool",
          "name": "",
          "type": "bool"
        }
      ],
      "stateMutability": "view",
      "type": "function"
    },
    {
      "inputs": [],
      "name": "recollatTheoAvailableE18",
      "outputs": [
        {
          "internalType": "uint256",
          "name": "",
          "type": "uint256"
        }
      ],
      "stateMutability": "view",
      "type": "function"
    },
    {
      "inputs": [
        {
          "internalType": "uint256",
          "name": "_collatIn",
          "type": "uint256"
        },
        {
          "internalType": "uint256",
          "name": "_cubeOutMin",
          "type": "uint256"
        }
      ],
      "name": "recollateralize",
      "outputs": [
        {
          "internalType": "uint256",
          "name": "",
          "type": "uint256"
        }
      ],
      "stateMutability": "nonpayable",
      "type": "function"
    },
    {
      "inputs": [
        {
          "internalType": "uint256",
          "name": "_towerIn",
          "type": "uint256"
        },
        {
          "internalType": "uint256",
          "name": "_cubeOutMin",
          "type": "uint256"
        },
        {
          "internalType": "uint256",
          "name": "_collatOutMin",
          "type": "uint256"
        }
      ],
      "name": "redeem",
      "outputs": [],
      "stateMutability": "nonpayable",
      "type": "function"
    },
    {
      "inputs": [
        {
          "internalType": "address",
          "name": "",
          "type": "address"
        }
      ],
      "name": "redeemCollatBal",
      "outputs": [
        {
          "internalType": "uint256",
          "name": "",
          "type": "uint256"
        }
      ],
      "stateMutability": "view",
      "type": "function"
    },
    {
      "inputs": [
        {
          "internalType": "address",
          "name": "",
          "type": "address"
        }
      ],
      "name": "redeemCubeBal",
      "outputs": [
        {
          "internalType": "uint256",
          "name": "",
          "type": "uint256"
        }
      ],
      "stateMutability": "view",
      "type": "function"
    },
    {
      "inputs": [],
      "name": "redeemFee",
      "outputs": [
        {
          "internalType": "uint256",
          "name": "",
          "type": "uint256"
        }
      ],
      "stateMutability": "view",
      "type": "function"
    },
    {
      "inputs": [],
      "name": "redeemPaused",
      "outputs": [
        {
          "internalType": "bool",
          "name": "",
          "type": "bool"
        }
      ],
      "stateMutability": "view",
      "type": "function"
    },
    {
      "inputs": [],
      "name": "renounceOwnership",
      "outputs": [],
      "stateMutability": "nonpayable",
      "type": "function"
    },
    {
      "inputs": [],
      "name": "safe",
      "outputs": [
        {
          "internalType": "contract IBankSafe",
          "name": "",
          "type": "address"
        }
      ],
      "stateMutability": "view",
      "type": "function"
    },
    {
      "inputs": [
        {
          "internalType": "address",
          "name": "_arbitrager",
          "type": "address"
        }
      ],
      "name": "setArbitrager",
      "outputs": [],
      "stateMutability": "nonpayable",
      "type": "function"
    },
    {
      "inputs": [
        {
          "internalType": "address",
          "name": "_safe",
          "type": "address"
        },
        {
          "internalType": "address",
          "name": "_dustbin",
          "type": "address"
        },
        {
          "internalType": "address",
          "name": "_profitController",
          "type": "address"
        },
        {
          "internalType": "address",
          "name": "_oracle",
          "type": "address"
        }
      ],
      "name": "setContracts",
      "outputs": [],
      "stateMutability": "nonpayable",
      "type": "function"
    },
    {
      "inputs": [
        {
          "internalType": "uint256",
          "name": "_ecrMin",
          "type": "uint256"
        }
      ],
      "name": "setEcrMin",
      "outputs": [],
      "stateMutability": "nonpayable",
      "type": "function"
    },
    {
      "inputs": [
        {
          "internalType": "uint256",
          "name": "_mintFee",
          "type": "uint256"
        }
      ],
      "name": "setMintFee",
      "outputs": [],
      "stateMutability": "nonpayable",
      "type": "function"
    },
    {
      "inputs": [
        {
          "internalType": "address",
          "name": "_operator",
          "type": "address"
        }
      ],
      "name": "setOperator",
      "outputs": [],
      "stateMutability": "nonpayable",
      "type": "function"
    },
    {
      "inputs": [
        {
          "internalType": "uint256",
          "name": "_poolCeiling",
          "type": "uint256"
        }
      ],
      "name": "setPoolCeiling",
      "outputs": [],
      "stateMutability": "nonpayable",
      "type": "function"
    },
    {
      "inputs": [
        {
          "internalType": "uint256",
          "name": "_priceBand",
          "type": "uint256"
        }
      ],
      "name": "setPriceBand",
      "outputs": [],
      "stateMutability": "nonpayable",
      "type": "function"
    },
    {
      "inputs": [
        {
          "internalType": "uint256",
          "name": "_rctMaxPerHour",
          "type": "uint256"
        }
      ],
      "name": "setRctMaxPerHour",
      "outputs": [],
      "stateMutability": "nonpayable",
      "type": "function"
    },
    {
      "inputs": [
        {
          "internalType": "uint256",
          "name": "_redeemFee",
          "type": "uint256"
        }
      ],
      "name": "setRedeemFee",
      "outputs": [],
      "stateMutability": "nonpayable",
      "type": "function"
    },
    {
      "inputs": [
        {
          "internalType": "address",
          "name": "_swapController",
          "type": "address"
        }
      ],
      "name": "setSwapController",
      "outputs": [],
      "stateMutability": "nonpayable",
      "type": "function"
    },
    {
      "inputs": [
        {
          "internalType": "uint256",
          "name": "_swapFee",
          "type": "uint256"
        }
      ],
      "name": "setSwapFee",
      "outputs": [],
      "stateMutability": "nonpayable",
      "type": "function"
    },
    {
      "inputs": [
        {
          "internalType": "uint256",
          "name": "_tcrMin",
          "type": "uint256"
        }
      ],
      "name": "setTcrMin",
      "outputs": [],
      "stateMutability": "nonpayable",
      "type": "function"
    },
    {
      "inputs": [
        {
          "internalType": "uint256",
          "name": "_tcrMovement",
          "type": "uint256"
        }
      ],
      "name": "setTcrMovement",
      "outputs": [],
      "stateMutability": "nonpayable",
      "type": "function"
    },
    {
      "inputs": [
        {
          "internalType": "uint32",
          "name": "_updatePeriod",
          "type": "uint32"
        }
      ],
      "name": "setUpdatePeriod",
      "outputs": [],
      "stateMutability": "nonpayable",
      "type": "function"
    },
    {
      "inputs": [
        {
          "internalType": "uint256",
          "name": "_zapSlippage",
          "type": "uint256"
        }
      ],
      "name": "setZapSlippage",
      "outputs": [],
      "stateMutability": "nonpayable",
      "type": "function"
    },
    {
      "inputs": [],
      "name": "swapController",
      "outputs": [
        {
          "internalType": "contract ISwapController",
          "name": "",
          "type": "address"
        }
      ],
      "stateMutability": "view",
      "type": "function"
    },
    {
      "inputs": [],
      "name": "tcr",
      "outputs": [
        {
          "internalType": "uint256",
          "name": "",
          "type": "uint256"
        }
      ],
      "stateMutability": "view",
      "type": "function"
    },
    {
      "inputs": [],
      "name": "tcrMin",
      "outputs": [
        {
          "internalType": "uint256",
          "name": "",
          "type": "uint256"
        }
      ],
      "stateMutability": "view",
      "type": "function"
    },
    {
      "inputs": [],
      "name": "tcrMovement",
      "outputs": [
        {
          "internalType": "uint256",
          "name": "",
          "type": "uint256"
        }
      ],
      "stateMutability": "view",
      "type": "function"
    },
    {
      "inputs": [],
      "name": "toggleEnableEcr",
      "outputs": [],
      "stateMutability": "nonpayable",
      "type": "function"
    },
    {
      "inputs": [],
      "name": "toggleMintPaused",
      "outputs": [],
      "stateMutability": "nonpayable",
      "type": "function"
    },
    {
      "inputs": [],
      "name": "toggleRecollatPaused",
      "outputs": [],
      "stateMutability": "nonpayable",
      "type": "function"
    },
    {
      "inputs": [],
      "name": "toggleRedeemPaused",
      "outputs": [],
      "stateMutability": "nonpayable",
      "type": "function"
    },
    {
      "inputs": [],
      "name": "toggleUpdatePaused",
      "outputs": [],
      "stateMutability": "nonpayable",
      "type": "function"
    },
    {
      "inputs": [],
      "name": "toggleZapMintPaused",
      "outputs": [],
      "stateMutability": "nonpayable",
      "type": "function"
    },
    {
      "inputs": [],
      "name": "totalCollatAmt",
      "outputs": [
        {
          "internalType": "uint256",
          "name": "",
          "type": "uint256"
        }
      ],
      "stateMutability": "view",
      "type": "function"
    },
    {
      "inputs": [],
      "name": "tower",
      "outputs": [
        {
          "internalType": "contract ITowerERC20",
          "name": "",
          "type": "address"
        }
      ],
      "stateMutability": "view",
      "type": "function"
    },
    {
      "inputs": [
        {
          "internalType": "address",
          "name": "newOwner",
          "type": "address"
        }
      ],
      "name": "transferOwnership",
      "outputs": [],
      "stateMutability": "nonpayable",
      "type": "function"
    },
    {
      "inputs": [],
      "name": "unclaimedCollat",
      "outputs": [
        {
          "internalType": "uint256",
          "name": "",
          "type": "uint256"
        }
      ],
      "stateMutability": "view",
      "type": "function"
    },
    {
      "inputs": [],
      "name": "unclaimedCube",
      "outputs": [
        {
          "internalType": "uint256",
          "name": "",
          "type": "uint256"
        }
      ],
      "stateMutability": "view",
      "type": "function"
    },
    {
      "inputs": [],
      "name": "update",
      "outputs": [],
      "stateMutability": "nonpayable",
      "type": "function"
    },
    {
      "inputs": [],
      "name": "updatePaused",
      "outputs": [
        {
          "internalType": "bool",
          "name": "",
          "type": "bool"
        }
      ],
      "stateMutability": "view",
      "type": "function"
    },
    {
      "inputs": [],
      "name": "updatePeriod",
      "outputs": [
        {
          "internalType": "uint32",
          "name": "",
          "type": "uint32"
        }
      ],
      "stateMutability": "view",
      "type": "function"
    },
    {
      "inputs": [
        {
          "internalType": "uint256",
          "name": "_collatIn",
          "type": "uint256"
        },
        {
          "internalType": "uint256",
          "name": "_towerOutMin",
          "type": "uint256"
        }
      ],
      "name": "zapMint",
      "outputs": [],
      "stateMutability": "nonpayable",
      "type": "function"
    },
    {
      "inputs": [],
      "name": "zapMintPaused",
      "outputs": [
        {
          "internalType": "bool",
          "name": "",
          "type": "bool"
        }
      ],
      "stateMutability": "view",
      "type": "function"
    },
    {
      "inputs": [],
      "name": "zapSlippage",
      "outputs": [
        {
          "internalType": "uint256",
          "name": "",
          "type": "uint256"
        }
      ],
      "stateMutability": "view",
      "type": "function"
    }
  ],
  "bytecode": "0x60806040526002805461ffff60b01b19167601000000000000000000000000000000000000000000001790556103e86200003e620f424060046200036d565b6200004a919062000333565b60035561271062000060620f424060196200036d565b6200006c919062000333565b6004556005805463ffffffff1916610e10179055606462000092620f424060506200036d565b6200009e919062000333565b6006556064620000b3620f424060506200036d565b620000bf919062000333565b6007556008805462ffffff191690556103e8620000e1620f424060036200036d565b620000ed919062000333565b6009556103e862000103620f424060046200036d565b6200010f919062000333565b600a55606462000124620f424060036200036d565b62000130919062000333565b600b556103e86200014561271060026200036d565b62000151919062000333565b600c55611388600d556000600f556010805460ff191690556509184e72a000601155620f4240601c819055601d553480156200018c57600080fd5b506200019833620001ad565b60018055620001a733620001fd565b620003b2565b600080546001600160a01b038381166001600160a01b0319831681178455604051919092169283917f8be0079c531659141344cd1fd0a4f28419497f9722a3daafe3b4186f6b6457e09190a35050565b6000546001600160a01b0316331462000277576040517f08c379a000000000000000000000000000000000000000000000000000000000815260206004820181905260248201527f4f776e61626c653a2063616c6c6572206973206e6f7420746865206f776e657260448201526064015b60405180910390fd5b6001600160a01b038116620002e9576040517f08c379a000000000000000000000000000000000000000000000000000000000815260206004820152601760248201527f546f7765723a20496e76616c6964206f70657261746f7200000000000000000060448201526064016200026e565b600280546001600160a01b0319166001600160a01b0383169081179091556040517fb3b3f5f64ab192e4b5fefde1f51ce9733bbdcf831951543b325aebd49cc27ec490600090a250565b60008262000368577f4e487b710000000000000000000000000000000000000000000000000000000081526012600452602481fd5b500490565b6000816000190483118215151615620003ad577f4e487b710000000000000000000000000000000000000000000000000000000081526011600452602481fd5b500290565b615bfb80620003c26000396000f3fe608060405234801561001057600080fd5b50600436106105145760003560e01c80638913c3df116102a1578063b81922051161016b578063ddf403aa116100e3578063e9f402a411610097578063eddd0d9c1161007c578063eddd0d9c14610a19578063f2fde38b14610a2c578063f6fc551614610a3f57600080fd5b8063e9f402a414610a07578063ea83633614610a1057600080fd5b8063e5225381116100c8578063e5225381146109d9578063e771ee72146109e1578063e86bc619146109f457600080fd5b8063ddf403aa146109a6578063e1d35b7a146109b957600080fd5b8063c5700a021161013a578063d07007ee1161011f578063d07007ee14610982578063d2a99c8414610995578063da3fc10a1461099d57600080fd5b8063c5700a021461093a578063ca14df4f1461096f57600080fd5b8063b8192205146108f8578063bf989b6e1461090b578063c40aed171461091e578063c438aeb51461093157600080fd5b80639f1bf63e11610219578063af2d3739116101cd578063b15582fc116101b2578063b15582fc146108c0578063b235d468146108d3578063b3ab15fb146108e557600080fd5b8063af2d37391461089a578063afae97a3146108ad57600080fd5b8063a432a22e116101fe578063a432a22e1461084e578063a83627de14610856578063abae2c4c1461087b57600080fd5b80639f1bf63e1461083d578063a2e620451461084657600080fd5b8063959cab351161027057806398c03dc01161025557806398c03dc0146108245780639b082c571461082d5780639c9b1f7b1461083557600080fd5b8063959cab3514610808578063965fa21e1461081b57600080fd5b80638913c3df146107be5780638d73e154146107d15780638da5cb5b146107e457806393a91528146107f557600080fd5b806347ef1b64116103e25780636140133b1161035a57806376d65b3f1161030e5780637e4831d3116102f35780637e4831d31461079557806384a76527146107a257806386f93659146107ab57600080fd5b806376d65b3f1461077a5780637dc0d1d01461078257600080fd5b80636c5b19671161033f5780636c5b196714610756578063715018a61461076a578063758a2def1461077257600080fd5b80636140133b146107305780636a475ee31461074357600080fd5b806357a17d1d116103b15780635b9f3953116103965780635b9f3953146107015780635c7712111461070a5780635d841af51461071d57600080fd5b806357a17d1d146106ef5780635af123f4146106f857600080fd5b806347ef1b64146106b95780634ad30b50146106c15780634eb2d562146106d4578063570ca735146106dc57600080fd5b80631fbe30a71161049057806334e19907116104445780633aefa660116104295780633aefa660146106865780633c2892d11461069957806346864805146106ac57600080fd5b806334e1990714610647578063370158ea1461065a57600080fd5b80632c3cc073116104755780632c3cc07314610607578063333bc2cf146106105780633456e74d1461062357600080fd5b80631fbe30a7146105e157806326a5193d146105f457600080fd5b806311b43025116104e757806313966db5116104cc57806313966db5146105bc57806316351440146105c5578063186f0354146105ce57600080fd5b806311b43025146105ac5780631294279d146105b457600080fd5b806302acc94b1461051957806303ee8d5b1461052e5780630bd7d28d146105615780630bf190d214610581575b600080fd5b61052c610527366004615a24565b610a52565b005b61054e61053c36600461583c565b601e6020526000908152604090205481565b6040519081526020015b60405180910390f35b61054e61056f36600461583c565b601f6020526000908152604090205481565b601754610594906001600160a01b031681565b6040516001600160a01b039091168152602001610558565b61052c6111a2565b61052c61124d565b61054e60095481565b61054e60225481565b601954610594906001600160a01b031681565b601b54610594906001600160a01b031681565b61052c6106023660046159d3565b611321565b61054e60075481565b61052c61061e3660046159d3565b6119f3565b60025461063790600160b01b900460ff1681565b6040519015158152602001610558565b61052c6106553660046159d3565b611a8c565b601c54601d54600954600a54604080519485526020850193909352918301526060820152608001610558565b601254610594906001600160a01b031681565b61052c6106a73660046158a9565b611b1b565b6010546106379060ff1681565b61052c611e1b565b61052c6106cf366004615a4f565b611ed2565b61052c611f77565b600254610594906001600160a01b031681565b61054e600b5481565b61054e600d5481565b61054e601d5481565b601654610594906001600160a01b031681565b61052c61072b3660046159d3565b61204b565b61052c61073e3660046159d3565b6120da565b601a54610594906001600160a01b031681565b60025461063790600160b81b900460ff1681565b61052c61216c565b61054e6121d2565b61054e6122f9565b601854610594906001600160a01b031681565b6008546106379060ff1681565b61054e60045481565b61052c6107b93660046159d3565b6123de565b61052c6107cc36600461583c565b6126b4565b61052c6107df3660046159d3565b6127ae565b6000546001600160a01b0316610594565b601454610594906001600160a01b031681565b6008546106379062010000900460ff1681565b61054e600a5481565b61054e600f5481565b61054e612c4a565b61054e612d32565b61054e60035481565b61052c612eca565b61052c61319e565b6005546108669063ffffffff1681565b60405163ffffffff9091168152602001610558565b61054e61088936600461583c565b602080526000908152604090205481565b61054e6108a8366004615a03565b613243565b61052c6108bb3660046159d3565b6136cb565b61052c6108ce366004615a03565b61375d565b60085461063790610100900460ff1681565b61052c6108f336600461583c565b613ec7565b61052c610906366004615a24565b613fc1565b61052c610919366004615856565b6145b7565b61052c61092c3660046159d3565b6146f5565b61054e601c5481565b60055461095690640100000000900467ffffffffffffffff1681565b60405167ffffffffffffffff9091168152602001610558565b601554610594906001600160a01b031681565b61052c6109903660046159d3565b614787565b61052c614819565b61054e60215481565b601354610594906001600160a01b031681565b61054e6109c73660046159d3565b600e6020526000908152604090205481565b61052c6148ce565b61052c6109ef36600461583c565b614b45565b61052c610a023660046159d3565b614be9565b61054e60115481565b61054e60065481565b61052c610a273660046159d3565b614c7b565b61052c610a3a36600461583c565b614d0a565b61052c610a4d3660046159d3565b614dec565b333214610aa65760405162461bcd60e51b815260206004820152601760248201527f546f7765723a2073656e64657220213d206f726967696e00000000000000000060448201526064015b60405180910390fd5b60026001541415610af95760405162461bcd60e51b815260206004820152601f60248201527f5265656e7472616e637947756172643a207265656e7472616e742063616c6c006044820152606401610a9d565b600260015560085460ff1615610b515760405162461bcd60e51b815260206004820152601160248201527f42616e6b3a206d696e74207061757365640000000000000000000000000000006044820152606401610a9d565b60008311610ba15760405162461bcd60e51b815260206004820152601460248201527f42616e6b3a205f636f6c6c6174496e203c3d20300000000000000000000000006044820152606401610a9d565b60115460195460408051636912cb4360e01b8152905186926001600160a01b031691636912cb43916004808301926020929190829003018186803b158015610be857600080fd5b505afa158015610bfc573d6000803e3d6000fd5b505050506040513d601f19601f82011682018060405250810190610c2091906159eb565b610c2a9190615aba565b1115610c6d5760405162461bcd60e51b815260206004820152601260248201527142616e6b3a20506f6f6c204365696c696e6760701b6044820152606401610a9d565b60185460408051630e16904b60e31b815290516000926001600160a01b0316916370b48258916004808301926020929190829003018186803b158015610cb257600080fd5b505afa158015610cc6573d6000803e3d6000fd5b505050506040513d601f19601f82011682018060405250810190610cea91906159eb565b90506000620f424082610d0264e8d4a5100088615af2565b610d0c9190615af2565b610d169190615ad2565b90506000601c54620f424083610d2c9190615af2565b610d369190615ad2565b9050600080601860009054906101000a90046001600160a01b03166001600160a01b031663a9dfd4ae6040518163ffffffff1660e01b815260040160206040518083038186803b158015610d8957600080fd5b505afa158015610d9d573d6000803e3d6000fd5b505050506040513d601f19601f82011682018060405250810190610dc191906159eb565b9050620f4240601c541015610df65780620f4240610ddf8686615b11565b610de99190615af2565b610df39190615ad2565b91505b6000620f424060095485610e0a9190615af2565b610e149190615ad2565b9050610e208185615b11565b935086841015610e725760405162461bcd60e51b815260206004820152600e60248201527f42616e6b3a20736c6970706167650000000000000000000000000000000000006044820152606401610a9d565b821561105f5782881015610ec85760405162461bcd60e51b815260206004820152601560248201527f42616e6b3a206e6f7420656e6f756768204355424500000000000000000000006044820152606401610a9d565b600064e8d4a51000600288620f424080600b54620f4240610ee99190615b11565b620f4240610ef78a8c615af2565b610f019190615af2565b610f0b9190615af2565b610f159190615ad2565b610f1f9190615ad2565b610f299190615ad2565b610f339190615ad2565b610f3d9190615ad2565b601654909150610f58906001600160a01b0316333087614e7e565b601354601654610f76916001600160a01b0391821691166000614f35565b601354601654610f93916001600160a01b03918216911686614f35565b6013546040517f0926d14d0000000000000000000000000000000000000000000000000000000081526004810186905260248101839052600060448201819052916001600160a01b031690630926d14d90606401602060405180830381600087803b15801561100157600080fd5b505af1158015611015573d6000803e3d6000fd5b505050506040513d601f19601f8201168201806040525081019061103991906159eb565b601754601b549192506001600160a01b039081169161105b9183911684615097565b5050505b60195460145461107e916001600160a01b03918216913391168c614e7e565b60155460405163d198da3160e01b8152336004820152602481018690526001600160a01b039091169063d198da3190604401600060405180830381600087803b1580156110ca57600080fd5b505af11580156110de573d6000803e3d6000fd5b5050601554601a5460405163d198da3160e01b81526001600160a01b039182166004820152602481018690529116925063d198da319150604401600060405180830381600087803b15801561113257600080fd5b505af1158015611146573d6000803e3d6000fd5b5050604080518c8152602081018c9052908101879052606081018490527f470b3a537f8a8e839ae5aa0b4d39cc8a474e1caad1f8faa173a656591ff12d209250608001905060405180910390a150506001805550505050505050565b6000546001600160a01b03163314806111c557506002546001600160a01b031633145b6111ff5760405162461bcd60e51b81526020600482015260196024820152600080516020615ba68339815191526044820152606401610a9d565b6008805460ff8082161560ff1990921682179092556040519116151581527f3b151669bb471afe995f5696bc27036b00bdd7ee2a01b4f8f37f533d52745c1f906020015b60405180910390a1565b6000546001600160a01b031633148061127057506002546001600160a01b031633145b6112aa5760405162461bcd60e51b81526020600482015260196024820152600080516020615ba68339815191526044820152606401610a9d565b6002805460ff600160b81b80830482161581027fffffffffffffffff00ffffffffffffffffffffffffffffffffffffffffffffff90931692909217928390556040517fcfa20f56fe701690209037f11f58a6f427e2f3d5e6d784326440a75c6ce93fc5936112439390049091161515815260200190565b600260015414156113745760405162461bcd60e51b815260206004820152601f60248201527f5265656e7472616e637947756172643a207265656e7472616e742063616c6c006044820152606401610a9d565b60026001556012546001600160a01b031633146113d35760405162461bcd60e51b815260206004820152601d60248201527f4f6e6c79417262697472616765723a2073656e64657220213d206172620000006044820152606401610a9d565b60085462010000900460ff161561142c5760405162461bcd60e51b815260206004820152601560248201527f42616e6b3a207a6170206d696e742070617573656400000000000000000000006044820152606401610a9d565b6000811161147c5760405162461bcd60e51b815260206004820152601460248201527f42616e6b3a205f636f6c6c6174496e203c3d20300000000000000000000000006044820152606401610a9d565b60115460195460408051636912cb4360e01b8152905184926001600160a01b031691636912cb43916004808301926020929190829003018186803b1580156114c357600080fd5b505afa1580156114d7573d6000803e3d6000fd5b505050506040513d601f19601f820116820180604052508101906114fb91906159eb565b6115059190615aba565b11156115485760405162461bcd60e51b815260206004820152601260248201527142616e6b3a20506f6f6c204365696c696e6760701b6044820152606401610a9d565b60185460408051630e16904b60e31b815290516000926001600160a01b0316916370b48258916004808301926020929190829003018186803b15801561158d57600080fd5b505afa1580156115a1573d6000803e3d6000fd5b505050506040513d601f19601f820116820180604052508101906115c591906159eb565b905060006115d864e8d4a5100084615af2565b90506000601860009054906101000a90046001600160a01b03166001600160a01b031663a9dfd4ae6040518163ffffffff1660e01b815260040160206040518083038186803b15801561162a57600080fd5b505afa15801561163e573d6000803e3d6000fd5b505050506040513d601f19601f8201168201806040525081019061166291906159eb565b90506000620f4240601c54101561169c5761167e8585846150e0565b905061168f64e8d4a5100082615af2565b6116999084615b11565b92505b6014546116b4906001600160a01b0316333088614e7e565b6000811561182e576013546014546116da916001600160a01b0391821691166000614f35565b6013546014546116f7916001600160a01b03918216911684614f35565b60006002620f424085600b54620f42406117119190615b11565b61171e620f424088615af2565b6117289190615af2565b6117329190615ad2565b61173c9190615ad2565b6117469190615ad2565b6013546040516302235f7f60e61b81526004810186905260248101839052600060448201529192506001600160a01b0316906388d7dfc090606401602060405180830381600087803b15801561179b57600080fd5b505af11580156117af573d6000803e3d6000fd5b505050506040513d601f19601f820116820180604052508101906117d391906159eb565b601c549092506117e6620f424087615af2565b6117f09190615ad2565b60408051858152602081018590529196507f9a7cc9b6c1f51a777fb37d6c91eb790726cd40df4ab357f471bed3927b63652b910160405180910390a1505b6000620f424061183e8787615af2565b6118489190615ad2565b905081156118ea57601754601b546040516370a0823160e01b81523060048201526001600160a01b03928316926118e892169083906370a08231906024015b60206040518083038186803b15801561189f57600080fd5b505afa1580156118b3573d6000803e3d6000fd5b505050506040513d601f19601f820116820180604052508101906118d791906159eb565b6001600160a01b0384169190615097565b505b6019546014546040516370a0823160e01b8152306004820152611982926001600160a01b039081169216906370a08231906024015b60206040518083038186803b15801561193757600080fd5b505afa15801561194b573d6000803e3d6000fd5b505050506040513d601f19601f8201168201806040525081019061196f91906159eb565b6014546001600160a01b03169190615097565b60155460405163d198da3160e01b8152336004820152602481018390526001600160a01b039091169063d198da3190604401600060405180830381600087803b1580156119ce57600080fd5b505af11580156119e2573d6000803e3d6000fd5b505060018055505050505050505050565b6000546001600160a01b0316331480611a1657506002546001600160a01b031633145b611a505760405162461bcd60e51b81526020600482015260196024820152600080516020615ba68339815191526044820152606401610a9d565b60048190556040518181527f5a526e0b60e4eaddd85417e221a9d0fafa6c0411afb1a7d42c73b82d2fbe7566906020015b60405180910390a150565b6000546001600160a01b03163314611ae65760405162461bcd60e51b815260206004820181905260248201527f4f776e61626c653a2063616c6c6572206973206e6f7420746865206f776e65726044820152606401610a9d565b600c8190556040518181527fcd400996316c712003d1354cde05a241bc0cdbd6ecccac8c9bb3a43f73b7cde390602001611a81565b600254600160a81b900460ff16611b505760025474010000000000000000000000000000000000000000900460ff1615611b54565b303b155b611bc65760405162461bcd60e51b815260206004820152602e60248201527f496e697469616c697a61626c653a20636f6e747261637420697320616c72656160448201527f647920696e697469616c697a65640000000000000000000000000000000000006064820152608401610a9d565b600254600160a81b900460ff16158015611c1b57600280547fffffffffffffffffffff0000ffffffffffffffffffffffffffffffffffffffff1675010100000000000000000000000000000000000000001790555b6000546001600160a01b03163314611c755760405162461bcd60e51b815260206004820181905260248201527f4f776e61626c653a2063616c6c6572206973206e6f7420746865206f776e65726044820152606401610a9d565b6001600160a01b038c1615801590611c9557506001600160a01b038b1615155b8015611ca957506001600160a01b038a1615155b8015611cbd57506001600160a01b03881615155b8015611cd157506001600160a01b03871615155b611d1d5760405162461bcd60e51b815260206004820152601560248201527f42616e6b3a20696e76616c6964206164647265737300000000000000000000006044820152606401610a9d565b601480546001600160a01b03199081166001600160a01b038f8116919091179092556015805482168e84161790556016805482168d84161790556017805482168c84161790556018805482168b84161790556019805482168a8416179055601b80548216898416179055601a8054909116918616919091179055601c829055611da46153c4565b600560046101000a81548167ffffffffffffffff021916908367ffffffffffffffff160217905550611dd585614b45565b611dde836126b4565b8015611e0d57600280547fffffffffffffffffffff00ffffffffffffffffffffffffffffffffffffffffff1690555b505050505050505050505050565b6000546001600160a01b0316331480611e3e57506002546001600160a01b031633145b611e785760405162461bcd60e51b81526020600482015260196024820152600080516020615ba68339815191526044820152606401610a9d565b6008805460ff62010000808304821615810262ff00001990931692909217928390556040517fa3ece86712b79b1371236ed5576e17b758d30dd3b46bcf2c7aa9e7e764c3ffca936112439390049091161515815260200190565b6000546001600160a01b0316331480611ef557506002546001600160a01b031633145b611f2f5760405162461bcd60e51b81526020600482015260196024820152600080516020615ba68339815191526044820152606401610a9d565b6005805463ffffffff191663ffffffff83169081179091556040519081527f5ed71dddbb1db5777fb06872494f84159bd397a4a94e43227469ae8d1c09745590602001611a81565b6000546001600160a01b0316331480611f9a57506002546001600160a01b031633145b611fd45760405162461bcd60e51b81526020600482015260196024820152600080516020615ba68339815191526044820152606401610a9d565b6002805460ff600160b01b80830482161581027fffffffffffffffffff00ffffffffffffffffffffffffffffffffffffffffffff90931692909217928390556040517f404a4697fd284f3f0bb59a9cc9e874ff9a10ef77eadd2cdeeb5e86d1404585cb936112439390049091161515815260200190565b6000546001600160a01b031633146120a55760405162461bcd60e51b815260206004820181905260248201527f4f776e61626c653a2063616c6c6572206973206e6f7420746865206f776e65726044820152606401610a9d565b600a8190556040518181527ffa578a41deb1a3ff59c63398935e07480d56b67e4b31c64866b6f3175542345690602001611a81565b6000546001600160a01b03163314806120fd57506002546001600160a01b031633145b6121375760405162461bcd60e51b81526020600482015260196024820152600080516020615ba68339815191526044820152606401610a9d565b60038190556040518181527f4654033002fdd66b6aec3926a8b94bb609e5f916ef5e4f3fca705e29be0821d890602001611a81565b6000546001600160a01b031633146121c65760405162461bcd60e51b815260206004820181905260248201527f4f776e61626c653a2063616c6c6572206973206e6f7420746865206f776e65726044820152606401610a9d565b6121d060006153cf565b565b6022546014546019546040516370a0823160e01b81526001600160a01b0391821660048201526000939291909116906370a082319060240160206040518083038186803b15801561222257600080fd5b505afa158015612236573d6000803e3d6000fd5b505050506040513d601f19601f8201168201806040525081019061225a91906159eb565b601960009054906101000a90046001600160a01b03166001600160a01b0316638332b7d16040518163ffffffff1660e01b815260040160206040518083038186803b1580156122a857600080fd5b505afa1580156122bc573d6000803e3d6000fd5b505050506040513d601f19601f820116820180604052508101906122e091906159eb565b6122ea9190615aba565b6122f49190615b11565b905090565b600080601560009054906101000a90046001600160a01b03166001600160a01b03166318160ddd6040518163ffffffff1660e01b815260040160206040518083038186803b15801561234a57600080fd5b505afa15801561235e573d6000803e3d6000fd5b505050506040513d601f19601f8201168201806040525081019061238291906159eb565b9050600081601c546123949190615af2565b90506000826123a1612d32565b6123ab9190615af2565b90508181106123be576000935050505090565b620f42406123cc8284615b11565b6123d69190615ad2565b935050505090565b6000546001600160a01b031633148061240157506002546001600160a01b031633145b61243b5760405162461bcd60e51b81526020600482015260196024820152600080516020615ba68339815191526044820152606401610a9d565b6000811161248b5760405162461bcd60e51b815260206004820152601160248201527f536166653a205a65726f20616d6f756e740000000000000000000000000000006044820152606401610a9d565b601c54601d54116124de5760405162461bcd60e51b815260206004820152601060248201527f536166653a20746372203e3d20656372000000000000000000000000000000006044820152606401610a9d565b6000601c54601c54601d546124f39190615b11565b601560009054906101000a90046001600160a01b03166001600160a01b03166318160ddd6040518163ffffffff1660e01b815260040160206040518083038186803b15801561254157600080fd5b505afa158015612555573d6000803e3d6000fd5b505050506040513d601f19601f8201168201806040525081019061257991906159eb565b6125839190615af2565b61258d9190615ad2565b9050620f4240601960009054906101000a90046001600160a01b03166001600160a01b0316637d08db456040518163ffffffff1660e01b815260040160206040518083038186803b1580156125e157600080fd5b505afa1580156125f5573d6000803e3d6000fd5b505050506040513d601f19601f8201168201806040525081019061261991906159eb565b6126239083615af2565b61262d9190615ad2565b6126379082615b11565b90506000612645828461541f565b601554601a5460405163d198da3160e01b81526001600160a01b03918216600482015260248101849052929350169063d198da3190604401600060405180830381600087803b15801561269757600080fd5b505af11580156126ab573d6000803e3d6000fd5b50505050505050565b6000546001600160a01b0316331461270e5760405162461bcd60e51b815260206004820181905260248201527f4f776e61626c653a2063616c6c6572206973206e6f7420746865206f776e65726044820152606401610a9d565b6001600160a01b0381166127645760405162461bcd60e51b815260206004820152601b60248201527f456e61626c65537761703a20696e76616c6964206164647265737300000000006044820152606401610a9d565b601380546001600160a01b0319166001600160a01b0383169081179091556040517f192f69e3da4a43a5506278182434f649196214cfcddcf0ed247c8382d7cfe87490600090a250565b600260015414156128015760405162461bcd60e51b815260206004820152601f60248201527f5265656e7472616e637947756172643a207265656e7472616e742063616c6c006044820152606401610a9d565b60026001556012546001600160a01b031633146128605760405162461bcd60e51b815260206004820152601d60248201527f4f6e6c79417262697472616765723a2073656e64657220213d206172620000006044820152606401610a9d565b600854610100900460ff16156128b85760405162461bcd60e51b815260206004820152601360248201527f42616e6b3a2072656465656d20706175736564000000000000000000000000006044820152606401610a9d565b600081116129085760405162461bcd60e51b815260206004820152601060248201527f42616e6b3a20746f776572203c3d2030000000000000000000000000000000006044820152606401610a9d565b60008064e8d4a51000601860009054906101000a90046001600160a01b03166001600160a01b03166370b482586040518163ffffffff1660e01b815260040160206040518083038186803b15801561295f57600080fd5b505afa158015612973573d6000803e3d6000fd5b505050506040513d601f19601f8201168201806040525081019061299791906159eb565b6129a4620f424086615af2565b6129ae9190615ad2565b6129b89190615ad2565b9050620f4240601d541015612ab0576000620f4240601d54856129db9190615af2565b6129e59190615ad2565b6129ef9085615b11565b9050601860009054906101000a90046001600160a01b03166001600160a01b031663a9dfd4ae6040518163ffffffff1660e01b815260040160206040518083038186803b158015612a3f57600080fd5b505afa158015612a53573d6000803e3d6000fd5b505050506040513d601f19601f82011682018060405250810190612a7791906159eb565b612a84620f424083615af2565b612a8e9190615ad2565b9250620f4240601d5483612aa29190615af2565b612aac9190615ad2565b9150505b612ab86121d2565b811115612b075760405162461bcd60e51b815260206004820152601f60248201527f42616e6b3a20696e73756666696369656e742062616e6b2062616c616e6365006044820152606401610a9d565b8015612b725760195460405163d52286d760e01b8152336004820152602481018390526001600160a01b039091169063d52286d790604401600060405180830381600087803b158015612b5957600080fd5b505af1158015612b6d573d6000803e3d6000fd5b505050505b8115612bdd5760165460405163d198da3160e01b8152336004820152602481018490526001600160a01b039091169063d198da3190604401600060405180830381600087803b158015612bc457600080fd5b505af1158015612bd8573d6000803e3d6000fd5b505050505b601554604051632770a7eb60e21b8152336004820152602481018590526001600160a01b0390911690639dc29fac90604401600060405180830381600087803b158015612c2957600080fd5b505af1158015612c3d573d6000803e3d6000fd5b5050600180555050505050565b600080601860009054906101000a90046001600160a01b03166001600160a01b031663a9dfd4ae6040518163ffffffff1660e01b815260040160206040518083038186803b158015612c9b57600080fd5b505afa158015612caf573d6000803e3d6000fd5b505050506040513d601f19601f82011682018060405250810190612cd391906159eb565b90506000612cdf6122f9565b9050600082612cf1620f424084615af2565b612cfb9190615ad2565b90506000600e6000612d0b615435565b8152602001908152602001600020549050612d2981600f5484615443565b94505050505090565b600254600090600160b01b900460ff16612d4d5750601c5490565b6000620f4240601860009054906101000a90046001600160a01b03166001600160a01b03166370b482586040518163ffffffff1660e01b815260040160206040518083038186803b158015612da157600080fd5b505afa158015612db5573d6000803e3d6000fd5b505050506040513d601f19601f82011682018060405250810190612dd991906159eb565b64e8d4a51000612de76121d2565b612df19190615af2565b612dfb9190615af2565b612e059190615ad2565b90506000601560009054906101000a90046001600160a01b03166001600160a01b03166318160ddd6040518163ffffffff1660e01b815260040160206040518083038186803b158015612e5757600080fd5b505afa158015612e6b573d6000803e3d6000fd5b505050506040513d601f19601f82011682018060405250810190612e8f91906159eb565b612e9c620f424084615af2565b612ea69190615ad2565b9050612eb481600754615485565b9050612ec381620f424061541f565b9392505050565b60026001541415612f1d5760405162461bcd60e51b815260206004820152601f60248201527f5265656e7472616e637947756172643a207265656e7472616e742063616c6c006044820152606401610a9d565b6002600181905554600160b81b900460ff1615612f7c5760405162461bcd60e51b815260206004820152601360248201527f42616e6b3a2075706461746520706175736564000000000000000000000000006044820152606401610a9d565b600554600090640100000000900467ffffffffffffffff16612f9c6153c4565b612fa69190615b28565b60055490915063ffffffff1667ffffffffffffffff8216101561300b5760405162461bcd60e51b815260206004820152601560248201527f42616e6b3a2075706461746520746f6f20736f6f6e00000000000000000000006044820152606401610a9d565b601854604080517fdc37868800000000000000000000000000000000000000000000000000000000815290516000926001600160a01b03169163dc378688916004808301926020929190829003018186803b15801561306957600080fd5b505afa15801561307d573d6000803e3d6000fd5b505050506040513d601f19601f820116820180604052508101906130a191906159eb565b9050600354620f42406130b49190615aba565b8111156130de576130d6600454601c546130ce9190615b11565b600654615485565b601c55613115565b6003546130ee90620f4240615b11565b81101561311557613111600454601c546131089190615aba565b620f424061541f565b601c555b61311d612d32565b601d556131286153c4565b600560046101000a81548167ffffffffffffffff021916908367ffffffffffffffff1602179055507f3edd74a0325c6bec69d13fe3535717e39b00ff7b4d7aaa83efef9094b33b9683601c54601d5460405161318e929190918252602082015260400190565b60405180910390a1505060018055565b6000546001600160a01b03163314806131c157506002546001600160a01b031633145b6131fb5760405162461bcd60e51b81526020600482015260196024820152600080516020615ba68339815191526044820152606401610a9d565b6010805460ff8082161560ff1990921682179092556040519116151581527f47bcd541e29463ac6bae0704f1f59f94fd34f2b3e5f482d3c13dc83a96f4dab990602001611243565b6000600260015414156132985760405162461bcd60e51b815260206004820152601f60248201527f5265656e7472616e637947756172643a207265656e7472616e742063616c6c006044820152606401610a9d565b600260015560105460ff16156132f05760405162461bcd60e51b815260206004820152601560248201527f42616e6b3a205265636f6c6c61742070617573656400000000000000000000006044820152606401610a9d565b60115460195460408051636912cb4360e01b8152905186926001600160a01b031691636912cb43916004808301926020929190829003018186803b15801561333757600080fd5b505afa15801561334b573d6000803e3d6000fd5b505050506040513d601f19601f8201168201806040525081019061336f91906159eb565b6133799190615aba565b11156133bc5760405162461bcd60e51b815260206004820152601260248201527142616e6b3a20506f6f6c204365696c696e6760701b6044820152606401610a9d565b60006133cd64e8d4a5100085615af2565b90506000601860009054906101000a90046001600160a01b03166001600160a01b031663a9dfd4ae6040518163ffffffff1660e01b815260040160206040518083038186803b15801561341f57600080fd5b505afa158015613433573d6000803e3d6000fd5b505050506040513d601f19601f8201168201806040525081019061345791906159eb565b90506000601860009054906101000a90046001600160a01b03166001600160a01b03166370b482586040518163ffffffff1660e01b815260040160206040518083038186803b1580156134a957600080fd5b505afa1580156134bd573d6000803e3d6000fd5b505050506040513d601f19601f820116820180604052508101906134e191906159eb565b905060006134ed612c4a565b9050600083620f4240600d54620f42406135079190615aba565b6135118689615af2565b61351b9190615af2565b6135259190615ad2565b61352f9190615ad2565b9050818111156135815760405162461bcd60e51b815260206004820152601e60248201527f42616e6b3a20496e737566204355424520417661696c20466f722052435400006044820152606401610a9d565b868110156135d15760405162461bcd60e51b815260206004820152601360248201527f42616e6b3a204355424520736c697070616765000000000000000000000000006044820152606401610a9d565b6019546014546135f0916001600160a01b03918216913391168b614e7e565b60165460405163d198da3160e01b8152336004820152602481018390526001600160a01b039091169063d198da3190604401600060405180830381600087803b15801561363c57600080fd5b505af1158015613650573d6000803e3d6000fd5b5050505080600e6000613661615435565b8152602001908152602001600020600082825461367e9190615aba565b909155505060408051898152602081018390527fc2d7df98caa1a9bc768fc3ab167e19ae4febd5da76dad18d3387fb9fc656a373910160405180910390a160018055979650505050505050565b6000546001600160a01b03163314806136ee57506002546001600160a01b031633145b6137285760405162461bcd60e51b81526020600482015260196024820152600080516020615ba68339815191526044820152606401610a9d565b60068190556040518181527f456675efe714fd19df641c056e8c3bbd197571d44183ba694ce7df33ea877c0890602001611a81565b3332146137ac5760405162461bcd60e51b815260206004820152601760248201527f546f7765723a2073656e64657220213d206f726967696e0000000000000000006044820152606401610a9d565b600260015414156137ff5760405162461bcd60e51b815260206004820152601f60248201527f5265656e7472616e637947756172643a207265656e7472616e742063616c6c006044820152606401610a9d565b600260015560085462010000900460ff161561385d5760405162461bcd60e51b815260206004820152601560248201527f42616e6b3a207a6170206d696e742070617573656400000000000000000000006044820152606401610a9d565b600082116138ad5760405162461bcd60e51b815260206004820152601460248201527f42616e6b3a205f636f6c6c6174496e203c3d20300000000000000000000000006044820152606401610a9d565b60115460195460408051636912cb4360e01b8152905185926001600160a01b031691636912cb43916004808301926020929190829003018186803b1580156138f457600080fd5b505afa158015613908573d6000803e3d6000fd5b505050506040513d601f19601f8201168201806040525081019061392c91906159eb565b6139369190615aba565b11156139795760405162461bcd60e51b815260206004820152601260248201527142616e6b3a20506f6f6c204365696c696e6760701b6044820152606401610a9d565b60185460408051630e16904b60e31b815290516000926001600160a01b0316916370b48258916004808301926020929190829003018186803b1580156139be57600080fd5b505afa1580156139d2573d6000803e3d6000fd5b505050506040513d601f19601f820116820180604052508101906139f691906159eb565b90506000620f424060095485613a0c9190615af2565b613a169190615ad2565b90506000620f424083613a2e64e8d4a5100085615af2565b613a389190615af2565b613a429190615ad2565b90506000613a508387615b11565b90506000613a6364e8d4a5100083615af2565b90506000601860009054906101000a90046001600160a01b03166001600160a01b031663a9dfd4ae6040518163ffffffff1660e01b815260040160206040518083038186803b158015613ab557600080fd5b505afa158015613ac9573d6000803e3d6000fd5b505050506040513d601f19601f82011682018060405250810190613aed91906159eb565b90506000620f4240601c541015613b2757613b098488846150e0565b9050613b1a64e8d4a5100082615af2565b613b249084615b11565b92505b601454613b3f906001600160a01b031633308c614e7e565b60008115613cb957601354601454613b65916001600160a01b0391821691166000614f35565b601354601454613b82916001600160a01b03918216911684614f35565b60006002620f424085600b54620f4240613b9c9190615b11565b613ba9620f424088615af2565b613bb39190615af2565b613bbd9190615ad2565b613bc79190615ad2565b613bd19190615ad2565b6013546040516302235f7f60e61b81526004810186905260248101839052600060448201529192506001600160a01b0316906388d7dfc090606401602060405180830381600087803b158015613c2657600080fd5b505af1158015613c3a573d6000803e3d6000fd5b505050506040513d601f19601f82011682018060405250810190613c5e91906159eb565b601c54909250613c71620f424087615af2565b613c7b9190615ad2565b60408051858152602081018590529196507f9a7cc9b6c1f51a777fb37d6c91eb790726cd40df4ab357f471bed3927b63652b910160405180910390a1505b6000620f4240613cc98a87615af2565b613cd39190615ad2565b905089811015613d255760405162461bcd60e51b815260206004820152601460248201527f42616e6b3a20746f77657220736c6970706167650000000000000000000000006044820152606401610a9d565b8115613d6857601754601b546040516370a0823160e01b81523060048201526001600160a01b0392831692613d6692169083906370a0823190602401611887565b505b6019546014546040516370a0823160e01b8152306004820152613da1926001600160a01b039081169216906370a082319060240161191f565b60155460405163d198da3160e01b8152336004820152602481018390526001600160a01b039091169063d198da3190604401600060405180830381600087803b158015613ded57600080fd5b505af1158015613e01573d6000803e3d6000fd5b5050601554601a5460405163d198da3160e01b81526001600160a01b039182166004820152602481018c90529116925063d198da319150604401600060405180830381600087803b158015613e5557600080fd5b505af1158015613e69573d6000803e3d6000fd5b5050604080518e815260006020820152908101849052606081018a90527f470b3a537f8a8e839ae5aa0b4d39cc8a474e1caad1f8faa173a656591ff12d209250608001905060405180910390a1505060018055505050505050505050565b6000546001600160a01b03163314613f215760405162461bcd60e51b815260206004820181905260248201527f4f776e61626c653a2063616c6c6572206973206e6f7420746865206f776e65726044820152606401610a9d565b6001600160a01b038116613f775760405162461bcd60e51b815260206004820152601760248201527f546f7765723a20496e76616c6964206f70657261746f720000000000000000006044820152606401610a9d565b600280546001600160a01b0319166001600160a01b0383169081179091556040517fb3b3f5f64ab192e4b5fefde1f51ce9733bbdcf831951543b325aebd49cc27ec490600090a250565b3332146140105760405162461bcd60e51b815260206004820152601760248201527f546f7765723a2073656e64657220213d206f726967696e0000000000000000006044820152606401610a9d565b600260015414156140635760405162461bcd60e51b815260206004820152601f60248201527f5265656e7472616e637947756172643a207265656e7472616e742063616c6c006044820152606401610a9d565b6002600155600854610100900460ff16156140c05760405162461bcd60e51b815260206004820152601360248201527f42616e6b3a2072656465656d20706175736564000000000000000000000000006044820152606401610a9d565b600083116141105760405162461bcd60e51b815260206004820152601060248201527f42616e6b3a20746f776572203c3d2030000000000000000000000000000000006044820152606401610a9d565b6000620f4240600a54856141249190615af2565b61412e9190615ad2565b9050600061413c8286615b11565b905060008064e8d4a51000601860009054906101000a90046001600160a01b03166001600160a01b03166370b482586040518163ffffffff1660e01b815260040160206040518083038186803b15801561419557600080fd5b505afa1580156141a9573d6000803e3d6000fd5b505050506040513d601f19601f820116820180604052508101906141cd91906159eb565b6141da620f424086615af2565b6141e49190615ad2565b6141ee9190615ad2565b9050620f4240601d5410156142e6576000620f4240601d54856142119190615af2565b61421b9190615ad2565b6142259085615b11565b9050601860009054906101000a90046001600160a01b03166001600160a01b031663a9dfd4ae6040518163ffffffff1660e01b815260040160206040518083038186803b15801561427557600080fd5b505afa158015614289573d6000803e3d6000fd5b505050506040513d601f19601f820116820180604052508101906142ad91906159eb565b6142ba620f424083615af2565b6142c49190615ad2565b9250620f4240601d54836142d89190615af2565b6142e29190615ad2565b9150505b6142ee6121d2565b81111561433d5760405162461bcd60e51b815260206004820152601f60248201527f42616e6b3a20696e73756666696369656e742062616e6b2062616c616e6365006044820152606401610a9d565b8481101561438d5760405162461bcd60e51b815260206004820152601560248201527f42616e6b3a20636f6c6c617420736c69707061676500000000000000000000006044820152606401610a9d565b858210156143dd5760405162461bcd60e51b815260206004820152601360248201527f42616e6b3a206375626520736c697070616765000000000000000000000000006044820152606401610a9d565b801561442157336000908152601f602052604081208054839290614402908490615aba565b92505081905550806022600082825461441b9190615aba565b90915550505b81156144cd57336000908152601e602052604081208054849290614446908490615aba565b92505081905550816021600082825461445f9190615aba565b909155505060165460195460405163d198da3160e01b81526001600160a01b0391821660048201526024810185905291169063d198da3190604401600060405180830381600087803b1580156144b457600080fd5b505af11580156144c8573d6000803e3d6000fd5b505050505b336000818152602080526040908190204390556015549051632770a7eb60e21b81526004810192909252602482018590526001600160a01b031690639dc29fac90604401600060405180830381600087803b15801561452b57600080fd5b505af115801561453f573d6000803e3d6000fd5b5050601a5460155461456293506001600160a01b03908116925033911687614e7e565b6040805188815260208101839052908101839052606081018590527f6ad6a5829e6668c6606a37a324334847f862c5f29f633f0d8c8ba837527428069060800160405180910390a15050600180555050505050565b6000546001600160a01b031633146146115760405162461bcd60e51b815260206004820181905260248201527f4f776e61626c653a2063616c6c6572206973206e6f7420746865206f776e65726044820152606401610a9d565b6001600160a01b0384161580159061463157506001600160a01b03831615155b801561464557506001600160a01b03821615155b801561465957506001600160a01b03811615155b6146a55760405162461bcd60e51b815260206004820152601260248201527f42616e6b3a2041646472657373207a65726f00000000000000000000000000006044820152606401610a9d565b601980546001600160a01b039586166001600160a01b031991821617909155601b805494861694821694909417909355601a80549285169284169290921790915560188054919093169116179055565b6000546001600160a01b031633148061471857506002546001600160a01b031633145b6147525760405162461bcd60e51b81526020600482015260196024820152600080516020615ba68339815191526044820152606401610a9d565b600f8190556040518181527fa47cabe03bc498582a8625f4452812b097fc5ed8202370f5b4761866cc42963c90602001611a81565b6000546001600160a01b03163314806147aa57506002546001600160a01b031633145b6147e45760405162461bcd60e51b81526020600482015260196024820152600080516020615ba68339815191526044820152606401610a9d565b60078190556040518181527f2ef04e7e82e856c3ca880496097b187358f263ea04311c16cfb2978c24ffad5490602001611a81565b6000546001600160a01b031633148061483c57506002546001600160a01b031633145b6148765760405162461bcd60e51b81526020600482015260196024820152600080516020615ba68339815191526044820152606401610a9d565b6008805460ff610100808304821615810261ff001990931692909217928390556040517f1ab9423559fa838f708ea12fa640683bb9d7520f0a73f7f06744315a60104c37936112439390049091161515815260200190565b33321461491d5760405162461bcd60e51b815260206004820152601760248201527f546f7765723a2073656e64657220213d206f726967696e0000000000000000006044820152606401610a9d565b600260015414156149705760405162461bcd60e51b815260206004820152601f60248201527f5265656e7472616e637947756172643a207265656e7472616e742063616c6c006044820152606401610a9d565b6002600190815533600090815260208052604090205443916149929190615aba565b11156149e05760405162461bcd60e51b815260206004820152601660248201527f42616e6b3a20636f6c6c65637420746f6f20736f6f6e000000000000000000006044820152606401610a9d565b336000908152601f6020908152604080832054601e909252909120548115614a9057336000908152601f6020526040812081905560228054849290614a26908490615b11565b909155505060195460405163d52286d760e01b8152336004820152602481018490526001600160a01b039091169063d52286d790604401600060405180830381600087803b158015614a7757600080fd5b505af1158015614a8b573d6000803e3d6000fd5b505050505b8015614b3d57336000908152601e6020526040812081905560218054839290614aba908490615b11565b90915550506019546040517f207c6655000000000000000000000000000000000000000000000000000000008152336004820152602481018390526001600160a01b039091169063207c665590604401600060405180830381600087803b158015614b2457600080fd5b505af1158015614b38573d6000803e3d6000fd5b505050505b505060018055565b6000546001600160a01b03163314614b9f5760405162461bcd60e51b815260206004820181905260248201527f4f776e61626c653a2063616c6c6572206973206e6f7420746865206f776e65726044820152606401610a9d565b601280546001600160a01b0319166001600160a01b0383169081179091556040517fc9c794714ce7410cc2c341ea1d334be8fb6bcac3042013393036068b36f618b390600090a250565b6000546001600160a01b0316331480614c0c57506002546001600160a01b031633145b614c465760405162461bcd60e51b81526020600482015260196024820152600080516020615ba68339815191526044820152606401610a9d565b60118190556040518181527ff83eec696f585239016e3f4510dc2a857279842cafcf1bf640fda43b74c1c14190602001611a81565b6000546001600160a01b03163314614cd55760405162461bcd60e51b815260206004820181905260248201527f4f776e61626c653a2063616c6c6572206973206e6f7420746865206f776e65726044820152606401610a9d565b60098190556040518181527f10e11fbc86381303b72b37c6499eebdd247f61fe12a6827d6db3a19d6487e7b890602001611a81565b6000546001600160a01b03163314614d645760405162461bcd60e51b815260206004820181905260248201527f4f776e61626c653a2063616c6c6572206973206e6f7420746865206f776e65726044820152606401610a9d565b6001600160a01b038116614de05760405162461bcd60e51b815260206004820152602660248201527f4f776e61626c653a206e6577206f776e657220697320746865207a65726f206160448201527f64647265737300000000000000000000000000000000000000000000000000006064820152608401610a9d565b614de9816153cf565b50565b6000546001600160a01b0316331480614e0f57506002546001600160a01b031633145b614e495760405162461bcd60e51b81526020600482015260196024820152600080516020615ba68339815191526044820152606401610a9d565b600b8190556040518181527f4e408489b634c93b3457b592dc5cfe450c66019318a5e0dacf461ea2dc22189090602001611a81565b6040516001600160a01b0380851660248301528316604482015260648101829052614f2f9085907f23b872dd00000000000000000000000000000000000000000000000000000000906084015b60408051601f198184030181529190526020810180517bffffffffffffffffffffffffffffffffffffffffffffffffffffffff167fffffffff0000000000000000000000000000000000000000000000000000000090931692909217909152615495565b50505050565b801580614fd757506040517fdd62ed3e0000000000000000000000000000000000000000000000000000000081523060048201526001600160a01b03838116602483015284169063dd62ed3e9060440160206040518083038186803b158015614f9d57600080fd5b505afa158015614fb1573d6000803e3d6000fd5b505050506040513d601f19601f82011682018060405250810190614fd591906159eb565b155b6150495760405162461bcd60e51b815260206004820152603660248201527f5361666545524332303a20617070726f76652066726f6d206e6f6e2d7a65726f60448201527f20746f206e6f6e2d7a65726f20616c6c6f77616e6365000000000000000000006064820152608401610a9d565b6040516001600160a01b0383166024820152604481018290526150929084907f095ea7b30000000000000000000000000000000000000000000000000000000090606401614ecb565b505050565b6040516001600160a01b0383166024820152604481018290526150929084907fa9059cbb0000000000000000000000000000000000000000000000000000000090606401614ecb565b601454601654600091829182916001600160a01b039081169116116151a257601760009054906101000a90046001600160a01b03166001600160a01b0316630902f1ac6040518163ffffffff1660e01b815260040160606040518083038186803b15801561514d57600080fd5b505afa158015615161573d6000803e3d6000fd5b505050506040513d601f19601f82011682018060405250810190615185919061598d565b506dffffffffffffffffffffffffffff9081169350169050615241565b601760009054906101000a90046001600160a01b03166001600160a01b0316630902f1ac6040518163ffffffff1660e01b815260040160606040518083038186803b1580156151f057600080fd5b505afa158015615204573d6000803e3d6000fd5b505050506040513d601f19601f82011682018060405250810190615228919061598d565b506dffffffffffffffffffffffffffff91821693501690505b6000600c54620f42406152549190615b11565b90506000620f4240601c54620f42408061526e9190615af2565b6152789190615ad2565b6152829190615b11565b90506000620f4240615294848b615af2565b61529e9190615ad2565b8883620f4240670de0b6b3a764000081808d6152ba8c8c615af2565b6152c49190615af2565b6152ce9190615af2565b6152d89190615af2565b6152e29190615ad2565b6152ec9190615ad2565b6152f69190615ad2565b6153009190615ad2565b61530a9087615aba565b6153149190615b11565b90506000620f424080878c61532a886004615af2565b6153349190615af2565b61533e9190615af2565b6153489190615ad2565b6153529190615ad2565b620f42406153608480615af2565b61536a9190615ad2565b6153749190615aba565b9050615381846002615af2565b620f4240836153986153938386615af2565b61557a565b6153a29190615b11565b6153ac9190615af2565b6153b69190615ad2565b9a9950505050505050505050565b60006122f4426155ea565b600080546001600160a01b038381166001600160a01b0319831681178455604051919092169283917f8be0079c531659141344cd1fd0a4f28419497f9722a3daafe3b4186f6b6457e09190a35050565b600081831061542e5781612ec3565b5090919050565b60006122f4610e1042615ad2565b600082615451575080612ec3565b82841061546057506000612ec3565b600061546c8585615b11565b905080831061547c579050612ec3565b82915050612ec3565b60008183101561542e5781612ec3565b60006154ea826040518060400160405280602081526020017f5361666545524332303a206c6f772d6c6576656c2063616c6c206661696c6564815250856001600160a01b031661566e9092919063ffffffff16565b8051909150156150925780806020019051810190615508919061596d565b6150925760405162461bcd60e51b815260206004820152602a60248201527f5361666545524332303a204552433230206f7065726174696f6e20646964206e60448201527f6f742073756363656564000000000000000000000000000000000000000000006064820152608401610a9d565b600060038211156155db5750806000615594600283615ad2565b61559f906001615aba565b90505b818110156155d5579050806002816155ba8186615ad2565b6155c49190615aba565b6155ce9190615ad2565b90506155a2565b50919050565b81156155e5575060015b919050565b600067ffffffffffffffff82111561566a5760405162461bcd60e51b815260206004820152602660248201527f53616665436173743a2076616c756520646f65736e27742066697420696e203660448201527f34206269747300000000000000000000000000000000000000000000000000006064820152608401610a9d565b5090565b606061567d8484600085615685565b949350505050565b606030318311156156fe5760405162461bcd60e51b815260206004820152602660248201527f416464726573733a20696e73756666696369656e742062616c616e636520666f60448201527f722063616c6c00000000000000000000000000000000000000000000000000006064820152608401610a9d565b6001600160a01b0385163b6157555760405162461bcd60e51b815260206004820152601d60248201527f416464726573733a2063616c6c20746f206e6f6e2d636f6e74726163740000006044820152606401610a9d565b600080866001600160a01b031685876040516157719190615a6b565b60006040518083038185875af1925050503d80600081146157ae576040519150601f19603f3d011682016040523d82523d6000602084013e6157b3565b606091505b50915091506157c38282866157ce565b979650505050505050565b606083156157dd575081612ec3565b8251156157ed5782518084602001fd5b8160405162461bcd60e51b8152600401610a9d9190615a87565b80356001600160a01b03811681146155e557600080fd5b80516dffffffffffffffffffffffffffff811681146155e557600080fd5b60006020828403121561584d578081fd5b612ec382615807565b6000806000806080858703121561586b578283fd5b61587485615807565b935061588260208601615807565b925061589060408601615807565b915061589e60608601615807565b905092959194509250565b60008060008060008060008060008060006101608c8e0312156158ca578687fd5b6158d38c615807565b9a506158e160208d01615807565b99506158ef60408d01615807565b98506158fd60608d01615807565b975061590b60808d01615807565b965061591960a08d01615807565b955061592760c08d01615807565b945061593560e08d01615807565b93506159446101008d01615807565b92506159536101208d01615807565b91506101408c013590509295989b509295989b9093969950565b60006020828403121561597e578081fd5b81518015158114612ec3578182fd5b6000806000606084860312156159a1578283fd5b6159aa8461581e565b92506159b86020850161581e565b915060408401516159c881615b93565b809150509250925092565b6000602082840312156159e4578081fd5b5035919050565b6000602082840312156159fc578081fd5b5051919050565b60008060408385031215615a15578182fd5b50508035926020909101359150565b600080600060608486031215615a38578283fd5b505081359360208301359350604090920135919050565b600060208284031215615a60578081fd5b8135612ec381615b93565b60008251615a7d818460208701615b51565b9190910192915050565b6020815260008251806020840152615aa6816040850160208701615b51565b601f01601f19169190910160400192915050565b60008219821115615acd57615acd615b7d565b500190565b600082615aed57634e487b7160e01b81526012600452602481fd5b500490565b6000816000190483118215151615615b0c57615b0c615b7d565b500290565b600082821015615b2357615b23615b7d565b500390565b600067ffffffffffffffff83811690831681811015615b4957615b49615b7d565b039392505050565b60005b83811015615b6c578181015183820152602001615b54565b83811115614f2f5750506000910152565b634e487b7160e01b600052601160045260246000fd5b63ffffffff81168114614de957600080fdfe546f7765723a2073656e64657220213d206f70657261746f7200000000000000a2646970667358221220057e7d5eb0489671bc2d88c8336a17361c4c095f1875cb4f68e2640a915b829964736f6c63430008040033",
  "linkReferences": {},
  "deployedLinkReferences": {}
}