{
  "_format": "hh-sol-artifact-1",
  "contractName": "Cube",
  "sourceName": "contracts/ERC20/Cube.sol",
  "abi": [
    {
      "inputs": [
        {
          "internalType": "address",
          "name": "_bank",
          "type": "address"
        },
        {
          "internalType": "uint256",
          "name": "_vestingStartTime",
          "type": "uint256"
        },
        {
          "internalType": "address",
          "name": "_team",
          "type": "address"
        },
        {
          "internalType": "address",
          "name": "_treasury",
          "type": "address"
        }
      ],
      "stateMutability": "nonpayable",
      "type": "constructor"
    },
    {
      "anonymous": false,
      "inputs": [
        {
          "indexed": true,
          "internalType": "address",
          "name": "owner",
          "type": "address"
        },
        {
          "indexed": true,
          "internalType": "address",
          "name": "spender",
          "type": "address"
        },
        {
          "indexed": false,
          "internalType": "uint256",
          "name": "value",
          "type": "uint256"
        }
      ],
      "name": "Approval",
      "type": "event"
    },
    {
      "anonymous": false,
      "inputs": [
        {
          "indexed": true,
          "internalType": "address",
          "name": "bank",
          "type": "address"
        }
      ],
      "name": "BankUpdated",
      "type": "event"
    },
    {
      "anonymous": false,
      "inputs": [
        {
          "indexed": false,
          "internalType": "address",
          "name": "burnAddress",
          "type": "address"
        }
      ],
      "name": "LogAddBurnAddress",
      "type": "event"
    },
    {
      "anonymous": false,
      "inputs": [
        {
          "indexed": false,
          "internalType": "address",
          "name": "farm",
          "type": "address"
        }
      ],
      "name": "LogAddFarm",
      "type": "event"
    },
    {
      "anonymous": false,
      "inputs": [
        {
          "indexed": false,
          "internalType": "address",
          "name": "sender",
          "type": "address"
        },
        {
          "indexed": false,
          "internalType": "uint256",
          "name": "amount",
          "type": "uint256"
        }
      ],
      "name": "LogBurn",
      "type": "event"
    },
    {
      "anonymous": false,
      "inputs": [
        {
          "indexed": false,
          "internalType": "address",
          "name": "sender",
          "type": "address"
        },
        {
          "indexed": false,
          "internalType": "uint256",
          "name": "amount",
          "type": "uint256"
        }
      ],
      "name": "LogMint",
      "type": "event"
    },
    {
      "anonymous": false,
      "inputs": [
        {
          "indexed": false,
          "internalType": "address",
          "name": "burnAddress",
          "type": "address"
        }
      ],
      "name": "LogRemoveBurnAddress",
      "type": "event"
    },
    {
      "anonymous": false,
      "inputs": [
        {
          "indexed": false,
          "internalType": "address",
          "name": "farm",
          "type": "address"
        }
      ],
      "name": "LogRemoveFarm",
      "type": "event"
    },
    {
      "anonymous": false,
      "inputs": [
        {
          "indexed": true,
          "internalType": "address",
          "name": "previousOwner",
          "type": "address"
        },
        {
          "indexed": true,
          "internalType": "address",
          "name": "newOwner",
          "type": "address"
        }
      ],
      "name": "OwnershipTransferred",
      "type": "event"
    },
    {
      "anonymous": false,
      "inputs": [
        {
          "indexed": false,
          "internalType": "address",
          "name": "team",
          "type": "address"
        }
      ],
      "name": "SetTeam",
      "type": "event"
    },
    {
      "anonymous": false,
      "inputs": [
        {
          "indexed": true,
          "internalType": "address",
          "name": "from",
          "type": "address"
        },
        {
          "indexed": true,
          "internalType": "address",
          "name": "to",
          "type": "address"
        },
        {
          "indexed": false,
          "internalType": "uint256",
          "name": "value",
          "type": "uint256"
        }
      ],
      "name": "Transfer",
      "type": "event"
    },
    {
      "anonymous": false,
      "inputs": [
        {
          "indexed": false,
          "internalType": "address",
          "name": "treasury",
          "type": "address"
        }
      ],
      "name": "TreasuryUpdated",
      "type": "event"
    },
    {
      "inputs": [],
      "name": "COMMUNITY_REWARD_ALLOCATION",
      "outputs": [
        {
          "internalType": "uint256",
          "name": "",
          "type": "uint256"
        }
      ],
      "stateMutability": "view",
      "type": "function"
    },
    {
      "inputs": [],
      "name": "GENESIS_SUPPLY",
      "outputs": [
        {
          "internalType": "uint256",
          "name": "",
          "type": "uint256"
        }
      ],
      "stateMutability": "view",
      "type": "function"
    },
    {
      "inputs": [],
      "name": "TEAM_FUND_ALLOCATION",
      "outputs": [
        {
          "internalType": "uint256",
          "name": "",
          "type": "uint256"
        }
      ],
      "stateMutability": "view",
      "type": "function"
    },
    {
      "inputs": [],
      "name": "TEAM_FUND_EMISSION_RATE",
      "outputs": [
        {
          "internalType": "uint256",
          "name": "",
          "type": "uint256"
        }
      ],
      "stateMutability": "view",
      "type": "function"
    },
    {
      "inputs": [],
      "name": "TEAM_FUND_VESTING_DURATION",
      "outputs": [
        {
          "internalType": "uint256",
          "name": "",
          "type": "uint256"
        }
      ],
      "stateMutability": "view",
      "type": "function"
    },
    {
      "inputs": [],
      "name": "V1_REWARD_AMT",
      "outputs": [
        {
          "internalType": "uint256",
          "name": "",
          "type": "uint256"
        }
      ],
      "stateMutability": "view",
      "type": "function"
    },
    {
      "inputs": [],
      "name": "VESTING_DECREASING_RATIO",
      "outputs": [
        {
          "internalType": "uint256",
          "name": "",
          "type": "uint256"
        }
      ],
      "stateMutability": "view",
      "type": "function"
    },
    {
      "inputs": [
        {
          "internalType": "address",
          "name": "_burnAddress",
          "type": "address"
        }
      ],
      "name": "addBurnAddress",
      "outputs": [],
      "stateMutability": "nonpayable",
      "type": "function"
    },
    {
      "inputs": [
        {
          "internalType": "address",
          "name": "_farm",
          "type": "address"
        }
      ],
      "name": "addFarm",
      "outputs": [],
      "stateMutability": "nonpayable",
      "type": "function"
    },
    {
      "inputs": [
        {
          "internalType": "address",
          "name": "owner",
          "type": "address"
        },
        {
          "internalType": "address",
          "name": "spender",
          "type": "address"
        }
      ],
      "name": "allowance",
      "outputs": [
        {
          "internalType": "uint256",
          "name": "",
          "type": "uint256"
        }
      ],
      "stateMutability": "view",
      "type": "function"
    },
    {
      "inputs": [
        {
          "internalType": "address",
          "name": "spender",
          "type": "address"
        },
        {
          "internalType": "uint256",
          "name": "amount",
          "type": "uint256"
        }
      ],
      "name": "approve",
      "outputs": [
        {
          "internalType": "bool",
          "name": "",
          "type": "bool"
        }
      ],
      "stateMutability": "nonpayable",
      "type": "function"
    },
    {
      "inputs": [
        {
          "internalType": "address",
          "name": "account",
          "type": "address"
        }
      ],
      "name": "balanceOf",
      "outputs": [
        {
          "internalType": "uint256",
          "name": "",
          "type": "uint256"
        }
      ],
      "stateMutability": "view",
      "type": "function"
    },
    {
      "inputs": [],
      "name": "bank",
      "outputs": [
        {
          "internalType": "address",
          "name": "",
          "type": "address"
        }
      ],
      "stateMutability": "view",
      "type": "function"
    },
    {
      "inputs": [
        {
          "internalType": "address",
          "name": "_sender",
          "type": "address"
        },
        {
          "internalType": "uint256",
          "name": "_amt",
          "type": "uint256"
        }
      ],
      "name": "burn",
      "outputs": [],
      "stateMutability": "nonpayable",
      "type": "function"
    },
    {
      "inputs": [
        {
          "internalType": "address",
          "name": "",
          "type": "address"
        }
      ],
      "name": "burnAddress",
      "outputs": [
        {
          "internalType": "bool",
          "name": "",
          "type": "bool"
        }
      ],
      "stateMutability": "view",
      "type": "function"
    },
    {
      "inputs": [
        {
          "internalType": "address",
          "name": "_to",
          "type": "address"
        }
      ],
      "name": "claimTeamFundRewards",
      "outputs": [],
      "stateMutability": "nonpayable",
      "type": "function"
    },
    {
      "inputs": [],
      "name": "cubeMintedByFarm",
      "outputs": [
        {
          "internalType": "uint256",
          "name": "",
          "type": "uint256"
        }
      ],
      "stateMutability": "view",
      "type": "function"
    },
    {
      "inputs": [],
      "name": "decimals",
      "outputs": [
        {
          "internalType": "uint8",
          "name": "",
          "type": "uint8"
        }
      ],
      "stateMutability": "view",
      "type": "function"
    },
    {
      "inputs": [
        {
          "internalType": "address",
          "name": "spender",
          "type": "address"
        },
        {
          "internalType": "uint256",
          "name": "subtractedValue",
          "type": "uint256"
        }
      ],
      "name": "decreaseAllowance",
      "outputs": [
        {
          "internalType": "bool",
          "name": "",
          "type": "bool"
        }
      ],
      "stateMutability": "nonpayable",
      "type": "function"
    },
    {
      "inputs": [
        {
          "internalType": "address",
          "name": "",
          "type": "address"
        }
      ],
      "name": "farms",
      "outputs": [
        {
          "internalType": "bool",
          "name": "",
          "type": "bool"
        }
      ],
      "stateMutability": "view",
      "type": "function"
    },
    {
      "inputs": [
        {
          "internalType": "address",
          "name": "spender",
          "type": "address"
        },
        {
          "internalType": "uint256",
          "name": "addedValue",
          "type": "uint256"
        }
      ],
      "name": "increaseAllowance",
      "outputs": [
        {
          "internalType": "bool",
          "name": "",
          "type": "bool"
        }
      ],
      "stateMutability": "nonpayable",
      "type": "function"
    },
    {
      "inputs": [
        {
          "internalType": "address",
          "name": "_to",
          "type": "address"
        },
        {
          "internalType": "uint256",
          "name": "_amt",
          "type": "uint256"
        }
      ],
      "name": "mintByBank",
      "outputs": [],
      "stateMutability": "nonpayable",
      "type": "function"
    },
    {
      "inputs": [
        {
          "internalType": "address",
          "name": "_to",
          "type": "address"
        },
        {
          "internalType": "uint256",
          "name": "_amt",
          "type": "uint256"
        }
      ],
      "name": "mintByFarm",
      "outputs": [],
      "stateMutability": "nonpayable",
      "type": "function"
    },
    {
      "inputs": [],
      "name": "name",
      "outputs": [
        {
          "internalType": "string",
          "name": "",
          "type": "string"
        }
      ],
      "stateMutability": "view",
      "type": "function"
    },
    {
      "inputs": [],
      "name": "owner",
      "outputs": [
        {
          "internalType": "address",
          "name": "",
          "type": "address"
        }
      ],
      "stateMutability": "view",
      "type": "function"
    },
    {
      "inputs": [
        {
          "internalType": "address",
          "name": "_burnAddress",
          "type": "address"
        }
      ],
      "name": "removeBurnAddress",
      "outputs": [],
      "stateMutability": "nonpayable",
      "type": "function"
    },
    {
      "inputs": [
        {
          "internalType": "address",
          "name": "_farm",
          "type": "address"
        }
      ],
      "name": "removeFarm",
      "outputs": [],
      "stateMutability": "nonpayable",
      "type": "function"
    },
    {
      "inputs": [],
      "name": "renounceOwnership",
      "outputs": [],
      "stateMutability": "nonpayable",
      "type": "function"
    },
    {
      "inputs": [
        {
          "internalType": "address",
          "name": "_bank",
          "type": "address"
        }
      ],
      "name": "setBank",
      "outputs": [],
      "stateMutability": "nonpayable",
      "type": "function"
    },
    {
      "inputs": [
        {
          "internalType": "address",
          "name": "_treasury",
          "type": "address"
        }
      ],
      "name": "setTreasury",
      "outputs": [],
      "stateMutability": "nonpayable",
      "type": "function"
    },
    {
      "inputs": [],
      "name": "symbol",
      "outputs": [
        {
          "internalType": "string",
          "name": "",
          "type": "string"
        }
      ],
      "stateMutability": "view",
      "type": "function"
    },
    {
      "inputs": [],
      "name": "team",
      "outputs": [
        {
          "internalType": "address",
          "name": "",
          "type": "address"
        }
      ],
      "stateMutability": "view",
      "type": "function"
    },
    {
      "inputs": [],
      "name": "teamVesting",
      "outputs": [
        {
          "internalType": "uint256",
          "name": "startTime",
          "type": "uint256"
        },
        {
          "internalType": "uint256",
          "name": "vestedAmount",
          "type": "uint256"
        },
        {
          "internalType": "uint256",
          "name": "lastClaimed",
          "type": "uint256"
        }
      ],
      "stateMutability": "view",
      "type": "function"
    },
    {
      "inputs": [],
      "name": "totalSupply",
      "outputs": [
        {
          "internalType": "uint256",
          "name": "",
          "type": "uint256"
        }
      ],
      "stateMutability": "view",
      "type": "function"
    },
    {
      "inputs": [
        {
          "internalType": "address",
          "name": "to",
          "type": "address"
        },
        {
          "internalType": "uint256",
          "name": "amount",
          "type": "uint256"
        }
      ],
      "name": "transfer",
      "outputs": [
        {
          "internalType": "bool",
          "name": "",
          "type": "bool"
        }
      ],
      "stateMutability": "nonpayable",
      "type": "function"
    },
    {
      "inputs": [
        {
          "internalType": "address",
          "name": "from",
          "type": "address"
        },
        {
          "internalType": "address",
          "name": "to",
          "type": "address"
        },
        {
          "internalType": "uint256",
          "name": "amount",
          "type": "uint256"
        }
      ],
      "name": "transferFrom",
      "outputs": [
        {
          "internalType": "bool",
          "name": "",
          "type": "bool"
        }
      ],
      "stateMutability": "nonpayable",
      "type": "function"
    },
    {
      "inputs": [
        {
          "internalType": "address",
          "name": "newOwner",
          "type": "address"
        }
      ],
      "name": "transferOwnership",
      "outputs": [],
      "stateMutability": "nonpayable",
      "type": "function"
    },
    {
      "inputs": [],
      "name": "treasury",
      "outputs": [
        {
          "internalType": "address",
          "name": "",
          "type": "address"
        }
      ],
      "stateMutability": "view",
      "type": "function"
    },
    {
      "inputs": [],
      "name": "unclaimedTeamFund",
      "outputs": [
        {
          "internalType": "uint256",
          "name": "",
          "type": "uint256"
        }
      ],
      "stateMutability": "view",
      "type": "function"
    }
  ],
  "bytecode": "0x60806040523480156200001157600080fd5b50604051620023e4380380620023e48339810160408190526200003491620005de565b6040518060400160405280600a81526020017f4375626520546f6b656e000000000000000000000000000000000000000000008152506040518060400160405280600481526020017f4355424500000000000000000000000000000000000000000000000000000000815250858083838160039080519060200190620000bc9291906200051b565b508051620000d29060049060208401906200051b565b505050620000ef620000e96200017660201b60201c565b6200017a565b620000fa81620001cc565b506200010681620001cc565b50505062000137336a14adf4b7320334b900000069d3c21bcecceda100000062000131919062000631565b620002f1565b6200014683600c819055600e55565b600b80546001600160a01b0319166001600160a01b0384161790556200016c81620003f0565b50505050620006c5565b3390565b600580546001600160a01b038381166001600160a01b0319831681179093556040519116919082907f8be0079c531659141344cd1fd0a4f28419497f9722a3daafe3b4186f6b6457e090600090a35050565b6005546001600160a01b0316331462000235576040517f08c379a00000000000000000000000000000000000000000000000000000000081526020600482018190526024820152600080516020620023c483398151915260448201526064015b60405180910390fd5b6001600160a01b038116620002a7576040517f08c379a000000000000000000000000000000000000000000000000000000000815260206004820152601960248201527f4f6e6c7942616e6b3a20696e76616c696420616464726573730000000000000060448201526064016200022c565b600680546001600160a01b0319166001600160a01b0383169081179091556040517ffe3d990e3bb62dbf6649423f21da0662810b4f2705032857be268654dea04b8290600090a250565b6001600160a01b03821662000363576040517f08c379a000000000000000000000000000000000000000000000000000000000815260206004820152601f60248201527f45524332303a206d696e7420746f20746865207a65726f20616464726573730060448201526064016200022c565b806002600082825462000377919062000631565b90915550506001600160a01b03821660009081526020819052604081208054839290620003a690849062000631565b90915550506040518181526001600160a01b038316906000907fddf252ad1be2c89b69c2b068fc378daa952ba7f163c4a11628f55a4df523b3ef9060200160405180910390a35050565b6005546001600160a01b0316331462000455576040517f08c379a00000000000000000000000000000000000000000000000000000000081526020600482018190526024820152600080516020620023c483398151915260448201526064016200022c565b6001600160a01b038116620004c7576040517f08c379a000000000000000000000000000000000000000000000000000000000815260206004820152601660248201527f437562653a20496e76616c69642074726561737572790000000000000000000060448201526064016200022c565b600a80546001600160a01b0319166001600160a01b0383169081179091556040519081527f7dae230f18360d76a040c81f050aa14eb9d6dc7901b20fc5d855e2a20fe814d19060200160405180910390a150565b82805462000529906200066f565b90600052602060002090601f0160209004810192826200054d576000855562000598565b82601f106200056857805160ff191683800117855562000598565b8280016001018555821562000598579182015b82811115620005985782518255916020019190600101906200057b565b50620005a6929150620005aa565b5090565b5b80821115620005a65760008155600101620005ab565b80516001600160a01b0381168114620005d957600080fd5b919050565b60008060008060808587031215620005f4578384fd5b620005ff85620005c1565b9350602085015192506200061660408601620005c1565b91506200062660608601620005c1565b905092959194509250565b600082198211156200066a577f4e487b710000000000000000000000000000000000000000000000000000000081526011600452602481fd5b500190565b600181811c908216806200068457607f821691505b60208210811415620006bf577f4e487b7100000000000000000000000000000000000000000000000000000000600052602260045260246000fd5b50919050565b611cef80620006d56000396000f3fe608060405234801561001057600080fd5b50600436106102ad5760003560e01c806385f2aef21161017b578063b70d80aa116100d8578063f114b6891161008c578063f2fde38b11610071578063f2fde38b146105b8578063f76abd76146105cb578063fd2daf1e146105dd57600080fd5b8063f114b6891461059a578063f25f8cb3146105a557600080fd5b8063dd62ed3e116100bd578063dd62ed3e14610546578063e0c267841461057f578063f0f442601461058757600080fd5b8063b70d80aa1461052a578063d198da311461053357600080fd5b80639dc29fac1161012f578063a9059cbb11610114578063a9059cbb146104f1578063a9855e8c14610504578063aff7b07d1461051757600080fd5b80639dc29fac146104cb578063a457c2d7146104de57600080fd5b80638da5cb5b116101605780638da5cb5b146104a157806395d89b41146104b257806399ec6765146104ba57600080fd5b806385f2aef21461046b578063881461be1461047e57600080fd5b8063452a14f61161022957806363d994e6116101dd57806370a08231116101c257806370a0823114610427578063715018a61461045057806376cdb03b1461045857600080fd5b806363d994e614610402578063686baf141461041457600080fd5b806350e01e201161020e57806350e01e20146103a2578063619f3d6c146103aa57806361d027b3146103d757600080fd5b8063452a14f6146103855780634a07bed61461039857600080fd5b806318160ddd11610280578063313ce56711610265578063313ce56714610340578063395093511461034f578063421adfa01461036257600080fd5b806318160ddd1461031b57806323b872dd1461032d57600080fd5b806306fdde03146102b2578063090d23b9146102d0578063095ea7b3146102e557806309b5ceff14610308575b600080fd5b6102ba6105f0565b6040516102c79190611b8c565b60405180910390f35b6102e36102de366004611adc565b610682565b005b6102f86102f3366004611b63565b61078e565b60405190151581526020016102c7565b6102e3610316366004611adc565b6107a6565b6002545b6040519081526020016102c7565b6102f861033b366004611b28565b61085b565b604051601281526020016102c7565b6102f861035d366004611b63565b61087f565b6102f8610370366004611adc565b60086020526000908152604090205460ff1681565b6102e3610393366004611adc565b6108be565b61031f620470ac81565b61031f610969565b600c54600d54600e546103bc92919083565b604080519384526020840192909252908201526060016102c7565b600a546103ea906001600160a01b031681565b6040516001600160a01b0390911681526020016102c7565b61031f6a14adf4b7320334b900000081565b6102e3610422366004611b63565b610a4e565b61031f610435366004611adc565b6001600160a01b031660009081526020819052604090205490565b6102e3610c80565b6006546103ea906001600160a01b031681565b600b546103ea906001600160a01b031681565b6102f861048c366004611adc565b60076020526000908152604090205460ff1681565b6005546001600160a01b03166103ea565b6102ba610ce6565b61031f69d3c21bcecceda100000081565b6102e36104d9366004611b63565b610cf5565b6102f86104ec366004611b63565b610d9d565b6102f86104ff366004611b63565b610e47565b6102e3610512366004611adc565b610e55565b6102e3610525366004611adc565b611026565b61031f60095481565b6102e3610541366004611b63565b6110d3565b61031f610554366004611af6565b6001600160a01b03918216600090815260016020908152604080832093909416825291909152205490565b61031f611137565b6102e3610595366004611adc565b611153565b61031f6305a39a8081565b61031f6b024306c4097859c43c00000081565b6102e36105c6366004611adc565b61125e565b61031f6ae37983df262343f300000081565b6102e36105eb366004611adc565b611340565b6060600380546105ff90611c4d565b80601f016020809104026020016040519081016040528092919081815260200182805461062b90611c4d565b80156106785780601f1061064d57610100808354040283529160200191610678565b820191906000526020600020905b81548152906001019060200180831161065b57829003601f168201915b5050505050905090565b6005546001600160a01b031633146106e15760405162461bcd60e51b815260206004820181905260248201527f4f776e61626c653a2063616c6c6572206973206e6f7420746865206f776e657260448201526064015b60405180910390fd5b6001600160a01b0381166107375760405162461bcd60e51b815260206004820152601960248201527f4f6e6c7942616e6b3a20696e76616c696420616464726573730000000000000060448201526064016106d8565b6006805473ffffffffffffffffffffffffffffffffffffffff19166001600160a01b0383169081179091556040517ffe3d990e3bb62dbf6649423f21da0662810b4f2705032857be268654dea04b8290600090a250565b60003361079c8185856113eb565b5060019392505050565b6005546001600160a01b031633146108005760405162461bcd60e51b815260206004820181905260248201527f4f776e61626c653a2063616c6c6572206973206e6f7420746865206f776e657260448201526064016106d8565b6001600160a01b038116600081815260076020908152604091829020805460ff1916600117905590519182527f0496fac6d532e0e1acf35140d8a84d669f07058e6e81396594bf8ff1f21145d591015b60405180910390a150565b600033610869858285611544565b6108748585856115d6565b506001949350505050565b3360008181526001602090815260408083206001600160a01b038716845290915281205490919061079c90829086906108b9908790611bdf565b6113eb565b6005546001600160a01b031633146109185760405162461bcd60e51b815260206004820181905260248201527f4f776e61626c653a2063616c6c6572206973206e6f7420746865206f776e657260448201526064016106d8565b6001600160a01b038116600081815260076020908152604091829020805460ff1916905590519182527fdd761820adcbee6ead0fe28b7704a69d947624610b9ac045ecbddc9d9a03f85d9101610850565b600e546000904290811161097f57600091505090565b600c5460009061098f9083611c36565b905060006109a16301e1338083611bf7565b905060006109be6305a39a806ae37983df262343f3000000611bf7565b905060005b82811015610a0457620f42406109dc620470ac84611c17565b6109e69190611bf7565b6109f09083611c36565b9150806109fc81611c88565b9150506109c3565b50600e54600090610a159086611c36565b90506000610a43610a268484611c17565b600d54610a3e906ae37983df262343f3000000611c36565b6117ed565b979650505050505050565b3360009081526008602052604090205460ff16610aad5760405162461bcd60e51b815260206004820152601460248201527f546f77657245524332303a204e6f74206661726d00000000000000000000000060448201526064016106d8565b60008111610afd5760405162461bcd60e51b815260206004820152601160248201527f437562653a204165726f20616d6f756e7400000000000000000000000000000060448201526064016106d8565b6001600160a01b038216610b535760405162461bcd60e51b815260206004820152601260248201527f437562653a205a65726f2061646472657373000000000000000000000000000060448201526064016106d8565b6b024306c4097859c43c00000060095410610bb05760405162461bcd60e51b815260206004820152601760248201527f437562653a2052657761726420616c6c6f63207a65726f00000000000000000060448201526064016106d8565b6b024306c4097859c43c00000081600954610bcb9190611bdf565b1115610c175760006009546b024306c4097859c43c000000610bed9190611c36565b90508060096000828254610c019190611bdf565b90915550610c1190508382611805565b50610c39565b8060096000828254610c299190611bdf565b90915550610c3990508282611805565b604080516001600160a01b0384168152602081018390527f9f494565851dbcb31fb5198ca217cda6833282fadb96ba9431bd19c82afc1dd391015b60405180910390a15050565b6005546001600160a01b03163314610cda5760405162461bcd60e51b815260206004820181905260248201527f4f776e61626c653a2063616c6c6572206973206e6f7420746865206f776e657260448201526064016106d8565b610ce460006118e4565b565b6060600480546105ff90611c4d565b3360009081526007602052604090205460ff16610d545760405162461bcd60e51b815260206004820152601860248201527f546f77657245524332303a204e6f74206275726e61626c65000000000000000060448201526064016106d8565b610d5e8282611943565b604080516001600160a01b0384168152602081018390527f38d762ef507761291a578e921acfe29c1af31a7331ea03e391cf16cfc4d4f5819101610c74565b3360008181526001602090815260408083206001600160a01b038716845290915281205490919083811015610e3a5760405162461bcd60e51b815260206004820152602560248201527f45524332303a2064656372656173656420616c6c6f77616e63652062656c6f7760448201527f207a65726f00000000000000000000000000000000000000000000000000000060648201526084016106d8565b61087482868684036113eb565b60003361079c8185856115d6565b600b546001600160a01b03163314610eaf5760405162461bcd60e51b815260206004820152600f60248201527f437562653a205465616d206f6e6c79000000000000000000000000000000000060448201526064016106d8565b6001600160a01b038116610f055760405162461bcd60e51b815260206004820152601260248201527f437562653a2041646472657373207a65726f000000000000000000000000000060448201526064016106d8565b600a546001600160a01b0316610f5d5760405162461bcd60e51b815260206004820152601660248201527f437562653a205472656173757279206e6f74207365740000000000000000000060448201526064016106d8565b6000610f67610969565b905060008111610fb95760405162461bcd60e51b815260206004820152601660248201527f437562653a204e6f7468696e6720746f20636c61696d0000000000000000000060448201526064016106d8565b6000602d610fc883600a611c17565b610fd29190611bf7565b90506000610fe08284611c36565b9050610fec8482611805565b600a54611002906001600160a01b031683611805565b42600e55600d805484919060009061101b908490611bdf565b909155505050505050565b6005546001600160a01b031633146110805760405162461bcd60e51b815260206004820181905260248201527f4f776e61626c653a2063616c6c6572206973206e6f7420746865206f776e657260448201526064016106d8565b6001600160a01b038116600081815260086020908152604091829020805460ff1916600117905590519182527e93600bc90c2ab03b950731052fad412857729f0644ce8b485bcc6e553c5fc39101610850565b6006546001600160a01b0316331461112d5760405162461bcd60e51b815260206004820152601260248201527f4f6e6c7942616e6b3a206f6e6c7942616e6b000000000000000000000000000060448201526064016106d8565b610c398282611805565b6111506305a39a806ae37983df262343f3000000611bf7565b81565b6005546001600160a01b031633146111ad5760405162461bcd60e51b815260206004820181905260248201527f4f776e61626c653a2063616c6c6572206973206e6f7420746865206f776e657260448201526064016106d8565b6001600160a01b0381166112035760405162461bcd60e51b815260206004820152601660248201527f437562653a20496e76616c69642074726561737572790000000000000000000060448201526064016106d8565b600a805473ffffffffffffffffffffffffffffffffffffffff19166001600160a01b0383169081179091556040519081527f7dae230f18360d76a040c81f050aa14eb9d6dc7901b20fc5d855e2a20fe814d190602001610850565b6005546001600160a01b031633146112b85760405162461bcd60e51b815260206004820181905260248201527f4f776e61626c653a2063616c6c6572206973206e6f7420746865206f776e657260448201526064016106d8565b6001600160a01b0381166113345760405162461bcd60e51b815260206004820152602660248201527f4f776e61626c653a206e6577206f776e657220697320746865207a65726f206160448201527f646472657373000000000000000000000000000000000000000000000000000060648201526084016106d8565b61133d816118e4565b50565b6005546001600160a01b0316331461139a5760405162461bcd60e51b815260206004820181905260248201527f4f776e61626c653a2063616c6c6572206973206e6f7420746865206f776e657260448201526064016106d8565b6001600160a01b038116600081815260086020908152604091829020805460ff1916905590519182527f9772291de8bdcbb9cb9ef94b2f5672461d1cb65a3c26441f2e5235dd1bf938c49101610850565b6001600160a01b0383166114665760405162461bcd60e51b8152602060048201526024808201527f45524332303a20617070726f76652066726f6d20746865207a65726f2061646460448201527f726573730000000000000000000000000000000000000000000000000000000060648201526084016106d8565b6001600160a01b0382166114e25760405162461bcd60e51b815260206004820152602260248201527f45524332303a20617070726f766520746f20746865207a65726f20616464726560448201527f737300000000000000000000000000000000000000000000000000000000000060648201526084016106d8565b6001600160a01b0383811660008181526001602090815260408083209487168084529482529182902085905590518481527f8c5be1e5ebec7d5bd14f71427d1e84f3dd0314c0f7b2291e5b200ac8c7c3b92591015b60405180910390a3505050565b6001600160a01b0383811660009081526001602090815260408083209386168352929052205460001981146115d057818110156115c35760405162461bcd60e51b815260206004820152601d60248201527f45524332303a20696e73756666696369656e7420616c6c6f77616e636500000060448201526064016106d8565b6115d084848484036113eb565b50505050565b6001600160a01b0383166116525760405162461bcd60e51b815260206004820152602560248201527f45524332303a207472616e736665722066726f6d20746865207a65726f20616460448201527f647265737300000000000000000000000000000000000000000000000000000060648201526084016106d8565b6001600160a01b0382166116ce5760405162461bcd60e51b815260206004820152602360248201527f45524332303a207472616e7366657220746f20746865207a65726f206164647260448201527f657373000000000000000000000000000000000000000000000000000000000060648201526084016106d8565b6001600160a01b0383166000908152602081905260409020548181101561175d5760405162461bcd60e51b815260206004820152602660248201527f45524332303a207472616e7366657220616d6f756e742065786365656473206260448201527f616c616e6365000000000000000000000000000000000000000000000000000060648201526084016106d8565b6001600160a01b03808516600090815260208190526040808220858503905591851681529081208054849290611794908490611bdf565b92505081905550826001600160a01b0316846001600160a01b03167fddf252ad1be2c89b69c2b068fc378daa952ba7f163c4a11628f55a4df523b3ef846040516117e091815260200190565b60405180910390a36115d0565b60008183106117fc57816117fe565b825b9392505050565b6001600160a01b03821661185b5760405162461bcd60e51b815260206004820152601f60248201527f45524332303a206d696e7420746f20746865207a65726f20616464726573730060448201526064016106d8565b806002600082825461186d9190611bdf565b90915550506001600160a01b0382166000908152602081905260408120805483929061189a908490611bdf565b90915550506040518181526001600160a01b038316906000907fddf252ad1be2c89b69c2b068fc378daa952ba7f163c4a11628f55a4df523b3ef9060200160405180910390a35050565b600580546001600160a01b0383811673ffffffffffffffffffffffffffffffffffffffff19831681179093556040519116919082907f8be0079c531659141344cd1fd0a4f28419497f9722a3daafe3b4186f6b6457e090600090a35050565b6001600160a01b0382166119bf5760405162461bcd60e51b815260206004820152602160248201527f45524332303a206275726e2066726f6d20746865207a65726f2061646472657360448201527f730000000000000000000000000000000000000000000000000000000000000060648201526084016106d8565b6001600160a01b03821660009081526020819052604090205481811015611a4e5760405162461bcd60e51b815260206004820152602260248201527f45524332303a206275726e20616d6f756e7420657863656564732062616c616e60448201527f636500000000000000000000000000000000000000000000000000000000000060648201526084016106d8565b6001600160a01b0383166000908152602081905260408120838303905560028054849290611a7d908490611c36565b90915550506040518281526000906001600160a01b038516907fddf252ad1be2c89b69c2b068fc378daa952ba7f163c4a11628f55a4df523b3ef90602001611537565b80356001600160a01b0381168114611ad757600080fd5b919050565b600060208284031215611aed578081fd5b6117fe82611ac0565b60008060408385031215611b08578081fd5b611b1183611ac0565b9150611b1f60208401611ac0565b90509250929050565b600080600060608486031215611b3c578081fd5b611b4584611ac0565b9250611b5360208501611ac0565b9150604084013590509250925092565b60008060408385031215611b75578182fd5b611b7e83611ac0565b946020939093013593505050565b6000602080835283518082850152825b81811015611bb857858101830151858201604001528201611b9c565b81811115611bc95783604083870101525b50601f01601f1916929092016040019392505050565b60008219821115611bf257611bf2611ca3565b500190565b600082611c1257634e487b7160e01b81526012600452602481fd5b500490565b6000816000190483118215151615611c3157611c31611ca3565b500290565b600082821015611c4857611c48611ca3565b500390565b600181811c90821680611c6157607f821691505b60208210811415611c8257634e487b7160e01b600052602260045260246000fd5b50919050565b6000600019821415611c9c57611c9c611ca3565b5060010190565b634e487b7160e01b600052601160045260246000fdfea2646970667358221220419ba0f3ede382ccc00414f9adc4c83eca1139309090f726165f1410ae066a6564736f6c634300080400334f776e61626c653a2063616c6c6572206973206e6f7420746865206f776e6572",
  "linkReferences": {},
  "deployedLinkReferences": {}
}