{
  "_format": "hh-sol-artifact-1",
  "contractName": "SCAMP",
  "sourceName": "contracts/bank/SCAMP.sol",
  "abi": [
    {
      "inputs": [
        {
          "internalType": "address",
          "name": "_creator_address",
          "type": "address"
        }
      ],
      "stateMutability": "nonpayable",
      "type": "constructor"
    },
    {
      "anonymous": false,
      "inputs": [
        {
          "indexed": true,
          "internalType": "address",
          "name": "owner",
          "type": "address"
        },
        {
          "indexed": true,
          "internalType": "address",
          "name": "spender",
          "type": "address"
        },
        {
          "indexed": false,
          "internalType": "uint256",
          "name": "value",
          "type": "uint256"
        }
      ],
      "name": "Approval",
      "type": "event"
    },
    {
      "anonymous": false,
      "inputs": [
        {
          "indexed": false,
          "internalType": "address",
          "name": "Bank_address",
          "type": "address"
        }
      ],
      "name": "BankAddressSet",
      "type": "event"
    },
    {
      "anonymous": false,
      "inputs": [
        {
          "indexed": false,
          "internalType": "address",
          "name": "CAMP_address",
          "type": "address"
        }
      ],
      "name": "CAMPAddressSet",
      "type": "event"
    },
    {
      "anonymous": false,
      "inputs": [
        {
          "indexed": false,
          "internalType": "address",
          "name": "CAMP_Oracle_address",
          "type": "address"
        }
      ],
      "name": "CAMPOracleset",
      "type": "event"
    },
    {
      "anonymous": false,
      "inputs": [
        {
          "indexed": false,
          "internalType": "uint256",
          "name": "current_collateral_ratio",
          "type": "uint256"
        }
      ],
      "name": "CollateralRatioRefreshed",
      "type": "event"
    },
    {
      "anonymous": false,
      "inputs": [
        {
          "indexed": false,
          "internalType": "bool",
          "name": "collateral_ratio_paused",
          "type": "bool"
        }
      ],
      "name": "CollateralRatioToggled",
      "type": "event"
    },
    {
      "anonymous": false,
      "inputs": [
        {
          "indexed": false,
          "internalType": "address",
          "name": "controller_address",
          "type": "address"
        }
      ],
      "name": "ControllerSet",
      "type": "event"
    },
    {
      "anonymous": false,
      "inputs": [
        {
          "indexed": false,
          "internalType": "uint256",
          "name": "min_fee",
          "type": "uint256"
        }
      ],
      "name": "MintingFeeSet",
      "type": "event"
    },
    {
      "anonymous": false,
      "inputs": [
        {
          "indexed": false,
          "internalType": "address",
          "name": "oldOwner",
          "type": "address"
        },
        {
          "indexed": false,
          "internalType": "address",
          "name": "newOwner",
          "type": "address"
        }
      ],
      "name": "OwnerChanged",
      "type": "event"
    },
    {
      "anonymous": false,
      "inputs": [
        {
          "indexed": false,
          "internalType": "address",
          "name": "newOwner",
          "type": "address"
        }
      ],
      "name": "OwnerNominated",
      "type": "event"
    },
    {
      "anonymous": false,
      "inputs": [
        {
          "indexed": false,
          "internalType": "uint256",
          "name": "price_band",
          "type": "uint256"
        }
      ],
      "name": "PriceBandSet",
      "type": "event"
    },
    {
      "anonymous": false,
      "inputs": [
        {
          "indexed": false,
          "internalType": "uint256",
          "name": "new_price_target",
          "type": "uint256"
        }
      ],
      "name": "PriceTargetSet",
      "type": "event"
    },
    {
      "anonymous": false,
      "inputs": [
        {
          "indexed": false,
          "internalType": "uint256",
          "name": "red_fee",
          "type": "uint256"
        }
      ],
      "name": "RedemptionFeeSet",
      "type": "event"
    },
    {
      "anonymous": false,
      "inputs": [
        {
          "indexed": false,
          "internalType": "uint256",
          "name": "new_cooldown",
          "type": "uint256"
        }
      ],
      "name": "RefreshCooldownSet",
      "type": "event"
    },
    {
      "anonymous": false,
      "inputs": [
        {
          "indexed": true,
          "internalType": "address",
          "name": "from",
          "type": "address"
        },
        {
          "indexed": true,
          "internalType": "address",
          "name": "to",
          "type": "address"
        },
        {
          "indexed": false,
          "internalType": "uint256",
          "name": "amount",
          "type": "uint256"
        }
      ],
      "name": "SCAMPBurned",
      "type": "event"
    },
    {
      "anonymous": false,
      "inputs": [
        {
          "indexed": true,
          "internalType": "address",
          "name": "from",
          "type": "address"
        },
        {
          "indexed": true,
          "internalType": "address",
          "name": "to",
          "type": "address"
        },
        {
          "indexed": false,
          "internalType": "uint256",
          "name": "amount",
          "type": "uint256"
        }
      ],
      "name": "SCAMPMinted",
      "type": "event"
    },
    {
      "anonymous": false,
      "inputs": [
        {
          "indexed": false,
          "internalType": "address",
          "name": "SCAMP_Oracle_address",
          "type": "address"
        }
      ],
      "name": "SCAMPOracleset",
      "type": "event"
    },
    {
      "anonymous": false,
      "inputs": [
        {
          "indexed": false,
          "internalType": "uint256",
          "name": "new_step",
          "type": "uint256"
        }
      ],
      "name": "SCAMPStepSet",
      "type": "event"
    },
    {
      "anonymous": false,
      "inputs": [
        {
          "indexed": true,
          "internalType": "address",
          "name": "from",
          "type": "address"
        },
        {
          "indexed": true,
          "internalType": "address",
          "name": "to",
          "type": "address"
        },
        {
          "indexed": false,
          "internalType": "uint256",
          "name": "value",
          "type": "uint256"
        }
      ],
      "name": "Transfer",
      "type": "event"
    },
    {
      "anonymous": false,
      "inputs": [
        {
          "indexed": false,
          "internalType": "address",
          "name": "USDT_address",
          "type": "address"
        }
      ],
      "name": "USDTAddressSet",
      "type": "event"
    },
    {
      "inputs": [
        {
          "internalType": "address",
          "name": "b_address",
          "type": "address"
        },
        {
          "internalType": "uint256",
          "name": "b_amoount",
          "type": "uint256"
        }
      ],
      "name": "Bank_burn_from",
      "outputs": [],
      "stateMutability": "nonpayable",
      "type": "function"
    },
    {
      "inputs": [
        {
          "internalType": "address",
          "name": "m_address",
          "type": "address"
        },
        {
          "internalType": "uint256",
          "name": "m_amount",
          "type": "uint256"
        }
      ],
      "name": "Bank_mint",
      "outputs": [],
      "stateMutability": "nonpayable",
      "type": "function"
    },
    {
      "inputs": [],
      "name": "CAMP_Price",
      "outputs": [
        {
          "internalType": "uint256",
          "name": "price",
          "type": "uint256"
        }
      ],
      "stateMutability": "view",
      "type": "function"
    },
    {
      "inputs": [],
      "name": "CAMP_address",
      "outputs": [
        {
          "internalType": "address",
          "name": "",
          "type": "address"
        }
      ],
      "stateMutability": "view",
      "type": "function"
    },
    {
      "inputs": [],
      "name": "SCAMPBank",
      "outputs": [
        {
          "internalType": "address",
          "name": "",
          "type": "address"
        }
      ],
      "stateMutability": "view",
      "type": "function"
    },
    {
      "inputs": [],
      "name": "SCAMP_Price",
      "outputs": [
        {
          "internalType": "uint256",
          "name": "price",
          "type": "uint256"
        }
      ],
      "stateMutability": "view",
      "type": "function"
    },
    {
      "inputs": [],
      "name": "SCAMP_info",
      "outputs": [
        {
          "internalType": "uint256",
          "name": "",
          "type": "uint256"
        },
        {
          "internalType": "uint256",
          "name": "",
          "type": "uint256"
        },
        {
          "internalType": "uint256",
          "name": "",
          "type": "uint256"
        },
        {
          "internalType": "uint256",
          "name": "",
          "type": "uint256"
        },
        {
          "internalType": "uint256",
          "name": "",
          "type": "uint256"
        }
      ],
      "stateMutability": "view",
      "type": "function"
    },
    {
      "inputs": [],
      "name": "SCAMP_step",
      "outputs": [
        {
          "internalType": "uint256",
          "name": "",
          "type": "uint256"
        }
      ],
      "stateMutability": "view",
      "type": "function"
    },
    {
      "inputs": [],
      "name": "acceptOwnership",
      "outputs": [],
      "stateMutability": "nonpayable",
      "type": "function"
    },
    {
      "inputs": [
        {
          "internalType": "address",
          "name": "owner",
          "type": "address"
        },
        {
          "internalType": "address",
          "name": "spender",
          "type": "address"
        }
      ],
      "name": "allowance",
      "outputs": [
        {
          "internalType": "uint256",
          "name": "",
          "type": "uint256"
        }
      ],
      "stateMutability": "view",
      "type": "function"
    },
    {
      "inputs": [
        {
          "internalType": "address",
          "name": "spender",
          "type": "address"
        },
        {
          "internalType": "uint256",
          "name": "amount",
          "type": "uint256"
        }
      ],
      "name": "approve",
      "outputs": [
        {
          "internalType": "bool",
          "name": "",
          "type": "bool"
        }
      ],
      "stateMutability": "nonpayable",
      "type": "function"
    },
    {
      "inputs": [
        {
          "internalType": "address",
          "name": "account",
          "type": "address"
        }
      ],
      "name": "balanceOf",
      "outputs": [
        {
          "internalType": "uint256",
          "name": "",
          "type": "uint256"
        }
      ],
      "stateMutability": "view",
      "type": "function"
    },
    {
      "inputs": [],
      "name": "collateral_ratio_paused",
      "outputs": [
        {
          "internalType": "bool",
          "name": "",
          "type": "bool"
        }
      ],
      "stateMutability": "view",
      "type": "function"
    },
    {
      "inputs": [],
      "name": "controller_address",
      "outputs": [
        {
          "internalType": "address",
          "name": "",
          "type": "address"
        }
      ],
      "stateMutability": "view",
      "type": "function"
    },
    {
      "inputs": [],
      "name": "creator_address",
      "outputs": [
        {
          "internalType": "address",
          "name": "",
          "type": "address"
        }
      ],
      "stateMutability": "view",
      "type": "function"
    },
    {
      "inputs": [],
      "name": "current_collateral_ratio",
      "outputs": [
        {
          "internalType": "uint256",
          "name": "",
          "type": "uint256"
        }
      ],
      "stateMutability": "view",
      "type": "function"
    },
    {
      "inputs": [],
      "name": "decimals",
      "outputs": [
        {
          "internalType": "uint8",
          "name": "",
          "type": "uint8"
        }
      ],
      "stateMutability": "view",
      "type": "function"
    },
    {
      "inputs": [
        {
          "internalType": "address",
          "name": "spender",
          "type": "address"
        },
        {
          "internalType": "uint256",
          "name": "subtractedValue",
          "type": "uint256"
        }
      ],
      "name": "decreaseAllowance",
      "outputs": [
        {
          "internalType": "bool",
          "name": "",
          "type": "bool"
        }
      ],
      "stateMutability": "nonpayable",
      "type": "function"
    },
    {
      "inputs": [],
      "name": "default_admin_address",
      "outputs": [
        {
          "internalType": "address",
          "name": "",
          "type": "address"
        }
      ],
      "stateMutability": "view",
      "type": "function"
    },
    {
      "inputs": [],
      "name": "genesis_supply",
      "outputs": [
        {
          "internalType": "uint256",
          "name": "",
          "type": "uint256"
        }
      ],
      "stateMutability": "view",
      "type": "function"
    },
    {
      "inputs": [
        {
          "internalType": "address",
          "name": "spender",
          "type": "address"
        },
        {
          "internalType": "uint256",
          "name": "addedValue",
          "type": "uint256"
        }
      ],
      "name": "increaseAllowance",
      "outputs": [
        {
          "internalType": "bool",
          "name": "",
          "type": "bool"
        }
      ],
      "stateMutability": "nonpayable",
      "type": "function"
    },
    {
      "inputs": [],
      "name": "last_call_time",
      "outputs": [
        {
          "internalType": "uint256",
          "name": "",
          "type": "uint256"
        }
      ],
      "stateMutability": "view",
      "type": "function"
    },
    {
      "inputs": [],
      "name": "minting_fee",
      "outputs": [
        {
          "internalType": "uint256",
          "name": "",
          "type": "uint256"
        }
      ],
      "stateMutability": "view",
      "type": "function"
    },
    {
      "inputs": [],
      "name": "name",
      "outputs": [
        {
          "internalType": "string",
          "name": "",
          "type": "string"
        }
      ],
      "stateMutability": "view",
      "type": "function"
    },
    {
      "inputs": [
        {
          "internalType": "address",
          "name": "_owner",
          "type": "address"
        }
      ],
      "name": "nominateNewOwner",
      "outputs": [],
      "stateMutability": "nonpayable",
      "type": "function"
    },
    {
      "inputs": [],
      "name": "nominatedOwner",
      "outputs": [
        {
          "internalType": "address",
          "name": "",
          "type": "address"
        }
      ],
      "stateMutability": "view",
      "type": "function"
    },
    {
      "inputs": [],
      "name": "owner",
      "outputs": [
        {
          "internalType": "address",
          "name": "",
          "type": "address"
        }
      ],
      "stateMutability": "view",
      "type": "function"
    },
    {
      "inputs": [],
      "name": "price_band",
      "outputs": [
        {
          "internalType": "uint256",
          "name": "",
          "type": "uint256"
        }
      ],
      "stateMutability": "view",
      "type": "function"
    },
    {
      "inputs": [],
      "name": "price_target",
      "outputs": [
        {
          "internalType": "uint256",
          "name": "",
          "type": "uint256"
        }
      ],
      "stateMutability": "view",
      "type": "function"
    },
    {
      "inputs": [],
      "name": "redemption_fee",
      "outputs": [
        {
          "internalType": "uint256",
          "name": "",
          "type": "uint256"
        }
      ],
      "stateMutability": "view",
      "type": "function"
    },
    {
      "inputs": [],
      "name": "refreshCollateralRatio",
      "outputs": [],
      "stateMutability": "nonpayable",
      "type": "function"
    },
    {
      "inputs": [],
      "name": "refresh_cooldown",
      "outputs": [
        {
          "internalType": "uint256",
          "name": "",
          "type": "uint256"
        }
      ],
      "stateMutability": "view",
      "type": "function"
    },
    {
      "inputs": [
        {
          "internalType": "address",
          "name": "_Bank_address",
          "type": "address"
        }
      ],
      "name": "setBankAddress",
      "outputs": [],
      "stateMutability": "nonpayable",
      "type": "function"
    },
    {
      "inputs": [
        {
          "internalType": "address",
          "name": "_CAMP_address",
          "type": "address"
        }
      ],
      "name": "setCAMPAddress",
      "outputs": [],
      "stateMutability": "nonpayable",
      "type": "function"
    },
    {
      "inputs": [
        {
          "internalType": "address",
          "name": "_oracleAddress",
          "type": "address"
        }
      ],
      "name": "setCAMPOracleAddress",
      "outputs": [],
      "stateMutability": "nonpayable",
      "type": "function"
    },
    {
      "inputs": [
        {
          "internalType": "address",
          "name": "_controller_address",
          "type": "address"
        }
      ],
      "name": "setController",
      "outputs": [],
      "stateMutability": "nonpayable",
      "type": "function"
    },
    {
      "inputs": [
        {
          "internalType": "uint256",
          "name": "mint_fee",
          "type": "uint256"
        }
      ],
      "name": "setMintingFee",
      "outputs": [],
      "stateMutability": "nonpayable",
      "type": "function"
    },
    {
      "inputs": [
        {
          "internalType": "uint256",
          "name": "_price_band",
          "type": "uint256"
        }
      ],
      "name": "setPriceBand",
      "outputs": [],
      "stateMutability": "nonpayable",
      "type": "function"
    },
    {
      "inputs": [
        {
          "internalType": "uint256",
          "name": "_new_price_target",
          "type": "uint256"
        }
      ],
      "name": "setPriceTarget",
      "outputs": [],
      "stateMutability": "nonpayable",
      "type": "function"
    },
    {
      "inputs": [
        {
          "internalType": "uint256",
          "name": "red_fee",
          "type": "uint256"
        }
      ],
      "name": "setRedemptionFee",
      "outputs": [],
      "stateMutability": "nonpayable",
      "type": "function"
    },
    {
      "inputs": [
        {
          "internalType": "uint256",
          "name": "_new_cooldown",
          "type": "uint256"
        }
      ],
      "name": "setRefreshCooldown",
      "outputs": [],
      "stateMutability": "nonpayable",
      "type": "function"
    },
    {
      "inputs": [
        {
          "internalType": "address",
          "name": "_oracleAddress",
          "type": "address"
        }
      ],
      "name": "setSCAMPOracleAddress",
      "outputs": [],
      "stateMutability": "nonpayable",
      "type": "function"
    },
    {
      "inputs": [
        {
          "internalType": "uint256",
          "name": "_new_step",
          "type": "uint256"
        }
      ],
      "name": "setSCAMPStep",
      "outputs": [],
      "stateMutability": "nonpayable",
      "type": "function"
    },
    {
      "inputs": [
        {
          "internalType": "address",
          "name": "_USDT_address",
          "type": "address"
        }
      ],
      "name": "setUSDTAddress",
      "outputs": [],
      "stateMutability": "nonpayable",
      "type": "function"
    },
    {
      "inputs": [],
      "name": "symbol",
      "outputs": [
        {
          "internalType": "string",
          "name": "",
          "type": "string"
        }
      ],
      "stateMutability": "view",
      "type": "function"
    },
    {
      "inputs": [],
      "name": "toggleCollateralRatio",
      "outputs": [],
      "stateMutability": "nonpayable",
      "type": "function"
    },
    {
      "inputs": [],
      "name": "totalSupply",
      "outputs": [
        {
          "internalType": "uint256",
          "name": "",
          "type": "uint256"
        }
      ],
      "stateMutability": "view",
      "type": "function"
    },
    {
      "inputs": [
        {
          "internalType": "address",
          "name": "recipient",
          "type": "address"
        },
        {
          "internalType": "uint256",
          "name": "amount",
          "type": "uint256"
        }
      ],
      "name": "transfer",
      "outputs": [
        {
          "internalType": "bool",
          "name": "",
          "type": "bool"
        }
      ],
      "stateMutability": "nonpayable",
      "type": "function"
    },
    {
      "inputs": [
        {
          "internalType": "address",
          "name": "sender",
          "type": "address"
        },
        {
          "internalType": "address",
          "name": "recipient",
          "type": "address"
        },
        {
          "internalType": "uint256",
          "name": "amount",
          "type": "uint256"
        }
      ],
      "name": "transferFrom",
      "outputs": [
        {
          "internalType": "bool",
          "name": "",
          "type": "bool"
        }
      ],
      "stateMutability": "nonpayable",
      "type": "function"
    },
    {
      "inputs": [],
      "name": "usdt_address",
      "outputs": [
        {
          "internalType": "address",
          "name": "",
          "type": "address"
        }
      ],
      "stateMutability": "view",
      "type": "function"
    }
  ],
  "bytecode": "0x60806040526015805460ff60a01b191690553480156200001e57600080fd5b5060405162002a5438038062002a54833981810160405260208110156200004457600080fd5b5051604080518082018252600a81527f537461626c6543414d500000000000000000000000000000000000000000000060208281019182528351808501909452600584527f5343414d50000000000000000000000000000000000000000000000000000000908401528151849391601291620000c391600391620003f3565b508151620000d9906004906020850190620003f3565b506005805460ff191660ff9290921691909117905550506001600160a01b0381166200016657604080517f08c379a000000000000000000000000000000000000000000000000000000000815260206004820152601960248201527f4f776e657220616464726573732063616e6e6f74206265203000000000000000604482015290519081900360640190fd5b60058054610100600160a81b0319166101006001600160a01b038416908102919091179091556040805160008152602081019290925280517fb532073b38c83145e3e5135377a08bf9aab55bc0fd7c1179cd4fb995d2a5159c9281900390910190a150600980546001600160a01b0319166001600160a01b038316179055620001ee62000245565b601580546001600160a01b0319166001600160a01b039283161790556009546200022591166a01a784379d99db4200000062000249565b506109c4601155610e10601255620f42406013556113886014556200049f565b3390565b6001600160a01b038216620002bf57604080517f08c379a000000000000000000000000000000000000000000000000000000000815260206004820152601e60248201527f4b4950373a206d696e7420746f20746865207a65726f20616464726573730000604482015290519081900360640190fd5b620002cc30838362000372565b620002e8816002546200037760201b62001c861790919060201c565b6002556001600160a01b038216600090815260208181526040909120546200031b91839062001c8662000377821b17901c565b6001600160a01b038316600081815260208181526040918290209390935580518481529051919230927fddf252ad1be2c89b69c2b068fc378daa952ba7f163c4a11628f55a4df523b3ef9281900390910190a35050565b505050565b600082820183811015620003ec57604080517f08c379a000000000000000000000000000000000000000000000000000000000815260206004820152601b60248201527f536166654d6174683a206164646974696f6e206f766572666c6f770000000000604482015290519081900360640190fd5b9392505050565b828054600181600116156101000203166002900490600052602060002090601f0160209004810192826200042b576000855562000476565b82601f106200044657805160ff191683800117855562000476565b8280016001018555821562000476579182015b828111156200047657825182559160200191906001019062000459565b506200048492915062000488565b5090565b5b8082111562000484576000815560010162000489565b6125a580620004af6000396000f3fe608060405234801561001057600080fd5b50600436106103365760003560e01c806355eba868116101b2578063978eefd1116100f9578063c03f7be3116100a2578063dbe263a51161007c578063dbe263a5146107b3578063dbf6b9b5146107df578063dd62ed3e1461080b578063fc3c0eee1461083957610336565b8063c03f7be31461079b578063c3355b8d146107a3578063cb73999f146107ab57610336565b8063a457c2d7116100d3578063a457c2d71461073b578063a9059cbb14610767578063bef40ec81461079357610336565b8063978eefd1146106e75780639a14fa371461070d5780639fb2c89f1461073357610336565b80637dbc1df01161015b5780638da5cb5b116101355780638da5cb5b146106b157806392eefe9b146106b957806395d89b41146106df57610336565b80637dbc1df01461066657806381e3ca811461068357806387a140c3146106a957610336565b806370a082311161018c57806370a082311461060557806379ba50971461062b5780637b0b81c31461063357610336565b806355eba868146105ba5780636140133b146105e057806367feda3e146105fd57610336565b806323b872dd116102815780633e5a94871161022a578063492bcb3311610204578063492bcb331461059a5780634bd0be23146105a257806351e238e3146105aa57806353a47bb7146105b257610336565b80633e5a94871461056d5780634013124a14610575578063408ab10f1461057d57610336565b8063313ce5671161025b578063313ce5671461051b57806339299f5c14610539578063395093511461054157610336565b806323b872dd146104d55780632853fb101461050b5780632cb4f63e1461051357610336565b80631bd33cb3116102e35780632258750a116102bd5780632258750a146104a85780632332a15a146104b0578063238a4709146104b857610336565b80631bd33cb3146104665780631c5df1e5146104835780631fef3056146104a057610336565b80630c2e9674116103145780630c2e96741461041c5780631627540c1461042457806318160ddd1461044c57610336565b806306fdde031461033b5780630711ab20146103b8578063095ea7b3146103dc575b600080fd5b61034361085f565b6040805160208082528351818301528351919283929083019185019080838360005b8381101561037d578181015183820152602001610365565b50505050905090810190601f1680156103aa5780820380516001836020036101000a031916815260200191505b509250505060405180910390f35b6103c06108f5565b604080516001600160a01b039092168252519081900360200190f35b610408600480360360408110156103f257600080fd5b506001600160a01b038135169060200135610904565b604080519115158252519081900360200190f35b6103c061091b565b61044a6004803603602081101561043a57600080fd5b50356001600160a01b031661092a565b005b6104546109cc565b60408051918252519081900360200190f35b61044a6004803603602081101561047c57600080fd5b50356109d2565b61044a6004803603602081101561049957600080fd5b5035610a74565b6103c0610b16565b610454610b25565b610454610b2b565b61044a600480360360208110156104ce57600080fd5b5035610b31565b610408600480360360608110156104eb57600080fd5b506001600160a01b03813581169160208101359091169060400135610bd3565b610454610c3c565b610454610c42565b610523610c48565b6040805160ff9092168252519081900360200190f35b6103c0610c51565b6104086004803603604081101561055757600080fd5b506001600160a01b038135169060200135610c60565b610454610c96565b61044a610d90565b61044a6004803603602081101561059357600080fd5b5035610ecb565b610454610f6d565b6103c0611023565b610454611032565b6103c0611041565b61044a600480360360208110156105d057600080fd5b50356001600160a01b0316611050565b61044a600480360360208110156105f657600080fd5b503561115e565b6103c0611200565b6104546004803603602081101561061b57600080fd5b50356001600160a01b031661120f565b61044a61122a565b61063b61130d565b6040805195865260208601949094528484019290925260608401526080830152519081900360a00190f35b61044a6004803603602081101561067c57600080fd5b503561133f565b61044a6004803603602081101561069957600080fd5b50356001600160a01b03166113e1565b6104086114ef565b6103c06114ff565b61044a600480360360208110156106cf57600080fd5b50356001600160a01b0316611513565b610343611621565b61044a600480360360208110156106fd57600080fd5b50356001600160a01b0316611682565b61044a6004803603602081101561072357600080fd5b50356001600160a01b0316611790565b61045461189e565b6104086004803603604081101561075157600080fd5b506001600160a01b0381351690602001356118a4565b6104086004803603604081101561077d57600080fd5b506001600160a01b0381351690602001356118f3565b61044a611900565b6104546119e1565b6104546119e7565b6104546119ed565b61044a600480360360408110156107c957600080fd5b506001600160a01b0381351690602001356119f3565b61044a600480360360408110156107f557600080fd5b506001600160a01b038135169060200135611aa0565b6104546004803603604081101561082157600080fd5b506001600160a01b0381358116916020013516611b4d565b61044a6004803603602081101561084f57600080fd5b50356001600160a01b0316611b78565b60038054604080516020601f60026000196101006001881615020190951694909404938401819004810282018101909252828152606093909290918301828280156108eb5780601f106108c0576101008083540402835291602001916108eb565b820191906000526020600020905b8154815290600101906020018083116108ce57829003601f168201915b5050505050905090565b600b546001600160a01b031681565b6000610911338484611ce7565b5060015b92915050565b600d546001600160a01b031681565b60055461010090046001600160a01b031633146109785760405162461bcd60e51b815260040180806020018281038252602f81526020018061248d602f913960400191505060405180910390fd5b600680546001600160a01b0383166001600160a01b0319909116811790915560408051918252517f906a1c6bd7e3091ea86693dd029a831c19049ce77f1dce2ce0bab1cacbabce229181900360200190a150565b60025490565b60055461010090046001600160a01b03163314806109fa5750600a546001600160a01b031633145b610a39576040805162461bcd60e51b81526020600482015260196024820152600080516020612449833981519152604482015290519081900360640190fd5b60118190556040805182815290517f824b351fc48b068f5918193f15d2f73a9bd8537a018208a6390726689f56107d9181900360200190a150565b60055461010090046001600160a01b0316331480610a9c5750600a546001600160a01b031633145b610adb576040805162461bcd60e51b81526020600482015260196024820152600080516020612449833981519152604482015290519081900360640190fd5b60128190556040805182815290517fc7443059c2ed485e2c9efe4e766bef9432a6f0ed6695741ab4afdffab3b921579181900360200190a150565b600c546001600160a01b031681565b60165481565b600e5481565b60055461010090046001600160a01b0316331480610b595750600a546001600160a01b031633145b610b98576040805162461bcd60e51b81526020600482015260196024820152600080516020612449833981519152604482015290519081900360640190fd5b60108190556040805182815290517f07aefbcc0d8cdf34e241279c78d93d1df9540b5a60d320437958df12ef59e4639181900360200190a150565b6000610be0848484611dd3565b610c328433610c2d856040518060600160405280602781526020016124dd602791396001600160a01b038a1660009081526001602090815260408083203384529091529020549190611f2e565b611ce7565b5060019392505050565b60145481565b60135481565b60055460ff1690565b6015546001600160a01b031681565b3360008181526001602090815260408083206001600160a01b03871684529091528120549091610911918590610c2d9086611c86565b600c546000906001600160a01b0316610cee576040805162461bcd60e51b815260206004820152601560248201527416995c9bc81859191c995cdcc819195d1958dd1959605a1b604482015290519081900360640190fd5b600754600c5460408051633ddac95360e01b81526001600160a01b039283166004820152620f424060248201529051610d8b939290921691633ddac95391604480820192602092909190829003018186803b158015610d4c57600080fd5b505afa158015610d60573d6000803e3d6000fd5b505050506040513d6020811015610d7657600080fd5b5051610d85620f424080611fc5565b9061201e565b905090565b6000610d9a610c96565b905060125460165442031015610df7576040805162461bcd60e51b815260206004820152601c60248201527f506c65617365207761697420726566726573685f636f6f6c646f776e00000000604482015290519081900360640190fd5b601454601354610e0691611c86565b811115610e3a57601154600e5411610e22576000600e55610e35565b601154600e54610e3191612060565b600e555b610e8f565b601454601354610e4991612060565b811015610e8f57620f4240610e6b601154600e54611c8690919063ffffffff16565b10610e7c57620f4240600e55610e8f565b601154600e54610e8b91611c86565b600e555b42601655600e5460408051918252517fb1200af9b3ac4dec88c9d01e1fb7cc7fa1f0fe55bf4afac1f30cc4fc2b2d1dd29181900360200190a150565b60055461010090046001600160a01b0316331480610ef35750600a546001600160a01b031633145b610f32576040805162461bcd60e51b81526020600482015260196024820152600080516020612449833981519152604482015290519081900360640190fd5b60138190556040805182815290517f898a2c9df7982133daaa8cfd78b8c49c520cba03205eec6480552c19059f6e3a9181900360200190a150565b600c546000906001600160a01b0316610fc5576040805162461bcd60e51b815260206004820152601560248201527416995c9bc81859191c995cdcc819195d1958dd1959605a1b604482015290519081900360640190fd5b600854600c5460408051633ddac95360e01b81526001600160a01b039283166004820152620f424060248201529051610d8b939290921691633ddac95391604480820192602092909190829003018186803b158015610d4c57600080fd5b6009546001600160a01b031681565b6a01a784379d99db4200000081565b6006546001600160a01b031681565b60055461010090046001600160a01b03163314806110785750600a546001600160a01b031633145b6110b7576040805162461bcd60e51b81526020600482015260196024820152600080516020612449833981519152604482015290519081900360640190fd5b6001600160a01b03811661110a576040805162461bcd60e51b815260206004820152601560248201527416995c9bc81859191c995cdcc819195d1958dd1959605a1b604482015290519081900360640190fd5b600c80546001600160a01b0383166001600160a01b0319909116811790915560408051918252517f78f14dabac9793341e06217cdae987c6dd4a326306bb5cb768565c3fa54a5ab39181900360200190a150565b60055461010090046001600160a01b03163314806111865750600a546001600160a01b031633145b6111c5576040805162461bcd60e51b81526020600482015260196024820152600080516020612449833981519152604482015290519081900360640190fd5b60148190556040805182815290517fe9febe6aec89ff2870eeab6d13333c59cbed275b1d9a95f527c853d99ddb7cf49181900360200190a150565b600a546001600160a01b031681565b6001600160a01b031660009081526020819052604090205490565b6006546001600160a01b031633146112735760405162461bcd60e51b81526004018080602001828103825260358152602001806123ad6035913960400191505060405180910390fd5b600554600654604080516101009093046001600160a01b039081168452909116602083015280517fb532073b38c83145e3e5135377a08bf9aab55bc0fd7c1179cd4fb995d2a5159c9281900390910190a160068054600580547fffffffffffffffffffffff0000000000000000000000000000000000000000ff166101006001600160a01b038416021790556001600160a01b0319169055565b600080600080600061131d610c96565b6113256109cc565b600e54601054600f54945094509450945094509091929394565b60055461010090046001600160a01b03163314806113675750600a546001600160a01b031633145b6113a6576040805162461bcd60e51b81526020600482015260196024820152600080516020612449833981519152604482015290519081900360640190fd5b600f8190556040805182815290517f91cc643d187eb250905520d3dae0b1017edd16961d27ab9a4a61fea5e38f717d9181900360200190a150565b60055461010090046001600160a01b03163314806114095750600a546001600160a01b031633145b611448576040805162461bcd60e51b81526020600482015260196024820152600080516020612449833981519152604482015290519081900360640190fd5b6001600160a01b03811661149b576040805162461bcd60e51b815260206004820152601560248201527416995c9bc81859191c995cdcc819195d1958dd1959605a1b604482015290519081900360640190fd5b600b80546001600160a01b0383166001600160a01b0319909116811790915560408051918252517f1c950088a34f94b646255759072e9d26ed6f958a790853da316c06377a99883a9181900360200190a150565b601554600160a01b900460ff1681565b60055461010090046001600160a01b031681565b60055461010090046001600160a01b031633148061153b5750600a546001600160a01b031633145b61157a576040805162461bcd60e51b81526020600482015260196024820152600080516020612449833981519152604482015290519081900360640190fd5b6001600160a01b0381166115cd576040805162461bcd60e51b815260206004820152601560248201527416995c9bc81859191c995cdcc819195d1958dd1959605a1b604482015290519081900360640190fd5b600a80546001600160a01b0383166001600160a01b0319909116811790915560408051918252517f79f74fd5964b6943d8a1865abfb7f668c92fa3f32c0a2e3195da7d0946703ad79181900360200190a150565b60048054604080516020601f60026000196101006001881615020190951694909404938401819004810282018101909252828152606093909290918301828280156108eb5780601f106108c0576101008083540402835291602001916108eb565b60055461010090046001600160a01b03163314806116aa5750600a546001600160a01b031633145b6116e9576040805162461bcd60e51b81526020600482015260196024820152600080516020612449833981519152604482015290519081900360640190fd5b6001600160a01b03811661173c576040805162461bcd60e51b815260206004820152601560248201527416995c9bc81859191c995cdcc819195d1958dd1959605a1b604482015290519081900360640190fd5b600780546001600160a01b0383166001600160a01b0319909116811790915560408051918252517f91f0e98eb6549d3e333dc21fe6a133d1e677e2299b3336a775098fe7cfbd59749181900360200190a150565b60055461010090046001600160a01b03163314806117b85750600a546001600160a01b031633145b6117f7576040805162461bcd60e51b81526020600482015260196024820152600080516020612449833981519152604482015290519081900360640190fd5b6001600160a01b03811661184a576040805162461bcd60e51b815260206004820152601560248201527416995c9bc81859191c995cdcc819195d1958dd1959605a1b604482015290519081900360640190fd5b600880546001600160a01b0383166001600160a01b0319909116811790915560408051918252517fc1016863886a3d53a6a27cda8775689d2a5c25d8e56b11af09a95f35a7eccfee9181900360200190a150565b60115481565b60006109113384610c2d85604051806060016040528060248152602001612425602491393360009081526001602090815260408083206001600160a01b038d1684529091529020549190611f2e565b6000610911338484611dd3565b60055461010090046001600160a01b03163314806119285750600a546001600160a01b031633145b611967576040805162461bcd60e51b81526020600482015260196024820152600080516020612449833981519152604482015290519081900360640190fd5b6015805460ff600160a01b80830482161581027fffffffffffffffffffffff00ffffffffffffffffffffffffffffffffffffffff90931692909217928390556040805192909304161515815290517f209068f7bed5a02fb7695c3e3b61bb8324d1facb25523c6422bfd2105ec44d929181900360200190a1565b60125481565b60105481565b600f5481565b600d546001600160a01b03163314611a52576040805162461bcd60e51b815260206004820152601360248201527f6f6e6c792042616e6b20436f6e74726163742100000000000000000000000000604482015290519081900360640190fd5b611a5c82826120a2565b6040805182815290516001600160a01b0384169133917fdad3ed3510fe15dde55e79fa4859e96de27362c8325906c64827f272dc7e05d29181900360200190a35050565b600d546001600160a01b03163314611aff576040805162461bcd60e51b815260206004820152601360248201527f6f6e6c792042616e6b20436f6e74726163742100000000000000000000000000604482015290519081900360640190fd5b611b098282612192565b60408051828152905133916001600160a01b038516917f13088f04e1910bc7d2c5ef8bf05069ae54d800d6e7d6ca319b7d3065fbe26e309181900360200190a35050565b6001600160a01b03918216600090815260016020908152604080832093909416825291909152205490565b60055461010090046001600160a01b0316331480611ba05750600a546001600160a01b031633145b611bdf576040805162461bcd60e51b81526020600482015260196024820152600080516020612449833981519152604482015290519081900360640190fd5b6001600160a01b038116611c32576040805162461bcd60e51b815260206004820152601560248201527416995c9bc81859191c995cdcc819195d1958dd1959605a1b604482015290519081900360640190fd5b600d80546001600160a01b0383166001600160a01b0319909116811790915560408051918252517f04a925e9ddb198c19f36db950de12605ef52913ae0a0bfa45bb3714f233fc2899181900360200190a150565b600082820183811015611ce0576040805162461bcd60e51b815260206004820152601b60248201527f536166654d6174683a206164646974696f6e206f766572666c6f770000000000604482015290519081900360640190fd5b9392505050565b6001600160a01b038316611d2c5760405162461bcd60e51b815260040180806020018281038252602381526020018061254d6023913960400191505060405180910390fd5b6001600160a01b038216611d715760405162461bcd60e51b815260040180806020018281038252602181526020018061238c6021913960400191505060405180910390fd5b6001600160a01b03808416600081815260016020908152604080832094871680845294825291829020859055815185815291517f8c5be1e5ebec7d5bd14f71427d1e84f3dd0314c0f7b2291e5b200ac8c7c3b9259281900390910190a3505050565b6001600160a01b038316611e185760405162461bcd60e51b81526004018080602001828103825260248152602001806124696024913960400191505060405180910390fd5b6001600160a01b038216611e5d5760405162461bcd60e51b81526004018080602001828103825260228152602001806124036022913960400191505060405180910390fd5b611e6883838361220b565b611ea581604051806060016040528060258152602001612528602591396001600160a01b0386166000908152602081905260409020549190611f2e565b6001600160a01b038085166000908152602081905260408082209390935590841681522054611ed49082611c86565b6001600160a01b038084166000818152602081815260409182902094909455805185815290519193928716927fddf252ad1be2c89b69c2b068fc378daa952ba7f163c4a11628f55a4df523b3ef92918290030190a3505050565b60008184841115611fbd5760405162461bcd60e51b81526004018080602001828103825283818151815260200191508051906020019080838360005b83811015611f82578181015183820152602001611f6a565b50505050905090810190601f168015611faf5780820380516001836020036101000a031916815260200191505b509250505060405180910390fd5b505050900390565b600082611fd457506000610915565b82820282848281611fe157fe5b0414611ce05760405162461bcd60e51b81526004018080602001828103825260218152602001806124bc6021913960400191505060405180910390fd5b6000611ce083836040518060400160405280601a81526020017f536166654d6174683a206469766973696f6e206279207a65726f000000000000815250612210565b6000611ce083836040518060400160405280601e81526020017f536166654d6174683a207375627472616374696f6e206f766572666c6f770000815250611f2e565b6001600160a01b0382166120fd576040805162461bcd60e51b815260206004820152601e60248201527f4b4950373a206d696e7420746f20746865207a65726f20616464726573730000604482015290519081900360640190fd5b61210830838361220b565b6002546121159082611c86565b6002556001600160a01b03821660009081526020819052604090205461213b9082611c86565b6001600160a01b038316600081815260208181526040918290209390935580518481529051919230927fddf252ad1be2c89b69c2b068fc378daa952ba7f163c4a11628f55a4df523b3ef9281900390910190a35050565b61219c8282612275565b612207826121a8612387565b610c2d84604051806060016040528060248152602001612504602491396001600160a01b0388166000908152600160205260408120906121e6612387565b6001600160a01b031681526020810191909152604001600020549190611f2e565b5050565b505050565b6000818361225f5760405162461bcd60e51b8152602060048201818152835160248401528351909283926044909101919085019080838360008315611f82578181015183820152602001611f6a565b50600083858161226b57fe5b0495945050505050565b6001600160a01b0382166122d0576040805162461bcd60e51b815260206004820181905260248201527f4b4950373a206275726e2066726f6d20746865207a65726f2061646472657373604482015290519081900360640190fd5b6122dc8260008361220b565b612319816040518060600160405280602181526020016123e2602191396001600160a01b0385166000908152602081905260409020549190611f2e565b6001600160a01b03831660009081526020819052604090205560025461233f9082612060565b6002556040805182815290516000916001600160a01b038516917fddf252ad1be2c89b69c2b068fc378daa952ba7f163c4a11628f55a4df523b3ef9181900360200190a35050565b339056fe4b4950373a20617070726f766520746f20746865207a65726f2061646472657373596f75206d757374206265206e6f6d696e61746564206265666f726520796f752063616e20616363657074206f776e6572736869704b4950373a206275726e20616d6f756e7420657863656564732062616c616e63654b4950373a207472616e7366657220746f20746865207a65726f20616464726573734b4950373a2064656372656173656420616c6c6f77616e63652062656c6f77207a65726f4e6f7420746865206f776e65722c20636f6e74726f6c6c6572000000000000004b4950373a207472616e736665722066726f6d20746865207a65726f20616464726573734f6e6c792074686520636f6e7472616374206f776e6572206d617920706572666f726d207468697320616374696f6e536166654d6174683a206d756c7469706c69636174696f6e206f766572666c6f774b4950373a207472616e7366657220616d6f756e74206578636565647320616c6c6f77616e636545524332303a206275726e20616d6f756e74206578636565647320616c6c6f77616e63654b4950373a207472616e7366657220616d6f756e7420657863656564732062616c616e63654b4950373a20617070726f76652066726f6d20746865207a65726f2061646472657373a26469706673582212206d9301c737a537fb0a300009adbd9ecae52d7ef2352b69cc6758964ef878ea6564736f6c63430007050033",
  "linkReferences": {},
  "deployedLinkReferences": {}
}