{
  "_format": "hh-sol-artifact-1",
  "contractName": "SCAMP",
  "sourceName": "contracts/bank/SCAMP.sol",
  "abi": [
    {
      "inputs": [
        {
          "internalType": "string",
          "name": "_name",
          "type": "string"
        },
        {
          "internalType": "string",
          "name": "_symbol",
          "type": "string"
        },
        {
          "internalType": "address",
          "name": "_creator_address",
          "type": "address"
        }
      ],
      "stateMutability": "nonpayable",
      "type": "constructor"
    },
    {
      "anonymous": false,
      "inputs": [
        {
          "indexed": true,
          "internalType": "address",
          "name": "owner",
          "type": "address"
        },
        {
          "indexed": true,
          "internalType": "address",
          "name": "spender",
          "type": "address"
        },
        {
          "indexed": false,
          "internalType": "uint256",
          "name": "value",
          "type": "uint256"
        }
      ],
      "name": "Approval",
      "type": "event"
    },
    {
      "anonymous": false,
      "inputs": [
        {
          "indexed": false,
          "internalType": "address",
          "name": "CAMP_address",
          "type": "address"
        }
      ],
      "name": "CAMPAddressSet",
      "type": "event"
    },
    {
      "anonymous": false,
      "inputs": [
        {
          "indexed": false,
          "internalType": "address",
          "name": "CAMP_oracle_addr",
          "type": "address"
        },
        {
          "indexed": false,
          "internalType": "address",
          "name": "klay_address",
          "type": "address"
        }
      ],
      "name": "CAMPKLAYOracleSet",
      "type": "event"
    },
    {
      "anonymous": false,
      "inputs": [
        {
          "indexed": false,
          "internalType": "uint256",
          "name": "current_collateral_ratio",
          "type": "uint256"
        }
      ],
      "name": "CollateralRatioRefreshed",
      "type": "event"
    },
    {
      "anonymous": false,
      "inputs": [
        {
          "indexed": false,
          "internalType": "bool",
          "name": "collateral_ratio_paused",
          "type": "bool"
        }
      ],
      "name": "CollateralRatioToggled",
      "type": "event"
    },
    {
      "anonymous": false,
      "inputs": [
        {
          "indexed": false,
          "internalType": "address",
          "name": "controller_address",
          "type": "address"
        }
      ],
      "name": "ControllerSet",
      "type": "event"
    },
    {
      "anonymous": false,
      "inputs": [
        {
          "indexed": false,
          "internalType": "address",
          "name": "Klay_oracle_addr",
          "type": "address"
        },
        {
          "indexed": false,
          "internalType": "address",
          "name": "klay_address",
          "type": "address"
        }
      ],
      "name": "KLAYUSDTOracleSet",
      "type": "event"
    },
    {
      "anonymous": false,
      "inputs": [
        {
          "indexed": false,
          "internalType": "uint256",
          "name": "min_fee",
          "type": "uint256"
        }
      ],
      "name": "MintingFeeSet",
      "type": "event"
    },
    {
      "anonymous": false,
      "inputs": [
        {
          "indexed": false,
          "internalType": "address",
          "name": "oldOwner",
          "type": "address"
        },
        {
          "indexed": false,
          "internalType": "address",
          "name": "newOwner",
          "type": "address"
        }
      ],
      "name": "OwnerChanged",
      "type": "event"
    },
    {
      "anonymous": false,
      "inputs": [
        {
          "indexed": false,
          "internalType": "address",
          "name": "newOwner",
          "type": "address"
        }
      ],
      "name": "OwnerNominated",
      "type": "event"
    },
    {
      "anonymous": false,
      "inputs": [
        {
          "indexed": false,
          "internalType": "uint256",
          "name": "price_band",
          "type": "uint256"
        }
      ],
      "name": "PriceBandSet",
      "type": "event"
    },
    {
      "anonymous": false,
      "inputs": [
        {
          "indexed": false,
          "internalType": "uint256",
          "name": "new_price_target",
          "type": "uint256"
        }
      ],
      "name": "PriceTargetSet",
      "type": "event"
    },
    {
      "anonymous": false,
      "inputs": [
        {
          "indexed": false,
          "internalType": "uint256",
          "name": "red_fee",
          "type": "uint256"
        }
      ],
      "name": "RedemptionFeeSet",
      "type": "event"
    },
    {
      "anonymous": false,
      "inputs": [
        {
          "indexed": false,
          "internalType": "uint256",
          "name": "new_cooldown",
          "type": "uint256"
        }
      ],
      "name": "RefreshCooldownSet",
      "type": "event"
    },
    {
      "anonymous": false,
      "inputs": [
        {
          "indexed": true,
          "internalType": "address",
          "name": "from",
          "type": "address"
        },
        {
          "indexed": true,
          "internalType": "address",
          "name": "to",
          "type": "address"
        },
        {
          "indexed": false,
          "internalType": "uint256",
          "name": "amount",
          "type": "uint256"
        }
      ],
      "name": "SCAMPBurned",
      "type": "event"
    },
    {
      "anonymous": false,
      "inputs": [
        {
          "indexed": false,
          "internalType": "address",
          "name": "SCAMP_oracle_addr",
          "type": "address"
        },
        {
          "indexed": false,
          "internalType": "address",
          "name": "klay_address",
          "type": "address"
        }
      ],
      "name": "SCAMPKLAYOracleSet",
      "type": "event"
    },
    {
      "anonymous": false,
      "inputs": [
        {
          "indexed": true,
          "internalType": "address",
          "name": "from",
          "type": "address"
        },
        {
          "indexed": true,
          "internalType": "address",
          "name": "to",
          "type": "address"
        },
        {
          "indexed": false,
          "internalType": "uint256",
          "name": "amount",
          "type": "uint256"
        }
      ],
      "name": "SCAMPMinted",
      "type": "event"
    },
    {
      "anonymous": false,
      "inputs": [
        {
          "indexed": false,
          "internalType": "uint256",
          "name": "new_step",
          "type": "uint256"
        }
      ],
      "name": "SCAMPStepSet",
      "type": "event"
    },
    {
      "anonymous": false,
      "inputs": [
        {
          "indexed": true,
          "internalType": "address",
          "name": "from",
          "type": "address"
        },
        {
          "indexed": true,
          "internalType": "address",
          "name": "to",
          "type": "address"
        },
        {
          "indexed": false,
          "internalType": "uint256",
          "name": "value",
          "type": "uint256"
        }
      ],
      "name": "Transfer",
      "type": "event"
    },
    {
      "inputs": [
        {
          "internalType": "address",
          "name": "b_address",
          "type": "address"
        },
        {
          "internalType": "uint256",
          "name": "b_amoount",
          "type": "uint256"
        }
      ],
      "name": "Bank_burn_from",
      "outputs": [],
      "stateMutability": "nonpayable",
      "type": "function"
    },
    {
      "inputs": [
        {
          "internalType": "address",
          "name": "m_address",
          "type": "address"
        },
        {
          "internalType": "uint256",
          "name": "m_amount",
          "type": "uint256"
        }
      ],
      "name": "Bank_mint",
      "outputs": [],
      "stateMutability": "nonpayable",
      "type": "function"
    },
    {
      "inputs": [],
      "name": "CAMP_address",
      "outputs": [
        {
          "internalType": "address",
          "name": "",
          "type": "address"
        }
      ],
      "stateMutability": "view",
      "type": "function"
    },
    {
      "inputs": [],
      "name": "CAMP_klay_oracle_address",
      "outputs": [
        {
          "internalType": "address",
          "name": "",
          "type": "address"
        }
      ],
      "stateMutability": "view",
      "type": "function"
    },
    {
      "inputs": [],
      "name": "CAMP_price",
      "outputs": [
        {
          "internalType": "uint256",
          "name": "",
          "type": "uint256"
        }
      ],
      "stateMutability": "view",
      "type": "function"
    },
    {
      "inputs": [],
      "name": "KLAY_usdt_price",
      "outputs": [
        {
          "internalType": "uint256",
          "name": "",
          "type": "uint256"
        }
      ],
      "stateMutability": "view",
      "type": "function"
    },
    {
      "inputs": [],
      "name": "Klay_Usdt_oracle_address",
      "outputs": [
        {
          "internalType": "address",
          "name": "",
          "type": "address"
        }
      ],
      "stateMutability": "view",
      "type": "function"
    },
    {
      "inputs": [],
      "name": "SCAMP_Bank",
      "outputs": [
        {
          "internalType": "address",
          "name": "",
          "type": "address"
        }
      ],
      "stateMutability": "view",
      "type": "function"
    },
    {
      "inputs": [],
      "name": "SCAMP_info",
      "outputs": [
        {
          "internalType": "uint256",
          "name": "",
          "type": "uint256"
        },
        {
          "internalType": "uint256",
          "name": "",
          "type": "uint256"
        },
        {
          "internalType": "uint256",
          "name": "",
          "type": "uint256"
        },
        {
          "internalType": "uint256",
          "name": "",
          "type": "uint256"
        },
        {
          "internalType": "uint256",
          "name": "",
          "type": "uint256"
        }
      ],
      "stateMutability": "view",
      "type": "function"
    },
    {
      "inputs": [],
      "name": "SCAMP_klay_oracle_address",
      "outputs": [
        {
          "internalType": "address",
          "name": "",
          "type": "address"
        }
      ],
      "stateMutability": "view",
      "type": "function"
    },
    {
      "inputs": [],
      "name": "SCAMP_price",
      "outputs": [
        {
          "internalType": "uint256",
          "name": "",
          "type": "uint256"
        }
      ],
      "stateMutability": "view",
      "type": "function"
    },
    {
      "inputs": [],
      "name": "SCAMP_step",
      "outputs": [
        {
          "internalType": "uint256",
          "name": "",
          "type": "uint256"
        }
      ],
      "stateMutability": "view",
      "type": "function"
    },
    {
      "inputs": [],
      "name": "acceptOwnership",
      "outputs": [],
      "stateMutability": "nonpayable",
      "type": "function"
    },
    {
      "inputs": [
        {
          "internalType": "address",
          "name": "owner",
          "type": "address"
        },
        {
          "internalType": "address",
          "name": "spender",
          "type": "address"
        }
      ],
      "name": "allowance",
      "outputs": [
        {
          "internalType": "uint256",
          "name": "",
          "type": "uint256"
        }
      ],
      "stateMutability": "view",
      "type": "function"
    },
    {
      "inputs": [
        {
          "internalType": "address",
          "name": "spender",
          "type": "address"
        },
        {
          "internalType": "uint256",
          "name": "amount",
          "type": "uint256"
        }
      ],
      "name": "approve",
      "outputs": [
        {
          "internalType": "bool",
          "name": "",
          "type": "bool"
        }
      ],
      "stateMutability": "nonpayable",
      "type": "function"
    },
    {
      "inputs": [
        {
          "internalType": "address",
          "name": "account",
          "type": "address"
        }
      ],
      "name": "balanceOf",
      "outputs": [
        {
          "internalType": "uint256",
          "name": "",
          "type": "uint256"
        }
      ],
      "stateMutability": "view",
      "type": "function"
    },
    {
      "inputs": [
        {
          "internalType": "uint256",
          "name": "amount",
          "type": "uint256"
        }
      ],
      "name": "burn",
      "outputs": [],
      "stateMutability": "nonpayable",
      "type": "function"
    },
    {
      "inputs": [
        {
          "internalType": "address",
          "name": "account",
          "type": "address"
        },
        {
          "internalType": "uint256",
          "name": "amount",
          "type": "uint256"
        }
      ],
      "name": "burnFrom",
      "outputs": [],
      "stateMutability": "nonpayable",
      "type": "function"
    },
    {
      "inputs": [],
      "name": "collateral_ratio_paused",
      "outputs": [
        {
          "internalType": "bool",
          "name": "",
          "type": "bool"
        }
      ],
      "stateMutability": "view",
      "type": "function"
    },
    {
      "inputs": [],
      "name": "controller_address",
      "outputs": [
        {
          "internalType": "address",
          "name": "",
          "type": "address"
        }
      ],
      "stateMutability": "view",
      "type": "function"
    },
    {
      "inputs": [],
      "name": "creator_address",
      "outputs": [
        {
          "internalType": "address",
          "name": "",
          "type": "address"
        }
      ],
      "stateMutability": "view",
      "type": "function"
    },
    {
      "inputs": [],
      "name": "current_collateral_ratio",
      "outputs": [
        {
          "internalType": "uint256",
          "name": "",
          "type": "uint256"
        }
      ],
      "stateMutability": "view",
      "type": "function"
    },
    {
      "inputs": [],
      "name": "decimals",
      "outputs": [
        {
          "internalType": "uint8",
          "name": "",
          "type": "uint8"
        }
      ],
      "stateMutability": "view",
      "type": "function"
    },
    {
      "inputs": [
        {
          "internalType": "address",
          "name": "spender",
          "type": "address"
        },
        {
          "internalType": "uint256",
          "name": "subtractedValue",
          "type": "uint256"
        }
      ],
      "name": "decreaseAllowance",
      "outputs": [
        {
          "internalType": "bool",
          "name": "",
          "type": "bool"
        }
      ],
      "stateMutability": "nonpayable",
      "type": "function"
    },
    {
      "inputs": [],
      "name": "default_admin_address",
      "outputs": [
        {
          "internalType": "address",
          "name": "",
          "type": "address"
        }
      ],
      "stateMutability": "view",
      "type": "function"
    },
    {
      "inputs": [],
      "name": "genesis_supply",
      "outputs": [
        {
          "internalType": "uint256",
          "name": "",
          "type": "uint256"
        }
      ],
      "stateMutability": "view",
      "type": "function"
    },
    {
      "inputs": [
        {
          "internalType": "address",
          "name": "spender",
          "type": "address"
        },
        {
          "internalType": "uint256",
          "name": "addedValue",
          "type": "uint256"
        }
      ],
      "name": "increaseAllowance",
      "outputs": [
        {
          "internalType": "bool",
          "name": "",
          "type": "bool"
        }
      ],
      "stateMutability": "nonpayable",
      "type": "function"
    },
    {
      "inputs": [],
      "name": "klay_address",
      "outputs": [
        {
          "internalType": "address",
          "name": "",
          "type": "address"
        }
      ],
      "stateMutability": "view",
      "type": "function"
    },
    {
      "inputs": [],
      "name": "last_call_time",
      "outputs": [
        {
          "internalType": "uint256",
          "name": "",
          "type": "uint256"
        }
      ],
      "stateMutability": "view",
      "type": "function"
    },
    {
      "inputs": [],
      "name": "minting_fee",
      "outputs": [
        {
          "internalType": "uint256",
          "name": "",
          "type": "uint256"
        }
      ],
      "stateMutability": "view",
      "type": "function"
    },
    {
      "inputs": [],
      "name": "name",
      "outputs": [
        {
          "internalType": "string",
          "name": "",
          "type": "string"
        }
      ],
      "stateMutability": "view",
      "type": "function"
    },
    {
      "inputs": [
        {
          "internalType": "address",
          "name": "_owner",
          "type": "address"
        }
      ],
      "name": "nominateNewOwner",
      "outputs": [],
      "stateMutability": "nonpayable",
      "type": "function"
    },
    {
      "inputs": [],
      "name": "nominatedOwner",
      "outputs": [
        {
          "internalType": "address",
          "name": "",
          "type": "address"
        }
      ],
      "stateMutability": "view",
      "type": "function"
    },
    {
      "inputs": [],
      "name": "owner",
      "outputs": [
        {
          "internalType": "address",
          "name": "",
          "type": "address"
        }
      ],
      "stateMutability": "view",
      "type": "function"
    },
    {
      "inputs": [],
      "name": "price_band",
      "outputs": [
        {
          "internalType": "uint256",
          "name": "",
          "type": "uint256"
        }
      ],
      "stateMutability": "view",
      "type": "function"
    },
    {
      "inputs": [],
      "name": "price_target",
      "outputs": [
        {
          "internalType": "uint256",
          "name": "",
          "type": "uint256"
        }
      ],
      "stateMutability": "view",
      "type": "function"
    },
    {
      "inputs": [],
      "name": "redemption_fee",
      "outputs": [
        {
          "internalType": "uint256",
          "name": "",
          "type": "uint256"
        }
      ],
      "stateMutability": "view",
      "type": "function"
    },
    {
      "inputs": [],
      "name": "refreshCollateralRatio",
      "outputs": [],
      "stateMutability": "nonpayable",
      "type": "function"
    },
    {
      "inputs": [],
      "name": "refresh_cooldown",
      "outputs": [
        {
          "internalType": "uint256",
          "name": "",
          "type": "uint256"
        }
      ],
      "stateMutability": "view",
      "type": "function"
    },
    {
      "inputs": [
        {
          "internalType": "address",
          "name": "_CAMP_address",
          "type": "address"
        }
      ],
      "name": "setCAMPAddress",
      "outputs": [],
      "stateMutability": "nonpayable",
      "type": "function"
    },
    {
      "inputs": [
        {
          "internalType": "address",
          "name": "_CAMP_oracle_addr",
          "type": "address"
        },
        {
          "internalType": "address",
          "name": "_klay_address",
          "type": "address"
        }
      ],
      "name": "setCAMPKlayOracle",
      "outputs": [],
      "stateMutability": "nonpayable",
      "type": "function"
    },
    {
      "inputs": [
        {
          "internalType": "address",
          "name": "_controller_address",
          "type": "address"
        }
      ],
      "name": "setController",
      "outputs": [],
      "stateMutability": "nonpayable",
      "type": "function"
    },
    {
      "inputs": [
        {
          "internalType": "address",
          "name": "_Klay_oracle_addr",
          "type": "address"
        },
        {
          "internalType": "address",
          "name": "_USDT_address",
          "type": "address"
        }
      ],
      "name": "setKlayUSDTOracle",
      "outputs": [],
      "stateMutability": "nonpayable",
      "type": "function"
    },
    {
      "inputs": [
        {
          "internalType": "uint256",
          "name": "mint_fee",
          "type": "uint256"
        }
      ],
      "name": "setMintingFee",
      "outputs": [],
      "stateMutability": "nonpayable",
      "type": "function"
    },
    {
      "inputs": [
        {
          "internalType": "uint256",
          "name": "_price_band",
          "type": "uint256"
        }
      ],
      "name": "setPriceBand",
      "outputs": [],
      "stateMutability": "nonpayable",
      "type": "function"
    },
    {
      "inputs": [
        {
          "internalType": "uint256",
          "name": "_new_price_target",
          "type": "uint256"
        }
      ],
      "name": "setPriceTarget",
      "outputs": [],
      "stateMutability": "nonpayable",
      "type": "function"
    },
    {
      "inputs": [
        {
          "internalType": "uint256",
          "name": "red_fee",
          "type": "uint256"
        }
      ],
      "name": "setRedemptionFee",
      "outputs": [],
      "stateMutability": "nonpayable",
      "type": "function"
    },
    {
      "inputs": [
        {
          "internalType": "uint256",
          "name": "_new_cooldown",
          "type": "uint256"
        }
      ],
      "name": "setRefreshCooldown",
      "outputs": [],
      "stateMutability": "nonpayable",
      "type": "function"
    },
    {
      "inputs": [
        {
          "internalType": "address",
          "name": "_SCAMP_oracle_addr",
          "type": "address"
        },
        {
          "internalType": "address",
          "name": "_klay_address",
          "type": "address"
        }
      ],
      "name": "setSCAMPKlayOracle",
      "outputs": [],
      "stateMutability": "nonpayable",
      "type": "function"
    },
    {
      "inputs": [
        {
          "internalType": "uint256",
          "name": "_new_step",
          "type": "uint256"
        }
      ],
      "name": "setSCAMPStep",
      "outputs": [],
      "stateMutability": "nonpayable",
      "type": "function"
    },
    {
      "inputs": [],
      "name": "symbol",
      "outputs": [
        {
          "internalType": "string",
          "name": "",
          "type": "string"
        }
      ],
      "stateMutability": "view",
      "type": "function"
    },
    {
      "inputs": [],
      "name": "toggleCollateralRatio",
      "outputs": [],
      "stateMutability": "nonpayable",
      "type": "function"
    },
    {
      "inputs": [],
      "name": "totalSupply",
      "outputs": [
        {
          "internalType": "uint256",
          "name": "",
          "type": "uint256"
        }
      ],
      "stateMutability": "view",
      "type": "function"
    },
    {
      "inputs": [
        {
          "internalType": "address",
          "name": "recipient",
          "type": "address"
        },
        {
          "internalType": "uint256",
          "name": "amount",
          "type": "uint256"
        }
      ],
      "name": "transfer",
      "outputs": [
        {
          "internalType": "bool",
          "name": "",
          "type": "bool"
        }
      ],
      "stateMutability": "nonpayable",
      "type": "function"
    },
    {
      "inputs": [
        {
          "internalType": "address",
          "name": "sender",
          "type": "address"
        },
        {
          "internalType": "address",
          "name": "recipient",
          "type": "address"
        },
        {
          "internalType": "uint256",
          "name": "amount",
          "type": "uint256"
        }
      ],
      "name": "transferFrom",
      "outputs": [
        {
          "internalType": "bool",
          "name": "",
          "type": "bool"
        }
      ],
      "stateMutability": "nonpayable",
      "type": "function"
    },
    {
      "inputs": [],
      "name": "usdt_address",
      "outputs": [
        {
          "internalType": "address",
          "name": "",
          "type": "address"
        }
      ],
      "stateMutability": "view",
      "type": "function"
    }
  ],
  "bytecode": "0x6080604052601a805460ff60a01b191690553480156200001e57600080fd5b5060405162002cfd38038062002cfd833981810160405260608110156200004457600080fd5b81019080805160405193929190846401000000008211156200006557600080fd5b9083019060208201858111156200007b57600080fd5b82516401000000008111828201881017156200009657600080fd5b82525081516020918201929091019080838360005b83811015620000c5578181015183820152602001620000ab565b50505050905090810190601f168015620000f35780820380516001836020036101000a031916815260200191505b50604052602001805160405193929190846401000000008211156200011757600080fd5b9083019060208201858111156200012d57600080fd5b82516401000000008111828201881017156200014857600080fd5b82525081516020918201929091019080838360005b83811015620001775781810151838201526020016200015d565b50505050905090810190601f168015620001a55780820380516001836020036101000a031916815260200191505b506040526020015191508190506001600160a01b0381166200022857604080517f08c379a000000000000000000000000000000000000000000000000000000000815260206004820152601960248201527f4f776e657220616464726573732063616e6e6f74206265203000000000000000604482015290519081900360640190fd5b600380546001600160a01b0319166001600160a01b0383169081179091556040805160008152602081019290925280517fb532073b38c83145e3e5135377a08bf9aab55bc0fd7c1179cd4fb995d2a5159c9281900390910190a150825162000298906009906020860190620004db565b508151620002ae906008906020850190620004db565b50600a80546001600160a01b0319166001600160a01b038316179055620002d46200032d565b601a80546001600160a01b0319166001600160a01b03928316179055600a546200030b91166a01a784379d99db4200000062000331565b50506109c460165550610e10601755620f424060185561138860195562000587565b3390565b6001600160a01b038216620003a757604080517f08c379a000000000000000000000000000000000000000000000000000000000815260206004820152601f60248201527f45524332303a206d696e7420746f20746865207a65726f206164647265737300604482015290519081900360640190fd5b620003b5600083836200045a565b620003d1816002546200045f60201b62001e5a1790919060201c565b6002556001600160a01b038216600090815260208181526040909120546200040491839062001e5a6200045f821b17901c565b6001600160a01b0383166000818152602081815260408083209490945583518581529351929391927fddf252ad1be2c89b69c2b068fc378daa952ba7f163c4a11628f55a4df523b3ef9281900390910190a35050565b505050565b600082820183811015620004d457604080517f08c379a000000000000000000000000000000000000000000000000000000000815260206004820152601b60248201527f536166654d6174683a206164646974696f6e206f766572666c6f770000000000604482015290519081900360640190fd5b9392505050565b828054600181600116156101000203166002900490600052602060002090601f0160209004810192826200051357600085556200055e565b82601f106200052e57805160ff19168380011785556200055e565b828001600101855582156200055e579182015b828111156200055e57825182559160200191906001019062000541565b506200056c92915062000570565b5090565b5b808211156200056c576000815560010162000571565b61276680620005976000396000f3fe608060405234801561001057600080fd5b50600436106103785760003560e01c806367feda3e116101d3578063a457c2d711610104578063c3355b8d116100a2578063dbe263a51161007c578063dbe263a514610876578063dbf6b9b5146108a2578063dd62ed3e146108ce578063fc65a1eb146108fc57610378565b8063c3355b8d1461085e578063cb73999f14610866578063d9a10b611461086e57610378565b8063bc46ccc9116100de578063bc46ccc91461083e578063be63a90614610846578063bef40ec81461084e578063c03f7be31461085657610378565b8063a457c2d7146107de578063a9059cbb1461080a578063aba70ce81461083657610378565b806383c96deb11610171578063920968b21161014b578063920968b21461077a57806392eefe9b146107a857806395d89b41146107ce5780639fb2c89f146107d657610378565b806383c96deb1461076257806387a140c31461076a5780638da5cb5b1461077257610378565b806379cc6790116101ad57806379cc6790146106c05780637b0b81c3146106ec5780637dbc1df01461071f57806381e3ca811461073c57610378565b806367feda3e1461068a57806370a082311461069257806379ba5097146106b857610378565b80632cb4f63e116102ad57806342966c681161024b5780634fdfb1e8116102255780634fdfb1e81461065557806351e238e31461065d57806353a47bb7146106655780636140133b1461066d57610378565b806342966c68146106285780634ac4bd9a146106455780634bd0be231461064d57610378565b806339299f5c1161028757806339299f5c146105cf57806339509351146105d75780634013124a14610603578063408ab10f1461060b57610378565b80632cb4f63e1461057b5780632d8a2bd014610583578063313ce567146105b157610378565b80631fef30561161031a578063238a4709116102f4578063238a4709146104f257806323b872dd1461050f5780632853fb10146105455780632bae16281461054d57610378565b80631fef3056146104da5780632258750a146104e25780632332a15a146104ea57610378565b80631627540c116103565780631627540c1461045e57806318160ddd146104865780631bd33cb3146104a05780631c5df1e5146104bd57610378565b806306fdde031461037d5780630711ab20146103fa578063095ea7b31461041e575b600080fd5b610385610904565b6040805160208082528351818301528351919283929083019185019080838360005b838110156103bf5781810151838201526020016103a7565b50505050905090810190601f1680156103ec5780820380516001836020036101000a031916815260200191505b509250505060405180910390f35b610402610992565b604080516001600160a01b039092168252519081900360200190f35b61044a6004803603604081101561043457600080fd5b506001600160a01b0381351690602001356109a1565b604080519115158252519081900360200190f35b6104846004803603602081101561047457600080fd5b50356001600160a01b03166109bf565b005b61048e610a5c565b60408051918252519081900360200190f35b610484600480360360208110156104b657600080fd5b5035610a62565b610484600480360360208110156104d357600080fd5b5035610aff565b610402610b9c565b61048e610bab565b61048e610bb1565b6104846004803603602081101561050857600080fd5b5035610bb7565b61044a6004803603606081101561052557600080fd5b506001600160a01b03813581169160208101359091169060400135610c54565b61048e610cdb565b6104846004803603604081101561056357600080fd5b506001600160a01b0381358116916020013516610ce1565b61048e610e25565b6104846004803603604081101561059957600080fd5b506001600160a01b0381358116916020013516610e2b565b6105b9610f6f565b6040805160ff9092168252519081900360200190f35b610402610f74565b61044a600480360360408110156105ed57600080fd5b506001600160a01b038135169060200135610f83565b610484610fd1565b6104846004803603602081101561062157600080fd5b503561110c565b6104846004803603602081101561063e57600080fd5b50356111a9565b61048e6111bd565b6104026112ef565b6104026112fe565b61048e61130d565b61040261131c565b6104846004803603602081101561068357600080fd5b503561132b565b6104026113c8565b61048e600480360360208110156106a857600080fd5b50356001600160a01b03166113d7565b6104846113f2565b610484600480360360408110156106d657600080fd5b506001600160a01b0381351690602001356114ae565b6106f4611508565b6040805195865260208601949094528484019290925260608401526080830152519081900360a00190f35b6104846004803603602081101561073557600080fd5b503561153a565b6104846004803603602081101561075257600080fd5b50356001600160a01b03166115d7565b61048e6116e0565b61044a61177c565b61040261178c565b6104846004803603604081101561079057600080fd5b506001600160a01b038135811691602001351661179b565b610484600480360360208110156107be57600080fd5b50356001600160a01b03166118df565b6103856119e8565b61048e611a43565b61044a600480360360408110156107f457600080fd5b506001600160a01b038135169060200135611a49565b61044a6004803603604081101561082057600080fd5b506001600160a01b038135169060200135611ab1565b61048e611ac5565b610402611bab565b610402611bba565b610484611bc9565b61048e611ca5565b61048e611cab565b61048e611cb1565b610402611cb7565b6104846004803603604081101561088c57600080fd5b506001600160a01b038135169060200135611cc6565b610484600480360360408110156108b857600080fd5b506001600160a01b038135169060200135611d73565b61048e600480360360408110156108e457600080fd5b506001600160a01b0381358116916020013516611e20565b610402611e4b565b6009805460408051602060026001851615610100026000190190941693909304601f8101849004840282018401909252818152929183018282801561098a5780601f1061095f5761010080835404028352916020019161098a565b820191906000526020600020905b81548152906001019060200180831161096d57829003601f168201915b505050505081565b600c546001600160a01b031681565b60006109b56109ae611ebb565b8484611ebf565b5060015b92915050565b6003546001600160a01b03163314610a085760405162461bcd60e51b815260040180806020018281038252602f815260200180612606602f913960400191505060405180910390fd5b600480546001600160a01b0383166001600160a01b0319909116811790915560408051918252517f906a1c6bd7e3091ea86693dd029a831c19049ce77f1dce2ce0bab1cacbabce229181900360200190a150565b60025490565b6003546001600160a01b0316331480610a855750600b546001600160a01b031633145b610ac4576040805162461bcd60e51b815260206004820152601960248201526000805160206125e6833981519152604482015290519081900360640190fd5b60168190556040805182815290517f824b351fc48b068f5918193f15d2f73a9bd8537a018208a6390726689f56107d9181900360200190a150565b6003546001600160a01b0316331480610b225750600b546001600160a01b031633145b610b61576040805162461bcd60e51b815260206004820152601960248201526000805160206125e6833981519152604482015290519081900360640190fd5b60178190556040805182815290517fc7443059c2ed485e2c9efe4e766bef9432a6f0ed6695741ab4afdffab3b921579181900360200190a150565b6011546001600160a01b031681565b601b5481565b60135481565b6003546001600160a01b0316331480610bda5750600b546001600160a01b031633145b610c19576040805162461bcd60e51b815260206004820152601960248201526000805160206125e6833981519152604482015290519081900360640190fd5b60158190556040805182815290517f07aefbcc0d8cdf34e241279c78d93d1df9540b5a60d320437958df12ef59e4639181900360200190a150565b6000610c61848484611fab565b610cd184610c6d611ebb565b610ccc85604051806060016040528060288152602001612656602891396001600160a01b038a16600090815260016020526040812090610cab611ebb565b6001600160a01b031681526020810191909152604001600020549190612106565b611ebf565b5060019392505050565b60195481565b6003546001600160a01b0316331480610d045750600b546001600160a01b031633145b610d43576040805162461bcd60e51b815260206004820152601960248201526000805160206125e6833981519152604482015290519081900360640190fd5b6001600160a01b03821615801590610d6357506001600160a01b03811615155b610dac576040805162461bcd60e51b815260206004820152601560248201527416995c9bc81859191c995cdcc819195d1958dd1959605a1b604482015290519081900360640190fd5b600e80546001600160a01b038085166001600160a01b03199283168117909355600680548316841790556010805491851691909216811790915560408051928352602083019190915280517fab2acb9bdd45df817979dca4c86ce82f64418491efbcc304ff7d245f52e2ce4a9281900390910190a15050565b60185481565b6003546001600160a01b0316331480610e4e5750600b546001600160a01b031633145b610e8d576040805162461bcd60e51b815260206004820152601960248201526000805160206125e6833981519152604482015290519081900360640190fd5b6001600160a01b03821615801590610ead57506001600160a01b03811615155b610ef6576040805162461bcd60e51b815260206004820152601560248201527416995c9bc81859191c995cdcc819195d1958dd1959605a1b604482015290519081900360640190fd5b600f80546001600160a01b038085166001600160a01b03199283168117909355600780548316841790556010805491851691909216811790915560408051928352602083019190915280517f02e3eec06e4ff7f6213bb9d8c614762d98feea813421fe956a8734f541cc97379281900390910190a15050565b601281565b601a546001600160a01b031681565b60006109b5610f90611ebb565b84610ccc8560016000610fa1611ebb565b6001600160a01b03908116825260208083019390935260409182016000908120918c168152925290205490611e5a565b6000610fdb6111bd565b9050601754601b5442031015611038576040805162461bcd60e51b815260206004820152601c60248201527f506c65617365207761697420726566726573685f636f6f6c646f776e00000000604482015290519081900360640190fd5b60195460185461104791611e5a565b81111561107b5760165460135411611063576000601355611076565b6016546013546110729161219d565b6013555b6110d0565b60195460185461108a9161219d565b8110156110d057620f42406110ac601654601354611e5a90919063ffffffff16565b106110bd57620f42406013556110d0565b6016546013546110cc91611e5a565b6013555b42601b5560135460408051918252517fb1200af9b3ac4dec88c9d01e1fb7cc7fa1f0fe55bf4afac1f30cc4fc2b2d1dd29181900360200190a150565b6003546001600160a01b031633148061112f5750600b546001600160a01b031633145b61116e576040805162461bcd60e51b815260206004820152601960248201526000805160206125e6833981519152604482015290519081900360640190fd5b60188190556040805182815290517f898a2c9df7982133daaa8cfd78b8c49c520cba03205eec6480552c19059f6e3a9181900360200190a150565b6111ba6111b4611ebb565b826121df565b50565b60055460115460408051633ddac95360e01b81526001600160a01b039283166004820152620f42406024820152905160009384931691633ddac953916044808301926020929190829003018186803b15801561121857600080fd5b505afa15801561122c573d6000803e3d6000fd5b505050506040513d602081101561124257600080fd5b505160075460105460408051633ddac95360e01b81526001600160a01b039283166004820152620f4240602482015290519394506000939190921691633ddac953916044808301926020929190829003018186803b1580156112a357600080fd5b505afa1580156112b7573d6000803e3d6000fd5b505050506040513d60208110156112cd57600080fd5b505190506112e8816112e284620f42406122db565b90612334565b9250505090565b600a546001600160a01b031681565b600f546001600160a01b031681565b6a01a784379d99db4200000081565b6004546001600160a01b031681565b6003546001600160a01b031633148061134e5750600b546001600160a01b031633145b61138d576040805162461bcd60e51b815260206004820152601960248201526000805160206125e6833981519152604482015290519081900360640190fd5b60198190556040805182815290517fe9febe6aec89ff2870eeab6d13333c59cbed275b1d9a95f527c853d99ddb7cf49181900360200190a150565b600b546001600160a01b031681565b6001600160a01b031660009081526020819052604090205490565b6004546001600160a01b0316331461143b5760405162461bcd60e51b81526004018080602001828103825260358152602001806125476035913960400191505060405180910390fd5b600354600454604080516001600160a01b03938416815292909116602083015280517fb532073b38c83145e3e5135377a08bf9aab55bc0fd7c1179cd4fb995d2a5159c9281900390910190a160048054600380546001600160a01b03199081166001600160a01b03841617909155169055565b60006114e58260405180606001604052806024815260200161267e602491396114de866114d9611ebb565b611e20565b9190612106565b90506114f9836114f3611ebb565b83611ebf565b61150383836121df565b505050565b60008060008060006115186111bd565b611520610a5c565b601354601554601454945094509450945094509091929394565b6003546001600160a01b031633148061155d5750600b546001600160a01b031633145b61159c576040805162461bcd60e51b815260206004820152601960248201526000805160206125e6833981519152604482015290519081900360640190fd5b60148190556040805182815290517f91cc643d187eb250905520d3dae0b1017edd16961d27ab9a4a61fea5e38f717d9181900360200190a150565b6003546001600160a01b03163314806115fa5750600b546001600160a01b031633145b611639576040805162461bcd60e51b815260206004820152601960248201526000805160206125e6833981519152604482015290519081900360640190fd5b6001600160a01b03811661168c576040805162461bcd60e51b815260206004820152601560248201527416995c9bc81859191c995cdcc819195d1958dd1959605a1b604482015290519081900360640190fd5b600c80546001600160a01b0383166001600160a01b0319909116811790915560408051918252517f1c950088a34f94b646255759072e9d26ed6f958a790853da316c06377a99883a9181900360200190a150565b60055460115460408051633ddac95360e01b81526001600160a01b039283166004820152620f42406024820152905160009384931691633ddac953916044808301926020929190829003018186803b15801561173b57600080fd5b505afa15801561174f573d6000803e3d6000fd5b505050506040513d602081101561176557600080fd5b5051905061177681620f42406122db565b91505090565b601a54600160a01b900460ff1681565b6003546001600160a01b031681565b6003546001600160a01b03163314806117be5750600b546001600160a01b031633145b6117fd576040805162461bcd60e51b815260206004820152601960248201526000805160206125e6833981519152604482015290519081900360640190fd5b6001600160a01b0382161580159061181d57506001600160a01b03811615155b611866576040805162461bcd60e51b815260206004820152601560248201527416995c9bc81859191c995cdcc819195d1958dd1959605a1b604482015290519081900360640190fd5b600d80546001600160a01b038085166001600160a01b03199283168117909355600580548316841790556011805491851691909216811790915560408051928352602083019190915280517fc8f89079a3194a73e1856105d791b1980db8e285c5966b315b478c47819f83c49281900390910190a15050565b6003546001600160a01b03163314806119025750600b546001600160a01b031633145b611941576040805162461bcd60e51b815260206004820152601960248201526000805160206125e6833981519152604482015290519081900360640190fd5b6001600160a01b038116611994576040805162461bcd60e51b815260206004820152601560248201527416995c9bc81859191c995cdcc819195d1958dd1959605a1b604482015290519081900360640190fd5b600b80546001600160a01b0383166001600160a01b0319909116811790915560408051918252517f79f74fd5964b6943d8a1865abfb7f668c92fa3f32c0a2e3195da7d0946703ad79181900360200190a150565b6008805460408051602060026001851615610100026000190190941693909304601f8101849004840282018401909252818152929183018282801561098a5780601f1061095f5761010080835404028352916020019161098a565b60165481565b60006109b5611a56611ebb565b84610ccc8560405180606001604052806025815260200161270c6025913960016000611a80611ebb565b6001600160a01b03908116825260208083019390935260409182016000908120918d16815292529020549190612106565b60006109b5611abe611ebb565b8484611fab565b60055460115460408051633ddac95360e01b81526001600160a01b039283166004820152620f42406024820152905160009384931691633ddac953916044808301926020929190829003018186803b158015611b2057600080fd5b505afa158015611b34573d6000803e3d6000fd5b505050506040513d6020811015611b4a57600080fd5b505160065460105460408051633ddac95360e01b81526001600160a01b039283166004820152620f4240602482015290519394506000939190921691633ddac953916044808301926020929190829003018186803b1580156112a357600080fd5b600d546001600160a01b031681565b600e546001600160a01b031681565b6003546001600160a01b0316331480611bec5750600b546001600160a01b031633145b611c2b576040805162461bcd60e51b815260206004820152601960248201526000805160206125e6833981519152604482015290519081900360640190fd5b601a805460ff600160a01b80830482161581027fffffffffffffffffffffff00ffffffffffffffffffffffffffffffffffffffff90931692909217928390556040805192909304161515815290517f209068f7bed5a02fb7695c3e3b61bb8324d1facb25523c6422bfd2105ec44d929181900360200190a1565b60175481565b60155481565b60145481565b6012546001600160a01b031681565b6012546001600160a01b03163314611d25576040805162461bcd60e51b815260206004820152601360248201527f6f6e6c792042616e6b20436f6e74726163742100000000000000000000000000604482015290519081900360640190fd5b611d2f8282612376565b6040805182815290516001600160a01b0384169133917fdad3ed3510fe15dde55e79fa4859e96de27362c8325906c64827f272dc7e05d29181900360200190a35050565b6012546001600160a01b03163314611dd2576040805162461bcd60e51b815260206004820152601360248201527f6f6e6c792042616e6b20436f6e74726163742100000000000000000000000000604482015290519081900360640190fd5b611ddc8282612466565b60408051828152905133916001600160a01b038516917f13088f04e1910bc7d2c5ef8bf05069ae54d800d6e7d6ca319b7d3065fbe26e309181900360200190a35050565b6001600160a01b03918216600090815260016020908152604080832093909416825291909152205490565b6010546001600160a01b031681565b600082820183811015611eb4576040805162461bcd60e51b815260206004820152601b60248201527f536166654d6174683a206164646974696f6e206f766572666c6f770000000000604482015290519081900360640190fd5b9392505050565b3390565b6001600160a01b038316611f045760405162461bcd60e51b81526004018080602001828103825260248152602001806126e86024913960400191505060405180910390fd5b6001600160a01b038216611f495760405162461bcd60e51b815260040180806020018281038252602281526020018061259e6022913960400191505060405180910390fd5b6001600160a01b03808416600081815260016020908152604080832094871680845294825291829020859055815185815291517f8c5be1e5ebec7d5bd14f71427d1e84f3dd0314c0f7b2291e5b200ac8c7c3b9259281900390910190a3505050565b6001600160a01b038316611ff05760405162461bcd60e51b81526004018080602001828103825260258152602001806126c36025913960400191505060405180910390fd5b6001600160a01b0382166120355760405162461bcd60e51b81526004018080602001828103825260238152602001806125246023913960400191505060405180910390fd5b612040838383611503565b61207d816040518060600160405280602681526020016125c0602691396001600160a01b0386166000908152602081905260409020549190612106565b6001600160a01b0380851660009081526020819052604080822093909355908416815220546120ac9082611e5a565b6001600160a01b038084166000818152602081815260409182902094909455805185815290519193928716927fddf252ad1be2c89b69c2b068fc378daa952ba7f163c4a11628f55a4df523b3ef92918290030190a3505050565b600081848411156121955760405162461bcd60e51b81526004018080602001828103825283818151815260200191508051906020019080838360005b8381101561215a578181015183820152602001612142565b50505050905090810190601f1680156121875780820380516001836020036101000a031916815260200191505b509250505060405180910390fd5b505050900390565b6000611eb483836040518060400160405280601e81526020017f536166654d6174683a207375627472616374696f6e206f766572666c6f770000815250612106565b6001600160a01b0382166122245760405162461bcd60e51b81526004018080602001828103825260218152602001806126a26021913960400191505060405180910390fd5b61223082600083611503565b61226d8160405180606001604052806022815260200161257c602291396001600160a01b0385166000908152602081905260409020549190612106565b6001600160a01b038316600090815260208190526040902055600254612293908261219d565b6002556040805182815290516000916001600160a01b038516917fddf252ad1be2c89b69c2b068fc378daa952ba7f163c4a11628f55a4df523b3ef9181900360200190a35050565b6000826122ea575060006109b9565b828202828482816122f757fe5b0414611eb45760405162461bcd60e51b81526004018080602001828103825260218152602001806126356021913960400191505060405180910390fd5b6000611eb483836040518060400160405280601a81526020017f536166654d6174683a206469766973696f6e206279207a65726f0000000000008152506124be565b6001600160a01b0382166123d1576040805162461bcd60e51b815260206004820152601f60248201527f45524332303a206d696e7420746f20746865207a65726f206164647265737300604482015290519081900360640190fd5b6123dd60008383611503565b6002546123ea9082611e5a565b6002556001600160a01b0382166000908152602081905260409020546124109082611e5a565b6001600160a01b0383166000818152602081815260408083209490945583518581529351929391927fddf252ad1be2c89b69c2b068fc378daa952ba7f163c4a11628f55a4df523b3ef9281900390910190a35050565b61247082826121df565b6124ba8261247c611ebb565b610ccc8460405180606001604052806024815260200161267e602491396001600160a01b038816600090815260016020526040812090610cab611ebb565b5050565b6000818361250d5760405162461bcd60e51b815260206004820181815283516024840152835190928392604490910191908501908083836000831561215a578181015183820152602001612142565b50600083858161251957fe5b049594505050505056fe45524332303a207472616e7366657220746f20746865207a65726f2061646472657373596f75206d757374206265206e6f6d696e61746564206265666f726520796f752063616e20616363657074206f776e65727368697045524332303a206275726e20616d6f756e7420657863656564732062616c616e636545524332303a20617070726f766520746f20746865207a65726f206164647265737345524332303a207472616e7366657220616d6f756e7420657863656564732062616c616e63654e6f7420746865206f776e65722c20636f6e74726f6c6c6572000000000000004f6e6c792074686520636f6e7472616374206f776e6572206d617920706572666f726d207468697320616374696f6e536166654d6174683a206d756c7469706c69636174696f6e206f766572666c6f7745524332303a207472616e7366657220616d6f756e74206578636565647320616c6c6f77616e636545524332303a206275726e20616d6f756e74206578636565647320616c6c6f77616e636545524332303a206275726e2066726f6d20746865207a65726f206164647265737345524332303a207472616e736665722066726f6d20746865207a65726f206164647265737345524332303a20617070726f76652066726f6d20746865207a65726f206164647265737345524332303a2064656372656173656420616c6c6f77616e63652062656c6f77207a65726fa26469706673582212203c2d0eda2cb06fe200cedba5f51b528d46f459ef1943e7cd003213a219dc0b6464736f6c63430007050033",
  "linkReferences": {},
  "deployedLinkReferences": {}
}