{
  "_format": "hh-sol-artifact-1",
  "contractName": "SCAMP",
  "sourceName": "contracts/bank/SCAMP.sol",
  "abi": [
    {
      "inputs": [
        {
          "internalType": "address",
          "name": "_creator_address",
          "type": "address"
        }
      ],
      "stateMutability": "nonpayable",
      "type": "constructor"
    },
    {
      "anonymous": false,
      "inputs": [
        {
          "indexed": true,
          "internalType": "address",
          "name": "owner",
          "type": "address"
        },
        {
          "indexed": true,
          "internalType": "address",
          "name": "spender",
          "type": "address"
        },
        {
          "indexed": false,
          "internalType": "uint256",
          "name": "value",
          "type": "uint256"
        }
      ],
      "name": "Approval",
      "type": "event"
    },
    {
      "anonymous": false,
      "inputs": [
        {
          "indexed": false,
          "internalType": "address",
          "name": "Bank_address",
          "type": "address"
        }
      ],
      "name": "BankAddressSet",
      "type": "event"
    },
    {
      "anonymous": false,
      "inputs": [
        {
          "indexed": false,
          "internalType": "address",
          "name": "CAMP_address",
          "type": "address"
        }
      ],
      "name": "CAMPAddressSet",
      "type": "event"
    },
    {
      "anonymous": false,
      "inputs": [
        {
          "indexed": false,
          "internalType": "uint256",
          "name": "current_collateral_ratio",
          "type": "uint256"
        }
      ],
      "name": "CollateralRatioRefreshed",
      "type": "event"
    },
    {
      "anonymous": false,
      "inputs": [
        {
          "indexed": false,
          "internalType": "bool",
          "name": "collateral_ratio_paused",
          "type": "bool"
        }
      ],
      "name": "CollateralRatioToggled",
      "type": "event"
    },
    {
      "anonymous": false,
      "inputs": [
        {
          "indexed": false,
          "internalType": "address",
          "name": "controller_address",
          "type": "address"
        }
      ],
      "name": "ControllerSet",
      "type": "event"
    },
    {
      "anonymous": false,
      "inputs": [
        {
          "indexed": false,
          "internalType": "address",
          "name": "Klay_oracle_addr",
          "type": "address"
        },
        {
          "indexed": false,
          "internalType": "address",
          "name": "klay_address",
          "type": "address"
        }
      ],
      "name": "KLAYUSDTOracleSet",
      "type": "event"
    },
    {
      "anonymous": false,
      "inputs": [
        {
          "indexed": false,
          "internalType": "uint256",
          "name": "min_fee",
          "type": "uint256"
        }
      ],
      "name": "MintingFeeSet",
      "type": "event"
    },
    {
      "anonymous": false,
      "inputs": [
        {
          "indexed": false,
          "internalType": "address",
          "name": "oldOwner",
          "type": "address"
        },
        {
          "indexed": false,
          "internalType": "address",
          "name": "newOwner",
          "type": "address"
        }
      ],
      "name": "OwnerChanged",
      "type": "event"
    },
    {
      "anonymous": false,
      "inputs": [
        {
          "indexed": false,
          "internalType": "address",
          "name": "newOwner",
          "type": "address"
        }
      ],
      "name": "OwnerNominated",
      "type": "event"
    },
    {
      "anonymous": false,
      "inputs": [
        {
          "indexed": false,
          "internalType": "uint256",
          "name": "price_band",
          "type": "uint256"
        }
      ],
      "name": "PriceBandSet",
      "type": "event"
    },
    {
      "anonymous": false,
      "inputs": [
        {
          "indexed": false,
          "internalType": "uint256",
          "name": "new_price_target",
          "type": "uint256"
        }
      ],
      "name": "PriceTargetSet",
      "type": "event"
    },
    {
      "anonymous": false,
      "inputs": [
        {
          "indexed": false,
          "internalType": "uint256",
          "name": "red_fee",
          "type": "uint256"
        }
      ],
      "name": "RedemptionFeeSet",
      "type": "event"
    },
    {
      "anonymous": false,
      "inputs": [
        {
          "indexed": false,
          "internalType": "uint256",
          "name": "new_cooldown",
          "type": "uint256"
        }
      ],
      "name": "RefreshCooldownSet",
      "type": "event"
    },
    {
      "anonymous": false,
      "inputs": [
        {
          "indexed": true,
          "internalType": "address",
          "name": "from",
          "type": "address"
        },
        {
          "indexed": true,
          "internalType": "address",
          "name": "to",
          "type": "address"
        },
        {
          "indexed": false,
          "internalType": "uint256",
          "name": "amount",
          "type": "uint256"
        }
      ],
      "name": "SCAMPBurned",
      "type": "event"
    },
    {
      "anonymous": false,
      "inputs": [
        {
          "indexed": true,
          "internalType": "address",
          "name": "from",
          "type": "address"
        },
        {
          "indexed": true,
          "internalType": "address",
          "name": "to",
          "type": "address"
        },
        {
          "indexed": false,
          "internalType": "uint256",
          "name": "amount",
          "type": "uint256"
        }
      ],
      "name": "SCAMPMinted",
      "type": "event"
    },
    {
      "anonymous": false,
      "inputs": [
        {
          "indexed": false,
          "internalType": "uint256",
          "name": "new_step",
          "type": "uint256"
        }
      ],
      "name": "SCAMPStepSet",
      "type": "event"
    },
    {
      "anonymous": false,
      "inputs": [
        {
          "indexed": true,
          "internalType": "address",
          "name": "from",
          "type": "address"
        },
        {
          "indexed": true,
          "internalType": "address",
          "name": "to",
          "type": "address"
        },
        {
          "indexed": false,
          "internalType": "uint256",
          "name": "value",
          "type": "uint256"
        }
      ],
      "name": "Transfer",
      "type": "event"
    },
    {
      "inputs": [
        {
          "internalType": "address",
          "name": "b_address",
          "type": "address"
        },
        {
          "internalType": "uint256",
          "name": "b_amoount",
          "type": "uint256"
        }
      ],
      "name": "Bank_burn_from",
      "outputs": [],
      "stateMutability": "nonpayable",
      "type": "function"
    },
    {
      "inputs": [
        {
          "internalType": "address",
          "name": "m_address",
          "type": "address"
        },
        {
          "internalType": "uint256",
          "name": "m_amount",
          "type": "uint256"
        }
      ],
      "name": "Bank_mint",
      "outputs": [],
      "stateMutability": "nonpayable",
      "type": "function"
    },
    {
      "inputs": [],
      "name": "CAMP_address",
      "outputs": [
        {
          "internalType": "address",
          "name": "",
          "type": "address"
        }
      ],
      "stateMutability": "view",
      "type": "function"
    },
    {
      "inputs": [],
      "name": "SCAMPBank",
      "outputs": [
        {
          "internalType": "address",
          "name": "",
          "type": "address"
        }
      ],
      "stateMutability": "view",
      "type": "function"
    },
    {
      "inputs": [],
      "name": "SCAMP_info",
      "outputs": [
        {
          "internalType": "uint256",
          "name": "",
          "type": "uint256"
        },
        {
          "internalType": "uint256",
          "name": "",
          "type": "uint256"
        },
        {
          "internalType": "uint256",
          "name": "",
          "type": "uint256"
        },
        {
          "internalType": "uint256",
          "name": "",
          "type": "uint256"
        },
        {
          "internalType": "uint256",
          "name": "",
          "type": "uint256"
        }
      ],
      "stateMutability": "view",
      "type": "function"
    },
    {
      "inputs": [],
      "name": "SCAMP_step",
      "outputs": [
        {
          "internalType": "uint256",
          "name": "",
          "type": "uint256"
        }
      ],
      "stateMutability": "view",
      "type": "function"
    },
    {
      "inputs": [],
      "name": "_assetOracle",
      "outputs": [
        {
          "internalType": "contract AssetOracle",
          "name": "",
          "type": "address"
        }
      ],
      "stateMutability": "view",
      "type": "function"
    },
    {
      "inputs": [],
      "name": "acceptOwnership",
      "outputs": [],
      "stateMutability": "nonpayable",
      "type": "function"
    },
    {
      "inputs": [
        {
          "internalType": "address",
          "name": "owner",
          "type": "address"
        },
        {
          "internalType": "address",
          "name": "spender",
          "type": "address"
        }
      ],
      "name": "allowance",
      "outputs": [
        {
          "internalType": "uint256",
          "name": "",
          "type": "uint256"
        }
      ],
      "stateMutability": "view",
      "type": "function"
    },
    {
      "inputs": [
        {
          "internalType": "address",
          "name": "spender",
          "type": "address"
        },
        {
          "internalType": "uint256",
          "name": "amount",
          "type": "uint256"
        }
      ],
      "name": "approve",
      "outputs": [
        {
          "internalType": "bool",
          "name": "",
          "type": "bool"
        }
      ],
      "stateMutability": "nonpayable",
      "type": "function"
    },
    {
      "inputs": [
        {
          "internalType": "address",
          "name": "account",
          "type": "address"
        }
      ],
      "name": "balanceOf",
      "outputs": [
        {
          "internalType": "uint256",
          "name": "",
          "type": "uint256"
        }
      ],
      "stateMutability": "view",
      "type": "function"
    },
    {
      "inputs": [],
      "name": "collateral_ratio_paused",
      "outputs": [
        {
          "internalType": "bool",
          "name": "",
          "type": "bool"
        }
      ],
      "stateMutability": "view",
      "type": "function"
    },
    {
      "inputs": [],
      "name": "controller_address",
      "outputs": [
        {
          "internalType": "address",
          "name": "",
          "type": "address"
        }
      ],
      "stateMutability": "view",
      "type": "function"
    },
    {
      "inputs": [],
      "name": "creator_address",
      "outputs": [
        {
          "internalType": "address",
          "name": "",
          "type": "address"
        }
      ],
      "stateMutability": "view",
      "type": "function"
    },
    {
      "inputs": [],
      "name": "current_collateral_ratio",
      "outputs": [
        {
          "internalType": "uint256",
          "name": "",
          "type": "uint256"
        }
      ],
      "stateMutability": "view",
      "type": "function"
    },
    {
      "inputs": [],
      "name": "decimals",
      "outputs": [
        {
          "internalType": "uint8",
          "name": "",
          "type": "uint8"
        }
      ],
      "stateMutability": "view",
      "type": "function"
    },
    {
      "inputs": [
        {
          "internalType": "address",
          "name": "spender",
          "type": "address"
        },
        {
          "internalType": "uint256",
          "name": "subtractedValue",
          "type": "uint256"
        }
      ],
      "name": "decreaseAllowance",
      "outputs": [
        {
          "internalType": "bool",
          "name": "",
          "type": "bool"
        }
      ],
      "stateMutability": "nonpayable",
      "type": "function"
    },
    {
      "inputs": [],
      "name": "default_admin_address",
      "outputs": [
        {
          "internalType": "address",
          "name": "",
          "type": "address"
        }
      ],
      "stateMutability": "view",
      "type": "function"
    },
    {
      "inputs": [],
      "name": "genesis_supply",
      "outputs": [
        {
          "internalType": "uint256",
          "name": "",
          "type": "uint256"
        }
      ],
      "stateMutability": "view",
      "type": "function"
    },
    {
      "inputs": [
        {
          "internalType": "address",
          "name": "spender",
          "type": "address"
        },
        {
          "internalType": "uint256",
          "name": "addedValue",
          "type": "uint256"
        }
      ],
      "name": "increaseAllowance",
      "outputs": [
        {
          "internalType": "bool",
          "name": "",
          "type": "bool"
        }
      ],
      "stateMutability": "nonpayable",
      "type": "function"
    },
    {
      "inputs": [],
      "name": "last_call_time",
      "outputs": [
        {
          "internalType": "uint256",
          "name": "",
          "type": "uint256"
        }
      ],
      "stateMutability": "view",
      "type": "function"
    },
    {
      "inputs": [],
      "name": "minting_fee",
      "outputs": [
        {
          "internalType": "uint256",
          "name": "",
          "type": "uint256"
        }
      ],
      "stateMutability": "view",
      "type": "function"
    },
    {
      "inputs": [],
      "name": "name",
      "outputs": [
        {
          "internalType": "string",
          "name": "",
          "type": "string"
        }
      ],
      "stateMutability": "view",
      "type": "function"
    },
    {
      "inputs": [
        {
          "internalType": "address",
          "name": "_owner",
          "type": "address"
        }
      ],
      "name": "nominateNewOwner",
      "outputs": [],
      "stateMutability": "nonpayable",
      "type": "function"
    },
    {
      "inputs": [],
      "name": "nominatedOwner",
      "outputs": [
        {
          "internalType": "address",
          "name": "",
          "type": "address"
        }
      ],
      "stateMutability": "view",
      "type": "function"
    },
    {
      "inputs": [],
      "name": "owner",
      "outputs": [
        {
          "internalType": "address",
          "name": "",
          "type": "address"
        }
      ],
      "stateMutability": "view",
      "type": "function"
    },
    {
      "inputs": [],
      "name": "price_band",
      "outputs": [
        {
          "internalType": "uint256",
          "name": "",
          "type": "uint256"
        }
      ],
      "stateMutability": "view",
      "type": "function"
    },
    {
      "inputs": [],
      "name": "price_target",
      "outputs": [
        {
          "internalType": "uint256",
          "name": "",
          "type": "uint256"
        }
      ],
      "stateMutability": "view",
      "type": "function"
    },
    {
      "inputs": [],
      "name": "redemption_fee",
      "outputs": [
        {
          "internalType": "uint256",
          "name": "",
          "type": "uint256"
        }
      ],
      "stateMutability": "view",
      "type": "function"
    },
    {
      "inputs": [],
      "name": "refreshCollateralRatio",
      "outputs": [],
      "stateMutability": "nonpayable",
      "type": "function"
    },
    {
      "inputs": [],
      "name": "refresh_cooldown",
      "outputs": [
        {
          "internalType": "uint256",
          "name": "",
          "type": "uint256"
        }
      ],
      "stateMutability": "view",
      "type": "function"
    },
    {
      "inputs": [
        {
          "internalType": "address",
          "name": "_Bank_address",
          "type": "address"
        }
      ],
      "name": "setBankAddress",
      "outputs": [],
      "stateMutability": "nonpayable",
      "type": "function"
    },
    {
      "inputs": [
        {
          "internalType": "address",
          "name": "_CAMP_address",
          "type": "address"
        }
      ],
      "name": "setCAMPAddress",
      "outputs": [],
      "stateMutability": "nonpayable",
      "type": "function"
    },
    {
      "inputs": [
        {
          "internalType": "address",
          "name": "_controller_address",
          "type": "address"
        }
      ],
      "name": "setController",
      "outputs": [],
      "stateMutability": "nonpayable",
      "type": "function"
    },
    {
      "inputs": [
        {
          "internalType": "uint256",
          "name": "mint_fee",
          "type": "uint256"
        }
      ],
      "name": "setMintingFee",
      "outputs": [],
      "stateMutability": "nonpayable",
      "type": "function"
    },
    {
      "inputs": [
        {
          "internalType": "address",
          "name": "_oracleAddress",
          "type": "address"
        }
      ],
      "name": "setOracleAddress",
      "outputs": [],
      "stateMutability": "nonpayable",
      "type": "function"
    },
    {
      "inputs": [
        {
          "internalType": "uint256",
          "name": "_price_band",
          "type": "uint256"
        }
      ],
      "name": "setPriceBand",
      "outputs": [],
      "stateMutability": "nonpayable",
      "type": "function"
    },
    {
      "inputs": [
        {
          "internalType": "uint256",
          "name": "_new_price_target",
          "type": "uint256"
        }
      ],
      "name": "setPriceTarget",
      "outputs": [],
      "stateMutability": "nonpayable",
      "type": "function"
    },
    {
      "inputs": [
        {
          "internalType": "uint256",
          "name": "red_fee",
          "type": "uint256"
        }
      ],
      "name": "setRedemptionFee",
      "outputs": [],
      "stateMutability": "nonpayable",
      "type": "function"
    },
    {
      "inputs": [
        {
          "internalType": "uint256",
          "name": "_new_cooldown",
          "type": "uint256"
        }
      ],
      "name": "setRefreshCooldown",
      "outputs": [],
      "stateMutability": "nonpayable",
      "type": "function"
    },
    {
      "inputs": [
        {
          "internalType": "uint256",
          "name": "_new_step",
          "type": "uint256"
        }
      ],
      "name": "setSCAMPStep",
      "outputs": [],
      "stateMutability": "nonpayable",
      "type": "function"
    },
    {
      "inputs": [],
      "name": "symbol",
      "outputs": [
        {
          "internalType": "string",
          "name": "",
          "type": "string"
        }
      ],
      "stateMutability": "view",
      "type": "function"
    },
    {
      "inputs": [],
      "name": "toggleCollateralRatio",
      "outputs": [],
      "stateMutability": "nonpayable",
      "type": "function"
    },
    {
      "inputs": [],
      "name": "totalSupply",
      "outputs": [
        {
          "internalType": "uint256",
          "name": "",
          "type": "uint256"
        }
      ],
      "stateMutability": "view",
      "type": "function"
    },
    {
      "inputs": [
        {
          "internalType": "address",
          "name": "recipient",
          "type": "address"
        },
        {
          "internalType": "uint256",
          "name": "amount",
          "type": "uint256"
        }
      ],
      "name": "transfer",
      "outputs": [
        {
          "internalType": "bool",
          "name": "",
          "type": "bool"
        }
      ],
      "stateMutability": "nonpayable",
      "type": "function"
    },
    {
      "inputs": [
        {
          "internalType": "address",
          "name": "sender",
          "type": "address"
        },
        {
          "internalType": "address",
          "name": "recipient",
          "type": "address"
        },
        {
          "internalType": "uint256",
          "name": "amount",
          "type": "uint256"
        }
      ],
      "name": "transferFrom",
      "outputs": [
        {
          "internalType": "bool",
          "name": "",
          "type": "bool"
        }
      ],
      "stateMutability": "nonpayable",
      "type": "function"
    },
    {
      "inputs": [],
      "name": "usdt_address",
      "outputs": [
        {
          "internalType": "address",
          "name": "",
          "type": "address"
        }
      ],
      "stateMutability": "view",
      "type": "function"
    }
  ],
  "bytecode": "0x60806040526015805460ff60a01b191690553480156200001e57600080fd5b506040516200275f3803806200275f833981810160405260208110156200004457600080fd5b5051604080518082018252600a81527f737461626c6543414d500000000000000000000000000000000000000000000060208281019182528351808501909452600584527f7343414d50000000000000000000000000000000000000000000000000000000908401528151849391601291620000c391600391620003f3565b508151620000d9906004906020850190620003f3565b506005805460ff191660ff9290921691909117905550506001600160a01b0381166200016657604080517f08c379a000000000000000000000000000000000000000000000000000000000815260206004820152601960248201527f4f776e657220616464726573732063616e6e6f74206265203000000000000000604482015290519081900360640190fd5b60058054610100600160a81b0319166101006001600160a01b038416908102919091179091556040805160008152602081019290925280517fb532073b38c83145e3e5135377a08bf9aab55bc0fd7c1179cd4fb995d2a5159c9281900390910190a150600880546001600160a01b0319166001600160a01b038316179055620001ee62000245565b601580546001600160a01b0319166001600160a01b039283161790556008546200022591166a01a784379d99db4200000062000249565b506109c4601155610e10601255620f42406013556113886014556200049f565b3390565b6001600160a01b038216620002bf57604080517f08c379a000000000000000000000000000000000000000000000000000000000815260206004820152601e60248201527f4b4950373a206d696e7420746f20746865207a65726f20616464726573730000604482015290519081900360640190fd5b620002cc30838362000372565b620002e8816002546200037760201b62001ad21790919060201c565b6002556001600160a01b038216600090815260208181526040909120546200031b91839062001ad262000377821b17901c565b6001600160a01b038316600081815260208181526040918290209390935580518481529051919230927fddf252ad1be2c89b69c2b068fc378daa952ba7f163c4a11628f55a4df523b3ef9281900390910190a35050565b505050565b600082820183811015620003ec57604080517f08c379a000000000000000000000000000000000000000000000000000000000815260206004820152601b60248201527f536166654d6174683a206164646974696f6e206f766572666c6f770000000000604482015290519081900360640190fd5b9392505050565b828054600181600116156101000203166002900490600052602060002090601f0160209004810192826200042b576000855562000476565b82601f106200044657805160ff191683800117855562000476565b8280016001018555821562000476579182015b828111156200047657825182559160200191906001019062000459565b506200048492915062000488565b5090565b5b8082111562000484576000815560010162000489565b6122b080620004af6000396000f3fe608060405234801561001057600080fd5b50600436106103155760003560e01c806353a47bb7116101a75780639fb2c89f116100ee578063c3355b8d11610097578063dbf6b9b511610071578063dbf6b9b51461076a578063dd62ed3e14610796578063fc3c0eee146107c457610315565b8063c3355b8d1461072e578063cb73999f14610736578063dbe263a51461073e57610315565b8063a9059cbb116100c8578063a9059cbb146106f2578063bef40ec81461071e578063c03f7be31461072657610315565b80639fb2c89f146106b6578063a457c2d7146106be578063a6fd9efa146106ea57610315565b80637dbc1df0116101505780638da5cb5b1161012a5780638da5cb5b1461068057806392eefe9b1461068857806395d89b41146106ae57610315565b80637dbc1df01461063557806381e3ca811461065257806387a140c31461067857610315565b806370a082311161018157806370a08231146105d457806379ba5097146105fa5780637b0b81c31461060257610315565b806353a47bb7146105a75780636140133b146105af57806367feda3e146105cc57610315565b8063238a47091161026b57806339509351116102145780634bd0be23116101ee5780634bd0be23146105715780634c69c00f1461057957806351e238e31461059f57610315565b806339509351146105205780634013124a1461054c578063408ab10f1461055457610315565b80632cb4f63e116102455780632cb4f63e146104f2578063313ce567146104fa57806339299f5c1461051857610315565b8063238a47091461049757806323b872dd146104b45780632853fb10146104ea57610315565b806318160ddd116102cd5780631fef3056116102a75780631fef30561461047f5780632258750a146104875780632332a15a1461048f57610315565b806318160ddd1461042b5780631bd33cb3146104455780631c5df1e51461046257610315565b8063095ea7b3116102fe578063095ea7b3146103bb5780630c2e9674146103fb5780631627540c1461040357610315565b806306fdde031461031a5780630711ab2014610397575b600080fd5b6103226107ea565b6040805160208082528351818301528351919283929083019185019080838360005b8381101561035c578181015183820152602001610344565b50505050905090810190601f1680156103895780820380516001836020036101000a031916815260200191505b509250505060405180910390f35b61039f610880565b604080516001600160a01b039092168252519081900360200190f35b6103e7600480360360408110156103d157600080fd5b506001600160a01b03813516906020013561088f565b604080519115158252519081900360200190f35b61039f6108a5565b6104296004803603602081101561041957600080fd5b50356001600160a01b03166108b4565b005b610433610956565b60408051918252519081900360200190f35b6104296004803603602081101561045b57600080fd5b503561095c565b6104296004803603602081101561047857600080fd5b5035610a0c565b61039f610abc565b610433610acb565b610433610ad1565b610429600480360360208110156104ad57600080fd5b5035610ad7565b6103e7600480360360608110156104ca57600080fd5b506001600160a01b03813581169160208101359091169060400135610b87565b610433610bf0565b610433610bf6565b610502610bfc565b6040805160ff9092168252519081900360200190f35b61039f610c05565b6103e76004803603604081101561053657600080fd5b506001600160a01b038135169060200135610c14565b610429610c4a565b6104296004803603602081101561056a57600080fd5b5035610e88565b61039f610f38565b6104296004803603602081101561058f57600080fd5b50356001600160a01b0316610f47565b610433611031565b61039f611040565b610429600480360360208110156105c557600080fd5b503561104f565b61039f6110ff565b610433600480360360208110156105ea57600080fd5b50356001600160a01b031661110e565b610429611129565b61060a61120c565b6040805195865260208601949094528484019290925260608401526080830152519081900360a00190f35b6104296004803603602081101561064b57600080fd5b503561133f565b6104296004803603602081101561066857600080fd5b50356001600160a01b03166113ef565b6103e761151e565b61039f61152e565b6104296004803603602081101561069e57600080fd5b50356001600160a01b0316611542565b61032261165e565b6104336116bf565b6103e7600480360360408110156106d457600080fd5b506001600160a01b0381351690602001356116c5565b61039f611714565b6103e76004803603604081101561070857600080fd5b506001600160a01b038135169060200135611723565b610429611730565b61043361181f565b610433611825565b61043361182b565b6104296004803603604081101561075457600080fd5b506001600160a01b038135169060200135611831565b6104296004803603604081101561078057600080fd5b506001600160a01b0381351690602001356118de565b610433600480360360408110156107ac57600080fd5b506001600160a01b038135811691602001351661198b565b610429600480360360208110156107da57600080fd5b50356001600160a01b03166119b6565b60038054604080516020601f60026000196101006001881615020190951694909404938401819004810282018101909252828152606093909290918301828280156108765780601f1061084b57610100808354040283529160200191610876565b820191906000526020600020905b81548152906001019060200180831161085957829003601f168201915b5050505050905090565b600a546001600160a01b031681565b600061089c338484611b33565b50600192915050565b600c546001600160a01b031681565b60055461010090046001600160a01b031633146109025760405162461bcd60e51b815260040180806020018281038252602f8152602001806121b9602f913960400191505060405180910390fd5b600680546001600160a01b0383166001600160a01b0319909116811790915560408051918252517f906a1c6bd7e3091ea86693dd029a831c19049ce77f1dce2ce0bab1cacbabce229181900360200190a150565b60025490565b60055461010090046001600160a01b031633148061098457506009546001600160a01b031633145b6109d1576040805162461bcd60e51b81526020600482015260196024820152782737ba103a34329037bbb732b9161031b7b73a3937b63632b960391b604482015290519081900360640190fd5b60118190556040805182815290517f824b351fc48b068f5918193f15d2f73a9bd8537a018208a6390726689f56107d9181900360200190a150565b60055461010090046001600160a01b0316331480610a3457506009546001600160a01b031633145b610a81576040805162461bcd60e51b81526020600482015260196024820152782737ba103a34329037bbb732b9161031b7b73a3937b63632b960391b604482015290519081900360640190fd5b60128190556040805182815290517fc7443059c2ed485e2c9efe4e766bef9432a6f0ed6695741ab4afdffab3b921579181900360200190a150565b600b546001600160a01b031681565b60165481565b600e5481565b60055461010090046001600160a01b0316331480610aff57506009546001600160a01b031633145b610b4c576040805162461bcd60e51b81526020600482015260196024820152782737ba103a34329037bbb732b9161031b7b73a3937b63632b960391b604482015290519081900360640190fd5b60108190556040805182815290517f07aefbcc0d8cdf34e241279c78d93d1df9540b5a60d320437958df12ef59e4639181900360200190a150565b6000610b94848484611c1f565b610be68433610be1856040518060600160405280602781526020016121e8602791396001600160a01b038a1660009081526001602090815260408083203384529091529020549190611d7a565b611b33565b5060019392505050565b60145481565b60135481565b60055460ff1690565b6015546001600160a01b031681565b3360008181526001602090815260408083206001600160a01b0387168452909152812054909161089c918590610be19086611ad2565b600754600d5460408051630264d45b60e01b815290516000936001600160a01b039081169363b3596f0793911691630264d45b91600480820192602092909190829003018186803b158015610c9e57600080fd5b505afa158015610cb2573d6000803e3d6000fd5b505050506040513d6020811015610cc857600080fd5b5051604080517fffffffff0000000000000000000000000000000000000000000000000000000060e085901b1681526001600160a01b039092166004830152516024808301926020929190829003018186803b158015610d2757600080fd5b505afa158015610d3b573d6000803e3d6000fd5b505050506040513d6020811015610d5157600080fd5b505160125460165491925042919091031015610db4576040805162461bcd60e51b815260206004820152601c60248201527f506c65617365207761697420726566726573685f636f6f6c646f776e00000000604482015290519081900360640190fd5b601454601354610dc391611ad2565b811115610df757601154600e5411610ddf576000600e55610df2565b601154600e54610dee91611e11565b600e555b610e4c565b601454601354610e0691611e11565b811015610e4c57620f4240610e28601154600e54611ad290919063ffffffff16565b10610e3957620f4240600e55610e4c565b601154600e54610e4891611ad2565b600e555b42601655600e5460408051918252517fb1200af9b3ac4dec88c9d01e1fb7cc7fa1f0fe55bf4afac1f30cc4fc2b2d1dd29181900360200190a150565b60055461010090046001600160a01b0316331480610eb057506009546001600160a01b031633145b610efd576040805162461bcd60e51b81526020600482015260196024820152782737ba103a34329037bbb732b9161031b7b73a3937b63632b960391b604482015290519081900360640190fd5b60138190556040805182815290517f898a2c9df7982133daaa8cfd78b8c49c520cba03205eec6480552c19059f6e3a9181900360200190a150565b6008546001600160a01b031681565b60055461010090046001600160a01b0316331480610f6f57506009546001600160a01b031633145b610fbc576040805162461bcd60e51b81526020600482015260196024820152782737ba103a34329037bbb732b9161031b7b73a3937b63632b960391b604482015290519081900360640190fd5b6001600160a01b03811661100f576040805162461bcd60e51b815260206004820152601560248201527416995c9bc81859191c995cdcc819195d1958dd1959605a1b604482015290519081900360640190fd5b600780546001600160a01b0319166001600160a01b0392909216919091179055565b6a01a784379d99db4200000081565b6006546001600160a01b031681565b60055461010090046001600160a01b031633148061107757506009546001600160a01b031633145b6110c4576040805162461bcd60e51b81526020600482015260196024820152782737ba103a34329037bbb732b9161031b7b73a3937b63632b960391b604482015290519081900360640190fd5b60148190556040805182815290517fe9febe6aec89ff2870eeab6d13333c59cbed275b1d9a95f527c853d99ddb7cf49181900360200190a150565b6009546001600160a01b031681565b6001600160a01b031660009081526020819052604090205490565b6006546001600160a01b031633146111725760405162461bcd60e51b81526004018080602001828103825260358152602001806120f96035913960400191505060405180910390fd5b600554600654604080516101009093046001600160a01b039081168452909116602083015280517fb532073b38c83145e3e5135377a08bf9aab55bc0fd7c1179cd4fb995d2a5159c9281900390910190a160068054600580547fffffffffffffffffffffff0000000000000000000000000000000000000000ff166101006001600160a01b038416021790556001600160a01b0319169055565b600754600d5460408051630264d45b60e01b8152905160009384938493849384936001600160a01b039081169363b3596f0793911691630264d45b91600480820192602092909190829003018186803b15801561126857600080fd5b505afa15801561127c573d6000803e3d6000fd5b505050506040513d602081101561129257600080fd5b5051604080517fffffffff0000000000000000000000000000000000000000000000000000000060e085901b1681526001600160a01b039092166004830152516024808301926020929190829003018186803b1580156112f157600080fd5b505afa158015611305573d6000803e3d6000fd5b505050506040513d602081101561131b57600080fd5b5051611325610956565b600e54601054600f54945094509450945094509091929394565b60055461010090046001600160a01b031633148061136757506009546001600160a01b031633145b6113b4576040805162461bcd60e51b81526020600482015260196024820152782737ba103a34329037bbb732b9161031b7b73a3937b63632b960391b604482015290519081900360640190fd5b600f8190556040805182815290517f91cc643d187eb250905520d3dae0b1017edd16961d27ab9a4a61fea5e38f717d9181900360200190a150565b60055461010090046001600160a01b031633148061141757506009546001600160a01b031633145b611464576040805162461bcd60e51b81526020600482015260196024820152782737ba103a34329037bbb732b9161031b7b73a3937b63632b960391b604482015290519081900360640190fd5b6001600160a01b0381166114b7576040805162461bcd60e51b815260206004820152601560248201527416995c9bc81859191c995cdcc819195d1958dd1959605a1b604482015290519081900360640190fd5b600a80546001600160a01b038084166001600160a01b0319928316811793849055600d80549093169390911692909217905560408051918252517f1c950088a34f94b646255759072e9d26ed6f958a790853da316c06377a99883a9181900360200190a150565b601554600160a01b900460ff1681565b60055461010090046001600160a01b031681565b60055461010090046001600160a01b031633148061156a57506009546001600160a01b031633145b6115b7576040805162461bcd60e51b81526020600482015260196024820152782737ba103a34329037bbb732b9161031b7b73a3937b63632b960391b604482015290519081900360640190fd5b6001600160a01b03811661160a576040805162461bcd60e51b815260206004820152601560248201527416995c9bc81859191c995cdcc819195d1958dd1959605a1b604482015290519081900360640190fd5b600980546001600160a01b0383166001600160a01b0319909116811790915560408051918252517f79f74fd5964b6943d8a1865abfb7f668c92fa3f32c0a2e3195da7d0946703ad79181900360200190a150565b60048054604080516020601f60026000196101006001881615020190951694909404938401819004810282018101909252828152606093909290918301828280156108765780601f1061084b57610100808354040283529160200191610876565b60115481565b600061089c3384610be185604051806060016040528060248152602001612171602491393360009081526001602090815260408083206001600160a01b038d1684529091529020549190611d7a565b6007546001600160a01b031681565b600061089c338484611c1f565b60055461010090046001600160a01b031633148061175857506009546001600160a01b031633145b6117a5576040805162461bcd60e51b81526020600482015260196024820152782737ba103a34329037bbb732b9161031b7b73a3937b63632b960391b604482015290519081900360640190fd5b6015805460ff600160a01b80830482161581027fffffffffffffffffffffff00ffffffffffffffffffffffffffffffffffffffff90931692909217928390556040805192909304161515815290517f209068f7bed5a02fb7695c3e3b61bb8324d1facb25523c6422bfd2105ec44d929181900360200190a1565b60125481565b60105481565b600f5481565b600c546001600160a01b03163314611890576040805162461bcd60e51b815260206004820152601360248201527f6f6e6c792042616e6b20436f6e74726163742100000000000000000000000000604482015290519081900360640190fd5b61189a8282611e53565b6040805182815290516001600160a01b0384169133917fdad3ed3510fe15dde55e79fa4859e96de27362c8325906c64827f272dc7e05d29181900360200190a35050565b600c546001600160a01b0316331461193d576040805162461bcd60e51b815260206004820152601360248201527f6f6e6c792042616e6b20436f6e74726163742100000000000000000000000000604482015290519081900360640190fd5b6119478282611f43565b60408051828152905133916001600160a01b038516917f13088f04e1910bc7d2c5ef8bf05069ae54d800d6e7d6ca319b7d3065fbe26e309181900360200190a35050565b6001600160a01b03918216600090815260016020908152604080832093909416825291909152205490565b60055461010090046001600160a01b03163314806119de57506009546001600160a01b031633145b611a2b576040805162461bcd60e51b81526020600482015260196024820152782737ba103a34329037bbb732b9161031b7b73a3937b63632b960391b604482015290519081900360640190fd5b6001600160a01b038116611a7e576040805162461bcd60e51b815260206004820152601560248201527416995c9bc81859191c995cdcc819195d1958dd1959605a1b604482015290519081900360640190fd5b600c80546001600160a01b0383166001600160a01b0319909116811790915560408051918252517f04a925e9ddb198c19f36db950de12605ef52913ae0a0bfa45bb3714f233fc2899181900360200190a150565b600082820183811015611b2c576040805162461bcd60e51b815260206004820152601b60248201527f536166654d6174683a206164646974696f6e206f766572666c6f770000000000604482015290519081900360640190fd5b9392505050565b6001600160a01b038316611b785760405162461bcd60e51b81526004018080602001828103825260238152602001806122586023913960400191505060405180910390fd5b6001600160a01b038216611bbd5760405162461bcd60e51b81526004018080602001828103825260218152602001806120d86021913960400191505060405180910390fd5b6001600160a01b03808416600081815260016020908152604080832094871680845294825291829020859055815185815291517f8c5be1e5ebec7d5bd14f71427d1e84f3dd0314c0f7b2291e5b200ac8c7c3b9259281900390910190a3505050565b6001600160a01b038316611c645760405162461bcd60e51b81526004018080602001828103825260248152602001806121956024913960400191505060405180910390fd5b6001600160a01b038216611ca95760405162461bcd60e51b815260040180806020018281038252602281526020018061214f6022913960400191505060405180910390fd5b611cb4838383611fbc565b611cf181604051806060016040528060258152602001612233602591396001600160a01b0386166000908152602081905260409020549190611d7a565b6001600160a01b038085166000908152602081905260408082209390935590841681522054611d209082611ad2565b6001600160a01b038084166000818152602081815260409182902094909455805185815290519193928716927fddf252ad1be2c89b69c2b068fc378daa952ba7f163c4a11628f55a4df523b3ef92918290030190a3505050565b60008184841115611e095760405162461bcd60e51b81526004018080602001828103825283818151815260200191508051906020019080838360005b83811015611dce578181015183820152602001611db6565b50505050905090810190601f168015611dfb5780820380516001836020036101000a031916815260200191505b509250505060405180910390fd5b505050900390565b6000611b2c83836040518060400160405280601e81526020017f536166654d6174683a207375627472616374696f6e206f766572666c6f770000815250611d7a565b6001600160a01b038216611eae576040805162461bcd60e51b815260206004820152601e60248201527f4b4950373a206d696e7420746f20746865207a65726f20616464726573730000604482015290519081900360640190fd5b611eb9308383611fbc565b600254611ec69082611ad2565b6002556001600160a01b038216600090815260208190526040902054611eec9082611ad2565b6001600160a01b038316600081815260208181526040918290209390935580518481529051919230927fddf252ad1be2c89b69c2b068fc378daa952ba7f163c4a11628f55a4df523b3ef9281900390910190a35050565b611f4d8282611fc1565b611fb882611f596120d3565b610be18460405180606001604052806024815260200161220f602491396001600160a01b038816600090815260016020526040812090611f976120d3565b6001600160a01b031681526020810191909152604001600020549190611d7a565b5050565b505050565b6001600160a01b03821661201c576040805162461bcd60e51b815260206004820181905260248201527f4b4950373a206275726e2066726f6d20746865207a65726f2061646472657373604482015290519081900360640190fd5b61202882600083611fbc565b6120658160405180606001604052806021815260200161212e602191396001600160a01b0385166000908152602081905260409020549190611d7a565b6001600160a01b03831660009081526020819052604090205560025461208b9082611e11565b6002556040805182815290516000916001600160a01b038516917fddf252ad1be2c89b69c2b068fc378daa952ba7f163c4a11628f55a4df523b3ef9181900360200190a35050565b339056fe4b4950373a20617070726f766520746f20746865207a65726f2061646472657373596f75206d757374206265206e6f6d696e61746564206265666f726520796f752063616e20616363657074206f776e6572736869704b4950373a206275726e20616d6f756e7420657863656564732062616c616e63654b4950373a207472616e7366657220746f20746865207a65726f20616464726573734b4950373a2064656372656173656420616c6c6f77616e63652062656c6f77207a65726f4b4950373a207472616e736665722066726f6d20746865207a65726f20616464726573734f6e6c792074686520636f6e7472616374206f776e6572206d617920706572666f726d207468697320616374696f6e4b4950373a207472616e7366657220616d6f756e74206578636565647320616c6c6f77616e636545524332303a206275726e20616d6f756e74206578636565647320616c6c6f77616e63654b4950373a207472616e7366657220616d6f756e7420657863656564732062616c616e63654b4950373a20617070726f76652066726f6d20746865207a65726f2061646472657373a264697066735822122045b53b2104fedf70136cc926793b8de29549302f2f4480a7b64200a07bb5097264736f6c63430007050033",
  "linkReferences": {},
  "deployedLinkReferences": {}
}