{
  "_format": "hh-sol-artifact-1",
  "contractName": "SCAMP",
  "sourceName": "contracts/bank/SCAMP.sol",
  "abi": [
    {
      "inputs": [
        {
          "internalType": "address",
          "name": "_creator_address",
          "type": "address"
        }
      ],
      "stateMutability": "nonpayable",
      "type": "constructor"
    },
    {
      "anonymous": false,
      "inputs": [
        {
          "indexed": true,
          "internalType": "address",
          "name": "owner",
          "type": "address"
        },
        {
          "indexed": true,
          "internalType": "address",
          "name": "spender",
          "type": "address"
        },
        {
          "indexed": false,
          "internalType": "uint256",
          "name": "value",
          "type": "uint256"
        }
      ],
      "name": "Approval",
      "type": "event"
    },
    {
      "anonymous": false,
      "inputs": [
        {
          "indexed": false,
          "internalType": "address",
          "name": "Bank_address",
          "type": "address"
        }
      ],
      "name": "BankAddressSet",
      "type": "event"
    },
    {
      "anonymous": false,
      "inputs": [
        {
          "indexed": false,
          "internalType": "address",
          "name": "CAMP_address",
          "type": "address"
        }
      ],
      "name": "CAMPAddressSet",
      "type": "event"
    },
    {
      "anonymous": false,
      "inputs": [
        {
          "indexed": false,
          "internalType": "address",
          "name": "CAMP_oracle_addr",
          "type": "address"
        },
        {
          "indexed": false,
          "internalType": "address",
          "name": "klay_address",
          "type": "address"
        }
      ],
      "name": "CAMPKLAYOracleSet",
      "type": "event"
    },
    {
      "anonymous": false,
      "inputs": [
        {
          "indexed": false,
          "internalType": "uint256",
          "name": "current_collateral_ratio",
          "type": "uint256"
        }
      ],
      "name": "CollateralRatioRefreshed",
      "type": "event"
    },
    {
      "anonymous": false,
      "inputs": [
        {
          "indexed": false,
          "internalType": "bool",
          "name": "collateral_ratio_paused",
          "type": "bool"
        }
      ],
      "name": "CollateralRatioToggled",
      "type": "event"
    },
    {
      "anonymous": false,
      "inputs": [
        {
          "indexed": false,
          "internalType": "address",
          "name": "controller_address",
          "type": "address"
        }
      ],
      "name": "ControllerSet",
      "type": "event"
    },
    {
      "anonymous": false,
      "inputs": [
        {
          "indexed": false,
          "internalType": "address",
          "name": "Klay_oracle_addr",
          "type": "address"
        },
        {
          "indexed": false,
          "internalType": "address",
          "name": "klay_address",
          "type": "address"
        }
      ],
      "name": "KLAYUSDTOracleSet",
      "type": "event"
    },
    {
      "anonymous": false,
      "inputs": [
        {
          "indexed": false,
          "internalType": "uint256",
          "name": "min_fee",
          "type": "uint256"
        }
      ],
      "name": "MintingFeeSet",
      "type": "event"
    },
    {
      "anonymous": false,
      "inputs": [
        {
          "indexed": false,
          "internalType": "address",
          "name": "oldOwner",
          "type": "address"
        },
        {
          "indexed": false,
          "internalType": "address",
          "name": "newOwner",
          "type": "address"
        }
      ],
      "name": "OwnerChanged",
      "type": "event"
    },
    {
      "anonymous": false,
      "inputs": [
        {
          "indexed": false,
          "internalType": "address",
          "name": "newOwner",
          "type": "address"
        }
      ],
      "name": "OwnerNominated",
      "type": "event"
    },
    {
      "anonymous": false,
      "inputs": [
        {
          "indexed": false,
          "internalType": "uint256",
          "name": "price_band",
          "type": "uint256"
        }
      ],
      "name": "PriceBandSet",
      "type": "event"
    },
    {
      "anonymous": false,
      "inputs": [
        {
          "indexed": false,
          "internalType": "uint256",
          "name": "new_price_target",
          "type": "uint256"
        }
      ],
      "name": "PriceTargetSet",
      "type": "event"
    },
    {
      "anonymous": false,
      "inputs": [
        {
          "indexed": false,
          "internalType": "uint256",
          "name": "red_fee",
          "type": "uint256"
        }
      ],
      "name": "RedemptionFeeSet",
      "type": "event"
    },
    {
      "anonymous": false,
      "inputs": [
        {
          "indexed": false,
          "internalType": "uint256",
          "name": "new_cooldown",
          "type": "uint256"
        }
      ],
      "name": "RefreshCooldownSet",
      "type": "event"
    },
    {
      "anonymous": false,
      "inputs": [
        {
          "indexed": true,
          "internalType": "address",
          "name": "from",
          "type": "address"
        },
        {
          "indexed": true,
          "internalType": "address",
          "name": "to",
          "type": "address"
        },
        {
          "indexed": false,
          "internalType": "uint256",
          "name": "amount",
          "type": "uint256"
        }
      ],
      "name": "SCAMPBurned",
      "type": "event"
    },
    {
      "anonymous": false,
      "inputs": [
        {
          "indexed": false,
          "internalType": "address",
          "name": "SCAMP_oracle_addr",
          "type": "address"
        },
        {
          "indexed": false,
          "internalType": "address",
          "name": "klay_address",
          "type": "address"
        }
      ],
      "name": "SCAMPKLAYOracleSet",
      "type": "event"
    },
    {
      "anonymous": false,
      "inputs": [
        {
          "indexed": true,
          "internalType": "address",
          "name": "from",
          "type": "address"
        },
        {
          "indexed": true,
          "internalType": "address",
          "name": "to",
          "type": "address"
        },
        {
          "indexed": false,
          "internalType": "uint256",
          "name": "amount",
          "type": "uint256"
        }
      ],
      "name": "SCAMPMinted",
      "type": "event"
    },
    {
      "anonymous": false,
      "inputs": [
        {
          "indexed": false,
          "internalType": "uint256",
          "name": "new_step",
          "type": "uint256"
        }
      ],
      "name": "SCAMPStepSet",
      "type": "event"
    },
    {
      "anonymous": false,
      "inputs": [
        {
          "indexed": true,
          "internalType": "address",
          "name": "from",
          "type": "address"
        },
        {
          "indexed": true,
          "internalType": "address",
          "name": "to",
          "type": "address"
        },
        {
          "indexed": false,
          "internalType": "uint256",
          "name": "value",
          "type": "uint256"
        }
      ],
      "name": "Transfer",
      "type": "event"
    },
    {
      "inputs": [
        {
          "internalType": "address",
          "name": "b_address",
          "type": "address"
        },
        {
          "internalType": "uint256",
          "name": "b_amoount",
          "type": "uint256"
        }
      ],
      "name": "Bank_burn_from",
      "outputs": [],
      "stateMutability": "nonpayable",
      "type": "function"
    },
    {
      "inputs": [
        {
          "internalType": "address",
          "name": "m_address",
          "type": "address"
        },
        {
          "internalType": "uint256",
          "name": "m_amount",
          "type": "uint256"
        }
      ],
      "name": "Bank_mint",
      "outputs": [],
      "stateMutability": "nonpayable",
      "type": "function"
    },
    {
      "inputs": [],
      "name": "CAMP_address",
      "outputs": [
        {
          "internalType": "address",
          "name": "",
          "type": "address"
        }
      ],
      "stateMutability": "view",
      "type": "function"
    },
    {
      "inputs": [],
      "name": "CAMP_klay_oracle_address",
      "outputs": [
        {
          "internalType": "address",
          "name": "",
          "type": "address"
        }
      ],
      "stateMutability": "view",
      "type": "function"
    },
    {
      "inputs": [],
      "name": "CAMP_price",
      "outputs": [
        {
          "internalType": "uint256",
          "name": "",
          "type": "uint256"
        }
      ],
      "stateMutability": "view",
      "type": "function"
    },
    {
      "inputs": [],
      "name": "KLAY_usdt_price",
      "outputs": [
        {
          "internalType": "uint256",
          "name": "",
          "type": "uint256"
        }
      ],
      "stateMutability": "view",
      "type": "function"
    },
    {
      "inputs": [],
      "name": "Klay_Usdt_oracle_address",
      "outputs": [
        {
          "internalType": "address",
          "name": "",
          "type": "address"
        }
      ],
      "stateMutability": "view",
      "type": "function"
    },
    {
      "inputs": [],
      "name": "SCAMPBank",
      "outputs": [
        {
          "internalType": "address",
          "name": "",
          "type": "address"
        }
      ],
      "stateMutability": "view",
      "type": "function"
    },
    {
      "inputs": [],
      "name": "SCAMP_info",
      "outputs": [
        {
          "internalType": "uint256",
          "name": "",
          "type": "uint256"
        },
        {
          "internalType": "uint256",
          "name": "",
          "type": "uint256"
        },
        {
          "internalType": "uint256",
          "name": "",
          "type": "uint256"
        },
        {
          "internalType": "uint256",
          "name": "",
          "type": "uint256"
        },
        {
          "internalType": "uint256",
          "name": "",
          "type": "uint256"
        }
      ],
      "stateMutability": "view",
      "type": "function"
    },
    {
      "inputs": [],
      "name": "SCAMP_klay_oracle_address",
      "outputs": [
        {
          "internalType": "address",
          "name": "",
          "type": "address"
        }
      ],
      "stateMutability": "view",
      "type": "function"
    },
    {
      "inputs": [],
      "name": "SCAMP_price",
      "outputs": [
        {
          "internalType": "uint256",
          "name": "",
          "type": "uint256"
        }
      ],
      "stateMutability": "view",
      "type": "function"
    },
    {
      "inputs": [],
      "name": "SCAMP_step",
      "outputs": [
        {
          "internalType": "uint256",
          "name": "",
          "type": "uint256"
        }
      ],
      "stateMutability": "view",
      "type": "function"
    },
    {
      "inputs": [],
      "name": "acceptOwnership",
      "outputs": [],
      "stateMutability": "nonpayable",
      "type": "function"
    },
    {
      "inputs": [
        {
          "internalType": "address",
          "name": "owner",
          "type": "address"
        },
        {
          "internalType": "address",
          "name": "spender",
          "type": "address"
        }
      ],
      "name": "allowance",
      "outputs": [
        {
          "internalType": "uint256",
          "name": "",
          "type": "uint256"
        }
      ],
      "stateMutability": "view",
      "type": "function"
    },
    {
      "inputs": [
        {
          "internalType": "address",
          "name": "spender",
          "type": "address"
        },
        {
          "internalType": "uint256",
          "name": "amount",
          "type": "uint256"
        }
      ],
      "name": "approve",
      "outputs": [
        {
          "internalType": "bool",
          "name": "",
          "type": "bool"
        }
      ],
      "stateMutability": "nonpayable",
      "type": "function"
    },
    {
      "inputs": [
        {
          "internalType": "address",
          "name": "account",
          "type": "address"
        }
      ],
      "name": "balanceOf",
      "outputs": [
        {
          "internalType": "uint256",
          "name": "",
          "type": "uint256"
        }
      ],
      "stateMutability": "view",
      "type": "function"
    },
    {
      "inputs": [
        {
          "internalType": "address",
          "name": "account",
          "type": "address"
        },
        {
          "internalType": "uint256",
          "name": "amount",
          "type": "uint256"
        }
      ],
      "name": "burnFrom",
      "outputs": [],
      "stateMutability": "nonpayable",
      "type": "function"
    },
    {
      "inputs": [],
      "name": "collateral_ratio_paused",
      "outputs": [
        {
          "internalType": "bool",
          "name": "",
          "type": "bool"
        }
      ],
      "stateMutability": "view",
      "type": "function"
    },
    {
      "inputs": [],
      "name": "controller_address",
      "outputs": [
        {
          "internalType": "address",
          "name": "",
          "type": "address"
        }
      ],
      "stateMutability": "view",
      "type": "function"
    },
    {
      "inputs": [],
      "name": "creator_address",
      "outputs": [
        {
          "internalType": "address",
          "name": "",
          "type": "address"
        }
      ],
      "stateMutability": "view",
      "type": "function"
    },
    {
      "inputs": [],
      "name": "current_collateral_ratio",
      "outputs": [
        {
          "internalType": "uint256",
          "name": "",
          "type": "uint256"
        }
      ],
      "stateMutability": "view",
      "type": "function"
    },
    {
      "inputs": [],
      "name": "decimals",
      "outputs": [
        {
          "internalType": "uint8",
          "name": "",
          "type": "uint8"
        }
      ],
      "stateMutability": "view",
      "type": "function"
    },
    {
      "inputs": [
        {
          "internalType": "address",
          "name": "spender",
          "type": "address"
        },
        {
          "internalType": "uint256",
          "name": "subtractedValue",
          "type": "uint256"
        }
      ],
      "name": "decreaseAllowance",
      "outputs": [
        {
          "internalType": "bool",
          "name": "",
          "type": "bool"
        }
      ],
      "stateMutability": "nonpayable",
      "type": "function"
    },
    {
      "inputs": [],
      "name": "default_admin_address",
      "outputs": [
        {
          "internalType": "address",
          "name": "",
          "type": "address"
        }
      ],
      "stateMutability": "view",
      "type": "function"
    },
    {
      "inputs": [],
      "name": "genesis_supply",
      "outputs": [
        {
          "internalType": "uint256",
          "name": "",
          "type": "uint256"
        }
      ],
      "stateMutability": "view",
      "type": "function"
    },
    {
      "inputs": [
        {
          "internalType": "address",
          "name": "spender",
          "type": "address"
        },
        {
          "internalType": "uint256",
          "name": "addedValue",
          "type": "uint256"
        }
      ],
      "name": "increaseAllowance",
      "outputs": [
        {
          "internalType": "bool",
          "name": "",
          "type": "bool"
        }
      ],
      "stateMutability": "nonpayable",
      "type": "function"
    },
    {
      "inputs": [],
      "name": "klay_address",
      "outputs": [
        {
          "internalType": "address",
          "name": "",
          "type": "address"
        }
      ],
      "stateMutability": "view",
      "type": "function"
    },
    {
      "inputs": [],
      "name": "last_call_time",
      "outputs": [
        {
          "internalType": "uint256",
          "name": "",
          "type": "uint256"
        }
      ],
      "stateMutability": "view",
      "type": "function"
    },
    {
      "inputs": [],
      "name": "minting_fee",
      "outputs": [
        {
          "internalType": "uint256",
          "name": "",
          "type": "uint256"
        }
      ],
      "stateMutability": "view",
      "type": "function"
    },
    {
      "inputs": [],
      "name": "name",
      "outputs": [
        {
          "internalType": "string",
          "name": "",
          "type": "string"
        }
      ],
      "stateMutability": "view",
      "type": "function"
    },
    {
      "inputs": [
        {
          "internalType": "address",
          "name": "_owner",
          "type": "address"
        }
      ],
      "name": "nominateNewOwner",
      "outputs": [],
      "stateMutability": "nonpayable",
      "type": "function"
    },
    {
      "inputs": [],
      "name": "nominatedOwner",
      "outputs": [
        {
          "internalType": "address",
          "name": "",
          "type": "address"
        }
      ],
      "stateMutability": "view",
      "type": "function"
    },
    {
      "inputs": [],
      "name": "owner",
      "outputs": [
        {
          "internalType": "address",
          "name": "",
          "type": "address"
        }
      ],
      "stateMutability": "view",
      "type": "function"
    },
    {
      "inputs": [],
      "name": "price_band",
      "outputs": [
        {
          "internalType": "uint256",
          "name": "",
          "type": "uint256"
        }
      ],
      "stateMutability": "view",
      "type": "function"
    },
    {
      "inputs": [],
      "name": "price_target",
      "outputs": [
        {
          "internalType": "uint256",
          "name": "",
          "type": "uint256"
        }
      ],
      "stateMutability": "view",
      "type": "function"
    },
    {
      "inputs": [],
      "name": "redemption_fee",
      "outputs": [
        {
          "internalType": "uint256",
          "name": "",
          "type": "uint256"
        }
      ],
      "stateMutability": "view",
      "type": "function"
    },
    {
      "inputs": [],
      "name": "refreshCollateralRatio",
      "outputs": [],
      "stateMutability": "nonpayable",
      "type": "function"
    },
    {
      "inputs": [],
      "name": "refresh_cooldown",
      "outputs": [
        {
          "internalType": "uint256",
          "name": "",
          "type": "uint256"
        }
      ],
      "stateMutability": "view",
      "type": "function"
    },
    {
      "inputs": [
        {
          "internalType": "address",
          "name": "_Bank_address",
          "type": "address"
        }
      ],
      "name": "setBankAddress",
      "outputs": [],
      "stateMutability": "nonpayable",
      "type": "function"
    },
    {
      "inputs": [
        {
          "internalType": "address",
          "name": "_CAMP_address",
          "type": "address"
        }
      ],
      "name": "setCAMPAddress",
      "outputs": [],
      "stateMutability": "nonpayable",
      "type": "function"
    },
    {
      "inputs": [
        {
          "internalType": "address",
          "name": "_CAMP_oracle_addr",
          "type": "address"
        },
        {
          "internalType": "address",
          "name": "_klay_address",
          "type": "address"
        }
      ],
      "name": "setCAMPKlayOracle",
      "outputs": [],
      "stateMutability": "nonpayable",
      "type": "function"
    },
    {
      "inputs": [
        {
          "internalType": "address",
          "name": "_controller_address",
          "type": "address"
        }
      ],
      "name": "setController",
      "outputs": [],
      "stateMutability": "nonpayable",
      "type": "function"
    },
    {
      "inputs": [
        {
          "internalType": "address",
          "name": "_Klay_oracle_addr",
          "type": "address"
        },
        {
          "internalType": "address",
          "name": "_USDT_address",
          "type": "address"
        }
      ],
      "name": "setKlayUSDTOracle",
      "outputs": [],
      "stateMutability": "nonpayable",
      "type": "function"
    },
    {
      "inputs": [
        {
          "internalType": "uint256",
          "name": "mint_fee",
          "type": "uint256"
        }
      ],
      "name": "setMintingFee",
      "outputs": [],
      "stateMutability": "nonpayable",
      "type": "function"
    },
    {
      "inputs": [
        {
          "internalType": "uint256",
          "name": "_price_band",
          "type": "uint256"
        }
      ],
      "name": "setPriceBand",
      "outputs": [],
      "stateMutability": "nonpayable",
      "type": "function"
    },
    {
      "inputs": [
        {
          "internalType": "uint256",
          "name": "_new_price_target",
          "type": "uint256"
        }
      ],
      "name": "setPriceTarget",
      "outputs": [],
      "stateMutability": "nonpayable",
      "type": "function"
    },
    {
      "inputs": [
        {
          "internalType": "uint256",
          "name": "red_fee",
          "type": "uint256"
        }
      ],
      "name": "setRedemptionFee",
      "outputs": [],
      "stateMutability": "nonpayable",
      "type": "function"
    },
    {
      "inputs": [
        {
          "internalType": "uint256",
          "name": "_new_cooldown",
          "type": "uint256"
        }
      ],
      "name": "setRefreshCooldown",
      "outputs": [],
      "stateMutability": "nonpayable",
      "type": "function"
    },
    {
      "inputs": [
        {
          "internalType": "address",
          "name": "_SCAMP_oracle_addr",
          "type": "address"
        },
        {
          "internalType": "address",
          "name": "_klay_address",
          "type": "address"
        }
      ],
      "name": "setSCAMPKlayOracle",
      "outputs": [],
      "stateMutability": "nonpayable",
      "type": "function"
    },
    {
      "inputs": [
        {
          "internalType": "uint256",
          "name": "_new_step",
          "type": "uint256"
        }
      ],
      "name": "setSCAMPStep",
      "outputs": [],
      "stateMutability": "nonpayable",
      "type": "function"
    },
    {
      "inputs": [],
      "name": "symbol",
      "outputs": [
        {
          "internalType": "string",
          "name": "",
          "type": "string"
        }
      ],
      "stateMutability": "view",
      "type": "function"
    },
    {
      "inputs": [],
      "name": "toggleCollateralRatio",
      "outputs": [],
      "stateMutability": "nonpayable",
      "type": "function"
    },
    {
      "inputs": [],
      "name": "totalSupply",
      "outputs": [
        {
          "internalType": "uint256",
          "name": "",
          "type": "uint256"
        }
      ],
      "stateMutability": "view",
      "type": "function"
    },
    {
      "inputs": [
        {
          "internalType": "address",
          "name": "recipient",
          "type": "address"
        },
        {
          "internalType": "uint256",
          "name": "amount",
          "type": "uint256"
        }
      ],
      "name": "transfer",
      "outputs": [
        {
          "internalType": "bool",
          "name": "",
          "type": "bool"
        }
      ],
      "stateMutability": "nonpayable",
      "type": "function"
    },
    {
      "inputs": [
        {
          "internalType": "address",
          "name": "sender",
          "type": "address"
        },
        {
          "internalType": "address",
          "name": "recipient",
          "type": "address"
        },
        {
          "internalType": "uint256",
          "name": "amount",
          "type": "uint256"
        }
      ],
      "name": "transferFrom",
      "outputs": [
        {
          "internalType": "bool",
          "name": "",
          "type": "bool"
        }
      ],
      "stateMutability": "nonpayable",
      "type": "function"
    },
    {
      "inputs": [],
      "name": "usdt_address",
      "outputs": [
        {
          "internalType": "address",
          "name": "",
          "type": "address"
        }
      ],
      "stateMutability": "view",
      "type": "function"
    }
  ],
  "bytecode": "0x6080604052601a805460ff60a01b191690553480156200001e57600080fd5b5060405162002d4838038062002d48833981810160405260208110156200004457600080fd5b5051604080518082018252600a81527f737461626c6543414d500000000000000000000000000000000000000000000060208281019182528351808501909452600584527f7343414d50000000000000000000000000000000000000000000000000000000908401528151849391601291620000c391600391620003f3565b508151620000d9906004906020850190620003f3565b506005805460ff191660ff9290921691909117905550506001600160a01b0381166200016657604080517f08c379a000000000000000000000000000000000000000000000000000000000815260206004820152601960248201527f4f776e657220616464726573732063616e6e6f74206265203000000000000000604482015290519081900360640190fd5b60058054610100600160a81b0319166101006001600160a01b038416908102919091179091556040805160008152602081019290925280517fb532073b38c83145e3e5135377a08bf9aab55bc0fd7c1179cd4fb995d2a5159c9281900390910190a150600a80546001600160a01b0319166001600160a01b038316179055620001ee62000245565b601a80546001600160a01b0319166001600160a01b03928316179055600a546200022591166a01a784379d99db4200000062000249565b506109c4601655610e10601755620f42406018556113886019556200049f565b3390565b6001600160a01b038216620002bf57604080517f08c379a000000000000000000000000000000000000000000000000000000000815260206004820152601e60248201527f4b4950373a206d696e7420746f20746865207a65726f20616464726573730000604482015290519081900360640190fd5b620002cc30838362000372565b620002e8816002546200037760201b62001f7f1790919060201c565b6002556001600160a01b038216600090815260208181526040909120546200031b91839062001f7f62000377821b17901c565b6001600160a01b038316600081815260208181526040918290209390935580518481529051919230927fddf252ad1be2c89b69c2b068fc378daa952ba7f163c4a11628f55a4df523b3ef9281900390910190a35050565b505050565b600082820183811015620003ec57604080517f08c379a000000000000000000000000000000000000000000000000000000000815260206004820152601b60248201527f536166654d6174683a206164646974696f6e206f766572666c6f770000000000604482015290519081900360640190fd5b9392505050565b828054600181600116156101000203166002900490600052602060002090601f0160209004810192826200042b576000855562000476565b82601f106200044657805160ff191683800117855562000476565b8280016001018555821562000476579182015b828111156200047657825182559160200191906001019062000459565b506200048492915062000488565b5090565b5b8082111562000484576000815560010162000489565b61289980620004af6000396000f3fe608060405234801561001057600080fd5b50600436106103785760003560e01c806367feda3e116101d3578063a457c2d711610104578063c3355b8d116100a2578063dbf6b9b51161007c578063dbf6b9b514610885578063dd62ed3e146108b1578063fc3c0eee146108df578063fc65a1eb1461090557610378565b8063c3355b8d14610849578063cb73999f14610851578063dbe263a51461085957610378565b8063bc46ccc9116100de578063bc46ccc914610829578063be63a90614610831578063bef40ec814610839578063c03f7be31461084157610378565b8063a457c2d7146107c9578063a9059cbb146107f5578063aba70ce81461082157610378565b806383c96deb11610171578063920968b21161014b578063920968b21461076557806392eefe9b1461079357806395d89b41146107b95780639fb2c89f146107c157610378565b806383c96deb1461074d57806387a140c3146107555780638da5cb5b1461075d57610378565b806379cc6790116101ad57806379cc6790146106ab5780637b0b81c3146106d75780637dbc1df01461070a57806381e3ca811461072757610378565b806367feda3e1461067557806370a082311461067d57806379ba5097146106a357610378565b80632bae1628116102ad578063408ab10f1161024b5780634fdfb1e8116102255780634fdfb1e81461064057806351e238e31461064857806353a47bb7146106505780636140133b1461065857610378565b8063408ab10f146106135780634ac4bd9a146106305780634bd0be231461063857610378565b8063313ce56711610287578063313ce567146105b957806339299f5c146105d757806339509351146105df5780634013124a1461060b57610378565b80632bae1628146105555780632cb4f63e146105835780632d8a2bd01461058b57610378565b80631c5df1e51161031a5780632332a15a116102f45780632332a15a146104f2578063238a4709146104fa57806323b872dd146105175780632853fb101461054d57610378565b80631c5df1e5146104c55780631fef3056146104e25780632258750a146104ea57610378565b80630c2e9674116103565780630c2e96741461045e5780631627540c1461046657806318160ddd1461048e5780631bd33cb3146104a857610378565b806306fdde031461037d5780630711ab20146103fa578063095ea7b31461041e575b600080fd5b61038561090d565b6040805160208082528351818301528351919283929083019185019080838360005b838110156103bf5781810151838201526020016103a7565b50505050905090810190601f1680156103ec5780820380516001836020036101000a031916815260200191505b509250505060405180910390f35b6104026109a3565b604080516001600160a01b039092168252519081900360200190f35b61044a6004803603604081101561043457600080fd5b506001600160a01b0381351690602001356109b2565b604080519115158252519081900360200190f35b6104026109c9565b61048c6004803603602081101561047c57600080fd5b50356001600160a01b03166109d8565b005b610496610a7a565b60408051918252519081900360200190f35b61048c600480360360208110156104be57600080fd5b5035610a80565b61048c600480360360208110156104db57600080fd5b5035610b22565b610402610bc4565b610496610bd3565b610496610bd9565b61048c6004803603602081101561051057600080fd5b5035610bdf565b61044a6004803603606081101561052d57600080fd5b506001600160a01b03813581169160208101359091169060400135610c81565b610496610cea565b61048c6004803603604081101561056b57600080fd5b506001600160a01b0381358116916020013516610cf0565b610496610e39565b61048c600480360360408110156105a157600080fd5b506001600160a01b0381358116916020013516610e3f565b6105c1610f88565b6040805160ff9092168252519081900360200190f35b610402610f91565b61044a600480360360408110156105f557600080fd5b506001600160a01b038135169060200135610fa0565b61048c610fd6565b61048c6004803603602081101561062957600080fd5b5035611111565b6104966111b3565b6104026112e5565b6104026112f4565b610496611303565b610402611312565b61048c6004803603602081101561066e57600080fd5b5035611321565b6104026113c3565b6104966004803603602081101561069357600080fd5b50356001600160a01b03166113d2565b61048c6113ed565b61048c600480360360408110156106c157600080fd5b506001600160a01b0381351690602001356114d0565b6106df61152a565b6040805195865260208601949094528484019290925260608401526080830152519081900360a00190f35b61048c6004803603602081101561072057600080fd5b503561155c565b61048c6004803603602081101561073d57600080fd5b50356001600160a01b03166115fe565b61049661170c565b61044a6117a8565b6104026117b8565b61048c6004803603604081101561077b57600080fd5b506001600160a01b03813581169160200135166117cc565b61048c600480360360208110156107a957600080fd5b50356001600160a01b0316611915565b610385611a23565b610496611a84565b61044a600480360360408110156107df57600080fd5b506001600160a01b038135169060200135611a8a565b61044a6004803603604081101561080b57600080fd5b506001600160a01b038135169060200135611ad9565b610496611ae6565b610402611bcc565b610402611bdb565b61048c611bea565b610496611ccb565b610496611cd1565b610496611cd7565b61048c6004803603604081101561086f57600080fd5b506001600160a01b038135169060200135611cdd565b61048c6004803603604081101561089b57600080fd5b506001600160a01b038135169060200135611d8a565b610496600480360360408110156108c757600080fd5b506001600160a01b0381358116916020013516611e37565b61048c600480360360208110156108f557600080fd5b50356001600160a01b0316611e62565b610402611f70565b60038054604080516020601f60026000196101006001881615020190951694909404938401819004810282018101909252828152606093909290918301828280156109995780601f1061096e57610100808354040283529160200191610999565b820191906000526020600020905b81548152906001019060200180831161097c57829003601f168201915b5050505050905090565b600c546001600160a01b031681565b60006109bf338484611fe0565b5060015b92915050565b6012546001600160a01b031681565b60055461010090046001600160a01b03163314610a265760405162461bcd60e51b815260040180806020018281038252602f815260200180612781602f913960400191505060405180910390fd5b600680546001600160a01b0383166001600160a01b0319909116811790915560408051918252517f906a1c6bd7e3091ea86693dd029a831c19049ce77f1dce2ce0bab1cacbabce229181900360200190a150565b60025490565b60055461010090046001600160a01b0316331480610aa85750600b546001600160a01b031633145b610ae7576040805162461bcd60e51b8152602060048201526019602482015260008051602061273d833981519152604482015290519081900360640190fd5b60168190556040805182815290517f824b351fc48b068f5918193f15d2f73a9bd8537a018208a6390726689f56107d9181900360200190a150565b60055461010090046001600160a01b0316331480610b4a5750600b546001600160a01b031633145b610b89576040805162461bcd60e51b8152602060048201526019602482015260008051602061273d833981519152604482015290519081900360640190fd5b60178190556040805182815290517fc7443059c2ed485e2c9efe4e766bef9432a6f0ed6695741ab4afdffab3b921579181900360200190a150565b6011546001600160a01b031681565b601b5481565b60135481565b60055461010090046001600160a01b0316331480610c075750600b546001600160a01b031633145b610c46576040805162461bcd60e51b8152602060048201526019602482015260008051602061273d833981519152604482015290519081900360640190fd5b60158190556040805182815290517f07aefbcc0d8cdf34e241279c78d93d1df9540b5a60d320437958df12ef59e4639181900360200190a150565b6000610c8e8484846120cc565b610ce08433610cdb856040518060600160405280602781526020016127d1602791396001600160a01b038a1660009081526001602090815260408083203384529091529020549190612227565b611fe0565b5060019392505050565b60195481565b60055461010090046001600160a01b0316331480610d185750600b546001600160a01b031633145b610d57576040805162461bcd60e51b8152602060048201526019602482015260008051602061273d833981519152604482015290519081900360640190fd5b6001600160a01b03821615801590610d7757506001600160a01b03811615155b610dc0576040805162461bcd60e51b815260206004820152601560248201527416995c9bc81859191c995cdcc819195d1958dd1959605a1b604482015290519081900360640190fd5b600e80546001600160a01b038085166001600160a01b03199283168117909355600880548316841790556010805491851691909216811790915560408051928352602083019190915280517fab2acb9bdd45df817979dca4c86ce82f64418491efbcc304ff7d245f52e2ce4a9281900390910190a15050565b60185481565b60055461010090046001600160a01b0316331480610e675750600b546001600160a01b031633145b610ea6576040805162461bcd60e51b8152602060048201526019602482015260008051602061273d833981519152604482015290519081900360640190fd5b6001600160a01b03821615801590610ec657506001600160a01b03811615155b610f0f576040805162461bcd60e51b815260206004820152601560248201527416995c9bc81859191c995cdcc819195d1958dd1959605a1b604482015290519081900360640190fd5b600f80546001600160a01b038085166001600160a01b03199283168117909355600980548316841790556010805491851691909216811790915560408051928352602083019190915280517f02e3eec06e4ff7f6213bb9d8c614762d98feea813421fe956a8734f541cc97379281900390910190a15050565b60055460ff1690565b601a546001600160a01b031681565b3360008181526001602090815260408083206001600160a01b038716845290915281205490916109bf918590610cdb9086611f7f565b6000610fe06111b3565b9050601754601b544203101561103d576040805162461bcd60e51b815260206004820152601c60248201527f506c65617365207761697420726566726573685f636f6f6c646f776e00000000604482015290519081900360640190fd5b60195460185461104c91611f7f565b811115611080576016546013541161106857600060135561107b565b601654601354611077916122be565b6013555b6110d5565b60195460185461108f916122be565b8110156110d557620f42406110b1601654601354611f7f90919063ffffffff16565b106110c257620f42406013556110d5565b6016546013546110d191611f7f565b6013555b42601b5560135460408051918252517fb1200af9b3ac4dec88c9d01e1fb7cc7fa1f0fe55bf4afac1f30cc4fc2b2d1dd29181900360200190a150565b60055461010090046001600160a01b03163314806111395750600b546001600160a01b031633145b611178576040805162461bcd60e51b8152602060048201526019602482015260008051602061273d833981519152604482015290519081900360640190fd5b60188190556040805182815290517f898a2c9df7982133daaa8cfd78b8c49c520cba03205eec6480552c19059f6e3a9181900360200190a150565b60075460115460408051633ddac95360e01b81526001600160a01b039283166004820152620f42406024820152905160009384931691633ddac953916044808301926020929190829003018186803b15801561120e57600080fd5b505afa158015611222573d6000803e3d6000fd5b505050506040513d602081101561123857600080fd5b505160095460105460408051633ddac95360e01b81526001600160a01b039283166004820152620f4240602482015290519394506000939190921691633ddac953916044808301926020929190829003018186803b15801561129957600080fd5b505afa1580156112ad573d6000803e3d6000fd5b505050506040513d60208110156112c357600080fd5b505190506112de816112d884620f4240612300565b90612359565b9250505090565b600a546001600160a01b031681565b600f546001600160a01b031681565b6a01a784379d99db4200000081565b6006546001600160a01b031681565b60055461010090046001600160a01b03163314806113495750600b546001600160a01b031633145b611388576040805162461bcd60e51b8152602060048201526019602482015260008051602061273d833981519152604482015290519081900360640190fd5b60198190556040805182815290517fe9febe6aec89ff2870eeab6d13333c59cbed275b1d9a95f527c853d99ddb7cf49181900360200190a150565b600b546001600160a01b031681565b6001600160a01b031660009081526020819052604090205490565b6006546001600160a01b031633146114365760405162461bcd60e51b81526004018080602001828103825260358152602001806126a16035913960400191505060405180910390fd5b600554600654604080516101009093046001600160a01b039081168452909116602083015280517fb532073b38c83145e3e5135377a08bf9aab55bc0fd7c1179cd4fb995d2a5159c9281900390910190a160068054600580547fffffffffffffffffffffff0000000000000000000000000000000000000000ff166101006001600160a01b038416021790556001600160a01b0319169055565b6000611507826040518060600160405280602481526020016127f860249139611500866114fb61239b565b611e37565b9190612227565b905061151b8361151561239b565b83611fe0565b611525838361239f565b505050565b600080600080600061153a6111b3565b611542610a7a565b601354601554601454945094509450945094509091929394565b60055461010090046001600160a01b03163314806115845750600b546001600160a01b031633145b6115c3576040805162461bcd60e51b8152602060048201526019602482015260008051602061273d833981519152604482015290519081900360640190fd5b60148190556040805182815290517f91cc643d187eb250905520d3dae0b1017edd16961d27ab9a4a61fea5e38f717d9181900360200190a150565b60055461010090046001600160a01b03163314806116265750600b546001600160a01b031633145b611665576040805162461bcd60e51b8152602060048201526019602482015260008051602061273d833981519152604482015290519081900360640190fd5b6001600160a01b0381166116b8576040805162461bcd60e51b815260206004820152601560248201527416995c9bc81859191c995cdcc819195d1958dd1959605a1b604482015290519081900360640190fd5b600c80546001600160a01b0383166001600160a01b0319909116811790915560408051918252517f1c950088a34f94b646255759072e9d26ed6f958a790853da316c06377a99883a9181900360200190a150565b60075460115460408051633ddac95360e01b81526001600160a01b039283166004820152620f42406024820152905160009384931691633ddac953916044808301926020929190829003018186803b15801561176757600080fd5b505afa15801561177b573d6000803e3d6000fd5b505050506040513d602081101561179157600080fd5b505190506117a281620f4240612300565b91505090565b601a54600160a01b900460ff1681565b60055461010090046001600160a01b031681565b60055461010090046001600160a01b03163314806117f45750600b546001600160a01b031633145b611833576040805162461bcd60e51b8152602060048201526019602482015260008051602061273d833981519152604482015290519081900360640190fd5b6001600160a01b0382161580159061185357506001600160a01b03811615155b61189c576040805162461bcd60e51b815260206004820152601560248201527416995c9bc81859191c995cdcc819195d1958dd1959605a1b604482015290519081900360640190fd5b600d80546001600160a01b038085166001600160a01b03199283168117909355600780548316841790556011805491851691909216811790915560408051928352602083019190915280517fc8f89079a3194a73e1856105d791b1980db8e285c5966b315b478c47819f83c49281900390910190a15050565b60055461010090046001600160a01b031633148061193d5750600b546001600160a01b031633145b61197c576040805162461bcd60e51b8152602060048201526019602482015260008051602061273d833981519152604482015290519081900360640190fd5b6001600160a01b0381166119cf576040805162461bcd60e51b815260206004820152601560248201527416995c9bc81859191c995cdcc819195d1958dd1959605a1b604482015290519081900360640190fd5b600b80546001600160a01b0383166001600160a01b0319909116811790915560408051918252517f79f74fd5964b6943d8a1865abfb7f668c92fa3f32c0a2e3195da7d0946703ad79181900360200190a150565b60048054604080516020601f60026000196101006001881615020190951694909404938401819004810282018101909252828152606093909290918301828280156109995780601f1061096e57610100808354040283529160200191610999565b60165481565b60006109bf3384610cdb85604051806060016040528060248152602001612719602491393360009081526001602090815260408083206001600160a01b038d1684529091529020549190612227565b60006109bf3384846120cc565b60075460115460408051633ddac95360e01b81526001600160a01b039283166004820152620f42406024820152905160009384931691633ddac953916044808301926020929190829003018186803b158015611b4157600080fd5b505afa158015611b55573d6000803e3d6000fd5b505050506040513d6020811015611b6b57600080fd5b505160085460105460408051633ddac95360e01b81526001600160a01b039283166004820152620f4240602482015290519394506000939190921691633ddac953916044808301926020929190829003018186803b15801561129957600080fd5b600d546001600160a01b031681565b600e546001600160a01b031681565b60055461010090046001600160a01b0316331480611c125750600b546001600160a01b031633145b611c51576040805162461bcd60e51b8152602060048201526019602482015260008051602061273d833981519152604482015290519081900360640190fd5b601a805460ff600160a01b80830482161581027fffffffffffffffffffffff00ffffffffffffffffffffffffffffffffffffffff90931692909217928390556040805192909304161515815290517f209068f7bed5a02fb7695c3e3b61bb8324d1facb25523c6422bfd2105ec44d929181900360200190a1565b60175481565b60155481565b60145481565b6012546001600160a01b03163314611d3c576040805162461bcd60e51b815260206004820152601360248201527f6f6e6c792042616e6b20436f6e74726163742100000000000000000000000000604482015290519081900360640190fd5b611d4682826124b1565b6040805182815290516001600160a01b0384169133917fdad3ed3510fe15dde55e79fa4859e96de27362c8325906c64827f272dc7e05d29181900360200190a35050565b6012546001600160a01b03163314611de9576040805162461bcd60e51b815260206004820152601360248201527f6f6e6c792042616e6b20436f6e74726163742100000000000000000000000000604482015290519081900360640190fd5b611df382826125a1565b60408051828152905133916001600160a01b038516917f13088f04e1910bc7d2c5ef8bf05069ae54d800d6e7d6ca319b7d3065fbe26e309181900360200190a35050565b6001600160a01b03918216600090815260016020908152604080832093909416825291909152205490565b60055461010090046001600160a01b0316331480611e8a5750600b546001600160a01b031633145b611ec9576040805162461bcd60e51b8152602060048201526019602482015260008051602061273d833981519152604482015290519081900360640190fd5b6001600160a01b038116611f1c576040805162461bcd60e51b815260206004820152601560248201527416995c9bc81859191c995cdcc819195d1958dd1959605a1b604482015290519081900360640190fd5b601280546001600160a01b0383166001600160a01b0319909116811790915560408051918252517f04a925e9ddb198c19f36db950de12605ef52913ae0a0bfa45bb3714f233fc2899181900360200190a150565b6010546001600160a01b031681565b600082820183811015611fd9576040805162461bcd60e51b815260206004820152601b60248201527f536166654d6174683a206164646974696f6e206f766572666c6f770000000000604482015290519081900360640190fd5b9392505050565b6001600160a01b0383166120255760405162461bcd60e51b81526004018080602001828103825260238152602001806128416023913960400191505060405180910390fd5b6001600160a01b03821661206a5760405162461bcd60e51b81526004018080602001828103825260218152602001806126806021913960400191505060405180910390fd5b6001600160a01b03808416600081815260016020908152604080832094871680845294825291829020859055815185815291517f8c5be1e5ebec7d5bd14f71427d1e84f3dd0314c0f7b2291e5b200ac8c7c3b9259281900390910190a3505050565b6001600160a01b0383166121115760405162461bcd60e51b815260040180806020018281038252602481526020018061275d6024913960400191505060405180910390fd5b6001600160a01b0382166121565760405162461bcd60e51b81526004018080602001828103825260228152602001806126f76022913960400191505060405180910390fd5b612161838383611525565b61219e8160405180606001604052806025815260200161281c602591396001600160a01b0386166000908152602081905260409020549190612227565b6001600160a01b0380851660009081526020819052604080822093909355908416815220546121cd9082611f7f565b6001600160a01b038084166000818152602081815260409182902094909455805185815290519193928716927fddf252ad1be2c89b69c2b068fc378daa952ba7f163c4a11628f55a4df523b3ef92918290030190a3505050565b600081848411156122b65760405162461bcd60e51b81526004018080602001828103825283818151815260200191508051906020019080838360005b8381101561227b578181015183820152602001612263565b50505050905090810190601f1680156122a85780820380516001836020036101000a031916815260200191505b509250505060405180910390fd5b505050900390565b6000611fd983836040518060400160405280601e81526020017f536166654d6174683a207375627472616374696f6e206f766572666c6f770000815250612227565b60008261230f575060006109c3565b8282028284828161231c57fe5b0414611fd95760405162461bcd60e51b81526004018080602001828103825260218152602001806127b06021913960400191505060405180910390fd5b6000611fd983836040518060400160405280601a81526020017f536166654d6174683a206469766973696f6e206279207a65726f00000000000081525061261a565b3390565b6001600160a01b0382166123fa576040805162461bcd60e51b815260206004820181905260248201527f4b4950373a206275726e2066726f6d20746865207a65726f2061646472657373604482015290519081900360640190fd5b61240682600083611525565b612443816040518060600160405280602181526020016126d6602191396001600160a01b0385166000908152602081905260409020549190612227565b6001600160a01b03831660009081526020819052604090205560025461246990826122be565b6002556040805182815290516000916001600160a01b038516917fddf252ad1be2c89b69c2b068fc378daa952ba7f163c4a11628f55a4df523b3ef9181900360200190a35050565b6001600160a01b03821661250c576040805162461bcd60e51b815260206004820152601e60248201527f4b4950373a206d696e7420746f20746865207a65726f20616464726573730000604482015290519081900360640190fd5b612517308383611525565b6002546125249082611f7f565b6002556001600160a01b03821660009081526020819052604090205461254a9082611f7f565b6001600160a01b038316600081815260208181526040918290209390935580518481529051919230927fddf252ad1be2c89b69c2b068fc378daa952ba7f163c4a11628f55a4df523b3ef9281900390910190a35050565b6125ab828261239f565b612616826125b761239b565b610cdb846040518060600160405280602481526020016127f8602491396001600160a01b0388166000908152600160205260408120906125f561239b565b6001600160a01b031681526020810191909152604001600020549190612227565b5050565b600081836126695760405162461bcd60e51b815260206004820181815283516024840152835190928392604490910191908501908083836000831561227b578181015183820152602001612263565b50600083858161267557fe5b049594505050505056fe4b4950373a20617070726f766520746f20746865207a65726f2061646472657373596f75206d757374206265206e6f6d696e61746564206265666f726520796f752063616e20616363657074206f776e6572736869704b4950373a206275726e20616d6f756e7420657863656564732062616c616e63654b4950373a207472616e7366657220746f20746865207a65726f20616464726573734b4950373a2064656372656173656420616c6c6f77616e63652062656c6f77207a65726f4e6f7420746865206f776e65722c20636f6e74726f6c6c6572000000000000004b4950373a207472616e736665722066726f6d20746865207a65726f20616464726573734f6e6c792074686520636f6e7472616374206f776e6572206d617920706572666f726d207468697320616374696f6e536166654d6174683a206d756c7469706c69636174696f6e206f766572666c6f774b4950373a207472616e7366657220616d6f756e74206578636565647320616c6c6f77616e636545524332303a206275726e20616d6f756e74206578636565647320616c6c6f77616e63654b4950373a207472616e7366657220616d6f756e7420657863656564732062616c616e63654b4950373a20617070726f76652066726f6d20746865207a65726f2061646472657373a26469706673582212207aaed46179d59e9a87aa900c354f0bd4f137bb61b784192655ca2391816d123864736f6c63430007050033",
  "linkReferences": {},
  "deployedLinkReferences": {}
}